{
  "contractName": "MonsterBattle",
  "abi": [
    {
      "inputs": [],
      "stateMutability": "nonpayable",
      "type": "constructor"
    },
    {
      "anonymous": false,
      "inputs": [
        {
          "indexed": false,
          "internalType": "bool",
          "name": "",
          "type": "bool"
        }
      ],
      "name": "Fighter1Win",
      "type": "event"
    },
    {
      "inputs": [
        {
          "components": [
            {
              "internalType": "uint8",
              "name": "HP",
              "type": "uint8"
            },
            {
              "internalType": "uint8",
              "name": "strength",
              "type": "uint8"
            },
            {
              "internalType": "uint8",
              "name": "defensive",
              "type": "uint8"
            },
            {
              "internalType": "uint8",
              "name": "speed",
              "type": "uint8"
            }
          ],
          "internalType": "struct MonsterLib.Statistics",
          "name": "_player1",
          "type": "tuple"
        },
        {
          "components": [
            {
              "internalType": "uint8",
              "name": "HP",
              "type": "uint8"
            },
            {
              "internalType": "uint8",
              "name": "strength",
              "type": "uint8"
            },
            {
              "internalType": "uint8",
              "name": "defensive",
              "type": "uint8"
            },
            {
              "internalType": "uint8",
              "name": "speed",
              "type": "uint8"
            }
          ],
          "internalType": "struct MonsterLib.Statistics",
          "name": "_player2",
          "type": "tuple"
        },
        {
          "internalType": "uint8",
          "name": "_componentLevel",
          "type": "uint8"
        }
      ],
      "name": "battleWithPlayer",
      "outputs": [
        {
          "internalType": "uint8",
          "name": "exp",
          "type": "uint8"
        }
      ],
      "stateMutability": "nonpayable",
      "type": "function"
    },
    {
      "inputs": [
        {
          "components": [
            {
              "internalType": "uint8",
              "name": "HP",
              "type": "uint8"
            },
            {
              "internalType": "uint8",
              "name": "strength",
              "type": "uint8"
            },
            {
              "internalType": "uint8",
              "name": "defensive",
              "type": "uint8"
            },
            {
              "internalType": "uint8",
              "name": "speed",
              "type": "uint8"
            }
          ],
          "internalType": "struct MonsterLib.Statistics",
          "name": "_player",
          "type": "tuple"
        },
        {
          "internalType": "uint256",
          "name": "_defaultMonsterId",
          "type": "uint256"
        }
      ],
      "name": "battleWithDefaultMonster",
      "outputs": [
        {
          "internalType": "uint8",
          "name": "exp",
          "type": "uint8"
        }
      ],
      "stateMutability": "nonpayable",
      "type": "function"
    }
  ],
  "bytecode": "0x608060405234801561001057600080fd5b5060006040518060a00160405280600b8152602001600581526020016005815260200160058152602001600160ff1681525090806001815401808255809150506001900390600052602060002090600502016000909190919091506000820151816000015560208201518160010155604082015181600201556060820151816003015560808201518160040160006101000a81548160ff021916908360ff160217905550505060006040518060a0016040528060118152602001600781526020016007815260200160078152602001600560ff1681525090806001815401808255809150506001900390600052602060002090600502016000909190919091506000820151816000015560208201518160010155604082015181600201556060820151816003015560808201518160040160006101000a81548160ff021916908360ff160217905550505060006040518060a0016040528060198152602001600f8152602001600f8152602001600f8152602001600a60ff1681525090806001815401808255809150506001900390600052602060002090600502016000909190919091506000820151816000015560208201518160010155604082015181600201556060820151816003015560808201518160040160006101000a81548160ff021916908360ff1602179055505050610a2f8061020f6000396000f3fe608060405234801561001057600080fd5b50600436106100365760003560e01c8063aa477cce1461003b578063ba93a73e1461006b575b600080fd5b610055600480360381019061005091906105da565b61009b565b604051610062919061063e565b60405180910390f35b6100856004803603810190610080919061068f565b6101b4565b604051610092919061063e565b60405180910390f35b6000806001846040015186602001516100b4919061072d565b6100be919061075e565b60ff16905060006001866040015186602001516100db919061072d565b6100e5919061075e565b60ff16905060006040518060600160405280886000015160ff168152602001848152602001886060015160ff16815250905060006040518060600160405280886000015160ff168152602001848152602001886060015160ff16815250905060006101508383610351565b9050801561016c576002876101659190610795565b9550610171565b600095505b7fcb7bec6f116bdb9b315c4606e0388c4df5473616b6ab01c15bd612cdcf5d9a87816040516101a091906107eb565b60405180910390a150505050509392505050565b6000808054905082106101c657600080fd5b60008083815481106101db576101da610806565b5b90600052602060002090600502016040518060a0016040529081600082015481526020016001820154815260200160028201548152602001600382015481526020016004820160009054906101000a900460ff1660ff1660ff16815250509050600060018260600151866020015160ff166102569190610835565b6102609190610866565b905060006001866040015160ff16846020015161027d9190610835565b6102879190610866565b905060006040518060600160405280886000015160ff168152602001848152602001886060015160ff16815250905060006040518060600160405280866000015181526020018481526020018660400151815250905060006102e98383610351565b9050801561030957600286608001516103029190610795565b965061030e565b600096505b7fcb7bec6f116bdb9b315c4606e0388c4df5473616b6ab01c15bd612cdcf5d9a878160405161033d91906107eb565b60405180910390a150505050505092915050565b600080836020015160018560200151856000015161036f9190610866565b61037991906108bc565b6103839190610835565b9050600083602001516001856020015187600001516103a29190610866565b6103ac91906108bc565b6103b69190610835565b905060008460400151866040015111156103d3576001905061041e565b8460400151866040015110156103ec576000905061041d565b600060026103f8610453565b61040291906108f0565b90506000811415610416576001915061041b565b600091505b505b5b81831115610432576000935050505061044d565b81831015610446576001935050505061044d565b8093505050505b92915050565b60004442600060405160200161046b939291906109bc565b6040516020818303038152906040528051906020012060001c905090565b6000604051905090565b600080fd5b600080fd5b6000601f19601f8301169050919050565b7f4e487b7100000000000000000000000000000000000000000000000000000000600052604160045260246000fd5b6104e68261049d565b810181811067ffffffffffffffff82111715610505576105046104ae565b5b80604052505050565b6000610518610489565b905061052482826104dd565b919050565b600060ff82169050919050565b61053f81610529565b811461054a57600080fd5b50565b60008135905061055c81610536565b92915050565b60006080828403121561057857610577610498565b5b610582608061050e565b905060006105928482850161054d565b60008301525060206105a68482850161054d565b60208301525060406105ba8482850161054d565b60408301525060606105ce8482850161054d565b60608301525092915050565b600080600061012084860312156105f4576105f3610493565b5b600061060286828701610562565b935050608061061386828701610562565b9250506101006106258682870161054d565b9150509250925092565b61063881610529565b82525050565b6000602082019050610653600083018461062f565b92915050565b6000819050919050565b61066c81610659565b811461067757600080fd5b50565b60008135905061068981610663565b92915050565b60008060a083850312156106a6576106a5610493565b5b60006106b485828601610562565b92505060806106c58582860161067a565b9150509250929050565b7f4e487b7100000000000000000000000000000000000000000000000000000000600052601260045260246000fd5b7f4e487b7100000000000000000000000000000000000000000000000000000000600052601160045260246000fd5b600061073882610529565b915061074383610529565b925082610753576107526106cf565b5b828204905092915050565b600061076982610529565b915061077483610529565b92508260ff0382111561078a576107896106fe565b5b828201905092915050565b60006107a082610529565b91506107ab83610529565b92508160ff04831182151516156107c5576107c46106fe565b5b828202905092915050565b60008115159050919050565b6107e5816107d0565b82525050565b600060208201905061080060008301846107dc565b92915050565b7f4e487b7100000000000000000000000000000000000000000000000000000000600052603260045260246000fd5b600061084082610659565b915061084b83610659565b92508261085b5761085a6106cf565b5b828204905092915050565b600061087182610659565b915061087c83610659565b9250827fffffffffffffffffffffffffffffffffffffffffffffffffffffffffffffffff038211156108b1576108b06106fe565b5b828201905092915050565b60006108c782610659565b91506108d283610659565b9250828210156108e5576108e46106fe565b5b828203905092915050565b60006108fb82610659565b915061090683610659565b925082610916576109156106cf565b5b828206905092915050565b6000819050919050565b61093c61093782610659565b610921565b82525050565b600073ffffffffffffffffffffffffffffffffffffffff82169050919050565b600061096d82610942565b9050919050565b60008160601b9050919050565b600061098c82610974565b9050919050565b600061099e82610981565b9050919050565b6109b66109b182610962565b610993565b82525050565b60006109c8828661092b565b6020820191506109d8828561092b565b6020820191506109e882846109a5565b60148201915081905094935050505056fea26469706673582212202f265cbccd28c97e8a0c3132c907ed3d93712fda047ad93e1df002738c9b638864736f6c63430008090033",
  "immutableReferences": {},
  "source": "pragma solidity ^0.8.9;\r\npragma experimental ABIEncoderV2;\r\nimport \"./MonsterLib.sol\";\r\ncontract MonsterBattle{\r\n        event Fighter1Win(bool);\r\n\r\n    struct Fighter{\r\n        uint HP;\r\n        uint damage;\r\n        uint speed;\r\n    }\r\n\r\n    struct DefaultMonster{\r\n        uint HP;\r\n        uint strength;\r\n        uint speed;\r\n        uint defensive;\r\n        uint8 level;\r\n    }\r\n\r\n    DefaultMonster[] private _defaultMonsters;\r\n\r\n    constructor() {\r\n        _defaultMonsters.push(DefaultMonster(11,5,5,5,1));\r\n        _defaultMonsters.push(DefaultMonster(17,7,7,7,5));\r\n        _defaultMonsters.push(DefaultMonster(25,15,15,15,10));\r\n    }\r\n\r\n    function battleWithPlayer(MonsterLib.Statistics memory _player1, MonsterLib.Statistics  memory _player2, uint8 _componentLevel) public  returns(uint8 exp){\r\n        uint _damage1 = (_player1.strength/_player2.defensive) + 1;\r\n        uint _damage2 = (_player2.strength/_player1.defensive) + 1;\r\n        Fighter memory _fighter1 = Fighter(_player1.HP, _damage1, _player1.speed);\r\n        Fighter memory _fighter2 = Fighter(_player2.HP, _damage2, _player2.speed);\r\n        bool isFighter1Win = _simulateBattle(_fighter1, _fighter2);\r\n        if(isFighter1Win){\r\n            exp = _componentLevel * 2;\r\n        }\r\n        else exp = 0;\r\n        emit Fighter1Win(isFighter1Win);\r\n    }\r\n\r\n    function battleWithDefaultMonster(MonsterLib.Statistics memory _player, uint256 _defaultMonsterId) public returns(uint8 exp){\r\n        require(_defaultMonsterId < _defaultMonsters.length);\r\n        DefaultMonster memory _default = _defaultMonsters[_defaultMonsterId];\r\n        uint _damage1 = (_player.strength/_default.defensive) + 1;\r\n        uint _damage2 = (_default.strength/_player.defensive) + 1;\r\n        Fighter memory _fighter1 = Fighter(_player.HP, _damage1, _player.speed);\r\n        Fighter memory _fighter2 = Fighter(_default.HP, _damage2, _default.speed);\r\n        bool isFighter1Win = _simulateBattle(_fighter1, _fighter2);\r\n        if(isFighter1Win){\r\n            exp = _default.level * 2;\r\n        }else exp = 0;\r\n        emit Fighter1Win(isFighter1Win);\r\n    }\r\n\r\n    function _simulateBattle(Fighter memory fighter1, Fighter memory fighter2) internal view returns(bool){\r\n        uint turnsNeedFor1 = (fighter2.HP + fighter1.damage - 1)/fighter1.damage;\r\n        uint turnsNeedFor2 = (fighter1.HP + fighter2.damage - 1)/fighter2.damage;\r\n        bool attackFirst;\r\n        if(fighter1.speed > fighter2.speed){\r\n            attackFirst = true;\r\n        }\r\n        else if(fighter1.speed < fighter2.speed){\r\n            attackFirst = false;\r\n        }\r\n        else{\r\n            uint dice = MonsterLib._random()%2;\r\n            if(dice == 0){\r\n                attackFirst = true;\r\n            }else attackFirst = false;\r\n        }\r\n        if(turnsNeedFor1 > turnsNeedFor2) return false;\r\n        else if( turnsNeedFor1 < turnsNeedFor2) return true;\r\n        else return attackFirst;\r\n    }\r\n\r\n}",
  "sourcePath": "D:\\GitHub\\monster\\contracts\\MonsterBattle.sol",
  "compiler": {
    "name": "solc",
    "version": "0.8.9+commit.e5eed63a.Emscripten.clang"
  },
  "schemaVersion": "3.4.7",
  "updatedAt": "2022-05-15T06:24:41.097Z",
  "networkType": "ethereum",
  "devdoc": {
    "kind": "dev",
    "methods": {},
    "version": 1
  },
  "userdoc": {
    "kind": "user",
    "methods": {},
    "version": 1
  }
}