{
  "contractName": "MonsterToken",
  "abi": [
    {
      "inputs": [
        {
          "internalType": "address",
          "name": "_monsterFactoryAddress",
          "type": "address"
        },
        {
          "internalType": "address",
          "name": "_monsterBattleAddress",
          "type": "address"
        }
      ],
      "stateMutability": "nonpayable",
      "type": "constructor"
    },
    {
      "anonymous": false,
      "inputs": [
        {
          "indexed": false,
          "internalType": "enum MonsterLib.Race",
          "name": "",
          "type": "uint8"
        },
        {
          "indexed": false,
          "internalType": "enum MonsterLib.Race",
          "name": "",
          "type": "uint8"
        }
      ],
      "name": "DifferentRace",
      "type": "event"
    },
    {
      "anonymous": false,
      "inputs": [
        {
          "components": [
            {
              "internalType": "uint8",
              "name": "HP",
              "type": "uint8"
            },
            {
              "internalType": "uint8",
              "name": "strength",
              "type": "uint8"
            },
            {
              "internalType": "uint8",
              "name": "defensive",
              "type": "uint8"
            },
            {
              "internalType": "uint8",
              "name": "speed",
              "type": "uint8"
            }
          ],
          "indexed": false,
          "internalType": "struct MonsterLib.Statistics",
          "name": "",
          "type": "tuple"
        },
        {
          "components": [
            {
              "internalType": "uint8",
              "name": "HP",
              "type": "uint8"
            },
            {
              "internalType": "uint8",
              "name": "strength",
              "type": "uint8"
            },
            {
              "internalType": "uint8",
              "name": "defensive",
              "type": "uint8"
            },
            {
              "internalType": "uint8",
              "name": "speed",
              "type": "uint8"
            }
          ],
          "indexed": false,
          "internalType": "struct MonsterLib.Statistics",
          "name": "",
          "type": "tuple"
        }
      ],
      "name": "LevelUp",
      "type": "event"
    },
    {
      "anonymous": false,
      "inputs": [
        {
          "indexed": false,
          "internalType": "uint256",
          "name": "",
          "type": "uint256"
        },
        {
          "indexed": false,
          "internalType": "bool",
          "name": "",
          "type": "bool"
        }
      ],
      "name": "LockMonster",
      "type": "event"
    },
    {
      "anonymous": false,
      "inputs": [
        {
          "indexed": false,
          "internalType": "uint256",
          "name": "",
          "type": "uint256"
        }
      ],
      "name": "MonsterInMarket",
      "type": "event"
    },
    {
      "anonymous": false,
      "inputs": [
        {
          "indexed": false,
          "internalType": "address",
          "name": "",
          "type": "address"
        }
      ],
      "name": "ReadyToCreate",
      "type": "event"
    },
    {
      "anonymous": false,
      "inputs": [
        {
          "indexed": false,
          "internalType": "address",
          "name": "from",
          "type": "address"
        },
        {
          "indexed": false,
          "internalType": "uint256",
          "name": "amount",
          "type": "uint256"
        }
      ],
      "name": "ReceiveEth",
      "type": "event"
    },
    {
      "anonymous": false,
      "inputs": [
        {
          "indexed": false,
          "internalType": "address",
          "name": "",
          "type": "address"
        },
        {
          "indexed": false,
          "internalType": "address",
          "name": "",
          "type": "address"
        },
        {
          "indexed": false,
          "internalType": "uint256",
          "name": "",
          "type": "uint256"
        }
      ],
      "name": "Transfer",
      "type": "event"
    },
    {
      "anonymous": false,
      "inputs": [
        {
          "indexed": false,
          "internalType": "address",
          "name": "",
          "type": "address"
        },
        {
          "indexed": false,
          "internalType": "address",
          "name": "",
          "type": "address"
        },
        {
          "indexed": false,
          "internalType": "uint256",
          "name": "",
          "type": "uint256"
        }
      ],
      "name": "TransferMoney",
      "type": "event"
    },
    {
      "stateMutability": "payable",
      "type": "receive",
      "payable": true
    },
    {
      "inputs": [
        {
          "internalType": "address",
          "name": "owner",
          "type": "address"
        }
      ],
      "name": "depositOf",
      "outputs": [
        {
          "internalType": "uint256",
          "name": "",
          "type": "uint256"
        }
      ],
      "stateMutability": "view",
      "type": "function",
      "constant": true
    },
    {
      "inputs": [],
      "name": "totalSupply",
      "outputs": [
        {
          "internalType": "uint256",
          "name": "",
          "type": "uint256"
        }
      ],
      "stateMutability": "view",
      "type": "function",
      "constant": true
    },
    {
      "inputs": [
        {
          "internalType": "string",
          "name": "race",
          "type": "string"
        }
      ],
      "name": "getInitialMonster",
      "outputs": [],
      "stateMutability": "payable",
      "type": "function",
      "payable": true
    },
    {
      "inputs": [
        {
          "internalType": "address",
          "name": "_owner",
          "type": "address"
        }
      ],
      "name": "balanceOf",
      "outputs": [
        {
          "internalType": "uint256",
          "name": "balance",
          "type": "uint256"
        }
      ],
      "stateMutability": "view",
      "type": "function",
      "constant": true
    },
    {
      "inputs": [
        {
          "internalType": "uint256",
          "name": "_tokenId",
          "type": "uint256"
        }
      ],
      "name": "getStatics",
      "outputs": [
        {
          "components": [
            {
              "internalType": "uint8",
              "name": "HP",
              "type": "uint8"
            },
            {
              "internalType": "uint8",
              "name": "strength",
              "type": "uint8"
            },
            {
              "internalType": "uint8",
              "name": "defensive",
              "type": "uint8"
            },
            {
              "internalType": "uint8",
              "name": "speed",
              "type": "uint8"
            }
          ],
          "internalType": "struct MonsterLib.Statistics",
          "name": "",
          "type": "tuple"
        }
      ],
      "stateMutability": "view",
      "type": "function",
      "constant": true
    },
    {
      "inputs": [
        {
          "internalType": "uint256",
          "name": "_tokenId",
          "type": "uint256"
        }
      ],
      "name": "getProductInfo",
      "outputs": [
        {
          "internalType": "address",
          "name": "",
          "type": "address"
        },
        {
          "internalType": "uint8",
          "name": "",
          "type": "uint8"
        },
        {
          "components": [
            {
              "internalType": "uint8",
              "name": "HP",
              "type": "uint8"
            },
            {
              "internalType": "uint8",
              "name": "strength",
              "type": "uint8"
            },
            {
              "internalType": "uint8",
              "name": "defensive",
              "type": "uint8"
            },
            {
              "internalType": "uint8",
              "name": "speed",
              "type": "uint8"
            }
          ],
          "internalType": "struct MonsterLib.Statistics",
          "name": "",
          "type": "tuple"
        },
        {
          "internalType": "enum MonsterLib.Race",
          "name": "",
          "type": "uint8"
        }
      ],
      "stateMutability": "view",
      "type": "function",
      "constant": true
    },
    {
      "inputs": [
        {
          "internalType": "uint256",
          "name": "_tokenId",
          "type": "uint256"
        }
      ],
      "name": "monsterById",
      "outputs": [
        {
          "components": [
            {
              "internalType": "uint256",
              "name": "tokenId",
              "type": "uint256"
            },
            {
              "internalType": "uint256",
              "name": "mumId",
              "type": "uint256"
            },
            {
              "internalType": "uint256",
              "name": "dadId",
              "type": "uint256"
            },
            {
              "components": [
                {
                  "internalType": "uint8",
                  "name": "HP",
                  "type": "uint8"
                },
                {
                  "internalType": "uint8",
                  "name": "strength",
                  "type": "uint8"
                },
                {
                  "internalType": "uint8",
                  "name": "defensive",
                  "type": "uint8"
                },
                {
                  "internalType": "uint8",
                  "name": "speed",
                  "type": "uint8"
                }
              ],
              "internalType": "struct MonsterLib.Statistics",
              "name": "statc",
              "type": "tuple"
            },
            {
              "components": [
                {
                  "internalType": "uint8",
                  "name": "HP",
                  "type": "uint8"
                },
                {
                  "internalType": "uint8",
                  "name": "strength",
                  "type": "uint8"
                },
                {
                  "internalType": "uint8",
                  "name": "defensive",
                  "type": "uint8"
                },
                {
                  "internalType": "uint8",
                  "name": "speed",
                  "type": "uint8"
                }
              ],
              "internalType": "struct MonsterLib.IndividualValue",
              "name": "iv",
              "type": "tuple"
            },
            {
              "internalType": "uint8",
              "name": "level",
              "type": "uint8"
            },
            {
              "internalType": "uint8",
              "name": "expNeedToNext",
              "type": "uint8"
            },
            {
              "internalType": "enum MonsterLib.Race",
              "name": "race",
              "type": "uint8"
            },
            {
              "internalType": "bool",
              "name": "isLocked",
              "type": "bool"
            }
          ],
          "internalType": "struct MonsterLib.Monster",
          "name": "",
          "type": "tuple"
        }
      ],
      "stateMutability": "view",
      "type": "function",
      "constant": true
    },
    {
      "inputs": [
        {
          "internalType": "address",
          "name": "_from",
          "type": "address"
        },
        {
          "internalType": "address",
          "name": "_to",
          "type": "address"
        },
        {
          "internalType": "uint256",
          "name": "_value",
          "type": "uint256"
        }
      ],
      "name": "transferMoney",
      "outputs": [],
      "stateMutability": "nonpayable",
      "type": "function"
    },
    {
      "inputs": [
        {
          "internalType": "address",
          "name": "_from",
          "type": "address"
        },
        {
          "internalType": "address",
          "name": "_to",
          "type": "address"
        },
        {
          "internalType": "uint256",
          "name": "_tokenId",
          "type": "uint256"
        }
      ],
      "name": "transferFrom",
      "outputs": [],
      "stateMutability": "nonpayable",
      "type": "function"
    },
    {
      "inputs": [
        {
          "internalType": "uint256",
          "name": "_tokenId",
          "type": "uint256"
        },
        {
          "internalType": "bool",
          "name": "_locked",
          "type": "bool"
        }
      ],
      "name": "lockMonster",
      "outputs": [],
      "stateMutability": "nonpayable",
      "type": "function"
    },
    {
      "inputs": [],
      "name": "getOwnedMonster",
      "outputs": [
        {
          "components": [
            {
              "internalType": "uint256",
              "name": "tokenId",
              "type": "uint256"
            },
            {
              "internalType": "uint256",
              "name": "mumId",
              "type": "uint256"
            },
            {
              "internalType": "uint256",
              "name": "dadId",
              "type": "uint256"
            },
            {
              "components": [
                {
                  "internalType": "uint8",
                  "name": "HP",
                  "type": "uint8"
                },
                {
                  "internalType": "uint8",
                  "name": "strength",
                  "type": "uint8"
                },
                {
                  "internalType": "uint8",
                  "name": "defensive",
                  "type": "uint8"
                },
                {
                  "internalType": "uint8",
                  "name": "speed",
                  "type": "uint8"
                }
              ],
              "internalType": "struct MonsterLib.Statistics",
              "name": "statc",
              "type": "tuple"
            },
            {
              "components": [
                {
                  "internalType": "uint8",
                  "name": "HP",
                  "type": "uint8"
                },
                {
                  "internalType": "uint8",
                  "name": "strength",
                  "type": "uint8"
                },
                {
                  "internalType": "uint8",
                  "name": "defensive",
                  "type": "uint8"
                },
                {
                  "internalType": "uint8",
                  "name": "speed",
                  "type": "uint8"
                }
              ],
              "internalType": "struct MonsterLib.IndividualValue",
              "name": "iv",
              "type": "tuple"
            },
            {
              "internalType": "uint8",
              "name": "level",
              "type": "uint8"
            },
            {
              "internalType": "uint8",
              "name": "expNeedToNext",
              "type": "uint8"
            },
            {
              "internalType": "enum MonsterLib.Race",
              "name": "race",
              "type": "uint8"
            },
            {
              "internalType": "bool",
              "name": "isLocked",
              "type": "bool"
            }
          ],
          "internalType": "struct MonsterLib.Monster[]",
          "name": "monsters",
          "type": "tuple[]"
        }
      ],
      "stateMutability": "view",
      "type": "function",
      "constant": true
    },
    {
      "inputs": [
        {
          "internalType": "uint256",
          "name": "_monsterId",
          "type": "uint256"
        }
      ],
      "name": "deleteMonster",
      "outputs": [],
      "stateMutability": "nonpayable",
      "type": "function"
    },
    {
      "inputs": [
        {
          "internalType": "uint256",
          "name": "_mumId",
          "type": "uint256"
        },
        {
          "internalType": "uint256",
          "name": "_dadId",
          "type": "uint256"
        }
      ],
      "name": "breed",
      "outputs": [],
      "stateMutability": "payable",
      "type": "function",
      "payable": true
    },
    {
      "inputs": [],
      "name": "pickCompetitionRandomly",
      "outputs": [
        {
          "components": [
            {
              "internalType": "uint256",
              "name": "tokenId",
              "type": "uint256"
            },
            {
              "internalType": "uint8",
              "name": "level",
              "type": "uint8"
            },
            {
              "internalType": "enum MonsterLib.Race",
              "name": "race",
              "type": "uint8"
            },
            {
              "components": [
                {
                  "internalType": "uint8",
                  "name": "HP",
                  "type": "uint8"
                },
                {
                  "internalType": "uint8",
                  "name": "strength",
                  "type": "uint8"
                },
                {
                  "internalType": "uint8",
                  "name": "defensive",
                  "type": "uint8"
                },
                {
                  "internalType": "uint8",
                  "name": "speed",
                  "type": "uint8"
                }
              ],
              "internalType": "struct MonsterLib.Statistics",
              "name": "statc",
              "type": "tuple"
            }
          ],
          "internalType": "struct MonsterToken.Competitor[]",
          "name": "competitors",
          "type": "tuple[]"
        }
      ],
      "stateMutability": "view",
      "type": "function",
      "constant": true
    },
    {
      "inputs": [
        {
          "internalType": "uint256",
          "name": "_player1Id",
          "type": "uint256"
        },
        {
          "internalType": "uint256",
          "name": "_player2Id",
          "type": "uint256"
        }
      ],
      "name": "battleWithPlayer",
      "outputs": [],
      "stateMutability": "nonpayable",
      "type": "function"
    },
    {
      "inputs": [
        {
          "internalType": "uint256",
          "name": "_playerId",
          "type": "uint256"
        },
        {
          "internalType": "uint256",
          "name": "_defaultId",
          "type": "uint256"
        }
      ],
      "name": "battleWithDefault",
      "outputs": [],
      "stateMutability": "nonpayable",
      "type": "function"
    },
    {
      "inputs": [],
      "name": "withdraw",
      "outputs": [],
      "stateMutability": "nonpayable",
      "type": "function"
    }
  ],
  "bytecode": "0x60806040526040518060800160405280600560ff168152602001600560ff168152602001600560ff168152602001600560ff16815250600f60008201518160000160006101000a81548160ff021916908360ff16021790555060208201518160000160016101000a81548160ff021916908360ff16021790555060408201518160000160026101000a81548160ff021916908360ff16021790555060608201518160000160036101000a81548160ff021916908360ff1602179055505050348015620000ca57600080fd5b5060405162005c5a38038062005c5a8339818101604052810190620000f09190620002a0565b600073ffffffffffffffffffffffffffffffffffffffff168173ffffffffffffffffffffffffffffffffffffffff16141580156200015b5750600073ffffffffffffffffffffffffffffffffffffffff168273ffffffffffffffffffffffffffffffffffffffff1614155b6200016557600080fd5b6001600d819055506000600c60006101000a81548160ff0219169083151502179055506200019a8282620001b160201b60201c565b671bc16d674ec80000600e819055505050620002e7565b816000806101000a81548173ffffffffffffffffffffffffffffffffffffffff021916908373ffffffffffffffffffffffffffffffffffffffff16021790555080600160006101000a81548173ffffffffffffffffffffffffffffffffffffffff021916908373ffffffffffffffffffffffffffffffffffffffff1602179055505050565b600080fd5b600073ffffffffffffffffffffffffffffffffffffffff82169050919050565b600062000268826200023b565b9050919050565b6200027a816200025b565b81146200028657600080fd5b50565b6000815190506200029a816200026f565b92915050565b60008060408385031215620002ba57620002b962000236565b5b6000620002ca8582860162000289565b9250506020620002dd8582860162000289565b9150509250929050565b61596380620002f76000396000f3fe6080604052600436106101025760003560e01c80636410381c11610095578063c3cfcdc811610064578063c3cfcdc8146103d5578063caece7bb146103fe578063ccd1a9e914610427578063d9ecad7b14610452578063fe3296f81461046e57610198565b80636410381c1461030457806370a082311461032d57806379a85e6c1461036a5780637a5800c5146103aa57610198565b8063292fe8f6116100d1578063292fe8f61461026b578063332aea75146102945780633ccfd60b146102b0578063422666a7146102c757610198565b806318160ddd1461019d5780631dddf164146101c857806323b872dd1461020557806323e3fbd51461022e57610198565b366101985734600460003373ffffffffffffffffffffffffffffffffffffffff1673ffffffffffffffffffffffffffffffffffffffff16815260200190815260200160002060008282546101569190613e5d565b925050819055507fefc0288202e432ade6bf71491d0001d7e389ad4f8e4e9c7aa038dd1a563efc60333460405161018e929190613f03565b60405180910390a1005b600080fd5b3480156101a957600080fd5b506101b2610497565b6040516101bf9190613f2c565b60405180910390f35b3480156101d457600080fd5b506101ef60048036038101906101ea9190613f87565b6104a4565b6040516101fc9190614025565b60405180910390f35b34801561021157600080fd5b5061022c6004803603810190610227919061406c565b610615565b005b34801561023a57600080fd5b50610255600480360381019061025091906140bf565b61079c565b6040516102629190613f2c565b60405180910390f35b34801561027757600080fd5b50610292600480360381019061028d91906140ec565b6108c3565b005b6102ae60048036038101906102a99190614272565b610a0d565b005b3480156102bc57600080fd5b506102c5610d22565b005b3480156102d357600080fd5b506102ee60048036038101906102e99190613f87565b610e3e565b6040516102fb91906144c0565b60405180910390f35b34801561031057600080fd5b5061032b6004803603810190610326919061406c565b6110f7565b005b34801561033957600080fd5b50610354600480360381019061034f91906140bf565b61128e565b6040516103619190613f2c565b60405180910390f35b34801561037657600080fd5b50610391600480360381019061038c9190613f87565b611345565b6040516103a194939291906144fa565b60405180910390f35b3480156103b657600080fd5b506103bf61162e565b6040516103cc91906146a9565b60405180910390f35b3480156103e157600080fd5b506103fc60048036038101906103f791906140ec565b611792565b005b34801561040a57600080fd5b50610425600480360381019061042091906146f7565b611973565b005b34801561043357600080fd5b5061043c611a76565b604051610449919061483b565b60405180910390f35b61046c600480360381019061046791906140ec565b611d5c565b005b34801561047a57600080fd5b5061049560048036038101906104909190613f87565b612075565b005b6000600780549050905090565b6104ac613c64565b81600073ffffffffffffffffffffffffffffffffffffffff166002600083815260200190815260200160002060009054906101000a900473ffffffffffffffffffffffffffffffffffffffff1673ffffffffffffffffffffffffffffffffffffffff161415610550576040517f08c379a0000000000000000000000000000000000000000000000000000000008152600401610547906148ba565b60405180910390fd5b6000600860008581526020019081526020016000205490506007818154811061057c5761057b6148da565b5b90600052602060002090600602016003016040518060800160405290816000820160009054906101000a900460ff1660ff1660ff1681526020016000820160019054906101000a900460ff1660ff1660ff1681526020016000820160029054906101000a900460ff1660ff1660ff1681526020016000820160039054906101000a900460ff1660ff1660ff168152505092505050919050565b8273ffffffffffffffffffffffffffffffffffffffff1661063582612145565b73ffffffffffffffffffffffffffffffffffffffff161461068b576040517f08c379a00000000000000000000000000000000000000000000000000000000081526004016106829061497b565b60405180910390fd5b61069481610e3e565b61010001516106d8576040517f08c379a00000000000000000000000000000000000000000000000000000000081526004016106cf90614a0d565b60405180910390fd5b8173ffffffffffffffffffffffffffffffffffffffff163273ffffffffffffffffffffffffffffffffffffffff1614610746576040517f08c379a000000000000000000000000000000000000000000000000000000000815260040161073d90614a9f565b60405180910390fd5b610751838383612227565b61075c816000611973565b7fddf252ad1be2c89b69c2b068fc378daa952ba7f163c4a11628f55a4df523b3ef83838360405161078f93929190614abf565b60405180910390a1505050565b60003273ffffffffffffffffffffffffffffffffffffffff168273ffffffffffffffffffffffffffffffffffffffff161461080c576040517f08c379a000000000000000000000000000000000000000000000000000000000815260040161080390614b42565b60405180910390fd5b600073ffffffffffffffffffffffffffffffffffffffff168273ffffffffffffffffffffffffffffffffffffffff16141561087c576040517f08c379a000000000000000000000000000000000000000000000000000000000815260040161087390614bd4565b60405180910390fd5b600460008373ffffffffffffffffffffffffffffffffffffffff1673ffffffffffffffffffffffffffffffffffffffff168152602001908152602001600020549050919050565b3373ffffffffffffffffffffffffffffffffffffffff166108e383612145565b73ffffffffffffffffffffffffffffffffffffffff1614610939576040517f08c379a000000000000000000000000000000000000000000000000000000000815260040161093090614c40565b60405180910390fd5b600061094483610e3e565b90506000600160009054906101000a900473ffffffffffffffffffffffffffffffffffffffff1673ffffffffffffffffffffffffffffffffffffffff1663ba93a73e8360600151856040518363ffffffff1660e01b81526004016109a9929190614c60565b602060405180830381600087803b1580156109c357600080fd5b505af11580156109d7573d6000803e3d6000fd5b505050506040513d601f19601f820116820180604052508101906109fb9190614cb5565b9050610a078482612463565b50505050565b34600460003373ffffffffffffffffffffffffffffffffffffffff1673ffffffffffffffffffffffffffffffffffffffff1681526020019081526020016000206000828254610a5c9190613e5d565b92505081905550600e54600460003373ffffffffffffffffffffffffffffffffffffffff1673ffffffffffffffffffffffffffffffffffffffff168152602001908152602001600020541015610ae7576040517f08c379a0000000000000000000000000000000000000000000000000000000008152600401610ade90614d2e565b60405180910390fd5b600e54600460003373ffffffffffffffffffffffffffffffffffffffff1673ffffffffffffffffffffffffffffffffffffffff1681526020019081526020016000206000828254610b389190614d4e565b925050819055506000604051602001610b5090614dd9565b6040516020818303038152906040528051906020012082604051602001610b779190614e5d565b604051602081830303815290604052805190602001201415610b9c5760009050610c59565b604051602001610bab90614ec0565b6040516020818303038152906040528051906020012082604051602001610bd29190614e5d565b604051602081830303815290604052805190602001201415610bf75760019050610c58565b604051602001610c0690614f21565b6040516020818303038152906040528051906020012082604051602001610c2d9190614e5d565b604051602081830303815290604052805190602001201415610c525760029050610c57565b600080fd5b5b5b7f4d39a79ee4766bf9e3447e4866b9832db2e272f069d44614c16bb3eb672a638033604051610c889190614f36565b60405180910390a1610d1e33600080600f6040518060800160405290816000820160009054906101000a900460ff1660ff1660ff1681526020016000820160019054906101000a900460ff1660ff1660ff1681526020016000820160029054906101000a900460ff1660ff1660ff1681526020016000820160039054906101000a900460ff1660ff1660ff1681525050856127c4565b5050565b6000600460003373ffffffffffffffffffffffffffffffffffffffff1673ffffffffffffffffffffffffffffffffffffffff168152602001908152602001600020541115610e3c576000600460003373ffffffffffffffffffffffffffffffffffffffff1673ffffffffffffffffffffffffffffffffffffffff1681526020019081526020016000205490506000600460003373ffffffffffffffffffffffffffffffffffffffff1673ffffffffffffffffffffffffffffffffffffffff168152602001908152602001600020819055503373ffffffffffffffffffffffffffffffffffffffff166108fc829081150290604051600060405180830381858888f19350505050158015610e39573d6000803e3d6000fd5b50505b565b610e46613c98565b81600073ffffffffffffffffffffffffffffffffffffffff166002600083815260200190815260200160002060009054906101000a900473ffffffffffffffffffffffffffffffffffffffff1673ffffffffffffffffffffffffffffffffffffffff161415610eea576040517f08c379a0000000000000000000000000000000000000000000000000000000008152600401610ee1906148ba565b60405180910390fd5b60006008600085815260200190815260200160002054905060078181548110610f1657610f156148da565b5b906000526020600020906006020160405180610120016040529081600082015481526020016001820154815260200160028201548152602001600382016040518060800160405290816000820160009054906101000a900460ff1660ff1660ff1681526020016000820160019054906101000a900460ff1660ff1660ff1681526020016000820160029054906101000a900460ff1660ff1660ff1681526020016000820160039054906101000a900460ff1660ff1660ff16815250508152602001600482016040518060800160405290816000820160009054906101000a900460ff1660ff1660ff1681526020016000820160019054906101000a900460ff1660ff1660ff1681526020016000820160029054906101000a900460ff1660ff1660ff1681526020016000820160039054906101000a900460ff1660ff1660ff168152505081526020016005820160009054906101000a900460ff1660ff1660ff1681526020016005820160019054906101000a900460ff1660ff1660ff1681526020016005820160029054906101000a900460ff1660028111156110bd576110bc614374565b5b60028111156110cf576110ce614374565b5b81526020016005820160039054906101000a900460ff16151515158152505092505050919050565b8273ffffffffffffffffffffffffffffffffffffffff163273ffffffffffffffffffffffffffffffffffffffff161461112f57600080fd5b600073ffffffffffffffffffffffffffffffffffffffff168273ffffffffffffffffffffffffffffffffffffffff16141580156111995750600073ffffffffffffffffffffffffffffffffffffffff168373ffffffffffffffffffffffffffffffffffffffff1614155b6111a257600080fd5b80600460008573ffffffffffffffffffffffffffffffffffffffff1673ffffffffffffffffffffffffffffffffffffffff16815260200190815260200160002060008282546111f19190614d4e565b9250508190555080600460008473ffffffffffffffffffffffffffffffffffffffff1673ffffffffffffffffffffffffffffffffffffffff16815260200190815260200160002060008282546112479190613e5d565b925050819055507fb900e832b6eff259cf1fd6d12898306d28460d412e04f398c1a74a2af601301383838360405161128193929190614abf565b60405180910390a1505050565b60003373ffffffffffffffffffffffffffffffffffffffff168273ffffffffffffffffffffffffffffffffffffffff16146112fe576040517f08c379a00000000000000000000000000000000000000000000000000000000081526004016112f590614fc3565b60405180910390fd5b600360008373ffffffffffffffffffffffffffffffffffffffff1673ffffffffffffffffffffffffffffffffffffffff168152602001908152602001600020549050919050565b600080611350613c64565b600084600073ffffffffffffffffffffffffffffffffffffffff166002600083815260200190815260200160002060009054906101000a900473ffffffffffffffffffffffffffffffffffffffff1673ffffffffffffffffffffffffffffffffffffffff1614156113f6576040517f08c379a00000000000000000000000000000000000000000000000000000000081526004016113ed906148ba565b60405180910390fd5b600060086000888152602001908152602001600020549050600060078281548110611424576114236148da565b5b906000526020600020906006020160405180610120016040529081600082015481526020016001820154815260200160028201548152602001600382016040518060800160405290816000820160009054906101000a900460ff1660ff1660ff1681526020016000820160019054906101000a900460ff1660ff1660ff1681526020016000820160029054906101000a900460ff1660ff1660ff1681526020016000820160039054906101000a900460ff1660ff1660ff16815250508152602001600482016040518060800160405290816000820160009054906101000a900460ff1660ff1660ff1681526020016000820160019054906101000a900460ff1660ff1660ff1681526020016000820160029054906101000a900460ff1660ff1660ff1681526020016000820160039054906101000a900460ff1660ff1660ff168152505081526020016005820160009054906101000a900460ff1660ff1660ff1681526020016005820160019054906101000a900460ff1660ff1660ff1681526020016005820160029054906101000a900460ff1660028111156115cb576115ca614374565b5b60028111156115dd576115dc614374565b5b81526020016005820160039054906101000a900460ff1615151515815250509050600061160989612145565b9050808260a0015183606001518460e001519750975097509750505050509193509193565b6060600061163b3361128e565b905060008114611736578067ffffffffffffffff81111561165f5761165e614147565b5b60405190808252806020026020018201604052801561169857816020015b611685613c98565b81526020019060019003908161167d5790505b50915060005b81811015611730576116ff600960003373ffffffffffffffffffffffffffffffffffffffff1673ffffffffffffffffffffffffffffffffffffffff168152602001908152602001600020600083815260200190815260200160002054610e3e565b838281518110611712576117116148da565b5b6020026020010181905250808061172890614fe3565b91505061169e565b5061178e565b600067ffffffffffffffff81111561175157611750614147565b5b60405190808252806020026020018201604052801561178a57816020015b611777613c98565b81526020019060019003908161176f5790505b5091505b5090565b3373ffffffffffffffffffffffffffffffffffffffff166117b283612145565b73ffffffffffffffffffffffffffffffffffffffff1614611808576040517f08c379a00000000000000000000000000000000000000000000000000000000081526004016117ff90614c40565b60405180910390fd5b61181181612145565b73ffffffffffffffffffffffffffffffffffffffff1661183083612145565b73ffffffffffffffffffffffffffffffffffffffff161415611887576040517f08c379a000000000000000000000000000000000000000000000000000000000815260040161187e9061509e565b60405180910390fd5b600061189283610e3e565b9050600061189f83610e3e565b90506000600160009054906101000a900473ffffffffffffffffffffffffffffffffffffffff1673ffffffffffffffffffffffffffffffffffffffff1663aa477cce846060015184606001518560a001516040518463ffffffff1660e01b815260040161190e939291906150be565b602060405180830381600087803b15801561192857600080fd5b505af115801561193c573d6000803e3d6000fd5b505050506040513d601f19601f820116820180604052508101906119609190614cb5565b905061196c8582612463565b5050505050565b61197c82612145565b73ffffffffffffffffffffffffffffffffffffffff163273ffffffffffffffffffffffffffffffffffffffff16146119e9576040517f08c379a00000000000000000000000000000000000000000000000000000000081526004016119e090615143565b60405180910390fd5b806007600860008581526020019081526020016000205481548110611a1157611a106148da565b5b906000526020600020906006020160050160036101000a81548160ff0219169083151502179055507f6a0921deabd763b8789c5acb4605c886a6f98ea35c16c99d0954bea1b8ff83b68282604051611a6a929190615172565b60405180910390a15050565b60606000611a82610497565b9050611a8c613c98565b6000611a973361128e565b83611aa29190614d4e565b905060058111611be5578067ffffffffffffffff811115611ac657611ac5614147565b5b604051908082528060200260200182016040528015611aff57816020015b611aec613d0a565b815260200190600190039081611ae45790505b5093506000805b84811015611bde57611b1781612ac6565b93503373ffffffffffffffffffffffffffffffffffffffff16611b3d8560000151612145565b73ffffffffffffffffffffffffffffffffffffffff1614611bcb576040518060800160405280856000015181526020018560a0015160ff1681526020018560e001516002811115611b9157611b90614374565b5b81526020018560600151815250868381518110611bb157611bb06148da565b5b60200260200101819052508180611bc790614fe3565b9250505b8080611bd690614fe3565b915050611b06565b5050611d56565b600567ffffffffffffffff811115611c0057611bff614147565b5b604051908082528060200260200182016040528015611c3957816020015b611c26613d0a565b815260200190600190039081611c1e5790505b509350600080808590505b6005831015611d525780611c56612d0a565b611c6091906151ca565b915080821015611d4d5760008290505b81811015611d4857611c8181612ac6565b95503373ffffffffffffffffffffffffffffffffffffffff16611ca78760000151612145565b73ffffffffffffffffffffffffffffffffffffffff1614611d35576040518060800160405280876000015181526020018760a0015160ff1681526020018760e001516002811115611cfb57611cfa614374565b5b81526020018760600151815250888581518110611d1b57611d1a6148da565b5b60200260200101819052508380611d3190614fe3565b9450505b8080611d4090614fe3565b915050611c70565b508190505b611c44565b5050505b50505090565b3373ffffffffffffffffffffffffffffffffffffffff16611d7c83612145565b73ffffffffffffffffffffffffffffffffffffffff16148015611dd257503373ffffffffffffffffffffffffffffffffffffffff16611dba82612145565b73ffffffffffffffffffffffffffffffffffffffff16145b611e11576040517f08c379a0000000000000000000000000000000000000000000000000000000008152600401611e089061526d565b60405180910390fd5b6000611e1c3361079c565b9050600e548134611e2d9190613e5d565b1015611e6e576040517f08c379a0000000000000000000000000000000000000000000000000000000008152600401611e6590614d2e565b60405180910390fd5b6000611e7984610e3e565b90506000611e8684610e3e565b90508060e001516002811115611e9f57611e9e614374565b5b8260e001516002811115611eb657611eb5614374565b5b14611ef6576040517f08c379a0000000000000000000000000000000000000000000000000000000008152600401611eed906152d9565b60405180910390fd5b34600460003373ffffffffffffffffffffffffffffffffffffffff1673ffffffffffffffffffffffffffffffffffffffff1681526020019081526020016000206000828254611f459190613e5d565b92505081905550600e54600460003373ffffffffffffffffffffffffffffffffffffffff1673ffffffffffffffffffffffffffffffffffffffff1681526020019081526020016000206000828254611f9d9190614d4e565b9250508190555060008060009054906101000a900473ffffffffffffffffffffffffffffffffffffffff1673ffffffffffffffffffffffffffffffffffffffff1663c9a267f9846080015184608001516040518363ffffffff1660e01b815260040161200a92919061534e565b60806040518083038186803b15801561202257600080fd5b505afa158015612036573d6000803e3d6000fd5b505050506040513d601f19601f8201168201806040525081019061205a91906153f5565b905061206d338787848660e001516127c4565b505050505050565b61207e81612145565b73ffffffffffffffffffffffffffffffffffffffff163373ffffffffffffffffffffffffffffffffffffffff16146120eb576040517f08c379a00000000000000000000000000000000000000000000000000000000081526004016120e29061546e565b60405180910390fd5b6120f481610e3e565b610100015115612139576040517f08c379a0000000000000000000000000000000000000000000000000000000008152600401612130906154da565b60405180910390fd5b61214281612d40565b50565b600081600073ffffffffffffffffffffffffffffffffffffffff166002600083815260200190815260200160002060009054906101000a900473ffffffffffffffffffffffffffffffffffffffff1673ffffffffffffffffffffffffffffffffffffffff1614156121eb576040517f08c379a00000000000000000000000000000000000000000000000000000000081526004016121e2906148ba565b60405180910390fd5b6002600084815260200190815260200160002060009054906101000a900473ffffffffffffffffffffffffffffffffffffffff16915050919050565b8273ffffffffffffffffffffffffffffffffffffffff1661224782612145565b73ffffffffffffffffffffffffffffffffffffffff161461229d576040517f08c379a00000000000000000000000000000000000000000000000000000000081526004016122949061556c565b60405180910390fd5b600073ffffffffffffffffffffffffffffffffffffffff168273ffffffffffffffffffffffffffffffffffffffff16141561230d576040517f08c379a0000000000000000000000000000000000000000000000000000000008152600401612304906155fe565b60405180910390fd5b612318838383612e26565b6001600360008573ffffffffffffffffffffffffffffffffffffffff1673ffffffffffffffffffffffffffffffffffffffff16815260200190815260200160002060008282546123689190614d4e565b925050819055506001600360008473ffffffffffffffffffffffffffffffffffffffff1673ffffffffffffffffffffffffffffffffffffffff16815260200190815260200160002060008282546123bf9190613e5d565b92505081905550816002600083815260200190815260200160002060006101000a81548173ffffffffffffffffffffffffffffffffffffffff021916908373ffffffffffffffffffffffffffffffffffffffff160217905550612423816000611973565b7fddf252ad1be2c89b69c2b068fc378daa952ba7f163c4a11628f55a4df523b3ef83838360405161245693929190614abf565b60405180910390a1505050565b81600073ffffffffffffffffffffffffffffffffffffffff166002600083815260200190815260200160002060009054906101000a900473ffffffffffffffffffffffffffffffffffffffff1673ffffffffffffffffffffffffffffffffffffffff161415612507576040517f08c379a00000000000000000000000000000000000000000000000000000000081526004016124fe906148ba565b60405180910390fd5b600060086000858152602001908152602001600020549050600060078281548110612535576125346148da565b5b906000526020600020906006020190508360ff168160050160019054906101000a900460ff1660ff1611156125a157838160050160018282829054906101000a900460ff16612584919061561e565b92506101000a81548160ff021916908360ff1602179055506127bd565b600a8160050160009054906101000a900460ff1660ff1610156127bc5760018160050160008282829054906101000a900460ff166125df9190615652565b92506101000a81548160ff021916908360ff1602179055508060050160019054906101000a900460ff1684612614919061561e565b600a8260050160009054906101000a900460ff166126329190615689565b61263c919061561e565b8160050160016101000a81548160ff021916908360ff1602179055506000816003016040518060800160405290816000820160009054906101000a900460ff1660ff1660ff1681526020016000820160019054906101000a900460ff1660ff1660ff1681526020016000820160029054906101000a900460ff1660ff1660ff1681526020016000820160039054906101000a900460ff1660ff1660ff16815250509050600061277e836004016040518060800160405290816000820160009054906101000a900460ff1660ff1660ff1681526020016000820160019054906101000a900460ff1660ff1660ff1681526020016000820160029054906101000a900460ff1660ff1660ff1681526020016000820160039054906101000a900460ff1660ff1660ff16815250508460050160009054906101000a900460ff16612f26565b90507ffb64211ffdbe0310d0426d37afda9651f66158bb717bdf0edcb572595ac27f4182826040516127b19291906156c4565b60405180910390a150505b5b5050505050565b6000600d549050600d60008154809291906127de90614fe3565b919050555060006127f0846001612f26565b90506000604051806101200160405280848152602001888152602001878152602001838152602001868152602001600160ff168152602001600a60ff16815260200185600281111561284557612844614374565b5b815260200160001515815250905061285c81612fd3565b61286557600080fd5b600061286f610497565b9050600782908060018154018082558091505060019003906000526020600020906006020160009091909190915060008201518160000155602082015181600101556040820151816002015560608201518160030160008201518160000160006101000a81548160ff021916908360ff16021790555060208201518160000160016101000a81548160ff021916908360ff16021790555060408201518160000160026101000a81548160ff021916908360ff16021790555060608201518160000160036101000a81548160ff021916908360ff160217905550505060808201518160040160008201518160000160006101000a81548160ff021916908360ff16021790555060208201518160000160016101000a81548160ff021916908360ff16021790555060408201518160000160026101000a81548160ff021916908360ff16021790555060608201518160000160036101000a81548160ff021916908360ff160217905550505060a08201518160050160006101000a81548160ff021916908360ff16021790555060c08201518160050160016101000a81548160ff021916908360ff16021790555060e08201518160050160026101000a81548160ff02191690836002811115612a4657612a45614374565b5b02179055506101008201518160050160036101000a81548160ff0219169083151502179055505050806008600086815260200190815260200160002081905550612a9089856130d2565b6000612a9f8360e00151613237565b9050600081511415612ab057600080fd5b612aba858261337e565b50505050505050505050565b612ace613c98565b612ad6610497565b8210612b17576040517f08c379a0000000000000000000000000000000000000000000000000000000008152600401612b0e9061573a565b60405180910390fd5b60078281548110612b2b57612b2a6148da565b5b906000526020600020906006020160405180610120016040529081600082015481526020016001820154815260200160028201548152602001600382016040518060800160405290816000820160009054906101000a900460ff1660ff1660ff1681526020016000820160019054906101000a900460ff1660ff1660ff1681526020016000820160029054906101000a900460ff1660ff1660ff1681526020016000820160039054906101000a900460ff1660ff1660ff16815250508152602001600482016040518060800160405290816000820160009054906101000a900460ff1660ff1660ff1681526020016000820160019054906101000a900460ff1660ff1660ff1681526020016000820160029054906101000a900460ff1660ff1660ff1681526020016000820160039054906101000a900460ff1660ff1660ff168152505081526020016005820160009054906101000a900460ff1660ff1660ff1681526020016005820160019054906101000a900460ff1660ff1660ff1681526020016005820160029054906101000a900460ff166002811115612cd257612cd1614374565b5b6002811115612ce457612ce3614374565b5b81526020016005820160039054906101000a900460ff1615151515815250509050919050565b600044426000604051602001612d22939291906157c3565b6040516020818303038152906040528051906020012060001c905090565b6000612d4b82612145565b9050612d5981600084612e26565b6001600360008373ffffffffffffffffffffffffffffffffffffffff1673ffffffffffffffffffffffffffffffffffffffff1681526020019081526020016000206000828254612da99190614d4e565b925050819055506002600083815260200190815260200160002060006101000a81549073ffffffffffffffffffffffffffffffffffffffff02191690557fddf252ad1be2c89b69c2b068fc378daa952ba7f163c4a11628f55a4df523b3ef81600084604051612e1a93929190614abf565b60405180910390a15050565b600073ffffffffffffffffffffffffffffffffffffffff168373ffffffffffffffffffffffffffffffffffffffff161415612e6057612e9f565b8173ffffffffffffffffffffffffffffffffffffffff168373ffffffffffffffffffffffffffffffffffffffff1614612e9e57612e9d838261344f565b5b5b600073ffffffffffffffffffffffffffffffffffffffff168273ffffffffffffffffffffffffffffffffffffffff161415612ee257612edd816135f3565b612f21565b8273ffffffffffffffffffffffffffffffffffffffff168273ffffffffffffffffffffffffffffffffffffffff1614612f2057612f1f8282613b80565b5b5b505050565b612f2e613c64565b612f36613c64565b826005612f47866000015186613c36565b612f519190615652565b612f5b9190615652565b816000019060ff16908160ff1681525050612f7a846060015184613c36565b816060019060ff16908160ff1681525050612f99846040015184613c36565b816040019060ff16908160ff1681525050612fb8846020015184613c36565b816020019060ff16908160ff16815250508091505092915050565b6000808260000151118015612ff35750600082606001516000015160ff16115b801561300a5750600082606001516020015160ff16115b80156130215750600082606001516040015160ff16115b80156130385750600082606001516060015160ff16115b80156130505750601f82608001516000015160ff1611155b80156130685750601f82608001516020015160ff1611155b80156130805750601f82608001516040015160ff1611155b80156130985750601f82608001516060015160ff1611155b80156130ac5750600a8260a0015160ff1611155b80156130c0575060008260c0015160ff1614155b6130c957600080fd5b60019050919050565b600073ffffffffffffffffffffffffffffffffffffffff168273ffffffffffffffffffffffffffffffffffffffff161415613142576040517f08c379a00000000000000000000000000000000000000000000000000000000081526004016131399061584c565b60405180910390fd5b61314e60008383612e26565b6001600360008473ffffffffffffffffffffffffffffffffffffffff1673ffffffffffffffffffffffffffffffffffffffff168152602001908152602001600020600082825461319e9190613e5d565b92505081905550816002600083815260200190815260200160002060006101000a81548173ffffffffffffffffffffffffffffffffffffffff021916908373ffffffffffffffffffffffffffffffffffffffff1602179055507fddf252ad1be2c89b69c2b068fc378daa952ba7f163c4a11628f55a4df523b3ef6000838360405161322b93929190614abf565b60405180910390a15050565b6060806000600281111561324e5761324d614374565b5b83600281111561326157613260614374565b5b14156132a4576040518060400160405280601b81526020017f2e2e2f7075626c69632f696d616765732f647261676f6e2e706e6700000000008152509050613375565b6002808111156132b7576132b6614374565b5b8360028111156132ca576132c9614374565b5b141561330d576040518060400160405280601d81526020017f2e2e2f7075626c69632f696d616765732f676172676f796c652e706e670000008152509050613374565b6001600281111561332157613320614374565b5b83600281111561333457613333614374565b5b1415613373576040518060400160405280601a81526020017f2e2e2f7075626c69632f696d616765732f67686f73742e706e6700000000000081525090505b5b5b80915050919050565b81600073ffffffffffffffffffffffffffffffffffffffff166002600083815260200190815260200160002060009054906101000a900473ffffffffffffffffffffffffffffffffffffffff1673ffffffffffffffffffffffffffffffffffffffff161415613422576040517f08c379a0000000000000000000000000000000000000000000000000000000008152600401613419906148ba565b60405180910390fd5b81600b60008581526020019081526020016000209080519060200190613449929190613d4d565b50505050565b60006001600360008573ffffffffffffffffffffffffffffffffffffffff1673ffffffffffffffffffffffffffffffffffffffff1681526020019081526020016000205461349d9190614d4e565b90506000600a6000848152602001908152602001600020549050818114613582576000600960008673ffffffffffffffffffffffffffffffffffffffff1673ffffffffffffffffffffffffffffffffffffffff168152602001908152602001600020600084815260200190815260200160002054905080600960008773ffffffffffffffffffffffffffffffffffffffff1673ffffffffffffffffffffffffffffffffffffffff16815260200190815260200160002060008481526020019081526020016000208190555081600a600083815260200190815260200160002081905550505b600a600084815260200190815260200160002060009055600960008573ffffffffffffffffffffffffffffffffffffffff1673ffffffffffffffffffffffffffffffffffffffff16815260200190815260200160002060008381526020019081526020016000206000905550505050565b600060016007805490506136079190614d4e565b9050600060086000848152602001908152602001600020549050600060078381548110613637576136366148da565b5b906000526020600020906006020160405180610120016040529081600082015481526020016001820154815260200160028201548152602001600382016040518060800160405290816000820160009054906101000a900460ff1660ff1660ff1681526020016000820160019054906101000a900460ff1660ff1660ff1681526020016000820160029054906101000a900460ff1660ff1660ff1681526020016000820160039054906101000a900460ff1660ff1660ff16815250508152602001600482016040518060800160405290816000820160009054906101000a900460ff1660ff1660ff1681526020016000820160019054906101000a900460ff1660ff1660ff1681526020016000820160029054906101000a900460ff1660ff1660ff1681526020016000820160039054906101000a900460ff1660ff1660ff168152505081526020016005820160009054906101000a900460ff1660ff1660ff1681526020016005820160019054906101000a900460ff1660ff1660ff1681526020016005820160029054906101000a900460ff1660028111156137de576137dd614374565b5b60028111156137f0576137ef614374565b5b81526020016005820160039054906101000a900460ff16151515158152505090508060078381548110613826576138256148da565b5b906000526020600020906006020160008201518160000155602082015181600101556040820151816002015560608201518160030160008201518160000160006101000a81548160ff021916908360ff16021790555060208201518160000160016101000a81548160ff021916908360ff16021790555060408201518160000160026101000a81548160ff021916908360ff16021790555060608201518160000160036101000a81548160ff021916908360ff160217905550505060808201518160040160008201518160000160006101000a81548160ff021916908360ff16021790555060208201518160000160016101000a81548160ff021916908360ff16021790555060408201518160000160026101000a81548160ff021916908360ff16021790555060608201518160000160036101000a81548160ff021916908360ff160217905550505060a08201518160050160006101000a81548160ff021916908360ff16021790555060c08201518160050160016101000a81548160ff021916908360ff16021790555060e08201518160050160026101000a81548160ff021916908360028111156139dd576139dc614374565b5b02179055506101008201518160050160036101000a81548160ff0219169083151502179055509050508160086000836000015181526020019081526020016000208190555060086000858152602001908152602001600020600090556007805480613a4b57613a4a61586c565b5b60019003818190600052602060002090600602016000808201600090556001820160009055600282016000905560038201600080820160006101000a81549060ff02191690556000820160016101000a81549060ff02191690556000820160026101000a81549060ff02191690556000820160036101000a81549060ff0219169055505060048201600080820160006101000a81549060ff02191690556000820160016101000a81549060ff02191690556000820160026101000a81549060ff02191690556000820160036101000a81549060ff021916905550506005820160006101000a81549060ff02191690556005820160016101000a81549060ff02191690556005820160026101000a81549060ff02191690556005820160036101000a81549060ff02191690555050905550505050565b6000600360008473ffffffffffffffffffffffffffffffffffffffff1673ffffffffffffffffffffffffffffffffffffffff16815260200190815260200160002054905081600960008573ffffffffffffffffffffffffffffffffffffffff1673ffffffffffffffffffffffffffffffffffffffff16815260200190815260200160002060008381526020019081526020016000208190555080600a600084815260200190815260200160002081905550505050565b60006005600a8385613c489190615689565b613c52919061589b565b613c5c9190615652565b905092915050565b6040518060800160405280600060ff168152602001600060ff168152602001600060ff168152602001600060ff1681525090565b604051806101200160405280600081526020016000815260200160008152602001613cc1613c64565b8152602001613cce613dd3565b8152602001600060ff168152602001600060ff16815260200160006002811115613cfb57613cfa614374565b5b81526020016000151581525090565b604051806080016040528060008152602001600060ff16815260200160006002811115613d3a57613d39614374565b5b8152602001613d47613c64565b81525090565b828054613d59906158fb565b90600052602060002090601f016020900481019282613d7b5760008555613dc2565b82601f10613d9457805160ff1916838001178555613dc2565b82800160010185558215613dc2579182015b82811115613dc1578251825591602001919060010190613da6565b5b509050613dcf9190613e07565b5090565b6040518060800160405280600060ff168152602001600060ff168152602001600060ff168152602001600060ff1681525090565b5b80821115613e20576000816000905550600101613e08565b5090565b6000819050919050565b7f4e487b7100000000000000000000000000000000000000000000000000000000600052601160045260246000fd5b6000613e6882613e24565b9150613e7383613e24565b9250827fffffffffffffffffffffffffffffffffffffffffffffffffffffffffffffffff03821115613ea857613ea7613e2e565b5b828201905092915050565b600073ffffffffffffffffffffffffffffffffffffffff82169050919050565b6000613ede82613eb3565b9050919050565b613eee81613ed3565b82525050565b613efd81613e24565b82525050565b6000604082019050613f186000830185613ee5565b613f256020830184613ef4565b9392505050565b6000602082019050613f416000830184613ef4565b92915050565b6000604051905090565b600080fd5b600080fd5b613f6481613e24565b8114613f6f57600080fd5b50565b600081359050613f8181613f5b565b92915050565b600060208284031215613f9d57613f9c613f51565b5b6000613fab84828501613f72565b91505092915050565b600060ff82169050919050565b613fca81613fb4565b82525050565b608082016000820151613fe66000850182613fc1565b506020820151613ff96020850182613fc1565b50604082015161400c6040850182613fc1565b50606082015161401f6060850182613fc1565b50505050565b600060808201905061403a6000830184613fd0565b92915050565b61404981613ed3565b811461405457600080fd5b50565b60008135905061406681614040565b92915050565b60008060006060848603121561408557614084613f51565b5b600061409386828701614057565b93505060206140a486828701614057565b92505060406140b586828701613f72565b9150509250925092565b6000602082840312156140d5576140d4613f51565b5b60006140e384828501614057565b91505092915050565b6000806040838503121561410357614102613f51565b5b600061411185828601613f72565b925050602061412285828601613f72565b9150509250929050565b600080fd5b600080fd5b6000601f19601f8301169050919050565b7f4e487b7100000000000000000000000000000000000000000000000000000000600052604160045260246000fd5b61417f82614136565b810181811067ffffffffffffffff8211171561419e5761419d614147565b5b80604052505050565b60006141b1613f47565b90506141bd8282614176565b919050565b600067ffffffffffffffff8211156141dd576141dc614147565b5b6141e682614136565b9050602081019050919050565b82818337600083830152505050565b6000614215614210846141c2565b6141a7565b90508281526020810184848401111561423157614230614131565b5b61423c8482856141f3565b509392505050565b600082601f8301126142595761425861412c565b5b8135614269848260208601614202565b91505092915050565b60006020828403121561428857614287613f51565b5b600082013567ffffffffffffffff8111156142a6576142a5613f56565b5b6142b284828501614244565b91505092915050565b6142c481613e24565b82525050565b6080820160008201516142e06000850182613fc1565b5060208201516142f36020850182613fc1565b5060408201516143066040850182613fc1565b5060608201516143196060850182613fc1565b50505050565b6080820160008201516143356000850182613fc1565b5060208201516143486020850182613fc1565b50604082015161435b6040850182613fc1565b50606082015161436e6060850182613fc1565b50505050565b7f4e487b7100000000000000000000000000000000000000000000000000000000600052602160045260246000fd5b600381106143b4576143b3614374565b5b50565b60008190506143c5826143a3565b919050565b60006143d5826143b7565b9050919050565b6143e5816143ca565b82525050565b60008115159050919050565b614400816143eb565b82525050565b6101e08201600082015161441d60008501826142bb565b50602082015161443060208501826142bb565b50604082015161444360408501826142bb565b50606082015161445660608501826142ca565b50608082015161446960e085018261431f565b5060a082015161447d610160850182613fc1565b5060c0820151614491610180850182613fc1565b5060e08201516144a56101a08501826143dc565b506101008201516144ba6101c08501826143f7565b50505050565b60006101e0820190506144d66000830184614406565b92915050565b6144e581613fb4565b82525050565b6144f4816143ca565b82525050565b600060e08201905061450f6000830187613ee5565b61451c60208301866144dc565b6145296040830185613fd0565b61453660c08301846144eb565b95945050505050565b600081519050919050565b600082825260208201905092915050565b6000819050602082019050919050565b6101e08201600082015161458260008501826142bb565b50602082015161459560208501826142bb565b5060408201516145a860408501826142bb565b5060608201516145bb60608501826142ca565b5060808201516145ce60e085018261431f565b5060a08201516145e2610160850182613fc1565b5060c08201516145f6610180850182613fc1565b5060e082015161460a6101a08501826143dc565b5061010082015161461f6101c08501826143f7565b50505050565b6000614631838361456b565b6101e08301905092915050565b6000602082019050919050565b60006146568261453f565b614660818561454a565b935061466b8361455b565b8060005b8381101561469c5781516146838882614625565b975061468e8361463e565b92505060018101905061466f565b5085935050505092915050565b600060208201905081810360008301526146c3818461464b565b905092915050565b6146d4816143eb565b81146146df57600080fd5b50565b6000813590506146f1816146cb565b92915050565b6000806040838503121561470e5761470d613f51565b5b600061471c85828601613f72565b925050602061472d858286016146e2565b9150509250929050565b600081519050919050565b600082825260208201905092915050565b6000819050602082019050919050565b60e08201600082015161477960008501826142bb565b50602082015161478c6020850182613fc1565b50604082015161479f60408501826143dc565b5060608201516147b260608501826142ca565b50505050565b60006147c48383614763565b60e08301905092915050565b6000602082019050919050565b60006147e882614737565b6147f28185614742565b93506147fd83614753565b8060005b8381101561482e57815161481588826147b8565b9750614820836147d0565b925050600181019050614801565b5085935050505092915050565b6000602082019050818103600083015261485581846147dd565b905092915050565b600082825260208201905092915050565b7f746f6b656e20646f6573206e6f74206578697374000000000000000000000000600082015250565b60006148a460148361485d565b91506148af8261486e565b602082019050919050565b600060208201905081810360008301526148d381614897565b9050919050565b7f4e487b7100000000000000000000000000000000000000000000000000000000600052603260045260246000fd5b7f6f6e6c79207768656e2066726f6d20697320746865206f776e6572206f66207460008201527f686973206d6f6e73746572000000000000000000000000000000000000000000602082015250565b6000614965602b8361485d565b915061497082614909565b604082019050919050565b6000602082019050818103600083015261499481614958565b9050919050565b7f6f6e6c79207472616e73666572207768656e2074686973206d6f6e737465722060008201527f6973206f6e2073616c6500000000000000000000000000000000000000000000602082015250565b60006149f7602a8361485d565b9150614a028261499b565b604082019050919050565b60006020820190508181036000830152614a26816149ea565b9050919050565b7f6f6e6c79207472616e73666572207768656e2062757965722073656e6420612060008201527f7472616e73616374696f6e000000000000000000000000000000000000000000602082015250565b6000614a89602b8361485d565b9150614a9482614a2d565b604082019050919050565b60006020820190508181036000830152614ab881614a7c565b9050919050565b6000606082019050614ad46000830186613ee5565b614ae16020830185613ee5565b614aee6040830184613ef4565b949350505050565b7f6f6e6c79206f776e65722063616e2073656520746865206465706f7369740000600082015250565b6000614b2c601e8361485d565b9150614b3782614af6565b602082019050919050565b60006020820190508181036000830152614b5b81614b1f565b9050919050565b7f6465706f73697420717565727920666f7220746865207a65726f20616464726560008201527f7373000000000000000000000000000000000000000000000000000000000000602082015250565b6000614bbe60228361485d565b9150614bc982614b62565b604082019050919050565b60006020820190508181036000830152614bed81614bb1565b9050919050565b7f6f6e6c79206f776e65722063616e207374617274206120666967687400000000600082015250565b6000614c2a601c8361485d565b9150614c3582614bf4565b602082019050919050565b60006020820190508181036000830152614c5981614c1d565b9050919050565b600060a082019050614c756000830185613fd0565b614c826080830184613ef4565b9392505050565b614c9281613fb4565b8114614c9d57600080fd5b50565b600081519050614caf81614c89565b92915050565b600060208284031215614ccb57614cca613f51565b5b6000614cd984828501614ca0565b91505092915050565b7f73686f756c64206861766520656e6f756768206d6f6e65790000000000000000600082015250565b6000614d1860188361485d565b9150614d2382614ce2565b602082019050919050565b60006020820190508181036000830152614d4781614d0b565b9050919050565b6000614d5982613e24565b9150614d6483613e24565b925082821015614d7757614d76613e2e565b5b828203905092915050565b600081905092915050565b7f647261676f6e0000000000000000000000000000000000000000000000000000600082015250565b6000614dc3600683614d82565b9150614dce82614d8d565b600682019050919050565b6000614de482614db6565b9150819050919050565b600081519050919050565b60005b83811015614e17578082015181840152602081019050614dfc565b83811115614e26576000848401525b50505050565b6000614e3782614dee565b614e418185614d82565b9350614e51818560208601614df9565b80840191505092915050565b6000614e698284614e2c565b915081905092915050565b7f67686f7374000000000000000000000000000000000000000000000000000000600082015250565b6000614eaa600583614d82565b9150614eb582614e74565b600582019050919050565b6000614ecb82614e9d565b9150819050919050565b7f676172676f796c65000000000000000000000000000000000000000000000000600082015250565b6000614f0b600883614d82565b9150614f1682614ed5565b600882019050919050565b6000614f2c82614efe565b9150819050919050565b6000602082019050614f4b6000830184613ee5565b92915050565b7f6f6e6c79206f776e65722063616e20636865636b2074686569722062616c616e60008201527f6365000000000000000000000000000000000000000000000000000000000000602082015250565b6000614fad60228361485d565b9150614fb882614f51565b604082019050919050565b60006020820190508181036000830152614fdc81614fa0565b9050919050565b6000614fee82613e24565b91507fffffffffffffffffffffffffffffffffffffffffffffffffffffffffffffffff82141561502157615020613e2e565b5b600182019050919050565b7f74776f20706c61796572732073686f756c64206861766520646966666572656e60008201527f74206f776e657273000000000000000000000000000000000000000000000000602082015250565b600061508860288361485d565b91506150938261502c565b604082019050919050565b600060208201905081810360008301526150b78161507b565b9050919050565b6000610120820190506150d46000830186613fd0565b6150e16080830185613fd0565b6150ef6101008301846144dc565b949350505050565b7f6f6e6c79206f776e65722063616e206c6f636b206f7220756e6c6f636b000000600082015250565b600061512d601d8361485d565b9150615138826150f7565b602082019050919050565b6000602082019050818103600083015261515c81615120565b9050919050565b61516c816143eb565b82525050565b60006040820190506151876000830185613ef4565b6151946020830184615163565b9392505050565b7f4e487b7100000000000000000000000000000000000000000000000000000000600052601260045260246000fd5b60006151d582613e24565b91506151e083613e24565b9250826151f0576151ef61519b565b5b828206905092915050565b7f746865206f776e6572206f6620626f746820706172656e74732073686f756c6460008201527f206265207468652073656e646572000000000000000000000000000000000000602082015250565b6000615257602e8361485d565b9150615262826151fb565b604082019050919050565b600060208201905081810360008301526152868161524a565b9050919050565b7f73686f756c642068617665207468652073616d65207261636500000000000000600082015250565b60006152c360198361485d565b91506152ce8261528d565b602082019050919050565b600060208201905081810360008301526152f2816152b6565b9050919050565b60808201600082015161530f6000850182613fc1565b5060208201516153226020850182613fc1565b5060408201516153356040850182613fc1565b5060608201516153486060850182613fc1565b50505050565b60006101008201905061536460008301856152f9565b61537160808301846152f9565b9392505050565b600080fd5b60006080828403121561539357615392615378565b5b61539d60806141a7565b905060006153ad84828501614ca0565b60008301525060206153c184828501614ca0565b60208301525060406153d584828501614ca0565b60408301525060606153e984828501614ca0565b60608301525092915050565b60006080828403121561540b5761540a613f51565b5b60006154198482850161537d565b91505092915050565b7f6f6e6c79206f776e65722063616e2064656c6574650000000000000000000000600082015250565b600061545860158361485d565b915061546382615422565b602082019050919050565b600060208201905081810360008301526154878161544b565b9050919050565b7f74686973206d6f6e73746572206973206c6f636b656400000000000000000000600082015250565b60006154c460168361485d565b91506154cf8261548e565b602082019050919050565b600060208201905081810360008301526154f3816154b7565b9050919050565b7f4552433732313a207472616e736665722066726f6d20696e636f72726563742060008201527f6f776e6572000000000000000000000000000000000000000000000000000000602082015250565b600061555660258361485d565b9150615561826154fa565b604082019050919050565b6000602082019050818103600083015261558581615549565b9050919050565b7f4552433732313a207472616e7366657220746f20746865207a65726f2061646460008201527f7265737300000000000000000000000000000000000000000000000000000000602082015250565b60006155e860248361485d565b91506155f38261558c565b604082019050919050565b60006020820190508181036000830152615617816155db565b9050919050565b600061562982613fb4565b915061563483613fb4565b92508282101561564757615646613e2e565b5b828203905092915050565b600061565d82613fb4565b915061566883613fb4565b92508260ff0382111561567e5761567d613e2e565b5b828201905092915050565b600061569482613fb4565b915061569f83613fb4565b92508160ff04831182151516156156b9576156b8613e2e565b5b828202905092915050565b6000610100820190506156da6000830185613fd0565b6156e76080830184613fd0565b9392505050565b7f7468697320696e64657820657863656564000000000000000000000000000000600082015250565b600061572460118361485d565b915061572f826156ee565b602082019050919050565b6000602082019050818103600083015261575381615717565b9050919050565b6000819050919050565b61577561577082613e24565b61575a565b82525050565b60008160601b9050919050565b60006157938261577b565b9050919050565b60006157a582615788565b9050919050565b6157bd6157b882613ed3565b61579a565b82525050565b60006157cf8286615764565b6020820191506157df8285615764565b6020820191506157ef82846157ac565b601482019150819050949350505050565b7f4552433732313a206d696e7420746f20746865207a65726f2061646472657373600082015250565b600061583660208361485d565b915061584182615800565b602082019050919050565b6000602082019050818103600083015261586581615829565b9050919050565b7f4e487b7100000000000000000000000000000000000000000000000000000000600052603160045260246000fd5b60006158a682613fb4565b91506158b183613fb4565b9250826158c1576158c061519b565b5b828204905092915050565b7f4e487b7100000000000000000000000000000000000000000000000000000000600052602260045260246000fd5b6000600282049050600182168061591357607f821691505b60208210811415615927576159266158cc565b5b5091905056fea2646970667358221220ff0f942fb0d055cd81f6309b6dc9844d3405f324f46eb083b331c853e81d775964736f6c63430008090033",
  "immutableReferences": {},
  "source": "//SPDX-License-Identifier: UNLICENSED\r\npragma solidity ^0.8.9;\r\n\r\nimport \"../node_modules/@openzeppelin/contracts/token/ERC721/extensions/ERC721URIStorage.sol\";\r\nimport \"../node_modules/@openzeppelin/contracts/utils/Address.sol\";\r\nimport \"../node_modules/@openzeppelin/contracts/utils/Context.sol\";\r\nimport \"../node_modules/@openzeppelin/contracts/utils/Strings.sol\";\r\nimport \"./MonsterLib.sol\";\r\nimport \"./MonsterFactory.sol\";\r\nimport \"./MonsterBattle.sol\";\r\n\r\ncontract MonsterToken {\r\n\r\n    MonsterFactory _monsterFactory;\r\n    MonsterBattle _monsterBattle;\r\n     \r\n    using Address for address;\r\n    using Strings for uint256;\r\n\r\n    event LevelUp(MonsterLib.Statistics, MonsterLib.Statistics);\r\n    event TransferMoney(address, address, uint);\r\n    event LockMonster(uint, bool);\r\n    event MonsterInMarket(uint);\r\n    event DifferentRace(MonsterLib.Race, MonsterLib.Race);\r\n    event Transfer(address, address, uint256);\r\n    event ReadyToCreate(address);\r\n\r\n    struct Competitor{\r\n        uint256 tokenId;\r\n        uint8 level;\r\n        MonsterLib.Race race;\r\n        MonsterLib.Statistics statc;\r\n    }\r\n\r\n    string constant imagePath = \"../public/images/\";\r\n\r\n    event ReceiveEth(address from, uint256 amount);\r\n\r\n    // Mapping from token ID to owner address\r\n    mapping(uint256 => address) private _owners;\r\n\r\n    // Mapping owner address to token count\r\n    mapping(address => uint256) private _balances;\r\n    \r\n    \r\n    // Mapping owner address to ETH balance\r\n    mapping(address => uint) private _deposit;\r\n\r\n    // Mapping from token ID to approved address\r\n    mapping(uint256 => address) private _tokenApprovals;\r\n\r\n    // Mapping from owner to operator approvals\r\n    mapping(address => mapping(address => bool)) private _operatorApprovals;\r\n\r\n    // Array with all token ids, used for enumeration\r\n    MonsterLib.Monster[] private _allMonsters;\r\n\r\n    // Mapping from token id to position in the allTokens array\r\n    mapping(uint256 => uint256) private _allTokensIndex;\r\n\r\n    // Mapping from owner to list of owned token IDs\r\n    mapping(address => mapping(uint256 => uint256)) private _ownedTokens;\r\n\r\n    // Mapping from token ID to index of the owner tokens list\r\n    mapping(uint256 => uint256) private _ownedTokensIndex;\r\n\r\n    // Optional mapping for token URIs\r\n    mapping(uint256 => string) private _tokenURIs;\r\n\r\n    //True when some one storing their new monsters\r\n    bool isPushing;\r\n\r\n    uint256 private IdCount;\r\n\r\n    uint256 private createFee;\r\n\r\n    MonsterLib.IndividualValue initialIV = MonsterLib.IndividualValue(5,5,5,5);\r\n\r\n    constructor(address _monsterFactoryAddress, address _monsterBattleAddress) {\r\n        require(_monsterBattleAddress != address(0) && _monsterFactoryAddress != address(0));\r\n        IdCount = 1;\r\n        isPushing = false;\r\n        _setContract(_monsterFactoryAddress, _monsterBattleAddress);\r\n        createFee = 2 ether;\r\n\r\n    }\r\n\r\n    function _setContract(address _monsterFactoryAddress, address _monsterBattleAddress) internal {\r\n        _monsterFactory = MonsterFactory(_monsterFactoryAddress);\r\n        _monsterBattle = MonsterBattle(_monsterBattleAddress);\r\n    }\r\n\r\n    modifier tokenExist(uint256 _tokenId){\r\n        require(_owners[_tokenId] != address(0),\"token does not exist\");\r\n        _;\r\n    }\r\n\r\n\r\n\r\n    function depositOf(address owner) public view returns (uint256){\r\n        require(owner == tx.origin,\"only owner can see the deposit\");\r\n        require(owner != address(0), \"deposit query for the zero address\");\r\n        return _deposit[owner];\r\n    }\r\n\r\n    function totalSupply() public view returns (uint256){\r\n        return _allMonsters.length;\r\n    }\r\n    /**\r\n     *@dev Pay ETH to get a default monster from contract\r\n     */\r\n    function getInitialMonster(string memory race) public payable{\r\n        _deposit[msg.sender] += msg.value;\r\n        require(_deposit[msg.sender] >= createFee, \"should have enough money\");\r\n        _deposit[msg.sender] -= createFee;\r\n        MonsterLib.Race _race;\r\n        if(keccak256(abi.encodePacked(race)) == keccak256(abi.encodePacked('dragon'))) _race = MonsterLib.Race.DRAGON;\r\n        else if(keccak256(abi.encodePacked(race)) == keccak256(abi.encodePacked('ghost'))) _race = MonsterLib.Race.GHOST;\r\n        else if(keccak256(abi.encodePacked(race)) == keccak256(abi.encodePacked('gargoyle'))) _race = MonsterLib.Race.GARGOYLE;\r\n        else {revert();}\r\n        emit ReadyToCreate(msg.sender);\r\n        _createNewMonster(msg.sender, 0, 0,initialIV, _race);\r\n\r\n    }\r\n\r\n    /**\r\n     *@dev create a new monster from contract, this monter can be default monster or come from breeding\r\n     */\r\n\r\n    function _createNewMonster(address to, uint256 mumId, uint256 dadId, MonsterLib.IndividualValue memory iv, MonsterLib.Race race) internal {\r\n        \r\n        \r\n        uint256 _monsterId = IdCount;\r\n        IdCount ++;\r\n        MonsterLib.Statistics memory statc = MonsterLib._calculateStatc(iv, 1);\r\n        MonsterLib.Monster memory monster = MonsterLib.Monster(_monsterId, mumId, dadId, statc, iv, 1, 1*10, race,false);\r\n        require(MonsterLib._checkMonsterValid(monster));\r\n        uint256 _monsterIndex = totalSupply() ;\r\n        _allMonsters.push(monster);\r\n        _allTokensIndex[_monsterId] = _monsterIndex;\r\n        _mint(to, _monsterId);\r\n        string memory _monsterURI = _monsterURIByRace(monster.race);\r\n        require (bytes(_monsterURI).length != 0);\r\n        _setTokenURI(_monsterId, _monsterURI);\r\n    }\r\n\r\n    /**\r\n     * @dev Mints `tokenId` and transfers it to `to`.\r\n     *\r\n     * WARNING: Usage of this method is discouraged, use {_safeMint} whenever possible\r\n     *\r\n     * Requirements:\r\n     *\r\n     * - `tokenId` must not exist.\r\n     * - `to` cannot be the zero address.\r\n     *\r\n     * Emits a {Transfer} event.\r\n     */\r\n    function _mint(address to, uint256 tokenId)  internal virtual {\r\n        require(to != address(0), \"ERC721: mint to the zero address\");\r\n\r\n        _beforeTokenTransfer(address(0), to, tokenId);\r\n\r\n        _balances[to] += 1;\r\n        _owners[tokenId] = to;\r\n\r\n        emit Transfer(address(0), to, tokenId);\r\n    }\r\n\r\n    function _setTokenURI(uint256 _monsterId, string memory _monsterURI) tokenExist(_monsterId) internal {\r\n        _tokenURIs[_monsterId] = _monsterURI;\r\n    }\r\n\r\n\r\n\r\n        /**\r\n     * @dev Hook that is called before any token transfer. This includes minting\r\n     * and burning.\r\n     *\r\n     * Calling conditions:\r\n     *\r\n     * - When `from` and `to` are both non-zero, ``from``'s `tokenId` will be\r\n     * transferred to `to`.\r\n     * - When `from` is zero, `tokenId` will be minted for `to`.\r\n     * - When `to` is zero, ``from``'s `tokenId` will be burned.\r\n     * - `from` cannot be the zero address.\r\n     * - `to` cannot be the zero address.\r\n     *\r\n     * To learn more about hooks, head to xref:ROOT:extending-contracts.adoc#using-hooks[Using Hooks].\r\n     */\r\n    function _beforeTokenTransfer(\r\n        address from,\r\n        address to,\r\n        uint256 tokenId\r\n    ) internal {\r\n\r\n        if (from == address(0)) {\r\n            //This monster has been added before\r\n        } else if (from != to) {\r\n            _removeMonsterFromOwnerEnumeration(from, tokenId);\r\n        }\r\n        if (to == address(0)) {\r\n            _removeMonsterFromAllTokensEnumeration(tokenId);\r\n        } else if (to != from) {\r\n            _addMonsterToOwnerEnumeration(to, tokenId);\r\n        }\r\n    }    \r\n    /**\r\n     * @dev Private function to remove a token from this extension's ownership-tracking data structures. Note that\r\n     * while the token is not assigned a new owner, the `_ownedTokensIndex` mapping is _not_ updated: this allows for\r\n     * gas optimizations e.g. when performing a transfer operation (avoiding double writes).\r\n     * This has O(1) time complexity, but alters the order of the _ownedTokens array.\r\n     * @param from address representing the previous owner of the given token ID\r\n     * @param tokenId uint256 ID of the token to be removed from the tokens list of the given address\r\n     */\r\n    function _removeMonsterFromOwnerEnumeration(address from, uint256 tokenId) internal {\r\n        // To prevent a gap in from's tokens array, we store the last token in the index of the token to delete, and\r\n        // then delete the last slot (swap and pop).\r\n\r\n        uint256 lastTokenIndex = _balances[from] - 1;\r\n        uint256 tokenIndex = _ownedTokensIndex[tokenId];\r\n\r\n        // When the token to delete is the last token, the swap operation is unnecessary\r\n        if (tokenIndex != lastTokenIndex) {\r\n            uint256 lastTokenId = _ownedTokens[from][lastTokenIndex];\r\n\r\n            _ownedTokens[from][tokenIndex] = lastTokenId; // Move the last token to the slot of the to-delete token\r\n            _ownedTokensIndex[lastTokenId] = tokenIndex; // Update the moved token's index\r\n        }\r\n\r\n        // This also deletes the contents at the last position of the array\r\n        delete _ownedTokensIndex[tokenId];\r\n        delete _ownedTokens[from][lastTokenIndex];\r\n    }\r\n\r\n    /**\r\n     * @dev Private function to remove a token from this extension's token tracking data structures.\r\n     * This has O(1) time complexity, but alters the order of the _allTokens array.\r\n     * @param tokenId uint256 ID of the token to be removed from the tokens list\r\n     */\r\n    function _removeMonsterFromAllTokensEnumeration(uint256 tokenId) internal  {\r\n        // To prevent a gap in the tokens array, we store the last token in the index of the token to delete, and\r\n        // then delete the last slot (swap and pop).\r\n\r\n        uint256 lastTokenIndex = _allMonsters.length - 1;\r\n        uint256 tokenIndex = _allTokensIndex[tokenId];\r\n\r\n        // When the token to delete is the last token, the swap operation is unnecessary. However, since this occurs so\r\n        // rarely (when the last minted token is burnt) that we still do the swap here to avoid the gas cost of adding\r\n        // an 'if' statement (like in _removeTokenFromOwnerEnumeration)\r\n        MonsterLib.Monster memory lastMonster = _allMonsters[lastTokenIndex];\r\n\r\n        _allMonsters[tokenIndex] = lastMonster; // Move the last token to the slot of the to-delete token\r\n        _allTokensIndex[lastMonster.tokenId] = tokenIndex; // Update the moved token's index\r\n\r\n        // This also deletes the contents at the last position of the array\r\n        delete _allTokensIndex[tokenId];\r\n        _allMonsters.pop();\r\n    }\r\n\r\n    /**\r\n     * @dev Private function to add a token to this extension's ownership-tracking data structures.\r\n     * @param to address representing the new owner of the given token ID\r\n     * @param tokenId uint256 ID of the token to be added to the tokens list of the given address\r\n     */\r\n    function _addMonsterToOwnerEnumeration(address to, uint256 tokenId) internal{\r\n        uint256 length = _balances[to];\r\n        _ownedTokens[to][length] = tokenId;\r\n        _ownedTokensIndex[tokenId] = length;\r\n    }\r\n\r\n    function balanceOf(address _owner) public view returns(uint256 balance){\r\n        require(_owner == msg.sender, \"only owner can check their balance\");\r\n        balance = _balances[_owner];\r\n    }\r\n\r\n\r\n\r\n\r\n    function _monsterURIByRace(MonsterLib.Race _race) internal pure returns(string memory){\r\n        string memory _monsterURI;\r\n        if(_race == MonsterLib.Race.DRAGON) _monsterURI =\"../public/images/dragon.png\" ;\r\n        else if(_race == MonsterLib.Race.GARGOYLE) _monsterURI =\"../public/images/gargoyle.png\";\r\n        else if (_race == MonsterLib.Race.GHOST) _monsterURI =\"../public/images/ghost.png\";\r\n        return _monsterURI;\r\n    }\r\n    \r\n    receive() external payable{\r\n        _deposit[msg.sender] += msg.value;\r\n        emit ReceiveEth(msg.sender, msg.value);\r\n\r\n    }\r\n\r\n    /**\r\n     * Used for buyer want to check more detailed information in the market\r\n     */\r\n     function getStatics(uint256 _tokenId) public view tokenExist(_tokenId) returns(MonsterLib.Statistics memory){\r\n         uint256 _tokenIndex = _allTokensIndex[_tokenId];\r\n        return _allMonsters[_tokenIndex].statc;\r\n\r\n     }\r\n\r\n     /**\r\n      * \r\n      */\r\n    function getProductInfo(uint256 _tokenId) public view tokenExist(_tokenId) returns(address, uint8, MonsterLib.Statistics memory, MonsterLib.Race){\r\n        uint256 _tokenIndex = _allTokensIndex[_tokenId];\r\n        MonsterLib.Monster memory monster = _allMonsters[_tokenIndex];\r\n        address owner = ownerOf(_tokenId);\r\n        return (owner, monster.level, monster.statc,monster.race);\r\n    }\r\n\r\n    function ownerOf(uint256 _tokenId) internal tokenExist(_tokenId) view returns(address owner){\r\n        owner = _owners[_tokenId];\r\n    }\r\n\r\n    function monsterById(uint256 _tokenId) public view tokenExist(_tokenId) returns (MonsterLib.Monster memory){\r\n        uint256 _tokenIndex = _allTokensIndex[_tokenId];\r\n        return _allMonsters[_tokenIndex];\r\n    }\r\n\r\n    function _monsterByIndex(uint256 _tokenIndex) internal view returns (MonsterLib.Monster memory){\r\n        require(_tokenIndex < totalSupply() , \"this index exceed\");\r\n        return _allMonsters[_tokenIndex];\r\n    }\r\n\r\n    function _updateExp(uint256 _tokenId, uint8 exp) internal tokenExist(_tokenId){\r\n        uint256 _tokenIndex = _allTokensIndex[_tokenId];\r\n        MonsterLib.Monster storage monster = _allMonsters[_tokenIndex];\r\n        if(monster.expNeedToNext > exp) monster.expNeedToNext -= exp;\r\n        else{\r\n            if(monster.level < 10){\r\n                monster.level += 1;\r\n                monster.expNeedToNext = monster.level * 10 - (exp -  monster.expNeedToNext);\r\n                MonsterLib.Statistics memory _oldStatc = monster.statc;\r\n                MonsterLib.Statistics memory _newStatc = MonsterLib._calculateStatc(monster.iv, monster.level);\r\n                emit LevelUp(_oldStatc, _newStatc);\r\n            }\r\n        }\r\n\r\n    }\r\n\r\n    function transferMoney(address _from, address _to, uint _value) external {\r\n        require(tx.origin == _from);\r\n        require(_to != address(0) && _from != address(0));\r\n        _deposit[_from] -= _value;\r\n        _deposit[_to] += _value;\r\n        emit TransferMoney(_from, _to, _value);\r\n    }\r\n\r\n    function transferFrom(address _from, address _to,uint _tokenId) public{\r\n        require(ownerOf(_tokenId) == _from, \"only when from is the owner of this monster\");\r\n        require (monsterById(_tokenId).isLocked, \"only transfer when this monster is on sale\");\r\n        require( tx.origin == _to, \"only transfer when buyer send a transaction\");\r\n        _transfer(_from, _to, _tokenId);\r\n        lockMonster(_tokenId, false);\r\n        emit Transfer(_from, _to, _tokenId);\r\n    }\r\n    \r\n    /**\r\n     * @dev Transfers `tokenId` from `from` to `to`.\r\n     *  As opposed to {transferFrom}, this imposes no restrictions on msg.sender.\r\n     *\r\n     * Requirements:\r\n     *\r\n     * - `to` cannot be the zero address.\r\n     * - `tokenId` token must be owned by `from`.\r\n     *\r\n     * Emits a {Transfer} event.\r\n     */\r\n    function _transfer(\r\n        address from,\r\n        address to,\r\n        uint256 tokenId\r\n    ) internal {\r\n        require(ownerOf(tokenId) == from, \"ERC721: transfer from incorrect owner\");\r\n        require(to != address(0), \"ERC721: transfer to the zero address\");\r\n\r\n        _beforeTokenTransfer(from, to, tokenId);\r\n\r\n        _balances[from] -= 1;\r\n        _balances[to] += 1;\r\n        _owners[tokenId] = to;\r\n        lockMonster(tokenId, false);\r\n        emit Transfer(from, to, tokenId);\r\n    }\r\n\r\n    function lockMonster(uint _tokenId, bool _locked) public {\r\n        require(tx.origin == ownerOf(_tokenId), \"only owner can lock or unlock\");\r\n        _allMonsters[_allTokensIndex[_tokenId]].isLocked = _locked;\r\n        emit LockMonster(_tokenId,_locked);\r\n    }\r\n\r\n    function getOwnedMonster() public view returns (MonsterLib.Monster[] memory monsters) {\r\n        uint _ownedCount = balanceOf(msg.sender);\r\n        if(_ownedCount != 0){\r\n            monsters = new MonsterLib.Monster[](_ownedCount);\r\n            for(uint i = 0; i < _ownedCount; i++){\r\n                monsters[i] = monsterById(_ownedTokens[msg.sender][i]);\r\n            }\r\n        }\r\n        else monsters = new MonsterLib.Monster[](0);\r\n\r\n    }\r\n\r\n\r\n    function deleteMonster(uint _monsterId) public {\r\n        require(msg.sender == ownerOf(_monsterId),\"only owner can delete\");\r\n        require(!monsterById(_monsterId).isLocked,\"this monster is locked\");\r\n        _burn(_monsterId);\r\n    }\r\n\r\n        /**\r\n     * @dev Destroys `tokenId`.\r\n     * The approval is cleared when the token is burned.\r\n     *\r\n     * Requirements:\r\n     *\r\n     * - `tokenId` must exist.\r\n     *\r\n     * Emits a {Transfer} event.\r\n     */\r\n    function _burn(uint256 tokenId) internal {\r\n        address owner = ownerOf(tokenId);\r\n\r\n        _beforeTokenTransfer(owner, address(0), tokenId);\r\n\r\n        _balances[owner] -= 1;\r\n        delete _owners[tokenId];\r\n\r\n        emit Transfer(owner, address(0), tokenId);\r\n    }\r\n\r\n    function breed(uint _mumId, uint _dadId) payable public {\r\n        require(ownerOf(_mumId) == msg.sender && ownerOf(_dadId) == msg.sender, \"the owner of both parents should be the sender\");\r\n        uint256 _depo = depositOf(msg.sender);         \r\n        require(msg.value + _depo >= createFee, \"should have enough money\");\r\n        MonsterLib.Monster memory _mum = monsterById(_mumId);\r\n        MonsterLib.Monster memory _dad = monsterById(_dadId);\r\n        require(_mum.race == _dad.race,\"should have the same race\");\r\n        _deposit[msg.sender] += msg.value;\r\n        _deposit[msg.sender] -= createFee;\r\n        MonsterLib.IndividualValue memory _childIv = _monsterFactory.getChild(_mum.iv, _dad.iv);\r\n        _createNewMonster(msg.sender, _mumId, _dadId, _childIv, _dad.race);\r\n    \r\n\r\n    }\r\n\r\n    /**\r\n     * @dev Pick five competitors randomly from existing monsters\r\n     * Cannot pick those monster whose owner is msg.sender\r\n     */\r\n    function pickCompetitionRandomly() public view returns (Competitor[] memory competitors){\r\n        uint _monsterCount = totalSupply();\r\n        MonsterLib.Monster memory _currentMonster;\r\n        uint _leftMonster = _monsterCount - balanceOf(msg.sender);\r\n        if( _leftMonster <= 5){\r\n            competitors = new Competitor[](_leftMonster);\r\n            uint _pickedCount = 0;\r\n            for(uint i = 0; i < _monsterCount; i++){\r\n                _currentMonster = _monsterByIndex(i);\r\n                if(ownerOf(_currentMonster.tokenId) != msg.sender){\r\n                    competitors[_pickedCount] = Competitor(_currentMonster.tokenId, _currentMonster.level, _currentMonster.race, _currentMonster.statc);\r\n                    _pickedCount ++;\r\n                }\r\n            }\r\n        }\r\n        else{\r\n            competitors = new Competitor[](5);\r\n            uint _pickedCount = 0;\r\n            uint _startIndex;\r\n            uint _leastStartIndex = _monsterCount;\r\n            while(_pickedCount < 5){\r\n                _startIndex = MonsterLib._random() % _leastStartIndex;\r\n                if(_startIndex < _leastStartIndex){\r\n                    for(uint i = _startIndex; i < _leastStartIndex; i++){\r\n                        _currentMonster = _monsterByIndex(i);\r\n                        if(ownerOf(_currentMonster.tokenId) != msg.sender){\r\n                            competitors[_pickedCount] = Competitor(_currentMonster.tokenId, _currentMonster.level, _currentMonster.race, _currentMonster.statc);\r\n                            _pickedCount ++;\r\n                        }\r\n                    }   \r\n                _leastStartIndex = _startIndex;\r\n                }\r\n\r\n            }\r\n        }\r\n        return competitors;\r\n\r\n    }\r\n\r\n    function battleWithPlayer(uint _player1Id, uint _player2Id) public {\r\n        require(ownerOf(_player1Id) == msg.sender, \"only owner can start a fight\");\r\n        require(ownerOf(_player1Id) != ownerOf(_player2Id), \"two players should have different owners\");\r\n        MonsterLib.Monster memory _player1 = monsterById(_player1Id);\r\n        MonsterLib.Monster memory _player2 = monsterById(_player2Id);\r\n        uint8 exp = _monsterBattle.battleWithPlayer(_player1.statc, _player2.statc, _player2.level);\r\n        _updateExp(_player1Id, exp);\r\n    }\r\n\r\n    function battleWithDefault(uint _playerId, uint _defaultId) public{\r\n        require(ownerOf(_playerId) == msg.sender, \"only owner can start a fight\");\r\n        MonsterLib.Monster memory _player = monsterById(_playerId);\r\n        uint8 exp = _monsterBattle.battleWithDefaultMonster(_player.statc, _defaultId);\r\n        _updateExp(_playerId, exp);\r\n    }\r\n\r\n    function withdraw() public {\r\n        if(_deposit[msg.sender] > 0){\r\n            uint amount = _deposit[msg.sender];\r\n            _deposit[msg.sender] = 0;\r\n            payable (msg.sender).transfer(amount);\r\n        }\r\n    }\r\n\r\n\r\n\r\n\r\n\r\n\r\n    \r\n}",
  "sourcePath": "D:\\GitHub\\monster\\contracts\\MonsterToken.sol",
  "compiler": {
    "name": "solc",
    "version": "0.8.9+commit.e5eed63a.Emscripten.clang"
  },
  "schemaVersion": "3.4.7",
  "updatedAt": "2022-05-24T09:47:00.493Z",
  "networkType": "ethereum",
  "devdoc": {
    "kind": "dev",
    "methods": {
      "getInitialMonster(string)": {
        "details": "Pay ETH to get a default monster from contract"
      },
      "pickCompetitionRandomly()": {
        "details": "Pick five competitors randomly from existing monsters Cannot pick those monster whose owner is msg.sender"
      }
    },
    "version": 1
  },
  "userdoc": {
    "kind": "user",
    "methods": {
      "getStatics(uint256)": {
        "notice": "Used for buyer want to check more detailed information in the market"
      }
    },
    "version": 1
  }
}