{
  "contractName": "MonsterMarket",
  "abi": [
    {
      "inputs": [
        {
          "internalType": "address",
          "name": "_monsterTokenAddress",
          "type": "address"
        }
      ],
      "stateMutability": "nonpayable",
      "type": "constructor"
    },
    {
      "anonymous": false,
      "inputs": [
        {
          "indexed": true,
          "internalType": "address",
          "name": "previousOwner",
          "type": "address"
        },
        {
          "indexed": true,
          "internalType": "address",
          "name": "newOwner",
          "type": "address"
        }
      ],
      "name": "OwnershipTransferred",
      "type": "event"
    },
    {
      "anonymous": false,
      "inputs": [
        {
          "indexed": false,
          "internalType": "uint256",
          "name": "_tokenId",
          "type": "uint256"
        }
      ],
      "name": "setProductComplete",
      "type": "event"
    },
    {
      "inputs": [],
      "name": "owner",
      "outputs": [
        {
          "internalType": "address",
          "name": "",
          "type": "address"
        }
      ],
      "stateMutability": "view",
      "type": "function",
      "constant": true
    },
    {
      "inputs": [],
      "name": "renounceOwnership",
      "outputs": [],
      "stateMutability": "nonpayable",
      "type": "function"
    },
    {
      "inputs": [
        {
          "internalType": "address",
          "name": "newOwner",
          "type": "address"
        }
      ],
      "name": "transferOwnership",
      "outputs": [],
      "stateMutability": "nonpayable",
      "type": "function"
    },
    {
      "inputs": [
        {
          "internalType": "address",
          "name": "_monsterTokenAddress",
          "type": "address"
        }
      ],
      "name": "_setMonsterToken",
      "outputs": [],
      "stateMutability": "nonpayable",
      "type": "function"
    },
    {
      "inputs": [],
      "name": "totalSupply",
      "outputs": [
        {
          "internalType": "uint256",
          "name": "",
          "type": "uint256"
        }
      ],
      "stateMutability": "view",
      "type": "function",
      "constant": true
    },
    {
      "inputs": [
        {
          "internalType": "uint256",
          "name": "_tokenId",
          "type": "uint256"
        },
        {
          "internalType": "uint256",
          "name": "_price",
          "type": "uint256"
        }
      ],
      "name": "setProduct",
      "outputs": [],
      "stateMutability": "nonpayable",
      "type": "function"
    },
    {
      "inputs": [
        {
          "internalType": "uint256",
          "name": "_productId",
          "type": "uint256"
        }
      ],
      "name": "deleteProduct",
      "outputs": [],
      "stateMutability": "nonpayable",
      "type": "function"
    },
    {
      "inputs": [
        {
          "internalType": "uint256",
          "name": "_productId",
          "type": "uint256"
        }
      ],
      "name": "buyMonsters",
      "outputs": [],
      "stateMutability": "nonpayable",
      "type": "function"
    },
    {
      "inputs": [],
      "name": "getAllProducts",
      "outputs": [
        {
          "components": [
            {
              "internalType": "uint256",
              "name": "Id",
              "type": "uint256"
            },
            {
              "internalType": "uint256",
              "name": "index",
              "type": "uint256"
            },
            {
              "internalType": "uint256",
              "name": "price",
              "type": "uint256"
            },
            {
              "internalType": "address",
              "name": "owner",
              "type": "address"
            },
            {
              "internalType": "uint8",
              "name": "level",
              "type": "uint8"
            },
            {
              "components": [
                {
                  "internalType": "uint8",
                  "name": "HP",
                  "type": "uint8"
                },
                {
                  "internalType": "uint8",
                  "name": "strength",
                  "type": "uint8"
                },
                {
                  "internalType": "uint8",
                  "name": "defensive",
                  "type": "uint8"
                },
                {
                  "internalType": "uint8",
                  "name": "speed",
                  "type": "uint8"
                }
              ],
              "internalType": "struct MonsterLib.Statistics",
              "name": "statc",
              "type": "tuple"
            },
            {
              "internalType": "enum MonsterLib.Race",
              "name": "race",
              "type": "uint8"
            },
            {
              "internalType": "bool",
              "name": "isAvaliable",
              "type": "bool"
            }
          ],
          "internalType": "struct MonsterMarket.Product[]",
          "name": "_products",
          "type": "tuple[]"
        }
      ],
      "stateMutability": "view",
      "type": "function",
      "constant": true
    },
    {
      "inputs": [],
      "name": "getMyProducts",
      "outputs": [
        {
          "components": [
            {
              "internalType": "uint256",
              "name": "Id",
              "type": "uint256"
            },
            {
              "internalType": "uint256",
              "name": "index",
              "type": "uint256"
            },
            {
              "internalType": "uint256",
              "name": "price",
              "type": "uint256"
            },
            {
              "internalType": "address",
              "name": "owner",
              "type": "address"
            },
            {
              "internalType": "uint8",
              "name": "level",
              "type": "uint8"
            },
            {
              "components": [
                {
                  "internalType": "uint8",
                  "name": "HP",
                  "type": "uint8"
                },
                {
                  "internalType": "uint8",
                  "name": "strength",
                  "type": "uint8"
                },
                {
                  "internalType": "uint8",
                  "name": "defensive",
                  "type": "uint8"
                },
                {
                  "internalType": "uint8",
                  "name": "speed",
                  "type": "uint8"
                }
              ],
              "internalType": "struct MonsterLib.Statistics",
              "name": "statc",
              "type": "tuple"
            },
            {
              "internalType": "enum MonsterLib.Race",
              "name": "race",
              "type": "uint8"
            },
            {
              "internalType": "bool",
              "name": "isAvaliable",
              "type": "bool"
            }
          ],
          "internalType": "struct MonsterMarket.Product[]",
          "name": "_myProducts",
          "type": "tuple[]"
        }
      ],
      "stateMutability": "view",
      "type": "function",
      "constant": true
    }
  ],
  "bytecode": "0x60806040523480156200001157600080fd5b5060405162002db138038062002db183398181016040528101906200003791906200039f565b620000576200004b620000bd60201b60201c565b620000c560201b60201c565b6040518060400160405280600e81526020017f4d6f6e73746572204d61726b657400000000000000000000000000000000000081525060019080519060200190620000a492919062000285565b50620000b6816200018960201b60201c565b50620004b9565b600033905090565b60008060009054906101000a900473ffffffffffffffffffffffffffffffffffffffff169050816000806101000a81548173ffffffffffffffffffffffffffffffffffffffff021916908373ffffffffffffffffffffffffffffffffffffffff1602179055508173ffffffffffffffffffffffffffffffffffffffff168173ffffffffffffffffffffffffffffffffffffffff167f8be0079c531659141344cd1fd0a4f28419497f9722a3daafe3b4186f6b6457e060405160405180910390a35050565b62000199620000bd60201b60201c565b73ffffffffffffffffffffffffffffffffffffffff16620001bf6200025c60201b60201c565b73ffffffffffffffffffffffffffffffffffffffff161462000218576040517f08c379a00000000000000000000000000000000000000000000000000000000081526004016200020f9062000432565b60405180910390fd5b80600260006101000a81548173ffffffffffffffffffffffffffffffffffffffff021916908373ffffffffffffffffffffffffffffffffffffffff16021790555050565b60008060009054906101000a900473ffffffffffffffffffffffffffffffffffffffff16905090565b828054620002939062000483565b90600052602060002090601f016020900481019282620002b7576000855562000303565b82601f10620002d257805160ff191683800117855562000303565b8280016001018555821562000303579182015b8281111562000302578251825591602001919060010190620002e5565b5b50905062000312919062000316565b5090565b5b808211156200033157600081600090555060010162000317565b5090565b600080fd5b600073ffffffffffffffffffffffffffffffffffffffff82169050919050565b600062000367826200033a565b9050919050565b62000379816200035a565b81146200038557600080fd5b50565b60008151905062000399816200036e565b92915050565b600060208284031215620003b857620003b762000335565b5b6000620003c88482850162000388565b91505092915050565b600082825260208201905092915050565b7f4f776e61626c653a2063616c6c6572206973206e6f7420746865206f776e6572600082015250565b60006200041a602083620003d1565b91506200042782620003e2565b602082019050919050565b600060208201905081810360008301526200044d816200040b565b9050919050565b7f4e487b7100000000000000000000000000000000000000000000000000000000600052602260045260246000fd5b600060028204905060018216806200049c57607f821691505b60208210811415620004b357620004b262000454565b5b50919050565b6128e880620004c96000396000f3fe608060405234801561001057600080fd5b506004361061009e5760003560e01c8063c44a7bbf11610066578063c44a7bbf14610123578063e681fac51461013f578063ed90c7b71461015b578063f2fde38b14610177578063fdca4ca3146101935761009e565b806302ee3a52146100a357806318160ddd146100c1578063715018a6146100df5780638da5cb5b146100e9578063b6f415fa14610107575b600080fd5b6100ab6101b1565b6040516100b89190611e99565b60405180910390f35b6100c961046a565b6040516100d69190611eca565b60405180910390f35b6100e7610477565b005b6100f16104ff565b6040516100fe9190611ef4565b60405180910390f35b610121600480360381019061011c9190611f4a565b610528565b005b61013d60048036038101906101389190611fb6565b610ab4565b005b61015960048036038101906101549190611fe3565b610b74565b005b61017560048036038101906101709190611fe3565b610fe9565b005b610191600480360381019061018c9190611fb6565b611193565b005b61019b61128b565b6040516101a89190611e99565b60405180910390f35b60606000600380549050111561040f5760038054905067ffffffffffffffff8111156101e0576101df612010565b5b60405190808252806020026020018201604052801561021957816020015b610206611b3c565b8152602001906001900390816101fe5790505b50905060005b6003805490508110156104095760046000600383815481106102445761024361203f565b5b90600052602060002001548152602001908152602001600020604051806101000160405290816000820154815260200160018201548152602001600282015481526020016003820160009054906101000a900473ffffffffffffffffffffffffffffffffffffffff1673ffffffffffffffffffffffffffffffffffffffff1673ffffffffffffffffffffffffffffffffffffffff1681526020016003820160149054906101000a900460ff1660ff1660ff168152602001600482016040518060800160405290816000820160009054906101000a900460ff1660ff1660ff1681526020016000820160019054906101000a900460ff1660ff1660ff1681526020016000820160029054906101000a900460ff1660ff1660ff1681526020016000820160039054906101000a900460ff1660ff1660ff168152505081526020016005820160009054906101000a900460ff1660028111156103a7576103a6611cdf565b5b60028111156103b9576103b8611cdf565b5b81526020016005820160019054906101000a900460ff1615151515815250508282815181106103eb576103ea61203f565b5b602002602001018190525080806104019061209d565b91505061021f565b50610467565b600067ffffffffffffffff81111561042a57610429612010565b5b60405190808252806020026020018201604052801561046357816020015b610450611b3c565b8152602001906001900390816104485790505b5090505b90565b6000600380549050905090565b61047f611624565b73ffffffffffffffffffffffffffffffffffffffff1661049d6104ff565b73ffffffffffffffffffffffffffffffffffffffff16146104f3576040517f08c379a00000000000000000000000000000000000000000000000000000000081526004016104ea90612143565b60405180910390fd5b6104fd600061162c565b565b60008060009054906101000a900473ffffffffffffffffffffffffffffffffffffffff16905090565b600015156004600084815260200190815260200160002060050160019054906101000a900460ff16151514610592576040517f08c379a0000000000000000000000000000000000000000000000000000000008152600401610589906121af565b60405180910390fd5b600080600080600260009054906101000a900473ffffffffffffffffffffffffffffffffffffffff1673ffffffffffffffffffffffffffffffffffffffff166379a85e6c876040518263ffffffff1660e01b81526004016105f39190611eca565b60e06040518083038186803b15801561060b57600080fd5b505afa15801561061f573d6000803e3d6000fd5b505050506040513d601f19601f82011682018060405250810190610643919061230f565b93509350935093508373ffffffffffffffffffffffffffffffffffffffff163373ffffffffffffffffffffffffffffffffffffffff16146106b9576040517f08c379a00000000000000000000000000000000000000000000000000000000081526004016106b0906123c2565b60405180910390fd5b60006106c361046a565b905060006040518061010001604052808981526020018381526020018881526020018773ffffffffffffffffffffffffffffffffffffffff1681526020018660ff16815260200185815260200184600281111561072357610722611cdf565b5b8152602001600115158152509050600388908060018154018082558091505060019003906000526020600020016000909190919091505580600460008a815260200190815260200160002060008201518160000155602082015181600101556040820151816002015560608201518160030160006101000a81548173ffffffffffffffffffffffffffffffffffffffff021916908373ffffffffffffffffffffffffffffffffffffffff16021790555060808201518160030160146101000a81548160ff021916908360ff16021790555060a08201518160040160008201518160000160006101000a81548160ff021916908360ff16021790555060208201518160000160016101000a81548160ff021916908360ff16021790555060408201518160000160026101000a81548160ff021916908360ff16021790555060608201518160000160036101000a81548160ff021916908360ff160217905550505060c08201518160050160006101000a81548160ff021916908360028111156108ae576108ad611cdf565b5b021790555060e08201518160050160016101000a81548160ff0219169083151502179055509050506000600660003373ffffffffffffffffffffffffffffffffffffffff1673ffffffffffffffffffffffffffffffffffffffff1681526020019081526020016000205490508160000151600560003373ffffffffffffffffffffffffffffffffffffffff1673ffffffffffffffffffffffffffffffffffffffff16815260200190815260200160002060008381526020019081526020016000208190555080600760008b8152602001908152602001600020819055506001600660003373ffffffffffffffffffffffffffffffffffffffff1673ffffffffffffffffffffffffffffffffffffffff16815260200190815260200160002060008282546109db91906123e2565b92505081905550600260009054906101000a900473ffffffffffffffffffffffffffffffffffffffff1673ffffffffffffffffffffffffffffffffffffffff1663caece7bb8a60016040518363ffffffff1660e01b8152600401610a40929190612447565b600060405180830381600087803b158015610a5a57600080fd5b505af1158015610a6e573d6000803e3d6000fd5b505050507f24a4e0b58a37c0f3e30a528ce8ac1da26869fcf5e64b7c319d27054ac4d7ca9b89604051610aa19190611eca565b60405180910390a1505050505050505050565b610abc611624565b73ffffffffffffffffffffffffffffffffffffffff16610ada6104ff565b73ffffffffffffffffffffffffffffffffffffffff1614610b30576040517f08c379a0000000000000000000000000000000000000000000000000000000008152600401610b2790612143565b60405180910390fd5b80600260006101000a81548173ffffffffffffffffffffffffffffffffffffffff021916908373ffffffffffffffffffffffffffffffffffffffff16021790555050565b600060046000838152602001908152602001600020604051806101000160405290816000820154815260200160018201548152602001600282015481526020016003820160009054906101000a900473ffffffffffffffffffffffffffffffffffffffff1673ffffffffffffffffffffffffffffffffffffffff1673ffffffffffffffffffffffffffffffffffffffff1681526020016003820160149054906101000a900460ff1660ff1660ff168152602001600482016040518060800160405290816000820160009054906101000a900460ff1660ff1660ff1681526020016000820160019054906101000a900460ff1660ff1660ff1681526020016000820160029054906101000a900460ff1660ff1660ff1681526020016000820160039054906101000a900460ff1660ff1660ff168152505081526020016005820160009054906101000a900460ff166002811115610cd357610cd2611cdf565b5b6002811115610ce557610ce4611cdf565b5b81526020016005820160019054906101000a900460ff16151515158152505090508060e00151610d4a576040517f08c379a0000000000000000000000000000000000000000000000000000000008152600401610d41906124bc565b60405180910390fd5b3373ffffffffffffffffffffffffffffffffffffffff16816060015173ffffffffffffffffffffffffffffffffffffffff161415610dbd576040517f08c379a0000000000000000000000000000000000000000000000000000000008152600401610db490612528565b60405180910390fd5b8060400151600260009054906101000a900473ffffffffffffffffffffffffffffffffffffffff1673ffffffffffffffffffffffffffffffffffffffff166323e3fbd5336040518263ffffffff1660e01b8152600401610e1d9190611ef4565b60206040518083038186803b158015610e3557600080fd5b505afa158015610e49573d6000803e3d6000fd5b505050506040513d601f19601f82011682018060405250810190610e6d919061255d565b1015610eae576040517f08c379a0000000000000000000000000000000000000000000000000000000008152600401610ea5906125fc565b60405180910390fd5b600260009054906101000a900473ffffffffffffffffffffffffffffffffffffffff1673ffffffffffffffffffffffffffffffffffffffff166323b872dd826060015133856040518463ffffffff1660e01b8152600401610f119392919061261c565b600060405180830381600087803b158015610f2b57600080fd5b505af1158015610f3f573d6000803e3d6000fd5b50505050600260009054906101000a900473ffffffffffffffffffffffffffffffffffffffff1673ffffffffffffffffffffffffffffffffffffffff16636410381c33836060015184604001516040518463ffffffff1660e01b8152600401610faa9392919061261c565b600060405180830381600087803b158015610fc457600080fd5b505af1158015610fd8573d6000803e3d6000fd5b50505050610fe5826116f0565b5050565b600115156004600083815260200190815260200160002060050160019054906101000a900460ff16151514611053576040517f08c379a000000000000000000000000000000000000000000000000000000000815260040161104a9061269f565b60405180910390fd5b6004600082815260200190815260200160002060030160009054906101000a900473ffffffffffffffffffffffffffffffffffffffff1673ffffffffffffffffffffffffffffffffffffffff163373ffffffffffffffffffffffffffffffffffffffff16146110f7576040517f08c379a00000000000000000000000000000000000000000000000000000000081526004016110ee90612731565b60405180910390fd5b611100816116f0565b600260009054906101000a900473ffffffffffffffffffffffffffffffffffffffff1673ffffffffffffffffffffffffffffffffffffffff1663caece7bb8260006040518363ffffffff1660e01b815260040161115e929190612447565b600060405180830381600087803b15801561117857600080fd5b505af115801561118c573d6000803e3d6000fd5b5050505050565b61119b611624565b73ffffffffffffffffffffffffffffffffffffffff166111b96104ff565b73ffffffffffffffffffffffffffffffffffffffff161461120f576040517f08c379a000000000000000000000000000000000000000000000000000000000815260040161120690612143565b60405180910390fd5b600073ffffffffffffffffffffffffffffffffffffffff168173ffffffffffffffffffffffffffffffffffffffff16141561127f576040517f08c379a0000000000000000000000000000000000000000000000000000000008152600401611276906127c3565b60405180910390fd5b6112888161162c565b50565b60606000600660003373ffffffffffffffffffffffffffffffffffffffff1673ffffffffffffffffffffffffffffffffffffffff1681526020019081526020016000205411156115c957600660003373ffffffffffffffffffffffffffffffffffffffff1673ffffffffffffffffffffffffffffffffffffffff1681526020019081526020016000205467ffffffffffffffff81111561132e5761132d612010565b5b60405190808252806020026020018201604052801561136757816020015b611354611b3c565b81526020019060019003908161134c5790505b50905060005b600660003373ffffffffffffffffffffffffffffffffffffffff1673ffffffffffffffffffffffffffffffffffffffff168152602001908152602001600020548110156115c35760046000600560003373ffffffffffffffffffffffffffffffffffffffff1673ffffffffffffffffffffffffffffffffffffffff1681526020019081526020016000206000848152602001908152602001600020548152602001908152602001600020604051806101000160405290816000820154815260200160018201548152602001600282015481526020016003820160009054906101000a900473ffffffffffffffffffffffffffffffffffffffff1673ffffffffffffffffffffffffffffffffffffffff1673ffffffffffffffffffffffffffffffffffffffff1681526020016003820160149054906101000a900460ff1660ff1660ff168152602001600482016040518060800160405290816000820160009054906101000a900460ff1660ff1660ff1681526020016000820160019054906101000a900460ff1660ff1660ff1681526020016000820160029054906101000a900460ff1660ff1660ff1681526020016000820160039054906101000a900460ff1660ff1660ff168152505081526020016005820160009054906101000a900460ff16600281111561156157611560611cdf565b5b600281111561157357611572611cdf565b5b81526020016005820160019054906101000a900460ff1615151515815250508282815181106115a5576115a461203f565b5b602002602001018190525080806115bb9061209d565b91505061136d565b50611621565b600067ffffffffffffffff8111156115e4576115e3612010565b5b60405190808252806020026020018201604052801561161d57816020015b61160a611b3c565b8152602001906001900390816116025790505b5090505b90565b600033905090565b60008060009054906101000a900473ffffffffffffffffffffffffffffffffffffffff169050816000806101000a81548173ffffffffffffffffffffffffffffffffffffffff021916908373ffffffffffffffffffffffffffffffffffffffff1602179055508173ffffffffffffffffffffffffffffffffffffffff168173ffffffffffffffffffffffffffffffffffffffff167f8be0079c531659141344cd1fd0a4f28419497f9722a3daafe3b4186f6b6457e060405160405180910390a35050565b60006004600083815260200190815260200160002060030160009054906101000a900473ffffffffffffffffffffffffffffffffffffffff1690506000600161173761046a565b61174191906127e3565b90506000600460008581526020019081526020016000206001015490508082146117eb5760006003838154811061177b5761177a61203f565b5b90600052602060002001549050846003848154811061179d5761179c61203f565b5b906000526020600020018190555080600383815481106117c0576117bf61203f565b5b9060005260206000200181905550816004600083815260200190815260200160002060010181905550505b60046000858152602001908152602001600020600080820160009055600182016000905560028201600090556003820160006101000a81549073ffffffffffffffffffffffffffffffffffffffff02191690556003820160146101000a81549060ff021916905560048201600080820160006101000a81549060ff02191690556000820160016101000a81549060ff02191690556000820160026101000a81549060ff02191690556000820160036101000a81549060ff021916905550506005820160006101000a81549060ff02191690556005820160016101000a81549060ff0219169055505060038054806118e5576118e4612817565b5b600190038181906000526020600020016000905590556000600760008681526020019081526020016000205490506000600660008673ffffffffffffffffffffffffffffffffffffffff1673ffffffffffffffffffffffffffffffffffffffff168152602001908152602001600020549050808210611999576040517f08c379a000000000000000000000000000000000000000000000000000000000815260040161199090612892565b60405180910390fd5b6001816119a691906127e3565b821015611a7d576000600560008773ffffffffffffffffffffffffffffffffffffffff1673ffffffffffffffffffffffffffffffffffffffff16815260200190815260200160002060006001846119fd91906127e3565b815260200190815260200160002054905080600560008873ffffffffffffffffffffffffffffffffffffffff1673ffffffffffffffffffffffffffffffffffffffff168152602001908152602001600020600085815260200190815260200160002081905550826007600083815260200190815260200160002081905550505b600560008673ffffffffffffffffffffffffffffffffffffffff1673ffffffffffffffffffffffffffffffffffffffff1681526020019081526020016000206000600183611acb91906127e3565b8152602001908152602001600020600090556001600660008773ffffffffffffffffffffffffffffffffffffffff1673ffffffffffffffffffffffffffffffffffffffff1681526020019081526020016000206000828254611b2d91906127e3565b92505081905550505050505050565b604051806101000160405280600081526020016000815260200160008152602001600073ffffffffffffffffffffffffffffffffffffffff168152602001600060ff168152602001611b8c611bb4565b815260200160006002811115611ba557611ba4611cdf565b5b81526020016000151581525090565b6040518060800160405280600060ff168152602001600060ff168152602001600060ff168152602001600060ff1681525090565b600081519050919050565b600082825260208201905092915050565b6000819050602082019050919050565b6000819050919050565b611c2781611c14565b82525050565b600073ffffffffffffffffffffffffffffffffffffffff82169050919050565b6000611c5882611c2d565b9050919050565b611c6881611c4d565b82525050565b600060ff82169050919050565b611c8481611c6e565b82525050565b608082016000820151611ca06000850182611c7b565b506020820151611cb36020850182611c7b565b506040820151611cc66040850182611c7b565b506060820151611cd96060850182611c7b565b50505050565b7f4e487b7100000000000000000000000000000000000000000000000000000000600052602160045260246000fd5b60038110611d1f57611d1e611cdf565b5b50565b6000819050611d3082611d0e565b919050565b6000611d4082611d22565b9050919050565b611d5081611d35565b82525050565b60008115159050919050565b611d6b81611d56565b82525050565b61016082016000820151611d886000850182611c1e565b506020820151611d9b6020850182611c1e565b506040820151611dae6040850182611c1e565b506060820151611dc16060850182611c5f565b506080820151611dd46080850182611c7b565b5060a0820151611de760a0850182611c8a565b5060c0820151611dfb610120850182611d47565b5060e0820151611e0f610140850182611d62565b50505050565b6000611e218383611d71565b6101608301905092915050565b6000602082019050919050565b6000611e4682611be8565b611e508185611bf3565b9350611e5b83611c04565b8060005b83811015611e8c578151611e738882611e15565b9750611e7e83611e2e565b925050600181019050611e5f565b5085935050505092915050565b60006020820190508181036000830152611eb38184611e3b565b905092915050565b611ec481611c14565b82525050565b6000602082019050611edf6000830184611ebb565b92915050565b611eee81611c4d565b82525050565b6000602082019050611f096000830184611ee5565b92915050565b6000604051905090565b600080fd5b611f2781611c14565b8114611f3257600080fd5b50565b600081359050611f4481611f1e565b92915050565b60008060408385031215611f6157611f60611f19565b5b6000611f6f85828601611f35565b9250506020611f8085828601611f35565b9150509250929050565b611f9381611c4d565b8114611f9e57600080fd5b50565b600081359050611fb081611f8a565b92915050565b600060208284031215611fcc57611fcb611f19565b5b6000611fda84828501611fa1565b91505092915050565b600060208284031215611ff957611ff8611f19565b5b600061200784828501611f35565b91505092915050565b7f4e487b7100000000000000000000000000000000000000000000000000000000600052604160045260246000fd5b7f4e487b7100000000000000000000000000000000000000000000000000000000600052603260045260246000fd5b7f4e487b7100000000000000000000000000000000000000000000000000000000600052601160045260246000fd5b60006120a882611c14565b91507fffffffffffffffffffffffffffffffffffffffffffffffffffffffffffffffff8214156120db576120da61206e565b5b600182019050919050565b600082825260208201905092915050565b7f4f776e61626c653a2063616c6c6572206973206e6f7420746865206f776e6572600082015250565b600061212d6020836120e6565b9150612138826120f7565b602082019050919050565b6000602082019050818103600083015261215c81612120565b9050919050565b7f746869732070726f6475637420686173206265656e207075626c697368656400600082015250565b6000612199601f836120e6565b91506121a482612163565b602082019050919050565b600060208201905081810360008301526121c88161218c565b9050919050565b6000815190506121de81611f8a565b92915050565b6121ed81611c6e565b81146121f857600080fd5b50565b60008151905061220a816121e4565b92915050565b600080fd5b6000601f19601f8301169050919050565b61222f82612215565b810181811067ffffffffffffffff8211171561224e5761224d612010565b5b80604052505050565b6000612261611f0f565b905061226d8282612226565b919050565b60006080828403121561228857612287612210565b5b6122926080612257565b905060006122a2848285016121fb565b60008301525060206122b6848285016121fb565b60208301525060406122ca848285016121fb565b60408301525060606122de848285016121fb565b60608301525092915050565b600381106122f757600080fd5b50565b600081519050612309816122ea565b92915050565b60008060008060e0858703121561232957612328611f19565b5b6000612337878288016121cf565b9450506020612348878288016121fb565b935050604061235987828801612272565b92505060c061236a878288016122fa565b91505092959194509250565b7f6f6e6c79206f776e65722063616e207075626c69736820612070726f64756374600082015250565b60006123ac6020836120e6565b91506123b782612376565b602082019050919050565b600060208201905081810360008301526123db8161239f565b9050919050565b60006123ed82611c14565b91506123f883611c14565b9250827fffffffffffffffffffffffffffffffffffffffffffffffffffffffffffffffff0382111561242d5761242c61206e565b5b828201905092915050565b61244181611d56565b82525050565b600060408201905061245c6000830185611ebb565b6124696020830184612438565b9392505050565b7f63616e206e6f742062757920756e617661696c61626c652070726f6475637400600082015250565b60006124a6601f836120e6565b91506124b182612470565b602082019050919050565b600060208201905081810360008301526124d581612499565b9050919050565b7f63616e206e6f7420627579206f776e65642070726f6475637400000000000000600082015250565b60006125126019836120e6565b915061251d826124dc565b602082019050919050565b6000602082019050818103600083015261254181612505565b9050919050565b60008151905061255781611f1e565b92915050565b60006020828403121561257357612572611f19565b5b600061258184828501612548565b91505092915050565b7f646f6573206e6f74206861766520656e6f756768206d6f6e657920746f20627560008201527f7900000000000000000000000000000000000000000000000000000000000000602082015250565b60006125e66021836120e6565b91506125f18261258a565b604082019050919050565b60006020820190508181036000830152612615816125d9565b9050919050565b60006060820190506126316000830186611ee5565b61263e6020830185611ee5565b61264b6040830184611ebb565b949350505050565b7f746869732070726f6475637420686173206265656e2064656c65746564000000600082015250565b6000612689601d836120e6565b915061269482612653565b602082019050919050565b600060208201905081810360008301526126b88161267c565b9050919050565b7f6f6e6c79206f776e65722063616e2064656c65746520746869732070726f647560008201527f6374000000000000000000000000000000000000000000000000000000000000602082015250565b600061271b6022836120e6565b9150612726826126bf565b604082019050919050565b6000602082019050818103600083015261274a8161270e565b9050919050565b7f4f776e61626c653a206e6577206f776e657220697320746865207a65726f206160008201527f6464726573730000000000000000000000000000000000000000000000000000602082015250565b60006127ad6026836120e6565b91506127b882612751565b604082019050919050565b600060208201905081810360008301526127dc816127a0565b9050919050565b60006127ee82611c14565b91506127f983611c14565b92508282101561280c5761280b61206e565b5b828203905092915050565b7f4e487b7100000000000000000000000000000000000000000000000000000000600052603160045260246000fd5b7f6578636565640000000000000000000000000000000000000000000000000000600082015250565b600061287c6006836120e6565b915061288782612846565b602082019050919050565b600060208201905081810360008301526128ab8161286f565b905091905056fea26469706673582212205c478aa40639796c40fad03bad30b12d2065898a384bb247008a980bd026637f64736f6c63430008090033",
  "immutableReferences": {},
  "source": "//SPDX-License-Identifier: UNLICENSED\r\npragma solidity ^0.8.9;\r\npragma experimental ABIEncoderV2;\r\nimport \"./MonsterLib.sol\";\r\nimport \"./MonsterToken.sol\";\r\nimport \"../node_modules/@openzeppelin/contracts/access/Ownable.sol\";\r\ncontract MonsterMarket is Ownable{\r\n\r\n    event setProductComplete(uint256 _tokenId);\r\n\r\n    string private _name;\r\n\r\n    MonsterToken internal _monsterToken;\r\n\r\n    struct Product{\r\n        uint256 Id;\r\n        uint index;\r\n        uint256 price;\r\n        address owner;\r\n        uint8 level;\r\n        MonsterLib.Statistics statc;\r\n        MonsterLib.Race race;\r\n        bool isAvaliable;\r\n    }\r\n    //a list of avaliable products id\r\n    uint[] private _productsId;\r\n\r\n    //Mapping from monster id to product\r\n    mapping(uint256 => Product) private _monsterIdToProduct;\r\n\r\n    //Mapping from owner to lists of owned product IDs\r\n    mapping(address => mapping(uint256 => uint256)) private _ownedProducts;\r\n\r\n    //Mapping from owner to the number of available product they owned\r\n    mapping(address => uint256) private _productNumOf;\r\n\r\n    //Mapping from product Id to its position in list of owned product Ids\r\n    mapping(uint => uint) private _ownedProductsIndex;\r\n\r\n    constructor(address _monsterTokenAddress) {\r\n        _name = \"Monster Market\";\r\n        _setMonsterToken(_monsterTokenAddress);\r\n    }\r\n\r\n\r\n    /**\r\n     * @dev Pass the address of monster factory to this contract\r\n     */\r\n    function _setMonsterToken(address _monsterTokenAddress) public onlyOwner{\r\n        _monsterToken = MonsterToken(payable(_monsterTokenAddress));\r\n    }\r\n\r\n    function totalSupply() public view returns(uint256){\r\n        return _productsId.length;\r\n    }\r\n\r\n    /**\r\n     * @dev Add a product which does not exist \r\n     */\r\n    function setProduct(uint256 _tokenId, uint256 _price ) public {\r\n        require(_monsterIdToProduct[_tokenId].isAvaliable == false,\"this product has been published\");\r\n        (address owner, uint8 level, MonsterLib.Statistics memory statc, MonsterLib.Race race) = _monsterToken.getProductInfo(_tokenId);\r\n        require(msg.sender == owner, \"only owner can publish a product\");\r\n        uint256 _productIndex = totalSupply();\r\n        Product memory _newPro = Product(_tokenId, _productIndex, _price, owner, level, statc, race, true);\r\n        _productsId.push(_tokenId);\r\n        _monsterIdToProduct[_tokenId] = _newPro;\r\n        uint _num = _productNumOf[msg.sender];\r\n        _ownedProducts[msg.sender][_num] = _newPro.Id;\r\n        _ownedProductsIndex[_tokenId] = _num;\r\n        _productNumOf[msg.sender] += 1;\r\n        _monsterToken.lockMonster(_tokenId, true);\r\n        emit setProductComplete(_tokenId);\r\n    }\r\n\r\n    /**\r\n     *@dev delete a product in the list\r\n     */\r\n     function deleteProduct(uint256 _productId) public{\r\n        require(_monsterIdToProduct[_productId].isAvaliable == true, \"this product has been deleted\");\r\n        require(msg.sender == (_monsterIdToProduct[_productId]).owner, \"only owner can delete this product\");\r\n        _deleteProduct(_productId);\r\n        _monsterToken.lockMonster(_productId, false);  \r\n   \r\n    }\r\n\r\n    function _deleteProduct(uint256 _productId) internal{\r\n        address owner =_monsterIdToProduct[_productId].owner;\r\n        uint _lastIndex = totalSupply() - 1;\r\n        uint _productIndex = _monsterIdToProduct[_productId].index;     \r\n        if(_lastIndex != _productIndex){\r\n            uint _lastProductId = _productsId[_lastIndex];\r\n            _productsId[_lastIndex] = _productId;\r\n            _productsId[_productIndex] = _lastProductId;\r\n            _monsterIdToProduct[_lastProductId].index = _productIndex;\r\n        }\r\n        delete _monsterIdToProduct[_productId];\r\n        _productsId.pop();\r\n        uint _index = _ownedProductsIndex[_productId];\r\n        uint _amount = _productNumOf[owner];\r\n        require(_index < _amount,\"exceed\");\r\n        if(_index < _amount -1){\r\n           uint _lastOwnedId = _ownedProducts[owner][_amount -1];\r\n            _ownedProducts[owner][_index] = _lastOwnedId;\r\n            _ownedProductsIndex[_lastOwnedId] = _index;\r\n\r\n        } \r\n        delete _ownedProducts[owner][_amount - 1];\r\n        _productNumOf[owner] -= 1;\r\n        \r\n    }\r\n\r\n    function  buyMonsters(uint _productId) public {\r\n        Product memory product = _monsterIdToProduct[_productId];\r\n        require(product.isAvaliable, \"can not buy unavailable product\");\r\n        require(product.owner != msg.sender, \"can not buy owned product\");\r\n        require(_monsterToken.depositOf(msg.sender) >= product.price,\"does not have enough money to buy\");\r\n        _monsterToken.transferFrom(product.owner, msg.sender, _productId);\r\n        _monsterToken.transferMoney(msg.sender, product.owner, product.price);\r\n        _deleteProduct(_productId);\r\n\r\n    }\r\n\r\n    function getAllProducts() public view returns(Product[] memory _products){\r\n         if(_productsId.length > 0){\r\n            _products = new Product[](_productsId.length);\r\n            for(uint i = 0; i < _productsId.length; i ++){\r\n                _products[i] = _monsterIdToProduct[_productsId[i]];\r\n            }\r\n            \r\n        }\r\n        else _products = new Product[](0);\r\n    }\r\n\r\n    function getMyProducts() public view returns(Product[] memory _myProducts){\r\n        if(_productNumOf[msg.sender] > 0){\r\n            _myProducts = new Product[](_productNumOf[msg.sender]);\r\n            for(uint i = 0; i < _productNumOf[msg.sender]; i++){\r\n                _myProducts[i] = _monsterIdToProduct[_ownedProducts[msg.sender][i]];\r\n            }\r\n        }\r\n        else _myProducts = new Product[](0);\r\n    }\r\n    \r\n    \r\n}",
  "sourcePath": "D:\\GitHub\\monster\\contracts\\MonsterMarket.sol",
  "compiler": {
    "name": "solc",
    "version": "0.8.9+commit.e5eed63a.Emscripten.clang"
  },
  "schemaVersion": "3.4.7",
  "updatedAt": "2022-05-25T11:16:15.284Z",
  "networkType": "ethereum",
  "devdoc": {
    "kind": "dev",
    "methods": {
      "_setMonsterToken(address)": {
        "details": "Pass the address of monster factory to this contract"
      },
      "deleteProduct(uint256)": {
        "details": "delete a product in the list"
      },
      "owner()": {
        "details": "Returns the address of the current owner."
      },
      "renounceOwnership()": {
        "details": "Leaves the contract without owner. It will not be possible to call `onlyOwner` functions anymore. Can only be called by the current owner. NOTE: Renouncing ownership will leave the contract without an owner, thereby removing any functionality that is only available to the owner."
      },
      "setProduct(uint256,uint256)": {
        "details": "Add a product which does not exist "
      },
      "transferOwnership(address)": {
        "details": "Transfers ownership of the contract to a new account (`newOwner`). Can only be called by the current owner."
      }
    },
    "version": 1
  },
  "userdoc": {
    "kind": "user",
    "methods": {},
    "version": 1
  }
}