{
  "contractName": "MonsterToken",
  "abi": [
    {
      "inputs": [
        {
          "internalType": "address",
          "name": "_monsterFactoryAddress",
          "type": "address"
        },
        {
          "internalType": "address",
          "name": "_monsterBattleAddress",
          "type": "address"
        }
      ],
      "stateMutability": "nonpayable",
      "type": "constructor"
    },
    {
      "anonymous": false,
      "inputs": [
        {
          "indexed": false,
          "internalType": "enum MonsterLib.Race",
          "name": "",
          "type": "uint8"
        },
        {
          "indexed": false,
          "internalType": "enum MonsterLib.Race",
          "name": "",
          "type": "uint8"
        }
      ],
      "name": "DifferentRace",
      "type": "event"
    },
    {
      "anonymous": false,
      "inputs": [
        {
          "indexed": false,
          "internalType": "uint256",
          "name": "",
          "type": "uint256"
        },
        {
          "indexed": false,
          "internalType": "bool",
          "name": "",
          "type": "bool"
        }
      ],
      "name": "LockMonster",
      "type": "event"
    },
    {
      "anonymous": false,
      "inputs": [
        {
          "indexed": false,
          "internalType": "uint256",
          "name": "",
          "type": "uint256"
        }
      ],
      "name": "MonsterInMarket",
      "type": "event"
    },
    {
      "anonymous": false,
      "inputs": [
        {
          "indexed": false,
          "internalType": "address",
          "name": "",
          "type": "address"
        }
      ],
      "name": "ReadyToCreate",
      "type": "event"
    },
    {
      "anonymous": false,
      "inputs": [
        {
          "indexed": false,
          "internalType": "address",
          "name": "from",
          "type": "address"
        },
        {
          "indexed": false,
          "internalType": "uint256",
          "name": "amount",
          "type": "uint256"
        }
      ],
      "name": "ReceiveEth",
      "type": "event"
    },
    {
      "anonymous": false,
      "inputs": [
        {
          "indexed": false,
          "internalType": "address",
          "name": "",
          "type": "address"
        },
        {
          "indexed": false,
          "internalType": "address",
          "name": "",
          "type": "address"
        },
        {
          "indexed": false,
          "internalType": "uint256",
          "name": "",
          "type": "uint256"
        }
      ],
      "name": "Transfer",
      "type": "event"
    },
    {
      "anonymous": false,
      "inputs": [
        {
          "indexed": false,
          "internalType": "address",
          "name": "",
          "type": "address"
        },
        {
          "indexed": false,
          "internalType": "address",
          "name": "",
          "type": "address"
        },
        {
          "indexed": false,
          "internalType": "uint256",
          "name": "",
          "type": "uint256"
        }
      ],
      "name": "TransferMoney",
      "type": "event"
    },
    {
      "anonymous": false,
      "inputs": [
        {
          "indexed": false,
          "internalType": "uint256",
          "name": "",
          "type": "uint256"
        },
        {
          "indexed": false,
          "internalType": "bool",
          "name": "",
          "type": "bool"
        }
      ],
      "name": "Win",
      "type": "event"
    },
    {
      "stateMutability": "payable",
      "type": "receive",
      "payable": true
    },
    {
      "inputs": [
        {
          "internalType": "address",
          "name": "owner",
          "type": "address"
        }
      ],
      "name": "depositOf",
      "outputs": [
        {
          "internalType": "uint256",
          "name": "",
          "type": "uint256"
        }
      ],
      "stateMutability": "view",
      "type": "function",
      "constant": true
    },
    {
      "inputs": [],
      "name": "totalSupply",
      "outputs": [
        {
          "internalType": "uint256",
          "name": "",
          "type": "uint256"
        }
      ],
      "stateMutability": "view",
      "type": "function",
      "constant": true
    },
    {
      "inputs": [
        {
          "internalType": "string",
          "name": "race",
          "type": "string"
        }
      ],
      "name": "getInitialMonster",
      "outputs": [],
      "stateMutability": "payable",
      "type": "function",
      "payable": true
    },
    {
      "inputs": [
        {
          "internalType": "address",
          "name": "_owner",
          "type": "address"
        }
      ],
      "name": "balanceOf",
      "outputs": [
        {
          "internalType": "uint256",
          "name": "balance",
          "type": "uint256"
        }
      ],
      "stateMutability": "view",
      "type": "function",
      "constant": true
    },
    {
      "inputs": [
        {
          "internalType": "uint256",
          "name": "_tokenId",
          "type": "uint256"
        }
      ],
      "name": "getStatics",
      "outputs": [
        {
          "components": [
            {
              "internalType": "uint8",
              "name": "HP",
              "type": "uint8"
            },
            {
              "internalType": "uint8",
              "name": "strength",
              "type": "uint8"
            },
            {
              "internalType": "uint8",
              "name": "defensive",
              "type": "uint8"
            },
            {
              "internalType": "uint8",
              "name": "speed",
              "type": "uint8"
            }
          ],
          "internalType": "struct MonsterLib.Statistics",
          "name": "",
          "type": "tuple"
        }
      ],
      "stateMutability": "view",
      "type": "function",
      "constant": true
    },
    {
      "inputs": [
        {
          "internalType": "uint256",
          "name": "_tokenId",
          "type": "uint256"
        }
      ],
      "name": "getProductInfo",
      "outputs": [
        {
          "internalType": "address",
          "name": "",
          "type": "address"
        },
        {
          "internalType": "uint8",
          "name": "",
          "type": "uint8"
        },
        {
          "components": [
            {
              "internalType": "uint8",
              "name": "HP",
              "type": "uint8"
            },
            {
              "internalType": "uint8",
              "name": "strength",
              "type": "uint8"
            },
            {
              "internalType": "uint8",
              "name": "defensive",
              "type": "uint8"
            },
            {
              "internalType": "uint8",
              "name": "speed",
              "type": "uint8"
            }
          ],
          "internalType": "struct MonsterLib.Statistics",
          "name": "",
          "type": "tuple"
        },
        {
          "internalType": "enum MonsterLib.Race",
          "name": "",
          "type": "uint8"
        }
      ],
      "stateMutability": "view",
      "type": "function",
      "constant": true
    },
    {
      "inputs": [
        {
          "internalType": "uint256",
          "name": "_tokenId",
          "type": "uint256"
        }
      ],
      "name": "monsterById",
      "outputs": [
        {
          "components": [
            {
              "internalType": "uint256",
              "name": "tokenId",
              "type": "uint256"
            },
            {
              "internalType": "uint256",
              "name": "mumId",
              "type": "uint256"
            },
            {
              "internalType": "uint256",
              "name": "dadId",
              "type": "uint256"
            },
            {
              "components": [
                {
                  "internalType": "uint8",
                  "name": "HP",
                  "type": "uint8"
                },
                {
                  "internalType": "uint8",
                  "name": "strength",
                  "type": "uint8"
                },
                {
                  "internalType": "uint8",
                  "name": "defensive",
                  "type": "uint8"
                },
                {
                  "internalType": "uint8",
                  "name": "speed",
                  "type": "uint8"
                }
              ],
              "internalType": "struct MonsterLib.Statistics",
              "name": "statc",
              "type": "tuple"
            },
            {
              "components": [
                {
                  "internalType": "uint8",
                  "name": "HP",
                  "type": "uint8"
                },
                {
                  "internalType": "uint8",
                  "name": "strength",
                  "type": "uint8"
                },
                {
                  "internalType": "uint8",
                  "name": "defensive",
                  "type": "uint8"
                },
                {
                  "internalType": "uint8",
                  "name": "speed",
                  "type": "uint8"
                }
              ],
              "internalType": "struct MonsterLib.IndividualValue",
              "name": "iv",
              "type": "tuple"
            },
            {
              "internalType": "uint8",
              "name": "level",
              "type": "uint8"
            },
            {
              "internalType": "uint8",
              "name": "expNeedToNext",
              "type": "uint8"
            },
            {
              "internalType": "enum MonsterLib.Race",
              "name": "race",
              "type": "uint8"
            },
            {
              "internalType": "bool",
              "name": "isLocked",
              "type": "bool"
            }
          ],
          "internalType": "struct MonsterLib.Monster",
          "name": "",
          "type": "tuple"
        }
      ],
      "stateMutability": "view",
      "type": "function",
      "constant": true
    },
    {
      "inputs": [
        {
          "internalType": "address",
          "name": "_from",
          "type": "address"
        },
        {
          "internalType": "address",
          "name": "_to",
          "type": "address"
        },
        {
          "internalType": "uint256",
          "name": "_value",
          "type": "uint256"
        }
      ],
      "name": "transferMoney",
      "outputs": [],
      "stateMutability": "nonpayable",
      "type": "function"
    },
    {
      "inputs": [
        {
          "internalType": "address",
          "name": "_from",
          "type": "address"
        },
        {
          "internalType": "address",
          "name": "_to",
          "type": "address"
        },
        {
          "internalType": "uint256",
          "name": "_tokenId",
          "type": "uint256"
        }
      ],
      "name": "transferFrom",
      "outputs": [],
      "stateMutability": "nonpayable",
      "type": "function"
    },
    {
      "inputs": [
        {
          "internalType": "uint256",
          "name": "_tokenId",
          "type": "uint256"
        },
        {
          "internalType": "bool",
          "name": "_locked",
          "type": "bool"
        }
      ],
      "name": "lockMonster",
      "outputs": [],
      "stateMutability": "nonpayable",
      "type": "function"
    },
    {
      "inputs": [],
      "name": "getOwnedMonster",
      "outputs": [
        {
          "components": [
            {
              "internalType": "uint256",
              "name": "tokenId",
              "type": "uint256"
            },
            {
              "internalType": "uint256",
              "name": "mumId",
              "type": "uint256"
            },
            {
              "internalType": "uint256",
              "name": "dadId",
              "type": "uint256"
            },
            {
              "components": [
                {
                  "internalType": "uint8",
                  "name": "HP",
                  "type": "uint8"
                },
                {
                  "internalType": "uint8",
                  "name": "strength",
                  "type": "uint8"
                },
                {
                  "internalType": "uint8",
                  "name": "defensive",
                  "type": "uint8"
                },
                {
                  "internalType": "uint8",
                  "name": "speed",
                  "type": "uint8"
                }
              ],
              "internalType": "struct MonsterLib.Statistics",
              "name": "statc",
              "type": "tuple"
            },
            {
              "components": [
                {
                  "internalType": "uint8",
                  "name": "HP",
                  "type": "uint8"
                },
                {
                  "internalType": "uint8",
                  "name": "strength",
                  "type": "uint8"
                },
                {
                  "internalType": "uint8",
                  "name": "defensive",
                  "type": "uint8"
                },
                {
                  "internalType": "uint8",
                  "name": "speed",
                  "type": "uint8"
                }
              ],
              "internalType": "struct MonsterLib.IndividualValue",
              "name": "iv",
              "type": "tuple"
            },
            {
              "internalType": "uint8",
              "name": "level",
              "type": "uint8"
            },
            {
              "internalType": "uint8",
              "name": "expNeedToNext",
              "type": "uint8"
            },
            {
              "internalType": "enum MonsterLib.Race",
              "name": "race",
              "type": "uint8"
            },
            {
              "internalType": "bool",
              "name": "isLocked",
              "type": "bool"
            }
          ],
          "internalType": "struct MonsterLib.Monster[]",
          "name": "monsters",
          "type": "tuple[]"
        }
      ],
      "stateMutability": "view",
      "type": "function",
      "constant": true
    },
    {
      "inputs": [
        {
          "internalType": "uint256",
          "name": "_monsterId",
          "type": "uint256"
        }
      ],
      "name": "deleteMonster",
      "outputs": [],
      "stateMutability": "nonpayable",
      "type": "function"
    },
    {
      "inputs": [
        {
          "internalType": "uint256",
          "name": "_mumId",
          "type": "uint256"
        },
        {
          "internalType": "uint256",
          "name": "_dadId",
          "type": "uint256"
        }
      ],
      "name": "breed",
      "outputs": [],
      "stateMutability": "payable",
      "type": "function",
      "payable": true
    },
    {
      "inputs": [],
      "name": "pickCompetitionRandomly",
      "outputs": [
        {
          "components": [
            {
              "internalType": "uint256",
              "name": "tokenId",
              "type": "uint256"
            },
            {
              "internalType": "uint8",
              "name": "level",
              "type": "uint8"
            },
            {
              "internalType": "enum MonsterLib.Race",
              "name": "race",
              "type": "uint8"
            },
            {
              "components": [
                {
                  "internalType": "uint8",
                  "name": "HP",
                  "type": "uint8"
                },
                {
                  "internalType": "uint8",
                  "name": "strength",
                  "type": "uint8"
                },
                {
                  "internalType": "uint8",
                  "name": "defensive",
                  "type": "uint8"
                },
                {
                  "internalType": "uint8",
                  "name": "speed",
                  "type": "uint8"
                }
              ],
              "internalType": "struct MonsterLib.Statistics",
              "name": "statc",
              "type": "tuple"
            }
          ],
          "internalType": "struct MonsterToken.Competitor[]",
          "name": "competitors",
          "type": "tuple[]"
        }
      ],
      "stateMutability": "view",
      "type": "function",
      "constant": true
    },
    {
      "inputs": [
        {
          "internalType": "uint256",
          "name": "_player1Id",
          "type": "uint256"
        },
        {
          "internalType": "uint256",
          "name": "_player2Id",
          "type": "uint256"
        }
      ],
      "name": "battleWithPlayer",
      "outputs": [],
      "stateMutability": "nonpayable",
      "type": "function"
    },
    {
      "inputs": [
        {
          "internalType": "uint256",
          "name": "_playerId",
          "type": "uint256"
        },
        {
          "internalType": "uint256",
          "name": "_defaultId",
          "type": "uint256"
        }
      ],
      "name": "battleWithDefault",
      "outputs": [],
      "stateMutability": "nonpayable",
      "type": "function"
    },
    {
      "inputs": [],
      "name": "withdraw",
      "outputs": [],
      "stateMutability": "nonpayable",
      "type": "function"
    }
  ],
  "bytecode": "0x60806040526040518060800160405280600560ff168152602001600560ff168152602001600560ff168152602001600560ff16815250601060008201518160000160006101000a81548160ff021916908360ff16021790555060208201518160000160016101000a81548160ff021916908360ff16021790555060408201518160000160026101000a81548160ff021916908360ff16021790555060608201518160000160036101000a81548160ff021916908360ff1602179055505050348015620000ca57600080fd5b5060405162005f1e38038062005f1e8339818101604052810190620000f09190620002bb565b600073ffffffffffffffffffffffffffffffffffffffff168173ffffffffffffffffffffffffffffffffffffffff16141580156200015b5750600073ffffffffffffffffffffffffffffffffffffffff168273ffffffffffffffffffffffffffffffffffffffff1614155b6200016557600080fd5b6001600d819055506000600c60006101000a81548160ff0219169083151502179055506200019a8282620001cc60201b60201c565b671bc16d674ec80000600e819055506000600f60006101000a81548160ff021916908315150217905550505062000302565b816000806101000a81548173ffffffffffffffffffffffffffffffffffffffff021916908373ffffffffffffffffffffffffffffffffffffffff16021790555080600160006101000a81548173ffffffffffffffffffffffffffffffffffffffff021916908373ffffffffffffffffffffffffffffffffffffffff1602179055505050565b600080fd5b600073ffffffffffffffffffffffffffffffffffffffff82169050919050565b6000620002838262000256565b9050919050565b620002958162000276565b8114620002a157600080fd5b50565b600081519050620002b5816200028a565b92915050565b60008060408385031215620002d557620002d462000251565b5b6000620002e585828601620002a4565b9250506020620002f885828601620002a4565b9150509250929050565b615c0c80620003126000396000f3fe6080604052600436106101025760003560e01c80636410381c11610095578063c3cfcdc811610064578063c3cfcdc8146103d5578063caece7bb146103fe578063ccd1a9e914610427578063d9ecad7b14610452578063fe3296f81461046e57610198565b80636410381c1461030457806370a082311461032d57806379a85e6c1461036a5780637a5800c5146103aa57610198565b8063292fe8f6116100d1578063292fe8f61461026b578063332aea75146102945780633ccfd60b146102b0578063422666a7146102c757610198565b806318160ddd1461019d5780631dddf164146101c857806323b872dd1461020557806323e3fbd51461022e57610198565b366101985734600460003373ffffffffffffffffffffffffffffffffffffffff1673ffffffffffffffffffffffffffffffffffffffff16815260200190815260200160002060008282546101569190614130565b925050819055507fefc0288202e432ade6bf71491d0001d7e389ad4f8e4e9c7aa038dd1a563efc60333460405161018e9291906141d6565b60405180910390a1005b600080fd5b3480156101a957600080fd5b506101b2610497565b6040516101bf91906141ff565b60405180910390f35b3480156101d457600080fd5b506101ef60048036038101906101ea919061425a565b6104a4565b6040516101fc91906142f8565b60405180910390f35b34801561021157600080fd5b5061022c6004803603810190610227919061433f565b610615565b005b34801561023a57600080fd5b5061025560048036038101906102509190614392565b61079c565b60405161026291906141ff565b60405180910390f35b34801561027757600080fd5b50610292600480360381019061028d91906143bf565b6108c3565b005b6102ae60048036038101906102a99190614545565b610c8f565b005b3480156102bc57600080fd5b506102c5610fa4565b005b3480156102d357600080fd5b506102ee60048036038101906102e9919061425a565b6110c0565b6040516102fb9190614793565b60405180910390f35b34801561031057600080fd5b5061032b6004803603810190610326919061433f565b611379565b005b34801561033957600080fd5b50610354600480360381019061034f9190614392565b611510565b60405161036191906141ff565b60405180910390f35b34801561037657600080fd5b50610391600480360381019061038c919061425a565b6115c7565b6040516103a194939291906147cd565b60405180910390f35b3480156103b657600080fd5b506103bf6118b0565b6040516103cc919061497c565b60405180910390f35b3480156103e157600080fd5b506103fc60048036038101906103f791906143bf565b611a14565b005b34801561040a57600080fd5b50610425600480360381019061042091906149ca565b611c7b565b005b34801561043357600080fd5b5061043c611d7e565b6040516104499190614b0e565b60405180910390f35b61046c600480360381019061046791906143bf565b612064565b005b34801561047a57600080fd5b506104956004803603810190610490919061425a565b61237d565b005b6000600780549050905090565b6104ac613f37565b81600073ffffffffffffffffffffffffffffffffffffffff166002600083815260200190815260200160002060009054906101000a900473ffffffffffffffffffffffffffffffffffffffff1673ffffffffffffffffffffffffffffffffffffffff161415610550576040517f08c379a000000000000000000000000000000000000000000000000000000000815260040161054790614b8d565b60405180910390fd5b6000600860008581526020019081526020016000205490506007818154811061057c5761057b614bad565b5b90600052602060002090600602016003016040518060800160405290816000820160009054906101000a900460ff1660ff1660ff1681526020016000820160019054906101000a900460ff1660ff1660ff1681526020016000820160029054906101000a900460ff1660ff1660ff1681526020016000820160039054906101000a900460ff1660ff1660ff168152505092505050919050565b8273ffffffffffffffffffffffffffffffffffffffff166106358261244d565b73ffffffffffffffffffffffffffffffffffffffff161461068b576040517f08c379a000000000000000000000000000000000000000000000000000000000815260040161068290614c4e565b60405180910390fd5b610694816110c0565b61010001516106d8576040517f08c379a00000000000000000000000000000000000000000000000000000000081526004016106cf90614ce0565b60405180910390fd5b8173ffffffffffffffffffffffffffffffffffffffff163273ffffffffffffffffffffffffffffffffffffffff1614610746576040517f08c379a000000000000000000000000000000000000000000000000000000000815260040161073d90614d72565b60405180910390fd5b61075183838361252f565b61075c816000611c7b565b7fddf252ad1be2c89b69c2b068fc378daa952ba7f163c4a11628f55a4df523b3ef83838360405161078f93929190614d92565b60405180910390a1505050565b60003273ffffffffffffffffffffffffffffffffffffffff168273ffffffffffffffffffffffffffffffffffffffff161461080c576040517f08c379a000000000000000000000000000000000000000000000000000000000815260040161080390614e15565b60405180910390fd5b600073ffffffffffffffffffffffffffffffffffffffff168273ffffffffffffffffffffffffffffffffffffffff16141561087c576040517f08c379a000000000000000000000000000000000000000000000000000000000815260040161087390614ea7565b60405180910390fd5b600460008373ffffffffffffffffffffffffffffffffffffffff1673ffffffffffffffffffffffffffffffffffffffff168152602001908152602001600020549050919050565b3373ffffffffffffffffffffffffffffffffffffffff166108e38361244d565b73ffffffffffffffffffffffffffffffffffffffff1614610939576040517f08c379a000000000000000000000000000000000000000000000000000000000815260040161093090614f13565b60405180910390fd5b60006008600084815260200190815260200160002054905060006007828154811061096757610966614bad565b5b906000526020600020906006020160405180610120016040529081600082015481526020016001820154815260200160028201548152602001600382016040518060800160405290816000820160009054906101000a900460ff1660ff1660ff1681526020016000820160019054906101000a900460ff1660ff1660ff1681526020016000820160029054906101000a900460ff1660ff1660ff1681526020016000820160039054906101000a900460ff1660ff1660ff16815250508152602001600482016040518060800160405290816000820160009054906101000a900460ff1660ff1660ff1681526020016000820160019054906101000a900460ff1660ff1660ff1681526020016000820160029054906101000a900460ff1660ff1660ff1681526020016000820160039054906101000a900460ff1660ff1660ff168152505081526020016005820160009054906101000a900460ff1660ff1660ff1681526020016005820160019054906101000a900460ff1660ff1660ff1681526020016005820160029054906101000a900460ff166002811115610b0e57610b0d614647565b5b6002811115610b2057610b1f614647565b5b81526020016005820160039054906101000a900460ff16151515158152505090506000600160009054906101000a900473ffffffffffffffffffffffffffffffffffffffff1673ffffffffffffffffffffffffffffffffffffffff1663ba93a73e8360600151866040518363ffffffff1660e01b8152600401610ba4929190614f33565b602060405180830381600087803b158015610bbe57600080fd5b505af1158015610bd2573d6000803e3d6000fd5b505050506040513d601f19601f82011682018060405250810190610bf69190614f88565b9050610c02858261276b565b60008160ff161115610c4d577f9846a6478e5b5533629b4b80a186b00f7e7bb2d6b97996c7b5f141e2172689e1856001604051610c40929190614fc4565b60405180910390a1610c88565b7f9846a6478e5b5533629b4b80a186b00f7e7bb2d6b97996c7b5f141e2172689e1856000604051610c7f929190614fc4565b60405180910390a15b5050505050565b34600460003373ffffffffffffffffffffffffffffffffffffffff1673ffffffffffffffffffffffffffffffffffffffff1681526020019081526020016000206000828254610cde9190614130565b92505081905550600e54600460003373ffffffffffffffffffffffffffffffffffffffff1673ffffffffffffffffffffffffffffffffffffffff168152602001908152602001600020541015610d69576040517f08c379a0000000000000000000000000000000000000000000000000000000008152600401610d6090615039565b60405180910390fd5b600e54600460003373ffffffffffffffffffffffffffffffffffffffff1673ffffffffffffffffffffffffffffffffffffffff1681526020019081526020016000206000828254610dba9190615059565b925050819055506000604051602001610dd2906150e4565b6040516020818303038152906040528051906020012082604051602001610df99190615168565b604051602081830303815290604052805190602001201415610e1e5760009050610edb565b604051602001610e2d906151cb565b6040516020818303038152906040528051906020012082604051602001610e549190615168565b604051602081830303815290604052805190602001201415610e795760019050610eda565b604051602001610e889061522c565b6040516020818303038152906040528051906020012082604051602001610eaf9190615168565b604051602081830303815290604052805190602001201415610ed45760029050610ed9565b600080fd5b5b5b7f4d39a79ee4766bf9e3447e4866b9832db2e272f069d44614c16bb3eb672a638033604051610f0a9190615241565b60405180910390a1610fa03360008060106040518060800160405290816000820160009054906101000a900460ff1660ff1660ff1681526020016000820160019054906101000a900460ff1660ff1660ff1681526020016000820160029054906101000a900460ff1660ff1660ff1681526020016000820160039054906101000a900460ff1660ff1660ff168152505085612a97565b5050565b6000600460003373ffffffffffffffffffffffffffffffffffffffff1673ffffffffffffffffffffffffffffffffffffffff1681526020019081526020016000205411156110be576000600460003373ffffffffffffffffffffffffffffffffffffffff1673ffffffffffffffffffffffffffffffffffffffff1681526020019081526020016000205490506000600460003373ffffffffffffffffffffffffffffffffffffffff1673ffffffffffffffffffffffffffffffffffffffff168152602001908152602001600020819055503373ffffffffffffffffffffffffffffffffffffffff166108fc829081150290604051600060405180830381858888f193505050501580156110bb573d6000803e3d6000fd5b50505b565b6110c8613f6b565b81600073ffffffffffffffffffffffffffffffffffffffff166002600083815260200190815260200160002060009054906101000a900473ffffffffffffffffffffffffffffffffffffffff1673ffffffffffffffffffffffffffffffffffffffff16141561116c576040517f08c379a000000000000000000000000000000000000000000000000000000000815260040161116390614b8d565b60405180910390fd5b6000600860008581526020019081526020016000205490506007818154811061119857611197614bad565b5b906000526020600020906006020160405180610120016040529081600082015481526020016001820154815260200160028201548152602001600382016040518060800160405290816000820160009054906101000a900460ff1660ff1660ff1681526020016000820160019054906101000a900460ff1660ff1660ff1681526020016000820160029054906101000a900460ff1660ff1660ff1681526020016000820160039054906101000a900460ff1660ff1660ff16815250508152602001600482016040518060800160405290816000820160009054906101000a900460ff1660ff1660ff1681526020016000820160019054906101000a900460ff1660ff1660ff1681526020016000820160029054906101000a900460ff1660ff1660ff1681526020016000820160039054906101000a900460ff1660ff1660ff168152505081526020016005820160009054906101000a900460ff1660ff1660ff1681526020016005820160019054906101000a900460ff1660ff1660ff1681526020016005820160029054906101000a900460ff16600281111561133f5761133e614647565b5b600281111561135157611350614647565b5b81526020016005820160039054906101000a900460ff16151515158152505092505050919050565b8273ffffffffffffffffffffffffffffffffffffffff163273ffffffffffffffffffffffffffffffffffffffff16146113b157600080fd5b600073ffffffffffffffffffffffffffffffffffffffff168273ffffffffffffffffffffffffffffffffffffffff161415801561141b5750600073ffffffffffffffffffffffffffffffffffffffff168373ffffffffffffffffffffffffffffffffffffffff1614155b61142457600080fd5b80600460008573ffffffffffffffffffffffffffffffffffffffff1673ffffffffffffffffffffffffffffffffffffffff16815260200190815260200160002060008282546114739190615059565b9250508190555080600460008473ffffffffffffffffffffffffffffffffffffffff1673ffffffffffffffffffffffffffffffffffffffff16815260200190815260200160002060008282546114c99190614130565b925050819055507fb900e832b6eff259cf1fd6d12898306d28460d412e04f398c1a74a2af601301383838360405161150393929190614d92565b60405180910390a1505050565b60003373ffffffffffffffffffffffffffffffffffffffff168273ffffffffffffffffffffffffffffffffffffffff1614611580576040517f08c379a0000000000000000000000000000000000000000000000000000000008152600401611577906152ce565b60405180910390fd5b600360008373ffffffffffffffffffffffffffffffffffffffff1673ffffffffffffffffffffffffffffffffffffffff168152602001908152602001600020549050919050565b6000806115d2613f37565b600084600073ffffffffffffffffffffffffffffffffffffffff166002600083815260200190815260200160002060009054906101000a900473ffffffffffffffffffffffffffffffffffffffff1673ffffffffffffffffffffffffffffffffffffffff161415611678576040517f08c379a000000000000000000000000000000000000000000000000000000000815260040161166f90614b8d565b60405180910390fd5b6000600860008881526020019081526020016000205490506000600782815481106116a6576116a5614bad565b5b906000526020600020906006020160405180610120016040529081600082015481526020016001820154815260200160028201548152602001600382016040518060800160405290816000820160009054906101000a900460ff1660ff1660ff1681526020016000820160019054906101000a900460ff1660ff1660ff1681526020016000820160029054906101000a900460ff1660ff1660ff1681526020016000820160039054906101000a900460ff1660ff1660ff16815250508152602001600482016040518060800160405290816000820160009054906101000a900460ff1660ff1660ff1681526020016000820160019054906101000a900460ff1660ff1660ff1681526020016000820160029054906101000a900460ff1660ff1660ff1681526020016000820160039054906101000a900460ff1660ff1660ff168152505081526020016005820160009054906101000a900460ff1660ff1660ff1681526020016005820160019054906101000a900460ff1660ff1660ff1681526020016005820160029054906101000a900460ff16600281111561184d5761184c614647565b5b600281111561185f5761185e614647565b5b81526020016005820160039054906101000a900460ff1615151515815250509050600061188b8961244d565b9050808260a0015183606001518460e001519750975097509750505050509193509193565b606060006118bd33611510565b9050600081146119b8578067ffffffffffffffff8111156118e1576118e061441a565b5b60405190808252806020026020018201604052801561191a57816020015b611907613f6b565b8152602001906001900390816118ff5790505b50915060005b818110156119b257611981600960003373ffffffffffffffffffffffffffffffffffffffff1673ffffffffffffffffffffffffffffffffffffffff1681526020019081526020016000206000838152602001908152602001600020546110c0565b83828151811061199457611993614bad565b5b602002602001018190525080806119aa906152ee565b915050611920565b50611a10565b600067ffffffffffffffff8111156119d3576119d261441a565b5b604051908082528060200260200182016040528015611a0c57816020015b6119f9613f6b565b8152602001906001900390816119f15790505b5091505b5090565b3373ffffffffffffffffffffffffffffffffffffffff16611a348361244d565b73ffffffffffffffffffffffffffffffffffffffff1614611a8a576040517f08c379a0000000000000000000000000000000000000000000000000000000008152600401611a8190614f13565b60405180910390fd5b611a938161244d565b73ffffffffffffffffffffffffffffffffffffffff16611ab28361244d565b73ffffffffffffffffffffffffffffffffffffffff161415611b09576040517f08c379a0000000000000000000000000000000000000000000000000000000008152600401611b00906153a9565b60405180910390fd5b6000611b14836110c0565b90506000611b21836110c0565b90506000600160009054906101000a900473ffffffffffffffffffffffffffffffffffffffff1673ffffffffffffffffffffffffffffffffffffffff1663aa477cce846060015184606001518560a001516040518463ffffffff1660e01b8152600401611b90939291906153c9565b602060405180830381600087803b158015611baa57600080fd5b505af1158015611bbe573d6000803e3d6000fd5b505050506040513d601f19601f82011682018060405250810190611be29190614f88565b9050611bee858261276b565b60008160ff161115611c39577f9846a6478e5b5533629b4b80a186b00f7e7bb2d6b97996c7b5f141e2172689e1856001604051611c2c929190614fc4565b60405180910390a1611c74565b7f9846a6478e5b5533629b4b80a186b00f7e7bb2d6b97996c7b5f141e2172689e1856000604051611c6b929190614fc4565b60405180910390a15b5050505050565b611c848261244d565b73ffffffffffffffffffffffffffffffffffffffff163273ffffffffffffffffffffffffffffffffffffffff1614611cf1576040517f08c379a0000000000000000000000000000000000000000000000000000000008152600401611ce89061544e565b60405180910390fd5b806007600860008581526020019081526020016000205481548110611d1957611d18614bad565b5b906000526020600020906006020160050160036101000a81548160ff0219169083151502179055507f6a0921deabd763b8789c5acb4605c886a6f98ea35c16c99d0954bea1b8ff83b68282604051611d72929190614fc4565b60405180910390a15050565b60606000611d8a610497565b9050611d94613f6b565b6000611d9f33611510565b83611daa9190615059565b905060058111611eed578067ffffffffffffffff811115611dce57611dcd61441a565b5b604051908082528060200260200182016040528015611e0757816020015b611df4613fdd565b815260200190600190039081611dec5790505b5093506000805b84811015611ee657611e1f81612d99565b93503373ffffffffffffffffffffffffffffffffffffffff16611e45856000015161244d565b73ffffffffffffffffffffffffffffffffffffffff1614611ed3576040518060800160405280856000015181526020018560a0015160ff1681526020018560e001516002811115611e9957611e98614647565b5b81526020018560600151815250868381518110611eb957611eb8614bad565b5b60200260200101819052508180611ecf906152ee565b9250505b8080611ede906152ee565b915050611e0e565b505061205e565b600567ffffffffffffffff811115611f0857611f0761441a565b5b604051908082528060200260200182016040528015611f4157816020015b611f2e613fdd565b815260200190600190039081611f265790505b509350600080808590505b600583101561205a5780611f5e612fdd565b611f68919061549d565b9150808210156120555760008290505b8181101561205057611f8981612d99565b95503373ffffffffffffffffffffffffffffffffffffffff16611faf876000015161244d565b73ffffffffffffffffffffffffffffffffffffffff161461203d576040518060800160405280876000015181526020018760a0015160ff1681526020018760e00151600281111561200357612002614647565b5b8152602001876060015181525088858151811061202357612022614bad565b5b60200260200101819052508380612039906152ee565b9450505b8080612048906152ee565b915050611f78565b508190505b611f4c565b5050505b50505090565b3373ffffffffffffffffffffffffffffffffffffffff166120848361244d565b73ffffffffffffffffffffffffffffffffffffffff161480156120da57503373ffffffffffffffffffffffffffffffffffffffff166120c28261244d565b73ffffffffffffffffffffffffffffffffffffffff16145b612119576040517f08c379a000000000000000000000000000000000000000000000000000000000815260040161211090615540565b60405180910390fd5b60006121243361079c565b9050600e5481346121359190614130565b1015612176576040517f08c379a000000000000000000000000000000000000000000000000000000000815260040161216d90615039565b60405180910390fd5b6000612181846110c0565b9050600061218e846110c0565b90508060e0015160028111156121a7576121a6614647565b5b8260e0015160028111156121be576121bd614647565b5b146121fe576040517f08c379a00000000000000000000000000000000000000000000000000000000081526004016121f5906155ac565b60405180910390fd5b34600460003373ffffffffffffffffffffffffffffffffffffffff1673ffffffffffffffffffffffffffffffffffffffff168152602001908152602001600020600082825461224d9190614130565b92505081905550600e54600460003373ffffffffffffffffffffffffffffffffffffffff1673ffffffffffffffffffffffffffffffffffffffff16815260200190815260200160002060008282546122a59190615059565b9250508190555060008060009054906101000a900473ffffffffffffffffffffffffffffffffffffffff1673ffffffffffffffffffffffffffffffffffffffff1663c9a267f9846080015184608001516040518363ffffffff1660e01b8152600401612312929190615621565b60806040518083038186803b15801561232a57600080fd5b505afa15801561233e573d6000803e3d6000fd5b505050506040513d601f19601f8201168201806040525081019061236291906156c8565b9050612375338787848660e00151612a97565b505050505050565b6123868161244d565b73ffffffffffffffffffffffffffffffffffffffff163373ffffffffffffffffffffffffffffffffffffffff16146123f3576040517f08c379a00000000000000000000000000000000000000000000000000000000081526004016123ea90615741565b60405180910390fd5b6123fc816110c0565b610100015115612441576040517f08c379a0000000000000000000000000000000000000000000000000000000008152600401612438906157ad565b60405180910390fd5b61244a81613013565b50565b600081600073ffffffffffffffffffffffffffffffffffffffff166002600083815260200190815260200160002060009054906101000a900473ffffffffffffffffffffffffffffffffffffffff1673ffffffffffffffffffffffffffffffffffffffff1614156124f3576040517f08c379a00000000000000000000000000000000000000000000000000000000081526004016124ea90614b8d565b60405180910390fd5b6002600084815260200190815260200160002060009054906101000a900473ffffffffffffffffffffffffffffffffffffffff16915050919050565b8273ffffffffffffffffffffffffffffffffffffffff1661254f8261244d565b73ffffffffffffffffffffffffffffffffffffffff16146125a5576040517f08c379a000000000000000000000000000000000000000000000000000000000815260040161259c9061583f565b60405180910390fd5b600073ffffffffffffffffffffffffffffffffffffffff168273ffffffffffffffffffffffffffffffffffffffff161415612615576040517f08c379a000000000000000000000000000000000000000000000000000000000815260040161260c906158d1565b60405180910390fd5b6126208383836130f9565b6001600360008573ffffffffffffffffffffffffffffffffffffffff1673ffffffffffffffffffffffffffffffffffffffff16815260200190815260200160002060008282546126709190615059565b925050819055506001600360008473ffffffffffffffffffffffffffffffffffffffff1673ffffffffffffffffffffffffffffffffffffffff16815260200190815260200160002060008282546126c79190614130565b92505081905550816002600083815260200190815260200160002060006101000a81548173ffffffffffffffffffffffffffffffffffffffff021916908373ffffffffffffffffffffffffffffffffffffffff16021790555061272b816000611c7b565b7fddf252ad1be2c89b69c2b068fc378daa952ba7f163c4a11628f55a4df523b3ef83838360405161275e93929190614d92565b60405180910390a1505050565b81600073ffffffffffffffffffffffffffffffffffffffff166002600083815260200190815260200160002060009054906101000a900473ffffffffffffffffffffffffffffffffffffffff1673ffffffffffffffffffffffffffffffffffffffff16141561280f576040517f08c379a000000000000000000000000000000000000000000000000000000000815260040161280690614b8d565b60405180910390fd5b60006008600085815260200190815260200160002054905060006007828154811061283d5761283c614bad565b5b906000526020600020906006020190508360ff168160050160019054906101000a900460ff1660ff1611156128a957838160050160018282829054906101000a900460ff1661288c91906158f1565b92506101000a81548160ff021916908360ff160217905550612a90565b600a8160050160009054906101000a900460ff1660ff161015612a8f5760018160050160008282829054906101000a900460ff166128e79190615925565b92506101000a81548160ff021916908360ff1602179055508060050160019054906101000a900460ff168461291c91906158f1565b600a8260050160009054906101000a900460ff1661293a919061595c565b61294491906158f1565b8160050160016101000a81548160ff021916908360ff16021790555060006129ff826004016040518060800160405290816000820160009054906101000a900460ff1660ff1660ff1681526020016000820160019054906101000a900460ff1660ff1660ff1681526020016000820160029054906101000a900460ff1660ff1660ff1681526020016000820160039054906101000a900460ff1660ff1660ff16815250508360050160009054906101000a900460ff166131f9565b9050808260030160008201518160000160006101000a81548160ff021916908360ff16021790555060208201518160000160016101000a81548160ff021916908360ff16021790555060408201518160000160026101000a81548160ff021916908360ff16021790555060608201518160000160036101000a81548160ff021916908360ff160217905550905050505b5b5050505050565b6000600d549050600d6000815480929190612ab1906152ee565b91905055506000612ac38460016131f9565b90506000604051806101200160405280848152602001888152602001878152602001838152602001868152602001600160ff168152602001600a60ff168152602001856002811115612b1857612b17614647565b5b8152602001600015158152509050612b2f816132a6565b612b3857600080fd5b6000612b42610497565b9050600782908060018154018082558091505060019003906000526020600020906006020160009091909190915060008201518160000155602082015181600101556040820151816002015560608201518160030160008201518160000160006101000a81548160ff021916908360ff16021790555060208201518160000160016101000a81548160ff021916908360ff16021790555060408201518160000160026101000a81548160ff021916908360ff16021790555060608201518160000160036101000a81548160ff021916908360ff160217905550505060808201518160040160008201518160000160006101000a81548160ff021916908360ff16021790555060208201518160000160016101000a81548160ff021916908360ff16021790555060408201518160000160026101000a81548160ff021916908360ff16021790555060608201518160000160036101000a81548160ff021916908360ff160217905550505060a08201518160050160006101000a81548160ff021916908360ff16021790555060c08201518160050160016101000a81548160ff021916908360ff16021790555060e08201518160050160026101000a81548160ff02191690836002811115612d1957612d18614647565b5b02179055506101008201518160050160036101000a81548160ff0219169083151502179055505050806008600086815260200190815260200160002081905550612d6389856133a5565b6000612d728360e0015161350a565b9050600081511415612d8357600080fd5b612d8d8582613651565b50505050505050505050565b612da1613f6b565b612da9610497565b8210612dea576040517f08c379a0000000000000000000000000000000000000000000000000000000008152600401612de1906159e3565b60405180910390fd5b60078281548110612dfe57612dfd614bad565b5b906000526020600020906006020160405180610120016040529081600082015481526020016001820154815260200160028201548152602001600382016040518060800160405290816000820160009054906101000a900460ff1660ff1660ff1681526020016000820160019054906101000a900460ff1660ff1660ff1681526020016000820160029054906101000a900460ff1660ff1660ff1681526020016000820160039054906101000a900460ff1660ff1660ff16815250508152602001600482016040518060800160405290816000820160009054906101000a900460ff1660ff1660ff1681526020016000820160019054906101000a900460ff1660ff1660ff1681526020016000820160029054906101000a900460ff1660ff1660ff1681526020016000820160039054906101000a900460ff1660ff1660ff168152505081526020016005820160009054906101000a900460ff1660ff1660ff1681526020016005820160019054906101000a900460ff1660ff1660ff1681526020016005820160029054906101000a900460ff166002811115612fa557612fa4614647565b5b6002811115612fb757612fb6614647565b5b81526020016005820160039054906101000a900460ff1615151515815250509050919050565b600044426000604051602001612ff593929190615a6c565b6040516020818303038152906040528051906020012060001c905090565b600061301e8261244d565b905061302c816000846130f9565b6001600360008373ffffffffffffffffffffffffffffffffffffffff1673ffffffffffffffffffffffffffffffffffffffff168152602001908152602001600020600082825461307c9190615059565b925050819055506002600083815260200190815260200160002060006101000a81549073ffffffffffffffffffffffffffffffffffffffff02191690557fddf252ad1be2c89b69c2b068fc378daa952ba7f163c4a11628f55a4df523b3ef816000846040516130ed93929190614d92565b60405180910390a15050565b600073ffffffffffffffffffffffffffffffffffffffff168373ffffffffffffffffffffffffffffffffffffffff16141561313357613172565b8173ffffffffffffffffffffffffffffffffffffffff168373ffffffffffffffffffffffffffffffffffffffff1614613171576131708382613722565b5b5b600073ffffffffffffffffffffffffffffffffffffffff168273ffffffffffffffffffffffffffffffffffffffff1614156131b5576131b0816138c6565b6131f4565b8273ffffffffffffffffffffffffffffffffffffffff168273ffffffffffffffffffffffffffffffffffffffff16146131f3576131f28282613e53565b5b5b505050565b613201613f37565b613209613f37565b82600561321a866000015186613f09565b6132249190615925565b61322e9190615925565b816000019060ff16908160ff168152505061324d846060015184613f09565b816060019060ff16908160ff168152505061326c846040015184613f09565b816040019060ff16908160ff168152505061328b846020015184613f09565b816020019060ff16908160ff16815250508091505092915050565b60008082600001511180156132c65750600082606001516000015160ff16115b80156132dd5750600082606001516020015160ff16115b80156132f45750600082606001516040015160ff16115b801561330b5750600082606001516060015160ff16115b80156133235750601f82608001516000015160ff1611155b801561333b5750601f82608001516020015160ff1611155b80156133535750601f82608001516040015160ff1611155b801561336b5750601f82608001516060015160ff1611155b801561337f5750600a8260a0015160ff1611155b8015613393575060008260c0015160ff1614155b61339c57600080fd5b60019050919050565b600073ffffffffffffffffffffffffffffffffffffffff168273ffffffffffffffffffffffffffffffffffffffff161415613415576040517f08c379a000000000000000000000000000000000000000000000000000000000815260040161340c90615af5565b60405180910390fd5b613421600083836130f9565b6001600360008473ffffffffffffffffffffffffffffffffffffffff1673ffffffffffffffffffffffffffffffffffffffff16815260200190815260200160002060008282546134719190614130565b92505081905550816002600083815260200190815260200160002060006101000a81548173ffffffffffffffffffffffffffffffffffffffff021916908373ffffffffffffffffffffffffffffffffffffffff1602179055507fddf252ad1be2c89b69c2b068fc378daa952ba7f163c4a11628f55a4df523b3ef600083836040516134fe93929190614d92565b60405180910390a15050565b6060806000600281111561352157613520614647565b5b83600281111561353457613533614647565b5b1415613577576040518060400160405280601b81526020017f2e2e2f7075626c69632f696d616765732f647261676f6e2e706e6700000000008152509050613648565b60028081111561358a57613589614647565b5b83600281111561359d5761359c614647565b5b14156135e0576040518060400160405280601d81526020017f2e2e2f7075626c69632f696d616765732f676172676f796c652e706e670000008152509050613647565b600160028111156135f4576135f3614647565b5b83600281111561360757613606614647565b5b1415613646576040518060400160405280601a81526020017f2e2e2f7075626c69632f696d616765732f67686f73742e706e6700000000000081525090505b5b5b80915050919050565b81600073ffffffffffffffffffffffffffffffffffffffff166002600083815260200190815260200160002060009054906101000a900473ffffffffffffffffffffffffffffffffffffffff1673ffffffffffffffffffffffffffffffffffffffff1614156136f5576040517f08c379a00000000000000000000000000000000000000000000000000000000081526004016136ec90614b8d565b60405180910390fd5b81600b6000858152602001908152602001600020908051906020019061371c929190614020565b50505050565b60006001600360008573ffffffffffffffffffffffffffffffffffffffff1673ffffffffffffffffffffffffffffffffffffffff168152602001908152602001600020546137709190615059565b90506000600a6000848152602001908152602001600020549050818114613855576000600960008673ffffffffffffffffffffffffffffffffffffffff1673ffffffffffffffffffffffffffffffffffffffff168152602001908152602001600020600084815260200190815260200160002054905080600960008773ffffffffffffffffffffffffffffffffffffffff1673ffffffffffffffffffffffffffffffffffffffff16815260200190815260200160002060008481526020019081526020016000208190555081600a600083815260200190815260200160002081905550505b600a600084815260200190815260200160002060009055600960008573ffffffffffffffffffffffffffffffffffffffff1673ffffffffffffffffffffffffffffffffffffffff16815260200190815260200160002060008381526020019081526020016000206000905550505050565b600060016007805490506138da9190615059565b905060006008600084815260200190815260200160002054905060006007838154811061390a57613909614bad565b5b906000526020600020906006020160405180610120016040529081600082015481526020016001820154815260200160028201548152602001600382016040518060800160405290816000820160009054906101000a900460ff1660ff1660ff1681526020016000820160019054906101000a900460ff1660ff1660ff1681526020016000820160029054906101000a900460ff1660ff1660ff1681526020016000820160039054906101000a900460ff1660ff1660ff16815250508152602001600482016040518060800160405290816000820160009054906101000a900460ff1660ff1660ff1681526020016000820160019054906101000a900460ff1660ff1660ff1681526020016000820160029054906101000a900460ff1660ff1660ff1681526020016000820160039054906101000a900460ff1660ff1660ff168152505081526020016005820160009054906101000a900460ff1660ff1660ff1681526020016005820160019054906101000a900460ff1660ff1660ff1681526020016005820160029054906101000a900460ff166002811115613ab157613ab0614647565b5b6002811115613ac357613ac2614647565b5b81526020016005820160039054906101000a900460ff16151515158152505090508060078381548110613af957613af8614bad565b5b906000526020600020906006020160008201518160000155602082015181600101556040820151816002015560608201518160030160008201518160000160006101000a81548160ff021916908360ff16021790555060208201518160000160016101000a81548160ff021916908360ff16021790555060408201518160000160026101000a81548160ff021916908360ff16021790555060608201518160000160036101000a81548160ff021916908360ff160217905550505060808201518160040160008201518160000160006101000a81548160ff021916908360ff16021790555060208201518160000160016101000a81548160ff021916908360ff16021790555060408201518160000160026101000a81548160ff021916908360ff16021790555060608201518160000160036101000a81548160ff021916908360ff160217905550505060a08201518160050160006101000a81548160ff021916908360ff16021790555060c08201518160050160016101000a81548160ff021916908360ff16021790555060e08201518160050160026101000a81548160ff02191690836002811115613cb057613caf614647565b5b02179055506101008201518160050160036101000a81548160ff0219169083151502179055509050508160086000836000015181526020019081526020016000208190555060086000858152602001908152602001600020600090556007805480613d1e57613d1d615b15565b5b60019003818190600052602060002090600602016000808201600090556001820160009055600282016000905560038201600080820160006101000a81549060ff02191690556000820160016101000a81549060ff02191690556000820160026101000a81549060ff02191690556000820160036101000a81549060ff0219169055505060048201600080820160006101000a81549060ff02191690556000820160016101000a81549060ff02191690556000820160026101000a81549060ff02191690556000820160036101000a81549060ff021916905550506005820160006101000a81549060ff02191690556005820160016101000a81549060ff02191690556005820160026101000a81549060ff02191690556005820160036101000a81549060ff02191690555050905550505050565b6000600360008473ffffffffffffffffffffffffffffffffffffffff1673ffffffffffffffffffffffffffffffffffffffff16815260200190815260200160002054905081600960008573ffffffffffffffffffffffffffffffffffffffff1673ffffffffffffffffffffffffffffffffffffffff16815260200190815260200160002060008381526020019081526020016000208190555080600a600084815260200190815260200160002081905550505050565b60006005600a8385613f1b919061595c565b613f259190615b44565b613f2f9190615925565b905092915050565b6040518060800160405280600060ff168152602001600060ff168152602001600060ff168152602001600060ff1681525090565b604051806101200160405280600081526020016000815260200160008152602001613f94613f37565b8152602001613fa16140a6565b8152602001600060ff168152602001600060ff16815260200160006002811115613fce57613fcd614647565b5b81526020016000151581525090565b604051806080016040528060008152602001600060ff1681526020016000600281111561400d5761400c614647565b5b815260200161401a613f37565b81525090565b82805461402c90615ba4565b90600052602060002090601f01602090048101928261404e5760008555614095565b82601f1061406757805160ff1916838001178555614095565b82800160010185558215614095579182015b82811115614094578251825591602001919060010190614079565b5b5090506140a291906140da565b5090565b6040518060800160405280600060ff168152602001600060ff168152602001600060ff168152602001600060ff1681525090565b5b808211156140f35760008160009055506001016140db565b5090565b6000819050919050565b7f4e487b7100000000000000000000000000000000000000000000000000000000600052601160045260246000fd5b600061413b826140f7565b9150614146836140f7565b9250827fffffffffffffffffffffffffffffffffffffffffffffffffffffffffffffffff0382111561417b5761417a614101565b5b828201905092915050565b600073ffffffffffffffffffffffffffffffffffffffff82169050919050565b60006141b182614186565b9050919050565b6141c1816141a6565b82525050565b6141d0816140f7565b82525050565b60006040820190506141eb60008301856141b8565b6141f860208301846141c7565b9392505050565b600060208201905061421460008301846141c7565b92915050565b6000604051905090565b600080fd5b600080fd5b614237816140f7565b811461424257600080fd5b50565b6000813590506142548161422e565b92915050565b6000602082840312156142705761426f614224565b5b600061427e84828501614245565b91505092915050565b600060ff82169050919050565b61429d81614287565b82525050565b6080820160008201516142b96000850182614294565b5060208201516142cc6020850182614294565b5060408201516142df6040850182614294565b5060608201516142f26060850182614294565b50505050565b600060808201905061430d60008301846142a3565b92915050565b61431c816141a6565b811461432757600080fd5b50565b60008135905061433981614313565b92915050565b60008060006060848603121561435857614357614224565b5b60006143668682870161432a565b93505060206143778682870161432a565b925050604061438886828701614245565b9150509250925092565b6000602082840312156143a8576143a7614224565b5b60006143b68482850161432a565b91505092915050565b600080604083850312156143d6576143d5614224565b5b60006143e485828601614245565b92505060206143f585828601614245565b9150509250929050565b600080fd5b600080fd5b6000601f19601f8301169050919050565b7f4e487b7100000000000000000000000000000000000000000000000000000000600052604160045260246000fd5b61445282614409565b810181811067ffffffffffffffff821117156144715761447061441a565b5b80604052505050565b600061448461421a565b90506144908282614449565b919050565b600067ffffffffffffffff8211156144b0576144af61441a565b5b6144b982614409565b9050602081019050919050565b82818337600083830152505050565b60006144e86144e384614495565b61447a565b90508281526020810184848401111561450457614503614404565b5b61450f8482856144c6565b509392505050565b600082601f83011261452c5761452b6143ff565b5b813561453c8482602086016144d5565b91505092915050565b60006020828403121561455b5761455a614224565b5b600082013567ffffffffffffffff81111561457957614578614229565b5b61458584828501614517565b91505092915050565b614597816140f7565b82525050565b6080820160008201516145b36000850182614294565b5060208201516145c66020850182614294565b5060408201516145d96040850182614294565b5060608201516145ec6060850182614294565b50505050565b6080820160008201516146086000850182614294565b50602082015161461b6020850182614294565b50604082015161462e6040850182614294565b5060608201516146416060850182614294565b50505050565b7f4e487b7100000000000000000000000000000000000000000000000000000000600052602160045260246000fd5b6003811061468757614686614647565b5b50565b600081905061469882614676565b919050565b60006146a88261468a565b9050919050565b6146b88161469d565b82525050565b60008115159050919050565b6146d3816146be565b82525050565b6101e0820160008201516146f0600085018261458e565b506020820151614703602085018261458e565b506040820151614716604085018261458e565b506060820151614729606085018261459d565b50608082015161473c60e08501826145f2565b5060a0820151614750610160850182614294565b5060c0820151614764610180850182614294565b5060e08201516147786101a08501826146af565b5061010082015161478d6101c08501826146ca565b50505050565b60006101e0820190506147a960008301846146d9565b92915050565b6147b881614287565b82525050565b6147c78161469d565b82525050565b600060e0820190506147e260008301876141b8565b6147ef60208301866147af565b6147fc60408301856142a3565b61480960c08301846147be565b95945050505050565b600081519050919050565b600082825260208201905092915050565b6000819050602082019050919050565b6101e082016000820151614855600085018261458e565b506020820151614868602085018261458e565b50604082015161487b604085018261458e565b50606082015161488e606085018261459d565b5060808201516148a160e08501826145f2565b5060a08201516148b5610160850182614294565b5060c08201516148c9610180850182614294565b5060e08201516148dd6101a08501826146af565b506101008201516148f26101c08501826146ca565b50505050565b6000614904838361483e565b6101e08301905092915050565b6000602082019050919050565b600061492982614812565b614933818561481d565b935061493e8361482e565b8060005b8381101561496f57815161495688826148f8565b975061496183614911565b925050600181019050614942565b5085935050505092915050565b60006020820190508181036000830152614996818461491e565b905092915050565b6149a7816146be565b81146149b257600080fd5b50565b6000813590506149c48161499e565b92915050565b600080604083850312156149e1576149e0614224565b5b60006149ef85828601614245565b9250506020614a00858286016149b5565b9150509250929050565b600081519050919050565b600082825260208201905092915050565b6000819050602082019050919050565b60e082016000820151614a4c600085018261458e565b506020820151614a5f6020850182614294565b506040820151614a7260408501826146af565b506060820151614a85606085018261459d565b50505050565b6000614a978383614a36565b60e08301905092915050565b6000602082019050919050565b6000614abb82614a0a565b614ac58185614a15565b9350614ad083614a26565b8060005b83811015614b01578151614ae88882614a8b565b9750614af383614aa3565b925050600181019050614ad4565b5085935050505092915050565b60006020820190508181036000830152614b288184614ab0565b905092915050565b600082825260208201905092915050565b7f746f6b656e20646f6573206e6f74206578697374000000000000000000000000600082015250565b6000614b77601483614b30565b9150614b8282614b41565b602082019050919050565b60006020820190508181036000830152614ba681614b6a565b9050919050565b7f4e487b7100000000000000000000000000000000000000000000000000000000600052603260045260246000fd5b7f6f6e6c79207768656e2066726f6d20697320746865206f776e6572206f66207460008201527f686973206d6f6e73746572000000000000000000000000000000000000000000602082015250565b6000614c38602b83614b30565b9150614c4382614bdc565b604082019050919050565b60006020820190508181036000830152614c6781614c2b565b9050919050565b7f6f6e6c79207472616e73666572207768656e2074686973206d6f6e737465722060008201527f6973206f6e2073616c6500000000000000000000000000000000000000000000602082015250565b6000614cca602a83614b30565b9150614cd582614c6e565b604082019050919050565b60006020820190508181036000830152614cf981614cbd565b9050919050565b7f6f6e6c79207472616e73666572207768656e2062757965722073656e6420612060008201527f7472616e73616374696f6e000000000000000000000000000000000000000000602082015250565b6000614d5c602b83614b30565b9150614d6782614d00565b604082019050919050565b60006020820190508181036000830152614d8b81614d4f565b9050919050565b6000606082019050614da760008301866141b8565b614db460208301856141b8565b614dc160408301846141c7565b949350505050565b7f6f6e6c79206f776e65722063616e2073656520746865206465706f7369740000600082015250565b6000614dff601e83614b30565b9150614e0a82614dc9565b602082019050919050565b60006020820190508181036000830152614e2e81614df2565b9050919050565b7f6465706f73697420717565727920666f7220746865207a65726f20616464726560008201527f7373000000000000000000000000000000000000000000000000000000000000602082015250565b6000614e91602283614b30565b9150614e9c82614e35565b604082019050919050565b60006020820190508181036000830152614ec081614e84565b9050919050565b7f6f6e6c79206f776e65722063616e207374617274206120666967687400000000600082015250565b6000614efd601c83614b30565b9150614f0882614ec7565b602082019050919050565b60006020820190508181036000830152614f2c81614ef0565b9050919050565b600060a082019050614f4860008301856142a3565b614f5560808301846141c7565b9392505050565b614f6581614287565b8114614f7057600080fd5b50565b600081519050614f8281614f5c565b92915050565b600060208284031215614f9e57614f9d614224565b5b6000614fac84828501614f73565b91505092915050565b614fbe816146be565b82525050565b6000604082019050614fd960008301856141c7565b614fe66020830184614fb5565b9392505050565b7f73686f756c64206861766520656e6f756768206d6f6e65790000000000000000600082015250565b6000615023601883614b30565b915061502e82614fed565b602082019050919050565b6000602082019050818103600083015261505281615016565b9050919050565b6000615064826140f7565b915061506f836140f7565b92508282101561508257615081614101565b5b828203905092915050565b600081905092915050565b7f647261676f6e0000000000000000000000000000000000000000000000000000600082015250565b60006150ce60068361508d565b91506150d982615098565b600682019050919050565b60006150ef826150c1565b9150819050919050565b600081519050919050565b60005b83811015615122578082015181840152602081019050615107565b83811115615131576000848401525b50505050565b6000615142826150f9565b61514c818561508d565b935061515c818560208601615104565b80840191505092915050565b60006151748284615137565b915081905092915050565b7f67686f7374000000000000000000000000000000000000000000000000000000600082015250565b60006151b560058361508d565b91506151c08261517f565b600582019050919050565b60006151d6826151a8565b9150819050919050565b7f676172676f796c65000000000000000000000000000000000000000000000000600082015250565b600061521660088361508d565b9150615221826151e0565b600882019050919050565b600061523782615209565b9150819050919050565b600060208201905061525660008301846141b8565b92915050565b7f6f6e6c79206f776e65722063616e20636865636b2074686569722062616c616e60008201527f6365000000000000000000000000000000000000000000000000000000000000602082015250565b60006152b8602283614b30565b91506152c38261525c565b604082019050919050565b600060208201905081810360008301526152e7816152ab565b9050919050565b60006152f9826140f7565b91507fffffffffffffffffffffffffffffffffffffffffffffffffffffffffffffffff82141561532c5761532b614101565b5b600182019050919050565b7f74776f20706c61796572732073686f756c64206861766520646966666572656e60008201527f74206f776e657273000000000000000000000000000000000000000000000000602082015250565b6000615393602883614b30565b915061539e82615337565b604082019050919050565b600060208201905081810360008301526153c281615386565b9050919050565b6000610120820190506153df60008301866142a3565b6153ec60808301856142a3565b6153fa6101008301846147af565b949350505050565b7f6f6e6c79206f776e65722063616e206c6f636b206f7220756e6c6f636b000000600082015250565b6000615438601d83614b30565b915061544382615402565b602082019050919050565b600060208201905081810360008301526154678161542b565b9050919050565b7f4e487b7100000000000000000000000000000000000000000000000000000000600052601260045260246000fd5b60006154a8826140f7565b91506154b3836140f7565b9250826154c3576154c261546e565b5b828206905092915050565b7f746865206f776e6572206f6620626f746820706172656e74732073686f756c6460008201527f206265207468652073656e646572000000000000000000000000000000000000602082015250565b600061552a602e83614b30565b9150615535826154ce565b604082019050919050565b600060208201905081810360008301526155598161551d565b9050919050565b7f73686f756c642068617665207468652073616d65207261636500000000000000600082015250565b6000615596601983614b30565b91506155a182615560565b602082019050919050565b600060208201905081810360008301526155c581615589565b9050919050565b6080820160008201516155e26000850182614294565b5060208201516155f56020850182614294565b5060408201516156086040850182614294565b50606082015161561b6060850182614294565b50505050565b60006101008201905061563760008301856155cc565b61564460808301846155cc565b9392505050565b600080fd5b6000608082840312156156665761566561564b565b5b615670608061447a565b9050600061568084828501614f73565b600083015250602061569484828501614f73565b60208301525060406156a884828501614f73565b60408301525060606156bc84828501614f73565b60608301525092915050565b6000608082840312156156de576156dd614224565b5b60006156ec84828501615650565b91505092915050565b7f6f6e6c79206f776e65722063616e2064656c6574650000000000000000000000600082015250565b600061572b601583614b30565b9150615736826156f5565b602082019050919050565b6000602082019050818103600083015261575a8161571e565b9050919050565b7f74686973206d6f6e73746572206973206c6f636b656400000000000000000000600082015250565b6000615797601683614b30565b91506157a282615761565b602082019050919050565b600060208201905081810360008301526157c68161578a565b9050919050565b7f4552433732313a207472616e736665722066726f6d20696e636f72726563742060008201527f6f776e6572000000000000000000000000000000000000000000000000000000602082015250565b6000615829602583614b30565b9150615834826157cd565b604082019050919050565b600060208201905081810360008301526158588161581c565b9050919050565b7f4552433732313a207472616e7366657220746f20746865207a65726f2061646460008201527f7265737300000000000000000000000000000000000000000000000000000000602082015250565b60006158bb602483614b30565b91506158c68261585f565b604082019050919050565b600060208201905081810360008301526158ea816158ae565b9050919050565b60006158fc82614287565b915061590783614287565b92508282101561591a57615919614101565b5b828203905092915050565b600061593082614287565b915061593b83614287565b92508260ff0382111561595157615950614101565b5b828201905092915050565b600061596782614287565b915061597283614287565b92508160ff048311821515161561598c5761598b614101565b5b828202905092915050565b7f7468697320696e64657820657863656564000000000000000000000000000000600082015250565b60006159cd601183614b30565b91506159d882615997565b602082019050919050565b600060208201905081810360008301526159fc816159c0565b9050919050565b6000819050919050565b615a1e615a19826140f7565b615a03565b82525050565b60008160601b9050919050565b6000615a3c82615a24565b9050919050565b6000615a4e82615a31565b9050919050565b615a66615a61826141a6565b615a43565b82525050565b6000615a788286615a0d565b602082019150615a888285615a0d565b602082019150615a988284615a55565b601482019150819050949350505050565b7f4552433732313a206d696e7420746f20746865207a65726f2061646472657373600082015250565b6000615adf602083614b30565b9150615aea82615aa9565b602082019050919050565b60006020820190508181036000830152615b0e81615ad2565b9050919050565b7f4e487b7100000000000000000000000000000000000000000000000000000000600052603160045260246000fd5b6000615b4f82614287565b9150615b5a83614287565b925082615b6a57615b6961546e565b5b828204905092915050565b7f4e487b7100000000000000000000000000000000000000000000000000000000600052602260045260246000fd5b60006002820490506001821680615bbc57607f821691505b60208210811415615bd057615bcf615b75565b5b5091905056fea26469706673582212204e20452c0c3fc9ae868da4d73f02b34c6d192f5f9ab62db14475dadbf5ff700464736f6c63430008090033",
  "immutableReferences": {},
  "source": "//SPDX-License-Identifier: UNLICENSED\r\npragma solidity ^0.8.9;\r\n\r\nimport \"../node_modules/@openzeppelin/contracts/token/ERC721/extensions/ERC721URIStorage.sol\";\r\nimport \"../node_modules/@openzeppelin/contracts/utils/Address.sol\";\r\nimport \"../node_modules/@openzeppelin/contracts/utils/Context.sol\";\r\nimport \"../node_modules/@openzeppelin/contracts/utils/Strings.sol\";\r\nimport \"./MonsterLib.sol\";\r\nimport \"./MonsterFactory.sol\";\r\nimport \"./MonsterBattle.sol\";\r\n\r\ncontract MonsterToken {\r\n\r\n    MonsterFactory _monsterFactory;\r\n    MonsterBattle _monsterBattle;\r\n     \r\n    using Address for address;\r\n    using Strings for uint256;\r\n\r\n    event TransferMoney(address, address, uint);\r\n    event LockMonster(uint, bool);\r\n    event MonsterInMarket(uint);\r\n    event DifferentRace(MonsterLib.Race, MonsterLib.Race);\r\n    event Transfer(address, address, uint256);\r\n    event ReadyToCreate(address);\r\n    event Win(uint,bool);\r\n\r\n    struct Competitor{\r\n        uint256 tokenId;\r\n        uint8 level;\r\n        MonsterLib.Race race;\r\n        MonsterLib.Statistics statc;\r\n    }\r\n\r\n    string constant imagePath = \"../public/images/\";\r\n\r\n    event ReceiveEth(address from, uint256 amount);\r\n\r\n    // Mapping from token ID to owner address\r\n    mapping(uint256 => address) private _owners;\r\n\r\n    // Mapping owner address to token count\r\n    mapping(address => uint256) private _balances;\r\n    \r\n    \r\n    // Mapping owner address to ETH balance\r\n    mapping(address => uint) private _deposit;\r\n\r\n    // Mapping from token ID to approved address\r\n    mapping(uint256 => address) private _tokenApprovals;\r\n\r\n    // Mapping from owner to operator approvals\r\n    mapping(address => mapping(address => bool)) private _operatorApprovals;\r\n\r\n    // Array with all token ids, used for enumeration\r\n    MonsterLib.Monster[] private _allMonsters;\r\n\r\n    // Mapping from token id to position in the allTokens array\r\n    mapping(uint256 => uint256) private _allTokensIndex;\r\n\r\n    // Mapping from owner to list of owned token IDs\r\n    mapping(address => mapping(uint256 => uint256)) private _ownedTokens;\r\n\r\n    // Mapping from token ID to index of the owner tokens list\r\n    mapping(uint256 => uint256) private _ownedTokensIndex;\r\n\r\n    // Optional mapping for token URIs\r\n    mapping(uint256 => string) private _tokenURIs;\r\n\r\n    //True when some one storing their new monsters\r\n    bool isPushing;\r\n\r\n    uint256 private IdCount;\r\n\r\n    uint256 private createFee;\r\n\r\n    bool HasBattle;\r\n\r\n    MonsterLib.IndividualValue initialIV = MonsterLib.IndividualValue(5,5,5,5);\r\n\r\n    constructor(address _monsterFactoryAddress, address _monsterBattleAddress) {\r\n        require(_monsterBattleAddress != address(0) && _monsterFactoryAddress != address(0));\r\n        IdCount = 1;\r\n        isPushing = false;\r\n        _setContract(_monsterFactoryAddress, _monsterBattleAddress);\r\n        createFee = 2 ether;\r\n        HasBattle = false;\r\n    }\r\n\r\n    function _setContract(address _monsterFactoryAddress, address _monsterBattleAddress) internal {\r\n        _monsterFactory = MonsterFactory(_monsterFactoryAddress);\r\n        _monsterBattle = MonsterBattle(_monsterBattleAddress);\r\n    }\r\n\r\n    modifier tokenExist(uint256 _tokenId){\r\n        require(_owners[_tokenId] != address(0),\"token does not exist\");\r\n        _;\r\n    }\r\n\r\n\r\n\r\n    function depositOf(address owner) public view returns (uint256){\r\n        require(owner == tx.origin,\"only owner can see the deposit\");\r\n        require(owner != address(0), \"deposit query for the zero address\");\r\n        return _deposit[owner];\r\n    }\r\n\r\n    function totalSupply() public view returns (uint256){\r\n        return _allMonsters.length;\r\n    }\r\n    /**\r\n     *@dev Pay ETH to get a default monster from contract\r\n     */\r\n    function getInitialMonster(string memory race) public payable{\r\n        _deposit[msg.sender] += msg.value;\r\n        require(_deposit[msg.sender] >= createFee, \"should have enough money\");\r\n        _deposit[msg.sender] -= createFee;\r\n        MonsterLib.Race _race;\r\n        if(keccak256(abi.encodePacked(race)) == keccak256(abi.encodePacked('dragon'))) _race = MonsterLib.Race.DRAGON;\r\n        else if(keccak256(abi.encodePacked(race)) == keccak256(abi.encodePacked('ghost'))) _race = MonsterLib.Race.GHOST;\r\n        else if(keccak256(abi.encodePacked(race)) == keccak256(abi.encodePacked('gargoyle'))) _race = MonsterLib.Race.GARGOYLE;\r\n        else {revert();}\r\n        emit ReadyToCreate(msg.sender);\r\n        _createNewMonster(msg.sender, 0, 0,initialIV, _race);\r\n\r\n    }\r\n\r\n    /**\r\n     *@dev create a new monster from contract, this monter can be default monster or come from breeding\r\n     */\r\n\r\n    function _createNewMonster(address to, uint256 mumId, uint256 dadId, MonsterLib.IndividualValue memory iv, MonsterLib.Race race) internal {\r\n        \r\n        \r\n        uint256 _monsterId = IdCount;\r\n        IdCount ++;\r\n        MonsterLib.Statistics memory statc = MonsterLib._calculateStatc(iv, 1);\r\n        MonsterLib.Monster memory monster = MonsterLib.Monster(_monsterId, mumId, dadId, statc, iv, 1, 1*10, race,false);\r\n        require(MonsterLib._checkMonsterValid(monster));\r\n        uint256 _monsterIndex = totalSupply() ;\r\n        _allMonsters.push(monster);\r\n        _allTokensIndex[_monsterId] = _monsterIndex;\r\n        _mint(to, _monsterId);\r\n        string memory _monsterURI = _monsterURIByRace(monster.race);\r\n        require (bytes(_monsterURI).length != 0);\r\n        _setTokenURI(_monsterId, _monsterURI);\r\n    }\r\n\r\n    /**\r\n     * @dev Mints `tokenId` and transfers it to `to`.\r\n     *\r\n     * WARNING: Usage of this method is discouraged, use {_safeMint} whenever possible\r\n     *\r\n     * Requirements:\r\n     *\r\n     * - `tokenId` must not exist.\r\n     * - `to` cannot be the zero address.\r\n     *\r\n     * Emits a {Transfer} event.\r\n     */\r\n    function _mint(address to, uint256 tokenId)  internal virtual {\r\n        require(to != address(0), \"ERC721: mint to the zero address\");\r\n\r\n        _beforeTokenTransfer(address(0), to, tokenId);\r\n\r\n        _balances[to] += 1;\r\n        _owners[tokenId] = to;\r\n\r\n        emit Transfer(address(0), to, tokenId);\r\n    }\r\n\r\n    function _setTokenURI(uint256 _monsterId, string memory _monsterURI) tokenExist(_monsterId) internal {\r\n        _tokenURIs[_monsterId] = _monsterURI;\r\n    }\r\n\r\n\r\n\r\n        /**\r\n     * @dev Hook that is called before any token transfer. This includes minting\r\n     * and burning.\r\n     *\r\n     * Calling conditions:\r\n     *\r\n     * - When `from` and `to` are both non-zero, ``from``'s `tokenId` will be\r\n     * transferred to `to`.\r\n     * - When `from` is zero, `tokenId` will be minted for `to`.\r\n     * - When `to` is zero, ``from``'s `tokenId` will be burned.\r\n     * - `from` cannot be the zero address.\r\n     * - `to` cannot be the zero address.\r\n     *\r\n     * To learn more about hooks, head to xref:ROOT:extending-contracts.adoc#using-hooks[Using Hooks].\r\n     */\r\n    function _beforeTokenTransfer(\r\n        address from,\r\n        address to,\r\n        uint256 tokenId\r\n    ) internal {\r\n\r\n        if (from == address(0)) {\r\n            //This monster has been added before\r\n        } else if (from != to) {\r\n            _removeMonsterFromOwnerEnumeration(from, tokenId);\r\n        }\r\n        if (to == address(0)) {\r\n            _removeMonsterFromAllTokensEnumeration(tokenId);\r\n        } else if (to != from) {\r\n            _addMonsterToOwnerEnumeration(to, tokenId);\r\n        }\r\n    }    \r\n    /**\r\n     * @dev Private function to remove a token from this extension's ownership-tracking data structures. Note that\r\n     * while the token is not assigned a new owner, the `_ownedTokensIndex` mapping is _not_ updated: this allows for\r\n     * gas optimizations e.g. when performing a transfer operation (avoiding double writes).\r\n     * This has O(1) time complexity, but alters the order of the _ownedTokens array.\r\n     * @param from address representing the previous owner of the given token ID\r\n     * @param tokenId uint256 ID of the token to be removed from the tokens list of the given address\r\n     */\r\n    function _removeMonsterFromOwnerEnumeration(address from, uint256 tokenId) internal {\r\n        // To prevent a gap in from's tokens array, we store the last token in the index of the token to delete, and\r\n        // then delete the last slot (swap and pop).\r\n\r\n        uint256 lastTokenIndex = _balances[from] - 1;\r\n        uint256 tokenIndex = _ownedTokensIndex[tokenId];\r\n\r\n        // When the token to delete is the last token, the swap operation is unnecessary\r\n        if (tokenIndex != lastTokenIndex) {\r\n            uint256 lastTokenId = _ownedTokens[from][lastTokenIndex];\r\n\r\n            _ownedTokens[from][tokenIndex] = lastTokenId; // Move the last token to the slot of the to-delete token\r\n            _ownedTokensIndex[lastTokenId] = tokenIndex; // Update the moved token's index\r\n        }\r\n\r\n        // This also deletes the contents at the last position of the array\r\n        delete _ownedTokensIndex[tokenId];\r\n        delete _ownedTokens[from][lastTokenIndex];\r\n    }\r\n\r\n    /**\r\n     * @dev Private function to remove a token from this extension's token tracking data structures.\r\n     * This has O(1) time complexity, but alters the order of the _allTokens array.\r\n     * @param tokenId uint256 ID of the token to be removed from the tokens list\r\n     */\r\n    function _removeMonsterFromAllTokensEnumeration(uint256 tokenId) internal  {\r\n        // To prevent a gap in the tokens array, we store the last token in the index of the token to delete, and\r\n        // then delete the last slot (swap and pop).\r\n\r\n        uint256 lastTokenIndex = _allMonsters.length - 1;\r\n        uint256 tokenIndex = _allTokensIndex[tokenId];\r\n\r\n        // When the token to delete is the last token, the swap operation is unnecessary. However, since this occurs so\r\n        // rarely (when the last minted token is burnt) that we still do the swap here to avoid the gas cost of adding\r\n        // an 'if' statement (like in _removeTokenFromOwnerEnumeration)\r\n        MonsterLib.Monster memory lastMonster = _allMonsters[lastTokenIndex];\r\n\r\n        _allMonsters[tokenIndex] = lastMonster; // Move the last token to the slot of the to-delete token\r\n        _allTokensIndex[lastMonster.tokenId] = tokenIndex; // Update the moved token's index\r\n\r\n        // This also deletes the contents at the last position of the array\r\n        delete _allTokensIndex[tokenId];\r\n        _allMonsters.pop();\r\n    }\r\n\r\n    /**\r\n     * @dev Private function to add a token to this extension's ownership-tracking data structures.\r\n     * @param to address representing the new owner of the given token ID\r\n     * @param tokenId uint256 ID of the token to be added to the tokens list of the given address\r\n     */\r\n    function _addMonsterToOwnerEnumeration(address to, uint256 tokenId) internal{\r\n        uint256 length = _balances[to];\r\n        _ownedTokens[to][length] = tokenId;\r\n        _ownedTokensIndex[tokenId] = length;\r\n    }\r\n\r\n    function balanceOf(address _owner) public view returns(uint256 balance){\r\n        require(_owner == msg.sender, \"only owner can check their balance\");\r\n        balance = _balances[_owner];\r\n    }\r\n\r\n\r\n\r\n\r\n    function _monsterURIByRace(MonsterLib.Race _race) internal pure returns(string memory){\r\n        string memory _monsterURI;\r\n        if(_race == MonsterLib.Race.DRAGON) _monsterURI =\"../public/images/dragon.png\" ;\r\n        else if(_race == MonsterLib.Race.GARGOYLE) _monsterURI =\"../public/images/gargoyle.png\";\r\n        else if (_race == MonsterLib.Race.GHOST) _monsterURI =\"../public/images/ghost.png\";\r\n        return _monsterURI;\r\n    }\r\n    \r\n    receive() external payable{\r\n        _deposit[msg.sender] += msg.value;\r\n        emit ReceiveEth(msg.sender, msg.value);\r\n\r\n    }\r\n\r\n    /**\r\n     * Used for buyer want to check more detailed information in the market\r\n     */\r\n     function getStatics(uint256 _tokenId) public view tokenExist(_tokenId) returns(MonsterLib.Statistics memory){\r\n         uint256 _tokenIndex = _allTokensIndex[_tokenId];\r\n        return _allMonsters[_tokenIndex].statc;\r\n\r\n     }\r\n\r\n     /**\r\n      * \r\n      */\r\n    function getProductInfo(uint256 _tokenId) public view tokenExist(_tokenId) returns(address, uint8, MonsterLib.Statistics memory, MonsterLib.Race){\r\n        uint256 _tokenIndex = _allTokensIndex[_tokenId];\r\n        MonsterLib.Monster memory monster = _allMonsters[_tokenIndex];\r\n        address owner = ownerOf(_tokenId);\r\n        return (owner, monster.level, monster.statc,monster.race);\r\n    }\r\n\r\n    function ownerOf(uint256 _tokenId) internal tokenExist(_tokenId) view returns(address owner){\r\n        owner = _owners[_tokenId];\r\n    }\r\n\r\n    function monsterById(uint256 _tokenId) public view tokenExist(_tokenId) returns (MonsterLib.Monster memory){\r\n        uint256 _tokenIndex = _allTokensIndex[_tokenId];\r\n        return _allMonsters[_tokenIndex];\r\n    }\r\n\r\n    function _monsterByIndex(uint256 _tokenIndex) internal view returns (MonsterLib.Monster memory){\r\n        require(_tokenIndex < totalSupply() , \"this index exceed\");\r\n        return _allMonsters[_tokenIndex];\r\n    }\r\n\r\n    function _updateExp(uint256 _tokenId, uint8 exp) internal tokenExist(_tokenId){\r\n        uint256 _tokenIndex = _allTokensIndex[_tokenId];\r\n        MonsterLib.Monster storage monster = _allMonsters[_tokenIndex];\r\n        if(monster.expNeedToNext > exp) monster.expNeedToNext -= exp;\r\n        else{\r\n            if(monster.level < 10){\r\n                monster.level += 1;\r\n                monster.expNeedToNext = monster.level * 10 - (exp -  monster.expNeedToNext);\r\n                MonsterLib.Statistics memory _newStatc = MonsterLib._calculateStatc(monster.iv, monster.level);\r\n                monster.statc = _newStatc;\r\n            }\r\n        }\r\n\r\n    }\r\n\r\n    function transferMoney(address _from, address _to, uint _value) external {\r\n        require(tx.origin == _from);\r\n        require(_to != address(0) && _from != address(0));\r\n        _deposit[_from] -= _value;\r\n        _deposit[_to] += _value;\r\n        emit TransferMoney(_from, _to, _value);\r\n    }\r\n\r\n    function transferFrom(address _from, address _to,uint _tokenId) public{\r\n        require(ownerOf(_tokenId) == _from, \"only when from is the owner of this monster\");\r\n        require (monsterById(_tokenId).isLocked, \"only transfer when this monster is on sale\");\r\n        require( tx.origin == _to, \"only transfer when buyer send a transaction\");\r\n        _transfer(_from, _to, _tokenId);\r\n        lockMonster(_tokenId, false);\r\n        emit Transfer(_from, _to, _tokenId);\r\n    }\r\n    \r\n    /**\r\n     * @dev Transfers `tokenId` from `from` to `to`.\r\n     *  As opposed to {transferFrom}, this imposes no restrictions on msg.sender.\r\n     *\r\n     * Requirements:\r\n     *\r\n     * - `to` cannot be the zero address.\r\n     * - `tokenId` token must be owned by `from`.\r\n     *\r\n     * Emits a {Transfer} event.\r\n     */\r\n    function _transfer(\r\n        address from,\r\n        address to,\r\n        uint256 tokenId\r\n    ) internal {\r\n        require(ownerOf(tokenId) == from, \"ERC721: transfer from incorrect owner\");\r\n        require(to != address(0), \"ERC721: transfer to the zero address\");\r\n\r\n        _beforeTokenTransfer(from, to, tokenId);\r\n\r\n        _balances[from] -= 1;\r\n        _balances[to] += 1;\r\n        _owners[tokenId] = to;\r\n        lockMonster(tokenId, false);\r\n        emit Transfer(from, to, tokenId);\r\n    }\r\n\r\n    function lockMonster(uint _tokenId, bool _locked) public {\r\n        require(tx.origin == ownerOf(_tokenId), \"only owner can lock or unlock\");\r\n        _allMonsters[_allTokensIndex[_tokenId]].isLocked = _locked;\r\n        emit LockMonster(_tokenId,_locked);\r\n    }\r\n\r\n    function getOwnedMonster() public view returns (MonsterLib.Monster[] memory monsters) {\r\n        uint _ownedCount = balanceOf(msg.sender);\r\n        if(_ownedCount != 0){\r\n            monsters = new MonsterLib.Monster[](_ownedCount);\r\n            for(uint i = 0; i < _ownedCount; i++){\r\n                monsters[i] = monsterById(_ownedTokens[msg.sender][i]);\r\n            }\r\n        }\r\n        else monsters = new MonsterLib.Monster[](0);\r\n\r\n    }\r\n\r\n\r\n    function deleteMonster(uint _monsterId) public {\r\n        require(msg.sender == ownerOf(_monsterId),\"only owner can delete\");\r\n        require(!monsterById(_monsterId).isLocked,\"this monster is locked\");\r\n        _burn(_monsterId);\r\n    }\r\n\r\n        /**\r\n     * @dev Destroys `tokenId`.\r\n     * The approval is cleared when the token is burned.\r\n     *\r\n     * Requirements:\r\n     *\r\n     * - `tokenId` must exist.\r\n     *\r\n     * Emits a {Transfer} event.\r\n     */\r\n    function _burn(uint256 tokenId) internal {\r\n        address owner = ownerOf(tokenId);\r\n\r\n        _beforeTokenTransfer(owner, address(0), tokenId);\r\n\r\n        _balances[owner] -= 1;\r\n        delete _owners[tokenId];\r\n\r\n        emit Transfer(owner, address(0), tokenId);\r\n    }\r\n\r\n    function breed(uint _mumId, uint _dadId) payable public {\r\n        require(ownerOf(_mumId) == msg.sender && ownerOf(_dadId) == msg.sender, \"the owner of both parents should be the sender\");\r\n        uint256 _depo = depositOf(msg.sender);         \r\n        require(msg.value + _depo >= createFee, \"should have enough money\");\r\n        MonsterLib.Monster memory _mum = monsterById(_mumId);\r\n        MonsterLib.Monster memory _dad = monsterById(_dadId);\r\n        require(_mum.race == _dad.race,\"should have the same race\");\r\n        _deposit[msg.sender] += msg.value;\r\n        _deposit[msg.sender] -= createFee;\r\n        MonsterLib.IndividualValue memory _childIv = _monsterFactory.getChild(_mum.iv, _dad.iv);\r\n        _createNewMonster(msg.sender, _mumId, _dadId, _childIv, _dad.race);\r\n    \r\n\r\n    }\r\n\r\n    /**\r\n     * @dev Pick five competitors randomly from existing monsters\r\n     * Cannot pick those monster whose owner is msg.sender\r\n     */\r\n    function pickCompetitionRandomly() public view returns (Competitor[] memory competitors){\r\n        uint _monsterCount = totalSupply();\r\n        MonsterLib.Monster memory _currentMonster;\r\n        uint _leftMonster = _monsterCount - balanceOf(msg.sender);\r\n        if( _leftMonster <= 5){\r\n            competitors = new Competitor[](_leftMonster);\r\n            uint _pickedCount = 0;\r\n            for(uint i = 0; i < _monsterCount; i++){\r\n                _currentMonster = _monsterByIndex(i);\r\n                if(ownerOf(_currentMonster.tokenId) != msg.sender){\r\n                    competitors[_pickedCount] = Competitor(_currentMonster.tokenId, _currentMonster.level, _currentMonster.race, _currentMonster.statc);\r\n                    _pickedCount ++;\r\n                }\r\n            }\r\n        }\r\n        else{\r\n            competitors = new Competitor[](5);\r\n            uint _pickedCount = 0;\r\n            uint _startIndex;\r\n            uint _leastStartIndex = _monsterCount;\r\n            while(_pickedCount < 5){\r\n                _startIndex = MonsterLib._random() % _leastStartIndex;\r\n                if(_startIndex < _leastStartIndex){\r\n                    for(uint i = _startIndex; i < _leastStartIndex; i++){\r\n                        _currentMonster = _monsterByIndex(i);\r\n                        if(ownerOf(_currentMonster.tokenId) != msg.sender){\r\n                            competitors[_pickedCount] = Competitor(_currentMonster.tokenId, _currentMonster.level, _currentMonster.race, _currentMonster.statc);\r\n                            _pickedCount ++;\r\n                        }\r\n                    }   \r\n                _leastStartIndex = _startIndex;\r\n                }\r\n\r\n            }\r\n        }\r\n        return competitors;\r\n\r\n    }\r\n\r\n    function battleWithPlayer(uint _player1Id, uint _player2Id) public{\r\n        require(ownerOf(_player1Id) == msg.sender, \"only owner can start a fight\");\r\n        require(ownerOf(_player1Id) != ownerOf(_player2Id), \"two players should have different owners\");\r\n        MonsterLib.Monster memory _player1 = monsterById(_player1Id);\r\n        MonsterLib.Monster memory _player2 = monsterById(_player2Id);\r\n        uint8 exp = _monsterBattle.battleWithPlayer(_player1.statc, _player2.statc, _player2.level);\r\n        _updateExp(_player1Id, exp);\r\n        if(exp>0) emit Win(_player1Id,true);\r\n        else emit Win(_player1Id,false);\r\n    }\r\n\r\n    function battleWithDefault(uint _playerId, uint _defaultId) public{\r\n        require(ownerOf(_playerId) == msg.sender, \"only owner can start a fight\");\r\n        uint256 _tokenIndex = _allTokensIndex[_playerId];\r\n\r\n        MonsterLib.Monster memory monster = _allMonsters[_tokenIndex];\r\n        uint8 exp = _monsterBattle.battleWithDefaultMonster(monster.statc, _defaultId);\r\n        _updateExp(_playerId, exp);    \r\n        if(exp>0) emit Win(_playerId,true);\r\n        else emit Win(_playerId,false);      \r\n\r\n    }\r\n\r\n    function withdraw() public {\r\n        if(_deposit[msg.sender] > 0){\r\n            uint amount = _deposit[msg.sender];\r\n            _deposit[msg.sender] = 0;\r\n            payable (msg.sender).transfer(amount);\r\n        }\r\n    }\r\n\r\n\r\n\r\n\r\n\r\n\r\n    \r\n}",
  "sourcePath": "D:\\GitHub\\monster\\contracts\\MonsterToken.sol",
  "compiler": {
    "name": "solc",
    "version": "0.8.9+commit.e5eed63a.Emscripten.clang"
  },
  "schemaVersion": "3.4.7",
  "updatedAt": "2022-05-25T11:16:15.258Z",
  "networkType": "ethereum",
  "devdoc": {
    "kind": "dev",
    "methods": {
      "getInitialMonster(string)": {
        "details": "Pay ETH to get a default monster from contract"
      },
      "pickCompetitionRandomly()": {
        "details": "Pick five competitors randomly from existing monsters Cannot pick those monster whose owner is msg.sender"
      }
    },
    "version": 1
  },
  "userdoc": {
    "kind": "user",
    "methods": {
      "getStatics(uint256)": {
        "notice": "Used for buyer want to check more detailed information in the market"
      }
    },
    "version": 1
  }
}