{
  "contractName": "MonsterFactory",
  "abi": [
    {
      "inputs": [],
      "stateMutability": "nonpayable",
      "type": "constructor"
    },
    {
      "anonymous": false,
      "inputs": [
        {
          "indexed": true,
          "internalType": "address",
          "name": "owner",
          "type": "address"
        },
        {
          "indexed": true,
          "internalType": "address",
          "name": "approved",
          "type": "address"
        },
        {
          "indexed": true,
          "internalType": "uint256",
          "name": "tokenId",
          "type": "uint256"
        }
      ],
      "name": "Approval",
      "type": "event"
    },
    {
      "anonymous": false,
      "inputs": [
        {
          "indexed": true,
          "internalType": "address",
          "name": "owner",
          "type": "address"
        },
        {
          "indexed": true,
          "internalType": "address",
          "name": "operator",
          "type": "address"
        },
        {
          "indexed": false,
          "internalType": "bool",
          "name": "approved",
          "type": "bool"
        }
      ],
      "name": "ApprovalForAll",
      "type": "event"
    },
    {
      "anonymous": false,
      "inputs": [
        {
          "indexed": false,
          "internalType": "bool",
          "name": "",
          "type": "bool"
        }
      ],
      "name": "Fighter1Win",
      "type": "event"
    },
    {
      "anonymous": false,
      "inputs": [
        {
          "components": [
            {
              "internalType": "uint8",
              "name": "HP",
              "type": "uint8"
            },
            {
              "internalType": "uint8",
              "name": "strength",
              "type": "uint8"
            },
            {
              "internalType": "uint8",
              "name": "defensive",
              "type": "uint8"
            },
            {
              "internalType": "uint8",
              "name": "speed",
              "type": "uint8"
            }
          ],
          "indexed": false,
          "internalType": "struct MonsterLib.Statistics",
          "name": "",
          "type": "tuple"
        },
        {
          "components": [
            {
              "internalType": "uint8",
              "name": "HP",
              "type": "uint8"
            },
            {
              "internalType": "uint8",
              "name": "strength",
              "type": "uint8"
            },
            {
              "internalType": "uint8",
              "name": "defensive",
              "type": "uint8"
            },
            {
              "internalType": "uint8",
              "name": "speed",
              "type": "uint8"
            }
          ],
          "indexed": false,
          "internalType": "struct MonsterLib.Statistics",
          "name": "",
          "type": "tuple"
        }
      ],
      "name": "LevelUp",
      "type": "event"
    },
    {
      "anonymous": false,
      "inputs": [
        {
          "indexed": false,
          "internalType": "address",
          "name": "from",
          "type": "address"
        },
        {
          "indexed": false,
          "internalType": "uint256",
          "name": "amount",
          "type": "uint256"
        }
      ],
      "name": "ReceiveEth",
      "type": "event"
    },
    {
      "anonymous": false,
      "inputs": [
        {
          "indexed": true,
          "internalType": "address",
          "name": "from",
          "type": "address"
        },
        {
          "indexed": true,
          "internalType": "address",
          "name": "to",
          "type": "address"
        },
        {
          "indexed": true,
          "internalType": "uint256",
          "name": "tokenId",
          "type": "uint256"
        }
      ],
      "name": "Transfer",
      "type": "event"
    },
    {
      "anonymous": false,
      "inputs": [
        {
          "indexed": false,
          "internalType": "address",
          "name": "",
          "type": "address"
        },
        {
          "indexed": false,
          "internalType": "address",
          "name": "",
          "type": "address"
        },
        {
          "indexed": false,
          "internalType": "uint256",
          "name": "",
          "type": "uint256"
        }
      ],
      "name": "TransferMoney",
      "type": "event"
    },
    {
      "inputs": [
        {
          "internalType": "address",
          "name": "to",
          "type": "address"
        },
        {
          "internalType": "uint256",
          "name": "tokenId",
          "type": "uint256"
        }
      ],
      "name": "approve",
      "outputs": [],
      "stateMutability": "nonpayable",
      "type": "function"
    },
    {
      "inputs": [
        {
          "internalType": "address",
          "name": "owner",
          "type": "address"
        }
      ],
      "name": "balanceOf",
      "outputs": [
        {
          "internalType": "uint256",
          "name": "",
          "type": "uint256"
        }
      ],
      "stateMutability": "view",
      "type": "function",
      "constant": true
    },
    {
      "inputs": [
        {
          "internalType": "address",
          "name": "owner",
          "type": "address"
        }
      ],
      "name": "depositOf",
      "outputs": [
        {
          "internalType": "uint256",
          "name": "",
          "type": "uint256"
        }
      ],
      "stateMutability": "view",
      "type": "function",
      "constant": true
    },
    {
      "inputs": [
        {
          "internalType": "uint256",
          "name": "tokenId",
          "type": "uint256"
        }
      ],
      "name": "getApproved",
      "outputs": [
        {
          "internalType": "address",
          "name": "",
          "type": "address"
        }
      ],
      "stateMutability": "view",
      "type": "function",
      "constant": true
    },
    {
      "inputs": [
        {
          "internalType": "enum MonsterLib.Race",
          "name": "race",
          "type": "uint8"
        }
      ],
      "name": "getInitialMonster",
      "outputs": [],
      "stateMutability": "nonpayable",
      "type": "function"
    },
    {
      "inputs": [
        {
          "internalType": "uint256",
          "name": "_tokenId",
          "type": "uint256"
        }
      ],
      "name": "getProductInfo",
      "outputs": [
        {
          "internalType": "address",
          "name": "",
          "type": "address"
        },
        {
          "internalType": "uint8",
          "name": "",
          "type": "uint8"
        },
        {
          "components": [
            {
              "internalType": "uint8",
              "name": "HP",
              "type": "uint8"
            },
            {
              "internalType": "uint8",
              "name": "strength",
              "type": "uint8"
            },
            {
              "internalType": "uint8",
              "name": "defensive",
              "type": "uint8"
            },
            {
              "internalType": "uint8",
              "name": "speed",
              "type": "uint8"
            }
          ],
          "internalType": "struct MonsterLib.Statistics",
          "name": "",
          "type": "tuple"
        },
        {
          "internalType": "enum MonsterLib.Race",
          "name": "",
          "type": "uint8"
        }
      ],
      "stateMutability": "view",
      "type": "function",
      "constant": true
    },
    {
      "inputs": [
        {
          "internalType": "uint256",
          "name": "_tokenId",
          "type": "uint256"
        }
      ],
      "name": "getStatics",
      "outputs": [
        {
          "components": [
            {
              "internalType": "uint8",
              "name": "HP",
              "type": "uint8"
            },
            {
              "internalType": "uint8",
              "name": "strength",
              "type": "uint8"
            },
            {
              "internalType": "uint8",
              "name": "defensive",
              "type": "uint8"
            },
            {
              "internalType": "uint8",
              "name": "speed",
              "type": "uint8"
            }
          ],
          "internalType": "struct MonsterLib.Statistics",
          "name": "",
          "type": "tuple"
        }
      ],
      "stateMutability": "view",
      "type": "function",
      "constant": true
    },
    {
      "inputs": [
        {
          "internalType": "address",
          "name": "owner",
          "type": "address"
        },
        {
          "internalType": "address",
          "name": "operator",
          "type": "address"
        }
      ],
      "name": "isApprovedForAll",
      "outputs": [
        {
          "internalType": "bool",
          "name": "",
          "type": "bool"
        }
      ],
      "stateMutability": "view",
      "type": "function",
      "constant": true
    },
    {
      "inputs": [
        {
          "internalType": "uint256",
          "name": "_tokenId",
          "type": "uint256"
        }
      ],
      "name": "monsterById",
      "outputs": [
        {
          "components": [
            {
              "internalType": "uint256",
              "name": "tokenId",
              "type": "uint256"
            },
            {
              "internalType": "uint256",
              "name": "mumId",
              "type": "uint256"
            },
            {
              "internalType": "uint256",
              "name": "dadId",
              "type": "uint256"
            },
            {
              "components": [
                {
                  "internalType": "uint8",
                  "name": "HP",
                  "type": "uint8"
                },
                {
                  "internalType": "uint8",
                  "name": "strength",
                  "type": "uint8"
                },
                {
                  "internalType": "uint8",
                  "name": "defensive",
                  "type": "uint8"
                },
                {
                  "internalType": "uint8",
                  "name": "speed",
                  "type": "uint8"
                }
              ],
              "internalType": "struct MonsterLib.Statistics",
              "name": "statc",
              "type": "tuple"
            },
            {
              "components": [
                {
                  "internalType": "uint8",
                  "name": "HP",
                  "type": "uint8"
                },
                {
                  "internalType": "uint8",
                  "name": "strength",
                  "type": "uint8"
                },
                {
                  "internalType": "uint8",
                  "name": "defensive",
                  "type": "uint8"
                },
                {
                  "internalType": "uint8",
                  "name": "speed",
                  "type": "uint8"
                }
              ],
              "internalType": "struct MonsterLib.IndividualValue",
              "name": "iv",
              "type": "tuple"
            },
            {
              "internalType": "uint8",
              "name": "level",
              "type": "uint8"
            },
            {
              "internalType": "uint8",
              "name": "expNeedToNext",
              "type": "uint8"
            },
            {
              "internalType": "enum MonsterLib.Race",
              "name": "race",
              "type": "uint8"
            }
          ],
          "internalType": "struct MonsterLib.Monster",
          "name": "",
          "type": "tuple"
        }
      ],
      "stateMutability": "view",
      "type": "function",
      "constant": true
    },
    {
      "inputs": [],
      "name": "name",
      "outputs": [
        {
          "internalType": "string",
          "name": "",
          "type": "string"
        }
      ],
      "stateMutability": "view",
      "type": "function",
      "constant": true
    },
    {
      "inputs": [
        {
          "internalType": "uint256",
          "name": "tokenId",
          "type": "uint256"
        }
      ],
      "name": "ownerOf",
      "outputs": [
        {
          "internalType": "address",
          "name": "",
          "type": "address"
        }
      ],
      "stateMutability": "view",
      "type": "function",
      "constant": true
    },
    {
      "inputs": [
        {
          "internalType": "address",
          "name": "from",
          "type": "address"
        },
        {
          "internalType": "address",
          "name": "to",
          "type": "address"
        },
        {
          "internalType": "uint256",
          "name": "tokenId",
          "type": "uint256"
        }
      ],
      "name": "safeTransferFrom",
      "outputs": [],
      "stateMutability": "nonpayable",
      "type": "function"
    },
    {
      "inputs": [
        {
          "internalType": "address",
          "name": "from",
          "type": "address"
        },
        {
          "internalType": "address",
          "name": "to",
          "type": "address"
        },
        {
          "internalType": "uint256",
          "name": "tokenId",
          "type": "uint256"
        },
        {
          "internalType": "bytes",
          "name": "_data",
          "type": "bytes"
        }
      ],
      "name": "safeTransferFrom",
      "outputs": [],
      "stateMutability": "nonpayable",
      "type": "function"
    },
    {
      "inputs": [
        {
          "internalType": "address",
          "name": "operator",
          "type": "address"
        },
        {
          "internalType": "bool",
          "name": "approved",
          "type": "bool"
        }
      ],
      "name": "setApprovalForAll",
      "outputs": [],
      "stateMutability": "nonpayable",
      "type": "function"
    },
    {
      "inputs": [
        {
          "internalType": "uint256",
          "name": "_tokenId",
          "type": "uint256"
        },
        {
          "internalType": "bool",
          "name": "_ready",
          "type": "bool"
        }
      ],
      "name": "setReadyToSell",
      "outputs": [],
      "stateMutability": "nonpayable",
      "type": "function"
    },
    {
      "inputs": [
        {
          "internalType": "bytes4",
          "name": "interfaceId",
          "type": "bytes4"
        }
      ],
      "name": "supportsInterface",
      "outputs": [
        {
          "internalType": "bool",
          "name": "",
          "type": "bool"
        }
      ],
      "stateMutability": "view",
      "type": "function",
      "constant": true
    },
    {
      "inputs": [],
      "name": "symbol",
      "outputs": [
        {
          "internalType": "string",
          "name": "",
          "type": "string"
        }
      ],
      "stateMutability": "view",
      "type": "function",
      "constant": true
    },
    {
      "inputs": [
        {
          "internalType": "uint256",
          "name": "tokenId",
          "type": "uint256"
        }
      ],
      "name": "tokenURI",
      "outputs": [
        {
          "internalType": "string",
          "name": "",
          "type": "string"
        }
      ],
      "stateMutability": "view",
      "type": "function",
      "constant": true
    },
    {
      "inputs": [],
      "name": "totalSupply",
      "outputs": [
        {
          "internalType": "uint256",
          "name": "",
          "type": "uint256"
        }
      ],
      "stateMutability": "view",
      "type": "function",
      "constant": true
    },
    {
      "inputs": [
        {
          "internalType": "address",
          "name": "_from",
          "type": "address"
        },
        {
          "internalType": "address",
          "name": "_to",
          "type": "address"
        },
        {
          "internalType": "uint256",
          "name": "_tokenId",
          "type": "uint256"
        }
      ],
      "name": "transferFrom",
      "outputs": [],
      "stateMutability": "nonpayable",
      "type": "function"
    },
    {
      "inputs": [
        {
          "internalType": "address",
          "name": "_from",
          "type": "address"
        },
        {
          "internalType": "address",
          "name": "_to",
          "type": "address"
        },
        {
          "internalType": "uint256",
          "name": "_value",
          "type": "uint256"
        }
      ],
      "name": "transferMoney",
      "outputs": [],
      "stateMutability": "nonpayable",
      "type": "function"
    },
    {
      "stateMutability": "payable",
      "type": "receive",
      "payable": true
    },
    {
      "inputs": [
        {
          "internalType": "uint256",
          "name": "_mumId",
          "type": "uint256"
        },
        {
          "internalType": "uint256",
          "name": "_dadId",
          "type": "uint256"
        }
      ],
      "name": "getChild",
      "outputs": [],
      "stateMutability": "nonpayable",
      "type": "function"
    },
    {
      "inputs": [],
      "name": "pickCompetitionRandomly",
      "outputs": [
        {
          "components": [
            {
              "internalType": "uint256",
              "name": "tokenId",
              "type": "uint256"
            },
            {
              "internalType": "uint8",
              "name": "level",
              "type": "uint8"
            },
            {
              "internalType": "enum MonsterLib.Race",
              "name": "race",
              "type": "uint8"
            },
            {
              "components": [
                {
                  "internalType": "uint8",
                  "name": "HP",
                  "type": "uint8"
                },
                {
                  "internalType": "uint8",
                  "name": "strength",
                  "type": "uint8"
                },
                {
                  "internalType": "uint8",
                  "name": "defensive",
                  "type": "uint8"
                },
                {
                  "internalType": "uint8",
                  "name": "speed",
                  "type": "uint8"
                }
              ],
              "internalType": "struct MonsterLib.Statistics",
              "name": "statc",
              "type": "tuple"
            }
          ],
          "internalType": "struct MonsterFactory.Competitor[]",
          "name": "",
          "type": "tuple[]"
        }
      ],
      "stateMutability": "view",
      "type": "function",
      "constant": true
    },
    {
      "inputs": [
        {
          "internalType": "uint256",
          "name": "_tokenId1",
          "type": "uint256"
        },
        {
          "internalType": "uint256",
          "name": "_tokenId2",
          "type": "uint256"
        }
      ],
      "name": "battleWithPlayer",
      "outputs": [
        {
          "internalType": "bool",
          "name": "",
          "type": "bool"
        }
      ],
      "stateMutability": "nonpayable",
      "type": "function"
    },
    {
      "inputs": [
        {
          "internalType": "uint256",
          "name": "_tokenId",
          "type": "uint256"
        },
        {
          "internalType": "uint256",
          "name": "_defaultMonsterId",
          "type": "uint256"
        }
      ],
      "name": "battleWithDefaultMonster",
      "outputs": [
        {
          "internalType": "bool",
          "name": "",
          "type": "bool"
        }
      ],
      "stateMutability": "nonpayable",
      "type": "function"
    }
  ],
  "bytecode": "0x60806040526040518060800160405280600560ff168152602001600560ff168152602001600560ff168152602001600560ff16815250601260008201518160000160006101000a81548160ff021916908360ff16021790555060208201518160000160016101000a81548160ff021916908360ff16021790555060408201518160000160026101000a81548160ff021916908360ff16021790555060608201518160000160036101000a81548160ff021916908360ff1602179055505050348015620000ca57600080fd5b506040518060400160405280600d81526020017f4d6f6e7374657220546f6b656e000000000000000000000000000000000000008152506040518060400160405280600781526020017f4d4f4e535445520000000000000000000000000000000000000000000000000081525081600090805190602001906200014f9291906200042e565b508060019080519060200190620001689291906200042e565b50505060016010819055506000600f60006101000a81548160ff02191690831515021790555060136040518060800160405280600b60ff168152602001600560ff168152602001600560ff168152602001600560ff168152509080600181540180825580915050600190039060005260206000200160009091909190915060008201518160000160006101000a81548160ff021916908360ff16021790555060208201518160000160016101000a81548160ff021916908360ff16021790555060408201518160000160026101000a81548160ff021916908360ff16021790555060608201518160000160036101000a81548160ff021916908360ff160217905550505060136040518060800160405280601160ff168152602001600760ff168152602001600760ff168152602001600760ff168152509080600181540180825580915050600190039060005260206000200160009091909190915060008201518160000160006101000a81548160ff021916908360ff16021790555060208201518160000160016101000a81548160ff021916908360ff16021790555060408201518160000160026101000a81548160ff021916908360ff16021790555060608201518160000160036101000a81548160ff021916908360ff160217905550505060136040518060800160405280601960ff168152602001600f60ff168152602001600f60ff168152602001600f60ff168152509080600181540180825580915050600190039060005260206000200160009091909190915060008201518160000160006101000a81548160ff021916908360ff16021790555060208201518160000160016101000a81548160ff021916908360ff16021790555060408201518160000160026101000a81548160ff021916908360ff16021790555060608201518160000160036101000a81548160ff021916908360ff160217905550505062000543565b8280546200043c906200050d565b90600052602060002090601f016020900481019282620004605760008555620004ac565b82601f106200047b57805160ff1916838001178555620004ac565b82800160010185558215620004ac579182015b82811115620004ab5782518255916020019190600101906200048e565b5b509050620004bb9190620004bf565b5090565b5b80821115620004da576000816000905550600101620004c0565b5090565b7f4e487b7100000000000000000000000000000000000000000000000000000000600052602260045260246000fd5b600060028204905060018216806200052657607f821691505b602082108114156200053d576200053c620004de565b5b50919050565b615c1480620005536000396000f3fe60806040526004361061016a5760003560e01c80636410381c116100d1578063b88d4fde1161008a578063c87b56dd11610064578063c87b56dd14610633578063ccd1a9e914610670578063dff0bdaf1461069b578063e985e9c5146106c457610200565b8063b88d4fde146105a4578063b954803e146105cd578063c3cfcdc8146105f657610200565b80636410381c1461048157806370a08231146104aa57806379a85e6c146104e757806395d89b4114610527578063a22cb46514610552578063b6db669d1461057b57610200565b806323b872dd1161012357806323b872dd1461033b57806323e3fbd514610364578063368fabdf146103a1578063422666a7146103de57806342842e0e1461041b5780636352211e1461044457610200565b806301ffc9a71461020557806306fdde0314610242578063081812fc1461026d578063095ea7b3146102aa57806318160ddd146102d35780631dddf164146102fe57610200565b366102005734600860003373ffffffffffffffffffffffffffffffffffffffff1673ffffffffffffffffffffffffffffffffffffffff16815260200190815260200160002060008282546101be9190614268565b925050819055507fefc0288202e432ade6bf71491d0001d7e389ad4f8e4e9c7aa038dd1a563efc6033346040516101f692919061430e565b60405180910390a1005b600080fd5b34801561021157600080fd5b5061022c600480360381019061022791906143a3565b610701565b60405161023991906143eb565b60405180910390f35b34801561024e57600080fd5b506102576107e3565b604051610264919061449f565b60405180910390f35b34801561027957600080fd5b50610294600480360381019061028f91906144ed565b610875565b6040516102a1919061451a565b60405180910390f35b3480156102b657600080fd5b506102d160048036038101906102cc9190614561565b6108fa565b005b3480156102df57600080fd5b506102e8610a12565b6040516102f591906145a1565b60405180910390f35b34801561030a57600080fd5b50610325600480360381019061032091906144ed565b610a1f565b604051610332919061462d565b60405180910390f35b34801561034757600080fd5b50610362600480360381019061035d9190614648565b610aff565b005b34801561037057600080fd5b5061038b6004803603810190610386919061469b565b610bb0565b60405161039891906145a1565b60405180910390f35b3480156103ad57600080fd5b506103c860048036038101906103c391906146c8565b610ca1565b6040516103d591906143eb565b60405180910390f35b3480156103ea57600080fd5b50610405600480360381019061040091906144ed565b610e6f565b60405161041291906148dd565b60405180910390f35b34801561042757600080fd5b50610442600480360381019061043d9190614648565b61107c565b005b34801561045057600080fd5b5061046b600480360381019061046691906144ed565b61109c565b604051610478919061451a565b60405180910390f35b34801561048d57600080fd5b506104a860048036038101906104a39190614648565b61114e565b005b3480156104b657600080fd5b506104d160048036038101906104cc919061469b565b6112e5565b6040516104de91906145a1565b60405180910390f35b3480156104f357600080fd5b5061050e600480360381019061050991906144ed565b61139d565b60405161051e9493929190614917565b60405180910390f35b34801561053357600080fd5b5061053c6115da565b604051610549919061449f565b60405180910390f35b34801561055e57600080fd5b5061057960048036038101906105749190614988565b61166c565b005b34801561058757600080fd5b506105a2600480360381019061059d91906146c8565b611682565b005b3480156105b057600080fd5b506105cb60048036038101906105c69190614afd565b6117f6565b005b3480156105d957600080fd5b506105f460048036038101906105ef9190614b80565b611858565b005b34801561060257600080fd5b5061061d600480360381019061061891906146c8565b6118c7565b60405161062a91906143eb565b60405180910390f35b34801561063f57600080fd5b5061065a600480360381019061065591906144ed565b6119ff565b604051610667919061449f565b60405180910390f35b34801561067c57600080fd5b50610685611b51565b6040516106929190614cc4565b60405180910390f35b3480156106a757600080fd5b506106c260048036038101906106bd9190614d0b565b611dab565b005b3480156106d057600080fd5b506106eb60048036038101906106e69190614d38565b611e3c565b6040516106f891906143eb565b60405180910390f35b60007f80ac58cd000000000000000000000000000000000000000000000000000000007bffffffffffffffffffffffffffffffffffffffffffffffffffffffff1916827bffffffffffffffffffffffffffffffffffffffffffffffffffffffff191614806107cc57507f5b5e139f000000000000000000000000000000000000000000000000000000007bffffffffffffffffffffffffffffffffffffffffffffffffffffffff1916827bffffffffffffffffffffffffffffffffffffffffffffffffffffffff1916145b806107dc57506107db82611ed0565b5b9050919050565b6060600080546107f290614da7565b80601f016020809104026020016040519081016040528092919081815260200182805461081e90614da7565b801561086b5780601f106108405761010080835404028352916020019161086b565b820191906000526020600020905b81548152906001019060200180831161084e57829003601f168201915b5050505050905090565b600061088082611f3a565b6108bf576040517f08c379a00000000000000000000000000000000000000000000000000000000081526004016108b690614e4b565b60405180910390fd5b6004600083815260200190815260200160002060009054906101000a900473ffffffffffffffffffffffffffffffffffffffff169050919050565b60006109058261109c565b90508073ffffffffffffffffffffffffffffffffffffffff168373ffffffffffffffffffffffffffffffffffffffff161415610976576040517f08c379a000000000000000000000000000000000000000000000000000000000815260040161096d90614edd565b60405180910390fd5b8073ffffffffffffffffffffffffffffffffffffffff16610995611fa6565b73ffffffffffffffffffffffffffffffffffffffff1614806109c457506109c3816109be611fa6565b611e3c565b5b610a03576040517f08c379a00000000000000000000000000000000000000000000000000000000081526004016109fa90614f6f565b60405180910390fd5b610a0d8383611fae565b505050565b6000600b80549050905090565b610a276140bb565b81610a3181611f3a565b610a3a57600080fd5b6000600c6000858152602001908152602001600020549050600b8181548110610a6657610a65614f8f565b5b90600052602060002090600602016003016040518060800160405290816000820160009054906101000a900460ff1660ff1660ff1681526020016000820160019054906101000a900460ff1660ff1660ff1681526020016000820160029054906101000a900460ff1660ff1660ff1681526020016000820160039054906101000a900460ff1660ff1660ff168152505092505050919050565b8273ffffffffffffffffffffffffffffffffffffffff16610b1f8261109c565b73ffffffffffffffffffffffffffffffffffffffff1614610b3f57600080fd5b6007600082815260200190815260200160002060009054906101000a900460ff168015610b9757508173ffffffffffffffffffffffffffffffffffffffff163273ffffffffffffffffffffffffffffffffffffffff16145b610ba057600080fd5b610bab838383612067565b505050565b60003273ffffffffffffffffffffffffffffffffffffffff168273ffffffffffffffffffffffffffffffffffffffff1614610bea57600080fd5b600073ffffffffffffffffffffffffffffffffffffffff168273ffffffffffffffffffffffffffffffffffffffff161415610c5a576040517f08c379a0000000000000000000000000000000000000000000000000000000008152600401610c5190615030565b60405180910390fd5b600860008373ffffffffffffffffffffffffffffffffffffffff1673ffffffffffffffffffffffffffffffffffffffff168152602001908152602001600020549050919050565b60006013805490508210610cb457600080fd5b6000610cbf84610e6f565b9050600060138481548110610cd757610cd6614f8f565b5b906000526020600020016040518060800160405290816000820160009054906101000a900460ff1660ff1660ff1681526020016000820160019054906101000a900460ff1660ff1660ff1681526020016000820160029054906101000a900460ff1660ff1660ff1681526020016000820160039054906101000a900460ff1660ff1660ff16815250509050600060018260400151846060015160200151610d7e919061507f565b610d8891906150b0565b60ff169050600060018460600151604001518460200151610da9919061507f565b610db391906150b0565b60ff1690506000604051806060016040528086606001516000015160ff16815260200184815260200186606001516060015160ff16815250905060006040518060600160405280866000015160ff168152602001848152602001866060015160ff1681525090506000610e2683836122ce565b90507fcb7bec6f116bdb9b315c4606e0388c4df5473616b6ab01c15bd612cdcf5d9a8781604051610e5791906143eb565b60405180910390a18097505050505050505092915050565b610e776140ef565b81610e8181611f3a565b610e8a57600080fd5b6000600c6000858152602001908152602001600020549050600b8181548110610eb657610eb5614f8f565b5b906000526020600020906006020160405180610100016040529081600082015481526020016001820154815260200160028201548152602001600382016040518060800160405290816000820160009054906101000a900460ff1660ff1660ff1681526020016000820160019054906101000a900460ff1660ff1660ff1681526020016000820160029054906101000a900460ff1660ff1660ff1681526020016000820160039054906101000a900460ff1660ff1660ff16815250508152602001600482016040518060800160405290816000820160009054906101000a900460ff1660ff1660ff1681526020016000820160019054906101000a900460ff1660ff1660ff1681526020016000820160029054906101000a900460ff1660ff1660ff1681526020016000820160039054906101000a900460ff1660ff1660ff168152505081526020016005820160009054906101000a900460ff1660ff1660ff1681526020016005820160019054906101000a900460ff1660ff1660ff1681526020016005820160029054906101000a900460ff16600281111561105d5761105c6147c1565b5b600281111561106f5761106e6147c1565b5b8152505092505050919050565b611097838383604051806020016040528060008152506117f6565b505050565b6000806002600084815260200190815260200160002060009054906101000a900473ffffffffffffffffffffffffffffffffffffffff169050600073ffffffffffffffffffffffffffffffffffffffff168173ffffffffffffffffffffffffffffffffffffffff161415611145576040517f08c379a000000000000000000000000000000000000000000000000000000000815260040161113c90615159565b60405180910390fd5b80915050919050565b8273ffffffffffffffffffffffffffffffffffffffff163273ffffffffffffffffffffffffffffffffffffffff161461118657600080fd5b600073ffffffffffffffffffffffffffffffffffffffff168273ffffffffffffffffffffffffffffffffffffffff16141580156111f05750600073ffffffffffffffffffffffffffffffffffffffff168373ffffffffffffffffffffffffffffffffffffffff1614155b6111f957600080fd5b80600860008573ffffffffffffffffffffffffffffffffffffffff1673ffffffffffffffffffffffffffffffffffffffff16815260200190815260200160002060008282546112489190615179565b9250508190555080600860008473ffffffffffffffffffffffffffffffffffffffff1673ffffffffffffffffffffffffffffffffffffffff168152602001908152602001600020600082825461129e9190614268565b925050819055507fb900e832b6eff259cf1fd6d12898306d28460d412e04f398c1a74a2af60130138383836040516112d8939291906151ad565b60405180910390a1505050565b60008073ffffffffffffffffffffffffffffffffffffffff168273ffffffffffffffffffffffffffffffffffffffff161415611356576040517f08c379a000000000000000000000000000000000000000000000000000000000815260040161134d90615256565b60405180910390fd5b600360008373ffffffffffffffffffffffffffffffffffffffff1673ffffffffffffffffffffffffffffffffffffffff168152602001908152602001600020549050919050565b6000806113a86140bb565b6000846113b481611f3a565b6113bd57600080fd5b6000600c60008881526020019081526020016000205490506000600b82815481106113eb576113ea614f8f565b5b906000526020600020906006020160405180610100016040529081600082015481526020016001820154815260200160028201548152602001600382016040518060800160405290816000820160009054906101000a900460ff1660ff1660ff1681526020016000820160019054906101000a900460ff1660ff1660ff1681526020016000820160029054906101000a900460ff1660ff1660ff1681526020016000820160039054906101000a900460ff1660ff1660ff16815250508152602001600482016040518060800160405290816000820160009054906101000a900460ff1660ff1660ff1681526020016000820160019054906101000a900460ff1660ff1660ff1681526020016000820160029054906101000a900460ff1660ff1660ff1681526020016000820160039054906101000a900460ff1660ff1660ff168152505081526020016005820160009054906101000a900460ff1660ff1660ff1681526020016005820160019054906101000a900460ff1660ff1660ff1681526020016005820160029054906101000a900460ff166002811115611592576115916147c1565b5b60028111156115a4576115a36147c1565b5b81525050905060006115b58961109c565b9050808260a0015183606001518460e001519750975097509750505050509193509193565b6060600180546115e990614da7565b80601f016020809104026020016040519081016040528092919081815260200182805461161590614da7565b80156116625780601f1061163757610100808354040283529160200191611662565b820191906000526020600020905b81548152906001019060200180831161164557829003601f168201915b5050505050905090565b61167e611677611fa6565b83836123d0565b5050565b818161168d8261109c565b73ffffffffffffffffffffffffffffffffffffffff163373ffffffffffffffffffffffffffffffffffffffff16146116c457600080fd5b6116cd8261109c565b73ffffffffffffffffffffffffffffffffffffffff163373ffffffffffffffffffffffffffffffffffffffff161461170457600080fd5b600073ffffffffffffffffffffffffffffffffffffffff163373ffffffffffffffffffffffffffffffffffffffff16141561173e57600080fd5b600061174985610e6f565b9050600061175685610e6f565b90508060e00151600281111561176f5761176e6147c1565b5b8260e001516002811115611786576117856147c1565b5b146117c6576040517f08c379a00000000000000000000000000000000000000000000000000000000081526004016117bd906152c2565b60405180910390fd5b60006117da8360800151836080015161253d565b90506117ed338888848760e001516126f0565b50505050505050565b611807611801611fa6565b83612a4d565b611846576040517f08c379a000000000000000000000000000000000000000000000000000000000815260040161183d90615354565b60405180910390fd5b61185284848484612b2b565b50505050565b6118618261109c565b73ffffffffffffffffffffffffffffffffffffffff163273ffffffffffffffffffffffffffffffffffffffff161461189857600080fd5b806007600084815260200190815260200160002060006101000a81548160ff0219169083151502179055505050565b6000806118d384610e6f565b905060006118e084610e6f565b905060006001826060015160400151846060015160200151611902919061507f565b61190c91906150b0565b60ff16905060006001846060015160400151846060015160200151611931919061507f565b61193b91906150b0565b60ff1690506000604051806060016040528086606001516000015160ff16815260200184815260200186606001516060015160ff1681525090506000604051806060016040528086606001516000015160ff16815260200184815260200186606001516060015160ff16815250905060006119b683836122ce565b90507fcb7bec6f116bdb9b315c4606e0388c4df5473616b6ab01c15bd612cdcf5d9a87816040516119e791906143eb565b60405180910390a18097505050505050505092915050565b6060611a0a82611f3a565b611a49576040517f08c379a0000000000000000000000000000000000000000000000000000000008152600401611a40906153e6565b60405180910390fd5b6000600660008481526020019081526020016000208054611a6990614da7565b80601f0160208091040260200160405190810160405280929190818152602001828054611a9590614da7565b8015611ae25780601f10611ab757610100808354040283529160200191611ae2565b820191906000526020600020905b815481529060010190602001808311611ac557829003601f168201915b505050505090506000611af3612b87565b9050600081511415611b09578192505050611b4c565b600082511115611b3e578082604051602001611b26929190615442565b60405160208183030381529060405292505050611b4c565b611b4784612b9e565b925050505b919050565b60606000611b5d610a12565b90506060611b696140ef565b6005611b74336112e5565b84611b7f9190615179565b11611c67576000805b84811015611c6057611b9985612c45565b92503373ffffffffffffffffffffffffffffffffffffffff16611bbf846000015161109c565b73ffffffffffffffffffffffffffffffffffffffff1614611c4d576040518060800160405280846000015181526020018460a0015160ff1681526020018460e001516002811115611c1357611c126147c1565b5b81526020018460600151815250848381518110611c3357611c32614f8f565b5b60200260200101819052508180611c4990615466565b9250505b8080611c5890615466565b915050611b88565b5050611da2565b60606000806000905060005b868451108015611c84575060058651105b15611d9d5786611c92612e44565b611c9c91906154af565b9250611ca783612c45565b9450611cb38484612e7a565b611d98573373ffffffffffffffffffffffffffffffffffffffff16611cdb866000015161109c565b73ffffffffffffffffffffffffffffffffffffffff1614611d69576040518060800160405280866000015181526020018660a0015160ff1681526020018660e001516002811115611d2f57611d2e6147c1565b5b81526020018660600151815250868381518110611d4f57611d4e614f8f565b5b60200260200101819052508180611d6590615466565b9250505b82848281518110611d7d57611d7c614f8f565b5b6020026020010181815250508080611d9490615466565b9150505b611c73565b505050505b81935050505090565b611e393360008060126040518060800160405290816000820160009054906101000a900460ff1660ff1660ff1681526020016000820160019054906101000a900460ff1660ff1660ff1681526020016000820160029054906101000a900460ff1660ff1660ff1681526020016000820160039054906101000a900460ff1660ff1660ff1681525050856126f0565b50565b6000600560008473ffffffffffffffffffffffffffffffffffffffff1673ffffffffffffffffffffffffffffffffffffffff16815260200190815260200160002060008373ffffffffffffffffffffffffffffffffffffffff1673ffffffffffffffffffffffffffffffffffffffff16815260200190815260200160002060009054906101000a900460ff16905092915050565b60007f01ffc9a7000000000000000000000000000000000000000000000000000000007bffffffffffffffffffffffffffffffffffffffffffffffffffffffff1916827bffffffffffffffffffffffffffffffffffffffffffffffffffffffff1916149050919050565b60008073ffffffffffffffffffffffffffffffffffffffff166002600084815260200190815260200160002060009054906101000a900473ffffffffffffffffffffffffffffffffffffffff1673ffffffffffffffffffffffffffffffffffffffff1614159050919050565b600033905090565b816004600083815260200190815260200160002060006101000a81548173ffffffffffffffffffffffffffffffffffffffff021916908373ffffffffffffffffffffffffffffffffffffffff160217905550808273ffffffffffffffffffffffffffffffffffffffff166120218361109c565b73ffffffffffffffffffffffffffffffffffffffff167f8c5be1e5ebec7d5bd14f71427d1e84f3dd0314c0f7b2291e5b200ac8c7c3b92560405160405180910390a45050565b8273ffffffffffffffffffffffffffffffffffffffff166120878261109c565b73ffffffffffffffffffffffffffffffffffffffff16146120dd576040517f08c379a00000000000000000000000000000000000000000000000000000000081526004016120d490615552565b60405180910390fd5b600073ffffffffffffffffffffffffffffffffffffffff168273ffffffffffffffffffffffffffffffffffffffff16141561214d576040517f08c379a0000000000000000000000000000000000000000000000000000000008152600401612144906155e4565b60405180910390fd5b612158838383612ed6565b612163600082611fae565b6001600360008573ffffffffffffffffffffffffffffffffffffffff1673ffffffffffffffffffffffffffffffffffffffff16815260200190815260200160002060008282546121b39190615179565b925050819055506001600360008473ffffffffffffffffffffffffffffffffffffffff1673ffffffffffffffffffffffffffffffffffffffff168152602001908152602001600020600082825461220a9190614268565b92505081905550816002600083815260200190815260200160002060006101000a81548173ffffffffffffffffffffffffffffffffffffffff021916908373ffffffffffffffffffffffffffffffffffffffff160217905550808273ffffffffffffffffffffffffffffffffffffffff168473ffffffffffffffffffffffffffffffffffffffff167fddf252ad1be2c89b69c2b068fc378daa952ba7f163c4a11628f55a4df523b3ef60405160405180910390a46122c9838383612fe1565b505050565b60008083602001516001856020015185600001516122ec9190614268565b6122f69190615179565b6123009190615604565b90506000836020015160018560200151876000015161231f9190614268565b6123299190615179565b6123339190615604565b90506000846040015186604001511115612350576001905061239b565b846040015186604001511015612369576000905061239a565b60006002612375612e44565b61237f91906154af565b905060008114156123935760019150612398565b600091505b505b5b818311156123af57600093505050506123ca565b818310156123c357600193505050506123ca565b8093505050505b92915050565b8173ffffffffffffffffffffffffffffffffffffffff168373ffffffffffffffffffffffffffffffffffffffff16141561243f576040517f08c379a000000000000000000000000000000000000000000000000000000000815260040161243690615681565b60405180910390fd5b80600560008573ffffffffffffffffffffffffffffffffffffffff1673ffffffffffffffffffffffffffffffffffffffff16815260200190815260200160002060008473ffffffffffffffffffffffffffffffffffffffff1673ffffffffffffffffffffffffffffffffffffffff16815260200190815260200160002060006101000a81548160ff0219169083151502179055508173ffffffffffffffffffffffffffffffffffffffff168373ffffffffffffffffffffffffffffffffffffffff167f17307eab39ab6107e8899845ad3d59bd9653f200f220920489ca2b5937696c318360405161253091906143eb565b60405180910390a3505050565b612545614158565b600060039050612553614158565b6000808360ff161461259e5761257186600001518660000151612fe6565b836000018193508260ff1660ff1681525050508015612599578280612595906156a1565b9350505b6125b8565b6125a6613039565b826000019060ff16908160ff16815250505b60008360ff1614612602576125d586602001518660200151612fe6565b836020018193508260ff1660ff16815250505080156125fd5782806125f9906156a1565b9350505b61261c565b61260a613039565b826020019060ff16908160ff16815250505b60008360ff16146126665761263986604001518660400151612fe6565b836040018193508260ff1660ff168152505050801561266157828061265d906156a1565b9350505b612680565b61266e613039565b826040019060ff16908160ff16815250505b60008360ff16146126ca5761269d86606001518660600151612fe6565b836060018193508260ff1660ff16815250505080156126c55782806126c1906156a1565b9350505b6126e4565b6126d2613039565b826060019060ff16908160ff16815250505b81935050505092915050565b60006126fb86610bb0565b9050601154813461270c9190614268565b101561271757600080fd5b5b600f60009054906101000a900460ff161561273257612718565b6001600f60006101000a81548160ff02191690831515021790555060006001612759610a12565b6127639190615179565b9050600060105490506000612779866001613054565b905060006040518061010001604052808481526020018a8152602001898152602001838152602001888152602001600160ff168152602001600a60ff1681526020018760028111156127ce576127cd6147c1565b5b81525090506127dc81613101565b6127e557600080fd5b600b81908060018154018082558091505060019003906000526020600020906006020160009091909190915060008201518160000155602082015181600101556040820151816002015560608201518160030160008201518160000160006101000a81548160ff021916908360ff16021790555060208201518160000160016101000a81548160ff021916908360ff16021790555060408201518160000160026101000a81548160ff021916908360ff16021790555060608201518160000160036101000a81548160ff021916908360ff160217905550505060808201518160040160008201518160000160006101000a81548160ff021916908360ff16021790555060208201518160000160016101000a81548160ff021916908360ff16021790555060408201518160000160026101000a81548160ff021916908360ff16021790555060608201518160000160036101000a81548160ff021916908360ff160217905550505060a08201518160050160006101000a81548160ff021916908360ff16021790555060c08201518160050160016101000a81548160ff021916908360ff16021790555060e08201518160050160026101000a81548160ff021916908360028111156129ba576129b96147c1565b5b02179055505050601060008154809291906129d490615466565b91905055506000600f60006101000a81548160ff02191690831515021790555083600c600085815260200190815260200160002081905550612a168a84613200565b6000612a258260e0015161321e565b9050600081511415612a3657600080fd5b612a408482613365565b5050505050505050505050565b6000612a5882611f3a565b612a97576040517f08c379a0000000000000000000000000000000000000000000000000000000008152600401612a8e9061573d565b60405180910390fd5b6000612aa28361109c565b90508073ffffffffffffffffffffffffffffffffffffffff168473ffffffffffffffffffffffffffffffffffffffff161480612ae45750612ae38185611e3c565b5b80612b2257508373ffffffffffffffffffffffffffffffffffffffff16612b0a84610875565b73ffffffffffffffffffffffffffffffffffffffff16145b91505092915050565b612b36848484612067565b612b42848484846133d9565b612b81576040517f08c379a0000000000000000000000000000000000000000000000000000000008152600401612b78906157cf565b60405180910390fd5b50505050565b606060405180602001604052806000815250905090565b6060612ba982611f3a565b612be8576040517f08c379a0000000000000000000000000000000000000000000000000000000008152600401612bdf90615861565b60405180910390fd5b6000612bf2612b87565b90506000815111612c125760405180602001604052806000815250612c3d565b80612c1c84613570565b604051602001612c2d929190615442565b6040516020818303038152906040525b915050919050565b612c4d6140ef565b6001612c57610a12565b612c619190615179565b8210612c6c57600080fd5b600b8281548110612c8057612c7f614f8f565b5b906000526020600020906006020160405180610100016040529081600082015481526020016001820154815260200160028201548152602001600382016040518060800160405290816000820160009054906101000a900460ff1660ff1660ff1681526020016000820160019054906101000a900460ff1660ff1660ff1681526020016000820160029054906101000a900460ff1660ff1660ff1681526020016000820160039054906101000a900460ff1660ff1660ff16815250508152602001600482016040518060800160405290816000820160009054906101000a900460ff1660ff1660ff1681526020016000820160019054906101000a900460ff1660ff1660ff1681526020016000820160029054906101000a900460ff1660ff1660ff1681526020016000820160039054906101000a900460ff1660ff1660ff168152505081526020016005820160009054906101000a900460ff1660ff1660ff1681526020016005820160019054906101000a900460ff1660ff1660ff1681526020016005820160029054906101000a900460ff166002811115612e2757612e266147c1565b5b6002811115612e3957612e386147c1565b5b815250509050919050565b600044426000604051602001612e5c939291906158ea565b6040516020818303038152906040528051906020012060001c905090565b600080600090505b8351811015612eca5782848281518110612e9f57612e9e614f8f565b5b60200260200101511415612eb7576001915050612ed0565b8080612ec290615466565b915050612e82565b50600090505b92915050565b612ee18383836136d1565b600073ffffffffffffffffffffffffffffffffffffffff168373ffffffffffffffffffffffffffffffffffffffff161415612f1b57612f5a565b8173ffffffffffffffffffffffffffffffffffffffff168373ffffffffffffffffffffffffffffffffffffffff1614612f5957612f5883826136d6565b5b5b600073ffffffffffffffffffffffffffffffffffffffff168273ffffffffffffffffffffffffffffffffffffffff161415612f9d57612f9881613843565b612fdc565b8273ffffffffffffffffffffffffffffffffffffffff168273ffffffffffffffffffffffffffffffffffffffff1614612fdb57612fda8282613d80565b5b5b505050565b505050565b6000806000806002612ff6612e44565b61300091906154af565b141561301f57600190506130148585613dff565b819250925050613032565b6000905061302b613039565b8192509250505b9250929050565b60006020613045612e44565b61304f91906154af565b905090565b61305c6140bb565b6130646140bb565b826005613075866000015186613e35565b61307f91906150b0565b61308991906150b0565b816000019060ff16908160ff16815250506130a8846060015184613e35565b816060019060ff16908160ff16815250506130c7846040015184613e35565b816040019060ff16908160ff16815250506130e6846020015184613e35565b816020019060ff16908160ff16815250508091505092915050565b60008082600001511180156131215750600082606001516000015160ff16115b80156131385750600082606001516020015160ff16115b801561314f5750600082606001516040015160ff16115b80156131665750600082606001516060015160ff16115b801561317e5750601f82608001516000015160ff1611155b80156131965750601f82608001516020015160ff1611155b80156131ae5750601f82608001516040015160ff1611155b80156131c65750601f82608001516060015160ff1611155b80156131da5750601f8260a0015160ff1611155b80156131ee575060008260c0015160ff1614155b6131f757600080fd5b60019050919050565b61321a828260405180602001604052806000815250613e63565b5050565b60608060006002811115613235576132346147c1565b5b836002811115613248576132476147c1565b5b141561328b576040518060400160405280601b81526020017f2e2e2f7075626c69632f696d616765732f647261676f6e2e706e670000000000815250905061335c565b60028081111561329e5761329d6147c1565b5b8360028111156132b1576132b06147c1565b5b14156132f4576040518060400160405280601d81526020017f2e2e2f7075626c69632f696d616765732f676172676f796c652e706e67000000815250905061335b565b60016002811115613308576133076147c1565b5b83600281111561331b5761331a6147c1565b5b141561335a576040518060400160405280601a81526020017f2e2e2f7075626c69632f696d616765732f67686f73742e706e6700000000000081525090505b5b5b80915050919050565b61336e82611f3a565b6133ad576040517f08c379a00000000000000000000000000000000000000000000000000000000081526004016133a490615999565b60405180910390fd5b806006600084815260200190815260200160002090805190602001906133d492919061418c565b505050565b60006133fa8473ffffffffffffffffffffffffffffffffffffffff16613ebe565b15613563578373ffffffffffffffffffffffffffffffffffffffff1663150b7a02613423611fa6565b8786866040518563ffffffff1660e01b81526004016134459493929190615a0e565b602060405180830381600087803b15801561345f57600080fd5b505af192505050801561349057506040513d601f19601f8201168201806040525081019061348d9190615a6f565b60015b613513573d80600081146134c0576040519150601f19603f3d011682016040523d82523d6000602084013e6134c5565b606091505b5060008151141561350b576040517f08c379a0000000000000000000000000000000000000000000000000000000008152600401613502906157cf565b60405180910390fd5b805181602001fd5b63150b7a0260e01b7bffffffffffffffffffffffffffffffffffffffffffffffffffffffff1916817bffffffffffffffffffffffffffffffffffffffffffffffffffffffff191614915050613568565b600190505b949350505050565b606060008214156135b8576040518060400160405280600181526020017f300000000000000000000000000000000000000000000000000000000000000081525090506136cc565b600082905060005b600082146135ea5780806135d390615466565b915050600a826135e39190615604565b91506135c0565b60008167ffffffffffffffff811115613606576136056149d2565b5b6040519080825280601f01601f1916602001820160405280156136385781602001600182028036833780820191505090505b5090505b600085146136c5576001826136519190615179565b9150600a8561366091906154af565b603061366c9190614268565b60f81b81838151811061368257613681614f8f565b5b60200101907effffffffffffffffffffffffffffffffffffffffffffffffffffffffffffff1916908160001a905350600a856136be9190615604565b945061363c565b8093505050505b919050565b505050565b600060016136e3846112e5565b6136ed9190615179565b90506000600e60008481526020019081526020016000205490508181146137d2576000600d60008673ffffffffffffffffffffffffffffffffffffffff1673ffffffffffffffffffffffffffffffffffffffff168152602001908152602001600020600084815260200190815260200160002054905080600d60008773ffffffffffffffffffffffffffffffffffffffff1673ffffffffffffffffffffffffffffffffffffffff16815260200190815260200160002060008481526020019081526020016000208190555081600e600083815260200190815260200160002081905550505b600e600084815260200190815260200160002060009055600d60008573ffffffffffffffffffffffffffffffffffffffff1673ffffffffffffffffffffffffffffffffffffffff16815260200190815260200160002060008381526020019081526020016000206000905550505050565b60006001600b805490506138579190615179565b90506000600c60008481526020019081526020016000205490506000600b838154811061388757613886614f8f565b5b906000526020600020906006020160405180610100016040529081600082015481526020016001820154815260200160028201548152602001600382016040518060800160405290816000820160009054906101000a900460ff1660ff1660ff1681526020016000820160019054906101000a900460ff1660ff1660ff1681526020016000820160029054906101000a900460ff1660ff1660ff1681526020016000820160039054906101000a900460ff1660ff1660ff16815250508152602001600482016040518060800160405290816000820160009054906101000a900460ff1660ff1660ff1681526020016000820160019054906101000a900460ff1660ff1660ff1681526020016000820160029054906101000a900460ff1660ff1660ff1681526020016000820160039054906101000a900460ff1660ff1660ff168152505081526020016005820160009054906101000a900460ff1660ff1660ff1681526020016005820160019054906101000a900460ff1660ff1660ff1681526020016005820160029054906101000a900460ff166002811115613a2e57613a2d6147c1565b5b6002811115613a4057613a3f6147c1565b5b81525050905080600b8381548110613a5b57613a5a614f8f565b5b906000526020600020906006020160008201518160000155602082015181600101556040820151816002015560608201518160030160008201518160000160006101000a81548160ff021916908360ff16021790555060208201518160000160016101000a81548160ff021916908360ff16021790555060408201518160000160026101000a81548160ff021916908360ff16021790555060608201518160000160036101000a81548160ff021916908360ff160217905550505060808201518160040160008201518160000160006101000a81548160ff021916908360ff16021790555060208201518160000160016101000a81548160ff021916908360ff16021790555060408201518160000160026101000a81548160ff021916908360ff16021790555060608201518160000160036101000a81548160ff021916908360ff160217905550505060a08201518160050160006101000a81548160ff021916908360ff16021790555060c08201518160050160016101000a81548160ff021916908360ff16021790555060e08201518160050160026101000a81548160ff02191690836002811115613c1257613c116147c1565b5b021790555090505081600c60008360000151815260200190815260200160002081905550600c600085815260200190815260200160002060009055600b805480613c5f57613c5e615a9c565b5b60019003818190600052602060002090600602016000808201600090556001820160009055600282016000905560038201600080820160006101000a81549060ff02191690556000820160016101000a81549060ff02191690556000820160026101000a81549060ff02191690556000820160036101000a81549060ff0219169055505060048201600080820160006101000a81549060ff02191690556000820160016101000a81549060ff02191690556000820160026101000a81549060ff02191690556000820160036101000a81549060ff021916905550506005820160006101000a81549060ff02191690556005820160016101000a81549060ff02191690556005820160026101000a81549060ff02191690555050905550505050565b6000613d8b836112e5565b905081600d60008573ffffffffffffffffffffffffffffffffffffffff1673ffffffffffffffffffffffffffffffffffffffff16815260200190815260200160002060008381526020019081526020016000208190555080600e600084815260200190815260200160002081905550505050565b6000806002613e0c612e44565b613e1691906154af565b90506001811415613e2a5783915050613e2f565b829150505b92915050565b60006005600a8385613e479190615acb565b613e51919061507f565b613e5b91906150b0565b905092915050565b613e6d8383613ee1565b613e7a60008484846133d9565b613eb9576040517f08c379a0000000000000000000000000000000000000000000000000000000008152600401613eb0906157cf565b60405180910390fd5b505050565b6000808273ffffffffffffffffffffffffffffffffffffffff163b119050919050565b600073ffffffffffffffffffffffffffffffffffffffff168273ffffffffffffffffffffffffffffffffffffffff161415613f51576040517f08c379a0000000000000000000000000000000000000000000000000000000008152600401613f4890615b52565b60405180910390fd5b613f5a81611f3a565b15613f9a576040517f08c379a0000000000000000000000000000000000000000000000000000000008152600401613f9190615bbe565b60405180910390fd5b613fa660008383612ed6565b6001600360008473ffffffffffffffffffffffffffffffffffffffff1673ffffffffffffffffffffffffffffffffffffffff1681526020019081526020016000206000828254613ff69190614268565b92505081905550816002600083815260200190815260200160002060006101000a81548173ffffffffffffffffffffffffffffffffffffffff021916908373ffffffffffffffffffffffffffffffffffffffff160217905550808273ffffffffffffffffffffffffffffffffffffffff16600073ffffffffffffffffffffffffffffffffffffffff167fddf252ad1be2c89b69c2b068fc378daa952ba7f163c4a11628f55a4df523b3ef60405160405180910390a46140b760008383612fe1565b5050565b6040518060800160405280600060ff168152602001600060ff168152602001600060ff168152602001600060ff1681525090565b6040518061010001604052806000815260200160008152602001600081526020016141186140bb565b8152602001614125614158565b8152602001600060ff168152602001600060ff16815260200160006002811115614152576141516147c1565b5b81525090565b6040518060800160405280600060ff168152602001600060ff168152602001600060ff168152602001600060ff1681525090565b82805461419890614da7565b90600052602060002090601f0160209004810192826141ba5760008555614201565b82601f106141d357805160ff1916838001178555614201565b82800160010185558215614201579182015b828111156142005782518255916020019190600101906141e5565b5b50905061420e9190614212565b5090565b5b8082111561422b576000816000905550600101614213565b5090565b6000819050919050565b7f4e487b7100000000000000000000000000000000000000000000000000000000600052601160045260246000fd5b60006142738261422f565b915061427e8361422f565b9250827fffffffffffffffffffffffffffffffffffffffffffffffffffffffffffffffff038211156142b3576142b2614239565b5b828201905092915050565b600073ffffffffffffffffffffffffffffffffffffffff82169050919050565b60006142e9826142be565b9050919050565b6142f9816142de565b82525050565b6143088161422f565b82525050565b600060408201905061432360008301856142f0565b61433060208301846142ff565b9392505050565b6000604051905090565b600080fd5b600080fd5b60007fffffffff0000000000000000000000000000000000000000000000000000000082169050919050565b6143808161434b565b811461438b57600080fd5b50565b60008135905061439d81614377565b92915050565b6000602082840312156143b9576143b8614341565b5b60006143c78482850161438e565b91505092915050565b60008115159050919050565b6143e5816143d0565b82525050565b600060208201905061440060008301846143dc565b92915050565b600081519050919050565b600082825260208201905092915050565b60005b83811015614440578082015181840152602081019050614425565b8381111561444f576000848401525b50505050565b6000601f19601f8301169050919050565b600061447182614406565b61447b8185614411565b935061448b818560208601614422565b61449481614455565b840191505092915050565b600060208201905081810360008301526144b98184614466565b905092915050565b6144ca8161422f565b81146144d557600080fd5b50565b6000813590506144e7816144c1565b92915050565b60006020828403121561450357614502614341565b5b6000614511848285016144d8565b91505092915050565b600060208201905061452f60008301846142f0565b92915050565b61453e816142de565b811461454957600080fd5b50565b60008135905061455b81614535565b92915050565b6000806040838503121561457857614577614341565b5b60006145868582860161454c565b9250506020614597858286016144d8565b9150509250929050565b60006020820190506145b660008301846142ff565b92915050565b600060ff82169050919050565b6145d2816145bc565b82525050565b6080820160008201516145ee60008501826145c9565b50602082015161460160208501826145c9565b50604082015161461460408501826145c9565b50606082015161462760608501826145c9565b50505050565b600060808201905061464260008301846145d8565b92915050565b60008060006060848603121561466157614660614341565b5b600061466f8682870161454c565b93505060206146808682870161454c565b9250506040614691868287016144d8565b9150509250925092565b6000602082840312156146b1576146b0614341565b5b60006146bf8482850161454c565b91505092915050565b600080604083850312156146df576146de614341565b5b60006146ed858286016144d8565b92505060206146fe858286016144d8565b9150509250929050565b6147118161422f565b82525050565b60808201600082015161472d60008501826145c9565b50602082015161474060208501826145c9565b50604082015161475360408501826145c9565b50606082015161476660608501826145c9565b50505050565b60808201600082015161478260008501826145c9565b50602082015161479560208501826145c9565b5060408201516147a860408501826145c9565b5060608201516147bb60608501826145c9565b50505050565b7f4e487b7100000000000000000000000000000000000000000000000000000000600052602160045260246000fd5b60038110614801576148006147c1565b5b50565b6000819050614812826147f0565b919050565b600061482282614804565b9050919050565b61483281614817565b82525050565b6101c08201600082015161484f6000850182614708565b5060208201516148626020850182614708565b5060408201516148756040850182614708565b5060608201516148886060850182614717565b50608082015161489b60e085018261476c565b5060a08201516148af6101608501826145c9565b5060c08201516148c36101808501826145c9565b5060e08201516148d76101a0850182614829565b50505050565b60006101c0820190506148f36000830184614838565b92915050565b614902816145bc565b82525050565b61491181614817565b82525050565b600060e08201905061492c60008301876142f0565b61493960208301866148f9565b61494660408301856145d8565b61495360c0830184614908565b95945050505050565b614965816143d0565b811461497057600080fd5b50565b6000813590506149828161495c565b92915050565b6000806040838503121561499f5761499e614341565b5b60006149ad8582860161454c565b92505060206149be85828601614973565b9150509250929050565b600080fd5b600080fd5b7f4e487b7100000000000000000000000000000000000000000000000000000000600052604160045260246000fd5b614a0a82614455565b810181811067ffffffffffffffff82111715614a2957614a286149d2565b5b80604052505050565b6000614a3c614337565b9050614a488282614a01565b919050565b600067ffffffffffffffff821115614a6857614a676149d2565b5b614a7182614455565b9050602081019050919050565b82818337600083830152505050565b6000614aa0614a9b84614a4d565b614a32565b905082815260208101848484011115614abc57614abb6149cd565b5b614ac7848285614a7e565b509392505050565b600082601f830112614ae457614ae36149c8565b5b8135614af4848260208601614a8d565b91505092915050565b60008060008060808587031215614b1757614b16614341565b5b6000614b258782880161454c565b9450506020614b368782880161454c565b9350506040614b47878288016144d8565b925050606085013567ffffffffffffffff811115614b6857614b67614346565b5b614b7487828801614acf565b91505092959194509250565b60008060408385031215614b9757614b96614341565b5b6000614ba5858286016144d8565b9250506020614bb685828601614973565b9150509250929050565b600081519050919050565b600082825260208201905092915050565b6000819050602082019050919050565b60e082016000820151614c026000850182614708565b506020820151614c1560208501826145c9565b506040820151614c286040850182614829565b506060820151614c3b6060850182614717565b50505050565b6000614c4d8383614bec565b60e08301905092915050565b6000602082019050919050565b6000614c7182614bc0565b614c7b8185614bcb565b9350614c8683614bdc565b8060005b83811015614cb7578151614c9e8882614c41565b9750614ca983614c59565b925050600181019050614c8a565b5085935050505092915050565b60006020820190508181036000830152614cde8184614c66565b905092915050565b60038110614cf357600080fd5b50565b600081359050614d0581614ce6565b92915050565b600060208284031215614d2157614d20614341565b5b6000614d2f84828501614cf6565b91505092915050565b60008060408385031215614d4f57614d4e614341565b5b6000614d5d8582860161454c565b9250506020614d6e8582860161454c565b9150509250929050565b7f4e487b7100000000000000000000000000000000000000000000000000000000600052602260045260246000fd5b60006002820490506001821680614dbf57607f821691505b60208210811415614dd357614dd2614d78565b5b50919050565b7f4552433732313a20617070726f76656420717565727920666f72206e6f6e657860008201527f697374656e7420746f6b656e0000000000000000000000000000000000000000602082015250565b6000614e35602c83614411565b9150614e4082614dd9565b604082019050919050565b60006020820190508181036000830152614e6481614e28565b9050919050565b7f4552433732313a20617070726f76616c20746f2063757272656e74206f776e6560008201527f7200000000000000000000000000000000000000000000000000000000000000602082015250565b6000614ec7602183614411565b9150614ed282614e6b565b604082019050919050565b60006020820190508181036000830152614ef681614eba565b9050919050565b7f4552433732313a20617070726f76652063616c6c6572206973206e6f74206f7760008201527f6e6572206e6f7220617070726f76656420666f7220616c6c0000000000000000602082015250565b6000614f59603883614411565b9150614f6482614efd565b604082019050919050565b60006020820190508181036000830152614f8881614f4c565b9050919050565b7f4e487b7100000000000000000000000000000000000000000000000000000000600052603260045260246000fd5b7f6465706f73697420717565727920666f7220746865207a65726f20616464726560008201527f7373000000000000000000000000000000000000000000000000000000000000602082015250565b600061501a602283614411565b915061502582614fbe565b604082019050919050565b600060208201905081810360008301526150498161500d565b9050919050565b7f4e487b7100000000000000000000000000000000000000000000000000000000600052601260045260246000fd5b600061508a826145bc565b9150615095836145bc565b9250826150a5576150a4615050565b5b828204905092915050565b60006150bb826145bc565b91506150c6836145bc565b92508260ff038211156150dc576150db614239565b5b828201905092915050565b7f4552433732313a206f776e657220717565727920666f72206e6f6e657869737460008201527f656e7420746f6b656e0000000000000000000000000000000000000000000000602082015250565b6000615143602983614411565b915061514e826150e7565b604082019050919050565b6000602082019050818103600083015261517281615136565b9050919050565b60006151848261422f565b915061518f8361422f565b9250828210156151a2576151a1614239565b5b828203905092915050565b60006060820190506151c260008301866142f0565b6151cf60208301856142f0565b6151dc60408301846142ff565b949350505050565b7f4552433732313a2062616c616e636520717565727920666f7220746865207a6560008201527f726f206164647265737300000000000000000000000000000000000000000000602082015250565b6000615240602a83614411565b915061524b826151e4565b604082019050919050565b6000602082019050818103600083015261526f81615233565b9050919050565b7f646966666572656e742072616365732100000000000000000000000000000000600082015250565b60006152ac601083614411565b91506152b782615276565b602082019050919050565b600060208201905081810360008301526152db8161529f565b9050919050565b7f4552433732313a207472616e736665722063616c6c6572206973206e6f74206f60008201527f776e6572206e6f7220617070726f766564000000000000000000000000000000602082015250565b600061533e603183614411565b9150615349826152e2565b604082019050919050565b6000602082019050818103600083015261536d81615331565b9050919050565b7f45524337323155524953746f726167653a2055524920717565727920666f722060008201527f6e6f6e6578697374656e7420746f6b656e000000000000000000000000000000602082015250565b60006153d0603183614411565b91506153db82615374565b604082019050919050565b600060208201905081810360008301526153ff816153c3565b9050919050565b600081905092915050565b600061541c82614406565b6154268185615406565b9350615436818560208601614422565b80840191505092915050565b600061544e8285615411565b915061545a8284615411565b91508190509392505050565b60006154718261422f565b91507fffffffffffffffffffffffffffffffffffffffffffffffffffffffffffffffff8214156154a4576154a3614239565b5b600182019050919050565b60006154ba8261422f565b91506154c58361422f565b9250826154d5576154d4615050565b5b828206905092915050565b7f4552433732313a207472616e736665722066726f6d20696e636f72726563742060008201527f6f776e6572000000000000000000000000000000000000000000000000000000602082015250565b600061553c602583614411565b9150615547826154e0565b604082019050919050565b6000602082019050818103600083015261556b8161552f565b9050919050565b7f4552433732313a207472616e7366657220746f20746865207a65726f2061646460008201527f7265737300000000000000000000000000000000000000000000000000000000602082015250565b60006155ce602483614411565b91506155d982615572565b604082019050919050565b600060208201905081810360008301526155fd816155c1565b9050919050565b600061560f8261422f565b915061561a8361422f565b92508261562a57615629615050565b5b828204905092915050565b7f4552433732313a20617070726f766520746f2063616c6c657200000000000000600082015250565b600061566b601983614411565b915061567682615635565b602082019050919050565b6000602082019050818103600083015261569a8161565e565b9050919050565b60006156ac826145bc565b915060008214156156c0576156bf614239565b5b600182039050919050565b7f4552433732313a206f70657261746f7220717565727920666f72206e6f6e657860008201527f697374656e7420746f6b656e0000000000000000000000000000000000000000602082015250565b6000615727602c83614411565b9150615732826156cb565b604082019050919050565b600060208201905081810360008301526157568161571a565b9050919050565b7f4552433732313a207472616e7366657220746f206e6f6e20455243373231526560008201527f63656976657220696d706c656d656e7465720000000000000000000000000000602082015250565b60006157b9603283614411565b91506157c48261575d565b604082019050919050565b600060208201905081810360008301526157e8816157ac565b9050919050565b7f4552433732314d657461646174613a2055524920717565727920666f72206e6f60008201527f6e6578697374656e7420746f6b656e0000000000000000000000000000000000602082015250565b600061584b602f83614411565b9150615856826157ef565b604082019050919050565b6000602082019050818103600083015261587a8161583e565b9050919050565b6000819050919050565b61589c6158978261422f565b615881565b82525050565b60008160601b9050919050565b60006158ba826158a2565b9050919050565b60006158cc826158af565b9050919050565b6158e46158df826142de565b6158c1565b82525050565b60006158f6828661588b565b602082019150615906828561588b565b60208201915061591682846158d3565b601482019150819050949350505050565b7f45524337323155524953746f726167653a2055524920736574206f66206e6f6e60008201527f6578697374656e7420746f6b656e000000000000000000000000000000000000602082015250565b6000615983602e83614411565b915061598e82615927565b604082019050919050565b600060208201905081810360008301526159b281615976565b9050919050565b600081519050919050565b600082825260208201905092915050565b60006159e0826159b9565b6159ea81856159c4565b93506159fa818560208601614422565b615a0381614455565b840191505092915050565b6000608082019050615a2360008301876142f0565b615a3060208301866142f0565b615a3d60408301856142ff565b8181036060830152615a4f81846159d5565b905095945050505050565b600081519050615a6981614377565b92915050565b600060208284031215615a8557615a84614341565b5b6000615a9384828501615a5a565b91505092915050565b7f4e487b7100000000000000000000000000000000000000000000000000000000600052603160045260246000fd5b6000615ad6826145bc565b9150615ae1836145bc565b92508160ff0483118215151615615afb57615afa614239565b5b828202905092915050565b7f4552433732313a206d696e7420746f20746865207a65726f2061646472657373600082015250565b6000615b3c602083614411565b9150615b4782615b06565b602082019050919050565b60006020820190508181036000830152615b6b81615b2f565b9050919050565b7f4552433732313a20746f6b656e20616c7265616479206d696e74656400000000600082015250565b6000615ba8601c83614411565b9150615bb382615b72565b602082019050919050565b60006020820190508181036000830152615bd781615b9b565b905091905056fea2646970667358221220f9c828fa99b81312c81f6146a079356de60eff694c55efd83cb0f8dac9fdf7c164736f6c63430008090033",
  "immutableReferences": {},
  "source": "pragma solidity ^0.8.9;\r\n\r\nimport \"./MonsterToken.sol\";\r\n/**\r\n * This contract is used to store all the tokens and function related to breed and battle\r\n */\r\n\r\ncontract MonsterFactory is MonsterToken{\r\n\r\n    event Fighter1Win(bool);\r\n\r\n    struct Competitor{\r\n        uint256 tokenId;\r\n        uint8 level;\r\n        MonsterLib.Race race;\r\n        MonsterLib.Statistics statc;\r\n    }\r\n\r\n    struct Fighter{\r\n        uint HP;\r\n        uint damage;\r\n        uint speed;\r\n    }\r\n\r\n    MonsterLib.Statistics[] private _defaultMonsters;\r\n  \r\n    modifier onlyOwner(uint256 _tokenId1, uint256 _tokenId2){\r\n    require(msg.sender == ownerOf(_tokenId1));\r\n    require(msg.sender == ownerOf(_tokenId1));\r\n    _;\r\n    }\r\n\r\n    constructor() MonsterToken() {\r\n        _defaultMonsters.push(MonsterLib.Statistics(11,5,5,5));\r\n        _defaultMonsters.push(MonsterLib.Statistics(17,7,7,7));\r\n        _defaultMonsters.push(MonsterLib.Statistics(25,15,15,15));\r\n    }\r\n\r\n    function getChild(uint256 _mumId, uint256 _dadId) public onlyOwner(_mumId, _dadId){\r\n        require(msg.sender != address(0));\r\n        MonsterLib.Monster memory _mum = monsterById(_mumId);\r\n        MonsterLib.Monster memory _dad = monsterById(_dadId);\r\n        require(_mum.race == _dad.race, \"different races!\");\r\n        MonsterLib.IndividualValue memory _childiv = _getChildIv(_mum.iv, _dad.iv);\r\n        _createNewMonster(msg.sender, _mumId, _dadId, _childiv, _mum.race);\r\n\r\n    }\r\n\r\n    function _getChildIv(MonsterLib.IndividualValue memory mumIv, MonsterLib.IndividualValue memory dadIv) internal view returns (MonsterLib.IndividualValue memory){\r\n        uint8 inheritendCount = 3; //child can only inheritend at most 3 individual value from parents\r\n        MonsterLib.IndividualValue memory childValue;\r\n        bool isInherited;\r\n        if(inheritendCount != 0){\r\n            (childValue.HP, isInherited) = _getNewIv(mumIv.HP, dadIv.HP);\r\n            if(isInherited) inheritendCount--;\r\n        }\r\n        else{\r\n            childValue.HP = _getNewValueRandomly();\r\n        }\r\n        if(inheritendCount != 0){\r\n            (childValue.strength, isInherited) = _getNewIv(mumIv.strength, dadIv.strength);\r\n            if(isInherited) inheritendCount--;\r\n        }\r\n        else{\r\n            childValue.strength = _getNewValueRandomly();\r\n        }\r\n        if(inheritendCount != 0){\r\n            (childValue.defensive, isInherited) = _getNewIv(mumIv.defensive, dadIv.defensive);\r\n            if(isInherited) inheritendCount--;\r\n        }\r\n        else{\r\n            childValue.defensive = _getNewValueRandomly();\r\n        }\r\n        if(inheritendCount != 0){\r\n            (childValue.speed, isInherited) = _getNewIv(mumIv.speed, dadIv.speed);\r\n            if(isInherited) inheritendCount--;\r\n        }\r\n        else{\r\n            childValue.speed = _getNewValueRandomly();\r\n        }\r\n        return childValue;        \r\n\r\n    }\r\n    /**\r\n     * @dev the child's inidividual value may be inherited from parents, or generate randomly\r\n     */\r\n    function _getNewIv(uint8 mumIv, uint8 dadIv) internal view returns(uint8,bool){\r\n        bool isInherited;\r\n        if(_random()%2 == 0){\r\n            isInherited = true;\r\n            return(_getNewValueFromParents(mumIv, dadIv),isInherited);\r\n        }\r\n        else{\r\n            isInherited = false;\r\n            return(_getNewValueRandomly(),isInherited);\r\n        }\r\n    }\r\n\r\n    function _getNewValueFromParents(uint8 mumIv, uint8 dadIv) internal view returns(uint8){\r\n        uint _isMother = _random()%2;\r\n        if(_isMother == 1) return mumIv;\r\n        else return dadIv;\r\n    }\r\n\r\n    function _getNewValueRandomly() internal view returns (uint8){\r\n        return uint8(_random()%32);\r\n    }\r\n\r\n    function _random() internal view returns(uint){\r\n        return uint(keccak256(abi.encodePacked(block.difficulty, block.timestamp, address(0))));\r\n    }\r\n\r\n    /**\r\n     * @dev Pick five competitors randomly from existing monsters\r\n     * Cannot pick those monster whose owner is msg.sender\r\n     */\r\n    function pickCompetitionRandomly() public view returns (Competitor[] memory){\r\n        uint _monsterCount = totalSupply();\r\n        Competitor[] memory competitors;\r\n        MonsterLib.Monster memory _currentMonster;\r\n        if( _monsterCount - ERC721.balanceOf(msg.sender) <= 5){\r\n            uint _pickedCount = 0;\r\n            for(uint i = 0; i < _monsterCount; i++){\r\n                _currentMonster = _monsterByIndex(_monsterCount);\r\n                if(ownerOf(_currentMonster.tokenId) != msg.sender){\r\n                    competitors[_pickedCount] = Competitor(_currentMonster.tokenId, _currentMonster.level, _currentMonster.race, _currentMonster.statc);\r\n                    _pickedCount ++;\r\n                }\r\n            }\r\n        }\r\n        else{\r\n            uint256[] memory _foundIndex;\r\n            uint _pickedIndex;\r\n            uint _pickedCount = 0;\r\n            uint _foundCount = 0;\r\n            while(_foundIndex.length < _monsterCount && competitors.length < 5){\r\n                _pickedIndex = _random() % _monsterCount;\r\n                _currentMonster = _monsterByIndex(_pickedIndex);\r\n                if(!_contain(_foundIndex, _pickedIndex)){\r\n                    if(ownerOf(_currentMonster.tokenId) != msg.sender ){\r\n                        competitors[_pickedCount] = Competitor(_currentMonster.tokenId, _currentMonster.level, _currentMonster.race, _currentMonster.statc);\r\n                        _pickedCount++;\r\n                    }\r\n                    _foundIndex[_foundCount] = _pickedIndex;\r\n                    _foundCount ++;\r\n                }\r\n            }\r\n        }\r\n        return competitors;\r\n\r\n    }\r\n\r\n    function _contain(uint256[] memory list, uint256 elem) internal pure returns(bool){\r\n        for(uint i = 0; i < list.length; i++){\r\n            if(list[i] == elem) return true;\r\n        }\r\n        return false;\r\n    } \r\n\r\n    function battleWithPlayer(uint256 _tokenId1, uint256 _tokenId2) public  returns(bool){\r\n        MonsterLib.Monster memory _player1 = monsterById(_tokenId1);\r\n        MonsterLib.Monster memory _player2 = monsterById(_tokenId2);\r\n        uint _damage1 = (_player1.statc.strength/_player2.statc.defensive) + 1;\r\n        uint _damage2 = (_player2.statc.strength/_player1.statc.defensive) + 1;\r\n        Fighter memory _fighter1 = Fighter(_player1.statc.HP, _damage1, _player1.statc.speed);\r\n        Fighter memory _fighter2 = Fighter(_player2.statc.HP, _damage2, _player2.statc.speed);\r\n        bool isFighter1Win = _simulateBattle(_fighter1, _fighter2);\r\n        emit Fighter1Win(isFighter1Win);\r\n        return isFighter1Win;\r\n    }\r\n\r\n    function battleWithDefaultMonster(uint256 _tokenId, uint256 _defaultMonsterId) public returns(bool){\r\n        require(_defaultMonsterId < _defaultMonsters.length);\r\n        MonsterLib.Monster memory _player1 = monsterById(_tokenId);\r\n        MonsterLib.Statistics memory _default = _defaultMonsters[_defaultMonsterId];\r\n        uint _damage1 = (_player1.statc.strength/_default.defensive) + 1;\r\n        uint _damage2 = (_default.strength/_player1.statc.defensive) + 1;\r\n        Fighter memory _fighter1 = Fighter(_player1.statc.HP, _damage1, _player1.statc.speed);\r\n        Fighter memory _fighter2 = Fighter(_default.HP, _damage2, _default.speed);\r\n        bool isFighter1Win = _simulateBattle(_fighter1, _fighter2);\r\n        emit Fighter1Win(isFighter1Win);\r\n        return isFighter1Win;\r\n    }\r\n\r\n    function _simulateBattle(Fighter memory fighter1, Fighter memory fighter2) internal view returns(bool){\r\n        uint turnsNeedFor1 = (fighter2.HP + fighter1.damage - 1)/fighter1.damage;\r\n        uint turnsNeedFor2 = (fighter1.HP + fighter2.damage - 1)/fighter2.damage;\r\n        bool attackFirst;\r\n        if(fighter1.speed > fighter2.speed){\r\n            attackFirst = true;\r\n        }\r\n        else if(fighter1.speed < fighter2.speed){\r\n            attackFirst = false;\r\n        }\r\n        else{\r\n            uint dice = _random()%2;\r\n            if(dice == 0){\r\n                attackFirst = true;\r\n            }else attackFirst = false;\r\n        }\r\n        if(turnsNeedFor1 > turnsNeedFor2) return false;\r\n        else if( turnsNeedFor1 < turnsNeedFor2) return true;\r\n        else return attackFirst;\r\n    }\r\n}",
  "sourcePath": "D:\\GitHub\\monster\\contracts\\MonsterFactory.sol",
  "compiler": {
    "name": "solc",
    "version": "0.8.9+commit.e5eed63a.Emscripten.clang"
  },
  "schemaVersion": "3.4.7",
  "updatedAt": "2022-05-13T22:18:54.197Z",
  "networkType": "ethereum",
  "devdoc": {
    "kind": "dev",
    "methods": {
      "approve(address,uint256)": {
        "details": "See {IERC721-approve}."
      },
      "balanceOf(address)": {
        "details": "See {IERC721-balanceOf}."
      },
      "getApproved(uint256)": {
        "details": "See {IERC721-getApproved}."
      },
      "getInitialMonster(uint8)": {
        "details": "Pay ETH to get a default monster from contract"
      },
      "isApprovedForAll(address,address)": {
        "details": "See {IERC721-isApprovedForAll}."
      },
      "name()": {
        "details": "See {IERC721Metadata-name}."
      },
      "ownerOf(uint256)": {
        "details": "See {IERC721-ownerOf}."
      },
      "pickCompetitionRandomly()": {
        "details": "Pick five competitors randomly from existing monsters Cannot pick those monster whose owner is msg.sender"
      },
      "safeTransferFrom(address,address,uint256)": {
        "details": "See {IERC721-safeTransferFrom}."
      },
      "safeTransferFrom(address,address,uint256,bytes)": {
        "details": "See {IERC721-safeTransferFrom}."
      },
      "setApprovalForAll(address,bool)": {
        "details": "See {IERC721-setApprovalForAll}."
      },
      "supportsInterface(bytes4)": {
        "details": "See {IERC165-supportsInterface}."
      },
      "symbol()": {
        "details": "See {IERC721Metadata-symbol}."
      },
      "tokenURI(uint256)": {
        "details": "See {IERC721Metadata-tokenURI}."
      }
    },
    "version": 1
  },
  "userdoc": {
    "kind": "user",
    "methods": {
      "getStatics(uint256)": {
        "notice": "Used for buyer want to check more detailed information in the market"
      }
    },
    "notice": "This contract is used to store all the tokens and function related to breed and battle",
    "version": 1
  }
}