{
  "contractName": "MonsterToken",
  "abi": [
    {
      "inputs": [],
      "stateMutability": "nonpayable",
      "type": "constructor"
    },
    {
      "anonymous": false,
      "inputs": [
        {
          "indexed": true,
          "internalType": "address",
          "name": "owner",
          "type": "address"
        },
        {
          "indexed": true,
          "internalType": "address",
          "name": "approved",
          "type": "address"
        },
        {
          "indexed": true,
          "internalType": "uint256",
          "name": "tokenId",
          "type": "uint256"
        }
      ],
      "name": "Approval",
      "type": "event"
    },
    {
      "anonymous": false,
      "inputs": [
        {
          "indexed": true,
          "internalType": "address",
          "name": "owner",
          "type": "address"
        },
        {
          "indexed": true,
          "internalType": "address",
          "name": "operator",
          "type": "address"
        },
        {
          "indexed": false,
          "internalType": "bool",
          "name": "approved",
          "type": "bool"
        }
      ],
      "name": "ApprovalForAll",
      "type": "event"
    },
    {
      "anonymous": false,
      "inputs": [
        {
          "components": [
            {
              "internalType": "uint8",
              "name": "HP",
              "type": "uint8"
            },
            {
              "internalType": "uint8",
              "name": "strength",
              "type": "uint8"
            },
            {
              "internalType": "uint8",
              "name": "defensive",
              "type": "uint8"
            },
            {
              "internalType": "uint8",
              "name": "speed",
              "type": "uint8"
            }
          ],
          "indexed": false,
          "internalType": "struct MonsterLib.Statistics",
          "name": "",
          "type": "tuple"
        },
        {
          "components": [
            {
              "internalType": "uint8",
              "name": "HP",
              "type": "uint8"
            },
            {
              "internalType": "uint8",
              "name": "strength",
              "type": "uint8"
            },
            {
              "internalType": "uint8",
              "name": "defensive",
              "type": "uint8"
            },
            {
              "internalType": "uint8",
              "name": "speed",
              "type": "uint8"
            }
          ],
          "indexed": false,
          "internalType": "struct MonsterLib.Statistics",
          "name": "",
          "type": "tuple"
        }
      ],
      "name": "LevelUp",
      "type": "event"
    },
    {
      "anonymous": false,
      "inputs": [
        {
          "indexed": false,
          "internalType": "address",
          "name": "from",
          "type": "address"
        },
        {
          "indexed": false,
          "internalType": "uint256",
          "name": "amount",
          "type": "uint256"
        }
      ],
      "name": "ReceiveEth",
      "type": "event"
    },
    {
      "anonymous": false,
      "inputs": [
        {
          "indexed": true,
          "internalType": "address",
          "name": "from",
          "type": "address"
        },
        {
          "indexed": true,
          "internalType": "address",
          "name": "to",
          "type": "address"
        },
        {
          "indexed": true,
          "internalType": "uint256",
          "name": "tokenId",
          "type": "uint256"
        }
      ],
      "name": "Transfer",
      "type": "event"
    },
    {
      "anonymous": false,
      "inputs": [
        {
          "indexed": false,
          "internalType": "address",
          "name": "",
          "type": "address"
        },
        {
          "indexed": false,
          "internalType": "address",
          "name": "",
          "type": "address"
        },
        {
          "indexed": false,
          "internalType": "uint256",
          "name": "",
          "type": "uint256"
        }
      ],
      "name": "TransferMoney",
      "type": "event"
    },
    {
      "inputs": [
        {
          "internalType": "address",
          "name": "to",
          "type": "address"
        },
        {
          "internalType": "uint256",
          "name": "tokenId",
          "type": "uint256"
        }
      ],
      "name": "approve",
      "outputs": [],
      "stateMutability": "nonpayable",
      "type": "function"
    },
    {
      "inputs": [
        {
          "internalType": "address",
          "name": "owner",
          "type": "address"
        }
      ],
      "name": "balanceOf",
      "outputs": [
        {
          "internalType": "uint256",
          "name": "",
          "type": "uint256"
        }
      ],
      "stateMutability": "view",
      "type": "function"
    },
    {
      "inputs": [
        {
          "internalType": "uint256",
          "name": "tokenId",
          "type": "uint256"
        }
      ],
      "name": "getApproved",
      "outputs": [
        {
          "internalType": "address",
          "name": "",
          "type": "address"
        }
      ],
      "stateMutability": "view",
      "type": "function"
    },
    {
      "inputs": [
        {
          "internalType": "address",
          "name": "owner",
          "type": "address"
        },
        {
          "internalType": "address",
          "name": "operator",
          "type": "address"
        }
      ],
      "name": "isApprovedForAll",
      "outputs": [
        {
          "internalType": "bool",
          "name": "",
          "type": "bool"
        }
      ],
      "stateMutability": "view",
      "type": "function"
    },
    {
      "inputs": [],
      "name": "name",
      "outputs": [
        {
          "internalType": "string",
          "name": "",
          "type": "string"
        }
      ],
      "stateMutability": "view",
      "type": "function"
    },
    {
      "inputs": [
        {
          "internalType": "uint256",
          "name": "tokenId",
          "type": "uint256"
        }
      ],
      "name": "ownerOf",
      "outputs": [
        {
          "internalType": "address",
          "name": "",
          "type": "address"
        }
      ],
      "stateMutability": "view",
      "type": "function"
    },
    {
      "inputs": [
        {
          "internalType": "address",
          "name": "from",
          "type": "address"
        },
        {
          "internalType": "address",
          "name": "to",
          "type": "address"
        },
        {
          "internalType": "uint256",
          "name": "tokenId",
          "type": "uint256"
        }
      ],
      "name": "safeTransferFrom",
      "outputs": [],
      "stateMutability": "nonpayable",
      "type": "function"
    },
    {
      "inputs": [
        {
          "internalType": "address",
          "name": "from",
          "type": "address"
        },
        {
          "internalType": "address",
          "name": "to",
          "type": "address"
        },
        {
          "internalType": "uint256",
          "name": "tokenId",
          "type": "uint256"
        },
        {
          "internalType": "bytes",
          "name": "_data",
          "type": "bytes"
        }
      ],
      "name": "safeTransferFrom",
      "outputs": [],
      "stateMutability": "nonpayable",
      "type": "function"
    },
    {
      "inputs": [
        {
          "internalType": "address",
          "name": "operator",
          "type": "address"
        },
        {
          "internalType": "bool",
          "name": "approved",
          "type": "bool"
        }
      ],
      "name": "setApprovalForAll",
      "outputs": [],
      "stateMutability": "nonpayable",
      "type": "function"
    },
    {
      "inputs": [
        {
          "internalType": "bytes4",
          "name": "interfaceId",
          "type": "bytes4"
        }
      ],
      "name": "supportsInterface",
      "outputs": [
        {
          "internalType": "bool",
          "name": "",
          "type": "bool"
        }
      ],
      "stateMutability": "view",
      "type": "function"
    },
    {
      "inputs": [],
      "name": "symbol",
      "outputs": [
        {
          "internalType": "string",
          "name": "",
          "type": "string"
        }
      ],
      "stateMutability": "view",
      "type": "function"
    },
    {
      "inputs": [
        {
          "internalType": "uint256",
          "name": "tokenId",
          "type": "uint256"
        }
      ],
      "name": "tokenURI",
      "outputs": [
        {
          "internalType": "string",
          "name": "",
          "type": "string"
        }
      ],
      "stateMutability": "view",
      "type": "function"
    },
    {
      "stateMutability": "payable",
      "type": "receive"
    },
    {
      "inputs": [
        {
          "internalType": "address",
          "name": "owner",
          "type": "address"
        }
      ],
      "name": "depositOf",
      "outputs": [
        {
          "internalType": "uint256",
          "name": "",
          "type": "uint256"
        }
      ],
      "stateMutability": "view",
      "type": "function"
    },
    {
      "inputs": [],
      "name": "totalSupply",
      "outputs": [
        {
          "internalType": "uint256",
          "name": "",
          "type": "uint256"
        }
      ],
      "stateMutability": "view",
      "type": "function"
    },
    {
      "inputs": [
        {
          "internalType": "enum MonsterLib.Race",
          "name": "race",
          "type": "uint8"
        }
      ],
      "name": "getInitialMonster",
      "outputs": [],
      "stateMutability": "nonpayable",
      "type": "function"
    },
    {
      "inputs": [
        {
          "internalType": "uint256",
          "name": "_tokenId",
          "type": "uint256"
        }
      ],
      "name": "getStatics",
      "outputs": [
        {
          "components": [
            {
              "internalType": "uint8",
              "name": "HP",
              "type": "uint8"
            },
            {
              "internalType": "uint8",
              "name": "strength",
              "type": "uint8"
            },
            {
              "internalType": "uint8",
              "name": "defensive",
              "type": "uint8"
            },
            {
              "internalType": "uint8",
              "name": "speed",
              "type": "uint8"
            }
          ],
          "internalType": "struct MonsterLib.Statistics",
          "name": "",
          "type": "tuple"
        }
      ],
      "stateMutability": "view",
      "type": "function"
    },
    {
      "inputs": [
        {
          "internalType": "uint256",
          "name": "_tokenId",
          "type": "uint256"
        }
      ],
      "name": "getProductInfo",
      "outputs": [
        {
          "internalType": "address",
          "name": "",
          "type": "address"
        },
        {
          "internalType": "uint8",
          "name": "",
          "type": "uint8"
        },
        {
          "components": [
            {
              "internalType": "uint8",
              "name": "HP",
              "type": "uint8"
            },
            {
              "internalType": "uint8",
              "name": "strength",
              "type": "uint8"
            },
            {
              "internalType": "uint8",
              "name": "defensive",
              "type": "uint8"
            },
            {
              "internalType": "uint8",
              "name": "speed",
              "type": "uint8"
            }
          ],
          "internalType": "struct MonsterLib.Statistics",
          "name": "",
          "type": "tuple"
        },
        {
          "internalType": "enum MonsterLib.Race",
          "name": "",
          "type": "uint8"
        }
      ],
      "stateMutability": "view",
      "type": "function"
    },
    {
      "inputs": [
        {
          "internalType": "uint256",
          "name": "_tokenId",
          "type": "uint256"
        }
      ],
      "name": "monsterById",
      "outputs": [
        {
          "components": [
            {
              "internalType": "uint256",
              "name": "tokenId",
              "type": "uint256"
            },
            {
              "internalType": "uint256",
              "name": "mumId",
              "type": "uint256"
            },
            {
              "internalType": "uint256",
              "name": "dadId",
              "type": "uint256"
            },
            {
              "components": [
                {
                  "internalType": "uint8",
                  "name": "HP",
                  "type": "uint8"
                },
                {
                  "internalType": "uint8",
                  "name": "strength",
                  "type": "uint8"
                },
                {
                  "internalType": "uint8",
                  "name": "defensive",
                  "type": "uint8"
                },
                {
                  "internalType": "uint8",
                  "name": "speed",
                  "type": "uint8"
                }
              ],
              "internalType": "struct MonsterLib.Statistics",
              "name": "statc",
              "type": "tuple"
            },
            {
              "components": [
                {
                  "internalType": "uint8",
                  "name": "HP",
                  "type": "uint8"
                },
                {
                  "internalType": "uint8",
                  "name": "strength",
                  "type": "uint8"
                },
                {
                  "internalType": "uint8",
                  "name": "defensive",
                  "type": "uint8"
                },
                {
                  "internalType": "uint8",
                  "name": "speed",
                  "type": "uint8"
                }
              ],
              "internalType": "struct MonsterLib.IndividualValue",
              "name": "iv",
              "type": "tuple"
            },
            {
              "internalType": "uint8",
              "name": "level",
              "type": "uint8"
            },
            {
              "internalType": "uint8",
              "name": "expNeedToNext",
              "type": "uint8"
            },
            {
              "internalType": "enum MonsterLib.Race",
              "name": "race",
              "type": "uint8"
            }
          ],
          "internalType": "struct MonsterLib.Monster",
          "name": "",
          "type": "tuple"
        }
      ],
      "stateMutability": "view",
      "type": "function"
    },
    {
      "inputs": [
        {
          "internalType": "address",
          "name": "_from",
          "type": "address"
        },
        {
          "internalType": "address",
          "name": "_to",
          "type": "address"
        },
        {
          "internalType": "uint256",
          "name": "_value",
          "type": "uint256"
        }
      ],
      "name": "transferMoney",
      "outputs": [],
      "stateMutability": "nonpayable",
      "type": "function"
    },
    {
      "inputs": [
        {
          "internalType": "address",
          "name": "_from",
          "type": "address"
        },
        {
          "internalType": "address",
          "name": "_to",
          "type": "address"
        },
        {
          "internalType": "uint256",
          "name": "_tokenId",
          "type": "uint256"
        }
      ],
      "name": "transferFrom",
      "outputs": [],
      "stateMutability": "nonpayable",
      "type": "function"
    },
    {
      "inputs": [
        {
          "internalType": "uint256",
          "name": "_tokenId",
          "type": "uint256"
        },
        {
          "internalType": "bool",
          "name": "_ready",
          "type": "bool"
        }
      ],
      "name": "setReadyToSell",
      "outputs": [],
      "stateMutability": "nonpayable",
      "type": "function"
    }
  ],
  "bytecode": "0x60806040526040518060800160405280600560ff168152602001600560ff168152602001600560ff168152602001600560ff16815250601260008201518160000160006101000a81548160ff021916908360ff16021790555060208201518160000160016101000a81548160ff021916908360ff16021790555060408201518160000160026101000a81548160ff021916908360ff16021790555060608201518160000160036101000a81548160ff021916908360ff1602179055505050348015620000ca57600080fd5b506040518060400160405280600d81526020017f4d6f6e7374657220546f6b656e000000000000000000000000000000000000008152506040518060400160405280600781526020017f4d4f4e535445520000000000000000000000000000000000000000000000000081525081600090805190602001906200014f92919062000194565b5080600190805190602001906200016892919062000194565b50505060016010819055506000600f60006101000a81548160ff021916908315150217905550620002a9565b828054620001a29062000273565b90600052602060002090601f016020900481019282620001c6576000855562000212565b82601f10620001e157805160ff191683800117855562000212565b8280016001018555821562000212579182015b8281111562000211578251825591602001919060010190620001f4565b5b50905062000221919062000225565b5090565b5b808211156200024057600081600090555060010162000226565b5090565b7f4e487b7100000000000000000000000000000000000000000000000000000000600052602260045260246000fd5b600060028204905060018216806200028c57607f821691505b60208210811415620002a357620002a262000244565b5b50919050565b614baa80620002b96000396000f3fe60806040526004361061012e5760003560e01c80636352211e116100ab578063a22cb4651161006f578063a22cb465146104d9578063b88d4fde14610502578063b954803e1461052b578063c87b56dd14610554578063dff0bdaf14610591578063e985e9c5146105ba576101c4565b80636352211e146103cb5780636410381c1461040857806370a082311461043157806379a85e6c1461046e57806395d89b41146104ae576101c4565b80631dddf164116100f25780631dddf164146102c257806323b872dd146102ff57806323e3fbd514610328578063422666a71461036557806342842e0e146103a2576101c4565b806301ffc9a7146101c957806306fdde0314610206578063081812fc14610231578063095ea7b31461026e57806318160ddd14610297576101c4565b366101c45734600860003373ffffffffffffffffffffffffffffffffffffffff1673ffffffffffffffffffffffffffffffffffffffff168152602001908152602001600020600082825461018291906134a0565b925050819055507fefc0288202e432ade6bf71491d0001d7e389ad4f8e4e9c7aa038dd1a563efc6033346040516101ba929190613546565b60405180910390a1005b600080fd5b3480156101d557600080fd5b506101f060048036038101906101eb91906135db565b6105f7565b6040516101fd9190613623565b60405180910390f35b34801561021257600080fd5b5061021b6106d9565b60405161022891906136d7565b60405180910390f35b34801561023d57600080fd5b5061025860048036038101906102539190613725565b61076b565b6040516102659190613752565b60405180910390f35b34801561027a57600080fd5b5061029560048036038101906102909190613799565b6107f0565b005b3480156102a357600080fd5b506102ac610908565b6040516102b991906137d9565b60405180910390f35b3480156102ce57600080fd5b506102e960048036038101906102e49190613725565b610915565b6040516102f69190613865565b60405180910390f35b34801561030b57600080fd5b5061032660048036038101906103219190613880565b6109f5565b005b34801561033457600080fd5b5061034f600480360381019061034a91906138d3565b610aa6565b60405161035c91906137d9565b60405180910390f35b34801561037157600080fd5b5061038c60048036038101906103879190613725565b610b97565b6040516103999190613ad5565b60405180910390f35b3480156103ae57600080fd5b506103c960048036038101906103c49190613880565b610da4565b005b3480156103d757600080fd5b506103f260048036038101906103ed9190613725565b610dc4565b6040516103ff9190613752565b60405180910390f35b34801561041457600080fd5b5061042f600480360381019061042a9190613880565b610e76565b005b34801561043d57600080fd5b50610458600480360381019061045391906138d3565b61100d565b60405161046591906137d9565b60405180910390f35b34801561047a57600080fd5b5061049560048036038101906104909190613725565b6110c5565b6040516104a59493929190613b0f565b60405180910390f35b3480156104ba57600080fd5b506104c3611302565b6040516104d091906136d7565b60405180910390f35b3480156104e557600080fd5b5061050060048036038101906104fb9190613b80565b611394565b005b34801561050e57600080fd5b5061052960048036038101906105249190613cf5565b6113aa565b005b34801561053757600080fd5b50610552600480360381019061054d9190613d78565b61140c565b005b34801561056057600080fd5b5061057b60048036038101906105769190613725565b61147b565b60405161058891906136d7565b60405180910390f35b34801561059d57600080fd5b506105b860048036038101906105b39190613ddd565b6115cd565b005b3480156105c657600080fd5b506105e160048036038101906105dc9190613e0a565b61165e565b6040516105ee9190613623565b60405180910390f35b60007f80ac58cd000000000000000000000000000000000000000000000000000000007bffffffffffffffffffffffffffffffffffffffffffffffffffffffff1916827bffffffffffffffffffffffffffffffffffffffffffffffffffffffff191614806106c257507f5b5e139f000000000000000000000000000000000000000000000000000000007bffffffffffffffffffffffffffffffffffffffffffffffffffffffff1916827bffffffffffffffffffffffffffffffffffffffffffffffffffffffff1916145b806106d257506106d1826116f2565b5b9050919050565b6060600080546106e890613e79565b80601f016020809104026020016040519081016040528092919081815260200182805461071490613e79565b80156107615780601f1061073657610100808354040283529160200191610761565b820191906000526020600020905b81548152906001019060200180831161074457829003601f168201915b5050505050905090565b60006107768261175c565b6107b5576040517f08c379a00000000000000000000000000000000000000000000000000000000081526004016107ac90613f1d565b60405180910390fd5b6004600083815260200190815260200160002060009054906101000a900473ffffffffffffffffffffffffffffffffffffffff169050919050565b60006107fb82610dc4565b90508073ffffffffffffffffffffffffffffffffffffffff168373ffffffffffffffffffffffffffffffffffffffff16141561086c576040517f08c379a000000000000000000000000000000000000000000000000000000000815260040161086390613faf565b60405180910390fd5b8073ffffffffffffffffffffffffffffffffffffffff1661088b6117c8565b73ffffffffffffffffffffffffffffffffffffffff1614806108ba57506108b9816108b46117c8565b61165e565b5b6108f9576040517f08c379a00000000000000000000000000000000000000000000000000000000081526004016108f090614041565b60405180910390fd5b61090383836117d0565b505050565b6000600b80549050905090565b61091d6132f3565b816109278161175c565b61093057600080fd5b6000600c6000858152602001908152602001600020549050600b818154811061095c5761095b614061565b5b90600052602060002090600602016003016040518060800160405290816000820160009054906101000a900460ff1660ff1660ff1681526020016000820160019054906101000a900460ff1660ff1660ff1681526020016000820160029054906101000a900460ff1660ff1660ff1681526020016000820160039054906101000a900460ff1660ff1660ff168152505092505050919050565b8273ffffffffffffffffffffffffffffffffffffffff16610a1582610dc4565b73ffffffffffffffffffffffffffffffffffffffff1614610a3557600080fd5b6007600082815260200190815260200160002060009054906101000a900460ff168015610a8d57508173ffffffffffffffffffffffffffffffffffffffff163273ffffffffffffffffffffffffffffffffffffffff16145b610a9657600080fd5b610aa1838383611889565b505050565b60003273ffffffffffffffffffffffffffffffffffffffff168273ffffffffffffffffffffffffffffffffffffffff1614610ae057600080fd5b600073ffffffffffffffffffffffffffffffffffffffff168273ffffffffffffffffffffffffffffffffffffffff161415610b50576040517f08c379a0000000000000000000000000000000000000000000000000000000008152600401610b4790614102565b60405180910390fd5b600860008373ffffffffffffffffffffffffffffffffffffffff1673ffffffffffffffffffffffffffffffffffffffff168152602001908152602001600020549050919050565b610b9f613327565b81610ba98161175c565b610bb257600080fd5b6000600c6000858152602001908152602001600020549050600b8181548110610bde57610bdd614061565b5b906000526020600020906006020160405180610100016040529081600082015481526020016001820154815260200160028201548152602001600382016040518060800160405290816000820160009054906101000a900460ff1660ff1660ff1681526020016000820160019054906101000a900460ff1660ff1660ff1681526020016000820160029054906101000a900460ff1660ff1660ff1681526020016000820160039054906101000a900460ff1660ff1660ff16815250508152602001600482016040518060800160405290816000820160009054906101000a900460ff1660ff1660ff1681526020016000820160019054906101000a900460ff1660ff1660ff1681526020016000820160029054906101000a900460ff1660ff1660ff1681526020016000820160039054906101000a900460ff1660ff1660ff168152505081526020016005820160009054906101000a900460ff1660ff1660ff1681526020016005820160019054906101000a900460ff1660ff1660ff1681526020016005820160029054906101000a900460ff166002811115610d8557610d846139b9565b5b6002811115610d9757610d966139b9565b5b8152505092505050919050565b610dbf838383604051806020016040528060008152506113aa565b505050565b6000806002600084815260200190815260200160002060009054906101000a900473ffffffffffffffffffffffffffffffffffffffff169050600073ffffffffffffffffffffffffffffffffffffffff168173ffffffffffffffffffffffffffffffffffffffff161415610e6d576040517f08c379a0000000000000000000000000000000000000000000000000000000008152600401610e6490614194565b60405180910390fd5b80915050919050565b8273ffffffffffffffffffffffffffffffffffffffff163273ffffffffffffffffffffffffffffffffffffffff1614610eae57600080fd5b600073ffffffffffffffffffffffffffffffffffffffff168273ffffffffffffffffffffffffffffffffffffffff1614158015610f185750600073ffffffffffffffffffffffffffffffffffffffff168373ffffffffffffffffffffffffffffffffffffffff1614155b610f2157600080fd5b80600860008573ffffffffffffffffffffffffffffffffffffffff1673ffffffffffffffffffffffffffffffffffffffff1681526020019081526020016000206000828254610f7091906141b4565b9250508190555080600860008473ffffffffffffffffffffffffffffffffffffffff1673ffffffffffffffffffffffffffffffffffffffff1681526020019081526020016000206000828254610fc691906134a0565b925050819055507fb900e832b6eff259cf1fd6d12898306d28460d412e04f398c1a74a2af6013013838383604051611000939291906141e8565b60405180910390a1505050565b60008073ffffffffffffffffffffffffffffffffffffffff168273ffffffffffffffffffffffffffffffffffffffff16141561107e576040517f08c379a000000000000000000000000000000000000000000000000000000000815260040161107590614291565b60405180910390fd5b600360008373ffffffffffffffffffffffffffffffffffffffff1673ffffffffffffffffffffffffffffffffffffffff168152602001908152602001600020549050919050565b6000806110d06132f3565b6000846110dc8161175c565b6110e557600080fd5b6000600c60008881526020019081526020016000205490506000600b828154811061111357611112614061565b5b906000526020600020906006020160405180610100016040529081600082015481526020016001820154815260200160028201548152602001600382016040518060800160405290816000820160009054906101000a900460ff1660ff1660ff1681526020016000820160019054906101000a900460ff1660ff1660ff1681526020016000820160029054906101000a900460ff1660ff1660ff1681526020016000820160039054906101000a900460ff1660ff1660ff16815250508152602001600482016040518060800160405290816000820160009054906101000a900460ff1660ff1660ff1681526020016000820160019054906101000a900460ff1660ff1660ff1681526020016000820160029054906101000a900460ff1660ff1660ff1681526020016000820160039054906101000a900460ff1660ff1660ff168152505081526020016005820160009054906101000a900460ff1660ff1660ff1681526020016005820160019054906101000a900460ff1660ff1660ff1681526020016005820160029054906101000a900460ff1660028111156112ba576112b96139b9565b5b60028111156112cc576112cb6139b9565b5b81525050905060006112dd89610dc4565b9050808260a0015183606001518460e001519750975097509750505050509193509193565b60606001805461131190613e79565b80601f016020809104026020016040519081016040528092919081815260200182805461133d90613e79565b801561138a5780601f1061135f5761010080835404028352916020019161138a565b820191906000526020600020905b81548152906001019060200180831161136d57829003601f168201915b5050505050905090565b6113a661139f6117c8565b8383611af0565b5050565b6113bb6113b56117c8565b83611c5d565b6113fa576040517f08c379a00000000000000000000000000000000000000000000000000000000081526004016113f190614323565b60405180910390fd5b61140684848484611d3b565b50505050565b61141582610dc4565b73ffffffffffffffffffffffffffffffffffffffff163273ffffffffffffffffffffffffffffffffffffffff161461144c57600080fd5b806007600084815260200190815260200160002060006101000a81548160ff0219169083151502179055505050565b60606114868261175c565b6114c5576040517f08c379a00000000000000000000000000000000000000000000000000000000081526004016114bc906143b5565b60405180910390fd5b60006006600084815260200190815260200160002080546114e590613e79565b80601f016020809104026020016040519081016040528092919081815260200182805461151190613e79565b801561155e5780601f106115335761010080835404028352916020019161155e565b820191906000526020600020905b81548152906001019060200180831161154157829003601f168201915b50505050509050600061156f611d97565b90506000815114156115855781925050506115c8565b6000825111156115ba5780826040516020016115a2929190614411565b604051602081830303815290604052925050506115c8565b6115c384611dae565b925050505b919050565b61165b3360008060126040518060800160405290816000820160009054906101000a900460ff1660ff1660ff1681526020016000820160019054906101000a900460ff1660ff1660ff1681526020016000820160029054906101000a900460ff1660ff1660ff1681526020016000820160039054906101000a900460ff1660ff1660ff168152505085611e55565b50565b6000600560008473ffffffffffffffffffffffffffffffffffffffff1673ffffffffffffffffffffffffffffffffffffffff16815260200190815260200160002060008373ffffffffffffffffffffffffffffffffffffffff1673ffffffffffffffffffffffffffffffffffffffff16815260200190815260200160002060009054906101000a900460ff16905092915050565b60007f01ffc9a7000000000000000000000000000000000000000000000000000000007bffffffffffffffffffffffffffffffffffffffffffffffffffffffff1916827bffffffffffffffffffffffffffffffffffffffffffffffffffffffff1916149050919050565b60008073ffffffffffffffffffffffffffffffffffffffff166002600084815260200190815260200160002060009054906101000a900473ffffffffffffffffffffffffffffffffffffffff1673ffffffffffffffffffffffffffffffffffffffff1614159050919050565b600033905090565b816004600083815260200190815260200160002060006101000a81548173ffffffffffffffffffffffffffffffffffffffff021916908373ffffffffffffffffffffffffffffffffffffffff160217905550808273ffffffffffffffffffffffffffffffffffffffff1661184383610dc4565b73ffffffffffffffffffffffffffffffffffffffff167f8c5be1e5ebec7d5bd14f71427d1e84f3dd0314c0f7b2291e5b200ac8c7c3b92560405160405180910390a45050565b8273ffffffffffffffffffffffffffffffffffffffff166118a982610dc4565b73ffffffffffffffffffffffffffffffffffffffff16146118ff576040517f08c379a00000000000000000000000000000000000000000000000000000000081526004016118f6906144a7565b60405180910390fd5b600073ffffffffffffffffffffffffffffffffffffffff168273ffffffffffffffffffffffffffffffffffffffff16141561196f576040517f08c379a000000000000000000000000000000000000000000000000000000000815260040161196690614539565b60405180910390fd5b61197a8383836121b2565b6119856000826117d0565b6001600360008573ffffffffffffffffffffffffffffffffffffffff1673ffffffffffffffffffffffffffffffffffffffff16815260200190815260200160002060008282546119d591906141b4565b925050819055506001600360008473ffffffffffffffffffffffffffffffffffffffff1673ffffffffffffffffffffffffffffffffffffffff1681526020019081526020016000206000828254611a2c91906134a0565b92505081905550816002600083815260200190815260200160002060006101000a81548173ffffffffffffffffffffffffffffffffffffffff021916908373ffffffffffffffffffffffffffffffffffffffff160217905550808273ffffffffffffffffffffffffffffffffffffffff168473ffffffffffffffffffffffffffffffffffffffff167fddf252ad1be2c89b69c2b068fc378daa952ba7f163c4a11628f55a4df523b3ef60405160405180910390a4611aeb8383836122bd565b505050565b8173ffffffffffffffffffffffffffffffffffffffff168373ffffffffffffffffffffffffffffffffffffffff161415611b5f576040517f08c379a0000000000000000000000000000000000000000000000000000000008152600401611b56906145a5565b60405180910390fd5b80600560008573ffffffffffffffffffffffffffffffffffffffff1673ffffffffffffffffffffffffffffffffffffffff16815260200190815260200160002060008473ffffffffffffffffffffffffffffffffffffffff1673ffffffffffffffffffffffffffffffffffffffff16815260200190815260200160002060006101000a81548160ff0219169083151502179055508173ffffffffffffffffffffffffffffffffffffffff168373ffffffffffffffffffffffffffffffffffffffff167f17307eab39ab6107e8899845ad3d59bd9653f200f220920489ca2b5937696c3183604051611c509190613623565b60405180910390a3505050565b6000611c688261175c565b611ca7576040517f08c379a0000000000000000000000000000000000000000000000000000000008152600401611c9e90614637565b60405180910390fd5b6000611cb283610dc4565b90508073ffffffffffffffffffffffffffffffffffffffff168473ffffffffffffffffffffffffffffffffffffffff161480611cf45750611cf3818561165e565b5b80611d3257508373ffffffffffffffffffffffffffffffffffffffff16611d1a8461076b565b73ffffffffffffffffffffffffffffffffffffffff16145b91505092915050565b611d46848484611889565b611d52848484846122c2565b611d91576040517f08c379a0000000000000000000000000000000000000000000000000000000008152600401611d88906146c9565b60405180910390fd5b50505050565b606060405180602001604052806000815250905090565b6060611db98261175c565b611df8576040517f08c379a0000000000000000000000000000000000000000000000000000000008152600401611def9061475b565b60405180910390fd5b6000611e02611d97565b90506000815111611e225760405180602001604052806000815250611e4d565b80611e2c84612459565b604051602001611e3d929190614411565b6040516020818303038152906040525b915050919050565b6000611e6086610aa6565b90506011548134611e7191906134a0565b1015611e7c57600080fd5b5b600f60009054906101000a900460ff1615611e9757611e7d565b6001600f60006101000a81548160ff02191690831515021790555060006001611ebe610908565b611ec891906141b4565b9050600060105490506000611ede8660016125ba565b905060006040518061010001604052808481526020018a8152602001898152602001838152602001888152602001600160ff168152602001600a60ff168152602001876002811115611f3357611f326139b9565b5b8152509050611f4181612667565b611f4a57600080fd5b600b81908060018154018082558091505060019003906000526020600020906006020160009091909190915060008201518160000155602082015181600101556040820151816002015560608201518160030160008201518160000160006101000a81548160ff021916908360ff16021790555060208201518160000160016101000a81548160ff021916908360ff16021790555060408201518160000160026101000a81548160ff021916908360ff16021790555060608201518160000160036101000a81548160ff021916908360ff160217905550505060808201518160040160008201518160000160006101000a81548160ff021916908360ff16021790555060208201518160000160016101000a81548160ff021916908360ff16021790555060408201518160000160026101000a81548160ff021916908360ff16021790555060608201518160000160036101000a81548160ff021916908360ff160217905550505060a08201518160050160006101000a81548160ff021916908360ff16021790555060c08201518160050160016101000a81548160ff021916908360ff16021790555060e08201518160050160026101000a81548160ff0219169083600281111561211f5761211e6139b9565b5b02179055505050601060008154809291906121399061477b565b91905055506000600f60006101000a81548160ff02191690831515021790555083600c60008581526020019081526020016000208190555061217b8a84612766565b600061218a8260e00151612784565b905060008151141561219b57600080fd5b6121a584826128cb565b5050505050505050505050565b6121bd83838361293f565b600073ffffffffffffffffffffffffffffffffffffffff168373ffffffffffffffffffffffffffffffffffffffff1614156121f757612236565b8173ffffffffffffffffffffffffffffffffffffffff168373ffffffffffffffffffffffffffffffffffffffff1614612235576122348382612944565b5b5b600073ffffffffffffffffffffffffffffffffffffffff168273ffffffffffffffffffffffffffffffffffffffff1614156122795761227481612ab1565b6122b8565b8273ffffffffffffffffffffffffffffffffffffffff168273ffffffffffffffffffffffffffffffffffffffff16146122b7576122b68282612fee565b5b5b505050565b505050565b60006122e38473ffffffffffffffffffffffffffffffffffffffff1661306d565b1561244c578373ffffffffffffffffffffffffffffffffffffffff1663150b7a0261230c6117c8565b8786866040518563ffffffff1660e01b815260040161232e9493929190614819565b602060405180830381600087803b15801561234857600080fd5b505af192505050801561237957506040513d601f19601f82011682018060405250810190612376919061487a565b60015b6123fc573d80600081146123a9576040519150601f19603f3d011682016040523d82523d6000602084013e6123ae565b606091505b506000815114156123f4576040517f08c379a00000000000000000000000000000000000000000000000000000000081526004016123eb906146c9565b60405180910390fd5b805181602001fd5b63150b7a0260e01b7bffffffffffffffffffffffffffffffffffffffffffffffffffffffff1916817bffffffffffffffffffffffffffffffffffffffffffffffffffffffff191614915050612451565b600190505b949350505050565b606060008214156124a1576040518060400160405280600181526020017f300000000000000000000000000000000000000000000000000000000000000081525090506125b5565b600082905060005b600082146124d35780806124bc9061477b565b915050600a826124cc91906148d6565b91506124a9565b60008167ffffffffffffffff8111156124ef576124ee613bca565b5b6040519080825280601f01601f1916602001820160405280156125215781602001600182028036833780820191505090505b5090505b600085146125ae5760018261253a91906141b4565b9150600a856125499190614907565b603061255591906134a0565b60f81b81838151811061256b5761256a614061565b5b60200101907effffffffffffffffffffffffffffffffffffffffffffffffffffffffffffff1916908160001a905350600a856125a791906148d6565b9450612525565b8093505050505b919050565b6125c26132f3565b6125ca6132f3565b8260056125db866000015186613090565b6125e59190614938565b6125ef9190614938565b816000019060ff16908160ff168152505061260e846060015184613090565b816060019060ff16908160ff168152505061262d846040015184613090565b816040019060ff16908160ff168152505061264c846020015184613090565b816020019060ff16908160ff16815250508091505092915050565b60008082600001511180156126875750600082606001516000015160ff16115b801561269e5750600082606001516020015160ff16115b80156126b55750600082606001516040015160ff16115b80156126cc5750600082606001516060015160ff16115b80156126e45750601f82608001516000015160ff1611155b80156126fc5750601f82608001516020015160ff1611155b80156127145750601f82608001516040015160ff1611155b801561272c5750601f82608001516060015160ff1611155b80156127405750601f8260a0015160ff1611155b8015612754575060008260c0015160ff1614155b61275d57600080fd5b60019050919050565b6127808282604051806020016040528060008152506130be565b5050565b6060806000600281111561279b5761279a6139b9565b5b8360028111156127ae576127ad6139b9565b5b14156127f1576040518060400160405280601b81526020017f2e2e2f7075626c69632f696d616765732f647261676f6e2e706e67000000000081525090506128c2565b600280811115612804576128036139b9565b5b836002811115612817576128166139b9565b5b141561285a576040518060400160405280601d81526020017f2e2e2f7075626c69632f696d616765732f676172676f796c652e706e6700000081525090506128c1565b6001600281111561286e5761286d6139b9565b5b836002811115612881576128806139b9565b5b14156128c0576040518060400160405280601a81526020017f2e2e2f7075626c69632f696d616765732f67686f73742e706e6700000000000081525090505b5b5b80915050919050565b6128d48261175c565b612913576040517f08c379a000000000000000000000000000000000000000000000000000000000815260040161290a906149e1565b60405180910390fd5b8060066000848152602001908152602001600020908051906020019061293a929190613390565b505050565b505050565b600060016129518461100d565b61295b91906141b4565b90506000600e6000848152602001908152602001600020549050818114612a40576000600d60008673ffffffffffffffffffffffffffffffffffffffff1673ffffffffffffffffffffffffffffffffffffffff168152602001908152602001600020600084815260200190815260200160002054905080600d60008773ffffffffffffffffffffffffffffffffffffffff1673ffffffffffffffffffffffffffffffffffffffff16815260200190815260200160002060008481526020019081526020016000208190555081600e600083815260200190815260200160002081905550505b600e600084815260200190815260200160002060009055600d60008573ffffffffffffffffffffffffffffffffffffffff1673ffffffffffffffffffffffffffffffffffffffff16815260200190815260200160002060008381526020019081526020016000206000905550505050565b60006001600b80549050612ac591906141b4565b90506000600c60008481526020019081526020016000205490506000600b8381548110612af557612af4614061565b5b906000526020600020906006020160405180610100016040529081600082015481526020016001820154815260200160028201548152602001600382016040518060800160405290816000820160009054906101000a900460ff1660ff1660ff1681526020016000820160019054906101000a900460ff1660ff1660ff1681526020016000820160029054906101000a900460ff1660ff1660ff1681526020016000820160039054906101000a900460ff1660ff1660ff16815250508152602001600482016040518060800160405290816000820160009054906101000a900460ff1660ff1660ff1681526020016000820160019054906101000a900460ff1660ff1660ff1681526020016000820160029054906101000a900460ff1660ff1660ff1681526020016000820160039054906101000a900460ff1660ff1660ff168152505081526020016005820160009054906101000a900460ff1660ff1660ff1681526020016005820160019054906101000a900460ff1660ff1660ff1681526020016005820160029054906101000a900460ff166002811115612c9c57612c9b6139b9565b5b6002811115612cae57612cad6139b9565b5b81525050905080600b8381548110612cc957612cc8614061565b5b906000526020600020906006020160008201518160000155602082015181600101556040820151816002015560608201518160030160008201518160000160006101000a81548160ff021916908360ff16021790555060208201518160000160016101000a81548160ff021916908360ff16021790555060408201518160000160026101000a81548160ff021916908360ff16021790555060608201518160000160036101000a81548160ff021916908360ff160217905550505060808201518160040160008201518160000160006101000a81548160ff021916908360ff16021790555060208201518160000160016101000a81548160ff021916908360ff16021790555060408201518160000160026101000a81548160ff021916908360ff16021790555060608201518160000160036101000a81548160ff021916908360ff160217905550505060a08201518160050160006101000a81548160ff021916908360ff16021790555060c08201518160050160016101000a81548160ff021916908360ff16021790555060e08201518160050160026101000a81548160ff02191690836002811115612e8057612e7f6139b9565b5b021790555090505081600c60008360000151815260200190815260200160002081905550600c600085815260200190815260200160002060009055600b805480612ecd57612ecc614a01565b5b60019003818190600052602060002090600602016000808201600090556001820160009055600282016000905560038201600080820160006101000a81549060ff02191690556000820160016101000a81549060ff02191690556000820160026101000a81549060ff02191690556000820160036101000a81549060ff0219169055505060048201600080820160006101000a81549060ff02191690556000820160016101000a81549060ff02191690556000820160026101000a81549060ff02191690556000820160036101000a81549060ff021916905550506005820160006101000a81549060ff02191690556005820160016101000a81549060ff02191690556005820160026101000a81549060ff02191690555050905550505050565b6000612ff98361100d565b905081600d60008573ffffffffffffffffffffffffffffffffffffffff1673ffffffffffffffffffffffffffffffffffffffff16815260200190815260200160002060008381526020019081526020016000208190555080600e600084815260200190815260200160002081905550505050565b6000808273ffffffffffffffffffffffffffffffffffffffff163b119050919050565b60006005600a83856130a29190614a30565b6130ac9190614a6b565b6130b69190614938565b905092915050565b6130c88383613119565b6130d560008484846122c2565b613114576040517f08c379a000000000000000000000000000000000000000000000000000000000815260040161310b906146c9565b60405180910390fd5b505050565b600073ffffffffffffffffffffffffffffffffffffffff168273ffffffffffffffffffffffffffffffffffffffff161415613189576040517f08c379a000000000000000000000000000000000000000000000000000000000815260040161318090614ae8565b60405180910390fd5b6131928161175c565b156131d2576040517f08c379a00000000000000000000000000000000000000000000000000000000081526004016131c990614b54565b60405180910390fd5b6131de600083836121b2565b6001600360008473ffffffffffffffffffffffffffffffffffffffff1673ffffffffffffffffffffffffffffffffffffffff168152602001908152602001600020600082825461322e91906134a0565b92505081905550816002600083815260200190815260200160002060006101000a81548173ffffffffffffffffffffffffffffffffffffffff021916908373ffffffffffffffffffffffffffffffffffffffff160217905550808273ffffffffffffffffffffffffffffffffffffffff16600073ffffffffffffffffffffffffffffffffffffffff167fddf252ad1be2c89b69c2b068fc378daa952ba7f163c4a11628f55a4df523b3ef60405160405180910390a46132ef600083836122bd565b5050565b6040518060800160405280600060ff168152602001600060ff168152602001600060ff168152602001600060ff1681525090565b6040518061010001604052806000815260200160008152602001600081526020016133506132f3565b815260200161335d613416565b8152602001600060ff168152602001600060ff1681526020016000600281111561338a576133896139b9565b5b81525090565b82805461339c90613e79565b90600052602060002090601f0160209004810192826133be5760008555613405565b82601f106133d757805160ff1916838001178555613405565b82800160010185558215613405579182015b828111156134045782518255916020019190600101906133e9565b5b509050613412919061344a565b5090565b6040518060800160405280600060ff168152602001600060ff168152602001600060ff168152602001600060ff1681525090565b5b8082111561346357600081600090555060010161344b565b5090565b6000819050919050565b7f4e487b7100000000000000000000000000000000000000000000000000000000600052601160045260246000fd5b60006134ab82613467565b91506134b683613467565b9250827fffffffffffffffffffffffffffffffffffffffffffffffffffffffffffffffff038211156134eb576134ea613471565b5b828201905092915050565b600073ffffffffffffffffffffffffffffffffffffffff82169050919050565b6000613521826134f6565b9050919050565b61353181613516565b82525050565b61354081613467565b82525050565b600060408201905061355b6000830185613528565b6135686020830184613537565b9392505050565b6000604051905090565b600080fd5b600080fd5b60007fffffffff0000000000000000000000000000000000000000000000000000000082169050919050565b6135b881613583565b81146135c357600080fd5b50565b6000813590506135d5816135af565b92915050565b6000602082840312156135f1576135f0613579565b5b60006135ff848285016135c6565b91505092915050565b60008115159050919050565b61361d81613608565b82525050565b60006020820190506136386000830184613614565b92915050565b600081519050919050565b600082825260208201905092915050565b60005b8381101561367857808201518184015260208101905061365d565b83811115613687576000848401525b50505050565b6000601f19601f8301169050919050565b60006136a98261363e565b6136b38185613649565b93506136c381856020860161365a565b6136cc8161368d565b840191505092915050565b600060208201905081810360008301526136f1818461369e565b905092915050565b61370281613467565b811461370d57600080fd5b50565b60008135905061371f816136f9565b92915050565b60006020828403121561373b5761373a613579565b5b600061374984828501613710565b91505092915050565b60006020820190506137676000830184613528565b92915050565b61377681613516565b811461378157600080fd5b50565b6000813590506137938161376d565b92915050565b600080604083850312156137b0576137af613579565b5b60006137be85828601613784565b92505060206137cf85828601613710565b9150509250929050565b60006020820190506137ee6000830184613537565b92915050565b600060ff82169050919050565b61380a816137f4565b82525050565b6080820160008201516138266000850182613801565b5060208201516138396020850182613801565b50604082015161384c6040850182613801565b50606082015161385f6060850182613801565b50505050565b600060808201905061387a6000830184613810565b92915050565b60008060006060848603121561389957613898613579565b5b60006138a786828701613784565b93505060206138b886828701613784565b92505060406138c986828701613710565b9150509250925092565b6000602082840312156138e9576138e8613579565b5b60006138f784828501613784565b91505092915050565b61390981613467565b82525050565b6080820160008201516139256000850182613801565b5060208201516139386020850182613801565b50604082015161394b6040850182613801565b50606082015161395e6060850182613801565b50505050565b60808201600082015161397a6000850182613801565b50602082015161398d6020850182613801565b5060408201516139a06040850182613801565b5060608201516139b36060850182613801565b50505050565b7f4e487b7100000000000000000000000000000000000000000000000000000000600052602160045260246000fd5b600381106139f9576139f86139b9565b5b50565b6000819050613a0a826139e8565b919050565b6000613a1a826139fc565b9050919050565b613a2a81613a0f565b82525050565b6101c082016000820151613a476000850182613900565b506020820151613a5a6020850182613900565b506040820151613a6d6040850182613900565b506060820151613a80606085018261390f565b506080820151613a9360e0850182613964565b5060a0820151613aa7610160850182613801565b5060c0820151613abb610180850182613801565b5060e0820151613acf6101a0850182613a21565b50505050565b60006101c082019050613aeb6000830184613a30565b92915050565b613afa816137f4565b82525050565b613b0981613a0f565b82525050565b600060e082019050613b246000830187613528565b613b316020830186613af1565b613b3e6040830185613810565b613b4b60c0830184613b00565b95945050505050565b613b5d81613608565b8114613b6857600080fd5b50565b600081359050613b7a81613b54565b92915050565b60008060408385031215613b9757613b96613579565b5b6000613ba585828601613784565b9250506020613bb685828601613b6b565b9150509250929050565b600080fd5b600080fd5b7f4e487b7100000000000000000000000000000000000000000000000000000000600052604160045260246000fd5b613c028261368d565b810181811067ffffffffffffffff82111715613c2157613c20613bca565b5b80604052505050565b6000613c3461356f565b9050613c408282613bf9565b919050565b600067ffffffffffffffff821115613c6057613c5f613bca565b5b613c698261368d565b9050602081019050919050565b82818337600083830152505050565b6000613c98613c9384613c45565b613c2a565b905082815260208101848484011115613cb457613cb3613bc5565b5b613cbf848285613c76565b509392505050565b600082601f830112613cdc57613cdb613bc0565b5b8135613cec848260208601613c85565b91505092915050565b60008060008060808587031215613d0f57613d0e613579565b5b6000613d1d87828801613784565b9450506020613d2e87828801613784565b9350506040613d3f87828801613710565b925050606085013567ffffffffffffffff811115613d6057613d5f61357e565b5b613d6c87828801613cc7565b91505092959194509250565b60008060408385031215613d8f57613d8e613579565b5b6000613d9d85828601613710565b9250506020613dae85828601613b6b565b9150509250929050565b60038110613dc557600080fd5b50565b600081359050613dd781613db8565b92915050565b600060208284031215613df357613df2613579565b5b6000613e0184828501613dc8565b91505092915050565b60008060408385031215613e2157613e20613579565b5b6000613e2f85828601613784565b9250506020613e4085828601613784565b9150509250929050565b7f4e487b7100000000000000000000000000000000000000000000000000000000600052602260045260246000fd5b60006002820490506001821680613e9157607f821691505b60208210811415613ea557613ea4613e4a565b5b50919050565b7f4552433732313a20617070726f76656420717565727920666f72206e6f6e657860008201527f697374656e7420746f6b656e0000000000000000000000000000000000000000602082015250565b6000613f07602c83613649565b9150613f1282613eab565b604082019050919050565b60006020820190508181036000830152613f3681613efa565b9050919050565b7f4552433732313a20617070726f76616c20746f2063757272656e74206f776e6560008201527f7200000000000000000000000000000000000000000000000000000000000000602082015250565b6000613f99602183613649565b9150613fa482613f3d565b604082019050919050565b60006020820190508181036000830152613fc881613f8c565b9050919050565b7f4552433732313a20617070726f76652063616c6c6572206973206e6f74206f7760008201527f6e6572206e6f7220617070726f76656420666f7220616c6c0000000000000000602082015250565b600061402b603883613649565b915061403682613fcf565b604082019050919050565b6000602082019050818103600083015261405a8161401e565b9050919050565b7f4e487b7100000000000000000000000000000000000000000000000000000000600052603260045260246000fd5b7f6465706f73697420717565727920666f7220746865207a65726f20616464726560008201527f7373000000000000000000000000000000000000000000000000000000000000602082015250565b60006140ec602283613649565b91506140f782614090565b604082019050919050565b6000602082019050818103600083015261411b816140df565b9050919050565b7f4552433732313a206f776e657220717565727920666f72206e6f6e657869737460008201527f656e7420746f6b656e0000000000000000000000000000000000000000000000602082015250565b600061417e602983613649565b915061418982614122565b604082019050919050565b600060208201905081810360008301526141ad81614171565b9050919050565b60006141bf82613467565b91506141ca83613467565b9250828210156141dd576141dc613471565b5b828203905092915050565b60006060820190506141fd6000830186613528565b61420a6020830185613528565b6142176040830184613537565b949350505050565b7f4552433732313a2062616c616e636520717565727920666f7220746865207a6560008201527f726f206164647265737300000000000000000000000000000000000000000000602082015250565b600061427b602a83613649565b91506142868261421f565b604082019050919050565b600060208201905081810360008301526142aa8161426e565b9050919050565b7f4552433732313a207472616e736665722063616c6c6572206973206e6f74206f60008201527f776e6572206e6f7220617070726f766564000000000000000000000000000000602082015250565b600061430d603183613649565b9150614318826142b1565b604082019050919050565b6000602082019050818103600083015261433c81614300565b9050919050565b7f45524337323155524953746f726167653a2055524920717565727920666f722060008201527f6e6f6e6578697374656e7420746f6b656e000000000000000000000000000000602082015250565b600061439f603183613649565b91506143aa82614343565b604082019050919050565b600060208201905081810360008301526143ce81614392565b9050919050565b600081905092915050565b60006143eb8261363e565b6143f581856143d5565b935061440581856020860161365a565b80840191505092915050565b600061441d82856143e0565b915061442982846143e0565b91508190509392505050565b7f4552433732313a207472616e736665722066726f6d20696e636f72726563742060008201527f6f776e6572000000000000000000000000000000000000000000000000000000602082015250565b6000614491602583613649565b915061449c82614435565b604082019050919050565b600060208201905081810360008301526144c081614484565b9050919050565b7f4552433732313a207472616e7366657220746f20746865207a65726f2061646460008201527f7265737300000000000000000000000000000000000000000000000000000000602082015250565b6000614523602483613649565b915061452e826144c7565b604082019050919050565b6000602082019050818103600083015261455281614516565b9050919050565b7f4552433732313a20617070726f766520746f2063616c6c657200000000000000600082015250565b600061458f601983613649565b915061459a82614559565b602082019050919050565b600060208201905081810360008301526145be81614582565b9050919050565b7f4552433732313a206f70657261746f7220717565727920666f72206e6f6e657860008201527f697374656e7420746f6b656e0000000000000000000000000000000000000000602082015250565b6000614621602c83613649565b915061462c826145c5565b604082019050919050565b6000602082019050818103600083015261465081614614565b9050919050565b7f4552433732313a207472616e7366657220746f206e6f6e20455243373231526560008201527f63656976657220696d706c656d656e7465720000000000000000000000000000602082015250565b60006146b3603283613649565b91506146be82614657565b604082019050919050565b600060208201905081810360008301526146e2816146a6565b9050919050565b7f4552433732314d657461646174613a2055524920717565727920666f72206e6f60008201527f6e6578697374656e7420746f6b656e0000000000000000000000000000000000602082015250565b6000614745602f83613649565b9150614750826146e9565b604082019050919050565b6000602082019050818103600083015261477481614738565b9050919050565b600061478682613467565b91507fffffffffffffffffffffffffffffffffffffffffffffffffffffffffffffffff8214156147b9576147b8613471565b5b600182019050919050565b600081519050919050565b600082825260208201905092915050565b60006147eb826147c4565b6147f581856147cf565b935061480581856020860161365a565b61480e8161368d565b840191505092915050565b600060808201905061482e6000830187613528565b61483b6020830186613528565b6148486040830185613537565b818103606083015261485a81846147e0565b905095945050505050565b600081519050614874816135af565b92915050565b6000602082840312156148905761488f613579565b5b600061489e84828501614865565b91505092915050565b7f4e487b7100000000000000000000000000000000000000000000000000000000600052601260045260246000fd5b60006148e182613467565b91506148ec83613467565b9250826148fc576148fb6148a7565b5b828204905092915050565b600061491282613467565b915061491d83613467565b92508261492d5761492c6148a7565b5b828206905092915050565b6000614943826137f4565b915061494e836137f4565b92508260ff0382111561496457614963613471565b5b828201905092915050565b7f45524337323155524953746f726167653a2055524920736574206f66206e6f6e60008201527f6578697374656e7420746f6b656e000000000000000000000000000000000000602082015250565b60006149cb602e83613649565b91506149d68261496f565b604082019050919050565b600060208201905081810360008301526149fa816149be565b9050919050565b7f4e487b7100000000000000000000000000000000000000000000000000000000600052603160045260246000fd5b6000614a3b826137f4565b9150614a46836137f4565b92508160ff0483118215151615614a6057614a5f613471565b5b828202905092915050565b6000614a76826137f4565b9150614a81836137f4565b925082614a9157614a906148a7565b5b828204905092915050565b7f4552433732313a206d696e7420746f20746865207a65726f2061646472657373600082015250565b6000614ad2602083613649565b9150614add82614a9c565b602082019050919050565b60006020820190508181036000830152614b0181614ac5565b9050919050565b7f4552433732313a20746f6b656e20616c7265616479206d696e74656400000000600082015250565b6000614b3e601c83613649565b9150614b4982614b08565b602082019050919050565b60006020820190508181036000830152614b6d81614b31565b905091905056fea2646970667358221220fee6c1f4e6482c5adfad1f446445417c8a3e6e4c5019fbdaf03e04060589baee64736f6c63430008090033",
  "immutableReferences": {},
  "source": "pragma solidity ^0.8.9;\r\n\r\nimport \"../node_modules/@openzeppelin/contracts/token/ERC721/ERC721.sol\";\r\nimport \"../node_modules/@openzeppelin/contracts/token/ERC721/extensions/ERC721Enumerable.sol\";\r\nimport \"../node_modules/@openzeppelin/contracts/token/ERC721/extensions/ERC721URIStorage.sol\";\r\nimport \"./MonsterLib.sol\";\r\n\r\ncontract MonsterToken is  ERC721URIStorage {\r\n\r\n    event LevelUp(MonsterLib.Statistics, MonsterLib.Statistics);\r\n    event TransferMoney(address, address, uint);\r\n\r\n    string constant imagePath = \"../public/images/\";\r\n\r\n    event ReceiveEth(address from, uint256 amount);\r\n\r\n    //Mapping monster Id to a boolean \r\n    mapping(uint => bool) private _readyToSell;\r\n    // Mapping owner address to ETH balance\r\n    mapping(address => uint) private _deposit;\r\n\r\n    // Mapping from token ID to approved address\r\n    mapping(uint256 => address) private _tokenApprovals;\r\n\r\n    // Mapping from owner to operator approvals\r\n    mapping(address => mapping(address => bool)) private _operatorApprovals;\r\n\r\n    // Array with all token ids, used for enumeration\r\n    MonsterLib.Monster[] private _allMonsters;\r\n\r\n    // Mapping from token id to position in the allTokens array\r\n    mapping(uint256 => uint256) private _allTokensIndex;\r\n\r\n    // Mapping from owner to list of owned token IDs\r\n    mapping(address => mapping(uint256 => uint256)) private _ownedTokens;\r\n\r\n    // Mapping from token ID to index of the owner tokens list\r\n    mapping(uint256 => uint256) private _ownedTokensIndex;\r\n\r\n    //True when some one storing their new monsters\r\n    bool isPushing;\r\n\r\n    uint256 private IdCount;\r\n\r\n    uint256 private createFee;\r\n\r\n    MonsterLib.IndividualValue initialIV = MonsterLib.IndividualValue(5,5,5,5);\r\n\r\n    constructor() ERC721(\"Monster Token\", \"MONSTER\") {\r\n        IdCount = 1;\r\n        isPushing = false;\r\n\r\n    }\r\n\r\n    modifier _tokenExist(uint256 _tokenId){\r\n        require(_exists(_tokenId));\r\n        _;\r\n    }\r\n\r\n    function depositOf(address owner) public view returns (uint256){\r\n        require(owner == tx.origin);\r\n        require(owner != address(0), \"deposit query for the zero address\");\r\n        return _deposit[owner];\r\n    }\r\n\r\n    function totalSupply() public view returns (uint256){\r\n        return _allMonsters.length;\r\n    }\r\n    /**\r\n     *@dev Pay ETH to get a default monster from contract\r\n     */\r\n    function getInitialMonster(MonsterLib.Race race) public{\r\n        _createNewMonster(msg.sender, 0, 0,initialIV, race);\r\n\r\n    }\r\n\r\n    /**\r\n     *@dev create a new monster from contract, this monter can be default monster or come from breeding\r\n     */\r\n\r\n    function _createNewMonster(address to, uint256 mumId, uint256 dadId, MonsterLib.IndividualValue memory iv, MonsterLib.Race race) internal {\r\n        uint256 _depo = depositOf(to);\r\n        require(msg.value + _depo >= createFee);\r\n        while(isPushing){\r\n\r\n        }\r\n        isPushing = true;\r\n        uint256 _monsterIndex = totalSupply() - 1;\r\n        uint256 _monsterId = IdCount;\r\n        MonsterLib.Statistics memory statc = MonsterLib._calculateStatc(iv, 1);\r\n        MonsterLib.Monster memory monster = MonsterLib.Monster(_monsterId, mumId, dadId, statc, iv, 1, 1*10, race);\r\n        require(MonsterLib._checkMonsterValid(monster));\r\n        _allMonsters.push(monster);\r\n        IdCount ++;\r\n        isPushing = false;\r\n        _allTokensIndex[_monsterId] = _monsterIndex;\r\n        _safeMint(to, _monsterId);\r\n        string memory _monsterURI = _monsterURIByRace(monster.race);\r\n        require (bytes(_monsterURI).length != 0);\r\n        _setTokenURI(_monsterId, _monsterURI);\r\n    }\r\n\r\n\r\n        /**\r\n     * @dev Hook that is called before any token transfer. This includes minting\r\n     * and burning.\r\n     *\r\n     * Calling conditions:\r\n     *\r\n     * - When `from` and `to` are both non-zero, ``from``'s `tokenId` will be\r\n     * transferred to `to`.\r\n     * - When `from` is zero, `tokenId` will be minted for `to`.\r\n     * - When `to` is zero, ``from``'s `tokenId` will be burned.\r\n     * - `from` cannot be the zero address.\r\n     * - `to` cannot be the zero address.\r\n     *\r\n     * To learn more about hooks, head to xref:ROOT:extending-contracts.adoc#using-hooks[Using Hooks].\r\n     */\r\n    function _beforeTokenTransfer(\r\n        address from,\r\n        address to,\r\n        uint256 tokenId\r\n    ) internal override {\r\n        super._beforeTokenTransfer(from, to, tokenId);\r\n\r\n        if (from == address(0)) {\r\n            //This monster has been added before\r\n        } else if (from != to) {\r\n            _removeMonsterFromOwnerEnumeration(from, tokenId);\r\n        }\r\n        if (to == address(0)) {\r\n            _removeMonsterFromAllTokensEnumeration(tokenId);\r\n        } else if (to != from) {\r\n            _addMonsterToOwnerEnumeration(to, tokenId);\r\n        }\r\n    }\r\n        /**\r\n     * @dev Private function to add a token to this extension's ownership-tracking data structures.\r\n     * @param to address representing the new owner of the given token ID\r\n     * @param tokenId uint256 ID of the token to be added to the tokens list of the given address\r\n     */\r\n    function _addMonsterToOwnerEnumeration(address to, uint256 tokenId) private{\r\n        uint256 length = ERC721.balanceOf(to);\r\n        _ownedTokens[to][length] = tokenId;\r\n        _ownedTokensIndex[tokenId] = length;\r\n    }\r\n\r\n\r\n    /**\r\n     * @dev Private function to remove a token from this extension's ownership-tracking data structures. Note that\r\n     * while the token is not assigned a new owner, the `_ownedTokensIndex` mapping is _not_ updated: this allows for\r\n     * gas optimizations e.g. when performing a transfer operation (avoiding double writes).\r\n     * This has O(1) time complexity, but alters the order of the _ownedTokens array.\r\n     * @param from address representing the previous owner of the given token ID\r\n     * @param tokenId uint256 ID of the token to be removed from the tokens list of the given address\r\n     */\r\n    function _removeMonsterFromOwnerEnumeration(address from, uint256 tokenId) private {\r\n        // To prevent a gap in from's tokens array, we store the last token in the index of the token to delete, and\r\n        // then delete the last slot (swap and pop).\r\n\r\n        uint256 lastTokenIndex = ERC721.balanceOf(from) - 1;\r\n        uint256 tokenIndex = _ownedTokensIndex[tokenId];\r\n\r\n        // When the token to delete is the last token, the swap operation is unnecessary\r\n        if (tokenIndex != lastTokenIndex) {\r\n            uint256 lastTokenId = _ownedTokens[from][lastTokenIndex];\r\n\r\n            _ownedTokens[from][tokenIndex] = lastTokenId; // Move the last token to the slot of the to-delete token\r\n            _ownedTokensIndex[lastTokenId] = tokenIndex; // Update the moved token's index\r\n        }\r\n\r\n        // This also deletes the contents at the last position of the array\r\n        delete _ownedTokensIndex[tokenId];\r\n        delete _ownedTokens[from][lastTokenIndex];\r\n    }\r\n\r\n    /**\r\n     * @dev Private function to remove a token from this extension's token tracking data structures.\r\n     * This has O(1) time complexity, but alters the order of the _allTokens array.\r\n     * @param tokenId uint256 ID of the token to be removed from the tokens list\r\n     */\r\n    function _removeMonsterFromAllTokensEnumeration(uint256 tokenId) private  {\r\n        // To prevent a gap in the tokens array, we store the last token in the index of the token to delete, and\r\n        // then delete the last slot (swap and pop).\r\n\r\n        uint256 lastTokenIndex = _allMonsters.length - 1;\r\n        uint256 tokenIndex = _allTokensIndex[tokenId];\r\n\r\n        // When the token to delete is the last token, the swap operation is unnecessary. However, since this occurs so\r\n        // rarely (when the last minted token is burnt) that we still do the swap here to avoid the gas cost of adding\r\n        // an 'if' statement (like in _removeTokenFromOwnerEnumeration)\r\n        MonsterLib.Monster memory lastMonster = _allMonsters[lastTokenIndex];\r\n\r\n        _allMonsters[tokenIndex] = lastMonster; // Move the last token to the slot of the to-delete token\r\n        _allTokensIndex[lastMonster.tokenId] = tokenIndex; // Update the moved token's index\r\n\r\n        // This also deletes the contents at the last position of the array\r\n        delete _allTokensIndex[tokenId];\r\n        _allMonsters.pop();\r\n    }\r\n\r\n    function _monsterURIByRace(MonsterLib.Race _race) internal pure returns(string memory){\r\n        string memory _monsterURI;\r\n        if(_race == MonsterLib.Race.DRAGON) _monsterURI =\"../public/images/dragon.png\" ;\r\n        else if(_race == MonsterLib.Race.GARGOYLE) _monsterURI =\"../public/images/gargoyle.png\";\r\n        else if (_race == MonsterLib.Race.GHOST) _monsterURI =\"../public/images/ghost.png\";\r\n        return _monsterURI;\r\n    }\r\n    \r\n    receive() external payable{\r\n        _deposit[msg.sender] += msg.value;\r\n        emit ReceiveEth(msg.sender, msg.value);\r\n\r\n    }\r\n\r\n    /**\r\n     * Used for buyer want to check more detailed information in the market\r\n     */\r\n     function getStatics(uint256 _tokenId) public view _tokenExist(_tokenId) returns(MonsterLib.Statistics memory){\r\n         uint256 _tokenIndex = _allTokensIndex[_tokenId];\r\n        return _allMonsters[_tokenIndex].statc;\r\n\r\n     }\r\n\r\n     /**\r\n      * \r\n      */\r\n    function getProductInfo(uint256 _tokenId) public view _tokenExist(_tokenId) returns(address, uint8, MonsterLib.Statistics memory, MonsterLib.Race){\r\n        uint256 _tokenIndex = _allTokensIndex[_tokenId];\r\n        MonsterLib.Monster memory monster = _allMonsters[_tokenIndex];\r\n        address owner = ownerOf(_tokenId);\r\n        return (owner, monster.level, monster.statc,monster.race);\r\n    }\r\n\r\n    function monsterById(uint256 _tokenId) public view _tokenExist(_tokenId) returns (MonsterLib.Monster memory){\r\n        uint256 _tokenIndex = _allTokensIndex[_tokenId];\r\n        return _allMonsters[_tokenIndex];\r\n    }\r\n\r\n    function _monsterByIndex(uint256 _tokenIndex) internal view returns (MonsterLib.Monster memory){\r\n        require(_tokenIndex < totalSupply() - 1);\r\n        return _allMonsters[_tokenIndex];\r\n    }\r\n\r\n    function _updateExp(uint256 _tokenId, uint8 exp) internal _tokenExist(_tokenId){\r\n        uint256 _tokenIndex = _allTokensIndex[_tokenId];\r\n        MonsterLib.Monster storage monster = _allMonsters[_tokenIndex];\r\n        if(monster.expNeedToNext > exp) monster.expNeedToNext -= exp;\r\n        else{\r\n            if(monster.level < 10){\r\n                monster.level += 1;\r\n                monster.expNeedToNext = monster.level * 10 - (exp -  monster.expNeedToNext);\r\n                MonsterLib.Statistics memory _oldStatc = monster.statc;\r\n                MonsterLib.Statistics memory _newStatc = MonsterLib._calculateStatc(monster.iv, monster.level);\r\n                emit LevelUp(_oldStatc, _newStatc);\r\n            }\r\n        }\r\n\r\n    }\r\n\r\n    function transferMoney(address _from, address _to, uint _value) external {\r\n        require(tx.origin == _from);\r\n        require(_to != address(0) && _from != address(0));\r\n        _deposit[_from] -= _value;\r\n        _deposit[_to] += _value;\r\n        emit TransferMoney(_from, _to, _value);\r\n    }\r\n\r\n    function transferFrom(address _from, address _to,uint _tokenId) public override{\r\n        require(ownerOf(_tokenId) == _from);\r\n        require (_readyToSell[_tokenId] && tx.origin == _to);\r\n        _transfer(_from, _to, _tokenId);\r\n    }\r\n\r\n    function setReadyToSell(uint _tokenId, bool _ready) public {\r\n        require(tx.origin == ownerOf(_tokenId));\r\n        _readyToSell[_tokenId] = _ready;\r\n    }\r\n\r\n\r\n\r\n\r\n\r\n    \r\n}",
  "sourcePath": "D:\\GitHub\\monster\\contracts\\MonsterToken.sol",
  "compiler": {
    "name": "solc",
    "version": "0.8.9+commit.e5eed63a.Emscripten.clang"
  },
  "schemaVersion": "3.4.7",
  "updatedAt": "2022-05-13T22:18:45.748Z",
  "devdoc": {
    "kind": "dev",
    "methods": {
      "approve(address,uint256)": {
        "details": "See {IERC721-approve}."
      },
      "balanceOf(address)": {
        "details": "See {IERC721-balanceOf}."
      },
      "getApproved(uint256)": {
        "details": "See {IERC721-getApproved}."
      },
      "getInitialMonster(uint8)": {
        "details": "Pay ETH to get a default monster from contract"
      },
      "isApprovedForAll(address,address)": {
        "details": "See {IERC721-isApprovedForAll}."
      },
      "name()": {
        "details": "See {IERC721Metadata-name}."
      },
      "ownerOf(uint256)": {
        "details": "See {IERC721-ownerOf}."
      },
      "safeTransferFrom(address,address,uint256)": {
        "details": "See {IERC721-safeTransferFrom}."
      },
      "safeTransferFrom(address,address,uint256,bytes)": {
        "details": "See {IERC721-safeTransferFrom}."
      },
      "setApprovalForAll(address,bool)": {
        "details": "See {IERC721-setApprovalForAll}."
      },
      "supportsInterface(bytes4)": {
        "details": "See {IERC165-supportsInterface}."
      },
      "symbol()": {
        "details": "See {IERC721Metadata-symbol}."
      },
      "tokenURI(uint256)": {
        "details": "See {IERC721Metadata-tokenURI}."
      }
    },
    "version": 1
  },
  "userdoc": {
    "kind": "user",
    "methods": {
      "getStatics(uint256)": {
        "notice": "Used for buyer want to check more detailed information in the market"
      }
    },
    "version": 1
  }
}