{
  "contractName": "MonsterToken",
  "abi": [
    {
      "inputs": [],
      "stateMutability": "nonpayable",
      "type": "constructor"
    },
    {
      "anonymous": false,
      "inputs": [
        {
          "indexed": true,
          "internalType": "address",
          "name": "owner",
          "type": "address"
        },
        {
          "indexed": true,
          "internalType": "address",
          "name": "approved",
          "type": "address"
        },
        {
          "indexed": true,
          "internalType": "uint256",
          "name": "tokenId",
          "type": "uint256"
        }
      ],
      "name": "Approval",
      "type": "event"
    },
    {
      "anonymous": false,
      "inputs": [
        {
          "indexed": true,
          "internalType": "address",
          "name": "owner",
          "type": "address"
        },
        {
          "indexed": true,
          "internalType": "address",
          "name": "operator",
          "type": "address"
        },
        {
          "indexed": false,
          "internalType": "bool",
          "name": "approved",
          "type": "bool"
        }
      ],
      "name": "ApprovalForAll",
      "type": "event"
    },
    {
      "anonymous": false,
      "inputs": [
        {
          "components": [
            {
              "internalType": "uint8",
              "name": "HP",
              "type": "uint8"
            },
            {
              "internalType": "uint8",
              "name": "strength",
              "type": "uint8"
            },
            {
              "internalType": "uint8",
              "name": "defensive",
              "type": "uint8"
            },
            {
              "internalType": "uint8",
              "name": "speed",
              "type": "uint8"
            }
          ],
          "indexed": false,
          "internalType": "struct MonsterLib.Statistics",
          "name": "",
          "type": "tuple"
        },
        {
          "components": [
            {
              "internalType": "uint8",
              "name": "HP",
              "type": "uint8"
            },
            {
              "internalType": "uint8",
              "name": "strength",
              "type": "uint8"
            },
            {
              "internalType": "uint8",
              "name": "defensive",
              "type": "uint8"
            },
            {
              "internalType": "uint8",
              "name": "speed",
              "type": "uint8"
            }
          ],
          "indexed": false,
          "internalType": "struct MonsterLib.Statistics",
          "name": "",
          "type": "tuple"
        }
      ],
      "name": "LevelUp",
      "type": "event"
    },
    {
      "anonymous": false,
      "inputs": [
        {
          "indexed": false,
          "internalType": "uint256",
          "name": "",
          "type": "uint256"
        },
        {
          "indexed": false,
          "internalType": "bool",
          "name": "",
          "type": "bool"
        }
      ],
      "name": "LockMonster",
      "type": "event"
    },
    {
      "anonymous": false,
      "inputs": [
        {
          "indexed": false,
          "internalType": "uint256",
          "name": "",
          "type": "uint256"
        }
      ],
      "name": "MonsterInMarket",
      "type": "event"
    },
    {
      "anonymous": false,
      "inputs": [
        {
          "indexed": false,
          "internalType": "address",
          "name": "from",
          "type": "address"
        },
        {
          "indexed": false,
          "internalType": "uint256",
          "name": "amount",
          "type": "uint256"
        }
      ],
      "name": "ReceiveEth",
      "type": "event"
    },
    {
      "anonymous": false,
      "inputs": [
        {
          "indexed": true,
          "internalType": "address",
          "name": "from",
          "type": "address"
        },
        {
          "indexed": true,
          "internalType": "address",
          "name": "to",
          "type": "address"
        },
        {
          "indexed": true,
          "internalType": "uint256",
          "name": "tokenId",
          "type": "uint256"
        }
      ],
      "name": "Transfer",
      "type": "event"
    },
    {
      "anonymous": false,
      "inputs": [
        {
          "indexed": false,
          "internalType": "address",
          "name": "",
          "type": "address"
        },
        {
          "indexed": false,
          "internalType": "address",
          "name": "",
          "type": "address"
        },
        {
          "indexed": false,
          "internalType": "uint256",
          "name": "",
          "type": "uint256"
        }
      ],
      "name": "TransferMoney",
      "type": "event"
    },
    {
      "inputs": [
        {
          "internalType": "address",
          "name": "to",
          "type": "address"
        },
        {
          "internalType": "uint256",
          "name": "tokenId",
          "type": "uint256"
        }
      ],
      "name": "approve",
      "outputs": [],
      "stateMutability": "nonpayable",
      "type": "function"
    },
    {
      "inputs": [
        {
          "internalType": "address",
          "name": "owner",
          "type": "address"
        }
      ],
      "name": "balanceOf",
      "outputs": [
        {
          "internalType": "uint256",
          "name": "",
          "type": "uint256"
        }
      ],
      "stateMutability": "view",
      "type": "function"
    },
    {
      "inputs": [
        {
          "internalType": "uint256",
          "name": "tokenId",
          "type": "uint256"
        }
      ],
      "name": "getApproved",
      "outputs": [
        {
          "internalType": "address",
          "name": "",
          "type": "address"
        }
      ],
      "stateMutability": "view",
      "type": "function"
    },
    {
      "inputs": [
        {
          "internalType": "address",
          "name": "owner",
          "type": "address"
        },
        {
          "internalType": "address",
          "name": "operator",
          "type": "address"
        }
      ],
      "name": "isApprovedForAll",
      "outputs": [
        {
          "internalType": "bool",
          "name": "",
          "type": "bool"
        }
      ],
      "stateMutability": "view",
      "type": "function"
    },
    {
      "inputs": [],
      "name": "name",
      "outputs": [
        {
          "internalType": "string",
          "name": "",
          "type": "string"
        }
      ],
      "stateMutability": "view",
      "type": "function"
    },
    {
      "inputs": [
        {
          "internalType": "uint256",
          "name": "tokenId",
          "type": "uint256"
        }
      ],
      "name": "ownerOf",
      "outputs": [
        {
          "internalType": "address",
          "name": "",
          "type": "address"
        }
      ],
      "stateMutability": "view",
      "type": "function"
    },
    {
      "inputs": [
        {
          "internalType": "address",
          "name": "from",
          "type": "address"
        },
        {
          "internalType": "address",
          "name": "to",
          "type": "address"
        },
        {
          "internalType": "uint256",
          "name": "tokenId",
          "type": "uint256"
        }
      ],
      "name": "safeTransferFrom",
      "outputs": [],
      "stateMutability": "nonpayable",
      "type": "function"
    },
    {
      "inputs": [
        {
          "internalType": "address",
          "name": "from",
          "type": "address"
        },
        {
          "internalType": "address",
          "name": "to",
          "type": "address"
        },
        {
          "internalType": "uint256",
          "name": "tokenId",
          "type": "uint256"
        },
        {
          "internalType": "bytes",
          "name": "_data",
          "type": "bytes"
        }
      ],
      "name": "safeTransferFrom",
      "outputs": [],
      "stateMutability": "nonpayable",
      "type": "function"
    },
    {
      "inputs": [
        {
          "internalType": "address",
          "name": "operator",
          "type": "address"
        },
        {
          "internalType": "bool",
          "name": "approved",
          "type": "bool"
        }
      ],
      "name": "setApprovalForAll",
      "outputs": [],
      "stateMutability": "nonpayable",
      "type": "function"
    },
    {
      "inputs": [
        {
          "internalType": "bytes4",
          "name": "interfaceId",
          "type": "bytes4"
        }
      ],
      "name": "supportsInterface",
      "outputs": [
        {
          "internalType": "bool",
          "name": "",
          "type": "bool"
        }
      ],
      "stateMutability": "view",
      "type": "function"
    },
    {
      "inputs": [],
      "name": "symbol",
      "outputs": [
        {
          "internalType": "string",
          "name": "",
          "type": "string"
        }
      ],
      "stateMutability": "view",
      "type": "function"
    },
    {
      "inputs": [
        {
          "internalType": "uint256",
          "name": "tokenId",
          "type": "uint256"
        }
      ],
      "name": "tokenURI",
      "outputs": [
        {
          "internalType": "string",
          "name": "",
          "type": "string"
        }
      ],
      "stateMutability": "view",
      "type": "function"
    },
    {
      "stateMutability": "payable",
      "type": "receive"
    },
    {
      "inputs": [
        {
          "internalType": "address",
          "name": "owner",
          "type": "address"
        }
      ],
      "name": "depositOf",
      "outputs": [
        {
          "internalType": "uint256",
          "name": "",
          "type": "uint256"
        }
      ],
      "stateMutability": "view",
      "type": "function"
    },
    {
      "inputs": [],
      "name": "totalSupply",
      "outputs": [
        {
          "internalType": "uint256",
          "name": "",
          "type": "uint256"
        }
      ],
      "stateMutability": "view",
      "type": "function"
    },
    {
      "inputs": [
        {
          "internalType": "enum MonsterLib.Race",
          "name": "race",
          "type": "uint8"
        }
      ],
      "name": "getInitialMonster",
      "outputs": [],
      "stateMutability": "nonpayable",
      "type": "function"
    },
    {
      "inputs": [
        {
          "internalType": "uint256",
          "name": "_tokenId",
          "type": "uint256"
        }
      ],
      "name": "getStatics",
      "outputs": [
        {
          "components": [
            {
              "internalType": "uint8",
              "name": "HP",
              "type": "uint8"
            },
            {
              "internalType": "uint8",
              "name": "strength",
              "type": "uint8"
            },
            {
              "internalType": "uint8",
              "name": "defensive",
              "type": "uint8"
            },
            {
              "internalType": "uint8",
              "name": "speed",
              "type": "uint8"
            }
          ],
          "internalType": "struct MonsterLib.Statistics",
          "name": "",
          "type": "tuple"
        }
      ],
      "stateMutability": "view",
      "type": "function"
    },
    {
      "inputs": [
        {
          "internalType": "uint256",
          "name": "_tokenId",
          "type": "uint256"
        }
      ],
      "name": "getProductInfo",
      "outputs": [
        {
          "internalType": "address",
          "name": "",
          "type": "address"
        },
        {
          "internalType": "uint8",
          "name": "",
          "type": "uint8"
        },
        {
          "components": [
            {
              "internalType": "uint8",
              "name": "HP",
              "type": "uint8"
            },
            {
              "internalType": "uint8",
              "name": "strength",
              "type": "uint8"
            },
            {
              "internalType": "uint8",
              "name": "defensive",
              "type": "uint8"
            },
            {
              "internalType": "uint8",
              "name": "speed",
              "type": "uint8"
            }
          ],
          "internalType": "struct MonsterLib.Statistics",
          "name": "",
          "type": "tuple"
        },
        {
          "internalType": "enum MonsterLib.Race",
          "name": "",
          "type": "uint8"
        }
      ],
      "stateMutability": "view",
      "type": "function"
    },
    {
      "inputs": [
        {
          "internalType": "uint256",
          "name": "_tokenId",
          "type": "uint256"
        }
      ],
      "name": "monsterById",
      "outputs": [
        {
          "components": [
            {
              "internalType": "uint256",
              "name": "tokenId",
              "type": "uint256"
            },
            {
              "internalType": "uint256",
              "name": "mumId",
              "type": "uint256"
            },
            {
              "internalType": "uint256",
              "name": "dadId",
              "type": "uint256"
            },
            {
              "components": [
                {
                  "internalType": "uint8",
                  "name": "HP",
                  "type": "uint8"
                },
                {
                  "internalType": "uint8",
                  "name": "strength",
                  "type": "uint8"
                },
                {
                  "internalType": "uint8",
                  "name": "defensive",
                  "type": "uint8"
                },
                {
                  "internalType": "uint8",
                  "name": "speed",
                  "type": "uint8"
                }
              ],
              "internalType": "struct MonsterLib.Statistics",
              "name": "statc",
              "type": "tuple"
            },
            {
              "components": [
                {
                  "internalType": "uint8",
                  "name": "HP",
                  "type": "uint8"
                },
                {
                  "internalType": "uint8",
                  "name": "strength",
                  "type": "uint8"
                },
                {
                  "internalType": "uint8",
                  "name": "defensive",
                  "type": "uint8"
                },
                {
                  "internalType": "uint8",
                  "name": "speed",
                  "type": "uint8"
                }
              ],
              "internalType": "struct MonsterLib.IndividualValue",
              "name": "iv",
              "type": "tuple"
            },
            {
              "internalType": "uint8",
              "name": "level",
              "type": "uint8"
            },
            {
              "internalType": "uint8",
              "name": "expNeedToNext",
              "type": "uint8"
            },
            {
              "internalType": "enum MonsterLib.Race",
              "name": "race",
              "type": "uint8"
            },
            {
              "internalType": "bool",
              "name": "isLocked",
              "type": "bool"
            }
          ],
          "internalType": "struct MonsterLib.Monster",
          "name": "",
          "type": "tuple"
        }
      ],
      "stateMutability": "view",
      "type": "function"
    },
    {
      "inputs": [
        {
          "internalType": "address",
          "name": "_from",
          "type": "address"
        },
        {
          "internalType": "address",
          "name": "_to",
          "type": "address"
        },
        {
          "internalType": "uint256",
          "name": "_value",
          "type": "uint256"
        }
      ],
      "name": "transferMoney",
      "outputs": [],
      "stateMutability": "nonpayable",
      "type": "function"
    },
    {
      "inputs": [
        {
          "internalType": "address",
          "name": "_from",
          "type": "address"
        },
        {
          "internalType": "address",
          "name": "_to",
          "type": "address"
        },
        {
          "internalType": "uint256",
          "name": "_tokenId",
          "type": "uint256"
        }
      ],
      "name": "transferFrom",
      "outputs": [],
      "stateMutability": "nonpayable",
      "type": "function"
    },
    {
      "inputs": [
        {
          "internalType": "uint256",
          "name": "_tokenId",
          "type": "uint256"
        },
        {
          "internalType": "bool",
          "name": "_locked",
          "type": "bool"
        }
      ],
      "name": "lockMonster",
      "outputs": [],
      "stateMutability": "nonpayable",
      "type": "function"
    },
    {
      "inputs": [],
      "name": "getOwnedMonster",
      "outputs": [
        {
          "components": [
            {
              "internalType": "uint256",
              "name": "tokenId",
              "type": "uint256"
            },
            {
              "internalType": "uint256",
              "name": "mumId",
              "type": "uint256"
            },
            {
              "internalType": "uint256",
              "name": "dadId",
              "type": "uint256"
            },
            {
              "components": [
                {
                  "internalType": "uint8",
                  "name": "HP",
                  "type": "uint8"
                },
                {
                  "internalType": "uint8",
                  "name": "strength",
                  "type": "uint8"
                },
                {
                  "internalType": "uint8",
                  "name": "defensive",
                  "type": "uint8"
                },
                {
                  "internalType": "uint8",
                  "name": "speed",
                  "type": "uint8"
                }
              ],
              "internalType": "struct MonsterLib.Statistics",
              "name": "statc",
              "type": "tuple"
            },
            {
              "components": [
                {
                  "internalType": "uint8",
                  "name": "HP",
                  "type": "uint8"
                },
                {
                  "internalType": "uint8",
                  "name": "strength",
                  "type": "uint8"
                },
                {
                  "internalType": "uint8",
                  "name": "defensive",
                  "type": "uint8"
                },
                {
                  "internalType": "uint8",
                  "name": "speed",
                  "type": "uint8"
                }
              ],
              "internalType": "struct MonsterLib.IndividualValue",
              "name": "iv",
              "type": "tuple"
            },
            {
              "internalType": "uint8",
              "name": "level",
              "type": "uint8"
            },
            {
              "internalType": "uint8",
              "name": "expNeedToNext",
              "type": "uint8"
            },
            {
              "internalType": "enum MonsterLib.Race",
              "name": "race",
              "type": "uint8"
            },
            {
              "internalType": "bool",
              "name": "isLocked",
              "type": "bool"
            }
          ],
          "internalType": "struct MonsterLib.Monster[]",
          "name": "monsters",
          "type": "tuple[]"
        }
      ],
      "stateMutability": "view",
      "type": "function"
    },
    {
      "inputs": [
        {
          "internalType": "uint256",
          "name": "_monsterId",
          "type": "uint256"
        }
      ],
      "name": "deleteMonster",
      "outputs": [],
      "stateMutability": "nonpayable",
      "type": "function"
    }
  ],
  "bytecode": "0x60806040526040518060800160405280600560ff168152602001600560ff168152602001600560ff168152602001600560ff16815250601160008201518160000160006101000a81548160ff021916908360ff16021790555060208201518160000160016101000a81548160ff021916908360ff16021790555060408201518160000160026101000a81548160ff021916908360ff16021790555060608201518160000160036101000a81548160ff021916908360ff1602179055505050348015620000ca57600080fd5b506040518060400160405280600d81526020017f4d6f6e7374657220546f6b656e000000000000000000000000000000000000008152506040518060400160405280600781526020017f4d4f4e535445520000000000000000000000000000000000000000000000000081525081600090805190602001906200014f92919062000194565b5080600190805190602001906200016892919062000194565b5050506001600f819055506000600e60006101000a81548160ff021916908315150217905550620002a9565b828054620001a29062000273565b90600052602060002090601f016020900481019282620001c6576000855562000212565b82601f10620001e157805160ff191683800117855562000212565b8280016001018555821562000212579182015b8281111562000211578251825591602001919060010190620001f4565b5b50905062000221919062000225565b5090565b5b808211156200024057600081600090555060010162000226565b5090565b7f4e487b7100000000000000000000000000000000000000000000000000000000600052602260045260246000fd5b600060028204905060018216806200028c57607f821691505b60208210811415620002a357620002a262000244565b5b50919050565b61524a80620002b96000396000f3fe6080604052600436106101445760003560e01c80636410381c116100b6578063b88d4fde1161006f578063b88d4fde14610543578063c87b56dd1461056c578063caece7bb146105a9578063dff0bdaf146105d2578063e985e9c5146105fb578063fe3296f814610638576101da565b80636410381c1461041e57806370a082311461044757806379a85e6c146104845780637a5800c5146104c457806395d89b41146104ef578063a22cb4651461051a576101da565b80631dddf164116101085780631dddf164146102d857806323b872dd1461031557806323e3fbd51461033e578063422666a71461037b57806342842e0e146103b85780636352211e146103e1576101da565b806301ffc9a7146101df57806306fdde031461021c578063081812fc14610247578063095ea7b31461028457806318160ddd146102ad576101da565b366101da5734600760003373ffffffffffffffffffffffffffffffffffffffff1673ffffffffffffffffffffffffffffffffffffffff16815260200190815260200160002060008282546101989190613967565b925050819055507fefc0288202e432ade6bf71491d0001d7e389ad4f8e4e9c7aa038dd1a563efc6033346040516101d0929190613a0d565b60405180910390a1005b600080fd5b3480156101eb57600080fd5b5061020660048036038101906102019190613aa2565b610661565b6040516102139190613aea565b60405180910390f35b34801561022857600080fd5b50610231610743565b60405161023e9190613b9e565b60405180910390f35b34801561025357600080fd5b5061026e60048036038101906102699190613bec565b6107d5565b60405161027b9190613c19565b60405180910390f35b34801561029057600080fd5b506102ab60048036038101906102a69190613c60565b61085a565b005b3480156102b957600080fd5b506102c2610972565b6040516102cf9190613ca0565b60405180910390f35b3480156102e457600080fd5b506102ff60048036038101906102fa9190613bec565b61097f565b60405161030c9190613d2c565b60405180910390f35b34801561032157600080fd5b5061033c60048036038101906103379190613d47565b610a5f565b005b34801561034a57600080fd5b5061036560048036038101906103609190613d9a565b610afd565b6040516103729190613ca0565b60405180910390f35b34801561038757600080fd5b506103a2600480360381019061039d9190613bec565b610bee565b6040516103af9190613fc0565b60405180910390f35b3480156103c457600080fd5b506103df60048036038101906103da9190613d47565b610e16565b005b3480156103ed57600080fd5b5061040860048036038101906104039190613bec565b610e36565b6040516104159190613c19565b60405180910390f35b34801561042a57600080fd5b5061044560048036038101906104409190613d47565b610ee8565b005b34801561045357600080fd5b5061046e60048036038101906104699190613d9a565b61107f565b60405161047b9190613ca0565b60405180910390f35b34801561049057600080fd5b506104ab60048036038101906104a69190613bec565b611137565b6040516104bb9493929190613ffa565b60405180910390f35b3480156104d057600080fd5b506104d961138f565b6040516104e691906141a9565b60405180910390f35b3480156104fb57600080fd5b5061050461149d565b6040516105119190613b9e565b60405180910390f35b34801561052657600080fd5b50610541600480360381019061053c91906141f7565b61152f565b005b34801561054f57600080fd5b5061056a6004803603810190610565919061436c565b611545565b005b34801561057857600080fd5b50610593600480360381019061058e9190613bec565b6115a7565b6040516105a09190613b9e565b60405180910390f35b3480156105b557600080fd5b506105d060048036038101906105cb91906143ef565b6116f9565b005b3480156105de57600080fd5b506105f960048036038101906105f49190614454565b6117c6565b005b34801561060757600080fd5b50610622600480360381019061061d9190614481565b611857565b60405161062f9190613aea565b60405180910390f35b34801561064457600080fd5b5061065f600480360381019061065a9190613bec565b6118eb565b005b60007f80ac58cd000000000000000000000000000000000000000000000000000000007bffffffffffffffffffffffffffffffffffffffffffffffffffffffff1916827bffffffffffffffffffffffffffffffffffffffffffffffffffffffff1916148061072c57507f5b5e139f000000000000000000000000000000000000000000000000000000007bffffffffffffffffffffffffffffffffffffffffffffffffffffffff1916827bffffffffffffffffffffffffffffffffffffffffffffffffffffffff1916145b8061073c575061073b82611986565b5b9050919050565b606060008054610752906144f0565b80601f016020809104026020016040519081016040528092919081815260200182805461077e906144f0565b80156107cb5780601f106107a0576101008083540402835291602001916107cb565b820191906000526020600020905b8154815290600101906020018083116107ae57829003601f168201915b5050505050905090565b60006107e0826119f0565b61081f576040517f08c379a000000000000000000000000000000000000000000000000000000000815260040161081690614594565b60405180910390fd5b6004600083815260200190815260200160002060009054906101000a900473ffffffffffffffffffffffffffffffffffffffff169050919050565b600061086582610e36565b90508073ffffffffffffffffffffffffffffffffffffffff168373ffffffffffffffffffffffffffffffffffffffff1614156108d6576040517f08c379a00000000000000000000000000000000000000000000000000000000081526004016108cd90614626565b60405180910390fd5b8073ffffffffffffffffffffffffffffffffffffffff166108f5611a5c565b73ffffffffffffffffffffffffffffffffffffffff16148061092457506109238161091e611a5c565b611857565b5b610963576040517f08c379a000000000000000000000000000000000000000000000000000000000815260040161095a906146b8565b60405180910390fd5b61096d8383611a64565b505050565b6000600a80549050905090565b610987613771565b81610991816119f0565b61099a57600080fd5b6000600b6000858152602001908152602001600020549050600a81815481106109c6576109c56146d8565b5b90600052602060002090600602016003016040518060800160405290816000820160009054906101000a900460ff1660ff1660ff1681526020016000820160019054906101000a900460ff1660ff1660ff1681526020016000820160029054906101000a900460ff1660ff1660ff1681526020016000820160039054906101000a900460ff1660ff1660ff168152505092505050919050565b8273ffffffffffffffffffffffffffffffffffffffff16610a7f82610e36565b73ffffffffffffffffffffffffffffffffffffffff1614610a9f57600080fd5b610aa881610bee565b61010001518015610ae457508173ffffffffffffffffffffffffffffffffffffffff163273ffffffffffffffffffffffffffffffffffffffff16145b610aed57600080fd5b610af8838383611b1d565b505050565b60003273ffffffffffffffffffffffffffffffffffffffff168273ffffffffffffffffffffffffffffffffffffffff1614610b3757600080fd5b600073ffffffffffffffffffffffffffffffffffffffff168273ffffffffffffffffffffffffffffffffffffffff161415610ba7576040517f08c379a0000000000000000000000000000000000000000000000000000000008152600401610b9e90614779565b60405180910390fd5b600760008373ffffffffffffffffffffffffffffffffffffffff1673ffffffffffffffffffffffffffffffffffffffff168152602001908152602001600020549050919050565b610bf66137a5565b81610c00816119f0565b610c0957600080fd5b6000600b6000858152602001908152602001600020549050600a8181548110610c3557610c346146d8565b5b906000526020600020906006020160405180610120016040529081600082015481526020016001820154815260200160028201548152602001600382016040518060800160405290816000820160009054906101000a900460ff1660ff1660ff1681526020016000820160019054906101000a900460ff1660ff1660ff1681526020016000820160029054906101000a900460ff1660ff1660ff1681526020016000820160039054906101000a900460ff1660ff1660ff16815250508152602001600482016040518060800160405290816000820160009054906101000a900460ff1660ff1660ff1681526020016000820160019054906101000a900460ff1660ff1660ff1681526020016000820160029054906101000a900460ff1660ff1660ff1681526020016000820160039054906101000a900460ff1660ff1660ff168152505081526020016005820160009054906101000a900460ff1660ff1660ff1681526020016005820160019054906101000a900460ff1660ff1660ff1681526020016005820160029054906101000a900460ff166002811115610ddc57610ddb613e80565b5b6002811115610dee57610ded613e80565b5b81526020016005820160039054906101000a900460ff16151515158152505092505050919050565b610e3183838360405180602001604052806000815250611545565b505050565b6000806002600084815260200190815260200160002060009054906101000a900473ffffffffffffffffffffffffffffffffffffffff169050600073ffffffffffffffffffffffffffffffffffffffff168173ffffffffffffffffffffffffffffffffffffffff161415610edf576040517f08c379a0000000000000000000000000000000000000000000000000000000008152600401610ed69061480b565b60405180910390fd5b80915050919050565b8273ffffffffffffffffffffffffffffffffffffffff163273ffffffffffffffffffffffffffffffffffffffff1614610f2057600080fd5b600073ffffffffffffffffffffffffffffffffffffffff168273ffffffffffffffffffffffffffffffffffffffff1614158015610f8a5750600073ffffffffffffffffffffffffffffffffffffffff168373ffffffffffffffffffffffffffffffffffffffff1614155b610f9357600080fd5b80600760008573ffffffffffffffffffffffffffffffffffffffff1673ffffffffffffffffffffffffffffffffffffffff1681526020019081526020016000206000828254610fe2919061482b565b9250508190555080600760008473ffffffffffffffffffffffffffffffffffffffff1673ffffffffffffffffffffffffffffffffffffffff16815260200190815260200160002060008282546110389190613967565b925050819055507fb900e832b6eff259cf1fd6d12898306d28460d412e04f398c1a74a2af60130138383836040516110729392919061485f565b60405180910390a1505050565b60008073ffffffffffffffffffffffffffffffffffffffff168273ffffffffffffffffffffffffffffffffffffffff1614156110f0576040517f08c379a00000000000000000000000000000000000000000000000000000000081526004016110e790614908565b60405180910390fd5b600360008373ffffffffffffffffffffffffffffffffffffffff1673ffffffffffffffffffffffffffffffffffffffff168152602001908152602001600020549050919050565b600080611142613771565b60008461114e816119f0565b61115757600080fd5b6000600b60008881526020019081526020016000205490506000600a8281548110611185576111846146d8565b5b906000526020600020906006020160405180610120016040529081600082015481526020016001820154815260200160028201548152602001600382016040518060800160405290816000820160009054906101000a900460ff1660ff1660ff1681526020016000820160019054906101000a900460ff1660ff1660ff1681526020016000820160029054906101000a900460ff1660ff1660ff1681526020016000820160039054906101000a900460ff1660ff1660ff16815250508152602001600482016040518060800160405290816000820160009054906101000a900460ff1660ff1660ff1681526020016000820160019054906101000a900460ff1660ff1660ff1681526020016000820160029054906101000a900460ff1660ff1660ff1681526020016000820160039054906101000a900460ff1660ff1660ff168152505081526020016005820160009054906101000a900460ff1660ff1660ff1681526020016005820160019054906101000a900460ff1660ff1660ff1681526020016005820160029054906101000a900460ff16600281111561132c5761132b613e80565b5b600281111561133e5761133d613e80565b5b81526020016005820160039054906101000a900460ff1615151515815250509050600061136a89610e36565b9050808260a0015183606001518460e001519750975097509750505050509193509193565b6060600061139c3361107f565b9050600081146114415760005b8181101561143b5761140a600c60003373ffffffffffffffffffffffffffffffffffffffff1673ffffffffffffffffffffffffffffffffffffffff168152602001908152602001600020600083815260200190815260200160002054610bee565b83828151811061141d5761141c6146d8565b5b6020026020010181905250808061143390614928565b9150506113a9565b50611499565b600067ffffffffffffffff81111561145c5761145b614241565b5b60405190808252806020026020018201604052801561149557816020015b6114826137a5565b81526020019060019003908161147a5790505b5091505b5090565b6060600180546114ac906144f0565b80601f01602080910402602001604051908101604052809291908181526020018280546114d8906144f0565b80156115255780601f106114fa57610100808354040283529160200191611525565b820191906000526020600020905b81548152906001019060200180831161150857829003601f168201915b5050505050905090565b61154161153a611a5c565b8383611d84565b5050565b611556611550611a5c565b83611ef1565b611595576040517f08c379a000000000000000000000000000000000000000000000000000000000815260040161158c906149e3565b60405180910390fd5b6115a184848484611fcf565b50505050565b60606115b2826119f0565b6115f1576040517f08c379a00000000000000000000000000000000000000000000000000000000081526004016115e890614a75565b60405180910390fd5b6000600660008481526020019081526020016000208054611611906144f0565b80601f016020809104026020016040519081016040528092919081815260200182805461163d906144f0565b801561168a5780601f1061165f5761010080835404028352916020019161168a565b820191906000526020600020905b81548152906001019060200180831161166d57829003601f168201915b50505050509050600061169b61202b565b90506000815114156116b15781925050506116f4565b6000825111156116e65780826040516020016116ce929190614ad1565b604051602081830303815290604052925050506116f4565b6116ef84612042565b925050505b919050565b61170282610e36565b73ffffffffffffffffffffffffffffffffffffffff163273ffffffffffffffffffffffffffffffffffffffff161461173957600080fd5b80600a600b60008581526020019081526020016000205481548110611761576117606146d8565b5b906000526020600020906006020160050160036101000a81548160ff0219169083151502179055507f6a0921deabd763b8789c5acb4605c886a6f98ea35c16c99d0954bea1b8ff83b682826040516117ba929190614af5565b60405180910390a15050565b6118543360008060116040518060800160405290816000820160009054906101000a900460ff1660ff1660ff1681526020016000820160019054906101000a900460ff1660ff1660ff1681526020016000820160029054906101000a900460ff1660ff1660ff1681526020016000820160039054906101000a900460ff1660ff1660ff1681525050856120e9565b50565b6000600560008473ffffffffffffffffffffffffffffffffffffffff1673ffffffffffffffffffffffffffffffffffffffff16815260200190815260200160002060008373ffffffffffffffffffffffffffffffffffffffff1673ffffffffffffffffffffffffffffffffffffffff16815260200190815260200160002060009054906101000a900460ff16905092915050565b6118f481610e36565b73ffffffffffffffffffffffffffffffffffffffff163373ffffffffffffffffffffffffffffffffffffffff161461192b57600080fd5b61193481610bee565b61010001511561197a577fdde7d0a3c1908e17d48670081de6d0f395f52f792dcd6f38337bce4917aaa61e8160405161196d9190613ca0565b60405180910390a1600080fd5b61198381612470565b50565b60007f01ffc9a7000000000000000000000000000000000000000000000000000000007bffffffffffffffffffffffffffffffffffffffffffffffffffffffff1916827bffffffffffffffffffffffffffffffffffffffffffffffffffffffff1916149050919050565b60008073ffffffffffffffffffffffffffffffffffffffff166002600084815260200190815260200160002060009054906101000a900473ffffffffffffffffffffffffffffffffffffffff1673ffffffffffffffffffffffffffffffffffffffff1614159050919050565b600033905090565b816004600083815260200190815260200160002060006101000a81548173ffffffffffffffffffffffffffffffffffffffff021916908373ffffffffffffffffffffffffffffffffffffffff160217905550808273ffffffffffffffffffffffffffffffffffffffff16611ad783610e36565b73ffffffffffffffffffffffffffffffffffffffff167f8c5be1e5ebec7d5bd14f71427d1e84f3dd0314c0f7b2291e5b200ac8c7c3b92560405160405180910390a45050565b8273ffffffffffffffffffffffffffffffffffffffff16611b3d82610e36565b73ffffffffffffffffffffffffffffffffffffffff1614611b93576040517f08c379a0000000000000000000000000000000000000000000000000000000008152600401611b8a90614b90565b60405180910390fd5b600073ffffffffffffffffffffffffffffffffffffffff168273ffffffffffffffffffffffffffffffffffffffff161415611c03576040517f08c379a0000000000000000000000000000000000000000000000000000000008152600401611bfa90614c22565b60405180910390fd5b611c0e8383836124c3565b611c19600082611a64565b6001600360008573ffffffffffffffffffffffffffffffffffffffff1673ffffffffffffffffffffffffffffffffffffffff1681526020019081526020016000206000828254611c69919061482b565b925050819055506001600360008473ffffffffffffffffffffffffffffffffffffffff1673ffffffffffffffffffffffffffffffffffffffff1681526020019081526020016000206000828254611cc09190613967565b92505081905550816002600083815260200190815260200160002060006101000a81548173ffffffffffffffffffffffffffffffffffffffff021916908373ffffffffffffffffffffffffffffffffffffffff160217905550808273ffffffffffffffffffffffffffffffffffffffff168473ffffffffffffffffffffffffffffffffffffffff167fddf252ad1be2c89b69c2b068fc378daa952ba7f163c4a11628f55a4df523b3ef60405160405180910390a4611d7f8383836125ce565b505050565b8173ffffffffffffffffffffffffffffffffffffffff168373ffffffffffffffffffffffffffffffffffffffff161415611df3576040517f08c379a0000000000000000000000000000000000000000000000000000000008152600401611dea90614c8e565b60405180910390fd5b80600560008573ffffffffffffffffffffffffffffffffffffffff1673ffffffffffffffffffffffffffffffffffffffff16815260200190815260200160002060008473ffffffffffffffffffffffffffffffffffffffff1673ffffffffffffffffffffffffffffffffffffffff16815260200190815260200160002060006101000a81548160ff0219169083151502179055508173ffffffffffffffffffffffffffffffffffffffff168373ffffffffffffffffffffffffffffffffffffffff167f17307eab39ab6107e8899845ad3d59bd9653f200f220920489ca2b5937696c3183604051611ee49190613aea565b60405180910390a3505050565b6000611efc826119f0565b611f3b576040517f08c379a0000000000000000000000000000000000000000000000000000000008152600401611f3290614d20565b60405180910390fd5b6000611f4683610e36565b90508073ffffffffffffffffffffffffffffffffffffffff168473ffffffffffffffffffffffffffffffffffffffff161480611f885750611f878185611857565b5b80611fc657508373ffffffffffffffffffffffffffffffffffffffff16611fae846107d5565b73ffffffffffffffffffffffffffffffffffffffff16145b91505092915050565b611fda848484611b1d565b611fe6848484846125d3565b612025576040517f08c379a000000000000000000000000000000000000000000000000000000000815260040161201c90614db2565b60405180910390fd5b50505050565b606060405180602001604052806000815250905090565b606061204d826119f0565b61208c576040517f08c379a000000000000000000000000000000000000000000000000000000000815260040161208390614e44565b60405180910390fd5b600061209661202b565b905060008151116120b657604051806020016040528060008152506120e1565b806120c08461276a565b6040516020016120d1929190614ad1565b6040516020818303038152906040525b915050919050565b60006120f486610afd565b905060105481346121059190613967565b101561211057600080fd5b5b600e60009054906101000a900460ff161561212b57612111565b6001600e60006101000a81548160ff02191690831515021790555060006001612152610972565b61215c919061482b565b90506000600f54905060006121728660016128cb565b905060006040518061012001604052808481526020018a8152602001898152602001838152602001888152602001600160ff168152602001600a60ff1681526020018760028111156121c7576121c6613e80565b5b81526020016000151581525090506121de81612978565b6121e757600080fd5b600a81908060018154018082558091505060019003906000526020600020906006020160009091909190915060008201518160000155602082015181600101556040820151816002015560608201518160030160008201518160000160006101000a81548160ff021916908360ff16021790555060208201518160000160016101000a81548160ff021916908360ff16021790555060408201518160000160026101000a81548160ff021916908360ff16021790555060608201518160000160036101000a81548160ff021916908360ff160217905550505060808201518160040160008201518160000160006101000a81548160ff021916908360ff16021790555060208201518160000160016101000a81548160ff021916908360ff16021790555060408201518160000160026101000a81548160ff021916908360ff16021790555060608201518160000160036101000a81548160ff021916908360ff160217905550505060a08201518160050160006101000a81548160ff021916908360ff16021790555060c08201518160050160016101000a81548160ff021916908360ff16021790555060e08201518160050160026101000a81548160ff021916908360028111156123bc576123bb613e80565b5b02179055506101008201518160050160036101000a81548160ff0219169083151502179055505050600f60008154809291906123f790614928565b91905055506000600e60006101000a81548160ff02191690831515021790555083600b6000858152602001908152602001600020819055506124398a84612a77565b60006124488260e00151612a95565b905060008151141561245957600080fd5b6124638482612bdc565b5050505050505050505050565b61247981612c50565b6000600660008381526020019081526020016000208054612499906144f0565b9050146124c0576006600082815260200190815260200160002060006124bf9190613817565b5b50565b6124ce838383612d6d565b600073ffffffffffffffffffffffffffffffffffffffff168373ffffffffffffffffffffffffffffffffffffffff16141561250857612547565b8173ffffffffffffffffffffffffffffffffffffffff168373ffffffffffffffffffffffffffffffffffffffff1614612546576125458382612d72565b5b5b600073ffffffffffffffffffffffffffffffffffffffff168273ffffffffffffffffffffffffffffffffffffffff16141561258a5761258581612edf565b6125c9565b8273ffffffffffffffffffffffffffffffffffffffff168273ffffffffffffffffffffffffffffffffffffffff16146125c8576125c7828261346c565b5b5b505050565b505050565b60006125f48473ffffffffffffffffffffffffffffffffffffffff166134eb565b1561275d578373ffffffffffffffffffffffffffffffffffffffff1663150b7a0261261d611a5c565b8786866040518563ffffffff1660e01b815260040161263f9493929190614eb9565b602060405180830381600087803b15801561265957600080fd5b505af192505050801561268a57506040513d601f19601f820116820180604052508101906126879190614f1a565b60015b61270d573d80600081146126ba576040519150601f19603f3d011682016040523d82523d6000602084013e6126bf565b606091505b50600081511415612705576040517f08c379a00000000000000000000000000000000000000000000000000000000081526004016126fc90614db2565b60405180910390fd5b805181602001fd5b63150b7a0260e01b7bffffffffffffffffffffffffffffffffffffffffffffffffffffffff1916817bffffffffffffffffffffffffffffffffffffffffffffffffffffffff191614915050612762565b600190505b949350505050565b606060008214156127b2576040518060400160405280600181526020017f300000000000000000000000000000000000000000000000000000000000000081525090506128c6565b600082905060005b600082146127e45780806127cd90614928565b915050600a826127dd9190614f76565b91506127ba565b60008167ffffffffffffffff811115612800576127ff614241565b5b6040519080825280601f01601f1916602001820160405280156128325781602001600182028036833780820191505090505b5090505b600085146128bf5760018261284b919061482b565b9150600a8561285a9190614fa7565b60306128669190613967565b60f81b81838151811061287c5761287b6146d8565b5b60200101907effffffffffffffffffffffffffffffffffffffffffffffffffffffffffffff1916908160001a905350600a856128b89190614f76565b9450612836565b8093505050505b919050565b6128d3613771565b6128db613771565b8260056128ec86600001518661350e565b6128f69190614fd8565b6129009190614fd8565b816000019060ff16908160ff168152505061291f84606001518461350e565b816060019060ff16908160ff168152505061293e84604001518461350e565b816040019060ff16908160ff168152505061295d84602001518461350e565b816020019060ff16908160ff16815250508091505092915050565b60008082600001511180156129985750600082606001516000015160ff16115b80156129af5750600082606001516020015160ff16115b80156129c65750600082606001516040015160ff16115b80156129dd5750600082606001516060015160ff16115b80156129f55750601f82608001516000015160ff1611155b8015612a0d5750601f82608001516020015160ff1611155b8015612a255750601f82608001516040015160ff1611155b8015612a3d5750601f82608001516060015160ff1611155b8015612a515750601f8260a0015160ff1611155b8015612a65575060008260c0015160ff1614155b612a6e57600080fd5b60019050919050565b612a9182826040518060200160405280600081525061353c565b5050565b60608060006002811115612aac57612aab613e80565b5b836002811115612abf57612abe613e80565b5b1415612b02576040518060400160405280601b81526020017f2e2e2f7075626c69632f696d616765732f647261676f6e2e706e6700000000008152509050612bd3565b600280811115612b1557612b14613e80565b5b836002811115612b2857612b27613e80565b5b1415612b6b576040518060400160405280601d81526020017f2e2e2f7075626c69632f696d616765732f676172676f796c652e706e670000008152509050612bd2565b60016002811115612b7f57612b7e613e80565b5b836002811115612b9257612b91613e80565b5b1415612bd1576040518060400160405280601a81526020017f2e2e2f7075626c69632f696d616765732f67686f73742e706e6700000000000081525090505b5b5b80915050919050565b612be5826119f0565b612c24576040517f08c379a0000000000000000000000000000000000000000000000000000000008152600401612c1b90615081565b60405180910390fd5b80600660008481526020019081526020016000209080519060200190612c4b929190613857565b505050565b6000612c5b82610e36565b9050612c69816000846124c3565b612c74600083611a64565b6001600360008373ffffffffffffffffffffffffffffffffffffffff1673ffffffffffffffffffffffffffffffffffffffff1681526020019081526020016000206000828254612cc4919061482b565b925050819055506002600083815260200190815260200160002060006101000a81549073ffffffffffffffffffffffffffffffffffffffff021916905581600073ffffffffffffffffffffffffffffffffffffffff168273ffffffffffffffffffffffffffffffffffffffff167fddf252ad1be2c89b69c2b068fc378daa952ba7f163c4a11628f55a4df523b3ef60405160405180910390a4612d69816000846125ce565b5050565b505050565b60006001612d7f8461107f565b612d89919061482b565b90506000600d6000848152602001908152602001600020549050818114612e6e576000600c60008673ffffffffffffffffffffffffffffffffffffffff1673ffffffffffffffffffffffffffffffffffffffff168152602001908152602001600020600084815260200190815260200160002054905080600c60008773ffffffffffffffffffffffffffffffffffffffff1673ffffffffffffffffffffffffffffffffffffffff16815260200190815260200160002060008481526020019081526020016000208190555081600d600083815260200190815260200160002081905550505b600d600084815260200190815260200160002060009055600c60008573ffffffffffffffffffffffffffffffffffffffff1673ffffffffffffffffffffffffffffffffffffffff16815260200190815260200160002060008381526020019081526020016000206000905550505050565b60006001600a80549050612ef3919061482b565b90506000600b60008481526020019081526020016000205490506000600a8381548110612f2357612f226146d8565b5b906000526020600020906006020160405180610120016040529081600082015481526020016001820154815260200160028201548152602001600382016040518060800160405290816000820160009054906101000a900460ff1660ff1660ff1681526020016000820160019054906101000a900460ff1660ff1660ff1681526020016000820160029054906101000a900460ff1660ff1660ff1681526020016000820160039054906101000a900460ff1660ff1660ff16815250508152602001600482016040518060800160405290816000820160009054906101000a900460ff1660ff1660ff1681526020016000820160019054906101000a900460ff1660ff1660ff1681526020016000820160029054906101000a900460ff1660ff1660ff1681526020016000820160039054906101000a900460ff1660ff1660ff168152505081526020016005820160009054906101000a900460ff1660ff1660ff1681526020016005820160019054906101000a900460ff1660ff1660ff1681526020016005820160029054906101000a900460ff1660028111156130ca576130c9613e80565b5b60028111156130dc576130db613e80565b5b81526020016005820160039054906101000a900460ff161515151581525050905080600a8381548110613112576131116146d8565b5b906000526020600020906006020160008201518160000155602082015181600101556040820151816002015560608201518160030160008201518160000160006101000a81548160ff021916908360ff16021790555060208201518160000160016101000a81548160ff021916908360ff16021790555060408201518160000160026101000a81548160ff021916908360ff16021790555060608201518160000160036101000a81548160ff021916908360ff160217905550505060808201518160040160008201518160000160006101000a81548160ff021916908360ff16021790555060208201518160000160016101000a81548160ff021916908360ff16021790555060408201518160000160026101000a81548160ff021916908360ff16021790555060608201518160000160036101000a81548160ff021916908360ff160217905550505060a08201518160050160006101000a81548160ff021916908360ff16021790555060c08201518160050160016101000a81548160ff021916908360ff16021790555060e08201518160050160026101000a81548160ff021916908360028111156132c9576132c8613e80565b5b02179055506101008201518160050160036101000a81548160ff02191690831515021790555090505081600b60008360000151815260200190815260200160002081905550600b600085815260200190815260200160002060009055600a805480613337576133366150a1565b5b60019003818190600052602060002090600602016000808201600090556001820160009055600282016000905560038201600080820160006101000a81549060ff02191690556000820160016101000a81549060ff02191690556000820160026101000a81549060ff02191690556000820160036101000a81549060ff0219169055505060048201600080820160006101000a81549060ff02191690556000820160016101000a81549060ff02191690556000820160026101000a81549060ff02191690556000820160036101000a81549060ff021916905550506005820160006101000a81549060ff02191690556005820160016101000a81549060ff02191690556005820160026101000a81549060ff02191690556005820160036101000a81549060ff02191690555050905550505050565b60006134778361107f565b905081600c60008573ffffffffffffffffffffffffffffffffffffffff1673ffffffffffffffffffffffffffffffffffffffff16815260200190815260200160002060008381526020019081526020016000208190555080600d600084815260200190815260200160002081905550505050565b6000808273ffffffffffffffffffffffffffffffffffffffff163b119050919050565b60006005600a838561352091906150d0565b61352a919061510b565b6135349190614fd8565b905092915050565b6135468383613597565b61355360008484846125d3565b613592576040517f08c379a000000000000000000000000000000000000000000000000000000000815260040161358990614db2565b60405180910390fd5b505050565b600073ffffffffffffffffffffffffffffffffffffffff168273ffffffffffffffffffffffffffffffffffffffff161415613607576040517f08c379a00000000000000000000000000000000000000000000000000000000081526004016135fe90615188565b60405180910390fd5b613610816119f0565b15613650576040517f08c379a0000000000000000000000000000000000000000000000000000000008152600401613647906151f4565b60405180910390fd5b61365c600083836124c3565b6001600360008473ffffffffffffffffffffffffffffffffffffffff1673ffffffffffffffffffffffffffffffffffffffff16815260200190815260200160002060008282546136ac9190613967565b92505081905550816002600083815260200190815260200160002060006101000a81548173ffffffffffffffffffffffffffffffffffffffff021916908373ffffffffffffffffffffffffffffffffffffffff160217905550808273ffffffffffffffffffffffffffffffffffffffff16600073ffffffffffffffffffffffffffffffffffffffff167fddf252ad1be2c89b69c2b068fc378daa952ba7f163c4a11628f55a4df523b3ef60405160405180910390a461376d600083836125ce565b5050565b6040518060800160405280600060ff168152602001600060ff168152602001600060ff168152602001600060ff1681525090565b6040518061012001604052806000815260200160008152602001600081526020016137ce613771565b81526020016137db6138dd565b8152602001600060ff168152602001600060ff1681526020016000600281111561380857613807613e80565b5b81526020016000151581525090565b508054613823906144f0565b6000825580601f106138355750613854565b601f0160209004906000526020600020908101906138539190613911565b5b50565b828054613863906144f0565b90600052602060002090601f01602090048101928261388557600085556138cc565b82601f1061389e57805160ff19168380011785556138cc565b828001600101855582156138cc579182015b828111156138cb5782518255916020019190600101906138b0565b5b5090506138d99190613911565b5090565b6040518060800160405280600060ff168152602001600060ff168152602001600060ff168152602001600060ff1681525090565b5b8082111561392a576000816000905550600101613912565b5090565b6000819050919050565b7f4e487b7100000000000000000000000000000000000000000000000000000000600052601160045260246000fd5b60006139728261392e565b915061397d8361392e565b9250827fffffffffffffffffffffffffffffffffffffffffffffffffffffffffffffffff038211156139b2576139b1613938565b5b828201905092915050565b600073ffffffffffffffffffffffffffffffffffffffff82169050919050565b60006139e8826139bd565b9050919050565b6139f8816139dd565b82525050565b613a078161392e565b82525050565b6000604082019050613a2260008301856139ef565b613a2f60208301846139fe565b9392505050565b6000604051905090565b600080fd5b600080fd5b60007fffffffff0000000000000000000000000000000000000000000000000000000082169050919050565b613a7f81613a4a565b8114613a8a57600080fd5b50565b600081359050613a9c81613a76565b92915050565b600060208284031215613ab857613ab7613a40565b5b6000613ac684828501613a8d565b91505092915050565b60008115159050919050565b613ae481613acf565b82525050565b6000602082019050613aff6000830184613adb565b92915050565b600081519050919050565b600082825260208201905092915050565b60005b83811015613b3f578082015181840152602081019050613b24565b83811115613b4e576000848401525b50505050565b6000601f19601f8301169050919050565b6000613b7082613b05565b613b7a8185613b10565b9350613b8a818560208601613b21565b613b9381613b54565b840191505092915050565b60006020820190508181036000830152613bb88184613b65565b905092915050565b613bc98161392e565b8114613bd457600080fd5b50565b600081359050613be681613bc0565b92915050565b600060208284031215613c0257613c01613a40565b5b6000613c1084828501613bd7565b91505092915050565b6000602082019050613c2e60008301846139ef565b92915050565b613c3d816139dd565b8114613c4857600080fd5b50565b600081359050613c5a81613c34565b92915050565b60008060408385031215613c7757613c76613a40565b5b6000613c8585828601613c4b565b9250506020613c9685828601613bd7565b9150509250929050565b6000602082019050613cb560008301846139fe565b92915050565b600060ff82169050919050565b613cd181613cbb565b82525050565b608082016000820151613ced6000850182613cc8565b506020820151613d006020850182613cc8565b506040820151613d136040850182613cc8565b506060820151613d266060850182613cc8565b50505050565b6000608082019050613d416000830184613cd7565b92915050565b600080600060608486031215613d6057613d5f613a40565b5b6000613d6e86828701613c4b565b9350506020613d7f86828701613c4b565b9250506040613d9086828701613bd7565b9150509250925092565b600060208284031215613db057613daf613a40565b5b6000613dbe84828501613c4b565b91505092915050565b613dd08161392e565b82525050565b608082016000820151613dec6000850182613cc8565b506020820151613dff6020850182613cc8565b506040820151613e126040850182613cc8565b506060820151613e256060850182613cc8565b50505050565b608082016000820151613e416000850182613cc8565b506020820151613e546020850182613cc8565b506040820151613e676040850182613cc8565b506060820151613e7a6060850182613cc8565b50505050565b7f4e487b7100000000000000000000000000000000000000000000000000000000600052602160045260246000fd5b60038110613ec057613ebf613e80565b5b50565b6000819050613ed182613eaf565b919050565b6000613ee182613ec3565b9050919050565b613ef181613ed6565b82525050565b613f0081613acf565b82525050565b6101e082016000820151613f1d6000850182613dc7565b506020820151613f306020850182613dc7565b506040820151613f436040850182613dc7565b506060820151613f566060850182613dd6565b506080820151613f6960e0850182613e2b565b5060a0820151613f7d610160850182613cc8565b5060c0820151613f91610180850182613cc8565b5060e0820151613fa56101a0850182613ee8565b50610100820151613fba6101c0850182613ef7565b50505050565b60006101e082019050613fd66000830184613f06565b92915050565b613fe581613cbb565b82525050565b613ff481613ed6565b82525050565b600060e08201905061400f60008301876139ef565b61401c6020830186613fdc565b6140296040830185613cd7565b61403660c0830184613feb565b95945050505050565b600081519050919050565b600082825260208201905092915050565b6000819050602082019050919050565b6101e0820160008201516140826000850182613dc7565b5060208201516140956020850182613dc7565b5060408201516140a86040850182613dc7565b5060608201516140bb6060850182613dd6565b5060808201516140ce60e0850182613e2b565b5060a08201516140e2610160850182613cc8565b5060c08201516140f6610180850182613cc8565b5060e082015161410a6101a0850182613ee8565b5061010082015161411f6101c0850182613ef7565b50505050565b6000614131838361406b565b6101e08301905092915050565b6000602082019050919050565b60006141568261403f565b614160818561404a565b935061416b8361405b565b8060005b8381101561419c5781516141838882614125565b975061418e8361413e565b92505060018101905061416f565b5085935050505092915050565b600060208201905081810360008301526141c3818461414b565b905092915050565b6141d481613acf565b81146141df57600080fd5b50565b6000813590506141f1816141cb565b92915050565b6000806040838503121561420e5761420d613a40565b5b600061421c85828601613c4b565b925050602061422d858286016141e2565b9150509250929050565b600080fd5b600080fd5b7f4e487b7100000000000000000000000000000000000000000000000000000000600052604160045260246000fd5b61427982613b54565b810181811067ffffffffffffffff8211171561429857614297614241565b5b80604052505050565b60006142ab613a36565b90506142b78282614270565b919050565b600067ffffffffffffffff8211156142d7576142d6614241565b5b6142e082613b54565b9050602081019050919050565b82818337600083830152505050565b600061430f61430a846142bc565b6142a1565b90508281526020810184848401111561432b5761432a61423c565b5b6143368482856142ed565b509392505050565b600082601f83011261435357614352614237565b5b81356143638482602086016142fc565b91505092915050565b6000806000806080858703121561438657614385613a40565b5b600061439487828801613c4b565b94505060206143a587828801613c4b565b93505060406143b687828801613bd7565b925050606085013567ffffffffffffffff8111156143d7576143d6613a45565b5b6143e38782880161433e565b91505092959194509250565b6000806040838503121561440657614405613a40565b5b600061441485828601613bd7565b9250506020614425858286016141e2565b9150509250929050565b6003811061443c57600080fd5b50565b60008135905061444e8161442f565b92915050565b60006020828403121561446a57614469613a40565b5b60006144788482850161443f565b91505092915050565b6000806040838503121561449857614497613a40565b5b60006144a685828601613c4b565b92505060206144b785828601613c4b565b9150509250929050565b7f4e487b7100000000000000000000000000000000000000000000000000000000600052602260045260246000fd5b6000600282049050600182168061450857607f821691505b6020821081141561451c5761451b6144c1565b5b50919050565b7f4552433732313a20617070726f76656420717565727920666f72206e6f6e657860008201527f697374656e7420746f6b656e0000000000000000000000000000000000000000602082015250565b600061457e602c83613b10565b915061458982614522565b604082019050919050565b600060208201905081810360008301526145ad81614571565b9050919050565b7f4552433732313a20617070726f76616c20746f2063757272656e74206f776e6560008201527f7200000000000000000000000000000000000000000000000000000000000000602082015250565b6000614610602183613b10565b915061461b826145b4565b604082019050919050565b6000602082019050818103600083015261463f81614603565b9050919050565b7f4552433732313a20617070726f76652063616c6c6572206973206e6f74206f7760008201527f6e6572206e6f7220617070726f76656420666f7220616c6c0000000000000000602082015250565b60006146a2603883613b10565b91506146ad82614646565b604082019050919050565b600060208201905081810360008301526146d181614695565b9050919050565b7f4e487b7100000000000000000000000000000000000000000000000000000000600052603260045260246000fd5b7f6465706f73697420717565727920666f7220746865207a65726f20616464726560008201527f7373000000000000000000000000000000000000000000000000000000000000602082015250565b6000614763602283613b10565b915061476e82614707565b604082019050919050565b6000602082019050818103600083015261479281614756565b9050919050565b7f4552433732313a206f776e657220717565727920666f72206e6f6e657869737460008201527f656e7420746f6b656e0000000000000000000000000000000000000000000000602082015250565b60006147f5602983613b10565b915061480082614799565b604082019050919050565b60006020820190508181036000830152614824816147e8565b9050919050565b60006148368261392e565b91506148418361392e565b92508282101561485457614853613938565b5b828203905092915050565b600060608201905061487460008301866139ef565b61488160208301856139ef565b61488e60408301846139fe565b949350505050565b7f4552433732313a2062616c616e636520717565727920666f7220746865207a6560008201527f726f206164647265737300000000000000000000000000000000000000000000602082015250565b60006148f2602a83613b10565b91506148fd82614896565b604082019050919050565b60006020820190508181036000830152614921816148e5565b9050919050565b60006149338261392e565b91507fffffffffffffffffffffffffffffffffffffffffffffffffffffffffffffffff82141561496657614965613938565b5b600182019050919050565b7f4552433732313a207472616e736665722063616c6c6572206973206e6f74206f60008201527f776e6572206e6f7220617070726f766564000000000000000000000000000000602082015250565b60006149cd603183613b10565b91506149d882614971565b604082019050919050565b600060208201905081810360008301526149fc816149c0565b9050919050565b7f45524337323155524953746f726167653a2055524920717565727920666f722060008201527f6e6f6e6578697374656e7420746f6b656e000000000000000000000000000000602082015250565b6000614a5f603183613b10565b9150614a6a82614a03565b604082019050919050565b60006020820190508181036000830152614a8e81614a52565b9050919050565b600081905092915050565b6000614aab82613b05565b614ab58185614a95565b9350614ac5818560208601613b21565b80840191505092915050565b6000614add8285614aa0565b9150614ae98284614aa0565b91508190509392505050565b6000604082019050614b0a60008301856139fe565b614b176020830184613adb565b9392505050565b7f4552433732313a207472616e736665722066726f6d20696e636f72726563742060008201527f6f776e6572000000000000000000000000000000000000000000000000000000602082015250565b6000614b7a602583613b10565b9150614b8582614b1e565b604082019050919050565b60006020820190508181036000830152614ba981614b6d565b9050919050565b7f4552433732313a207472616e7366657220746f20746865207a65726f2061646460008201527f7265737300000000000000000000000000000000000000000000000000000000602082015250565b6000614c0c602483613b10565b9150614c1782614bb0565b604082019050919050565b60006020820190508181036000830152614c3b81614bff565b9050919050565b7f4552433732313a20617070726f766520746f2063616c6c657200000000000000600082015250565b6000614c78601983613b10565b9150614c8382614c42565b602082019050919050565b60006020820190508181036000830152614ca781614c6b565b9050919050565b7f4552433732313a206f70657261746f7220717565727920666f72206e6f6e657860008201527f697374656e7420746f6b656e0000000000000000000000000000000000000000602082015250565b6000614d0a602c83613b10565b9150614d1582614cae565b604082019050919050565b60006020820190508181036000830152614d3981614cfd565b9050919050565b7f4552433732313a207472616e7366657220746f206e6f6e20455243373231526560008201527f63656976657220696d706c656d656e7465720000000000000000000000000000602082015250565b6000614d9c603283613b10565b9150614da782614d40565b604082019050919050565b60006020820190508181036000830152614dcb81614d8f565b9050919050565b7f4552433732314d657461646174613a2055524920717565727920666f72206e6f60008201527f6e6578697374656e7420746f6b656e0000000000000000000000000000000000602082015250565b6000614e2e602f83613b10565b9150614e3982614dd2565b604082019050919050565b60006020820190508181036000830152614e5d81614e21565b9050919050565b600081519050919050565b600082825260208201905092915050565b6000614e8b82614e64565b614e958185614e6f565b9350614ea5818560208601613b21565b614eae81613b54565b840191505092915050565b6000608082019050614ece60008301876139ef565b614edb60208301866139ef565b614ee860408301856139fe565b8181036060830152614efa8184614e80565b905095945050505050565b600081519050614f1481613a76565b92915050565b600060208284031215614f3057614f2f613a40565b5b6000614f3e84828501614f05565b91505092915050565b7f4e487b7100000000000000000000000000000000000000000000000000000000600052601260045260246000fd5b6000614f818261392e565b9150614f8c8361392e565b925082614f9c57614f9b614f47565b5b828204905092915050565b6000614fb28261392e565b9150614fbd8361392e565b925082614fcd57614fcc614f47565b5b828206905092915050565b6000614fe382613cbb565b9150614fee83613cbb565b92508260ff0382111561500457615003613938565b5b828201905092915050565b7f45524337323155524953746f726167653a2055524920736574206f66206e6f6e60008201527f6578697374656e7420746f6b656e000000000000000000000000000000000000602082015250565b600061506b602e83613b10565b91506150768261500f565b604082019050919050565b6000602082019050818103600083015261509a8161505e565b9050919050565b7f4e487b7100000000000000000000000000000000000000000000000000000000600052603160045260246000fd5b60006150db82613cbb565b91506150e683613cbb565b92508160ff0483118215151615615100576150ff613938565b5b828202905092915050565b600061511682613cbb565b915061512183613cbb565b92508261513157615130614f47565b5b828204905092915050565b7f4552433732313a206d696e7420746f20746865207a65726f2061646472657373600082015250565b6000615172602083613b10565b915061517d8261513c565b602082019050919050565b600060208201905081810360008301526151a181615165565b9050919050565b7f4552433732313a20746f6b656e20616c7265616479206d696e74656400000000600082015250565b60006151de601c83613b10565b91506151e9826151a8565b602082019050919050565b6000602082019050818103600083015261520d816151d1565b905091905056fea264697066735822122000f77059ad25874a5513e0f6524f72b57eb4b539603ead33cd3e8381c44ba32964736f6c63430008090033",
  "immutableReferences": {},
  "source": "pragma solidity ^0.8.9;\r\n\r\nimport \"../node_modules/@openzeppelin/contracts/token/ERC721/ERC721.sol\";\r\nimport \"../node_modules/@openzeppelin/contracts/token/ERC721/extensions/ERC721Enumerable.sol\";\r\nimport \"../node_modules/@openzeppelin/contracts/token/ERC721/extensions/ERC721URIStorage.sol\";\r\nimport \"./MonsterLib.sol\";\r\n\r\ncontract MonsterToken is  ERC721URIStorage {\r\n\r\n    event LevelUp(MonsterLib.Statistics, MonsterLib.Statistics);\r\n    event TransferMoney(address, address, uint);\r\n    event LockMonster(uint, bool);\r\n    event MonsterInMarket(uint);\r\n\r\n    string constant imagePath = \"../public/images/\";\r\n\r\n    event ReceiveEth(address from, uint256 amount);\r\n    \r\n    // Mapping owner address to ETH balance\r\n    mapping(address => uint) private _deposit;\r\n\r\n    // Mapping from token ID to approved address\r\n    mapping(uint256 => address) private _tokenApprovals;\r\n\r\n    // Mapping from owner to operator approvals\r\n    mapping(address => mapping(address => bool)) private _operatorApprovals;\r\n\r\n    // Array with all token ids, used for enumeration\r\n    MonsterLib.Monster[] private _allMonsters;\r\n\r\n    // Mapping from token id to position in the allTokens array\r\n    mapping(uint256 => uint256) private _allTokensIndex;\r\n\r\n    // Mapping from owner to list of owned token IDs\r\n    mapping(address => mapping(uint256 => uint256)) private _ownedTokens;\r\n\r\n    // Mapping from token ID to index of the owner tokens list\r\n    mapping(uint256 => uint256) private _ownedTokensIndex;\r\n\r\n    //True when some one storing their new monsters\r\n    bool isPushing;\r\n\r\n    uint256 private IdCount;\r\n\r\n    uint256 private createFee;\r\n\r\n    MonsterLib.IndividualValue initialIV = MonsterLib.IndividualValue(5,5,5,5);\r\n\r\n    constructor() ERC721(\"Monster Token\", \"MONSTER\") {\r\n        IdCount = 1;\r\n        isPushing = false;\r\n\r\n    }\r\n\r\n    modifier _tokenExist(uint256 _tokenId){\r\n        require(_exists(_tokenId));\r\n        _;\r\n    }\r\n\r\n    function depositOf(address owner) public view returns (uint256){\r\n        require(owner == tx.origin);\r\n        require(owner != address(0), \"deposit query for the zero address\");\r\n        return _deposit[owner];\r\n    }\r\n\r\n    function totalSupply() public view returns (uint256){\r\n        return _allMonsters.length;\r\n    }\r\n    /**\r\n     *@dev Pay ETH to get a default monster from contract\r\n     */\r\n    function getInitialMonster(MonsterLib.Race race) public{\r\n        _createNewMonster(msg.sender, 0, 0,initialIV, race);\r\n\r\n    }\r\n\r\n    /**\r\n     *@dev create a new monster from contract, this monter can be default monster or come from breeding\r\n     */\r\n\r\n    function _createNewMonster(address to, uint256 mumId, uint256 dadId, MonsterLib.IndividualValue memory iv, MonsterLib.Race race) internal {\r\n        uint256 _depo = depositOf(to);\r\n        require(msg.value + _depo >= createFee);\r\n        while(isPushing){\r\n\r\n        }\r\n        isPushing = true;\r\n        uint256 _monsterIndex = totalSupply() - 1;\r\n        uint256 _monsterId = IdCount;\r\n        MonsterLib.Statistics memory statc = MonsterLib._calculateStatc(iv, 1);\r\n        MonsterLib.Monster memory monster = MonsterLib.Monster(_monsterId, mumId, dadId, statc, iv, 1, 1*10, race,false);\r\n        require(MonsterLib._checkMonsterValid(monster));\r\n        _allMonsters.push(monster);\r\n        IdCount ++;\r\n        isPushing = false;\r\n        _allTokensIndex[_monsterId] = _monsterIndex;\r\n        _safeMint(to, _monsterId);\r\n        string memory _monsterURI = _monsterURIByRace(monster.race);\r\n        require (bytes(_monsterURI).length != 0);\r\n        _setTokenURI(_monsterId, _monsterURI);\r\n    }\r\n\r\n\r\n        /**\r\n     * @dev Hook that is called before any token transfer. This includes minting\r\n     * and burning.\r\n     *\r\n     * Calling conditions:\r\n     *\r\n     * - When `from` and `to` are both non-zero, ``from``'s `tokenId` will be\r\n     * transferred to `to`.\r\n     * - When `from` is zero, `tokenId` will be minted for `to`.\r\n     * - When `to` is zero, ``from``'s `tokenId` will be burned.\r\n     * - `from` cannot be the zero address.\r\n     * - `to` cannot be the zero address.\r\n     *\r\n     * To learn more about hooks, head to xref:ROOT:extending-contracts.adoc#using-hooks[Using Hooks].\r\n     */\r\n    function _beforeTokenTransfer(\r\n        address from,\r\n        address to,\r\n        uint256 tokenId\r\n    ) internal override {\r\n        super._beforeTokenTransfer(from, to, tokenId);\r\n\r\n        if (from == address(0)) {\r\n            //This monster has been added before\r\n        } else if (from != to) {\r\n            _removeMonsterFromOwnerEnumeration(from, tokenId);\r\n        }\r\n        if (to == address(0)) {\r\n            _removeMonsterFromAllTokensEnumeration(tokenId);\r\n        } else if (to != from) {\r\n            _addMonsterToOwnerEnumeration(to, tokenId);\r\n        }\r\n    }\r\n        /**\r\n     * @dev Private function to add a token to this extension's ownership-tracking data structures.\r\n     * @param to address representing the new owner of the given token ID\r\n     * @param tokenId uint256 ID of the token to be added to the tokens list of the given address\r\n     */\r\n    function _addMonsterToOwnerEnumeration(address to, uint256 tokenId) private{\r\n        uint256 length = balanceOf(to);\r\n        _ownedTokens[to][length] = tokenId;\r\n        _ownedTokensIndex[tokenId] = length;\r\n    }\r\n\r\n\r\n    /**\r\n     * @dev Private function to remove a token from this extension's ownership-tracking data structures. Note that\r\n     * while the token is not assigned a new owner, the `_ownedTokensIndex` mapping is _not_ updated: this allows for\r\n     * gas optimizations e.g. when performing a transfer operation (avoiding double writes).\r\n     * This has O(1) time complexity, but alters the order of the _ownedTokens array.\r\n     * @param from address representing the previous owner of the given token ID\r\n     * @param tokenId uint256 ID of the token to be removed from the tokens list of the given address\r\n     */\r\n    function _removeMonsterFromOwnerEnumeration(address from, uint256 tokenId) private {\r\n        // To prevent a gap in from's tokens array, we store the last token in the index of the token to delete, and\r\n        // then delete the last slot (swap and pop).\r\n\r\n        uint256 lastTokenIndex = ERC721.balanceOf(from) - 1;\r\n        uint256 tokenIndex = _ownedTokensIndex[tokenId];\r\n\r\n        // When the token to delete is the last token, the swap operation is unnecessary\r\n        if (tokenIndex != lastTokenIndex) {\r\n            uint256 lastTokenId = _ownedTokens[from][lastTokenIndex];\r\n\r\n            _ownedTokens[from][tokenIndex] = lastTokenId; // Move the last token to the slot of the to-delete token\r\n            _ownedTokensIndex[lastTokenId] = tokenIndex; // Update the moved token's index\r\n        }\r\n\r\n        // This also deletes the contents at the last position of the array\r\n        delete _ownedTokensIndex[tokenId];\r\n        delete _ownedTokens[from][lastTokenIndex];\r\n    }\r\n\r\n    /**\r\n     * @dev Private function to remove a token from this extension's token tracking data structures.\r\n     * This has O(1) time complexity, but alters the order of the _allTokens array.\r\n     * @param tokenId uint256 ID of the token to be removed from the tokens list\r\n     */\r\n    function _removeMonsterFromAllTokensEnumeration(uint256 tokenId) private  {\r\n        // To prevent a gap in the tokens array, we store the last token in the index of the token to delete, and\r\n        // then delete the last slot (swap and pop).\r\n\r\n        uint256 lastTokenIndex = _allMonsters.length - 1;\r\n        uint256 tokenIndex = _allTokensIndex[tokenId];\r\n\r\n        // When the token to delete is the last token, the swap operation is unnecessary. However, since this occurs so\r\n        // rarely (when the last minted token is burnt) that we still do the swap here to avoid the gas cost of adding\r\n        // an 'if' statement (like in _removeTokenFromOwnerEnumeration)\r\n        MonsterLib.Monster memory lastMonster = _allMonsters[lastTokenIndex];\r\n\r\n        _allMonsters[tokenIndex] = lastMonster; // Move the last token to the slot of the to-delete token\r\n        _allTokensIndex[lastMonster.tokenId] = tokenIndex; // Update the moved token's index\r\n\r\n        // This also deletes the contents at the last position of the array\r\n        delete _allTokensIndex[tokenId];\r\n        _allMonsters.pop();\r\n    }\r\n\r\n    function _monsterURIByRace(MonsterLib.Race _race) internal pure returns(string memory){\r\n        string memory _monsterURI;\r\n        if(_race == MonsterLib.Race.DRAGON) _monsterURI =\"../public/images/dragon.png\" ;\r\n        else if(_race == MonsterLib.Race.GARGOYLE) _monsterURI =\"../public/images/gargoyle.png\";\r\n        else if (_race == MonsterLib.Race.GHOST) _monsterURI =\"../public/images/ghost.png\";\r\n        return _monsterURI;\r\n    }\r\n    \r\n    receive() external payable{\r\n        _deposit[msg.sender] += msg.value;\r\n        emit ReceiveEth(msg.sender, msg.value);\r\n\r\n    }\r\n\r\n    /**\r\n     * Used for buyer want to check more detailed information in the market\r\n     */\r\n     function getStatics(uint256 _tokenId) public view _tokenExist(_tokenId) returns(MonsterLib.Statistics memory){\r\n         uint256 _tokenIndex = _allTokensIndex[_tokenId];\r\n        return _allMonsters[_tokenIndex].statc;\r\n\r\n     }\r\n\r\n     /**\r\n      * \r\n      */\r\n    function getProductInfo(uint256 _tokenId) public view _tokenExist(_tokenId) returns(address, uint8, MonsterLib.Statistics memory, MonsterLib.Race){\r\n        uint256 _tokenIndex = _allTokensIndex[_tokenId];\r\n        MonsterLib.Monster memory monster = _allMonsters[_tokenIndex];\r\n        address owner = ownerOf(_tokenId);\r\n        return (owner, monster.level, monster.statc,monster.race);\r\n    }\r\n\r\n    function monsterById(uint256 _tokenId) public view _tokenExist(_tokenId) returns (MonsterLib.Monster memory){\r\n        uint256 _tokenIndex = _allTokensIndex[_tokenId];\r\n        return _allMonsters[_tokenIndex];\r\n    }\r\n\r\n    function _monsterByIndex(uint256 _tokenIndex) internal view returns (MonsterLib.Monster memory){\r\n        require(_tokenIndex < totalSupply() - 1);\r\n        return _allMonsters[_tokenIndex];\r\n    }\r\n\r\n    function _updateExp(uint256 _tokenId, uint8 exp) internal _tokenExist(_tokenId){\r\n        uint256 _tokenIndex = _allTokensIndex[_tokenId];\r\n        MonsterLib.Monster storage monster = _allMonsters[_tokenIndex];\r\n        if(monster.expNeedToNext > exp) monster.expNeedToNext -= exp;\r\n        else{\r\n            if(monster.level < 10){\r\n                monster.level += 1;\r\n                monster.expNeedToNext = monster.level * 10 - (exp -  monster.expNeedToNext);\r\n                MonsterLib.Statistics memory _oldStatc = monster.statc;\r\n                MonsterLib.Statistics memory _newStatc = MonsterLib._calculateStatc(monster.iv, monster.level);\r\n                emit LevelUp(_oldStatc, _newStatc);\r\n            }\r\n        }\r\n\r\n    }\r\n\r\n    function transferMoney(address _from, address _to, uint _value) external {\r\n        require(tx.origin == _from);\r\n        require(_to != address(0) && _from != address(0));\r\n        _deposit[_from] -= _value;\r\n        _deposit[_to] += _value;\r\n        emit TransferMoney(_from, _to, _value);\r\n    }\r\n\r\n    function transferFrom(address _from, address _to,uint _tokenId) public override{\r\n        require(ownerOf(_tokenId) == _from);\r\n        require (monsterById(_tokenId).isLocked && tx.origin == _to);\r\n        _transfer(_from, _to, _tokenId);\r\n    }\r\n\r\n    function lockMonster(uint _tokenId, bool _locked) public {\r\n        require(tx.origin == ownerOf(_tokenId));\r\n        _allMonsters[_allTokensIndex[_tokenId]].isLocked = _locked;\r\n        emit LockMonster(_tokenId,_locked);\r\n    }\r\n\r\n    function getOwnedMonster() public view returns (MonsterLib.Monster[] memory monsters) {\r\n        uint _ownedCount = balanceOf(msg.sender);\r\n        if(_ownedCount != 0){\r\n            for(uint i = 0; i < _ownedCount; i++){\r\n                monsters[i] = monsterById(_ownedTokens[msg.sender][i]);\r\n            }\r\n        }\r\n        else monsters = new MonsterLib.Monster[](0);\r\n\r\n    }\r\n\r\n    function deleteMonster(uint _monsterId) public {\r\n        require(msg.sender == ownerOf(_monsterId));\r\n        if(monsterById(_monsterId).isLocked){\r\n            emit MonsterInMarket(_monsterId);\r\n            revert();\r\n        }\r\n        else{\r\n            _burn(_monsterId);\r\n        }\r\n    }\r\n\r\n\r\n\r\n\r\n\r\n    \r\n}",
  "sourcePath": "D:\\GitHub\\monster\\contracts\\MonsterToken.sol",
  "compiler": {
    "name": "solc",
    "version": "0.8.9+commit.e5eed63a.Emscripten.clang"
  },
  "schemaVersion": "3.4.7",
  "updatedAt": "2022-05-14T23:27:48.766Z",
  "devdoc": {
    "kind": "dev",
    "methods": {
      "approve(address,uint256)": {
        "details": "See {IERC721-approve}."
      },
      "balanceOf(address)": {
        "details": "See {IERC721-balanceOf}."
      },
      "getApproved(uint256)": {
        "details": "See {IERC721-getApproved}."
      },
      "getInitialMonster(uint8)": {
        "details": "Pay ETH to get a default monster from contract"
      },
      "isApprovedForAll(address,address)": {
        "details": "See {IERC721-isApprovedForAll}."
      },
      "name()": {
        "details": "See {IERC721Metadata-name}."
      },
      "ownerOf(uint256)": {
        "details": "See {IERC721-ownerOf}."
      },
      "safeTransferFrom(address,address,uint256)": {
        "details": "See {IERC721-safeTransferFrom}."
      },
      "safeTransferFrom(address,address,uint256,bytes)": {
        "details": "See {IERC721-safeTransferFrom}."
      },
      "setApprovalForAll(address,bool)": {
        "details": "See {IERC721-setApprovalForAll}."
      },
      "supportsInterface(bytes4)": {
        "details": "See {IERC165-supportsInterface}."
      },
      "symbol()": {
        "details": "See {IERC721Metadata-symbol}."
      },
      "tokenURI(uint256)": {
        "details": "See {IERC721Metadata-tokenURI}."
      }
    },
    "version": 1
  },
  "userdoc": {
    "kind": "user",
    "methods": {
      "getStatics(uint256)": {
        "notice": "Used for buyer want to check more detailed information in the market"
      }
    },
    "version": 1
  }
}