{
  "contractName": "MonsterFactory",
  "abi": [
    {
      "inputs": [],
      "stateMutability": "nonpayable",
      "type": "constructor"
    },
    {
      "inputs": [
        {
          "components": [
            {
              "internalType": "uint8",
              "name": "HP",
              "type": "uint8"
            },
            {
              "internalType": "uint8",
              "name": "strength",
              "type": "uint8"
            },
            {
              "internalType": "uint8",
              "name": "defensive",
              "type": "uint8"
            },
            {
              "internalType": "uint8",
              "name": "speed",
              "type": "uint8"
            }
          ],
          "internalType": "struct MonsterLib.IndividualValue",
          "name": "_mumIv",
          "type": "tuple"
        },
        {
          "components": [
            {
              "internalType": "uint8",
              "name": "HP",
              "type": "uint8"
            },
            {
              "internalType": "uint8",
              "name": "strength",
              "type": "uint8"
            },
            {
              "internalType": "uint8",
              "name": "defensive",
              "type": "uint8"
            },
            {
              "internalType": "uint8",
              "name": "speed",
              "type": "uint8"
            }
          ],
          "internalType": "struct MonsterLib.IndividualValue",
          "name": "_dadIv",
          "type": "tuple"
        }
      ],
      "name": "getChild",
      "outputs": [
        {
          "components": [
            {
              "internalType": "uint8",
              "name": "HP",
              "type": "uint8"
            },
            {
              "internalType": "uint8",
              "name": "strength",
              "type": "uint8"
            },
            {
              "internalType": "uint8",
              "name": "defensive",
              "type": "uint8"
            },
            {
              "internalType": "uint8",
              "name": "speed",
              "type": "uint8"
            }
          ],
          "internalType": "struct MonsterLib.IndividualValue",
          "name": "_childiv",
          "type": "tuple"
        }
      ],
      "stateMutability": "view",
      "type": "function",
      "constant": true
    }
  ],
  "bytecode": "0x608060405234801561001057600080fd5b50610711806100206000396000f3fe608060405234801561001057600080fd5b506004361061002b5760003560e01c8063c9a267f914610030575b600080fd5b61004a60048036038101906100459190610480565b610060565b6040516100579190610525565b60405180910390f35b6100686102fb565b610072838361007a565b905092915050565b6100826102fb565b6000600390506000808260ff16146100d3576100a685600001518560000151610221565b846000018193508260ff1660ff16815250505080156100ce5781806100ca9061056f565b9250505b6100ed565b6100db610274565b836000019060ff16908160ff16815250505b60008260ff16146101375761010a85602001518560200151610221565b846020018193508260ff1660ff168152505050801561013257818061012e9061056f565b9250505b610151565b61013f610274565b836020019060ff16908160ff16815250505b60008260ff161461019b5761016e85604001518560400151610221565b846040018193508260ff1660ff16815250505080156101965781806101929061056f565b9250505b6101b5565b6101a3610274565b836040019060ff16908160ff16815250505b60008260ff16146101ff576101d285606001518560600151610221565b846060018193508260ff1660ff16815250505080156101fa5781806101f69061056f565b9250505b610219565b610207610274565b836060019060ff16908160ff16815250505b505092915050565b600080600080600261023161028f565b61023b91906105d2565b141561025a576001905061024f85856102c5565b81925092505061026d565b60009050610266610274565b8192509250505b9250929050565b6000602061028061028f565b61028a91906105d2565b905090565b6000444260006040516020016102a79392919061069e565b6040516020818303038152906040528051906020012060001c905090565b60008060026102d261028f565b6102dc91906105d2565b905060018114156102f057839150506102f5565b829150505b92915050565b6040518060800160405280600060ff168152602001600060ff168152602001600060ff168152602001600060ff1681525090565b6000604051905090565b600080fd5b600080fd5b6000601f19601f8301169050919050565b7f4e487b7100000000000000000000000000000000000000000000000000000000600052604160045260246000fd5b61038c82610343565b810181811067ffffffffffffffff821117156103ab576103aa610354565b5b80604052505050565b60006103be61032f565b90506103ca8282610383565b919050565b600060ff82169050919050565b6103e5816103cf565b81146103f057600080fd5b50565b600081359050610402816103dc565b92915050565b60006080828403121561041e5761041d61033e565b5b61042860806103b4565b90506000610438848285016103f3565b600083015250602061044c848285016103f3565b6020830152506040610460848285016103f3565b6040830152506060610474848285016103f3565b60608301525092915050565b600080610100838503121561049857610497610339565b5b60006104a685828601610408565b92505060806104b785828601610408565b9150509250929050565b6104ca816103cf565b82525050565b6080820160008201516104e660008501826104c1565b5060208201516104f960208501826104c1565b50604082015161050c60408501826104c1565b50606082015161051f60608501826104c1565b50505050565b600060808201905061053a60008301846104d0565b92915050565b7f4e487b7100000000000000000000000000000000000000000000000000000000600052601160045260246000fd5b600061057a826103cf565b9150600082141561058e5761058d610540565b5b600182039050919050565b6000819050919050565b7f4e487b7100000000000000000000000000000000000000000000000000000000600052601260045260246000fd5b60006105dd82610599565b91506105e883610599565b9250826105f8576105f76105a3565b5b828206905092915050565b6000819050919050565b61061e61061982610599565b610603565b82525050565b600073ffffffffffffffffffffffffffffffffffffffff82169050919050565b600061064f82610624565b9050919050565b60008160601b9050919050565b600061066e82610656565b9050919050565b600061068082610663565b9050919050565b61069861069382610644565b610675565b82525050565b60006106aa828661060d565b6020820191506106ba828561060d565b6020820191506106ca8284610687565b60148201915081905094935050505056fea2646970667358221220ff6b465d474746f921c489bed9a7b42d1c4727b1bb551d13e30e03602707186e64736f6c63430008090033",
  "immutableReferences": {},
  "source": "//SPDX-License-Identifier: UNLICENSED\r\npragma solidity ^0.8.9;\r\npragma experimental ABIEncoderV2;\r\nimport \"./MonsterLib.sol\";\r\n/**\r\n * This contract is used to store all the tokens and function related to breed and battle\r\n */\r\n\r\ncontract MonsterFactory {\r\n\r\n\r\n    constructor() {\r\n    }\r\n\r\n    function getChild(MonsterLib.IndividualValue memory _mumIv,MonsterLib.IndividualValue memory _dadIv) public view returns(MonsterLib.IndividualValue memory _childiv){\r\n        _childiv = _getChildIv(_mumIv, _dadIv);\r\n\r\n    }\r\n\r\n    function _getChildIv(MonsterLib.IndividualValue memory mumIv, MonsterLib.IndividualValue memory dadIv) internal view returns (MonsterLib.IndividualValue memory childValue){\r\n        uint8 inheritendCount = 3; //child can only inheritend at most 3 individual value from parents\r\n        bool isInherited;\r\n        if(inheritendCount != 0){\r\n            (childValue.HP, isInherited) = _getNewIv(mumIv.HP, dadIv.HP);\r\n            if(isInherited) inheritendCount--;\r\n        }\r\n        else{\r\n            childValue.HP = _getNewValueRandomly();\r\n        }\r\n        if(inheritendCount != 0){\r\n            (childValue.strength, isInherited) = _getNewIv(mumIv.strength, dadIv.strength);\r\n            if(isInherited) inheritendCount--;\r\n        }\r\n        else{\r\n            childValue.strength = _getNewValueRandomly();\r\n        }\r\n        if(inheritendCount != 0){\r\n            (childValue.defensive, isInherited) = _getNewIv(mumIv.defensive, dadIv.defensive);\r\n            if(isInherited) inheritendCount--;\r\n        }\r\n        else{\r\n            childValue.defensive = _getNewValueRandomly();\r\n        }\r\n        if(inheritendCount != 0){\r\n            (childValue.speed, isInherited) = _getNewIv(mumIv.speed, dadIv.speed);\r\n            if(isInherited) inheritendCount--;\r\n        }\r\n        else{\r\n            childValue.speed = _getNewValueRandomly();\r\n        }\r\n\r\n    }\r\n    /**\r\n     * @dev the child's inidividual value may be inherited from parents, or generate randomly\r\n     */\r\n    function _getNewIv(uint8 mumIv, uint8 dadIv) internal view returns(uint8,bool){\r\n        bool isInherited;\r\n        if(MonsterLib._random()%2 == 0){\r\n            isInherited = true;\r\n            return(_getNewValueFromParents(mumIv, dadIv),isInherited);\r\n        }\r\n        else{\r\n            isInherited = false;\r\n            return(_getNewValueRandomly(),isInherited);\r\n        }\r\n    }\r\n\r\n    function _getNewValueFromParents(uint8 mumIv, uint8 dadIv) internal view returns(uint8){\r\n        uint _isMother = MonsterLib._random()%2;\r\n        if(_isMother == 1) return mumIv;\r\n        else return dadIv;\r\n    }\r\n\r\n    function _getNewValueRandomly() internal view returns (uint8){\r\n        return uint8(MonsterLib._random()%32);\r\n    }\r\n}",
  "sourcePath": "D:\\GitHub\\monster\\contracts\\MonsterFactory.sol",
  "compiler": {
    "name": "solc",
    "version": "0.8.9+commit.e5eed63a.Emscripten.clang"
  },
  "schemaVersion": "3.4.7",
  "updatedAt": "2022-05-24T09:46:59.411Z",
  "networkType": "ethereum",
  "devdoc": {
    "kind": "dev",
    "methods": {},
    "version": 1
  },
  "userdoc": {
    "kind": "user",
    "methods": {},
    "notice": "This contract is used to store all the tokens and function related to breed and battle",
    "version": 1
  }
}