{
  "contractName": "MonsterMarket",
  "abi": [
    {
      "inputs": [
        {
          "internalType": "address",
          "name": "_monsterTokenAddress",
          "type": "address"
        }
      ],
      "stateMutability": "nonpayable",
      "type": "constructor"
    },
    {
      "anonymous": false,
      "inputs": [
        {
          "indexed": true,
          "internalType": "address",
          "name": "previousOwner",
          "type": "address"
        },
        {
          "indexed": true,
          "internalType": "address",
          "name": "newOwner",
          "type": "address"
        }
      ],
      "name": "OwnershipTransferred",
      "type": "event"
    },
    {
      "anonymous": false,
      "inputs": [
        {
          "indexed": false,
          "internalType": "uint256",
          "name": "_tokenId",
          "type": "uint256"
        }
      ],
      "name": "setProductComplete",
      "type": "event"
    },
    {
      "inputs": [],
      "name": "owner",
      "outputs": [
        {
          "internalType": "address",
          "name": "",
          "type": "address"
        }
      ],
      "stateMutability": "view",
      "type": "function",
      "constant": true
    },
    {
      "inputs": [],
      "name": "renounceOwnership",
      "outputs": [],
      "stateMutability": "nonpayable",
      "type": "function"
    },
    {
      "inputs": [
        {
          "internalType": "address",
          "name": "newOwner",
          "type": "address"
        }
      ],
      "name": "transferOwnership",
      "outputs": [],
      "stateMutability": "nonpayable",
      "type": "function"
    },
    {
      "inputs": [
        {
          "internalType": "address",
          "name": "_monsterTokenAddress",
          "type": "address"
        }
      ],
      "name": "_setMonsterToken",
      "outputs": [],
      "stateMutability": "nonpayable",
      "type": "function"
    },
    {
      "inputs": [],
      "name": "totalSupply",
      "outputs": [
        {
          "internalType": "uint256",
          "name": "",
          "type": "uint256"
        }
      ],
      "stateMutability": "view",
      "type": "function",
      "constant": true
    },
    {
      "inputs": [
        {
          "internalType": "uint256",
          "name": "_price",
          "type": "uint256"
        },
        {
          "internalType": "uint256",
          "name": "_tokenId",
          "type": "uint256"
        }
      ],
      "name": "setProduct",
      "outputs": [],
      "stateMutability": "nonpayable",
      "type": "function"
    },
    {
      "inputs": [
        {
          "internalType": "uint256",
          "name": "_productId",
          "type": "uint256"
        }
      ],
      "name": "deleteProduct",
      "outputs": [],
      "stateMutability": "nonpayable",
      "type": "function"
    },
    {
      "inputs": [
        {
          "internalType": "uint256",
          "name": "_productId",
          "type": "uint256"
        }
      ],
      "name": "buyMonsters",
      "outputs": [],
      "stateMutability": "nonpayable",
      "type": "function"
    },
    {
      "inputs": [],
      "name": "getAllProducts",
      "outputs": [
        {
          "components": [
            {
              "internalType": "uint256",
              "name": "Id",
              "type": "uint256"
            },
            {
              "internalType": "uint256",
              "name": "index",
              "type": "uint256"
            },
            {
              "internalType": "uint256",
              "name": "price",
              "type": "uint256"
            },
            {
              "internalType": "address",
              "name": "owner",
              "type": "address"
            },
            {
              "internalType": "uint8",
              "name": "level",
              "type": "uint8"
            },
            {
              "components": [
                {
                  "internalType": "uint8",
                  "name": "HP",
                  "type": "uint8"
                },
                {
                  "internalType": "uint8",
                  "name": "strength",
                  "type": "uint8"
                },
                {
                  "internalType": "uint8",
                  "name": "defensive",
                  "type": "uint8"
                },
                {
                  "internalType": "uint8",
                  "name": "speed",
                  "type": "uint8"
                }
              ],
              "internalType": "struct MonsterLib.Statistics",
              "name": "statc",
              "type": "tuple"
            },
            {
              "internalType": "enum MonsterLib.Race",
              "name": "race",
              "type": "uint8"
            },
            {
              "internalType": "bool",
              "name": "isAvaliable",
              "type": "bool"
            }
          ],
          "internalType": "struct MonsterMarket.Product[]",
          "name": "",
          "type": "tuple[]"
        }
      ],
      "stateMutability": "view",
      "type": "function",
      "constant": true
    },
    {
      "inputs": [],
      "name": "getMyProducts",
      "outputs": [
        {
          "components": [
            {
              "internalType": "uint256",
              "name": "Id",
              "type": "uint256"
            },
            {
              "internalType": "uint256",
              "name": "index",
              "type": "uint256"
            },
            {
              "internalType": "uint256",
              "name": "price",
              "type": "uint256"
            },
            {
              "internalType": "address",
              "name": "owner",
              "type": "address"
            },
            {
              "internalType": "uint8",
              "name": "level",
              "type": "uint8"
            },
            {
              "components": [
                {
                  "internalType": "uint8",
                  "name": "HP",
                  "type": "uint8"
                },
                {
                  "internalType": "uint8",
                  "name": "strength",
                  "type": "uint8"
                },
                {
                  "internalType": "uint8",
                  "name": "defensive",
                  "type": "uint8"
                },
                {
                  "internalType": "uint8",
                  "name": "speed",
                  "type": "uint8"
                }
              ],
              "internalType": "struct MonsterLib.Statistics",
              "name": "statc",
              "type": "tuple"
            },
            {
              "internalType": "enum MonsterLib.Race",
              "name": "race",
              "type": "uint8"
            },
            {
              "internalType": "bool",
              "name": "isAvaliable",
              "type": "bool"
            }
          ],
          "internalType": "struct MonsterMarket.Product[]",
          "name": "",
          "type": "tuple[]"
        }
      ],
      "stateMutability": "view",
      "type": "function",
      "constant": true
    }
  ],
  "bytecode": "0x60806040523480156200001157600080fd5b50604051620026323803806200263283398181016040528101906200003791906200039f565b620000576200004b620000bd60201b60201c565b620000c560201b60201c565b6040518060400160405280600e81526020017f4d6f6e73746572204d61726b657400000000000000000000000000000000000081525060019080519060200190620000a492919062000285565b50620000b6816200018960201b60201c565b50620004b9565b600033905090565b60008060009054906101000a900473ffffffffffffffffffffffffffffffffffffffff169050816000806101000a81548173ffffffffffffffffffffffffffffffffffffffff021916908373ffffffffffffffffffffffffffffffffffffffff1602179055508173ffffffffffffffffffffffffffffffffffffffff168173ffffffffffffffffffffffffffffffffffffffff167f8be0079c531659141344cd1fd0a4f28419497f9722a3daafe3b4186f6b6457e060405160405180910390a35050565b62000199620000bd60201b60201c565b73ffffffffffffffffffffffffffffffffffffffff16620001bf6200025c60201b60201c565b73ffffffffffffffffffffffffffffffffffffffff161462000218576040517f08c379a00000000000000000000000000000000000000000000000000000000081526004016200020f9062000432565b60405180910390fd5b80600260006101000a81548173ffffffffffffffffffffffffffffffffffffffff021916908373ffffffffffffffffffffffffffffffffffffffff16021790555050565b60008060009054906101000a900473ffffffffffffffffffffffffffffffffffffffff16905090565b828054620002939062000483565b90600052602060002090601f016020900481019282620002b7576000855562000303565b82601f10620002d257805160ff191683800117855562000303565b8280016001018555821562000303579182015b8281111562000302578251825591602001919060010190620002e5565b5b50905062000312919062000316565b5090565b5b808211156200033157600081600090555060010162000317565b5090565b600080fd5b600073ffffffffffffffffffffffffffffffffffffffff82169050919050565b600062000367826200033a565b9050919050565b62000379816200035a565b81146200038557600080fd5b50565b60008151905062000399816200036e565b92915050565b600060208284031215620003b857620003b762000335565b5b6000620003c88482850162000388565b91505092915050565b600082825260208201905092915050565b7f4f776e61626c653a2063616c6c6572206973206e6f7420746865206f776e6572600082015250565b60006200041a602083620003d1565b91506200042782620003e2565b602082019050919050565b600060208201905081810360008301526200044d816200040b565b9050919050565b7f4e487b7100000000000000000000000000000000000000000000000000000000600052602260045260246000fd5b600060028204905060018216806200049c57607f821691505b60208210811415620004b357620004b262000454565b5b50919050565b61216980620004c96000396000f3fe608060405234801561001057600080fd5b506004361061009e5760003560e01c8063c44a7bbf11610066578063c44a7bbf14610123578063e681fac51461013f578063ed90c7b71461015b578063f2fde38b14610177578063fdca4ca3146101935761009e565b806302ee3a52146100a357806318160ddd146100c1578063715018a6146100df5780638da5cb5b146100e9578063b6f415fa14610107575b600080fd5b6100ab6101b1565b6040516100b89190611b1c565b60405180910390f35b6100c9610414565b6040516100d69190611b4d565b60405180910390f35b6100e7610421565b005b6100f16104a9565b6040516100fe9190611b77565b60405180910390f35b610121600480360381019061011c9190611bcd565b6104d2565b005b61013d60048036038101906101389190611c39565b6109a7565b005b61015960048036038101906101549190611c66565b610a67565b005b61017560048036038101906101709190611c66565b610de6565b005b610191600480360381019061018c9190611c39565b6112f2565b005b61019b6113ea565b6040516101a89190611b1c565b60405180910390f35b606080600060038054905011156103b55760005b6003805490508110156103af5760046000600383815481106101ea576101e9611c93565b5b90600052602060002001548152602001908152602001600020604051806101000160405290816000820154815260200160018201548152602001600282015481526020016003820160009054906101000a900473ffffffffffffffffffffffffffffffffffffffff1673ffffffffffffffffffffffffffffffffffffffff1673ffffffffffffffffffffffffffffffffffffffff1681526020016003820160149054906101000a900460ff1660ff1660ff168152602001600482016040518060800160405290816000820160009054906101000a900460ff1660ff1660ff1681526020016000820160019054906101000a900460ff1660ff1660ff1681526020016000820160029054906101000a900460ff1660ff1660ff1681526020016000820160039054906101000a900460ff1660ff1660ff168152505081526020016005820160009054906101000a900460ff16600281111561034d5761034c611962565b5b600281111561035f5761035e611962565b5b81526020016005820160019054906101000a900460ff16151515158152505082828151811061039157610390611c93565b5b602002602001018190525080806103a790611cf1565b9150506101c5565b5061040d565b600067ffffffffffffffff8111156103d0576103cf611d3a565b5b60405190808252806020026020018201604052801561040957816020015b6103f66117bf565b8152602001906001900390816103ee5790505b5090505b8091505090565b6000600380549050905090565b6104296116f3565b73ffffffffffffffffffffffffffffffffffffffff166104476104a9565b73ffffffffffffffffffffffffffffffffffffffff161461049d576040517f08c379a000000000000000000000000000000000000000000000000000000000815260040161049490611dc6565b60405180910390fd5b6104a760006116fb565b565b60008060009054906101000a900473ffffffffffffffffffffffffffffffffffffffff16905090565b600015156004600083815260200190815260200160002060050160019054906101000a900460ff1615151461050657600080fd5b600080600080600260009054906101000a900473ffffffffffffffffffffffffffffffffffffffff1673ffffffffffffffffffffffffffffffffffffffff166379a85e6c866040518263ffffffff1660e01b81526004016105679190611b4d565b60e06040518083038186803b15801561057f57600080fd5b505afa158015610593573d6000803e3d6000fd5b505050506040513d601f19601f820116820180604052508101906105b79190611f26565b93509350935093508373ffffffffffffffffffffffffffffffffffffffff163373ffffffffffffffffffffffffffffffffffffffff16146105f757600080fd5b60006001610603610414565b61060d9190611f8d565b905060006040518061010001604052808881526020018381526020018981526020018773ffffffffffffffffffffffffffffffffffffffff1681526020018660ff16815260200185815260200184600281111561066d5761066c611962565b5b81526020016001151581525090506003879080600181540180825580915050600190039060005260206000200160009091909190915055806004600089815260200190815260200160002060008201518160000155602082015181600101556040820151816002015560608201518160030160006101000a81548173ffffffffffffffffffffffffffffffffffffffff021916908373ffffffffffffffffffffffffffffffffffffffff16021790555060808201518160030160146101000a81548160ff021916908360ff16021790555060a08201518160040160008201518160000160006101000a81548160ff021916908360ff16021790555060208201518160000160016101000a81548160ff021916908360ff16021790555060408201518160000160026101000a81548160ff021916908360ff16021790555060608201518160000160036101000a81548160ff021916908360ff160217905550505060c08201518160050160006101000a81548160ff021916908360028111156107f8576107f7611962565b5b021790555060e08201518160050160016101000a81548160ff0219169083151502179055509050506000600660003373ffffffffffffffffffffffffffffffffffffffff1673ffffffffffffffffffffffffffffffffffffffff1681526020019081526020016000205490508160000151600560003373ffffffffffffffffffffffffffffffffffffffff1673ffffffffffffffffffffffffffffffffffffffff16815260200190815260200160002060008381526020019081526020016000208190555080600760008a815260200190815260200160002081905550600260009054906101000a900473ffffffffffffffffffffffffffffffffffffffff1673ffffffffffffffffffffffffffffffffffffffff1663caece7bb8960016040518363ffffffff1660e01b8152600401610933929190611fd0565b600060405180830381600087803b15801561094d57600080fd5b505af1158015610961573d6000803e3d6000fd5b505050507f24a4e0b58a37c0f3e30a528ce8ac1da26869fcf5e64b7c319d27054ac4d7ca9b886040516109949190611b4d565b60405180910390a1505050505050505050565b6109af6116f3565b73ffffffffffffffffffffffffffffffffffffffff166109cd6104a9565b73ffffffffffffffffffffffffffffffffffffffff1614610a23576040517f08c379a0000000000000000000000000000000000000000000000000000000008152600401610a1a90611dc6565b60405180910390fd5b80600260006101000a81548173ffffffffffffffffffffffffffffffffffffffff021916908373ffffffffffffffffffffffffffffffffffffffff16021790555050565b600060046000838152602001908152602001600020604051806101000160405290816000820154815260200160018201548152602001600282015481526020016003820160009054906101000a900473ffffffffffffffffffffffffffffffffffffffff1673ffffffffffffffffffffffffffffffffffffffff1673ffffffffffffffffffffffffffffffffffffffff1681526020016003820160149054906101000a900460ff1660ff1660ff168152602001600482016040518060800160405290816000820160009054906101000a900460ff1660ff1660ff1681526020016000820160019054906101000a900460ff1660ff1660ff1681526020016000820160029054906101000a900460ff1660ff1660ff1681526020016000820160039054906101000a900460ff1660ff1660ff168152505081526020016005820160009054906101000a900460ff166002811115610bc657610bc5611962565b5b6002811115610bd857610bd7611962565b5b81526020016005820160019054906101000a900460ff16151515158152505090508060400151600260009054906101000a900473ffffffffffffffffffffffffffffffffffffffff1673ffffffffffffffffffffffffffffffffffffffff166323e3fbd5336040518263ffffffff1660e01b8152600401610c599190611b77565b60206040518083038186803b158015610c7157600080fd5b505afa158015610c85573d6000803e3d6000fd5b505050506040513d601f19601f82011682018060405250810190610ca9919061200e565b1015610cb457600080fd5b600260009054906101000a900473ffffffffffffffffffffffffffffffffffffffff1673ffffffffffffffffffffffffffffffffffffffff166323b872dd826060015133856040518463ffffffff1660e01b8152600401610d179392919061203b565b600060405180830381600087803b158015610d3157600080fd5b505af1158015610d45573d6000803e3d6000fd5b50505050600260009054906101000a900473ffffffffffffffffffffffffffffffffffffffff1673ffffffffffffffffffffffffffffffffffffffff16636410381c33836060015184604001516040518463ffffffff1660e01b8152600401610db09392919061203b565b600060405180830381600087803b158015610dca57600080fd5b505af1158015610dde573d6000803e3d6000fd5b505050505050565b600115156004600083815260200190815260200160002060050160019054906101000a900460ff16151514610e1a57600080fd5b6004600082815260200190815260200160002060030160009054906101000a900473ffffffffffffffffffffffffffffffffffffffff1673ffffffffffffffffffffffffffffffffffffffff163373ffffffffffffffffffffffffffffffffffffffff1614610e8857600080fd5b60006001610e94610414565b610e9e9190611f8d565b9050600060046000848152602001908152602001600020600101549050808214610f4857600060038381548110610ed857610ed7611c93565b5b906000526020600020015490508360038481548110610efa57610ef9611c93565b5b90600052602060002001819055508060038381548110610f1d57610f1c611c93565b5b9060005260206000200181905550816004600083815260200190815260200160002060010181905550505b60046000848152602001908152602001600020600080820160009055600182016000905560028201600090556003820160006101000a81549073ffffffffffffffffffffffffffffffffffffffff02191690556003820160146101000a81549060ff021916905560048201600080820160006101000a81549060ff02191690556000820160016101000a81549060ff02191690556000820160026101000a81549060ff02191690556000820160036101000a81549060ff021916905550506005820160006101000a81549060ff02191690556005820160016101000a81549060ff02191690555050600380548061104257611041612072565b5b600190038181906000526020600020016000905590556000600760008581526020019081526020016000205490506000600660003373ffffffffffffffffffffffffffffffffffffffff1673ffffffffffffffffffffffffffffffffffffffff1681526020019081526020016000205490508082106110c057600080fd5b6001816110cd9190611f8d565b8210156111a4576000600560003373ffffffffffffffffffffffffffffffffffffffff1673ffffffffffffffffffffffffffffffffffffffff16815260200190815260200160002060006001846111249190611f8d565b815260200190815260200160002054905080600560003373ffffffffffffffffffffffffffffffffffffffff1673ffffffffffffffffffffffffffffffffffffffff168152602001908152602001600020600085815260200190815260200160002081905550826007600083815260200190815260200160002081905550505b600560003373ffffffffffffffffffffffffffffffffffffffff1673ffffffffffffffffffffffffffffffffffffffff16815260200190815260200160002060006001836111f29190611f8d565b8152602001908152602001600020600090556001600660003373ffffffffffffffffffffffffffffffffffffffff1673ffffffffffffffffffffffffffffffffffffffff16815260200190815260200160002060008282546112549190611f8d565b92505081905550600260009054906101000a900473ffffffffffffffffffffffffffffffffffffffff1673ffffffffffffffffffffffffffffffffffffffff1663caece7bb8660006040518363ffffffff1660e01b81526004016112b9929190611fd0565b600060405180830381600087803b1580156112d357600080fd5b505af11580156112e7573d6000803e3d6000fd5b505050505050505050565b6112fa6116f3565b73ffffffffffffffffffffffffffffffffffffffff166113186104a9565b73ffffffffffffffffffffffffffffffffffffffff161461136e576040517f08c379a000000000000000000000000000000000000000000000000000000000815260040161136590611dc6565b60405180910390fd5b600073ffffffffffffffffffffffffffffffffffffffff168173ffffffffffffffffffffffffffffffffffffffff1614156113de576040517f08c379a00000000000000000000000000000000000000000000000000000000081526004016113d590612113565b60405180910390fd5b6113e7816116fb565b50565b6060806000600660003373ffffffffffffffffffffffffffffffffffffffff1673ffffffffffffffffffffffffffffffffffffffff1681526020019081526020016000205411156116945760005b600660003373ffffffffffffffffffffffffffffffffffffffff1673ffffffffffffffffffffffffffffffffffffffff1681526020019081526020016000205481101561168e5760046000600560003373ffffffffffffffffffffffffffffffffffffffff1673ffffffffffffffffffffffffffffffffffffffff1681526020019081526020016000206000848152602001908152602001600020548152602001908152602001600020604051806101000160405290816000820154815260200160018201548152602001600282015481526020016003820160009054906101000a900473ffffffffffffffffffffffffffffffffffffffff1673ffffffffffffffffffffffffffffffffffffffff1673ffffffffffffffffffffffffffffffffffffffff1681526020016003820160149054906101000a900460ff1660ff1660ff168152602001600482016040518060800160405290816000820160009054906101000a900460ff1660ff1660ff1681526020016000820160019054906101000a900460ff1660ff1660ff1681526020016000820160029054906101000a900460ff1660ff1660ff1681526020016000820160039054906101000a900460ff1660ff1660ff168152505081526020016005820160009054906101000a900460ff16600281111561162c5761162b611962565b5b600281111561163e5761163d611962565b5b81526020016005820160019054906101000a900460ff1615151515815250508282815181106116705761166f611c93565b5b6020026020010181905250808061168690611cf1565b915050611438565b506116ec565b600067ffffffffffffffff8111156116af576116ae611d3a565b5b6040519080825280602002602001820160405280156116e857816020015b6116d56117bf565b8152602001906001900390816116cd5790505b5090505b8091505090565b600033905090565b60008060009054906101000a900473ffffffffffffffffffffffffffffffffffffffff169050816000806101000a81548173ffffffffffffffffffffffffffffffffffffffff021916908373ffffffffffffffffffffffffffffffffffffffff1602179055508173ffffffffffffffffffffffffffffffffffffffff168173ffffffffffffffffffffffffffffffffffffffff167f8be0079c531659141344cd1fd0a4f28419497f9722a3daafe3b4186f6b6457e060405160405180910390a35050565b604051806101000160405280600081526020016000815260200160008152602001600073ffffffffffffffffffffffffffffffffffffffff168152602001600060ff16815260200161180f611837565b81526020016000600281111561182857611827611962565b5b81526020016000151581525090565b6040518060800160405280600060ff168152602001600060ff168152602001600060ff168152602001600060ff1681525090565b600081519050919050565b600082825260208201905092915050565b6000819050602082019050919050565b6000819050919050565b6118aa81611897565b82525050565b600073ffffffffffffffffffffffffffffffffffffffff82169050919050565b60006118db826118b0565b9050919050565b6118eb816118d0565b82525050565b600060ff82169050919050565b611907816118f1565b82525050565b60808201600082015161192360008501826118fe565b50602082015161193660208501826118fe565b50604082015161194960408501826118fe565b50606082015161195c60608501826118fe565b50505050565b7f4e487b7100000000000000000000000000000000000000000000000000000000600052602160045260246000fd5b600381106119a2576119a1611962565b5b50565b60008190506119b382611991565b919050565b60006119c3826119a5565b9050919050565b6119d3816119b8565b82525050565b60008115159050919050565b6119ee816119d9565b82525050565b61016082016000820151611a0b60008501826118a1565b506020820151611a1e60208501826118a1565b506040820151611a3160408501826118a1565b506060820151611a4460608501826118e2565b506080820151611a5760808501826118fe565b5060a0820151611a6a60a085018261190d565b5060c0820151611a7e6101208501826119ca565b5060e0820151611a926101408501826119e5565b50505050565b6000611aa483836119f4565b6101608301905092915050565b6000602082019050919050565b6000611ac98261186b565b611ad38185611876565b9350611ade83611887565b8060005b83811015611b0f578151611af68882611a98565b9750611b0183611ab1565b925050600181019050611ae2565b5085935050505092915050565b60006020820190508181036000830152611b368184611abe565b905092915050565b611b4781611897565b82525050565b6000602082019050611b626000830184611b3e565b92915050565b611b71816118d0565b82525050565b6000602082019050611b8c6000830184611b68565b92915050565b6000604051905090565b600080fd5b611baa81611897565b8114611bb557600080fd5b50565b600081359050611bc781611ba1565b92915050565b60008060408385031215611be457611be3611b9c565b5b6000611bf285828601611bb8565b9250506020611c0385828601611bb8565b9150509250929050565b611c16816118d0565b8114611c2157600080fd5b50565b600081359050611c3381611c0d565b92915050565b600060208284031215611c4f57611c4e611b9c565b5b6000611c5d84828501611c24565b91505092915050565b600060208284031215611c7c57611c7b611b9c565b5b6000611c8a84828501611bb8565b91505092915050565b7f4e487b7100000000000000000000000000000000000000000000000000000000600052603260045260246000fd5b7f4e487b7100000000000000000000000000000000000000000000000000000000600052601160045260246000fd5b6000611cfc82611897565b91507fffffffffffffffffffffffffffffffffffffffffffffffffffffffffffffffff821415611d2f57611d2e611cc2565b5b600182019050919050565b7f4e487b7100000000000000000000000000000000000000000000000000000000600052604160045260246000fd5b600082825260208201905092915050565b7f4f776e61626c653a2063616c6c6572206973206e6f7420746865206f776e6572600082015250565b6000611db0602083611d69565b9150611dbb82611d7a565b602082019050919050565b60006020820190508181036000830152611ddf81611da3565b9050919050565b600081519050611df581611c0d565b92915050565b611e04816118f1565b8114611e0f57600080fd5b50565b600081519050611e2181611dfb565b92915050565b600080fd5b6000601f19601f8301169050919050565b611e4682611e2c565b810181811067ffffffffffffffff82111715611e6557611e64611d3a565b5b80604052505050565b6000611e78611b92565b9050611e848282611e3d565b919050565b600060808284031215611e9f57611e9e611e27565b5b611ea96080611e6e565b90506000611eb984828501611e12565b6000830152506020611ecd84828501611e12565b6020830152506040611ee184828501611e12565b6040830152506060611ef584828501611e12565b60608301525092915050565b60038110611f0e57600080fd5b50565b600081519050611f2081611f01565b92915050565b60008060008060e08587031215611f4057611f3f611b9c565b5b6000611f4e87828801611de6565b9450506020611f5f87828801611e12565b9350506040611f7087828801611e89565b92505060c0611f8187828801611f11565b91505092959194509250565b6000611f9882611897565b9150611fa383611897565b925082821015611fb657611fb5611cc2565b5b828203905092915050565b611fca816119d9565b82525050565b6000604082019050611fe56000830185611b3e565b611ff26020830184611fc1565b9392505050565b60008151905061200881611ba1565b92915050565b60006020828403121561202457612023611b9c565b5b600061203284828501611ff9565b91505092915050565b60006060820190506120506000830186611b68565b61205d6020830185611b68565b61206a6040830184611b3e565b949350505050565b7f4e487b7100000000000000000000000000000000000000000000000000000000600052603160045260246000fd5b7f4f776e61626c653a206e6577206f776e657220697320746865207a65726f206160008201527f6464726573730000000000000000000000000000000000000000000000000000602082015250565b60006120fd602683611d69565b9150612108826120a1565b604082019050919050565b6000602082019050818103600083015261212c816120f0565b905091905056fea26469706673582212200a0ebb64136fc0496e47b8fb2d3ededdf20c2371bc635b474aef33a3df911fbb64736f6c63430008090033",
  "immutableReferences": {},
  "source": "pragma solidity ^0.8.9;\r\npragma experimental ABIEncoderV2;\r\nimport \"./MonsterLib.sol\";\r\nimport \"./MonsterToken.sol\";\r\nimport \"../node_modules/@openzeppelin/contracts/access/Ownable.sol\";\r\ncontract MonsterMarket is Ownable{\r\n\r\n    event setProductComplete(uint256 _tokenId);\r\n\r\n    string private _name;\r\n\r\n    MonsterToken internal _monsterToken;\r\n\r\n    struct Product{\r\n        uint256 Id;\r\n        uint index;\r\n        uint256 price;\r\n        address owner;\r\n        uint8 level;\r\n        MonsterLib.Statistics statc;\r\n        MonsterLib.Race race;\r\n        bool isAvaliable;\r\n    }\r\n    //a list of avaliable products id\r\n    uint[] private _productsId;\r\n\r\n    //Mapping from monster id to product\r\n    mapping(uint256 => Product) private _monsterIdToProduct;\r\n\r\n    //Mapping from owner to lists of owned product IDs\r\n    mapping(address => mapping(uint256 => uint256)) private _ownedProducts;\r\n\r\n    //Mapping from owner to the number of available product they owned\r\n    mapping(address => uint256) private _productNumOf;\r\n\r\n    //Mapping from product Id to its position in list of owned product Ids\r\n    mapping(uint => uint) private _ownedProductsIndex;\r\n\r\n    constructor(address _monsterTokenAddress) {\r\n        _name = \"Monster Market\";\r\n        _setMonsterToken(_monsterTokenAddress);\r\n    }\r\n\r\n\r\n    /**\r\n     * @dev Pass the address of monster factory to this contract\r\n     */\r\n    function _setMonsterToken(address _monsterTokenAddress) public onlyOwner{\r\n        _monsterToken = MonsterToken(payable(_monsterTokenAddress));\r\n    }\r\n\r\n    function totalSupply() public view returns(uint256){\r\n        return _productsId.length;\r\n    }\r\n\r\n    /**\r\n     * @dev Add a product which does not exist \r\n     */\r\n    function setProduct(uint256 _price, uint256 _tokenId) public {\r\n        require(_monsterIdToProduct[_tokenId].isAvaliable == false);\r\n        (address owner, uint8 level, MonsterLib.Statistics memory statc, MonsterLib.Race race) = _monsterToken.getProductInfo(_tokenId);\r\n        require(msg.sender == owner);\r\n        uint256 _productIndex = totalSupply() - 1;\r\n        Product memory _newPro = Product(_tokenId, _productIndex, _price, owner, level, statc, race, true);\r\n        _productsId.push(_tokenId);\r\n        _monsterIdToProduct[_tokenId] = _newPro;\r\n        uint _num = _productNumOf[msg.sender];\r\n        _ownedProducts[msg.sender][_num] = _newPro.Id;\r\n        _ownedProductsIndex[_tokenId] = _num;\r\n        _monsterToken.lockMonster(_tokenId, true);\r\n        emit setProductComplete(_tokenId);\r\n    }\r\n\r\n    /**\r\n     *@dev delete a product in the list\r\n     */\r\n     function deleteProduct(uint256 _productId) public{\r\n        require(_monsterIdToProduct[_productId].isAvaliable == true);\r\n        require(msg.sender == (_monsterIdToProduct[_productId]).owner);\r\n        uint _lastIndex = totalSupply() - 1;\r\n        uint _productIndex = _monsterIdToProduct[_productId].index;     \r\n        if(_lastIndex != _productIndex){\r\n            uint _lastProductId = _productsId[_lastIndex];\r\n            _productsId[_lastIndex] = _productId;\r\n            _productsId[_productIndex] = _lastProductId;\r\n            _monsterIdToProduct[_lastProductId].index = _productIndex;\r\n        }\r\n        delete _monsterIdToProduct[_productId];\r\n        _productsId.pop();\r\n        uint _index = _ownedProductsIndex[_productId];\r\n        uint _amount = _productNumOf[msg.sender];\r\n        require(_index < _amount);\r\n        if(_index < _amount -1){\r\n           uint _lastOwnedId = _ownedProducts[msg.sender][_amount -1];\r\n            _ownedProducts[msg.sender][_index] = _lastOwnedId;\r\n            _ownedProductsIndex[_lastOwnedId] = _index;\r\n\r\n        } \r\n        delete _ownedProducts[msg.sender][_amount - 1];\r\n        _productNumOf[msg.sender] -= 1;\r\n        _monsterToken.lockMonster(_productId, false);\r\n        \r\n   \r\n    }\r\n\r\n    function  buyMonsters(uint _productId) public {\r\n        Product memory product = _monsterIdToProduct[_productId];\r\n        require(_monsterToken.depositOf(msg.sender) >= product.price);\r\n        _monsterToken.transferFrom(product.owner, msg.sender, _productId);\r\n        _monsterToken.transferMoney(msg.sender, product.owner, product.price);\r\n\r\n    }\r\n\r\n    function getAllProducts() public view returns(Product[] memory ){\r\n         Product[] memory _products;\r\n         if(_productsId.length > 0){\r\n           \r\n            for(uint i = 0; i < _productsId.length; i ++){\r\n                _products[i] = _monsterIdToProduct[_productsId[i]];\r\n            }\r\n            \r\n        }\r\n        else _products = new Product[](0);\r\n        return _products;\r\n    }\r\n\r\n    function getMyProducts() public view returns(Product[] memory){\r\n        Product[] memory _myProducts;\r\n        if(_productNumOf[msg.sender] > 0){\r\n            for(uint i = 0; i < _productNumOf[msg.sender]; i++){\r\n                _myProducts[i] = _monsterIdToProduct[_ownedProducts[msg.sender][i]];\r\n            }\r\n        }\r\n        else _myProducts = new Product[](0);\r\n        return _myProducts;\r\n    }\r\n    \r\n}",
  "sourcePath": "D:\\GitHub\\monster\\contracts\\MonsterMarket.sol",
  "compiler": {
    "name": "solc",
    "version": "0.8.9+commit.e5eed63a.Emscripten.clang"
  },
  "schemaVersion": "3.4.7",
  "updatedAt": "2022-05-15T06:24:41.961Z",
  "networkType": "ethereum",
  "devdoc": {
    "kind": "dev",
    "methods": {
      "_setMonsterToken(address)": {
        "details": "Pass the address of monster factory to this contract"
      },
      "deleteProduct(uint256)": {
        "details": "delete a product in the list"
      },
      "owner()": {
        "details": "Returns the address of the current owner."
      },
      "renounceOwnership()": {
        "details": "Leaves the contract without owner. It will not be possible to call `onlyOwner` functions anymore. Can only be called by the current owner. NOTE: Renouncing ownership will leave the contract without an owner, thereby removing any functionality that is only available to the owner."
      },
      "setProduct(uint256,uint256)": {
        "details": "Add a product which does not exist "
      },
      "transferOwnership(address)": {
        "details": "Transfers ownership of the contract to a new account (`newOwner`). Can only be called by the current owner."
      }
    },
    "version": 1
  },
  "userdoc": {
    "kind": "user",
    "methods": {},
    "version": 1
  }
}