{
  "contractName": "MonsterMarket",
  "abi": [
    {
      "inputs": [
        {
          "internalType": "address",
          "name": "_monsterFactoryAddress",
          "type": "address"
        }
      ],
      "stateMutability": "nonpayable",
      "type": "constructor"
    },
    {
      "anonymous": false,
      "inputs": [
        {
          "indexed": true,
          "internalType": "address",
          "name": "previousOwner",
          "type": "address"
        },
        {
          "indexed": true,
          "internalType": "address",
          "name": "newOwner",
          "type": "address"
        }
      ],
      "name": "OwnershipTransferred",
      "type": "event"
    },
    {
      "anonymous": false,
      "inputs": [
        {
          "indexed": false,
          "internalType": "uint256",
          "name": "_tokenId",
          "type": "uint256"
        }
      ],
      "name": "setProductComplete",
      "type": "event"
    },
    {
      "inputs": [],
      "name": "owner",
      "outputs": [
        {
          "internalType": "address",
          "name": "",
          "type": "address"
        }
      ],
      "stateMutability": "view",
      "type": "function",
      "constant": true
    },
    {
      "inputs": [],
      "name": "renounceOwnership",
      "outputs": [],
      "stateMutability": "nonpayable",
      "type": "function"
    },
    {
      "inputs": [
        {
          "internalType": "address",
          "name": "newOwner",
          "type": "address"
        }
      ],
      "name": "transferOwnership",
      "outputs": [],
      "stateMutability": "nonpayable",
      "type": "function"
    },
    {
      "inputs": [
        {
          "internalType": "address",
          "name": "_monsterFactoryAddress",
          "type": "address"
        }
      ],
      "name": "setMonsterFactory",
      "outputs": [],
      "stateMutability": "nonpayable",
      "type": "function"
    },
    {
      "inputs": [],
      "name": "totalSupply",
      "outputs": [
        {
          "internalType": "uint256",
          "name": "",
          "type": "uint256"
        }
      ],
      "stateMutability": "view",
      "type": "function",
      "constant": true
    },
    {
      "inputs": [
        {
          "internalType": "uint256",
          "name": "_price",
          "type": "uint256"
        },
        {
          "internalType": "uint256",
          "name": "_tokenId",
          "type": "uint256"
        }
      ],
      "name": "setProduct",
      "outputs": [],
      "stateMutability": "nonpayable",
      "type": "function"
    },
    {
      "inputs": [
        {
          "internalType": "uint256",
          "name": "_productId",
          "type": "uint256"
        }
      ],
      "name": "deleteProduct",
      "outputs": [],
      "stateMutability": "nonpayable",
      "type": "function"
    },
    {
      "inputs": [
        {
          "internalType": "uint256",
          "name": "_productId",
          "type": "uint256"
        }
      ],
      "name": "buyMonsters",
      "outputs": [],
      "stateMutability": "nonpayable",
      "type": "function"
    },
    {
      "inputs": [],
      "name": "getAllProducts",
      "outputs": [
        {
          "components": [
            {
              "internalType": "uint256",
              "name": "Id",
              "type": "uint256"
            },
            {
              "internalType": "uint256",
              "name": "index",
              "type": "uint256"
            },
            {
              "internalType": "uint256",
              "name": "price",
              "type": "uint256"
            },
            {
              "internalType": "address",
              "name": "owner",
              "type": "address"
            },
            {
              "internalType": "uint8",
              "name": "level",
              "type": "uint8"
            },
            {
              "components": [
                {
                  "internalType": "uint8",
                  "name": "HP",
                  "type": "uint8"
                },
                {
                  "internalType": "uint8",
                  "name": "strength",
                  "type": "uint8"
                },
                {
                  "internalType": "uint8",
                  "name": "defensive",
                  "type": "uint8"
                },
                {
                  "internalType": "uint8",
                  "name": "speed",
                  "type": "uint8"
                }
              ],
              "internalType": "struct MonsterLib.Statistics",
              "name": "statc",
              "type": "tuple"
            },
            {
              "internalType": "enum MonsterLib.Race",
              "name": "race",
              "type": "uint8"
            },
            {
              "internalType": "bool",
              "name": "isAvaliable",
              "type": "bool"
            }
          ],
          "internalType": "struct MonsterMarket.Product[]",
          "name": "",
          "type": "tuple[]"
        }
      ],
      "stateMutability": "view",
      "type": "function",
      "constant": true
    },
    {
      "inputs": [],
      "name": "getMyProducts",
      "outputs": [
        {
          "components": [
            {
              "internalType": "uint256",
              "name": "Id",
              "type": "uint256"
            },
            {
              "internalType": "uint256",
              "name": "index",
              "type": "uint256"
            },
            {
              "internalType": "uint256",
              "name": "price",
              "type": "uint256"
            },
            {
              "internalType": "address",
              "name": "owner",
              "type": "address"
            },
            {
              "internalType": "uint8",
              "name": "level",
              "type": "uint8"
            },
            {
              "components": [
                {
                  "internalType": "uint8",
                  "name": "HP",
                  "type": "uint8"
                },
                {
                  "internalType": "uint8",
                  "name": "strength",
                  "type": "uint8"
                },
                {
                  "internalType": "uint8",
                  "name": "defensive",
                  "type": "uint8"
                },
                {
                  "internalType": "uint8",
                  "name": "speed",
                  "type": "uint8"
                }
              ],
              "internalType": "struct MonsterLib.Statistics",
              "name": "statc",
              "type": "tuple"
            },
            {
              "internalType": "enum MonsterLib.Race",
              "name": "race",
              "type": "uint8"
            },
            {
              "internalType": "bool",
              "name": "isAvaliable",
              "type": "bool"
            }
          ],
          "internalType": "struct MonsterMarket.Product[]",
          "name": "",
          "type": "tuple[]"
        }
      ],
      "stateMutability": "view",
      "type": "function",
      "constant": true
    }
  ],
  "bytecode": "0x60806040523480156200001157600080fd5b50604051620027813803806200278183398181016040528101906200003791906200039f565b620000576200004b620000bd60201b60201c565b620000c560201b60201c565b6040518060400160405280600e81526020017f4d6f6e73746572204d61726b657400000000000000000000000000000000000081525060019080519060200190620000a492919062000285565b50620000b6816200018960201b60201c565b50620004b9565b600033905090565b60008060009054906101000a900473ffffffffffffffffffffffffffffffffffffffff169050816000806101000a81548173ffffffffffffffffffffffffffffffffffffffff021916908373ffffffffffffffffffffffffffffffffffffffff1602179055508173ffffffffffffffffffffffffffffffffffffffff168173ffffffffffffffffffffffffffffffffffffffff167f8be0079c531659141344cd1fd0a4f28419497f9722a3daafe3b4186f6b6457e060405160405180910390a35050565b62000199620000bd60201b60201c565b73ffffffffffffffffffffffffffffffffffffffff16620001bf6200025c60201b60201c565b73ffffffffffffffffffffffffffffffffffffffff161462000218576040517f08c379a00000000000000000000000000000000000000000000000000000000081526004016200020f9062000432565b60405180910390fd5b80600260006101000a81548173ffffffffffffffffffffffffffffffffffffffff021916908373ffffffffffffffffffffffffffffffffffffffff16021790555050565b60008060009054906101000a900473ffffffffffffffffffffffffffffffffffffffff16905090565b828054620002939062000483565b90600052602060002090601f016020900481019282620002b7576000855562000303565b82601f10620002d257805160ff191683800117855562000303565b8280016001018555821562000303579182015b8281111562000302578251825591602001919060010190620002e5565b5b50905062000312919062000316565b5090565b5b808211156200033157600081600090555060010162000317565b5090565b600080fd5b600073ffffffffffffffffffffffffffffffffffffffff82169050919050565b600062000367826200033a565b9050919050565b62000379816200035a565b81146200038557600080fd5b50565b60008151905062000399816200036e565b92915050565b600060208284031215620003b857620003b762000335565b5b6000620003c88482850162000388565b91505092915050565b600082825260208201905092915050565b7f4f776e61626c653a2063616c6c6572206973206e6f7420746865206f776e6572600082015250565b60006200041a602083620003d1565b91506200042782620003e2565b602082019050919050565b600060208201905081810360008301526200044d816200040b565b9050919050565b7f4e487b7100000000000000000000000000000000000000000000000000000000600052602260045260246000fd5b600060028204905060018216806200049c57607f821691505b60208210811415620004b357620004b262000454565b5b50919050565b6122b880620004c96000396000f3fe608060405234801561001057600080fd5b506004361061009e5760003560e01c8063b6f415fa11610066578063b6f415fa14610123578063e681fac51461013f578063ed90c7b71461015b578063f2fde38b14610177578063fdca4ca3146101935761009e565b806302ee3a52146100a357806318160ddd146100c1578063715018a6146100df5780637af0343f146100e95780638da5cb5b14610105575b600080fd5b6100ab6101b1565b6040516100b89190611c3e565b60405180910390f35b6100c9610414565b6040516100d69190611c6f565b60405180910390f35b6100e7610421565b005b61010360048036038101906100fe9190611cc5565b6104a9565b005b61010d610569565b60405161011a9190611d01565b60405180910390f35b61013d60048036038101906101389190611d48565b610592565b005b61015960048036038101906101549190611d88565b610b13565b005b61017560048036038101906101709190611d88565b610e92565b005b610191600480360381019061018c9190611cc5565b611414565b005b61019b61150c565b6040516101a89190611c3e565b60405180910390f35b606080600060038054905011156103b55760005b6003805490508110156103af5760046000600383815481106101ea576101e9611db5565b5b90600052602060002001548152602001908152602001600020604051806101000160405290816000820154815260200160018201548152602001600282015481526020016003820160009054906101000a900473ffffffffffffffffffffffffffffffffffffffff1673ffffffffffffffffffffffffffffffffffffffff1673ffffffffffffffffffffffffffffffffffffffff1681526020016003820160149054906101000a900460ff1660ff1660ff168152602001600482016040518060800160405290816000820160009054906101000a900460ff1660ff1660ff1681526020016000820160019054906101000a900460ff1660ff1660ff1681526020016000820160029054906101000a900460ff1660ff1660ff1681526020016000820160039054906101000a900460ff1660ff1660ff168152505081526020016005820160009054906101000a900460ff16600281111561034d5761034c611a84565b5b600281111561035f5761035e611a84565b5b81526020016005820160019054906101000a900460ff16151515158152505082828151811061039157610390611db5565b5b602002602001018190525080806103a790611e13565b9150506101c5565b5061040d565b600067ffffffffffffffff8111156103d0576103cf611e5c565b5b60405190808252806020026020018201604052801561040957816020015b6103f66118e1565b8152602001906001900390816103ee5790505b5090505b8091505090565b6000600380549050905090565b610429611815565b73ffffffffffffffffffffffffffffffffffffffff16610447610569565b73ffffffffffffffffffffffffffffffffffffffff161461049d576040517f08c379a000000000000000000000000000000000000000000000000000000000815260040161049490611ee8565b60405180910390fd5b6104a7600061181d565b565b6104b1611815565b73ffffffffffffffffffffffffffffffffffffffff166104cf610569565b73ffffffffffffffffffffffffffffffffffffffff1614610525576040517f08c379a000000000000000000000000000000000000000000000000000000000815260040161051c90611ee8565b60405180910390fd5b80600260006101000a81548173ffffffffffffffffffffffffffffffffffffffff021916908373ffffffffffffffffffffffffffffffffffffffff16021790555050565b60008060009054906101000a900473ffffffffffffffffffffffffffffffffffffffff16905090565b80600260009054906101000a900473ffffffffffffffffffffffffffffffffffffffff1673ffffffffffffffffffffffffffffffffffffffff16636352211e826040518263ffffffff1660e01b81526004016105ee9190611c6f565b60206040518083038186803b15801561060657600080fd5b505afa15801561061a573d6000803e3d6000fd5b505050506040513d601f19601f8201168201806040525081019061063e9190611f1d565b73ffffffffffffffffffffffffffffffffffffffff163373ffffffffffffffffffffffffffffffffffffffff161461067557600080fd5b600015156004600084815260200190815260200160002060050160019054906101000a900460ff161515146106a957600080fd5b600080600080600260009054906101000a900473ffffffffffffffffffffffffffffffffffffffff1673ffffffffffffffffffffffffffffffffffffffff166379a85e6c876040518263ffffffff1660e01b815260040161070a9190611c6f565b60e06040518083038186803b15801561072257600080fd5b505afa158015610736573d6000803e3d6000fd5b505050506040513d601f19601f8201168201806040525081019061075a9190612075565b93509350935093506000600161076e610414565b61077891906120dc565b905060006040518061010001604052808981526020018381526020018a81526020018773ffffffffffffffffffffffffffffffffffffffff1681526020018660ff1681526020018581526020018460028111156107d8576107d7611a84565b5b8152602001600115158152509050600388908060018154018082558091505060019003906000526020600020016000909190919091505580600460008a815260200190815260200160002060008201518160000155602082015181600101556040820151816002015560608201518160030160006101000a81548173ffffffffffffffffffffffffffffffffffffffff021916908373ffffffffffffffffffffffffffffffffffffffff16021790555060808201518160030160146101000a81548160ff021916908360ff16021790555060a08201518160040160008201518160000160006101000a81548160ff021916908360ff16021790555060208201518160000160016101000a81548160ff021916908360ff16021790555060408201518160000160026101000a81548160ff021916908360ff16021790555060608201518160000160036101000a81548160ff021916908360ff160217905550505060c08201518160050160006101000a81548160ff0219169083600281111561096357610962611a84565b5b021790555060e08201518160050160016101000a81548160ff0219169083151502179055509050506000600660003373ffffffffffffffffffffffffffffffffffffffff1673ffffffffffffffffffffffffffffffffffffffff1681526020019081526020016000205490508160000151600560003373ffffffffffffffffffffffffffffffffffffffff1673ffffffffffffffffffffffffffffffffffffffff16815260200190815260200160002060008381526020019081526020016000208190555080600760008b815260200190815260200160002081905550600260009054906101000a900473ffffffffffffffffffffffffffffffffffffffff1673ffffffffffffffffffffffffffffffffffffffff1663caece7bb8a60016040518363ffffffff1660e01b8152600401610a9e92919061211f565b600060405180830381600087803b158015610ab857600080fd5b505af1158015610acc573d6000803e3d6000fd5b505050507f24a4e0b58a37c0f3e30a528ce8ac1da26869fcf5e64b7c319d27054ac4d7ca9b89604051610aff9190611c6f565b60405180910390a150505050505050505050565b600060046000838152602001908152602001600020604051806101000160405290816000820154815260200160018201548152602001600282015481526020016003820160009054906101000a900473ffffffffffffffffffffffffffffffffffffffff1673ffffffffffffffffffffffffffffffffffffffff1673ffffffffffffffffffffffffffffffffffffffff1681526020016003820160149054906101000a900460ff1660ff1660ff168152602001600482016040518060800160405290816000820160009054906101000a900460ff1660ff1660ff1681526020016000820160019054906101000a900460ff1660ff1660ff1681526020016000820160029054906101000a900460ff1660ff1660ff1681526020016000820160039054906101000a900460ff1660ff1660ff168152505081526020016005820160009054906101000a900460ff166002811115610c7257610c71611a84565b5b6002811115610c8457610c83611a84565b5b81526020016005820160019054906101000a900460ff16151515158152505090508060400151600260009054906101000a900473ffffffffffffffffffffffffffffffffffffffff1673ffffffffffffffffffffffffffffffffffffffff166323e3fbd5336040518263ffffffff1660e01b8152600401610d059190611d01565b60206040518083038186803b158015610d1d57600080fd5b505afa158015610d31573d6000803e3d6000fd5b505050506040513d601f19601f82011682018060405250810190610d55919061215d565b1015610d6057600080fd5b600260009054906101000a900473ffffffffffffffffffffffffffffffffffffffff1673ffffffffffffffffffffffffffffffffffffffff166323b872dd826060015133856040518463ffffffff1660e01b8152600401610dc39392919061218a565b600060405180830381600087803b158015610ddd57600080fd5b505af1158015610df1573d6000803e3d6000fd5b50505050600260009054906101000a900473ffffffffffffffffffffffffffffffffffffffff1673ffffffffffffffffffffffffffffffffffffffff16636410381c33836060015184604001516040518463ffffffff1660e01b8152600401610e5c9392919061218a565b600060405180830381600087803b158015610e7657600080fd5b505af1158015610e8a573d6000803e3d6000fd5b505050505050565b80600260009054906101000a900473ffffffffffffffffffffffffffffffffffffffff1673ffffffffffffffffffffffffffffffffffffffff16636352211e826040518263ffffffff1660e01b8152600401610eee9190611c6f565b60206040518083038186803b158015610f0657600080fd5b505afa158015610f1a573d6000803e3d6000fd5b505050506040513d601f19601f82011682018060405250810190610f3e9190611f1d565b73ffffffffffffffffffffffffffffffffffffffff163373ffffffffffffffffffffffffffffffffffffffff1614610f7557600080fd5b600115156004600084815260200190815260200160002060050160019054906101000a900460ff16151514610fa957600080fd5b60006001610fb5610414565b610fbf91906120dc565b905060006004600085815260200190815260200160002060010154905080821461106957600060038381548110610ff957610ff8611db5565b5b90600052602060002001549050846003848154811061101b5761101a611db5565b5b9060005260206000200181905550806003838154811061103e5761103d611db5565b5b9060005260206000200181905550816004600083815260200190815260200160002060010181905550505b60046000858152602001908152602001600020600080820160009055600182016000905560028201600090556003820160006101000a81549073ffffffffffffffffffffffffffffffffffffffff02191690556003820160146101000a81549060ff021916905560048201600080820160006101000a81549060ff02191690556000820160016101000a81549060ff02191690556000820160026101000a81549060ff02191690556000820160036101000a81549060ff021916905550506005820160006101000a81549060ff02191690556005820160016101000a81549060ff021916905550506003805480611163576111626121c1565b5b600190038181906000526020600020016000905590556000600760008681526020019081526020016000205490506000600660003373ffffffffffffffffffffffffffffffffffffffff1673ffffffffffffffffffffffffffffffffffffffff1681526020019081526020016000205490508082106111e157600080fd5b6001816111ee91906120dc565b8210156112c5576000600560003373ffffffffffffffffffffffffffffffffffffffff1673ffffffffffffffffffffffffffffffffffffffff168152602001908152602001600020600060018461124591906120dc565b815260200190815260200160002054905080600560003373ffffffffffffffffffffffffffffffffffffffff1673ffffffffffffffffffffffffffffffffffffffff168152602001908152602001600020600085815260200190815260200160002081905550826007600083815260200190815260200160002081905550505b600560003373ffffffffffffffffffffffffffffffffffffffff1673ffffffffffffffffffffffffffffffffffffffff168152602001908152602001600020600060018361131391906120dc565b8152602001908152602001600020600090556001600660003373ffffffffffffffffffffffffffffffffffffffff1673ffffffffffffffffffffffffffffffffffffffff168152602001908152602001600020600082825461137591906120dc565b92505081905550600260009054906101000a900473ffffffffffffffffffffffffffffffffffffffff1673ffffffffffffffffffffffffffffffffffffffff1663caece7bb8760006040518363ffffffff1660e01b81526004016113da92919061211f565b600060405180830381600087803b1580156113f457600080fd5b505af1158015611408573d6000803e3d6000fd5b50505050505050505050565b61141c611815565b73ffffffffffffffffffffffffffffffffffffffff1661143a610569565b73ffffffffffffffffffffffffffffffffffffffff1614611490576040517f08c379a000000000000000000000000000000000000000000000000000000000815260040161148790611ee8565b60405180910390fd5b600073ffffffffffffffffffffffffffffffffffffffff168173ffffffffffffffffffffffffffffffffffffffff161415611500576040517f08c379a00000000000000000000000000000000000000000000000000000000081526004016114f790612262565b60405180910390fd5b6115098161181d565b50565b6060806000600660003373ffffffffffffffffffffffffffffffffffffffff1673ffffffffffffffffffffffffffffffffffffffff1681526020019081526020016000205411156117b65760005b600660003373ffffffffffffffffffffffffffffffffffffffff1673ffffffffffffffffffffffffffffffffffffffff168152602001908152602001600020548110156117b05760046000600560003373ffffffffffffffffffffffffffffffffffffffff1673ffffffffffffffffffffffffffffffffffffffff1681526020019081526020016000206000848152602001908152602001600020548152602001908152602001600020604051806101000160405290816000820154815260200160018201548152602001600282015481526020016003820160009054906101000a900473ffffffffffffffffffffffffffffffffffffffff1673ffffffffffffffffffffffffffffffffffffffff1673ffffffffffffffffffffffffffffffffffffffff1681526020016003820160149054906101000a900460ff1660ff1660ff168152602001600482016040518060800160405290816000820160009054906101000a900460ff1660ff1660ff1681526020016000820160019054906101000a900460ff1660ff1660ff1681526020016000820160029054906101000a900460ff1660ff1660ff1681526020016000820160039054906101000a900460ff1660ff1660ff168152505081526020016005820160009054906101000a900460ff16600281111561174e5761174d611a84565b5b60028111156117605761175f611a84565b5b81526020016005820160019054906101000a900460ff16151515158152505082828151811061179257611791611db5565b5b602002602001018190525080806117a890611e13565b91505061155a565b5061180e565b600067ffffffffffffffff8111156117d1576117d0611e5c565b5b60405190808252806020026020018201604052801561180a57816020015b6117f76118e1565b8152602001906001900390816117ef5790505b5090505b8091505090565b600033905090565b60008060009054906101000a900473ffffffffffffffffffffffffffffffffffffffff169050816000806101000a81548173ffffffffffffffffffffffffffffffffffffffff021916908373ffffffffffffffffffffffffffffffffffffffff1602179055508173ffffffffffffffffffffffffffffffffffffffff168173ffffffffffffffffffffffffffffffffffffffff167f8be0079c531659141344cd1fd0a4f28419497f9722a3daafe3b4186f6b6457e060405160405180910390a35050565b604051806101000160405280600081526020016000815260200160008152602001600073ffffffffffffffffffffffffffffffffffffffff168152602001600060ff168152602001611931611959565b81526020016000600281111561194a57611949611a84565b5b81526020016000151581525090565b6040518060800160405280600060ff168152602001600060ff168152602001600060ff168152602001600060ff1681525090565b600081519050919050565b600082825260208201905092915050565b6000819050602082019050919050565b6000819050919050565b6119cc816119b9565b82525050565b600073ffffffffffffffffffffffffffffffffffffffff82169050919050565b60006119fd826119d2565b9050919050565b611a0d816119f2565b82525050565b600060ff82169050919050565b611a2981611a13565b82525050565b608082016000820151611a456000850182611a20565b506020820151611a586020850182611a20565b506040820151611a6b6040850182611a20565b506060820151611a7e6060850182611a20565b50505050565b7f4e487b7100000000000000000000000000000000000000000000000000000000600052602160045260246000fd5b60038110611ac457611ac3611a84565b5b50565b6000819050611ad582611ab3565b919050565b6000611ae582611ac7565b9050919050565b611af581611ada565b82525050565b60008115159050919050565b611b1081611afb565b82525050565b61016082016000820151611b2d60008501826119c3565b506020820151611b4060208501826119c3565b506040820151611b5360408501826119c3565b506060820151611b666060850182611a04565b506080820151611b796080850182611a20565b5060a0820151611b8c60a0850182611a2f565b5060c0820151611ba0610120850182611aec565b5060e0820151611bb4610140850182611b07565b50505050565b6000611bc68383611b16565b6101608301905092915050565b6000602082019050919050565b6000611beb8261198d565b611bf58185611998565b9350611c00836119a9565b8060005b83811015611c31578151611c188882611bba565b9750611c2383611bd3565b925050600181019050611c04565b5085935050505092915050565b60006020820190508181036000830152611c588184611be0565b905092915050565b611c69816119b9565b82525050565b6000602082019050611c846000830184611c60565b92915050565b6000604051905090565b600080fd5b611ca2816119f2565b8114611cad57600080fd5b50565b600081359050611cbf81611c99565b92915050565b600060208284031215611cdb57611cda611c94565b5b6000611ce984828501611cb0565b91505092915050565b611cfb816119f2565b82525050565b6000602082019050611d166000830184611cf2565b92915050565b611d25816119b9565b8114611d3057600080fd5b50565b600081359050611d4281611d1c565b92915050565b60008060408385031215611d5f57611d5e611c94565b5b6000611d6d85828601611d33565b9250506020611d7e85828601611d33565b9150509250929050565b600060208284031215611d9e57611d9d611c94565b5b6000611dac84828501611d33565b91505092915050565b7f4e487b7100000000000000000000000000000000000000000000000000000000600052603260045260246000fd5b7f4e487b7100000000000000000000000000000000000000000000000000000000600052601160045260246000fd5b6000611e1e826119b9565b91507fffffffffffffffffffffffffffffffffffffffffffffffffffffffffffffffff821415611e5157611e50611de4565b5b600182019050919050565b7f4e487b7100000000000000000000000000000000000000000000000000000000600052604160045260246000fd5b600082825260208201905092915050565b7f4f776e61626c653a2063616c6c6572206973206e6f7420746865206f776e6572600082015250565b6000611ed2602083611e8b565b9150611edd82611e9c565b602082019050919050565b60006020820190508181036000830152611f0181611ec5565b9050919050565b600081519050611f1781611c99565b92915050565b600060208284031215611f3357611f32611c94565b5b6000611f4184828501611f08565b91505092915050565b611f5381611a13565b8114611f5e57600080fd5b50565b600081519050611f7081611f4a565b92915050565b600080fd5b6000601f19601f8301169050919050565b611f9582611f7b565b810181811067ffffffffffffffff82111715611fb457611fb3611e5c565b5b80604052505050565b6000611fc7611c8a565b9050611fd38282611f8c565b919050565b600060808284031215611fee57611fed611f76565b5b611ff86080611fbd565b9050600061200884828501611f61565b600083015250602061201c84828501611f61565b602083015250604061203084828501611f61565b604083015250606061204484828501611f61565b60608301525092915050565b6003811061205d57600080fd5b50565b60008151905061206f81612050565b92915050565b60008060008060e0858703121561208f5761208e611c94565b5b600061209d87828801611f08565b94505060206120ae87828801611f61565b93505060406120bf87828801611fd8565b92505060c06120d087828801612060565b91505092959194509250565b60006120e7826119b9565b91506120f2836119b9565b92508282101561210557612104611de4565b5b828203905092915050565b61211981611afb565b82525050565b60006040820190506121346000830185611c60565b6121416020830184612110565b9392505050565b60008151905061215781611d1c565b92915050565b60006020828403121561217357612172611c94565b5b600061218184828501612148565b91505092915050565b600060608201905061219f6000830186611cf2565b6121ac6020830185611cf2565b6121b96040830184611c60565b949350505050565b7f4e487b7100000000000000000000000000000000000000000000000000000000600052603160045260246000fd5b7f4f776e61626c653a206e6577206f776e657220697320746865207a65726f206160008201527f6464726573730000000000000000000000000000000000000000000000000000602082015250565b600061224c602683611e8b565b9150612257826121f0565b604082019050919050565b6000602082019050818103600083015261227b8161223f565b905091905056fea2646970667358221220acdd50e09b70dd06a8ccf036092bb774890ec436acff2f8b19aec0aa59e16c7f64736f6c63430008090033",
  "immutableReferences": {},
  "source": "pragma solidity ^0.8.9;\r\npragma experimental ABIEncoderV2;\r\nimport \"./MonsterLib.sol\";\r\nimport \"./MonsterFactory.sol\";\r\nimport \"../node_modules/@openzeppelin/contracts/access/Ownable.sol\";\r\ncontract MonsterMarket is Ownable{\r\n\r\n    event setProductComplete(uint256 _tokenId);\r\n\r\n    string private _name;\r\n\r\n    MonsterFactory internal _monsterFactory;\r\n\r\n    struct Product{\r\n        uint256 Id;\r\n        uint index;\r\n        uint256 price;\r\n        address owner;\r\n        uint8 level;\r\n        MonsterLib.Statistics statc;\r\n        MonsterLib.Race race;\r\n        bool isAvaliable;\r\n    }\r\n    //a list of avaliable products id\r\n    uint[] private _productsId;\r\n\r\n    //Mapping from monster id to product\r\n    mapping(uint256 => Product) private _monsterIdToProduct;\r\n\r\n    //Mapping from owner to lists of owned product IDs\r\n    mapping(address => mapping(uint256 => uint256)) private _ownedProducts;\r\n\r\n    //Mapping from owner to the number of available product they owned\r\n    mapping(address => uint256) private _productNumOf;\r\n\r\n    //Mapping from product Id to its position in list of owned product Ids\r\n    mapping(uint => uint) private _ownedProductsIndex;\r\n\r\n    constructor(address _monsterFactoryAddress) {\r\n        _name = \"Monster Market\";\r\n        setMonsterFactory(_monsterFactoryAddress);\r\n    }\r\n    \r\n    modifier onlyMonsterOwner(uint256 _tokenId){\r\n        require(msg.sender == _monsterFactory.ownerOf(_tokenId));\r\n        _;\r\n    }\r\n\r\n\r\n    /**\r\n     * @dev Pass the address of monster factory to this contract\r\n     */\r\n    function setMonsterFactory(address _monsterFactoryAddress) public onlyOwner{\r\n        _monsterFactory = MonsterFactory(payable(_monsterFactoryAddress));\r\n    }\r\n\r\n    function totalSupply() public view returns(uint256){\r\n        return _productsId.length;\r\n    }\r\n\r\n    /**\r\n     * @dev Add a product which does not exist \r\n     */\r\n    function setProduct(uint256 _price, uint256 _tokenId) onlyMonsterOwner(_tokenId) public {\r\n        require(_monsterIdToProduct[_tokenId].isAvaliable == false);\r\n        (address owner, uint8 level, MonsterLib.Statistics memory statc, MonsterLib.Race race) = _monsterFactory.getProductInfo(_tokenId);\r\n        uint256 _productIndex = totalSupply() - 1;\r\n        Product memory _newPro = Product(_tokenId, _productIndex, _price, owner, level, statc, race, true);\r\n        _productsId.push(_tokenId);\r\n        _monsterIdToProduct[_tokenId] = _newPro;\r\n        uint _num = _productNumOf[msg.sender];\r\n        _ownedProducts[msg.sender][_num] = _newPro.Id;\r\n        _ownedProductsIndex[_tokenId] = _num;\r\n        _monsterFactory.lockMonster(_tokenId, true);\r\n        emit setProductComplete(_tokenId);\r\n    }\r\n\r\n    /**\r\n     *@dev delete a product in the list\r\n     */\r\n     function deleteProduct(uint256 _productId) onlyMonsterOwner(_productId) public{\r\n        require(_monsterIdToProduct[_productId].isAvaliable == true);\r\n        uint _lastIndex = totalSupply() - 1;\r\n        uint _productIndex = _monsterIdToProduct[_productId].index;     \r\n        if(_lastIndex != _productIndex){\r\n            uint _lastProductId = _productsId[_lastIndex];\r\n            _productsId[_lastIndex] = _productId;\r\n            _productsId[_productIndex] = _lastProductId;\r\n            _monsterIdToProduct[_lastProductId].index = _productIndex;\r\n        }\r\n        delete _monsterIdToProduct[_productId];\r\n        _productsId.pop();\r\n        uint _index = _ownedProductsIndex[_productId];\r\n        uint _amount = _productNumOf[msg.sender];\r\n        require(_index < _amount);\r\n        if(_index < _amount -1){\r\n           uint _lastOwnedId = _ownedProducts[msg.sender][_amount -1];\r\n            _ownedProducts[msg.sender][_index] = _lastOwnedId;\r\n            _ownedProductsIndex[_lastOwnedId] = _index;\r\n\r\n        } \r\n        delete _ownedProducts[msg.sender][_amount - 1];\r\n        _productNumOf[msg.sender] -= 1;\r\n        _monsterFactory.lockMonster(_productId, false);\r\n        \r\n   \r\n    }\r\n\r\n    function  buyMonsters(uint _productId) public {\r\n        Product memory product = _monsterIdToProduct[_productId];\r\n        require(_monsterFactory.depositOf(msg.sender) >= product.price);\r\n        _monsterFactory.transferFrom(product.owner, msg.sender, _productId);\r\n        _monsterFactory.transferMoney(msg.sender, product.owner, product.price);\r\n\r\n    }\r\n\r\n    function getAllProducts() public view returns(Product[] memory ){\r\n         Product[] memory _products;\r\n         if(_productsId.length > 0){\r\n           \r\n            for(uint i = 0; i < _productsId.length; i ++){\r\n                _products[i] = _monsterIdToProduct[_productsId[i]];\r\n            }\r\n            \r\n        }\r\n        else _products = new Product[](0);\r\n        return _products;\r\n    }\r\n\r\n    function getMyProducts() public view returns(Product[] memory){\r\n        Product[] memory _myProducts;\r\n        if(_productNumOf[msg.sender] > 0){\r\n            for(uint i = 0; i < _productNumOf[msg.sender]; i++){\r\n                _myProducts[i] = _monsterIdToProduct[_ownedProducts[msg.sender][i]];\r\n            }\r\n        }\r\n        else _myProducts = new Product[](0);\r\n        return _myProducts;\r\n    }\r\n    \r\n}",
  "sourcePath": "D:\\GitHub\\monster\\contracts\\MonsterMarket.sol",
  "compiler": {
    "name": "solc",
    "version": "0.8.9+commit.e5eed63a.Emscripten.clang"
  },
  "schemaVersion": "3.4.7",
  "updatedAt": "2022-05-14T23:27:55.952Z",
  "networkType": "ethereum",
  "devdoc": {
    "kind": "dev",
    "methods": {
      "deleteProduct(uint256)": {
        "details": "delete a product in the list"
      },
      "owner()": {
        "details": "Returns the address of the current owner."
      },
      "renounceOwnership()": {
        "details": "Leaves the contract without owner. It will not be possible to call `onlyOwner` functions anymore. Can only be called by the current owner. NOTE: Renouncing ownership will leave the contract without an owner, thereby removing any functionality that is only available to the owner."
      },
      "setMonsterFactory(address)": {
        "details": "Pass the address of monster factory to this contract"
      },
      "setProduct(uint256,uint256)": {
        "details": "Add a product which does not exist "
      },
      "transferOwnership(address)": {
        "details": "Transfers ownership of the contract to a new account (`newOwner`). Can only be called by the current owner."
      }
    },
    "version": 1
  },
  "userdoc": {
    "kind": "user",
    "methods": {},
    "version": 1
  }
}