{
  "contractName": "MonsterToken",
  "abi": [
    {
      "inputs": [
        {
          "internalType": "address",
          "name": "_monsterFactoryAddress",
          "type": "address"
        },
        {
          "internalType": "address",
          "name": "_monsterBattleAddress",
          "type": "address"
        }
      ],
      "stateMutability": "nonpayable",
      "type": "constructor"
    },
    {
      "anonymous": false,
      "inputs": [
        {
          "indexed": false,
          "internalType": "enum MonsterLib.Race",
          "name": "",
          "type": "uint8"
        },
        {
          "indexed": false,
          "internalType": "enum MonsterLib.Race",
          "name": "",
          "type": "uint8"
        }
      ],
      "name": "DifferentRace",
      "type": "event"
    },
    {
      "anonymous": false,
      "inputs": [
        {
          "components": [
            {
              "internalType": "uint8",
              "name": "HP",
              "type": "uint8"
            },
            {
              "internalType": "uint8",
              "name": "strength",
              "type": "uint8"
            },
            {
              "internalType": "uint8",
              "name": "defensive",
              "type": "uint8"
            },
            {
              "internalType": "uint8",
              "name": "speed",
              "type": "uint8"
            }
          ],
          "indexed": false,
          "internalType": "struct MonsterLib.Statistics",
          "name": "",
          "type": "tuple"
        },
        {
          "components": [
            {
              "internalType": "uint8",
              "name": "HP",
              "type": "uint8"
            },
            {
              "internalType": "uint8",
              "name": "strength",
              "type": "uint8"
            },
            {
              "internalType": "uint8",
              "name": "defensive",
              "type": "uint8"
            },
            {
              "internalType": "uint8",
              "name": "speed",
              "type": "uint8"
            }
          ],
          "indexed": false,
          "internalType": "struct MonsterLib.Statistics",
          "name": "",
          "type": "tuple"
        }
      ],
      "name": "LevelUp",
      "type": "event"
    },
    {
      "anonymous": false,
      "inputs": [
        {
          "indexed": false,
          "internalType": "uint256",
          "name": "",
          "type": "uint256"
        },
        {
          "indexed": false,
          "internalType": "bool",
          "name": "",
          "type": "bool"
        }
      ],
      "name": "LockMonster",
      "type": "event"
    },
    {
      "anonymous": false,
      "inputs": [
        {
          "indexed": false,
          "internalType": "uint256",
          "name": "",
          "type": "uint256"
        }
      ],
      "name": "MonsterInMarket",
      "type": "event"
    },
    {
      "anonymous": false,
      "inputs": [
        {
          "indexed": false,
          "internalType": "address",
          "name": "from",
          "type": "address"
        },
        {
          "indexed": false,
          "internalType": "uint256",
          "name": "amount",
          "type": "uint256"
        }
      ],
      "name": "ReceiveEth",
      "type": "event"
    },
    {
      "anonymous": false,
      "inputs": [
        {
          "indexed": false,
          "internalType": "address",
          "name": "",
          "type": "address"
        },
        {
          "indexed": false,
          "internalType": "address",
          "name": "",
          "type": "address"
        },
        {
          "indexed": false,
          "internalType": "uint256",
          "name": "",
          "type": "uint256"
        }
      ],
      "name": "Transfer",
      "type": "event"
    },
    {
      "anonymous": false,
      "inputs": [
        {
          "indexed": false,
          "internalType": "address",
          "name": "",
          "type": "address"
        },
        {
          "indexed": false,
          "internalType": "address",
          "name": "",
          "type": "address"
        },
        {
          "indexed": false,
          "internalType": "uint256",
          "name": "",
          "type": "uint256"
        }
      ],
      "name": "TransferMoney",
      "type": "event"
    },
    {
      "stateMutability": "payable",
      "type": "receive",
      "payable": true
    },
    {
      "inputs": [
        {
          "internalType": "address",
          "name": "owner",
          "type": "address"
        }
      ],
      "name": "depositOf",
      "outputs": [
        {
          "internalType": "uint256",
          "name": "",
          "type": "uint256"
        }
      ],
      "stateMutability": "view",
      "type": "function",
      "constant": true
    },
    {
      "inputs": [],
      "name": "totalSupply",
      "outputs": [
        {
          "internalType": "uint256",
          "name": "",
          "type": "uint256"
        }
      ],
      "stateMutability": "view",
      "type": "function",
      "constant": true
    },
    {
      "inputs": [
        {
          "internalType": "enum MonsterLib.Race",
          "name": "race",
          "type": "uint8"
        }
      ],
      "name": "getInitialMonster",
      "outputs": [],
      "stateMutability": "nonpayable",
      "type": "function"
    },
    {
      "inputs": [
        {
          "internalType": "address",
          "name": "_owner",
          "type": "address"
        }
      ],
      "name": "balanceOf",
      "outputs": [
        {
          "internalType": "uint256",
          "name": "balance",
          "type": "uint256"
        }
      ],
      "stateMutability": "view",
      "type": "function",
      "constant": true
    },
    {
      "inputs": [
        {
          "internalType": "uint256",
          "name": "_tokenId",
          "type": "uint256"
        }
      ],
      "name": "getStatics",
      "outputs": [
        {
          "components": [
            {
              "internalType": "uint8",
              "name": "HP",
              "type": "uint8"
            },
            {
              "internalType": "uint8",
              "name": "strength",
              "type": "uint8"
            },
            {
              "internalType": "uint8",
              "name": "defensive",
              "type": "uint8"
            },
            {
              "internalType": "uint8",
              "name": "speed",
              "type": "uint8"
            }
          ],
          "internalType": "struct MonsterLib.Statistics",
          "name": "",
          "type": "tuple"
        }
      ],
      "stateMutability": "view",
      "type": "function",
      "constant": true
    },
    {
      "inputs": [
        {
          "internalType": "uint256",
          "name": "_tokenId",
          "type": "uint256"
        }
      ],
      "name": "getProductInfo",
      "outputs": [
        {
          "internalType": "address",
          "name": "",
          "type": "address"
        },
        {
          "internalType": "uint8",
          "name": "",
          "type": "uint8"
        },
        {
          "components": [
            {
              "internalType": "uint8",
              "name": "HP",
              "type": "uint8"
            },
            {
              "internalType": "uint8",
              "name": "strength",
              "type": "uint8"
            },
            {
              "internalType": "uint8",
              "name": "defensive",
              "type": "uint8"
            },
            {
              "internalType": "uint8",
              "name": "speed",
              "type": "uint8"
            }
          ],
          "internalType": "struct MonsterLib.Statistics",
          "name": "",
          "type": "tuple"
        },
        {
          "internalType": "enum MonsterLib.Race",
          "name": "",
          "type": "uint8"
        }
      ],
      "stateMutability": "view",
      "type": "function",
      "constant": true
    },
    {
      "inputs": [
        {
          "internalType": "uint256",
          "name": "_tokenId",
          "type": "uint256"
        }
      ],
      "name": "monsterById",
      "outputs": [
        {
          "components": [
            {
              "internalType": "uint256",
              "name": "tokenId",
              "type": "uint256"
            },
            {
              "internalType": "uint256",
              "name": "mumId",
              "type": "uint256"
            },
            {
              "internalType": "uint256",
              "name": "dadId",
              "type": "uint256"
            },
            {
              "components": [
                {
                  "internalType": "uint8",
                  "name": "HP",
                  "type": "uint8"
                },
                {
                  "internalType": "uint8",
                  "name": "strength",
                  "type": "uint8"
                },
                {
                  "internalType": "uint8",
                  "name": "defensive",
                  "type": "uint8"
                },
                {
                  "internalType": "uint8",
                  "name": "speed",
                  "type": "uint8"
                }
              ],
              "internalType": "struct MonsterLib.Statistics",
              "name": "statc",
              "type": "tuple"
            },
            {
              "components": [
                {
                  "internalType": "uint8",
                  "name": "HP",
                  "type": "uint8"
                },
                {
                  "internalType": "uint8",
                  "name": "strength",
                  "type": "uint8"
                },
                {
                  "internalType": "uint8",
                  "name": "defensive",
                  "type": "uint8"
                },
                {
                  "internalType": "uint8",
                  "name": "speed",
                  "type": "uint8"
                }
              ],
              "internalType": "struct MonsterLib.IndividualValue",
              "name": "iv",
              "type": "tuple"
            },
            {
              "internalType": "uint8",
              "name": "level",
              "type": "uint8"
            },
            {
              "internalType": "uint8",
              "name": "expNeedToNext",
              "type": "uint8"
            },
            {
              "internalType": "enum MonsterLib.Race",
              "name": "race",
              "type": "uint8"
            },
            {
              "internalType": "bool",
              "name": "isLocked",
              "type": "bool"
            }
          ],
          "internalType": "struct MonsterLib.Monster",
          "name": "",
          "type": "tuple"
        }
      ],
      "stateMutability": "view",
      "type": "function",
      "constant": true
    },
    {
      "inputs": [
        {
          "internalType": "address",
          "name": "_from",
          "type": "address"
        },
        {
          "internalType": "address",
          "name": "_to",
          "type": "address"
        },
        {
          "internalType": "uint256",
          "name": "_value",
          "type": "uint256"
        }
      ],
      "name": "transferMoney",
      "outputs": [],
      "stateMutability": "nonpayable",
      "type": "function"
    },
    {
      "inputs": [
        {
          "internalType": "address",
          "name": "_from",
          "type": "address"
        },
        {
          "internalType": "address",
          "name": "_to",
          "type": "address"
        },
        {
          "internalType": "uint256",
          "name": "_tokenId",
          "type": "uint256"
        }
      ],
      "name": "transferFrom",
      "outputs": [],
      "stateMutability": "nonpayable",
      "type": "function"
    },
    {
      "inputs": [
        {
          "internalType": "uint256",
          "name": "_tokenId",
          "type": "uint256"
        },
        {
          "internalType": "bool",
          "name": "_locked",
          "type": "bool"
        }
      ],
      "name": "lockMonster",
      "outputs": [],
      "stateMutability": "nonpayable",
      "type": "function"
    },
    {
      "inputs": [],
      "name": "getOwnedMonster",
      "outputs": [
        {
          "components": [
            {
              "internalType": "uint256",
              "name": "tokenId",
              "type": "uint256"
            },
            {
              "internalType": "uint256",
              "name": "mumId",
              "type": "uint256"
            },
            {
              "internalType": "uint256",
              "name": "dadId",
              "type": "uint256"
            },
            {
              "components": [
                {
                  "internalType": "uint8",
                  "name": "HP",
                  "type": "uint8"
                },
                {
                  "internalType": "uint8",
                  "name": "strength",
                  "type": "uint8"
                },
                {
                  "internalType": "uint8",
                  "name": "defensive",
                  "type": "uint8"
                },
                {
                  "internalType": "uint8",
                  "name": "speed",
                  "type": "uint8"
                }
              ],
              "internalType": "struct MonsterLib.Statistics",
              "name": "statc",
              "type": "tuple"
            },
            {
              "components": [
                {
                  "internalType": "uint8",
                  "name": "HP",
                  "type": "uint8"
                },
                {
                  "internalType": "uint8",
                  "name": "strength",
                  "type": "uint8"
                },
                {
                  "internalType": "uint8",
                  "name": "defensive",
                  "type": "uint8"
                },
                {
                  "internalType": "uint8",
                  "name": "speed",
                  "type": "uint8"
                }
              ],
              "internalType": "struct MonsterLib.IndividualValue",
              "name": "iv",
              "type": "tuple"
            },
            {
              "internalType": "uint8",
              "name": "level",
              "type": "uint8"
            },
            {
              "internalType": "uint8",
              "name": "expNeedToNext",
              "type": "uint8"
            },
            {
              "internalType": "enum MonsterLib.Race",
              "name": "race",
              "type": "uint8"
            },
            {
              "internalType": "bool",
              "name": "isLocked",
              "type": "bool"
            }
          ],
          "internalType": "struct MonsterLib.Monster[]",
          "name": "monsters",
          "type": "tuple[]"
        }
      ],
      "stateMutability": "view",
      "type": "function",
      "constant": true
    },
    {
      "inputs": [
        {
          "internalType": "uint256",
          "name": "_monsterId",
          "type": "uint256"
        }
      ],
      "name": "deleteMonster",
      "outputs": [],
      "stateMutability": "nonpayable",
      "type": "function"
    },
    {
      "inputs": [
        {
          "internalType": "uint256",
          "name": "_mumId",
          "type": "uint256"
        },
        {
          "internalType": "uint256",
          "name": "_dadId",
          "type": "uint256"
        }
      ],
      "name": "breed",
      "outputs": [],
      "stateMutability": "nonpayable",
      "type": "function"
    },
    {
      "inputs": [],
      "name": "pickCompetitionRandomly",
      "outputs": [
        {
          "components": [
            {
              "internalType": "uint256",
              "name": "tokenId",
              "type": "uint256"
            },
            {
              "internalType": "uint8",
              "name": "level",
              "type": "uint8"
            },
            {
              "internalType": "enum MonsterLib.Race",
              "name": "race",
              "type": "uint8"
            },
            {
              "components": [
                {
                  "internalType": "uint8",
                  "name": "HP",
                  "type": "uint8"
                },
                {
                  "internalType": "uint8",
                  "name": "strength",
                  "type": "uint8"
                },
                {
                  "internalType": "uint8",
                  "name": "defensive",
                  "type": "uint8"
                },
                {
                  "internalType": "uint8",
                  "name": "speed",
                  "type": "uint8"
                }
              ],
              "internalType": "struct MonsterLib.Statistics",
              "name": "statc",
              "type": "tuple"
            }
          ],
          "internalType": "struct MonsterToken.Competitor[]",
          "name": "",
          "type": "tuple[]"
        }
      ],
      "stateMutability": "view",
      "type": "function",
      "constant": true
    },
    {
      "inputs": [
        {
          "internalType": "uint256",
          "name": "_player1Id",
          "type": "uint256"
        },
        {
          "internalType": "uint256",
          "name": "_player2Id",
          "type": "uint256"
        }
      ],
      "name": "battleWithPlayer",
      "outputs": [],
      "stateMutability": "nonpayable",
      "type": "function"
    },
    {
      "inputs": [
        {
          "internalType": "uint256",
          "name": "_playerId",
          "type": "uint256"
        },
        {
          "internalType": "uint256",
          "name": "_defaultId",
          "type": "uint256"
        }
      ],
      "name": "battleWithDefault",
      "outputs": [],
      "stateMutability": "nonpayable",
      "type": "function"
    }
  ],
  "bytecode": "0x60806040526040518060800160405280600560ff168152602001600560ff168152602001600560ff168152602001600560ff16815250600f60008201518160000160006101000a81548160ff021916908360ff16021790555060208201518160000160016101000a81548160ff021916908360ff16021790555060408201518160000160026101000a81548160ff021916908360ff16021790555060608201518160000160036101000a81548160ff021916908360ff1602179055505050348015620000ca57600080fd5b50604051620048cc380380620048cc8339818101604052810190620000f091906200021c565b6001600d819055506000600c60006101000a81548160ff0219169083151502179055506200012582826200012d60201b60201c565b505062000263565b816000806101000a81548173ffffffffffffffffffffffffffffffffffffffff021916908373ffffffffffffffffffffffffffffffffffffffff16021790555080600160006101000a81548173ffffffffffffffffffffffffffffffffffffffff021916908373ffffffffffffffffffffffffffffffffffffffff1602179055505050565b600080fd5b600073ffffffffffffffffffffffffffffffffffffffff82169050919050565b6000620001e482620001b7565b9050919050565b620001f681620001d7565b81146200020257600080fd5b50565b6000815190506200021681620001eb565b92915050565b60008060408385031215620002365762000235620001b2565b5b6000620002468582860162000205565b9250506020620002598582860162000205565b9150509250929050565b61465980620002736000396000f3fe6080604052600436106100f75760003560e01c806379a85e6c1161008a578063ccd1a9e911610059578063ccd1a9e9146103e9578063d9ecad7b14610414578063dff0bdaf1461043d578063fe3296f8146104665761018d565b806379a85e6c1461032c5780637a5800c51461036c578063c3cfcdc814610397578063caece7bb146103c05761018d565b8063292fe8f6116100c6578063292fe8f614610260578063422666a7146102895780636410381c146102c657806370a08231146102ef5761018d565b806318160ddd146101925780631dddf164146101bd57806323b872dd146101fa57806323e3fbd5146102235761018d565b3661018d5734600460003373ffffffffffffffffffffffffffffffffffffffff1673ffffffffffffffffffffffffffffffffffffffff168152602001908152602001600020600082825461014b91906134e7565b925050819055507fefc0288202e432ade6bf71491d0001d7e389ad4f8e4e9c7aa038dd1a563efc60333460405161018392919061358d565b60405180910390a1005b600080fd5b34801561019e57600080fd5b506101a761048f565b6040516101b491906135b6565b60405180910390f35b3480156101c957600080fd5b506101e460048036038101906101df919061360c565b61049c565b6040516101f191906136aa565b60405180910390f35b34801561020657600080fd5b50610221600480360381019061021c91906136f1565b6105d7565b005b34801561022f57600080fd5b5061024a60048036038101906102459190613744565b610675565b60405161025791906135b6565b60405180910390f35b34801561026c57600080fd5b5061028760048036038101906102829190613771565b610766565b005b34801561029557600080fd5b506102b060048036038101906102ab919061360c565b61083a565b6040516102bd91906139b6565b60405180910390f35b3480156102d257600080fd5b506102ed60048036038101906102e891906136f1565b610abd565b005b3480156102fb57600080fd5b5061031660048036038101906103119190613744565b610c54565b60405161032391906135b6565b60405180910390f35b34801561033857600080fd5b50610353600480360381019061034e919061360c565b610d0d565b60405161036394939291906139f0565b60405180910390f35b34801561037857600080fd5b50610381610fc0565b60405161038e9190613b9f565b60405180910390f35b3480156103a357600080fd5b506103be60048036038101906103b99190613771565b6110ce565b005b3480156103cc57600080fd5b506103e760048036038101906103e29190613bed565b6111ba565b005b3480156103f557600080fd5b506103fe611287565b60405161040b9190613d31565b60405180910390f35b34801561042057600080fd5b5061043b60048036038101906104369190613771565b6114fd565b005b34801561044957600080fd5b50610464600480360381019061045f9190613d78565b6116db565b005b34801561047257600080fd5b5061048d6004803603810190610488919061360c565b61176c565b005b6000600780549050905090565b6104a4613331565b81600073ffffffffffffffffffffffffffffffffffffffff166002600083815260200190815260200160002060009054906101000a900473ffffffffffffffffffffffffffffffffffffffff1673ffffffffffffffffffffffffffffffffffffffff16141561051257600080fd5b6000600860008581526020019081526020016000205490506007818154811061053e5761053d613da5565b5b90600052602060002090600602016003016040518060800160405290816000820160009054906101000a900460ff1660ff1660ff1681526020016000820160019054906101000a900460ff1660ff1660ff1681526020016000820160029054906101000a900460ff1660ff1660ff1681526020016000820160039054906101000a900460ff1660ff1660ff168152505092505050919050565b8273ffffffffffffffffffffffffffffffffffffffff166105f782611807565b73ffffffffffffffffffffffffffffffffffffffff161461061757600080fd5b6106208161083a565b6101000151801561065c57508173ffffffffffffffffffffffffffffffffffffffff163273ffffffffffffffffffffffffffffffffffffffff16145b61066557600080fd5b6106708383836118b3565b505050565b60003273ffffffffffffffffffffffffffffffffffffffff168273ffffffffffffffffffffffffffffffffffffffff16146106af57600080fd5b600073ffffffffffffffffffffffffffffffffffffffff168273ffffffffffffffffffffffffffffffffffffffff16141561071f576040517f08c379a000000000000000000000000000000000000000000000000000000000815260040161071690613e57565b60405180910390fd5b600460008373ffffffffffffffffffffffffffffffffffffffff1673ffffffffffffffffffffffffffffffffffffffff168152602001908152602001600020549050919050565b60006107718361083a565b90506000600160009054906101000a900473ffffffffffffffffffffffffffffffffffffffff1673ffffffffffffffffffffffffffffffffffffffff1663ba93a73e8360600151856040518363ffffffff1660e01b81526004016107d6929190613e77565b602060405180830381600087803b1580156107f057600080fd5b505af1158015610804573d6000803e3d6000fd5b505050506040513d601f19601f820116820180604052508101906108289190613ecc565b90506108348482611ae4565b50505050565b610842613365565b81600073ffffffffffffffffffffffffffffffffffffffff166002600083815260200190815260200160002060009054906101000a900473ffffffffffffffffffffffffffffffffffffffff1673ffffffffffffffffffffffffffffffffffffffff1614156108b057600080fd5b600060086000858152602001908152602001600020549050600781815481106108dc576108db613da5565b5b906000526020600020906006020160405180610120016040529081600082015481526020016001820154815260200160028201548152602001600382016040518060800160405290816000820160009054906101000a900460ff1660ff1660ff1681526020016000820160019054906101000a900460ff1660ff1660ff1681526020016000820160029054906101000a900460ff1660ff1660ff1681526020016000820160039054906101000a900460ff1660ff1660ff16815250508152602001600482016040518060800160405290816000820160009054906101000a900460ff1660ff1660ff1681526020016000820160019054906101000a900460ff1660ff1660ff1681526020016000820160029054906101000a900460ff1660ff1660ff1681526020016000820160039054906101000a900460ff1660ff1660ff168152505081526020016005820160009054906101000a900460ff1660ff1660ff1681526020016005820160019054906101000a900460ff1660ff1660ff1681526020016005820160029054906101000a900460ff166002811115610a8357610a8261386a565b5b6002811115610a9557610a9461386a565b5b81526020016005820160039054906101000a900460ff16151515158152505092505050919050565b8273ffffffffffffffffffffffffffffffffffffffff163273ffffffffffffffffffffffffffffffffffffffff1614610af557600080fd5b600073ffffffffffffffffffffffffffffffffffffffff168273ffffffffffffffffffffffffffffffffffffffff1614158015610b5f5750600073ffffffffffffffffffffffffffffffffffffffff168373ffffffffffffffffffffffffffffffffffffffff1614155b610b6857600080fd5b80600460008573ffffffffffffffffffffffffffffffffffffffff1673ffffffffffffffffffffffffffffffffffffffff1681526020019081526020016000206000828254610bb79190613ef9565b9250508190555080600460008473ffffffffffffffffffffffffffffffffffffffff1673ffffffffffffffffffffffffffffffffffffffff1681526020019081526020016000206000828254610c0d91906134e7565b925050819055507fb900e832b6eff259cf1fd6d12898306d28460d412e04f398c1a74a2af6013013838383604051610c4793929190613f2d565b60405180910390a1505050565b6000818073ffffffffffffffffffffffffffffffffffffffff163373ffffffffffffffffffffffffffffffffffffffff161480610cbc57503073ffffffffffffffffffffffffffffffffffffffff163373ffffffffffffffffffffffffffffffffffffffff16145b610cc557600080fd5b600360008473ffffffffffffffffffffffffffffffffffffffff1673ffffffffffffffffffffffffffffffffffffffff16815260200190815260200160002054915050919050565b600080610d18613331565b600084600073ffffffffffffffffffffffffffffffffffffffff166002600083815260200190815260200160002060009054906101000a900473ffffffffffffffffffffffffffffffffffffffff1673ffffffffffffffffffffffffffffffffffffffff161415610d8857600080fd5b600060086000888152602001908152602001600020549050600060078281548110610db657610db5613da5565b5b906000526020600020906006020160405180610120016040529081600082015481526020016001820154815260200160028201548152602001600382016040518060800160405290816000820160009054906101000a900460ff1660ff1660ff1681526020016000820160019054906101000a900460ff1660ff1660ff1681526020016000820160029054906101000a900460ff1660ff1660ff1681526020016000820160039054906101000a900460ff1660ff1660ff16815250508152602001600482016040518060800160405290816000820160009054906101000a900460ff1660ff1660ff1681526020016000820160019054906101000a900460ff1660ff1660ff1681526020016000820160029054906101000a900460ff1660ff1660ff1681526020016000820160039054906101000a900460ff1660ff1660ff168152505081526020016005820160009054906101000a900460ff1660ff1660ff1681526020016005820160019054906101000a900460ff1660ff1660ff1681526020016005820160029054906101000a900460ff166002811115610f5d57610f5c61386a565b5b6002811115610f6f57610f6e61386a565b5b81526020016005820160039054906101000a900460ff16151515158152505090506000610f9b89611807565b9050808260a0015183606001518460e001519750975097509750505050509193509193565b60606000610fcd33610c54565b9050600081146110725760005b8181101561106c5761103b600960003373ffffffffffffffffffffffffffffffffffffffff1673ffffffffffffffffffffffffffffffffffffffff16815260200190815260200160002060008381526020019081526020016000205461083a565b83828151811061104e5761104d613da5565b5b6020026020010181905250808061106490613f64565b915050610fda565b506110ca565b600067ffffffffffffffff81111561108d5761108c613fad565b5b6040519080825280602002602001820160405280156110c657816020015b6110b3613365565b8152602001906001900390816110ab5790505b5091505b5090565b60006110d98361083a565b905060006110e68361083a565b90506000600160009054906101000a900473ffffffffffffffffffffffffffffffffffffffff1673ffffffffffffffffffffffffffffffffffffffff1663aa477cce846060015184606001518560a001516040518463ffffffff1660e01b815260040161115593929190613fdc565b602060405180830381600087803b15801561116f57600080fd5b505af1158015611183573d6000803e3d6000fd5b505050506040513d601f19601f820116820180604052508101906111a79190613ecc565b90506111b38582611ae4565b5050505050565b6111c382611807565b73ffffffffffffffffffffffffffffffffffffffff163273ffffffffffffffffffffffffffffffffffffffff16146111fa57600080fd5b80600760086000858152602001908152602001600020548154811061122257611221613da5565b5b906000526020600020906006020160050160036101000a81548160ff0219169083151502179055507f6a0921deabd763b8789c5acb4605c886a6f98ea35c16c99d0954bea1b8ff83b6828260405161127b929190614024565b60405180910390a15050565b6060600061129361048f565b9050606061129f613365565b60056112aa33610c54565b846112b59190613ef9565b1161139d576000805b84811015611396576112cf85611e0f565b92503373ffffffffffffffffffffffffffffffffffffffff166112f58460000151611807565b73ffffffffffffffffffffffffffffffffffffffff1614611383576040518060800160405280846000015181526020018460a0015160ff1681526020018460e0015160028111156113495761134861386a565b5b8152602001846060015181525084838151811061136957611368613da5565b5b6020026020010181905250818061137f90613f64565b9250505b808061138e90613f64565b9150506112be565b50506114f4565b6060600080600090506000805b8785511080156113bb575060058751105b80156113c75750600a81105b156114ee5780806113d790613f64565b915050876113e3612029565b6113ed919061407c565b93506113f884611e0f565b9550611404858561205f565b6114e9573373ffffffffffffffffffffffffffffffffffffffff1661142c8760000151611807565b73ffffffffffffffffffffffffffffffffffffffff16146114ba576040518060800160405280876000015181526020018760a0015160ff1681526020018760e0015160028111156114805761147f61386a565b5b815260200187606001518152508784815181106114a05761149f613da5565b5b602002602001018190525082806114b690613f64565b9350505b838583815181106114ce576114cd613da5565b5b60200260200101818152505081806114e590613f64565b9250505b6113aa565b50505050505b81935050505090565b3373ffffffffffffffffffffffffffffffffffffffff1661151d83611807565b73ffffffffffffffffffffffffffffffffffffffff1614801561157357503373ffffffffffffffffffffffffffffffffffffffff1661155b82611807565b73ffffffffffffffffffffffffffffffffffffffff16145b61157c57600080fd5b60006115878361083a565b905060006115948361083a565b90508060e0015160028111156115ad576115ac61386a565b5b8260e0015160028111156115c4576115c361386a565b5b1461160b577f017ebcd27574b425741e17054a1bd8e0ca718ed3d2207fe407b191b6dc9e6da78260e001518260e001516040516116029291906140ad565b60405180910390a15b60008060009054906101000a900473ffffffffffffffffffffffffffffffffffffffff1673ffffffffffffffffffffffffffffffffffffffff1663c9a267f9846080015184608001516040518363ffffffff1660e01b815260040161167192919061412b565b60806040518083038186803b15801561168957600080fd5b505afa15801561169d573d6000803e3d6000fd5b505050506040513d601f19601f820116820180604052508101906116c1919061422f565b90506116d4338686848660e001516120bb565b5050505050565b61176933600080600f6040518060800160405290816000820160009054906101000a900460ff1660ff1660ff1681526020016000820160019054906101000a900460ff1660ff1660ff1681526020016000820160029054906101000a900460ff1660ff1660ff1681526020016000820160039054906101000a900460ff1660ff1660ff1681525050856120bb565b50565b61177581611807565b73ffffffffffffffffffffffffffffffffffffffff163373ffffffffffffffffffffffffffffffffffffffff16146117ac57600080fd5b6117b58161083a565b6101000151156117fb577fdde7d0a3c1908e17d48670081de6d0f395f52f792dcd6f38337bce4917aaa61e816040516117ee91906135b6565b60405180910390a1600080fd5b61180481612442565b50565b600081600073ffffffffffffffffffffffffffffffffffffffff166002600083815260200190815260200160002060009054906101000a900473ffffffffffffffffffffffffffffffffffffffff1673ffffffffffffffffffffffffffffffffffffffff16141561187757600080fd5b6002600084815260200190815260200160002060009054906101000a900473ffffffffffffffffffffffffffffffffffffffff16915050919050565b8273ffffffffffffffffffffffffffffffffffffffff166118d382611807565b73ffffffffffffffffffffffffffffffffffffffff1614611929576040517f08c379a0000000000000000000000000000000000000000000000000000000008152600401611920906142ce565b60405180910390fd5b600073ffffffffffffffffffffffffffffffffffffffff168273ffffffffffffffffffffffffffffffffffffffff161415611999576040517f08c379a000000000000000000000000000000000000000000000000000000000815260040161199090614360565b60405180910390fd5b6119a4838383612528565b6001600360008573ffffffffffffffffffffffffffffffffffffffff1673ffffffffffffffffffffffffffffffffffffffff16815260200190815260200160002060008282546119f49190613ef9565b925050819055506001600360008473ffffffffffffffffffffffffffffffffffffffff1673ffffffffffffffffffffffffffffffffffffffff1681526020019081526020016000206000828254611a4b91906134e7565b92505081905550816002600083815260200190815260200160002060006101000a81548173ffffffffffffffffffffffffffffffffffffffff021916908373ffffffffffffffffffffffffffffffffffffffff1602179055507fddf252ad1be2c89b69c2b068fc378daa952ba7f163c4a11628f55a4df523b3ef838383604051611ad793929190613f2d565b60405180910390a1505050565b81600073ffffffffffffffffffffffffffffffffffffffff166002600083815260200190815260200160002060009054906101000a900473ffffffffffffffffffffffffffffffffffffffff1673ffffffffffffffffffffffffffffffffffffffff161415611b5257600080fd5b600060086000858152602001908152602001600020549050600060078281548110611b8057611b7f613da5565b5b906000526020600020906006020190508360ff168160050160019054906101000a900460ff1660ff161115611bec57838160050160018282829054906101000a900460ff16611bcf9190614380565b92506101000a81548160ff021916908360ff160217905550611e08565b600a8160050160009054906101000a900460ff1660ff161015611e075760018160050160008282829054906101000a900460ff16611c2a91906143b4565b92506101000a81548160ff021916908360ff1602179055508060050160019054906101000a900460ff1684611c5f9190614380565b600a8260050160009054906101000a900460ff16611c7d91906143eb565b611c879190614380565b8160050160016101000a81548160ff021916908360ff1602179055506000816003016040518060800160405290816000820160009054906101000a900460ff1660ff1660ff1681526020016000820160019054906101000a900460ff1660ff1660ff1681526020016000820160029054906101000a900460ff1660ff1660ff1681526020016000820160039054906101000a900460ff1660ff1660ff168152505090506000611dc9836004016040518060800160405290816000820160009054906101000a900460ff1660ff1660ff1681526020016000820160019054906101000a900460ff1660ff1660ff1681526020016000820160029054906101000a900460ff1660ff1660ff1681526020016000820160039054906101000a900460ff1660ff1660ff16815250508460050160009054906101000a900460ff16612628565b90507ffb64211ffdbe0310d0426d37afda9651f66158bb717bdf0edcb572595ac27f418282604051611dfc929190614426565b60405180910390a150505b5b5050505050565b611e17613365565b6001611e2161048f565b611e2b9190613ef9565b8210611e3657600080fd5b60078281548110611e4a57611e49613da5565b5b906000526020600020906006020160405180610120016040529081600082015481526020016001820154815260200160028201548152602001600382016040518060800160405290816000820160009054906101000a900460ff1660ff1660ff1681526020016000820160019054906101000a900460ff1660ff1660ff1681526020016000820160029054906101000a900460ff1660ff1660ff1681526020016000820160039054906101000a900460ff1660ff1660ff16815250508152602001600482016040518060800160405290816000820160009054906101000a900460ff1660ff1660ff1681526020016000820160019054906101000a900460ff1660ff1660ff1681526020016000820160029054906101000a900460ff1660ff1660ff1681526020016000820160039054906101000a900460ff1660ff1660ff168152505081526020016005820160009054906101000a900460ff1660ff1660ff1681526020016005820160019054906101000a900460ff1660ff1660ff1681526020016005820160029054906101000a900460ff166002811115611ff157611ff061386a565b5b60028111156120035761200261386a565b5b81526020016005820160039054906101000a900460ff1615151515815250509050919050565b600044426000604051602001612041939291906144b9565b6040516020818303038152906040528051906020012060001c905090565b600080600090505b83518110156120af578284828151811061208457612083613da5565b5b6020026020010151141561209c5760019150506120b5565b80806120a790613f64565b915050612067565b50600090505b92915050565b60006120c686610675565b9050600e5481346120d791906134e7565b10156120e257600080fd5b5b600c60009054906101000a900460ff16156120fd576120e3565b6001600c60006101000a81548160ff0219169083151502179055506000600161212461048f565b61212e9190613ef9565b90506000600d5490506000612144866001612628565b905060006040518061012001604052808481526020018a8152602001898152602001838152602001888152602001600160ff168152602001600a60ff1681526020018760028111156121995761219861386a565b5b81526020016000151581525090506121b0816126d5565b6121b957600080fd5b600781908060018154018082558091505060019003906000526020600020906006020160009091909190915060008201518160000155602082015181600101556040820151816002015560608201518160030160008201518160000160006101000a81548160ff021916908360ff16021790555060208201518160000160016101000a81548160ff021916908360ff16021790555060408201518160000160026101000a81548160ff021916908360ff16021790555060608201518160000160036101000a81548160ff021916908360ff160217905550505060808201518160040160008201518160000160006101000a81548160ff021916908360ff16021790555060208201518160000160016101000a81548160ff021916908360ff16021790555060408201518160000160026101000a81548160ff021916908360ff16021790555060608201518160000160036101000a81548160ff021916908360ff160217905550505060a08201518160050160006101000a81548160ff021916908360ff16021790555060c08201518160050160016101000a81548160ff021916908360ff16021790555060e08201518160050160026101000a81548160ff0219169083600281111561238e5761238d61386a565b5b02179055506101008201518160050160036101000a81548160ff0219169083151502179055505050600d60008154809291906123c990613f64565b91905055506000600c60006101000a81548160ff02191690831515021790555083600860008581526020019081526020016000208190555061240b8a846127d4565b600061241a8260e001516129a8565b905060008151141561242b57600080fd5b6124358482612aef565b5050505050505050505050565b600061244d82611807565b905061245b81600084612528565b6001600360008373ffffffffffffffffffffffffffffffffffffffff1673ffffffffffffffffffffffffffffffffffffffff16815260200190815260200160002060008282546124ab9190613ef9565b925050819055506002600083815260200190815260200160002060006101000a81549073ffffffffffffffffffffffffffffffffffffffff02191690557fddf252ad1be2c89b69c2b068fc378daa952ba7f163c4a11628f55a4df523b3ef8160008460405161251c93929190613f2d565b60405180910390a15050565b600073ffffffffffffffffffffffffffffffffffffffff168373ffffffffffffffffffffffffffffffffffffffff161415612562576125a1565b8173ffffffffffffffffffffffffffffffffffffffff168373ffffffffffffffffffffffffffffffffffffffff16146125a05761259f8382612b8a565b5b5b600073ffffffffffffffffffffffffffffffffffffffff168273ffffffffffffffffffffffffffffffffffffffff1614156125e4576125df81612cf7565b612623565b8273ffffffffffffffffffffffffffffffffffffffff168273ffffffffffffffffffffffffffffffffffffffff1614612622576126218282613284565b5b5b505050565b612630613331565b612638613331565b826005612649866000015186613303565b61265391906143b4565b61265d91906143b4565b816000019060ff16908160ff168152505061267c846060015184613303565b816060019060ff16908160ff168152505061269b846040015184613303565b816040019060ff16908160ff16815250506126ba846020015184613303565b816020019060ff16908160ff16815250508091505092915050565b60008082600001511180156126f55750600082606001516000015160ff16115b801561270c5750600082606001516020015160ff16115b80156127235750600082606001516040015160ff16115b801561273a5750600082606001516060015160ff16115b80156127525750601f82608001516000015160ff1611155b801561276a5750601f82608001516020015160ff1611155b80156127825750601f82608001516040015160ff1611155b801561279a5750601f82608001516060015160ff1611155b80156127ae5750601f8260a0015160ff1611155b80156127c2575060008260c0015160ff1614155b6127cb57600080fd5b60019050919050565b80600073ffffffffffffffffffffffffffffffffffffffff166002600083815260200190815260200160002060009054906101000a900473ffffffffffffffffffffffffffffffffffffffff1673ffffffffffffffffffffffffffffffffffffffff16141561284257600080fd5b600073ffffffffffffffffffffffffffffffffffffffff168373ffffffffffffffffffffffffffffffffffffffff1614156128b2576040517f08c379a00000000000000000000000000000000000000000000000000000000081526004016128a990614542565b60405180910390fd5b6128be60008484612528565b6001600360008573ffffffffffffffffffffffffffffffffffffffff1673ffffffffffffffffffffffffffffffffffffffff168152602001908152602001600020600082825461290e91906134e7565b92505081905550826002600084815260200190815260200160002060006101000a81548173ffffffffffffffffffffffffffffffffffffffff021916908373ffffffffffffffffffffffffffffffffffffffff1602179055507fddf252ad1be2c89b69c2b068fc378daa952ba7f163c4a11628f55a4df523b3ef6000848460405161299b93929190613f2d565b60405180910390a1505050565b606080600060028111156129bf576129be61386a565b5b8360028111156129d2576129d161386a565b5b1415612a15576040518060400160405280601b81526020017f2e2e2f7075626c69632f696d616765732f647261676f6e2e706e6700000000008152509050612ae6565b600280811115612a2857612a2761386a565b5b836002811115612a3b57612a3a61386a565b5b1415612a7e576040518060400160405280601d81526020017f2e2e2f7075626c69632f696d616765732f676172676f796c652e706e670000008152509050612ae5565b60016002811115612a9257612a9161386a565b5b836002811115612aa557612aa461386a565b5b1415612ae4576040518060400160405280601a81526020017f2e2e2f7075626c69632f696d616765732f67686f73742e706e6700000000000081525090505b5b5b80915050919050565b81600073ffffffffffffffffffffffffffffffffffffffff166002600083815260200190815260200160002060009054906101000a900473ffffffffffffffffffffffffffffffffffffffff1673ffffffffffffffffffffffffffffffffffffffff161415612b5d57600080fd5b81600b60008581526020019081526020016000209080519060200190612b849291906133d7565b50505050565b60006001612b9784610c54565b612ba19190613ef9565b90506000600a6000848152602001908152602001600020549050818114612c86576000600960008673ffffffffffffffffffffffffffffffffffffffff1673ffffffffffffffffffffffffffffffffffffffff168152602001908152602001600020600084815260200190815260200160002054905080600960008773ffffffffffffffffffffffffffffffffffffffff1673ffffffffffffffffffffffffffffffffffffffff16815260200190815260200160002060008481526020019081526020016000208190555081600a600083815260200190815260200160002081905550505b600a600084815260200190815260200160002060009055600960008573ffffffffffffffffffffffffffffffffffffffff1673ffffffffffffffffffffffffffffffffffffffff16815260200190815260200160002060008381526020019081526020016000206000905550505050565b60006001600780549050612d0b9190613ef9565b9050600060086000848152602001908152602001600020549050600060078381548110612d3b57612d3a613da5565b5b906000526020600020906006020160405180610120016040529081600082015481526020016001820154815260200160028201548152602001600382016040518060800160405290816000820160009054906101000a900460ff1660ff1660ff1681526020016000820160019054906101000a900460ff1660ff1660ff1681526020016000820160029054906101000a900460ff1660ff1660ff1681526020016000820160039054906101000a900460ff1660ff1660ff16815250508152602001600482016040518060800160405290816000820160009054906101000a900460ff1660ff1660ff1681526020016000820160019054906101000a900460ff1660ff1660ff1681526020016000820160029054906101000a900460ff1660ff1660ff1681526020016000820160039054906101000a900460ff1660ff1660ff168152505081526020016005820160009054906101000a900460ff1660ff1660ff1681526020016005820160019054906101000a900460ff1660ff1660ff1681526020016005820160029054906101000a900460ff166002811115612ee257612ee161386a565b5b6002811115612ef457612ef361386a565b5b81526020016005820160039054906101000a900460ff16151515158152505090508060078381548110612f2a57612f29613da5565b5b906000526020600020906006020160008201518160000155602082015181600101556040820151816002015560608201518160030160008201518160000160006101000a81548160ff021916908360ff16021790555060208201518160000160016101000a81548160ff021916908360ff16021790555060408201518160000160026101000a81548160ff021916908360ff16021790555060608201518160000160036101000a81548160ff021916908360ff160217905550505060808201518160040160008201518160000160006101000a81548160ff021916908360ff16021790555060208201518160000160016101000a81548160ff021916908360ff16021790555060408201518160000160026101000a81548160ff021916908360ff16021790555060608201518160000160036101000a81548160ff021916908360ff160217905550505060a08201518160050160006101000a81548160ff021916908360ff16021790555060c08201518160050160016101000a81548160ff021916908360ff16021790555060e08201518160050160026101000a81548160ff021916908360028111156130e1576130e061386a565b5b02179055506101008201518160050160036101000a81548160ff021916908315150217905550905050816008600083600001518152602001908152602001600020819055506008600085815260200190815260200160002060009055600780548061314f5761314e614562565b5b60019003818190600052602060002090600602016000808201600090556001820160009055600282016000905560038201600080820160006101000a81549060ff02191690556000820160016101000a81549060ff02191690556000820160026101000a81549060ff02191690556000820160036101000a81549060ff0219169055505060048201600080820160006101000a81549060ff02191690556000820160016101000a81549060ff02191690556000820160026101000a81549060ff02191690556000820160036101000a81549060ff021916905550506005820160006101000a81549060ff02191690556005820160016101000a81549060ff02191690556005820160026101000a81549060ff02191690556005820160036101000a81549060ff02191690555050905550505050565b600061328f83610c54565b905081600960008573ffffffffffffffffffffffffffffffffffffffff1673ffffffffffffffffffffffffffffffffffffffff16815260200190815260200160002060008381526020019081526020016000208190555080600a600084815260200190815260200160002081905550505050565b60006005600a838561331591906143eb565b61331f9190614591565b61332991906143b4565b905092915050565b6040518060800160405280600060ff168152602001600060ff168152602001600060ff168152602001600060ff1681525090565b60405180610120016040528060008152602001600081526020016000815260200161338e613331565b815260200161339b61345d565b8152602001600060ff168152602001600060ff168152602001600060028111156133c8576133c761386a565b5b81526020016000151581525090565b8280546133e3906145f1565b90600052602060002090601f016020900481019282613405576000855561344c565b82601f1061341e57805160ff191683800117855561344c565b8280016001018555821561344c579182015b8281111561344b578251825591602001919060010190613430565b5b5090506134599190613491565b5090565b6040518060800160405280600060ff168152602001600060ff168152602001600060ff168152602001600060ff1681525090565b5b808211156134aa576000816000905550600101613492565b5090565b6000819050919050565b7f4e487b7100000000000000000000000000000000000000000000000000000000600052601160045260246000fd5b60006134f2826134ae565b91506134fd836134ae565b9250827fffffffffffffffffffffffffffffffffffffffffffffffffffffffffffffffff03821115613532576135316134b8565b5b828201905092915050565b600073ffffffffffffffffffffffffffffffffffffffff82169050919050565b60006135688261353d565b9050919050565b6135788161355d565b82525050565b613587816134ae565b82525050565b60006040820190506135a2600083018561356f565b6135af602083018461357e565b9392505050565b60006020820190506135cb600083018461357e565b92915050565b6000604051905090565b600080fd5b6135e9816134ae565b81146135f457600080fd5b50565b600081359050613606816135e0565b92915050565b600060208284031215613622576136216135db565b5b6000613630848285016135f7565b91505092915050565b600060ff82169050919050565b61364f81613639565b82525050565b60808201600082015161366b6000850182613646565b50602082015161367e6020850182613646565b5060408201516136916040850182613646565b5060608201516136a46060850182613646565b50505050565b60006080820190506136bf6000830184613655565b92915050565b6136ce8161355d565b81146136d957600080fd5b50565b6000813590506136eb816136c5565b92915050565b60008060006060848603121561370a576137096135db565b5b6000613718868287016136dc565b9350506020613729868287016136dc565b925050604061373a868287016135f7565b9150509250925092565b60006020828403121561375a576137596135db565b5b6000613768848285016136dc565b91505092915050565b60008060408385031215613788576137876135db565b5b6000613796858286016135f7565b92505060206137a7858286016135f7565b9150509250929050565b6137ba816134ae565b82525050565b6080820160008201516137d66000850182613646565b5060208201516137e96020850182613646565b5060408201516137fc6040850182613646565b50606082015161380f6060850182613646565b50505050565b60808201600082015161382b6000850182613646565b50602082015161383e6020850182613646565b5060408201516138516040850182613646565b5060608201516138646060850182613646565b50505050565b7f4e487b7100000000000000000000000000000000000000000000000000000000600052602160045260246000fd5b600381106138aa576138a961386a565b5b50565b60008190506138bb82613899565b919050565b60006138cb826138ad565b9050919050565b6138db816138c0565b82525050565b60008115159050919050565b6138f6816138e1565b82525050565b6101e08201600082015161391360008501826137b1565b50602082015161392660208501826137b1565b50604082015161393960408501826137b1565b50606082015161394c60608501826137c0565b50608082015161395f60e0850182613815565b5060a0820151613973610160850182613646565b5060c0820151613987610180850182613646565b5060e082015161399b6101a08501826138d2565b506101008201516139b06101c08501826138ed565b50505050565b60006101e0820190506139cc60008301846138fc565b92915050565b6139db81613639565b82525050565b6139ea816138c0565b82525050565b600060e082019050613a05600083018761356f565b613a1260208301866139d2565b613a1f6040830185613655565b613a2c60c08301846139e1565b95945050505050565b600081519050919050565b600082825260208201905092915050565b6000819050602082019050919050565b6101e082016000820151613a7860008501826137b1565b506020820151613a8b60208501826137b1565b506040820151613a9e60408501826137b1565b506060820151613ab160608501826137c0565b506080820151613ac460e0850182613815565b5060a0820151613ad8610160850182613646565b5060c0820151613aec610180850182613646565b5060e0820151613b006101a08501826138d2565b50610100820151613b156101c08501826138ed565b50505050565b6000613b278383613a61565b6101e08301905092915050565b6000602082019050919050565b6000613b4c82613a35565b613b568185613a40565b9350613b6183613a51565b8060005b83811015613b92578151613b798882613b1b565b9750613b8483613b34565b925050600181019050613b65565b5085935050505092915050565b60006020820190508181036000830152613bb98184613b41565b905092915050565b613bca816138e1565b8114613bd557600080fd5b50565b600081359050613be781613bc1565b92915050565b60008060408385031215613c0457613c036135db565b5b6000613c12858286016135f7565b9250506020613c2385828601613bd8565b9150509250929050565b600081519050919050565b600082825260208201905092915050565b6000819050602082019050919050565b60e082016000820151613c6f60008501826137b1565b506020820151613c826020850182613646565b506040820151613c9560408501826138d2565b506060820151613ca860608501826137c0565b50505050565b6000613cba8383613c59565b60e08301905092915050565b6000602082019050919050565b6000613cde82613c2d565b613ce88185613c38565b9350613cf383613c49565b8060005b83811015613d24578151613d0b8882613cae565b9750613d1683613cc6565b925050600181019050613cf7565b5085935050505092915050565b60006020820190508181036000830152613d4b8184613cd3565b905092915050565b60038110613d6057600080fd5b50565b600081359050613d7281613d53565b92915050565b600060208284031215613d8e57613d8d6135db565b5b6000613d9c84828501613d63565b91505092915050565b7f4e487b7100000000000000000000000000000000000000000000000000000000600052603260045260246000fd5b600082825260208201905092915050565b7f6465706f73697420717565727920666f7220746865207a65726f20616464726560008201527f7373000000000000000000000000000000000000000000000000000000000000602082015250565b6000613e41602283613dd4565b9150613e4c82613de5565b604082019050919050565b60006020820190508181036000830152613e7081613e34565b9050919050565b600060a082019050613e8c6000830185613655565b613e99608083018461357e565b9392505050565b613ea981613639565b8114613eb457600080fd5b50565b600081519050613ec681613ea0565b92915050565b600060208284031215613ee257613ee16135db565b5b6000613ef084828501613eb7565b91505092915050565b6000613f04826134ae565b9150613f0f836134ae565b925082821015613f2257613f216134b8565b5b828203905092915050565b6000606082019050613f42600083018661356f565b613f4f602083018561356f565b613f5c604083018461357e565b949350505050565b6000613f6f826134ae565b91507fffffffffffffffffffffffffffffffffffffffffffffffffffffffffffffffff821415613fa257613fa16134b8565b5b600182019050919050565b7f4e487b7100000000000000000000000000000000000000000000000000000000600052604160045260246000fd5b600061012082019050613ff26000830186613655565b613fff6080830185613655565b61400d6101008301846139d2565b949350505050565b61401e816138e1565b82525050565b6000604082019050614039600083018561357e565b6140466020830184614015565b9392505050565b7f4e487b7100000000000000000000000000000000000000000000000000000000600052601260045260246000fd5b6000614087826134ae565b9150614092836134ae565b9250826140a2576140a161404d565b5b828206905092915050565b60006040820190506140c260008301856139e1565b6140cf60208301846139e1565b9392505050565b6080820160008201516140ec6000850182613646565b5060208201516140ff6020850182613646565b5060408201516141126040850182613646565b5060608201516141256060850182613646565b50505050565b60006101008201905061414160008301856140d6565b61414e60808301846140d6565b9392505050565b600080fd5b6000601f19601f8301169050919050565b6141748261415a565b810181811067ffffffffffffffff8211171561419357614192613fad565b5b80604052505050565b60006141a66135d1565b90506141b2828261416b565b919050565b6000608082840312156141cd576141cc614155565b5b6141d7608061419c565b905060006141e784828501613eb7565b60008301525060206141fb84828501613eb7565b602083015250604061420f84828501613eb7565b604083015250606061422384828501613eb7565b60608301525092915050565b600060808284031215614245576142446135db565b5b6000614253848285016141b7565b91505092915050565b7f4552433732313a207472616e736665722066726f6d20696e636f72726563742060008201527f6f776e6572000000000000000000000000000000000000000000000000000000602082015250565b60006142b8602583613dd4565b91506142c38261425c565b604082019050919050565b600060208201905081810360008301526142e7816142ab565b9050919050565b7f4552433732313a207472616e7366657220746f20746865207a65726f2061646460008201527f7265737300000000000000000000000000000000000000000000000000000000602082015250565b600061434a602483613dd4565b9150614355826142ee565b604082019050919050565b600060208201905081810360008301526143798161433d565b9050919050565b600061438b82613639565b915061439683613639565b9250828210156143a9576143a86134b8565b5b828203905092915050565b60006143bf82613639565b91506143ca83613639565b92508260ff038211156143e0576143df6134b8565b5b828201905092915050565b60006143f682613639565b915061440183613639565b92508160ff048311821515161561441b5761441a6134b8565b5b828202905092915050565b60006101008201905061443c6000830185613655565b6144496080830184613655565b9392505050565b6000819050919050565b61446b614466826134ae565b614450565b82525050565b60008160601b9050919050565b600061448982614471565b9050919050565b600061449b8261447e565b9050919050565b6144b36144ae8261355d565b614490565b82525050565b60006144c5828661445a565b6020820191506144d5828561445a565b6020820191506144e582846144a2565b601482019150819050949350505050565b7f4552433732313a206d696e7420746f20746865207a65726f2061646472657373600082015250565b600061452c602083613dd4565b9150614537826144f6565b602082019050919050565b6000602082019050818103600083015261455b8161451f565b9050919050565b7f4e487b7100000000000000000000000000000000000000000000000000000000600052603160045260246000fd5b600061459c82613639565b91506145a783613639565b9250826145b7576145b661404d565b5b828204905092915050565b7f4e487b7100000000000000000000000000000000000000000000000000000000600052602260045260246000fd5b6000600282049050600182168061460957607f821691505b6020821081141561461d5761461c6145c2565b5b5091905056fea2646970667358221220bfe8c9cb5a3ed4bdee57ea3ff6b4b780f007241c4afea0da529414e3ddbb961b64736f6c63430008090033",
  "immutableReferences": {},
  "source": "pragma solidity ^0.8.9;\r\n\r\nimport \"../node_modules/@openzeppelin/contracts/token/ERC721/extensions/ERC721URIStorage.sol\";\r\nimport \"../node_modules/@openzeppelin/contracts/utils/Address.sol\";\r\nimport \"../node_modules/@openzeppelin/contracts/utils/Context.sol\";\r\nimport \"../node_modules/@openzeppelin/contracts/utils/Strings.sol\";\r\nimport \"./MonsterLib.sol\";\r\nimport \"./MonsterFactory.sol\";\r\nimport \"./MonsterBattle.sol\";\r\n\r\ncontract MonsterToken {\r\n\r\n    MonsterFactory _monsterFactory;\r\n    MonsterBattle _monsterBattle;\r\n     \r\n    using Address for address;\r\n    using Strings for uint256;\r\n\r\n    event LevelUp(MonsterLib.Statistics, MonsterLib.Statistics);\r\n    event TransferMoney(address, address, uint);\r\n    event LockMonster(uint, bool);\r\n    event MonsterInMarket(uint);\r\n    event DifferentRace(MonsterLib.Race, MonsterLib.Race);\r\n    event Transfer(address, address, uint256);\r\n\r\n    struct Competitor{\r\n        uint256 tokenId;\r\n        uint8 level;\r\n        MonsterLib.Race race;\r\n        MonsterLib.Statistics statc;\r\n    }\r\n\r\n    string constant imagePath = \"../public/images/\";\r\n\r\n    event ReceiveEth(address from, uint256 amount);\r\n\r\n    // Mapping from token ID to owner address\r\n    mapping(uint256 => address) private _owners;\r\n\r\n    // Mapping owner address to token count\r\n    mapping(address => uint256) private _balances;\r\n    \r\n    \r\n    // Mapping owner address to ETH balance\r\n    mapping(address => uint) private _deposit;\r\n\r\n    // Mapping from token ID to approved address\r\n    mapping(uint256 => address) private _tokenApprovals;\r\n\r\n    // Mapping from owner to operator approvals\r\n    mapping(address => mapping(address => bool)) private _operatorApprovals;\r\n\r\n    // Array with all token ids, used for enumeration\r\n    MonsterLib.Monster[] private _allMonsters;\r\n\r\n    // Mapping from token id to position in the allTokens array\r\n    mapping(uint256 => uint256) private _allTokensIndex;\r\n\r\n    // Mapping from owner to list of owned token IDs\r\n    mapping(address => mapping(uint256 => uint256)) private _ownedTokens;\r\n\r\n    // Mapping from token ID to index of the owner tokens list\r\n    mapping(uint256 => uint256) private _ownedTokensIndex;\r\n\r\n    // Optional mapping for token URIs\r\n    mapping(uint256 => string) private _tokenURIs;\r\n\r\n    //True when some one storing their new monsters\r\n    bool isPushing;\r\n\r\n    uint256 private IdCount;\r\n\r\n    uint256 private createFee;\r\n\r\n    MonsterLib.IndividualValue initialIV = MonsterLib.IndividualValue(5,5,5,5);\r\n\r\n    constructor(address _monsterFactoryAddress, address _monsterBattleAddress) {\r\n        IdCount = 1;\r\n        isPushing = false;\r\n        _setContract(_monsterFactoryAddress, _monsterBattleAddress);\r\n\r\n    }\r\n\r\n    function _setContract(address _monsterFactoryAddress, address _monsterBattleAddress) internal {\r\n        _monsterFactory = MonsterFactory(_monsterFactoryAddress);\r\n        _monsterBattle = MonsterBattle(_monsterBattleAddress);\r\n    }\r\n\r\n    modifier tokenExist(uint256 _tokenId){\r\n        require(_owners[_tokenId] != address(0));\r\n        _;\r\n    }\r\n\r\n    modifier onlyOwnerOrThis(address _from){\r\n        require(msg.sender == _from || msg.sender == address(this));\r\n        _;\r\n    }\r\n\r\n\r\n    function depositOf(address owner) public view returns (uint256){\r\n        require(owner == tx.origin);\r\n        require(owner != address(0), \"deposit query for the zero address\");\r\n        return _deposit[owner];\r\n    }\r\n\r\n    function totalSupply() public view returns (uint256){\r\n        return _allMonsters.length;\r\n    }\r\n    /**\r\n     *@dev Pay ETH to get a default monster from contract\r\n     */\r\n    function getInitialMonster(MonsterLib.Race race) public{\r\n        _createNewMonster(msg.sender, 0, 0,initialIV, race);\r\n\r\n    }\r\n\r\n    /**\r\n     *@dev create a new monster from contract, this monter can be default monster or come from breeding\r\n     */\r\n\r\n    function _createNewMonster(address to, uint256 mumId, uint256 dadId, MonsterLib.IndividualValue memory iv, MonsterLib.Race race) internal {\r\n        uint256 _depo = depositOf(to);\r\n        require(msg.value + _depo >= createFee);\r\n        while(isPushing){\r\n\r\n        }\r\n        isPushing = true;\r\n        uint256 _monsterIndex = totalSupply() - 1;\r\n        uint256 _monsterId = IdCount;\r\n        MonsterLib.Statistics memory statc = MonsterLib._calculateStatc(iv, 1);\r\n        MonsterLib.Monster memory monster = MonsterLib.Monster(_monsterId, mumId, dadId, statc, iv, 1, 1*10, race,false);\r\n        require(MonsterLib._checkMonsterValid(monster));\r\n        _allMonsters.push(monster);\r\n        IdCount ++;\r\n        isPushing = false;\r\n        _allTokensIndex[_monsterId] = _monsterIndex;\r\n        _mint(to, _monsterId);\r\n        string memory _monsterURI = _monsterURIByRace(monster.race);\r\n        require (bytes(_monsterURI).length != 0);\r\n        _setTokenURI(_monsterId, _monsterURI);\r\n    }\r\n\r\n    /**\r\n     * @dev Mints `tokenId` and transfers it to `to`.\r\n     *\r\n     * WARNING: Usage of this method is discouraged, use {_safeMint} whenever possible\r\n     *\r\n     * Requirements:\r\n     *\r\n     * - `tokenId` must not exist.\r\n     * - `to` cannot be the zero address.\r\n     *\r\n     * Emits a {Transfer} event.\r\n     */\r\n    function _mint(address to, uint256 tokenId) tokenExist(tokenId) internal virtual {\r\n        require(to != address(0), \"ERC721: mint to the zero address\");\r\n\r\n        _beforeTokenTransfer(address(0), to, tokenId);\r\n\r\n        _balances[to] += 1;\r\n        _owners[tokenId] = to;\r\n\r\n        emit Transfer(address(0), to, tokenId);\r\n    }\r\n\r\n    function _setTokenURI(uint256 _monsterId, string memory _monsterURI) tokenExist(_monsterId) internal {\r\n        _tokenURIs[_monsterId] = _monsterURI;\r\n    }\r\n\r\n\r\n\r\n        /**\r\n     * @dev Hook that is called before any token transfer. This includes minting\r\n     * and burning.\r\n     *\r\n     * Calling conditions:\r\n     *\r\n     * - When `from` and `to` are both non-zero, ``from``'s `tokenId` will be\r\n     * transferred to `to`.\r\n     * - When `from` is zero, `tokenId` will be minted for `to`.\r\n     * - When `to` is zero, ``from``'s `tokenId` will be burned.\r\n     * - `from` cannot be the zero address.\r\n     * - `to` cannot be the zero address.\r\n     *\r\n     * To learn more about hooks, head to xref:ROOT:extending-contracts.adoc#using-hooks[Using Hooks].\r\n     */\r\n    function _beforeTokenTransfer(\r\n        address from,\r\n        address to,\r\n        uint256 tokenId\r\n    ) internal {\r\n\r\n        if (from == address(0)) {\r\n            //This monster has been added before\r\n        } else if (from != to) {\r\n            _removeMonsterFromOwnerEnumeration(from, tokenId);\r\n        }\r\n        if (to == address(0)) {\r\n            _removeMonsterFromAllTokensEnumeration(tokenId);\r\n        } else if (to != from) {\r\n            _addMonsterToOwnerEnumeration(to, tokenId);\r\n        }\r\n    }    \r\n    /**\r\n     * @dev Private function to remove a token from this extension's ownership-tracking data structures. Note that\r\n     * while the token is not assigned a new owner, the `_ownedTokensIndex` mapping is _not_ updated: this allows for\r\n     * gas optimizations e.g. when performing a transfer operation (avoiding double writes).\r\n     * This has O(1) time complexity, but alters the order of the _ownedTokens array.\r\n     * @param from address representing the previous owner of the given token ID\r\n     * @param tokenId uint256 ID of the token to be removed from the tokens list of the given address\r\n     */\r\n    function _removeMonsterFromOwnerEnumeration(address from, uint256 tokenId) private {\r\n        // To prevent a gap in from's tokens array, we store the last token in the index of the token to delete, and\r\n        // then delete the last slot (swap and pop).\r\n\r\n        uint256 lastTokenIndex = balanceOf(from) - 1;\r\n        uint256 tokenIndex = _ownedTokensIndex[tokenId];\r\n\r\n        // When the token to delete is the last token, the swap operation is unnecessary\r\n        if (tokenIndex != lastTokenIndex) {\r\n            uint256 lastTokenId = _ownedTokens[from][lastTokenIndex];\r\n\r\n            _ownedTokens[from][tokenIndex] = lastTokenId; // Move the last token to the slot of the to-delete token\r\n            _ownedTokensIndex[lastTokenId] = tokenIndex; // Update the moved token's index\r\n        }\r\n\r\n        // This also deletes the contents at the last position of the array\r\n        delete _ownedTokensIndex[tokenId];\r\n        delete _ownedTokens[from][lastTokenIndex];\r\n    }\r\n\r\n    /**\r\n     * @dev Private function to remove a token from this extension's token tracking data structures.\r\n     * This has O(1) time complexity, but alters the order of the _allTokens array.\r\n     * @param tokenId uint256 ID of the token to be removed from the tokens list\r\n     */\r\n    function _removeMonsterFromAllTokensEnumeration(uint256 tokenId) private  {\r\n        // To prevent a gap in the tokens array, we store the last token in the index of the token to delete, and\r\n        // then delete the last slot (swap and pop).\r\n\r\n        uint256 lastTokenIndex = _allMonsters.length - 1;\r\n        uint256 tokenIndex = _allTokensIndex[tokenId];\r\n\r\n        // When the token to delete is the last token, the swap operation is unnecessary. However, since this occurs so\r\n        // rarely (when the last minted token is burnt) that we still do the swap here to avoid the gas cost of adding\r\n        // an 'if' statement (like in _removeTokenFromOwnerEnumeration)\r\n        MonsterLib.Monster memory lastMonster = _allMonsters[lastTokenIndex];\r\n\r\n        _allMonsters[tokenIndex] = lastMonster; // Move the last token to the slot of the to-delete token\r\n        _allTokensIndex[lastMonster.tokenId] = tokenIndex; // Update the moved token's index\r\n\r\n        // This also deletes the contents at the last position of the array\r\n        delete _allTokensIndex[tokenId];\r\n        _allMonsters.pop();\r\n    }\r\n\r\n    /**\r\n     * @dev Private function to add a token to this extension's ownership-tracking data structures.\r\n     * @param to address representing the new owner of the given token ID\r\n     * @param tokenId uint256 ID of the token to be added to the tokens list of the given address\r\n     */\r\n    function _addMonsterToOwnerEnumeration(address to, uint256 tokenId) private{\r\n        uint256 length = balanceOf(to);\r\n        _ownedTokens[to][length] = tokenId;\r\n        _ownedTokensIndex[tokenId] = length;\r\n    }\r\n\r\n    function balanceOf(address _owner) public onlyOwnerOrThis(_owner) view returns(uint256 balance){\r\n        balance = _balances[_owner];\r\n    }\r\n\r\n\r\n\r\n\r\n    function _monsterURIByRace(MonsterLib.Race _race) internal pure returns(string memory){\r\n        string memory _monsterURI;\r\n        if(_race == MonsterLib.Race.DRAGON) _monsterURI =\"../public/images/dragon.png\" ;\r\n        else if(_race == MonsterLib.Race.GARGOYLE) _monsterURI =\"../public/images/gargoyle.png\";\r\n        else if (_race == MonsterLib.Race.GHOST) _monsterURI =\"../public/images/ghost.png\";\r\n        return _monsterURI;\r\n    }\r\n    \r\n    receive() external payable{\r\n        _deposit[msg.sender] += msg.value;\r\n        emit ReceiveEth(msg.sender, msg.value);\r\n\r\n    }\r\n\r\n    /**\r\n     * Used for buyer want to check more detailed information in the market\r\n     */\r\n     function getStatics(uint256 _tokenId) public view tokenExist(_tokenId) returns(MonsterLib.Statistics memory){\r\n         uint256 _tokenIndex = _allTokensIndex[_tokenId];\r\n        return _allMonsters[_tokenIndex].statc;\r\n\r\n     }\r\n\r\n     /**\r\n      * \r\n      */\r\n    function getProductInfo(uint256 _tokenId) public view tokenExist(_tokenId) returns(address, uint8, MonsterLib.Statistics memory, MonsterLib.Race){\r\n        uint256 _tokenIndex = _allTokensIndex[_tokenId];\r\n        MonsterLib.Monster memory monster = _allMonsters[_tokenIndex];\r\n        address owner = ownerOf(_tokenId);\r\n        return (owner, monster.level, monster.statc,monster.race);\r\n    }\r\n\r\n    function ownerOf(uint256 _tokenId) internal tokenExist(_tokenId) view returns(address owner){\r\n        owner = _owners[_tokenId];\r\n    }\r\n\r\n    function monsterById(uint256 _tokenId) public view tokenExist(_tokenId) returns (MonsterLib.Monster memory){\r\n        uint256 _tokenIndex = _allTokensIndex[_tokenId];\r\n        return _allMonsters[_tokenIndex];\r\n    }\r\n\r\n    function _monsterByIndex(uint256 _tokenIndex) internal view returns (MonsterLib.Monster memory){\r\n        require(_tokenIndex < totalSupply() - 1);\r\n        return _allMonsters[_tokenIndex];\r\n    }\r\n\r\n    function _updateExp(uint256 _tokenId, uint8 exp) internal tokenExist(_tokenId){\r\n        uint256 _tokenIndex = _allTokensIndex[_tokenId];\r\n        MonsterLib.Monster storage monster = _allMonsters[_tokenIndex];\r\n        if(monster.expNeedToNext > exp) monster.expNeedToNext -= exp;\r\n        else{\r\n            if(monster.level < 10){\r\n                monster.level += 1;\r\n                monster.expNeedToNext = monster.level * 10 - (exp -  monster.expNeedToNext);\r\n                MonsterLib.Statistics memory _oldStatc = monster.statc;\r\n                MonsterLib.Statistics memory _newStatc = MonsterLib._calculateStatc(monster.iv, monster.level);\r\n                emit LevelUp(_oldStatc, _newStatc);\r\n            }\r\n        }\r\n\r\n    }\r\n\r\n    function transferMoney(address _from, address _to, uint _value) external {\r\n        require(tx.origin == _from);\r\n        require(_to != address(0) && _from != address(0));\r\n        _deposit[_from] -= _value;\r\n        _deposit[_to] += _value;\r\n        emit TransferMoney(_from, _to, _value);\r\n    }\r\n\r\n    function transferFrom(address _from, address _to,uint _tokenId) public{\r\n        require(ownerOf(_tokenId) == _from);\r\n        require (monsterById(_tokenId).isLocked && tx.origin == _to);\r\n        _transfer(_from, _to, _tokenId);\r\n    }\r\n    \r\n    /**\r\n     * @dev Transfers `tokenId` from `from` to `to`.\r\n     *  As opposed to {transferFrom}, this imposes no restrictions on msg.sender.\r\n     *\r\n     * Requirements:\r\n     *\r\n     * - `to` cannot be the zero address.\r\n     * - `tokenId` token must be owned by `from`.\r\n     *\r\n     * Emits a {Transfer} event.\r\n     */\r\n    function _transfer(\r\n        address from,\r\n        address to,\r\n        uint256 tokenId\r\n    ) internal {\r\n        require(ownerOf(tokenId) == from, \"ERC721: transfer from incorrect owner\");\r\n        require(to != address(0), \"ERC721: transfer to the zero address\");\r\n\r\n        _beforeTokenTransfer(from, to, tokenId);\r\n\r\n        _balances[from] -= 1;\r\n        _balances[to] += 1;\r\n        _owners[tokenId] = to;\r\n\r\n        emit Transfer(from, to, tokenId);\r\n    }\r\n\r\n    function lockMonster(uint _tokenId, bool _locked) public {\r\n        require(tx.origin == ownerOf(_tokenId));\r\n        _allMonsters[_allTokensIndex[_tokenId]].isLocked = _locked;\r\n        emit LockMonster(_tokenId,_locked);\r\n    }\r\n\r\n    function getOwnedMonster() public view returns (MonsterLib.Monster[] memory monsters) {\r\n        uint _ownedCount = balanceOf(msg.sender);\r\n        if(_ownedCount != 0){\r\n            for(uint i = 0; i < _ownedCount; i++){\r\n                monsters[i] = monsterById(_ownedTokens[msg.sender][i]);\r\n            }\r\n        }\r\n        else monsters = new MonsterLib.Monster[](0);\r\n\r\n    }\r\n\r\n    function deleteMonster(uint _monsterId) public {\r\n        require(msg.sender == ownerOf(_monsterId));\r\n        if(monsterById(_monsterId).isLocked){\r\n            emit MonsterInMarket(_monsterId);\r\n            revert();\r\n        }\r\n        else{\r\n            _burn(_monsterId);\r\n        }\r\n    }\r\n\r\n        /**\r\n     * @dev Destroys `tokenId`.\r\n     * The approval is cleared when the token is burned.\r\n     *\r\n     * Requirements:\r\n     *\r\n     * - `tokenId` must exist.\r\n     *\r\n     * Emits a {Transfer} event.\r\n     */\r\n    function _burn(uint256 tokenId) internal {\r\n        address owner = ownerOf(tokenId);\r\n\r\n        _beforeTokenTransfer(owner, address(0), tokenId);\r\n\r\n        _balances[owner] -= 1;\r\n        delete _owners[tokenId];\r\n\r\n        emit Transfer(owner, address(0), tokenId);\r\n    }\r\n\r\n    function breed(uint _mumId, uint _dadId) public {\r\n        require(ownerOf(_mumId) == msg.sender && ownerOf(_dadId) == msg.sender);\r\n        MonsterLib.Monster memory _mum = monsterById(_mumId);\r\n        MonsterLib.Monster memory _dad = monsterById(_dadId);\r\n        if(_mum.race != _dad.race){\r\n            emit DifferentRace(_mum.race, _dad.race);\r\n        }\r\n        MonsterLib.IndividualValue memory _childIv = _monsterFactory.getChild(_mum.iv, _dad.iv);\r\n        _createNewMonster(msg.sender, _mumId, _dadId, _childIv, _dad.race);\r\n    }\r\n\r\n    /**\r\n     * @dev Pick five competitors randomly from existing monsters\r\n     * Cannot pick those monster whose owner is msg.sender\r\n     */\r\n    function pickCompetitionRandomly() public view returns (Competitor[] memory){\r\n        uint _monsterCount = totalSupply();\r\n        Competitor[] memory competitors;\r\n        MonsterLib.Monster memory _currentMonster;\r\n        if( _monsterCount - balanceOf(msg.sender) <= 5){\r\n            uint _pickedCount = 0;\r\n            for(uint i = 0; i < _monsterCount; i++){\r\n                _currentMonster = _monsterByIndex(_monsterCount);\r\n                if(ownerOf(_currentMonster.tokenId) != msg.sender){\r\n                    competitors[_pickedCount] = Competitor(_currentMonster.tokenId, _currentMonster.level, _currentMonster.race, _currentMonster.statc);\r\n                    _pickedCount ++;\r\n                }\r\n            }\r\n        }\r\n        else{\r\n            uint256[] memory _foundIndex;\r\n            uint _pickedIndex;\r\n            uint _pickedCount = 0;\r\n            uint _foundCount = 0;\r\n            uint _loops = 0;\r\n            while(_foundIndex.length < _monsterCount && competitors.length < 5 && _loops < 10){\r\n                _loops ++;\r\n                _pickedIndex = MonsterLib._random() % _monsterCount;\r\n                _currentMonster = _monsterByIndex(_pickedIndex);\r\n                if(!_contain(_foundIndex, _pickedIndex)){\r\n                    if(ownerOf(_currentMonster.tokenId) != msg.sender ){\r\n                        competitors[_pickedCount] = Competitor(_currentMonster.tokenId, _currentMonster.level, _currentMonster.race, _currentMonster.statc);\r\n                        _pickedCount++;\r\n                    }\r\n                    _foundIndex[_foundCount] = _pickedIndex;\r\n                    _foundCount ++;\r\n                }\r\n            }\r\n        }\r\n        return competitors;\r\n\r\n    }\r\n\r\n    function _contain(uint256[] memory list, uint256 elem) internal pure returns(bool){\r\n        for(uint i = 0; i < list.length; i++){\r\n            if(list[i] == elem) return true;\r\n        }\r\n        return false;\r\n    } \r\n\r\n    function battleWithPlayer(uint _player1Id, uint _player2Id) public {\r\n        MonsterLib.Monster memory _player1 = monsterById(_player1Id);\r\n        MonsterLib.Monster memory _player2 = monsterById(_player2Id);\r\n        uint8 exp = _monsterBattle.battleWithPlayer(_player1.statc, _player2.statc, _player2.level);\r\n        _updateExp(_player1Id, exp);\r\n    }\r\n\r\n    function battleWithDefault(uint _playerId, uint _defaultId) public{\r\n        MonsterLib.Monster memory _player = monsterById(_playerId);\r\n        uint8 exp = _monsterBattle.battleWithDefaultMonster(_player.statc, _defaultId);\r\n        _updateExp(_playerId, exp);\r\n    }\r\n\r\n\r\n\r\n\r\n    \r\n}",
  "sourcePath": "D:\\GitHub\\monster\\contracts\\MonsterToken.sol",
  "compiler": {
    "name": "solc",
    "version": "0.8.9+commit.e5eed63a.Emscripten.clang"
  },
  "schemaVersion": "3.4.7",
  "updatedAt": "2022-05-15T06:24:41.943Z",
  "networkType": "ethereum",
  "devdoc": {
    "kind": "dev",
    "methods": {
      "getInitialMonster(uint8)": {
        "details": "Pay ETH to get a default monster from contract"
      },
      "pickCompetitionRandomly()": {
        "details": "Pick five competitors randomly from existing monsters Cannot pick those monster whose owner is msg.sender"
      }
    },
    "version": 1
  },
  "userdoc": {
    "kind": "user",
    "methods": {
      "getStatics(uint256)": {
        "notice": "Used for buyer want to check more detailed information in the market"
      }
    },
    "version": 1
  }
}