{
  "contractName": "MonsterToken",
  "abi": [
    {
      "inputs": [
        {
          "internalType": "address",
          "name": "_monsterFactoryAddress",
          "type": "address"
        },
        {
          "internalType": "address",
          "name": "_monsterBattleAddress",
          "type": "address"
        }
      ],
      "stateMutability": "nonpayable",
      "type": "constructor"
    },
    {
      "anonymous": false,
      "inputs": [
        {
          "indexed": false,
          "internalType": "enum MonsterLib.Race",
          "name": "",
          "type": "uint8"
        },
        {
          "indexed": false,
          "internalType": "enum MonsterLib.Race",
          "name": "",
          "type": "uint8"
        }
      ],
      "name": "DifferentRace",
      "type": "event"
    },
    {
      "anonymous": false,
      "inputs": [
        {
          "components": [
            {
              "internalType": "uint8",
              "name": "HP",
              "type": "uint8"
            },
            {
              "internalType": "uint8",
              "name": "strength",
              "type": "uint8"
            },
            {
              "internalType": "uint8",
              "name": "defensive",
              "type": "uint8"
            },
            {
              "internalType": "uint8",
              "name": "speed",
              "type": "uint8"
            }
          ],
          "indexed": false,
          "internalType": "struct MonsterLib.Statistics",
          "name": "",
          "type": "tuple"
        },
        {
          "components": [
            {
              "internalType": "uint8",
              "name": "HP",
              "type": "uint8"
            },
            {
              "internalType": "uint8",
              "name": "strength",
              "type": "uint8"
            },
            {
              "internalType": "uint8",
              "name": "defensive",
              "type": "uint8"
            },
            {
              "internalType": "uint8",
              "name": "speed",
              "type": "uint8"
            }
          ],
          "indexed": false,
          "internalType": "struct MonsterLib.Statistics",
          "name": "",
          "type": "tuple"
        }
      ],
      "name": "LevelUp",
      "type": "event"
    },
    {
      "anonymous": false,
      "inputs": [
        {
          "indexed": false,
          "internalType": "uint256",
          "name": "",
          "type": "uint256"
        },
        {
          "indexed": false,
          "internalType": "bool",
          "name": "",
          "type": "bool"
        }
      ],
      "name": "LockMonster",
      "type": "event"
    },
    {
      "anonymous": false,
      "inputs": [
        {
          "indexed": false,
          "internalType": "uint256",
          "name": "",
          "type": "uint256"
        }
      ],
      "name": "MonsterInMarket",
      "type": "event"
    },
    {
      "anonymous": false,
      "inputs": [
        {
          "indexed": false,
          "internalType": "address",
          "name": "",
          "type": "address"
        }
      ],
      "name": "ReadyToCreate",
      "type": "event"
    },
    {
      "anonymous": false,
      "inputs": [
        {
          "indexed": false,
          "internalType": "address",
          "name": "from",
          "type": "address"
        },
        {
          "indexed": false,
          "internalType": "uint256",
          "name": "amount",
          "type": "uint256"
        }
      ],
      "name": "ReceiveEth",
      "type": "event"
    },
    {
      "anonymous": false,
      "inputs": [
        {
          "indexed": false,
          "internalType": "address",
          "name": "",
          "type": "address"
        },
        {
          "indexed": false,
          "internalType": "address",
          "name": "",
          "type": "address"
        },
        {
          "indexed": false,
          "internalType": "uint256",
          "name": "",
          "type": "uint256"
        }
      ],
      "name": "Transfer",
      "type": "event"
    },
    {
      "anonymous": false,
      "inputs": [
        {
          "indexed": false,
          "internalType": "address",
          "name": "",
          "type": "address"
        },
        {
          "indexed": false,
          "internalType": "address",
          "name": "",
          "type": "address"
        },
        {
          "indexed": false,
          "internalType": "uint256",
          "name": "",
          "type": "uint256"
        }
      ],
      "name": "TransferMoney",
      "type": "event"
    },
    {
      "stateMutability": "payable",
      "type": "receive",
      "payable": true
    },
    {
      "inputs": [
        {
          "internalType": "address",
          "name": "owner",
          "type": "address"
        }
      ],
      "name": "depositOf",
      "outputs": [
        {
          "internalType": "uint256",
          "name": "",
          "type": "uint256"
        }
      ],
      "stateMutability": "view",
      "type": "function",
      "constant": true
    },
    {
      "inputs": [],
      "name": "totalSupply",
      "outputs": [
        {
          "internalType": "uint256",
          "name": "",
          "type": "uint256"
        }
      ],
      "stateMutability": "view",
      "type": "function",
      "constant": true
    },
    {
      "inputs": [
        {
          "internalType": "string",
          "name": "race",
          "type": "string"
        }
      ],
      "name": "getInitialMonster",
      "outputs": [],
      "stateMutability": "payable",
      "type": "function",
      "payable": true
    },
    {
      "inputs": [
        {
          "internalType": "address",
          "name": "_owner",
          "type": "address"
        }
      ],
      "name": "balanceOf",
      "outputs": [
        {
          "internalType": "uint256",
          "name": "balance",
          "type": "uint256"
        }
      ],
      "stateMutability": "view",
      "type": "function",
      "constant": true
    },
    {
      "inputs": [
        {
          "internalType": "uint256",
          "name": "_tokenId",
          "type": "uint256"
        }
      ],
      "name": "getStatics",
      "outputs": [
        {
          "components": [
            {
              "internalType": "uint8",
              "name": "HP",
              "type": "uint8"
            },
            {
              "internalType": "uint8",
              "name": "strength",
              "type": "uint8"
            },
            {
              "internalType": "uint8",
              "name": "defensive",
              "type": "uint8"
            },
            {
              "internalType": "uint8",
              "name": "speed",
              "type": "uint8"
            }
          ],
          "internalType": "struct MonsterLib.Statistics",
          "name": "",
          "type": "tuple"
        }
      ],
      "stateMutability": "view",
      "type": "function",
      "constant": true
    },
    {
      "inputs": [
        {
          "internalType": "uint256",
          "name": "_tokenId",
          "type": "uint256"
        }
      ],
      "name": "getProductInfo",
      "outputs": [
        {
          "internalType": "address",
          "name": "",
          "type": "address"
        },
        {
          "internalType": "uint8",
          "name": "",
          "type": "uint8"
        },
        {
          "components": [
            {
              "internalType": "uint8",
              "name": "HP",
              "type": "uint8"
            },
            {
              "internalType": "uint8",
              "name": "strength",
              "type": "uint8"
            },
            {
              "internalType": "uint8",
              "name": "defensive",
              "type": "uint8"
            },
            {
              "internalType": "uint8",
              "name": "speed",
              "type": "uint8"
            }
          ],
          "internalType": "struct MonsterLib.Statistics",
          "name": "",
          "type": "tuple"
        },
        {
          "internalType": "enum MonsterLib.Race",
          "name": "",
          "type": "uint8"
        }
      ],
      "stateMutability": "view",
      "type": "function",
      "constant": true
    },
    {
      "inputs": [
        {
          "internalType": "uint256",
          "name": "_tokenId",
          "type": "uint256"
        }
      ],
      "name": "monsterById",
      "outputs": [
        {
          "components": [
            {
              "internalType": "uint256",
              "name": "tokenId",
              "type": "uint256"
            },
            {
              "internalType": "uint256",
              "name": "mumId",
              "type": "uint256"
            },
            {
              "internalType": "uint256",
              "name": "dadId",
              "type": "uint256"
            },
            {
              "components": [
                {
                  "internalType": "uint8",
                  "name": "HP",
                  "type": "uint8"
                },
                {
                  "internalType": "uint8",
                  "name": "strength",
                  "type": "uint8"
                },
                {
                  "internalType": "uint8",
                  "name": "defensive",
                  "type": "uint8"
                },
                {
                  "internalType": "uint8",
                  "name": "speed",
                  "type": "uint8"
                }
              ],
              "internalType": "struct MonsterLib.Statistics",
              "name": "statc",
              "type": "tuple"
            },
            {
              "components": [
                {
                  "internalType": "uint8",
                  "name": "HP",
                  "type": "uint8"
                },
                {
                  "internalType": "uint8",
                  "name": "strength",
                  "type": "uint8"
                },
                {
                  "internalType": "uint8",
                  "name": "defensive",
                  "type": "uint8"
                },
                {
                  "internalType": "uint8",
                  "name": "speed",
                  "type": "uint8"
                }
              ],
              "internalType": "struct MonsterLib.IndividualValue",
              "name": "iv",
              "type": "tuple"
            },
            {
              "internalType": "uint8",
              "name": "level",
              "type": "uint8"
            },
            {
              "internalType": "uint8",
              "name": "expNeedToNext",
              "type": "uint8"
            },
            {
              "internalType": "enum MonsterLib.Race",
              "name": "race",
              "type": "uint8"
            },
            {
              "internalType": "bool",
              "name": "isLocked",
              "type": "bool"
            }
          ],
          "internalType": "struct MonsterLib.Monster",
          "name": "",
          "type": "tuple"
        }
      ],
      "stateMutability": "view",
      "type": "function",
      "constant": true
    },
    {
      "inputs": [
        {
          "internalType": "address",
          "name": "_from",
          "type": "address"
        },
        {
          "internalType": "address",
          "name": "_to",
          "type": "address"
        },
        {
          "internalType": "uint256",
          "name": "_value",
          "type": "uint256"
        }
      ],
      "name": "transferMoney",
      "outputs": [],
      "stateMutability": "nonpayable",
      "type": "function"
    },
    {
      "inputs": [
        {
          "internalType": "address",
          "name": "_from",
          "type": "address"
        },
        {
          "internalType": "address",
          "name": "_to",
          "type": "address"
        },
        {
          "internalType": "uint256",
          "name": "_tokenId",
          "type": "uint256"
        }
      ],
      "name": "transferFrom",
      "outputs": [],
      "stateMutability": "nonpayable",
      "type": "function"
    },
    {
      "inputs": [
        {
          "internalType": "uint256",
          "name": "_tokenId",
          "type": "uint256"
        },
        {
          "internalType": "bool",
          "name": "_locked",
          "type": "bool"
        }
      ],
      "name": "lockMonster",
      "outputs": [],
      "stateMutability": "nonpayable",
      "type": "function"
    },
    {
      "inputs": [],
      "name": "getOwnedMonster",
      "outputs": [
        {
          "components": [
            {
              "internalType": "uint256",
              "name": "tokenId",
              "type": "uint256"
            },
            {
              "internalType": "uint256",
              "name": "mumId",
              "type": "uint256"
            },
            {
              "internalType": "uint256",
              "name": "dadId",
              "type": "uint256"
            },
            {
              "components": [
                {
                  "internalType": "uint8",
                  "name": "HP",
                  "type": "uint8"
                },
                {
                  "internalType": "uint8",
                  "name": "strength",
                  "type": "uint8"
                },
                {
                  "internalType": "uint8",
                  "name": "defensive",
                  "type": "uint8"
                },
                {
                  "internalType": "uint8",
                  "name": "speed",
                  "type": "uint8"
                }
              ],
              "internalType": "struct MonsterLib.Statistics",
              "name": "statc",
              "type": "tuple"
            },
            {
              "components": [
                {
                  "internalType": "uint8",
                  "name": "HP",
                  "type": "uint8"
                },
                {
                  "internalType": "uint8",
                  "name": "strength",
                  "type": "uint8"
                },
                {
                  "internalType": "uint8",
                  "name": "defensive",
                  "type": "uint8"
                },
                {
                  "internalType": "uint8",
                  "name": "speed",
                  "type": "uint8"
                }
              ],
              "internalType": "struct MonsterLib.IndividualValue",
              "name": "iv",
              "type": "tuple"
            },
            {
              "internalType": "uint8",
              "name": "level",
              "type": "uint8"
            },
            {
              "internalType": "uint8",
              "name": "expNeedToNext",
              "type": "uint8"
            },
            {
              "internalType": "enum MonsterLib.Race",
              "name": "race",
              "type": "uint8"
            },
            {
              "internalType": "bool",
              "name": "isLocked",
              "type": "bool"
            }
          ],
          "internalType": "struct MonsterLib.Monster[]",
          "name": "monsters",
          "type": "tuple[]"
        }
      ],
      "stateMutability": "view",
      "type": "function",
      "constant": true
    },
    {
      "inputs": [
        {
          "internalType": "uint256",
          "name": "_monsterId",
          "type": "uint256"
        }
      ],
      "name": "deleteMonster",
      "outputs": [],
      "stateMutability": "nonpayable",
      "type": "function"
    },
    {
      "inputs": [
        {
          "internalType": "uint256",
          "name": "_mumId",
          "type": "uint256"
        },
        {
          "internalType": "uint256",
          "name": "_dadId",
          "type": "uint256"
        }
      ],
      "name": "breed",
      "outputs": [],
      "stateMutability": "payable",
      "type": "function",
      "payable": true
    },
    {
      "inputs": [],
      "name": "pickCompetitionRandomly",
      "outputs": [
        {
          "components": [
            {
              "internalType": "uint256",
              "name": "tokenId",
              "type": "uint256"
            },
            {
              "internalType": "uint8",
              "name": "level",
              "type": "uint8"
            },
            {
              "internalType": "enum MonsterLib.Race",
              "name": "race",
              "type": "uint8"
            },
            {
              "components": [
                {
                  "internalType": "uint8",
                  "name": "HP",
                  "type": "uint8"
                },
                {
                  "internalType": "uint8",
                  "name": "strength",
                  "type": "uint8"
                },
                {
                  "internalType": "uint8",
                  "name": "defensive",
                  "type": "uint8"
                },
                {
                  "internalType": "uint8",
                  "name": "speed",
                  "type": "uint8"
                }
              ],
              "internalType": "struct MonsterLib.Statistics",
              "name": "statc",
              "type": "tuple"
            }
          ],
          "internalType": "struct MonsterToken.Competitor[]",
          "name": "competitors",
          "type": "tuple[]"
        }
      ],
      "stateMutability": "view",
      "type": "function",
      "constant": true
    },
    {
      "inputs": [
        {
          "internalType": "uint256",
          "name": "_player1Id",
          "type": "uint256"
        },
        {
          "internalType": "uint256",
          "name": "_player2Id",
          "type": "uint256"
        }
      ],
      "name": "battleWithPlayer",
      "outputs": [],
      "stateMutability": "nonpayable",
      "type": "function"
    },
    {
      "inputs": [
        {
          "internalType": "uint256",
          "name": "_playerId",
          "type": "uint256"
        },
        {
          "internalType": "uint256",
          "name": "_defaultId",
          "type": "uint256"
        }
      ],
      "name": "battleWithDefault",
      "outputs": [],
      "stateMutability": "nonpayable",
      "type": "function"
    }
  ],
  "bytecode": "0x60806040526040518060800160405280600560ff168152602001600560ff168152602001600560ff168152602001600560ff16815250600f60008201518160000160006101000a81548160ff021916908360ff16021790555060208201518160000160016101000a81548160ff021916908360ff16021790555060408201518160000160026101000a81548160ff021916908360ff16021790555060608201518160000160036101000a81548160ff021916908360ff1602179055505050348015620000ca57600080fd5b5060405162005725380380620057258339818101604052810190620000f09190620002a0565b600073ffffffffffffffffffffffffffffffffffffffff168173ffffffffffffffffffffffffffffffffffffffff16141580156200015b5750600073ffffffffffffffffffffffffffffffffffffffff168273ffffffffffffffffffffffffffffffffffffffff1614155b6200016557600080fd5b6001600d819055506000600c60006101000a81548160ff0219169083151502179055506200019a8282620001b160201b60201c565b671bc16d674ec80000600e819055505050620002e7565b816000806101000a81548173ffffffffffffffffffffffffffffffffffffffff021916908373ffffffffffffffffffffffffffffffffffffffff16021790555080600160006101000a81548173ffffffffffffffffffffffffffffffffffffffff021916908373ffffffffffffffffffffffffffffffffffffffff1602179055505050565b600080fd5b600073ffffffffffffffffffffffffffffffffffffffff82169050919050565b600062000268826200023b565b9050919050565b6200027a816200025b565b81146200028657600080fd5b50565b6000815190506200029a816200026f565b92915050565b60008060408385031215620002ba57620002b962000236565b5b6000620002ca8582860162000289565b9250506020620002dd8582860162000289565b9150509250929050565b61542e80620002f76000396000f3fe6080604052600436106100f75760003560e01c806370a082311161008a578063caece7bb11610059578063caece7bb146103dc578063ccd1a9e914610405578063d9ecad7b14610430578063fe3296f81461044c5761018d565b806370a082311461030b57806379a85e6c146103485780637a5800c514610388578063c3cfcdc8146103b35761018d565b8063292fe8f6116100c6578063292fe8f614610260578063332aea7514610289578063422666a7146102a55780636410381c146102e25761018d565b806318160ddd146101925780631dddf164146101bd57806323b872dd146101fa57806323e3fbd5146102235761018d565b3661018d5734600460003373ffffffffffffffffffffffffffffffffffffffff1673ffffffffffffffffffffffffffffffffffffffff168152602001908152602001600020600082825461014b9190613b4a565b925050819055507fefc0288202e432ade6bf71491d0001d7e389ad4f8e4e9c7aa038dd1a563efc603334604051610183929190613bf0565b60405180910390a1005b600080fd5b34801561019e57600080fd5b506101a7610475565b6040516101b49190613c19565b60405180910390f35b3480156101c957600080fd5b506101e460048036038101906101df9190613c74565b610482565b6040516101f19190613d12565b60405180910390f35b34801561020657600080fd5b50610221600480360381019061021c9190613d59565b6105f3565b005b34801561022f57600080fd5b5061024a60048036038101906102459190613dac565b610883565b6040516102579190613c19565b60405180910390f35b34801561026c57600080fd5b5061028760048036038101906102829190613dd9565b610974565b005b6102a3600480360381019061029e9190613f5f565b610abe565b005b3480156102b157600080fd5b506102cc60048036038101906102c79190613c74565b610dd3565b6040516102d991906141ad565b60405180910390f35b3480156102ee57600080fd5b5061030960048036038101906103049190613d59565b61108c565b005b34801561031757600080fd5b50610332600480360381019061032d9190613dac565b611223565b60405161033f9190613c19565b60405180910390f35b34801561035457600080fd5b5061036f600480360381019061036a9190613c74565b6112dc565b60405161037f94939291906141e7565b60405180910390f35b34801561039457600080fd5b5061039d6115c5565b6040516103aa9190614396565b60405180910390f35b3480156103bf57600080fd5b506103da60048036038101906103d59190613dd9565b611729565b005b3480156103e857600080fd5b5061040360048036038101906103fe91906143e4565b61190a565b005b34801561041157600080fd5b5061041a611a0d565b6040516104279190614528565b60405180910390f35b61044a60048036038101906104459190613dd9565b611cf3565b005b34801561045857600080fd5b50610473600480360381019061046e9190613c74565b61200c565b005b6000600780549050905090565b61048a613951565b81600073ffffffffffffffffffffffffffffffffffffffff166002600083815260200190815260200160002060009054906101000a900473ffffffffffffffffffffffffffffffffffffffff1673ffffffffffffffffffffffffffffffffffffffff16141561052e576040517f08c379a0000000000000000000000000000000000000000000000000000000008152600401610525906145a7565b60405180910390fd5b6000600860008581526020019081526020016000205490506007818154811061055a576105596145c7565b5b90600052602060002090600602016003016040518060800160405290816000820160009054906101000a900460ff1660ff1660ff1681526020016000820160019054906101000a900460ff1660ff1660ff1681526020016000820160029054906101000a900460ff1660ff1660ff1681526020016000820160039054906101000a900460ff1660ff1660ff168152505092505050919050565b8273ffffffffffffffffffffffffffffffffffffffff16610613826120dc565b73ffffffffffffffffffffffffffffffffffffffff1614610669576040517f08c379a000000000000000000000000000000000000000000000000000000000815260040161066090614668565b60405180910390fd5b61067281610dd3565b61010001516106b6576040517f08c379a00000000000000000000000000000000000000000000000000000000081526004016106ad906146fa565b60405180910390fd5b8173ffffffffffffffffffffffffffffffffffffffff163273ffffffffffffffffffffffffffffffffffffffff1614610724576040517f08c379a000000000000000000000000000000000000000000000000000000000815260040161071b9061478c565b60405180910390fd5b61072e83826121be565b610738828261232b565b6001600360008573ffffffffffffffffffffffffffffffffffffffff1673ffffffffffffffffffffffffffffffffffffffff168152602001908152602001600020600082825461078891906147ac565b925050819055506001600360008473ffffffffffffffffffffffffffffffffffffffff1673ffffffffffffffffffffffffffffffffffffffff16815260200190815260200160002060008282546107df9190613b4a565b92505081905550816002600083815260200190815260200160002060006101000a81548173ffffffffffffffffffffffffffffffffffffffff021916908373ffffffffffffffffffffffffffffffffffffffff16021790555061084381600061190a565b7fddf252ad1be2c89b69c2b068fc378daa952ba7f163c4a11628f55a4df523b3ef838383604051610876939291906147e0565b60405180910390a1505050565b60003273ffffffffffffffffffffffffffffffffffffffff168273ffffffffffffffffffffffffffffffffffffffff16146108bd57600080fd5b600073ffffffffffffffffffffffffffffffffffffffff168273ffffffffffffffffffffffffffffffffffffffff16141561092d576040517f08c379a000000000000000000000000000000000000000000000000000000000815260040161092490614889565b60405180910390fd5b600460008373ffffffffffffffffffffffffffffffffffffffff1673ffffffffffffffffffffffffffffffffffffffff168152602001908152602001600020549050919050565b3373ffffffffffffffffffffffffffffffffffffffff16610994836120dc565b73ffffffffffffffffffffffffffffffffffffffff16146109ea576040517f08c379a00000000000000000000000000000000000000000000000000000000081526004016109e1906148f5565b60405180910390fd5b60006109f583610dd3565b90506000600160009054906101000a900473ffffffffffffffffffffffffffffffffffffffff1673ffffffffffffffffffffffffffffffffffffffff1663ba93a73e8360600151856040518363ffffffff1660e01b8152600401610a5a929190614915565b602060405180830381600087803b158015610a7457600080fd5b505af1158015610a88573d6000803e3d6000fd5b505050506040513d601f19601f82011682018060405250810190610aac919061496a565b9050610ab884826123aa565b50505050565b34600460003373ffffffffffffffffffffffffffffffffffffffff1673ffffffffffffffffffffffffffffffffffffffff1681526020019081526020016000206000828254610b0d9190613b4a565b92505081905550600e54600460003373ffffffffffffffffffffffffffffffffffffffff1673ffffffffffffffffffffffffffffffffffffffff168152602001908152602001600020541015610b98576040517f08c379a0000000000000000000000000000000000000000000000000000000008152600401610b8f906149e3565b60405180910390fd5b600e54600460003373ffffffffffffffffffffffffffffffffffffffff1673ffffffffffffffffffffffffffffffffffffffff1681526020019081526020016000206000828254610be991906147ac565b925050819055506000604051602001610c0190614a5a565b6040516020818303038152906040528051906020012082604051602001610c289190614ade565b604051602081830303815290604052805190602001201415610c4d5760009050610d0a565b604051602001610c5c90614b41565b6040516020818303038152906040528051906020012082604051602001610c839190614ade565b604051602081830303815290604052805190602001201415610ca85760019050610d09565b604051602001610cb790614ba2565b6040516020818303038152906040528051906020012082604051602001610cde9190614ade565b604051602081830303815290604052805190602001201415610d035760029050610d08565b600080fd5b5b5b7f4d39a79ee4766bf9e3447e4866b9832db2e272f069d44614c16bb3eb672a638033604051610d399190614bb7565b60405180910390a1610dcf33600080600f6040518060800160405290816000820160009054906101000a900460ff1660ff1660ff1681526020016000820160019054906101000a900460ff1660ff1660ff1681526020016000820160029054906101000a900460ff1660ff1660ff1681526020016000820160039054906101000a900460ff1660ff1660ff16815250508561270b565b5050565b610ddb613985565b81600073ffffffffffffffffffffffffffffffffffffffff166002600083815260200190815260200160002060009054906101000a900473ffffffffffffffffffffffffffffffffffffffff1673ffffffffffffffffffffffffffffffffffffffff161415610e7f576040517f08c379a0000000000000000000000000000000000000000000000000000000008152600401610e76906145a7565b60405180910390fd5b60006008600085815260200190815260200160002054905060078181548110610eab57610eaa6145c7565b5b906000526020600020906006020160405180610120016040529081600082015481526020016001820154815260200160028201548152602001600382016040518060800160405290816000820160009054906101000a900460ff1660ff1660ff1681526020016000820160019054906101000a900460ff1660ff1660ff1681526020016000820160029054906101000a900460ff1660ff1660ff1681526020016000820160039054906101000a900460ff1660ff1660ff16815250508152602001600482016040518060800160405290816000820160009054906101000a900460ff1660ff1660ff1681526020016000820160019054906101000a900460ff1660ff1660ff1681526020016000820160029054906101000a900460ff1660ff1660ff1681526020016000820160039054906101000a900460ff1660ff1660ff168152505081526020016005820160009054906101000a900460ff1660ff1660ff1681526020016005820160019054906101000a900460ff1660ff1660ff1681526020016005820160029054906101000a900460ff16600281111561105257611051614061565b5b600281111561106457611063614061565b5b81526020016005820160039054906101000a900460ff16151515158152505092505050919050565b8273ffffffffffffffffffffffffffffffffffffffff163273ffffffffffffffffffffffffffffffffffffffff16146110c457600080fd5b600073ffffffffffffffffffffffffffffffffffffffff168273ffffffffffffffffffffffffffffffffffffffff161415801561112e5750600073ffffffffffffffffffffffffffffffffffffffff168373ffffffffffffffffffffffffffffffffffffffff1614155b61113757600080fd5b80600460008573ffffffffffffffffffffffffffffffffffffffff1673ffffffffffffffffffffffffffffffffffffffff168152602001908152602001600020600082825461118691906147ac565b9250508190555080600460008473ffffffffffffffffffffffffffffffffffffffff1673ffffffffffffffffffffffffffffffffffffffff16815260200190815260200160002060008282546111dc9190613b4a565b925050819055507fb900e832b6eff259cf1fd6d12898306d28460d412e04f398c1a74a2af6013013838383604051611216939291906147e0565b60405180910390a1505050565b6000818073ffffffffffffffffffffffffffffffffffffffff163373ffffffffffffffffffffffffffffffffffffffff16148061128b57503073ffffffffffffffffffffffffffffffffffffffff163373ffffffffffffffffffffffffffffffffffffffff16145b61129457600080fd5b600360008473ffffffffffffffffffffffffffffffffffffffff1673ffffffffffffffffffffffffffffffffffffffff16815260200190815260200160002054915050919050565b6000806112e7613951565b600084600073ffffffffffffffffffffffffffffffffffffffff166002600083815260200190815260200160002060009054906101000a900473ffffffffffffffffffffffffffffffffffffffff1673ffffffffffffffffffffffffffffffffffffffff16141561138d576040517f08c379a0000000000000000000000000000000000000000000000000000000008152600401611384906145a7565b60405180910390fd5b6000600860008881526020019081526020016000205490506000600782815481106113bb576113ba6145c7565b5b906000526020600020906006020160405180610120016040529081600082015481526020016001820154815260200160028201548152602001600382016040518060800160405290816000820160009054906101000a900460ff1660ff1660ff1681526020016000820160019054906101000a900460ff1660ff1660ff1681526020016000820160029054906101000a900460ff1660ff1660ff1681526020016000820160039054906101000a900460ff1660ff1660ff16815250508152602001600482016040518060800160405290816000820160009054906101000a900460ff1660ff1660ff1681526020016000820160019054906101000a900460ff1660ff1660ff1681526020016000820160029054906101000a900460ff1660ff1660ff1681526020016000820160039054906101000a900460ff1660ff1660ff168152505081526020016005820160009054906101000a900460ff1660ff1660ff1681526020016005820160019054906101000a900460ff1660ff1660ff1681526020016005820160029054906101000a900460ff16600281111561156257611561614061565b5b600281111561157457611573614061565b5b81526020016005820160039054906101000a900460ff161515151581525050905060006115a0896120dc565b9050808260a0015183606001518460e001519750975097509750505050509193509193565b606060006115d233611223565b9050600081146116cd578067ffffffffffffffff8111156115f6576115f5613e34565b5b60405190808252806020026020018201604052801561162f57816020015b61161c613985565b8152602001906001900390816116145790505b50915060005b818110156116c757611696600960003373ffffffffffffffffffffffffffffffffffffffff1673ffffffffffffffffffffffffffffffffffffffff168152602001908152602001600020600083815260200190815260200160002054610dd3565b8382815181106116a9576116a86145c7565b5b602002602001018190525080806116bf90614bd2565b915050611635565b50611725565b600067ffffffffffffffff8111156116e8576116e7613e34565b5b60405190808252806020026020018201604052801561172157816020015b61170e613985565b8152602001906001900390816117065790505b5091505b5090565b3373ffffffffffffffffffffffffffffffffffffffff16611749836120dc565b73ffffffffffffffffffffffffffffffffffffffff161461179f576040517f08c379a0000000000000000000000000000000000000000000000000000000008152600401611796906148f5565b60405180910390fd5b6117a8816120dc565b73ffffffffffffffffffffffffffffffffffffffff166117c7836120dc565b73ffffffffffffffffffffffffffffffffffffffff16141561181e576040517f08c379a000000000000000000000000000000000000000000000000000000000815260040161181590614c8d565b60405180910390fd5b600061182983610dd3565b9050600061183683610dd3565b90506000600160009054906101000a900473ffffffffffffffffffffffffffffffffffffffff1673ffffffffffffffffffffffffffffffffffffffff1663aa477cce846060015184606001518560a001516040518463ffffffff1660e01b81526004016118a593929190614cad565b602060405180830381600087803b1580156118bf57600080fd5b505af11580156118d3573d6000803e3d6000fd5b505050506040513d601f19601f820116820180604052508101906118f7919061496a565b905061190385826123aa565b5050505050565b611913826120dc565b73ffffffffffffffffffffffffffffffffffffffff163273ffffffffffffffffffffffffffffffffffffffff1614611980576040517f08c379a000000000000000000000000000000000000000000000000000000000815260040161197790614d32565b60405180910390fd5b8060076008600085815260200190815260200160002054815481106119a8576119a76145c7565b5b906000526020600020906006020160050160036101000a81548160ff0219169083151502179055507f6a0921deabd763b8789c5acb4605c886a6f98ea35c16c99d0954bea1b8ff83b68282604051611a01929190614d61565b60405180910390a15050565b60606000611a19610475565b9050611a23613985565b6000611a2e33611223565b83611a3991906147ac565b905060058111611b7c578067ffffffffffffffff811115611a5d57611a5c613e34565b5b604051908082528060200260200182016040528015611a9657816020015b611a836139f7565b815260200190600190039081611a7b5790505b5093506000805b84811015611b7557611aae81612a0d565b93503373ffffffffffffffffffffffffffffffffffffffff16611ad485600001516120dc565b73ffffffffffffffffffffffffffffffffffffffff1614611b62576040518060800160405280856000015181526020018560a0015160ff1681526020018560e001516002811115611b2857611b27614061565b5b81526020018560600151815250868381518110611b4857611b476145c7565b5b60200260200101819052508180611b5e90614bd2565b9250505b8080611b6d90614bd2565b915050611a9d565b5050611ced565b600567ffffffffffffffff811115611b9757611b96613e34565b5b604051908082528060200260200182016040528015611bd057816020015b611bbd6139f7565b815260200190600190039081611bb55790505b509350600080808590505b6005831015611ce95780611bed612c51565b611bf79190614db9565b915080821015611ce45760008290505b81811015611cdf57611c1881612a0d565b95503373ffffffffffffffffffffffffffffffffffffffff16611c3e87600001516120dc565b73ffffffffffffffffffffffffffffffffffffffff1614611ccc576040518060800160405280876000015181526020018760a0015160ff1681526020018760e001516002811115611c9257611c91614061565b5b81526020018760600151815250888581518110611cb257611cb16145c7565b5b60200260200101819052508380611cc890614bd2565b9450505b8080611cd790614bd2565b915050611c07565b508190505b611bdb565b5050505b50505090565b3373ffffffffffffffffffffffffffffffffffffffff16611d13836120dc565b73ffffffffffffffffffffffffffffffffffffffff16148015611d6957503373ffffffffffffffffffffffffffffffffffffffff16611d51826120dc565b73ffffffffffffffffffffffffffffffffffffffff16145b611da8576040517f08c379a0000000000000000000000000000000000000000000000000000000008152600401611d9f90614e5c565b60405180910390fd5b6000611db333610883565b9050600e548134611dc49190613b4a565b1015611e05576040517f08c379a0000000000000000000000000000000000000000000000000000000008152600401611dfc906149e3565b60405180910390fd5b6000611e1084610dd3565b90506000611e1d84610dd3565b90508060e001516002811115611e3657611e35614061565b5b8260e001516002811115611e4d57611e4c614061565b5b14611e8d576040517f08c379a0000000000000000000000000000000000000000000000000000000008152600401611e8490614ec8565b60405180910390fd5b34600460003373ffffffffffffffffffffffffffffffffffffffff1673ffffffffffffffffffffffffffffffffffffffff1681526020019081526020016000206000828254611edc9190613b4a565b92505081905550600e54600460003373ffffffffffffffffffffffffffffffffffffffff1673ffffffffffffffffffffffffffffffffffffffff1681526020019081526020016000206000828254611f3491906147ac565b9250508190555060008060009054906101000a900473ffffffffffffffffffffffffffffffffffffffff1673ffffffffffffffffffffffffffffffffffffffff1663c9a267f9846080015184608001516040518363ffffffff1660e01b8152600401611fa1929190614f3d565b60806040518083038186803b158015611fb957600080fd5b505afa158015611fcd573d6000803e3d6000fd5b505050506040513d601f19601f82011682018060405250810190611ff19190614fe4565b9050612004338787848660e0015161270b565b505050505050565b612015816120dc565b73ffffffffffffffffffffffffffffffffffffffff163373ffffffffffffffffffffffffffffffffffffffff1614612082576040517f08c379a00000000000000000000000000000000000000000000000000000000081526004016120799061505d565b60405180910390fd5b61208b81610dd3565b6101000151156120d0576040517f08c379a00000000000000000000000000000000000000000000000000000000081526004016120c7906150c9565b60405180910390fd5b6120d981612c87565b50565b600081600073ffffffffffffffffffffffffffffffffffffffff166002600083815260200190815260200160002060009054906101000a900473ffffffffffffffffffffffffffffffffffffffff1673ffffffffffffffffffffffffffffffffffffffff161415612182576040517f08c379a0000000000000000000000000000000000000000000000000000000008152600401612179906145a7565b60405180910390fd5b6002600084815260200190815260200160002060009054906101000a900473ffffffffffffffffffffffffffffffffffffffff16915050919050565b600060016121cb84611223565b6121d591906147ac565b90506000600a60008481526020019081526020016000205490508181146122ba576000600960008673ffffffffffffffffffffffffffffffffffffffff1673ffffffffffffffffffffffffffffffffffffffff168152602001908152602001600020600084815260200190815260200160002054905080600960008773ffffffffffffffffffffffffffffffffffffffff1673ffffffffffffffffffffffffffffffffffffffff16815260200190815260200160002060008481526020019081526020016000208190555081600a600083815260200190815260200160002081905550505b600a600084815260200190815260200160002060009055600960008573ffffffffffffffffffffffffffffffffffffffff1673ffffffffffffffffffffffffffffffffffffffff16815260200190815260200160002060008381526020019081526020016000206000905550505050565b600061233683611223565b905081600960008573ffffffffffffffffffffffffffffffffffffffff1673ffffffffffffffffffffffffffffffffffffffff16815260200190815260200160002060008381526020019081526020016000208190555080600a600084815260200190815260200160002081905550505050565b81600073ffffffffffffffffffffffffffffffffffffffff166002600083815260200190815260200160002060009054906101000a900473ffffffffffffffffffffffffffffffffffffffff1673ffffffffffffffffffffffffffffffffffffffff16141561244e576040517f08c379a0000000000000000000000000000000000000000000000000000000008152600401612445906145a7565b60405180910390fd5b60006008600085815260200190815260200160002054905060006007828154811061247c5761247b6145c7565b5b906000526020600020906006020190508360ff168160050160019054906101000a900460ff1660ff1611156124e857838160050160018282829054906101000a900460ff166124cb91906150e9565b92506101000a81548160ff021916908360ff160217905550612704565b600a8160050160009054906101000a900460ff1660ff1610156127035760018160050160008282829054906101000a900460ff16612526919061511d565b92506101000a81548160ff021916908360ff1602179055508060050160019054906101000a900460ff168461255b91906150e9565b600a8260050160009054906101000a900460ff166125799190615154565b61258391906150e9565b8160050160016101000a81548160ff021916908360ff1602179055506000816003016040518060800160405290816000820160009054906101000a900460ff1660ff1660ff1681526020016000820160019054906101000a900460ff1660ff1660ff1681526020016000820160029054906101000a900460ff1660ff1660ff1681526020016000820160039054906101000a900460ff1660ff1660ff1681525050905060006126c5836004016040518060800160405290816000820160009054906101000a900460ff1660ff1660ff1681526020016000820160019054906101000a900460ff1660ff1660ff1681526020016000820160029054906101000a900460ff1660ff1660ff1681526020016000820160039054906101000a900460ff1660ff1660ff16815250508460050160009054906101000a900460ff16612d6d565b90507ffb64211ffdbe0310d0426d37afda9651f66158bb717bdf0edcb572595ac27f4182826040516126f892919061518f565b60405180910390a150505b5b5050505050565b6000600d549050600d600081548092919061272590614bd2565b91905055506000612737846001612d6d565b90506000604051806101200160405280848152602001888152602001878152602001838152602001868152602001600160ff168152602001600a60ff16815260200185600281111561278c5761278b614061565b5b81526020016000151581525090506127a381612e1a565b6127ac57600080fd5b60006127b6610475565b9050600782908060018154018082558091505060019003906000526020600020906006020160009091909190915060008201518160000155602082015181600101556040820151816002015560608201518160030160008201518160000160006101000a81548160ff021916908360ff16021790555060208201518160000160016101000a81548160ff021916908360ff16021790555060408201518160000160026101000a81548160ff021916908360ff16021790555060608201518160000160036101000a81548160ff021916908360ff160217905550505060808201518160040160008201518160000160006101000a81548160ff021916908360ff16021790555060208201518160000160016101000a81548160ff021916908360ff16021790555060408201518160000160026101000a81548160ff021916908360ff16021790555060608201518160000160036101000a81548160ff021916908360ff160217905550505060a08201518160050160006101000a81548160ff021916908360ff16021790555060c08201518160050160016101000a81548160ff021916908360ff16021790555060e08201518160050160026101000a81548160ff0219169083600281111561298d5761298c614061565b5b02179055506101008201518160050160036101000a81548160ff02191690831515021790555050508060086000868152602001908152602001600020819055506129d78985612f19565b60006129e68360e0015161307e565b90506000815114156129f757600080fd5b612a0185826131c5565b50505050505050505050565b612a15613985565b612a1d610475565b8210612a5e576040517f08c379a0000000000000000000000000000000000000000000000000000000008152600401612a5590615205565b60405180910390fd5b60078281548110612a7257612a716145c7565b5b906000526020600020906006020160405180610120016040529081600082015481526020016001820154815260200160028201548152602001600382016040518060800160405290816000820160009054906101000a900460ff1660ff1660ff1681526020016000820160019054906101000a900460ff1660ff1660ff1681526020016000820160029054906101000a900460ff1660ff1660ff1681526020016000820160039054906101000a900460ff1660ff1660ff16815250508152602001600482016040518060800160405290816000820160009054906101000a900460ff1660ff1660ff1681526020016000820160019054906101000a900460ff1660ff1660ff1681526020016000820160029054906101000a900460ff1660ff1660ff1681526020016000820160039054906101000a900460ff1660ff1660ff168152505081526020016005820160009054906101000a900460ff1660ff1660ff1681526020016005820160019054906101000a900460ff1660ff1660ff1681526020016005820160029054906101000a900460ff166002811115612c1957612c18614061565b5b6002811115612c2b57612c2a614061565b5b81526020016005820160039054906101000a900460ff1615151515815250509050919050565b600044426000604051602001612c699392919061528e565b6040516020818303038152906040528051906020012060001c905090565b6000612c92826120dc565b9050612ca081600084613296565b6001600360008373ffffffffffffffffffffffffffffffffffffffff1673ffffffffffffffffffffffffffffffffffffffff1681526020019081526020016000206000828254612cf091906147ac565b925050819055506002600083815260200190815260200160002060006101000a81549073ffffffffffffffffffffffffffffffffffffffff02191690557fddf252ad1be2c89b69c2b068fc378daa952ba7f163c4a11628f55a4df523b3ef81600084604051612d61939291906147e0565b60405180910390a15050565b612d75613951565b612d7d613951565b826005612d8e866000015186613396565b612d98919061511d565b612da2919061511d565b816000019060ff16908160ff1681525050612dc1846060015184613396565b816060019060ff16908160ff1681525050612de0846040015184613396565b816040019060ff16908160ff1681525050612dff846020015184613396565b816020019060ff16908160ff16815250508091505092915050565b6000808260000151118015612e3a5750600082606001516000015160ff16115b8015612e515750600082606001516020015160ff16115b8015612e685750600082606001516040015160ff16115b8015612e7f5750600082606001516060015160ff16115b8015612e975750601f82608001516000015160ff1611155b8015612eaf5750601f82608001516020015160ff1611155b8015612ec75750601f82608001516040015160ff1611155b8015612edf5750601f82608001516060015160ff1611155b8015612ef35750600a8260a0015160ff1611155b8015612f07575060008260c0015160ff1614155b612f1057600080fd5b60019050919050565b600073ffffffffffffffffffffffffffffffffffffffff168273ffffffffffffffffffffffffffffffffffffffff161415612f89576040517f08c379a0000000000000000000000000000000000000000000000000000000008152600401612f8090615317565b60405180910390fd5b612f9560008383613296565b6001600360008473ffffffffffffffffffffffffffffffffffffffff1673ffffffffffffffffffffffffffffffffffffffff1681526020019081526020016000206000828254612fe59190613b4a565b92505081905550816002600083815260200190815260200160002060006101000a81548173ffffffffffffffffffffffffffffffffffffffff021916908373ffffffffffffffffffffffffffffffffffffffff1602179055507fddf252ad1be2c89b69c2b068fc378daa952ba7f163c4a11628f55a4df523b3ef60008383604051613072939291906147e0565b60405180910390a15050565b6060806000600281111561309557613094614061565b5b8360028111156130a8576130a7614061565b5b14156130eb576040518060400160405280601b81526020017f2e2e2f7075626c69632f696d616765732f647261676f6e2e706e67000000000081525090506131bc565b6002808111156130fe576130fd614061565b5b83600281111561311157613110614061565b5b1415613154576040518060400160405280601d81526020017f2e2e2f7075626c69632f696d616765732f676172676f796c652e706e6700000081525090506131bb565b6001600281111561316857613167614061565b5b83600281111561317b5761317a614061565b5b14156131ba576040518060400160405280601a81526020017f2e2e2f7075626c69632f696d616765732f67686f73742e706e6700000000000081525090505b5b5b80915050919050565b81600073ffffffffffffffffffffffffffffffffffffffff166002600083815260200190815260200160002060009054906101000a900473ffffffffffffffffffffffffffffffffffffffff1673ffffffffffffffffffffffffffffffffffffffff161415613269576040517f08c379a0000000000000000000000000000000000000000000000000000000008152600401613260906145a7565b60405180910390fd5b81600b60008581526020019081526020016000209080519060200190613290929190613a3a565b50505050565b600073ffffffffffffffffffffffffffffffffffffffff168373ffffffffffffffffffffffffffffffffffffffff1614156132d05761330f565b8173ffffffffffffffffffffffffffffffffffffffff168373ffffffffffffffffffffffffffffffffffffffff161461330e5761330d83826121be565b5b5b600073ffffffffffffffffffffffffffffffffffffffff168273ffffffffffffffffffffffffffffffffffffffff1614156133525761334d816133c4565b613391565b8273ffffffffffffffffffffffffffffffffffffffff168273ffffffffffffffffffffffffffffffffffffffff16146133905761338f828261232b565b5b5b505050565b60006005600a83856133a89190615154565b6133b29190615337565b6133bc919061511d565b905092915050565b600060016007805490506133d891906147ac565b9050600060086000848152602001908152602001600020549050600060078381548110613408576134076145c7565b5b906000526020600020906006020160405180610120016040529081600082015481526020016001820154815260200160028201548152602001600382016040518060800160405290816000820160009054906101000a900460ff1660ff1660ff1681526020016000820160019054906101000a900460ff1660ff1660ff1681526020016000820160029054906101000a900460ff1660ff1660ff1681526020016000820160039054906101000a900460ff1660ff1660ff16815250508152602001600482016040518060800160405290816000820160009054906101000a900460ff1660ff1660ff1681526020016000820160019054906101000a900460ff1660ff1660ff1681526020016000820160029054906101000a900460ff1660ff1660ff1681526020016000820160039054906101000a900460ff1660ff1660ff168152505081526020016005820160009054906101000a900460ff1660ff1660ff1681526020016005820160019054906101000a900460ff1660ff1660ff1681526020016005820160029054906101000a900460ff1660028111156135af576135ae614061565b5b60028111156135c1576135c0614061565b5b81526020016005820160039054906101000a900460ff161515151581525050905080600783815481106135f7576135f66145c7565b5b906000526020600020906006020160008201518160000155602082015181600101556040820151816002015560608201518160030160008201518160000160006101000a81548160ff021916908360ff16021790555060208201518160000160016101000a81548160ff021916908360ff16021790555060408201518160000160026101000a81548160ff021916908360ff16021790555060608201518160000160036101000a81548160ff021916908360ff160217905550505060808201518160040160008201518160000160006101000a81548160ff021916908360ff16021790555060208201518160000160016101000a81548160ff021916908360ff16021790555060408201518160000160026101000a81548160ff021916908360ff16021790555060608201518160000160036101000a81548160ff021916908360ff160217905550505060a08201518160050160006101000a81548160ff021916908360ff16021790555060c08201518160050160016101000a81548160ff021916908360ff16021790555060e08201518160050160026101000a81548160ff021916908360028111156137ae576137ad614061565b5b02179055506101008201518160050160036101000a81548160ff021916908315150217905550905050816008600083600001518152602001908152602001600020819055506008600085815260200190815260200160002060009055600780548061381c5761381b615368565b5b60019003818190600052602060002090600602016000808201600090556001820160009055600282016000905560038201600080820160006101000a81549060ff02191690556000820160016101000a81549060ff02191690556000820160026101000a81549060ff02191690556000820160036101000a81549060ff0219169055505060048201600080820160006101000a81549060ff02191690556000820160016101000a81549060ff02191690556000820160026101000a81549060ff02191690556000820160036101000a81549060ff021916905550506005820160006101000a81549060ff02191690556005820160016101000a81549060ff02191690556005820160026101000a81549060ff02191690556005820160036101000a81549060ff02191690555050905550505050565b6040518060800160405280600060ff168152602001600060ff168152602001600060ff168152602001600060ff1681525090565b6040518061012001604052806000815260200160008152602001600081526020016139ae613951565b81526020016139bb613ac0565b8152602001600060ff168152602001600060ff168152602001600060028111156139e8576139e7614061565b5b81526020016000151581525090565b604051806080016040528060008152602001600060ff16815260200160006002811115613a2757613a26614061565b5b8152602001613a34613951565b81525090565b828054613a46906153c6565b90600052602060002090601f016020900481019282613a685760008555613aaf565b82601f10613a8157805160ff1916838001178555613aaf565b82800160010185558215613aaf579182015b82811115613aae578251825591602001919060010190613a93565b5b509050613abc9190613af4565b5090565b6040518060800160405280600060ff168152602001600060ff168152602001600060ff168152602001600060ff1681525090565b5b80821115613b0d576000816000905550600101613af5565b5090565b6000819050919050565b7f4e487b7100000000000000000000000000000000000000000000000000000000600052601160045260246000fd5b6000613b5582613b11565b9150613b6083613b11565b9250827fffffffffffffffffffffffffffffffffffffffffffffffffffffffffffffffff03821115613b9557613b94613b1b565b5b828201905092915050565b600073ffffffffffffffffffffffffffffffffffffffff82169050919050565b6000613bcb82613ba0565b9050919050565b613bdb81613bc0565b82525050565b613bea81613b11565b82525050565b6000604082019050613c056000830185613bd2565b613c126020830184613be1565b9392505050565b6000602082019050613c2e6000830184613be1565b92915050565b6000604051905090565b600080fd5b600080fd5b613c5181613b11565b8114613c5c57600080fd5b50565b600081359050613c6e81613c48565b92915050565b600060208284031215613c8a57613c89613c3e565b5b6000613c9884828501613c5f565b91505092915050565b600060ff82169050919050565b613cb781613ca1565b82525050565b608082016000820151613cd36000850182613cae565b506020820151613ce66020850182613cae565b506040820151613cf96040850182613cae565b506060820151613d0c6060850182613cae565b50505050565b6000608082019050613d276000830184613cbd565b92915050565b613d3681613bc0565b8114613d4157600080fd5b50565b600081359050613d5381613d2d565b92915050565b600080600060608486031215613d7257613d71613c3e565b5b6000613d8086828701613d44565b9350506020613d9186828701613d44565b9250506040613da286828701613c5f565b9150509250925092565b600060208284031215613dc257613dc1613c3e565b5b6000613dd084828501613d44565b91505092915050565b60008060408385031215613df057613def613c3e565b5b6000613dfe85828601613c5f565b9250506020613e0f85828601613c5f565b9150509250929050565b600080fd5b600080fd5b6000601f19601f8301169050919050565b7f4e487b7100000000000000000000000000000000000000000000000000000000600052604160045260246000fd5b613e6c82613e23565b810181811067ffffffffffffffff82111715613e8b57613e8a613e34565b5b80604052505050565b6000613e9e613c34565b9050613eaa8282613e63565b919050565b600067ffffffffffffffff821115613eca57613ec9613e34565b5b613ed382613e23565b9050602081019050919050565b82818337600083830152505050565b6000613f02613efd84613eaf565b613e94565b905082815260208101848484011115613f1e57613f1d613e1e565b5b613f29848285613ee0565b509392505050565b600082601f830112613f4657613f45613e19565b5b8135613f56848260208601613eef565b91505092915050565b600060208284031215613f7557613f74613c3e565b5b600082013567ffffffffffffffff811115613f9357613f92613c43565b5b613f9f84828501613f31565b91505092915050565b613fb181613b11565b82525050565b608082016000820151613fcd6000850182613cae565b506020820151613fe06020850182613cae565b506040820151613ff36040850182613cae565b5060608201516140066060850182613cae565b50505050565b6080820160008201516140226000850182613cae565b5060208201516140356020850182613cae565b5060408201516140486040850182613cae565b50606082015161405b6060850182613cae565b50505050565b7f4e487b7100000000000000000000000000000000000000000000000000000000600052602160045260246000fd5b600381106140a1576140a0614061565b5b50565b60008190506140b282614090565b919050565b60006140c2826140a4565b9050919050565b6140d2816140b7565b82525050565b60008115159050919050565b6140ed816140d8565b82525050565b6101e08201600082015161410a6000850182613fa8565b50602082015161411d6020850182613fa8565b5060408201516141306040850182613fa8565b5060608201516141436060850182613fb7565b50608082015161415660e085018261400c565b5060a082015161416a610160850182613cae565b5060c082015161417e610180850182613cae565b5060e08201516141926101a08501826140c9565b506101008201516141a76101c08501826140e4565b50505050565b60006101e0820190506141c360008301846140f3565b92915050565b6141d281613ca1565b82525050565b6141e1816140b7565b82525050565b600060e0820190506141fc6000830187613bd2565b61420960208301866141c9565b6142166040830185613cbd565b61422360c08301846141d8565b95945050505050565b600081519050919050565b600082825260208201905092915050565b6000819050602082019050919050565b6101e08201600082015161426f6000850182613fa8565b5060208201516142826020850182613fa8565b5060408201516142956040850182613fa8565b5060608201516142a86060850182613fb7565b5060808201516142bb60e085018261400c565b5060a08201516142cf610160850182613cae565b5060c08201516142e3610180850182613cae565b5060e08201516142f76101a08501826140c9565b5061010082015161430c6101c08501826140e4565b50505050565b600061431e8383614258565b6101e08301905092915050565b6000602082019050919050565b60006143438261422c565b61434d8185614237565b935061435883614248565b8060005b838110156143895781516143708882614312565b975061437b8361432b565b92505060018101905061435c565b5085935050505092915050565b600060208201905081810360008301526143b08184614338565b905092915050565b6143c1816140d8565b81146143cc57600080fd5b50565b6000813590506143de816143b8565b92915050565b600080604083850312156143fb576143fa613c3e565b5b600061440985828601613c5f565b925050602061441a858286016143cf565b9150509250929050565b600081519050919050565b600082825260208201905092915050565b6000819050602082019050919050565b60e0820160008201516144666000850182613fa8565b5060208201516144796020850182613cae565b50604082015161448c60408501826140c9565b50606082015161449f6060850182613fb7565b50505050565b60006144b18383614450565b60e08301905092915050565b6000602082019050919050565b60006144d582614424565b6144df818561442f565b93506144ea83614440565b8060005b8381101561451b57815161450288826144a5565b975061450d836144bd565b9250506001810190506144ee565b5085935050505092915050565b6000602082019050818103600083015261454281846144ca565b905092915050565b600082825260208201905092915050565b7f746f6b656e20646f6573206e6f74206578697374000000000000000000000000600082015250565b600061459160148361454a565b915061459c8261455b565b602082019050919050565b600060208201905081810360008301526145c081614584565b9050919050565b7f4e487b7100000000000000000000000000000000000000000000000000000000600052603260045260246000fd5b7f6f6e6c79207768656e2066726f6d20697320746865206f776e6572206f66207460008201527f686973206d6f6e73746572000000000000000000000000000000000000000000602082015250565b6000614652602b8361454a565b915061465d826145f6565b604082019050919050565b6000602082019050818103600083015261468181614645565b9050919050565b7f6f6e6c79207472616e73666572207768656e2074686973206d6f6e737465722060008201527f6973206f6e2073616c6500000000000000000000000000000000000000000000602082015250565b60006146e4602a8361454a565b91506146ef82614688565b604082019050919050565b60006020820190508181036000830152614713816146d7565b9050919050565b7f6f6e6c79207472616e73666572207768656e2062757965722073656e6420612060008201527f7472616e73616374696f6e000000000000000000000000000000000000000000602082015250565b6000614776602b8361454a565b91506147818261471a565b604082019050919050565b600060208201905081810360008301526147a581614769565b9050919050565b60006147b782613b11565b91506147c283613b11565b9250828210156147d5576147d4613b1b565b5b828203905092915050565b60006060820190506147f56000830186613bd2565b6148026020830185613bd2565b61480f6040830184613be1565b949350505050565b7f6465706f73697420717565727920666f7220746865207a65726f20616464726560008201527f7373000000000000000000000000000000000000000000000000000000000000602082015250565b600061487360228361454a565b915061487e82614817565b604082019050919050565b600060208201905081810360008301526148a281614866565b9050919050565b7f6f6e6c79206f776e65722063616e207374617274206120666967687400000000600082015250565b60006148df601c8361454a565b91506148ea826148a9565b602082019050919050565b6000602082019050818103600083015261490e816148d2565b9050919050565b600060a08201905061492a6000830185613cbd565b6149376080830184613be1565b9392505050565b61494781613ca1565b811461495257600080fd5b50565b6000815190506149648161493e565b92915050565b6000602082840312156149805761497f613c3e565b5b600061498e84828501614955565b91505092915050565b7f73686f756c64206861766520656e6f756768206d6f6e65790000000000000000600082015250565b60006149cd60188361454a565b91506149d882614997565b602082019050919050565b600060208201905081810360008301526149fc816149c0565b9050919050565b600081905092915050565b7f647261676f6e0000000000000000000000000000000000000000000000000000600082015250565b6000614a44600683614a03565b9150614a4f82614a0e565b600682019050919050565b6000614a6582614a37565b9150819050919050565b600081519050919050565b60005b83811015614a98578082015181840152602081019050614a7d565b83811115614aa7576000848401525b50505050565b6000614ab882614a6f565b614ac28185614a03565b9350614ad2818560208601614a7a565b80840191505092915050565b6000614aea8284614aad565b915081905092915050565b7f67686f7374000000000000000000000000000000000000000000000000000000600082015250565b6000614b2b600583614a03565b9150614b3682614af5565b600582019050919050565b6000614b4c82614b1e565b9150819050919050565b7f676172676f796c65000000000000000000000000000000000000000000000000600082015250565b6000614b8c600883614a03565b9150614b9782614b56565b600882019050919050565b6000614bad82614b7f565b9150819050919050565b6000602082019050614bcc6000830184613bd2565b92915050565b6000614bdd82613b11565b91507fffffffffffffffffffffffffffffffffffffffffffffffffffffffffffffffff821415614c1057614c0f613b1b565b5b600182019050919050565b7f74776f20706c61796572732073686f756c64206861766520646966666572656e60008201527f74206f776e657273000000000000000000000000000000000000000000000000602082015250565b6000614c7760288361454a565b9150614c8282614c1b565b604082019050919050565b60006020820190508181036000830152614ca681614c6a565b9050919050565b600061012082019050614cc36000830186613cbd565b614cd06080830185613cbd565b614cde6101008301846141c9565b949350505050565b7f6f6e6c79206f776e65722063616e206c6f636b206f7220756e6c6f636b000000600082015250565b6000614d1c601d8361454a565b9150614d2782614ce6565b602082019050919050565b60006020820190508181036000830152614d4b81614d0f565b9050919050565b614d5b816140d8565b82525050565b6000604082019050614d766000830185613be1565b614d836020830184614d52565b9392505050565b7f4e487b7100000000000000000000000000000000000000000000000000000000600052601260045260246000fd5b6000614dc482613b11565b9150614dcf83613b11565b925082614ddf57614dde614d8a565b5b828206905092915050565b7f746865206f776e6572206f6620626f746820706172656e74732073686f756c6460008201527f206265207468652073656e646572000000000000000000000000000000000000602082015250565b6000614e46602e8361454a565b9150614e5182614dea565b604082019050919050565b60006020820190508181036000830152614e7581614e39565b9050919050565b7f73686f756c642068617665207468652073616d65207261636500000000000000600082015250565b6000614eb260198361454a565b9150614ebd82614e7c565b602082019050919050565b60006020820190508181036000830152614ee181614ea5565b9050919050565b608082016000820151614efe6000850182613cae565b506020820151614f116020850182613cae565b506040820151614f246040850182613cae565b506060820151614f376060850182613cae565b50505050565b600061010082019050614f536000830185614ee8565b614f606080830184614ee8565b9392505050565b600080fd5b600060808284031215614f8257614f81614f67565b5b614f8c6080613e94565b90506000614f9c84828501614955565b6000830152506020614fb084828501614955565b6020830152506040614fc484828501614955565b6040830152506060614fd884828501614955565b60608301525092915050565b600060808284031215614ffa57614ff9613c3e565b5b600061500884828501614f6c565b91505092915050565b7f6f6e6c79206f776e65722063616e2064656c6574650000000000000000000000600082015250565b600061504760158361454a565b915061505282615011565b602082019050919050565b600060208201905081810360008301526150768161503a565b9050919050565b7f74686973206d6f6e73746572206973206c6f636b656400000000000000000000600082015250565b60006150b360168361454a565b91506150be8261507d565b602082019050919050565b600060208201905081810360008301526150e2816150a6565b9050919050565b60006150f482613ca1565b91506150ff83613ca1565b92508282101561511257615111613b1b565b5b828203905092915050565b600061512882613ca1565b915061513383613ca1565b92508260ff0382111561514957615148613b1b565b5b828201905092915050565b600061515f82613ca1565b915061516a83613ca1565b92508160ff048311821515161561518457615183613b1b565b5b828202905092915050565b6000610100820190506151a56000830185613cbd565b6151b26080830184613cbd565b9392505050565b7f7468697320696e64657820657863656564000000000000000000000000000000600082015250565b60006151ef60118361454a565b91506151fa826151b9565b602082019050919050565b6000602082019050818103600083015261521e816151e2565b9050919050565b6000819050919050565b61524061523b82613b11565b615225565b82525050565b60008160601b9050919050565b600061525e82615246565b9050919050565b600061527082615253565b9050919050565b61528861528382613bc0565b615265565b82525050565b600061529a828661522f565b6020820191506152aa828561522f565b6020820191506152ba8284615277565b601482019150819050949350505050565b7f4552433732313a206d696e7420746f20746865207a65726f2061646472657373600082015250565b600061530160208361454a565b915061530c826152cb565b602082019050919050565b60006020820190508181036000830152615330816152f4565b9050919050565b600061534282613ca1565b915061534d83613ca1565b92508261535d5761535c614d8a565b5b828204905092915050565b7f4e487b7100000000000000000000000000000000000000000000000000000000600052603160045260246000fd5b7f4e487b7100000000000000000000000000000000000000000000000000000000600052602260045260246000fd5b600060028204905060018216806153de57607f821691505b602082108114156153f2576153f1615397565b5b5091905056fea26469706673582212206ef778609c72490d2e2a3e5b6b8466d6009192ca888b26e25384392678f4b2e464736f6c63430008090033",
  "immutableReferences": {},
  "source": "//SPDX-License-Identifier: UNLICENSED\r\npragma solidity ^0.8.9;\r\n\r\nimport \"../node_modules/@openzeppelin/contracts/token/ERC721/extensions/ERC721URIStorage.sol\";\r\nimport \"../node_modules/@openzeppelin/contracts/utils/Address.sol\";\r\nimport \"../node_modules/@openzeppelin/contracts/utils/Context.sol\";\r\nimport \"../node_modules/@openzeppelin/contracts/utils/Strings.sol\";\r\nimport \"./MonsterLib.sol\";\r\nimport \"./MonsterFactory.sol\";\r\nimport \"./MonsterBattle.sol\";\r\n\r\ncontract MonsterToken {\r\n\r\n    MonsterFactory _monsterFactory;\r\n    MonsterBattle _monsterBattle;\r\n     \r\n    using Address for address;\r\n    using Strings for uint256;\r\n\r\n    event LevelUp(MonsterLib.Statistics, MonsterLib.Statistics);\r\n    event TransferMoney(address, address, uint);\r\n    event LockMonster(uint, bool);\r\n    event MonsterInMarket(uint);\r\n    event DifferentRace(MonsterLib.Race, MonsterLib.Race);\r\n    event Transfer(address, address, uint256);\r\n    event ReadyToCreate(address);\r\n\r\n    struct Competitor{\r\n        uint256 tokenId;\r\n        uint8 level;\r\n        MonsterLib.Race race;\r\n        MonsterLib.Statistics statc;\r\n    }\r\n\r\n    string constant imagePath = \"../public/images/\";\r\n\r\n    event ReceiveEth(address from, uint256 amount);\r\n\r\n    // Mapping from token ID to owner address\r\n    mapping(uint256 => address) private _owners;\r\n\r\n    // Mapping owner address to token count\r\n    mapping(address => uint256) private _balances;\r\n    \r\n    \r\n    // Mapping owner address to ETH balance\r\n    mapping(address => uint) private _deposit;\r\n\r\n    // Mapping from token ID to approved address\r\n    mapping(uint256 => address) private _tokenApprovals;\r\n\r\n    // Mapping from owner to operator approvals\r\n    mapping(address => mapping(address => bool)) private _operatorApprovals;\r\n\r\n    // Array with all token ids, used for enumeration\r\n    MonsterLib.Monster[] private _allMonsters;\r\n\r\n    // Mapping from token id to position in the allTokens array\r\n    mapping(uint256 => uint256) private _allTokensIndex;\r\n\r\n    // Mapping from owner to list of owned token IDs\r\n    mapping(address => mapping(uint256 => uint256)) private _ownedTokens;\r\n\r\n    // Mapping from token ID to index of the owner tokens list\r\n    mapping(uint256 => uint256) private _ownedTokensIndex;\r\n\r\n    // Optional mapping for token URIs\r\n    mapping(uint256 => string) private _tokenURIs;\r\n\r\n    //True when some one storing their new monsters\r\n    bool isPushing;\r\n\r\n    uint256 private IdCount;\r\n\r\n    uint256 private createFee;\r\n\r\n    MonsterLib.IndividualValue initialIV = MonsterLib.IndividualValue(5,5,5,5);\r\n\r\n    constructor(address _monsterFactoryAddress, address _monsterBattleAddress) {\r\n        require(_monsterBattleAddress != address(0) && _monsterFactoryAddress != address(0));\r\n        IdCount = 1;\r\n        isPushing = false;\r\n        _setContract(_monsterFactoryAddress, _monsterBattleAddress);\r\n        createFee = 2 ether;\r\n\r\n    }\r\n\r\n    function _setContract(address _monsterFactoryAddress, address _monsterBattleAddress) internal {\r\n        _monsterFactory = MonsterFactory(_monsterFactoryAddress);\r\n        _monsterBattle = MonsterBattle(_monsterBattleAddress);\r\n    }\r\n\r\n    modifier tokenExist(uint256 _tokenId){\r\n        require(_owners[_tokenId] != address(0),\"token does not exist\");\r\n        _;\r\n    }\r\n\r\n    modifier onlyOwnerOrThis(address _from){\r\n        require(msg.sender == _from || msg.sender == address(this));\r\n        _;\r\n    }\r\n\r\n\r\n    function depositOf(address owner) public view returns (uint256){\r\n        require(owner == tx.origin);\r\n        require(owner != address(0), \"deposit query for the zero address\");\r\n        return _deposit[owner];\r\n    }\r\n\r\n    function totalSupply() public view returns (uint256){\r\n        return _allMonsters.length;\r\n    }\r\n    /**\r\n     *@dev Pay ETH to get a default monster from contract\r\n     */\r\n    function getInitialMonster(string memory race) public payable{\r\n        _deposit[msg.sender] += msg.value;\r\n        require(_deposit[msg.sender] >= createFee, \"should have enough money\");\r\n        _deposit[msg.sender] -= createFee;\r\n        MonsterLib.Race _race;\r\n        if(keccak256(abi.encodePacked(race)) == keccak256(abi.encodePacked('dragon'))) _race = MonsterLib.Race.DRAGON;\r\n        else if(keccak256(abi.encodePacked(race)) == keccak256(abi.encodePacked('ghost'))) _race = MonsterLib.Race.GHOST;\r\n        else if(keccak256(abi.encodePacked(race)) == keccak256(abi.encodePacked('gargoyle'))) _race = MonsterLib.Race.GARGOYLE;\r\n        else {revert();}\r\n        emit ReadyToCreate(msg.sender);\r\n        _createNewMonster(msg.sender, 0, 0,initialIV, _race);\r\n\r\n    }\r\n\r\n    /**\r\n     *@dev create a new monster from contract, this monter can be default monster or come from breeding\r\n     */\r\n\r\n    function _createNewMonster(address to, uint256 mumId, uint256 dadId, MonsterLib.IndividualValue memory iv, MonsterLib.Race race) internal {\r\n        \r\n        \r\n        uint256 _monsterId = IdCount;\r\n        IdCount ++;\r\n        MonsterLib.Statistics memory statc = MonsterLib._calculateStatc(iv, 1);\r\n        MonsterLib.Monster memory monster = MonsterLib.Monster(_monsterId, mumId, dadId, statc, iv, 1, 1*10, race,false);\r\n        require(MonsterLib._checkMonsterValid(monster));\r\n        uint256 _monsterIndex = totalSupply() ;\r\n        _allMonsters.push(monster);\r\n        _allTokensIndex[_monsterId] = _monsterIndex;\r\n        _mint(to, _monsterId);\r\n        string memory _monsterURI = _monsterURIByRace(monster.race);\r\n        require (bytes(_monsterURI).length != 0);\r\n        _setTokenURI(_monsterId, _monsterURI);\r\n    }\r\n\r\n    /**\r\n     * @dev Mints `tokenId` and transfers it to `to`.\r\n     *\r\n     * WARNING: Usage of this method is discouraged, use {_safeMint} whenever possible\r\n     *\r\n     * Requirements:\r\n     *\r\n     * - `tokenId` must not exist.\r\n     * - `to` cannot be the zero address.\r\n     *\r\n     * Emits a {Transfer} event.\r\n     */\r\n    function _mint(address to, uint256 tokenId)  internal virtual {\r\n        require(to != address(0), \"ERC721: mint to the zero address\");\r\n\r\n        _beforeTokenTransfer(address(0), to, tokenId);\r\n\r\n        _balances[to] += 1;\r\n        _owners[tokenId] = to;\r\n\r\n        emit Transfer(address(0), to, tokenId);\r\n    }\r\n\r\n    function _setTokenURI(uint256 _monsterId, string memory _monsterURI) tokenExist(_monsterId) internal {\r\n        _tokenURIs[_monsterId] = _monsterURI;\r\n    }\r\n\r\n\r\n\r\n        /**\r\n     * @dev Hook that is called before any token transfer. This includes minting\r\n     * and burning.\r\n     *\r\n     * Calling conditions:\r\n     *\r\n     * - When `from` and `to` are both non-zero, ``from``'s `tokenId` will be\r\n     * transferred to `to`.\r\n     * - When `from` is zero, `tokenId` will be minted for `to`.\r\n     * - When `to` is zero, ``from``'s `tokenId` will be burned.\r\n     * - `from` cannot be the zero address.\r\n     * - `to` cannot be the zero address.\r\n     *\r\n     * To learn more about hooks, head to xref:ROOT:extending-contracts.adoc#using-hooks[Using Hooks].\r\n     */\r\n    function _beforeTokenTransfer(\r\n        address from,\r\n        address to,\r\n        uint256 tokenId\r\n    ) internal {\r\n\r\n        if (from == address(0)) {\r\n            //This monster has been added before\r\n        } else if (from != to) {\r\n            _removeMonsterFromOwnerEnumeration(from, tokenId);\r\n        }\r\n        if (to == address(0)) {\r\n            _removeMonsterFromAllTokensEnumeration(tokenId);\r\n        } else if (to != from) {\r\n            _addMonsterToOwnerEnumeration(to, tokenId);\r\n        }\r\n    }    \r\n    /**\r\n     * @dev Private function to remove a token from this extension's ownership-tracking data structures. Note that\r\n     * while the token is not assigned a new owner, the `_ownedTokensIndex` mapping is _not_ updated: this allows for\r\n     * gas optimizations e.g. when performing a transfer operation (avoiding double writes).\r\n     * This has O(1) time complexity, but alters the order of the _ownedTokens array.\r\n     * @param from address representing the previous owner of the given token ID\r\n     * @param tokenId uint256 ID of the token to be removed from the tokens list of the given address\r\n     */\r\n    function _removeMonsterFromOwnerEnumeration(address from, uint256 tokenId) internal {\r\n        // To prevent a gap in from's tokens array, we store the last token in the index of the token to delete, and\r\n        // then delete the last slot (swap and pop).\r\n\r\n        uint256 lastTokenIndex = balanceOf(from) - 1;\r\n        uint256 tokenIndex = _ownedTokensIndex[tokenId];\r\n\r\n        // When the token to delete is the last token, the swap operation is unnecessary\r\n        if (tokenIndex != lastTokenIndex) {\r\n            uint256 lastTokenId = _ownedTokens[from][lastTokenIndex];\r\n\r\n            _ownedTokens[from][tokenIndex] = lastTokenId; // Move the last token to the slot of the to-delete token\r\n            _ownedTokensIndex[lastTokenId] = tokenIndex; // Update the moved token's index\r\n        }\r\n\r\n        // This also deletes the contents at the last position of the array\r\n        delete _ownedTokensIndex[tokenId];\r\n        delete _ownedTokens[from][lastTokenIndex];\r\n    }\r\n\r\n    /**\r\n     * @dev Private function to remove a token from this extension's token tracking data structures.\r\n     * This has O(1) time complexity, but alters the order of the _allTokens array.\r\n     * @param tokenId uint256 ID of the token to be removed from the tokens list\r\n     */\r\n    function _removeMonsterFromAllTokensEnumeration(uint256 tokenId) internal  {\r\n        // To prevent a gap in the tokens array, we store the last token in the index of the token to delete, and\r\n        // then delete the last slot (swap and pop).\r\n\r\n        uint256 lastTokenIndex = _allMonsters.length - 1;\r\n        uint256 tokenIndex = _allTokensIndex[tokenId];\r\n\r\n        // When the token to delete is the last token, the swap operation is unnecessary. However, since this occurs so\r\n        // rarely (when the last minted token is burnt) that we still do the swap here to avoid the gas cost of adding\r\n        // an 'if' statement (like in _removeTokenFromOwnerEnumeration)\r\n        MonsterLib.Monster memory lastMonster = _allMonsters[lastTokenIndex];\r\n\r\n        _allMonsters[tokenIndex] = lastMonster; // Move the last token to the slot of the to-delete token\r\n        _allTokensIndex[lastMonster.tokenId] = tokenIndex; // Update the moved token's index\r\n\r\n        // This also deletes the contents at the last position of the array\r\n        delete _allTokensIndex[tokenId];\r\n        _allMonsters.pop();\r\n    }\r\n\r\n    /**\r\n     * @dev Private function to add a token to this extension's ownership-tracking data structures.\r\n     * @param to address representing the new owner of the given token ID\r\n     * @param tokenId uint256 ID of the token to be added to the tokens list of the given address\r\n     */\r\n    function _addMonsterToOwnerEnumeration(address to, uint256 tokenId) internal{\r\n        uint256 length = balanceOf(to);\r\n        _ownedTokens[to][length] = tokenId;\r\n        _ownedTokensIndex[tokenId] = length;\r\n    }\r\n\r\n    function balanceOf(address _owner) public onlyOwnerOrThis(_owner) view returns(uint256 balance){\r\n        balance = _balances[_owner];\r\n    }\r\n\r\n\r\n\r\n\r\n    function _monsterURIByRace(MonsterLib.Race _race) internal pure returns(string memory){\r\n        string memory _monsterURI;\r\n        if(_race == MonsterLib.Race.DRAGON) _monsterURI =\"../public/images/dragon.png\" ;\r\n        else if(_race == MonsterLib.Race.GARGOYLE) _monsterURI =\"../public/images/gargoyle.png\";\r\n        else if (_race == MonsterLib.Race.GHOST) _monsterURI =\"../public/images/ghost.png\";\r\n        return _monsterURI;\r\n    }\r\n    \r\n    receive() external payable{\r\n        _deposit[msg.sender] += msg.value;\r\n        emit ReceiveEth(msg.sender, msg.value);\r\n\r\n    }\r\n\r\n    /**\r\n     * Used for buyer want to check more detailed information in the market\r\n     */\r\n     function getStatics(uint256 _tokenId) public view tokenExist(_tokenId) returns(MonsterLib.Statistics memory){\r\n         uint256 _tokenIndex = _allTokensIndex[_tokenId];\r\n        return _allMonsters[_tokenIndex].statc;\r\n\r\n     }\r\n\r\n     /**\r\n      * \r\n      */\r\n    function getProductInfo(uint256 _tokenId) public view tokenExist(_tokenId) returns(address, uint8, MonsterLib.Statistics memory, MonsterLib.Race){\r\n        uint256 _tokenIndex = _allTokensIndex[_tokenId];\r\n        MonsterLib.Monster memory monster = _allMonsters[_tokenIndex];\r\n        address owner = ownerOf(_tokenId);\r\n        return (owner, monster.level, monster.statc,monster.race);\r\n    }\r\n\r\n    function ownerOf(uint256 _tokenId) internal tokenExist(_tokenId) view returns(address owner){\r\n        owner = _owners[_tokenId];\r\n    }\r\n\r\n    function monsterById(uint256 _tokenId) public view tokenExist(_tokenId) returns (MonsterLib.Monster memory){\r\n        uint256 _tokenIndex = _allTokensIndex[_tokenId];\r\n        return _allMonsters[_tokenIndex];\r\n    }\r\n\r\n    function _monsterByIndex(uint256 _tokenIndex) internal view returns (MonsterLib.Monster memory){\r\n        require(_tokenIndex < totalSupply() , \"this index exceed\");\r\n        return _allMonsters[_tokenIndex];\r\n    }\r\n\r\n    function _updateExp(uint256 _tokenId, uint8 exp) internal tokenExist(_tokenId){\r\n        uint256 _tokenIndex = _allTokensIndex[_tokenId];\r\n        MonsterLib.Monster storage monster = _allMonsters[_tokenIndex];\r\n        if(monster.expNeedToNext > exp) monster.expNeedToNext -= exp;\r\n        else{\r\n            if(monster.level < 10){\r\n                monster.level += 1;\r\n                monster.expNeedToNext = monster.level * 10 - (exp -  monster.expNeedToNext);\r\n                MonsterLib.Statistics memory _oldStatc = monster.statc;\r\n                MonsterLib.Statistics memory _newStatc = MonsterLib._calculateStatc(monster.iv, monster.level);\r\n                emit LevelUp(_oldStatc, _newStatc);\r\n            }\r\n        }\r\n\r\n    }\r\n\r\n    function transferMoney(address _from, address _to, uint _value) external {\r\n        require(tx.origin == _from);\r\n        require(_to != address(0) && _from != address(0));\r\n        _deposit[_from] -= _value;\r\n        _deposit[_to] += _value;\r\n        emit TransferMoney(_from, _to, _value);\r\n    }\r\n\r\n    function transferFrom(address _from, address _to,uint _tokenId) public{\r\n        require(ownerOf(_tokenId) == _from, \"only when from is the owner of this monster\");\r\n        require (monsterById(_tokenId).isLocked, \"only transfer when this monster is on sale\");\r\n        require( tx.origin == _to, \"only transfer when buyer send a transaction\");\r\n        _removeMonsterFromOwnerEnumeration(_from, _tokenId);\r\n        _addMonsterToOwnerEnumeration(_to, _tokenId);\r\n        _balances[_from] -= 1;\r\n        _balances[_to] += 1;\r\n        _owners[_tokenId] = _to;\r\n        lockMonster(_tokenId, false);\r\n        emit Transfer(_from, _to, _tokenId);\r\n    }\r\n    \r\n    /**\r\n     * @dev Transfers `tokenId` from `from` to `to`.\r\n     *  As opposed to {transferFrom}, this imposes no restrictions on msg.sender.\r\n     *\r\n     * Requirements:\r\n     *\r\n     * - `to` cannot be the zero address.\r\n     * - `tokenId` token must be owned by `from`.\r\n     *\r\n     * Emits a {Transfer} event.\r\n     */\r\n    // function _transfer(\r\n    //     address from,\r\n    //     address to,\r\n    //     uint256 tokenId\r\n    // ) internal {\r\n    //     require(ownerOf(tokenId) == from, \"ERC721: transfer from incorrect owner\");\r\n    //     require(to != address(0), \"ERC721: transfer to the zero address\");\r\n\r\n    //     _beforeTokenTransfer(from, to, tokenId);\r\n\r\n    //     _balances[from] -= 1;\r\n    //     _balances[to] += 1;\r\n    //     _owners[tokenId] = to;\r\n    //     lockMonster(tokenId, false);\r\n    //     emit Transfer(from, to, tokenId);\r\n    // }\r\n\r\n    function lockMonster(uint _tokenId, bool _locked) public {\r\n        require(tx.origin == ownerOf(_tokenId), \"only owner can lock or unlock\");\r\n        _allMonsters[_allTokensIndex[_tokenId]].isLocked = _locked;\r\n        emit LockMonster(_tokenId,_locked);\r\n    }\r\n\r\n    function getOwnedMonster() public view returns (MonsterLib.Monster[] memory monsters) {\r\n        uint _ownedCount = balanceOf(msg.sender);\r\n        if(_ownedCount != 0){\r\n            monsters = new MonsterLib.Monster[](_ownedCount);\r\n            for(uint i = 0; i < _ownedCount; i++){\r\n                monsters[i] = monsterById(_ownedTokens[msg.sender][i]);\r\n            }\r\n        }\r\n        else monsters = new MonsterLib.Monster[](0);\r\n\r\n    }\r\n\r\n\r\n    function deleteMonster(uint _monsterId) public {\r\n        require(msg.sender == ownerOf(_monsterId),\"only owner can delete\");\r\n        require(!monsterById(_monsterId).isLocked,\"this monster is locked\");\r\n        _burn(_monsterId);\r\n    }\r\n\r\n        /**\r\n     * @dev Destroys `tokenId`.\r\n     * The approval is cleared when the token is burned.\r\n     *\r\n     * Requirements:\r\n     *\r\n     * - `tokenId` must exist.\r\n     *\r\n     * Emits a {Transfer} event.\r\n     */\r\n    function _burn(uint256 tokenId) internal {\r\n        address owner = ownerOf(tokenId);\r\n\r\n        _beforeTokenTransfer(owner, address(0), tokenId);\r\n\r\n        _balances[owner] -= 1;\r\n        delete _owners[tokenId];\r\n\r\n        emit Transfer(owner, address(0), tokenId);\r\n    }\r\n\r\n    function breed(uint _mumId, uint _dadId) payable public {\r\n        require(ownerOf(_mumId) == msg.sender && ownerOf(_dadId) == msg.sender, \"the owner of both parents should be the sender\");\r\n        uint256 _depo = depositOf(msg.sender);         \r\n        require(msg.value + _depo >= createFee, \"should have enough money\");\r\n        MonsterLib.Monster memory _mum = monsterById(_mumId);\r\n        MonsterLib.Monster memory _dad = monsterById(_dadId);\r\n        require(_mum.race == _dad.race,\"should have the same race\");\r\n        _deposit[msg.sender] += msg.value;\r\n        _deposit[msg.sender] -= createFee;\r\n        MonsterLib.IndividualValue memory _childIv = _monsterFactory.getChild(_mum.iv, _dad.iv);\r\n        _createNewMonster(msg.sender, _mumId, _dadId, _childIv, _dad.race);\r\n    \r\n\r\n    }\r\n\r\n    /**\r\n     * @dev Pick five competitors randomly from existing monsters\r\n     * Cannot pick those monster whose owner is msg.sender\r\n     */\r\n    function pickCompetitionRandomly() public view returns (Competitor[] memory competitors){\r\n        uint _monsterCount = totalSupply();\r\n        MonsterLib.Monster memory _currentMonster;\r\n        uint _leftMonster = _monsterCount - balanceOf(msg.sender);\r\n        if( _leftMonster <= 5){\r\n            competitors = new Competitor[](_leftMonster);\r\n            uint _pickedCount = 0;\r\n            for(uint i = 0; i < _monsterCount; i++){\r\n                _currentMonster = _monsterByIndex(i);\r\n                if(ownerOf(_currentMonster.tokenId) != msg.sender){\r\n                    competitors[_pickedCount] = Competitor(_currentMonster.tokenId, _currentMonster.level, _currentMonster.race, _currentMonster.statc);\r\n                    _pickedCount ++;\r\n                }\r\n            }\r\n        }\r\n        else{\r\n            competitors = new Competitor[](5);\r\n            uint _pickedCount = 0;\r\n            uint _startIndex;\r\n            uint _leastStartIndex = _monsterCount;\r\n            while(_pickedCount < 5){\r\n                _startIndex = MonsterLib._random() % _leastStartIndex;\r\n                if(_startIndex < _leastStartIndex){\r\n                    for(uint i = _startIndex; i < _leastStartIndex; i++){\r\n                        _currentMonster = _monsterByIndex(i);\r\n                        if(ownerOf(_currentMonster.tokenId) != msg.sender){\r\n                            competitors[_pickedCount] = Competitor(_currentMonster.tokenId, _currentMonster.level, _currentMonster.race, _currentMonster.statc);\r\n                            _pickedCount ++;\r\n                        }\r\n                    }   \r\n                _leastStartIndex = _startIndex;\r\n                }\r\n\r\n            }\r\n        }\r\n        return competitors;\r\n\r\n    }\r\n\r\n    function battleWithPlayer(uint _player1Id, uint _player2Id) public {\r\n        require(ownerOf(_player1Id) == msg.sender, \"only owner can start a fight\");\r\n        require(ownerOf(_player1Id) != ownerOf(_player2Id), \"two players should have different owners\");\r\n        MonsterLib.Monster memory _player1 = monsterById(_player1Id);\r\n        MonsterLib.Monster memory _player2 = monsterById(_player2Id);\r\n        uint8 exp = _monsterBattle.battleWithPlayer(_player1.statc, _player2.statc, _player2.level);\r\n        _updateExp(_player1Id, exp);\r\n    }\r\n\r\n    function battleWithDefault(uint _playerId, uint _defaultId) public{\r\n        require(ownerOf(_playerId) == msg.sender, \"only owner can start a fight\");\r\n        MonsterLib.Monster memory _player = monsterById(_playerId);\r\n        uint8 exp = _monsterBattle.battleWithDefaultMonster(_player.statc, _defaultId);\r\n        _updateExp(_playerId, exp);\r\n    }\r\n\r\n\r\n\r\n\r\n\r\n\r\n    \r\n}",
  "sourcePath": "D:\\GitHub\\monster\\contracts\\MonsterToken.sol",
  "compiler": {
    "name": "solc",
    "version": "0.8.9+commit.e5eed63a.Emscripten.clang"
  },
  "schemaVersion": "3.4.7",
  "updatedAt": "2022-05-16T23:42:02.752Z",
  "networkType": "ethereum",
  "devdoc": {
    "kind": "dev",
    "methods": {
      "getInitialMonster(string)": {
        "details": "Pay ETH to get a default monster from contract"
      },
      "lockMonster(uint256,bool)": {
        "details": "Transfers `tokenId` from `from` to `to`.  As opposed to {transferFrom}, this imposes no restrictions on msg.sender. Requirements: - `to` cannot be the zero address. - `tokenId` token must be owned by `from`. Emits a {Transfer} event."
      },
      "pickCompetitionRandomly()": {
        "details": "Pick five competitors randomly from existing monsters Cannot pick those monster whose owner is msg.sender"
      }
    },
    "version": 1
  },
  "userdoc": {
    "kind": "user",
    "methods": {
      "getStatics(uint256)": {
        "notice": "Used for buyer want to check more detailed information in the market"
      }
    },
    "version": 1
  }
}