{
  "contractName": "MonsterFactory",
  "abi": [
    {
      "inputs": [],
      "stateMutability": "nonpayable",
      "type": "constructor"
    },
    {
      "inputs": [
        {
          "components": [
            {
              "internalType": "uint8",
              "name": "HP",
              "type": "uint8"
            },
            {
              "internalType": "uint8",
              "name": "strength",
              "type": "uint8"
            },
            {
              "internalType": "uint8",
              "name": "defensive",
              "type": "uint8"
            },
            {
              "internalType": "uint8",
              "name": "speed",
              "type": "uint8"
            }
          ],
          "internalType": "struct MonsterLib.IndividualValue",
          "name": "_mumIv",
          "type": "tuple"
        },
        {
          "components": [
            {
              "internalType": "uint8",
              "name": "HP",
              "type": "uint8"
            },
            {
              "internalType": "uint8",
              "name": "strength",
              "type": "uint8"
            },
            {
              "internalType": "uint8",
              "name": "defensive",
              "type": "uint8"
            },
            {
              "internalType": "uint8",
              "name": "speed",
              "type": "uint8"
            }
          ],
          "internalType": "struct MonsterLib.IndividualValue",
          "name": "_dadIv",
          "type": "tuple"
        }
      ],
      "name": "getChild",
      "outputs": [
        {
          "components": [
            {
              "internalType": "uint8",
              "name": "HP",
              "type": "uint8"
            },
            {
              "internalType": "uint8",
              "name": "strength",
              "type": "uint8"
            },
            {
              "internalType": "uint8",
              "name": "defensive",
              "type": "uint8"
            },
            {
              "internalType": "uint8",
              "name": "speed",
              "type": "uint8"
            }
          ],
          "internalType": "struct MonsterLib.IndividualValue",
          "name": "_childiv",
          "type": "tuple"
        }
      ],
      "stateMutability": "view",
      "type": "function",
      "constant": true
    }
  ],
  "bytecode": "0x608060405234801561001057600080fd5b5061071d806100206000396000f3fe608060405234801561001057600080fd5b506004361061002b5760003560e01c8063c9a267f914610030575b600080fd5b61004a6004803603810190610045919061048c565b610060565b6040516100579190610531565b60405180910390f35b610068610307565b610072838361007a565b905092915050565b610082610307565b600060039050610090610307565b6000808360ff16146100db576100ae8660000151866000015161022d565b836000018193508260ff1660ff16815250505080156100d65782806100d29061057b565b9350505b6100f5565b6100e3610280565b826000019060ff16908160ff16815250505b60008360ff161461013f576101128660200151866020015161022d565b836020018193508260ff1660ff168152505050801561013a5782806101369061057b565b9350505b610159565b610147610280565b826020019060ff16908160ff16815250505b60008360ff16146101a3576101768660400151866040015161022d565b836040018193508260ff1660ff168152505050801561019e57828061019a9061057b565b9350505b6101bd565b6101ab610280565b826040019060ff16908160ff16815250505b60008360ff1614610207576101da8660600151866060015161022d565b836060018193508260ff1660ff16815250505080156102025782806101fe9061057b565b9350505b610221565b61020f610280565b826060019060ff16908160ff16815250505b81935050505092915050565b600080600080600261023d61029b565b61024791906105de565b1415610266576001905061025b85856102d1565b819250925050610279565b60009050610272610280565b8192509250505b9250929050565b6000602061028c61029b565b61029691906105de565b905090565b6000444260006040516020016102b3939291906106aa565b6040516020818303038152906040528051906020012060001c905090565b60008060026102de61029b565b6102e891906105de565b905060018114156102fc5783915050610301565b829150505b92915050565b6040518060800160405280600060ff168152602001600060ff168152602001600060ff168152602001600060ff1681525090565b6000604051905090565b600080fd5b600080fd5b6000601f19601f8301169050919050565b7f4e487b7100000000000000000000000000000000000000000000000000000000600052604160045260246000fd5b6103988261034f565b810181811067ffffffffffffffff821117156103b7576103b6610360565b5b80604052505050565b60006103ca61033b565b90506103d6828261038f565b919050565b600060ff82169050919050565b6103f1816103db565b81146103fc57600080fd5b50565b60008135905061040e816103e8565b92915050565b60006080828403121561042a5761042961034a565b5b61043460806103c0565b90506000610444848285016103ff565b6000830152506020610458848285016103ff565b602083015250604061046c848285016103ff565b6040830152506060610480848285016103ff565b60608301525092915050565b60008061010083850312156104a4576104a3610345565b5b60006104b285828601610414565b92505060806104c385828601610414565b9150509250929050565b6104d6816103db565b82525050565b6080820160008201516104f260008501826104cd565b50602082015161050560208501826104cd565b50604082015161051860408501826104cd565b50606082015161052b60608501826104cd565b50505050565b600060808201905061054660008301846104dc565b92915050565b7f4e487b7100000000000000000000000000000000000000000000000000000000600052601160045260246000fd5b6000610586826103db565b9150600082141561059a5761059961054c565b5b600182039050919050565b6000819050919050565b7f4e487b7100000000000000000000000000000000000000000000000000000000600052601260045260246000fd5b60006105e9826105a5565b91506105f4836105a5565b925082610604576106036105af565b5b828206905092915050565b6000819050919050565b61062a610625826105a5565b61060f565b82525050565b600073ffffffffffffffffffffffffffffffffffffffff82169050919050565b600061065b82610630565b9050919050565b60008160601b9050919050565b600061067a82610662565b9050919050565b600061068c8261066f565b9050919050565b6106a461069f82610650565b610681565b82525050565b60006106b68286610619565b6020820191506106c68285610619565b6020820191506106d68284610693565b60148201915081905094935050505056fea26469706673582212207516ba12af2c3dd7c9d88e0f2ae5b8ed9f459021f7489cb5d45d0de077a5681364736f6c63430008090033",
  "immutableReferences": {},
  "source": "pragma solidity ^0.8.9;\r\npragma experimental ABIEncoderV2;\r\nimport \"./MonsterLib.sol\";\r\n/**\r\n * This contract is used to store all the tokens and function related to breed and battle\r\n */\r\n\r\ncontract MonsterFactory {\r\n\r\n\r\n    constructor() {\r\n    }\r\n\r\n    function getChild(MonsterLib.IndividualValue memory _mumIv,MonsterLib.IndividualValue memory _dadIv) public view returns(MonsterLib.IndividualValue memory _childiv){\r\n        _childiv = _getChildIv(_mumIv, _dadIv);\r\n\r\n    }\r\n\r\n    function _getChildIv(MonsterLib.IndividualValue memory mumIv, MonsterLib.IndividualValue memory dadIv) internal view returns (MonsterLib.IndividualValue memory){\r\n        uint8 inheritendCount = 3; //child can only inheritend at most 3 individual value from parents\r\n        MonsterLib.IndividualValue memory childValue;\r\n        bool isInherited;\r\n        if(inheritendCount != 0){\r\n            (childValue.HP, isInherited) = _getNewIv(mumIv.HP, dadIv.HP);\r\n            if(isInherited) inheritendCount--;\r\n        }\r\n        else{\r\n            childValue.HP = _getNewValueRandomly();\r\n        }\r\n        if(inheritendCount != 0){\r\n            (childValue.strength, isInherited) = _getNewIv(mumIv.strength, dadIv.strength);\r\n            if(isInherited) inheritendCount--;\r\n        }\r\n        else{\r\n            childValue.strength = _getNewValueRandomly();\r\n        }\r\n        if(inheritendCount != 0){\r\n            (childValue.defensive, isInherited) = _getNewIv(mumIv.defensive, dadIv.defensive);\r\n            if(isInherited) inheritendCount--;\r\n        }\r\n        else{\r\n            childValue.defensive = _getNewValueRandomly();\r\n        }\r\n        if(inheritendCount != 0){\r\n            (childValue.speed, isInherited) = _getNewIv(mumIv.speed, dadIv.speed);\r\n            if(isInherited) inheritendCount--;\r\n        }\r\n        else{\r\n            childValue.speed = _getNewValueRandomly();\r\n        }\r\n        return childValue;        \r\n\r\n    }\r\n    /**\r\n     * @dev the child's inidividual value may be inherited from parents, or generate randomly\r\n     */\r\n    function _getNewIv(uint8 mumIv, uint8 dadIv) internal view returns(uint8,bool){\r\n        bool isInherited;\r\n        if(MonsterLib._random()%2 == 0){\r\n            isInherited = true;\r\n            return(_getNewValueFromParents(mumIv, dadIv),isInherited);\r\n        }\r\n        else{\r\n            isInherited = false;\r\n            return(_getNewValueRandomly(),isInherited);\r\n        }\r\n    }\r\n\r\n    function _getNewValueFromParents(uint8 mumIv, uint8 dadIv) internal view returns(uint8){\r\n        uint _isMother = MonsterLib._random()%2;\r\n        if(_isMother == 1) return mumIv;\r\n        else return dadIv;\r\n    }\r\n\r\n    function _getNewValueRandomly() internal view returns (uint8){\r\n        return uint8(MonsterLib._random()%32);\r\n    }\r\n}",
  "sourcePath": "D:\\GitHub\\monster\\contracts\\MonsterFactory.sol",
  "compiler": {
    "name": "solc",
    "version": "0.8.9+commit.e5eed63a.Emscripten.clang"
  },
  "schemaVersion": "3.4.7",
  "updatedAt": "2022-05-15T06:24:41.092Z",
  "networkType": "ethereum",
  "devdoc": {
    "kind": "dev",
    "methods": {},
    "version": 1
  },
  "userdoc": {
    "kind": "user",
    "methods": {},
    "notice": "This contract is used to store all the tokens and function related to breed and battle",
    "version": 1
  }
}