{
  "contractName": "MonsterMarket",
  "abi": [
    {
      "inputs": [
        {
          "internalType": "address",
          "name": "_monsterFactoryAddress",
          "type": "address"
        }
      ],
      "stateMutability": "nonpayable",
      "type": "constructor"
    },
    {
      "anonymous": false,
      "inputs": [
        {
          "indexed": true,
          "internalType": "address",
          "name": "previousOwner",
          "type": "address"
        },
        {
          "indexed": true,
          "internalType": "address",
          "name": "newOwner",
          "type": "address"
        }
      ],
      "name": "OwnershipTransferred",
      "type": "event"
    },
    {
      "anonymous": false,
      "inputs": [
        {
          "indexed": false,
          "internalType": "uint256",
          "name": "_tokenId",
          "type": "uint256"
        }
      ],
      "name": "setProductComplete",
      "type": "event"
    },
    {
      "inputs": [],
      "name": "owner",
      "outputs": [
        {
          "internalType": "address",
          "name": "",
          "type": "address"
        }
      ],
      "stateMutability": "view",
      "type": "function",
      "constant": true
    },
    {
      "inputs": [],
      "name": "renounceOwnership",
      "outputs": [],
      "stateMutability": "nonpayable",
      "type": "function"
    },
    {
      "inputs": [
        {
          "internalType": "address",
          "name": "newOwner",
          "type": "address"
        }
      ],
      "name": "transferOwnership",
      "outputs": [],
      "stateMutability": "nonpayable",
      "type": "function"
    },
    {
      "inputs": [
        {
          "internalType": "address",
          "name": "_monsterFactoryAddress",
          "type": "address"
        }
      ],
      "name": "setMonsterFactory",
      "outputs": [],
      "stateMutability": "nonpayable",
      "type": "function"
    },
    {
      "inputs": [],
      "name": "totalSupply",
      "outputs": [
        {
          "internalType": "uint256",
          "name": "",
          "type": "uint256"
        }
      ],
      "stateMutability": "view",
      "type": "function",
      "constant": true
    },
    {
      "inputs": [
        {
          "internalType": "uint256",
          "name": "_price",
          "type": "uint256"
        },
        {
          "internalType": "uint256",
          "name": "_tokenId",
          "type": "uint256"
        }
      ],
      "name": "setProduct",
      "outputs": [],
      "stateMutability": "nonpayable",
      "type": "function"
    },
    {
      "inputs": [
        {
          "internalType": "uint256",
          "name": "_productId",
          "type": "uint256"
        }
      ],
      "name": "deleteProduct",
      "outputs": [],
      "stateMutability": "nonpayable",
      "type": "function"
    },
    {
      "inputs": [
        {
          "internalType": "uint256",
          "name": "_productId",
          "type": "uint256"
        }
      ],
      "name": "buyMonsters",
      "outputs": [],
      "stateMutability": "nonpayable",
      "type": "function"
    },
    {
      "inputs": [],
      "name": "getAllProducts",
      "outputs": [
        {
          "components": [
            {
              "internalType": "uint256",
              "name": "Id",
              "type": "uint256"
            },
            {
              "internalType": "uint256",
              "name": "index",
              "type": "uint256"
            },
            {
              "internalType": "uint256",
              "name": "price",
              "type": "uint256"
            },
            {
              "internalType": "address",
              "name": "owner",
              "type": "address"
            },
            {
              "internalType": "uint8",
              "name": "level",
              "type": "uint8"
            },
            {
              "components": [
                {
                  "internalType": "uint8",
                  "name": "HP",
                  "type": "uint8"
                },
                {
                  "internalType": "uint8",
                  "name": "strength",
                  "type": "uint8"
                },
                {
                  "internalType": "uint8",
                  "name": "defensive",
                  "type": "uint8"
                },
                {
                  "internalType": "uint8",
                  "name": "speed",
                  "type": "uint8"
                }
              ],
              "internalType": "struct MonsterLib.Statistics",
              "name": "statc",
              "type": "tuple"
            },
            {
              "internalType": "enum MonsterLib.Race",
              "name": "race",
              "type": "uint8"
            },
            {
              "internalType": "bool",
              "name": "isAvaliable",
              "type": "bool"
            }
          ],
          "internalType": "struct MonsterMarket.Product[]",
          "name": "",
          "type": "tuple[]"
        }
      ],
      "stateMutability": "view",
      "type": "function",
      "constant": true
    }
  ],
  "bytecode": "0x60806040523480156200001157600080fd5b50604051620027a5380380620027a583398181016040528101906200003791906200039f565b620000576200004b620000bd60201b60201c565b620000c560201b60201c565b6040518060400160405280600e81526020017f4d6f6e73746572204d61726b657400000000000000000000000000000000000081525060019080519060200190620000a492919062000285565b50620000b6816200018960201b60201c565b50620004b9565b600033905090565b60008060009054906101000a900473ffffffffffffffffffffffffffffffffffffffff169050816000806101000a81548173ffffffffffffffffffffffffffffffffffffffff021916908373ffffffffffffffffffffffffffffffffffffffff1602179055508173ffffffffffffffffffffffffffffffffffffffff168173ffffffffffffffffffffffffffffffffffffffff167f8be0079c531659141344cd1fd0a4f28419497f9722a3daafe3b4186f6b6457e060405160405180910390a35050565b62000199620000bd60201b60201c565b73ffffffffffffffffffffffffffffffffffffffff16620001bf6200025c60201b60201c565b73ffffffffffffffffffffffffffffffffffffffff161462000218576040517f08c379a00000000000000000000000000000000000000000000000000000000081526004016200020f9062000432565b60405180910390fd5b80600260006101000a81548173ffffffffffffffffffffffffffffffffffffffff021916908373ffffffffffffffffffffffffffffffffffffffff16021790555050565b60008060009054906101000a900473ffffffffffffffffffffffffffffffffffffffff16905090565b828054620002939062000483565b90600052602060002090601f016020900481019282620002b7576000855562000303565b82601f10620002d257805160ff191683800117855562000303565b8280016001018555821562000303579182015b8281111562000302578251825591602001919060010190620002e5565b5b50905062000312919062000316565b5090565b5b808211156200033157600081600090555060010162000317565b5090565b600080fd5b600073ffffffffffffffffffffffffffffffffffffffff82169050919050565b600062000367826200033a565b9050919050565b62000379816200035a565b81146200038557600080fd5b50565b60008151905062000399816200036e565b92915050565b600060208284031215620003b857620003b762000335565b5b6000620003c88482850162000388565b91505092915050565b600082825260208201905092915050565b7f4f776e61626c653a2063616c6c6572206973206e6f7420746865206f776e6572600082015250565b60006200041a602083620003d1565b91506200042782620003e2565b602082019050919050565b600060208201905081810360008301526200044d816200040b565b9050919050565b7f4e487b7100000000000000000000000000000000000000000000000000000000600052602260045260246000fd5b600060028204905060018216806200049c57607f821691505b60208210811415620004b357620004b262000454565b5b50919050565b6122dc80620004c96000396000f3fe608060405234801561001057600080fd5b50600436106100935760003560e01c80638da5cb5b116100665780638da5cb5b146100fa578063b6f415fa14610118578063e681fac514610134578063ed90c7b714610150578063f2fde38b1461016c57610093565b806302ee3a521461009857806318160ddd146100b6578063715018a6146100d45780637af0343f146100de575b600080fd5b6100a0610188565b6040516100ad9190611cab565b60405180910390f35b6100be610357565b6040516100cb9190611cdc565b60405180910390f35b6100dc610364565b005b6100f860048036038101906100f39190611d32565b6103ec565b005b6101026104ac565b60405161010f9190611d6e565b60405180910390f35b610132600480360381019061012d9190611db5565b6104d5565b005b61014e60048036038101906101499190611df5565b610b0a565b005b61016a60048036038101906101659190611df5565b610df0565b005b61018660048036038101906101819190611d32565b611836565b005b60606003805480602002602001604051908101604052809291908181526020016000905b8282101561034e5783829060005260206000209060060201604051806101000160405290816000820154815260200160018201548152602001600282015481526020016003820160009054906101000a900473ffffffffffffffffffffffffffffffffffffffff1673ffffffffffffffffffffffffffffffffffffffff1673ffffffffffffffffffffffffffffffffffffffff1681526020016003820160149054906101000a900460ff1660ff1660ff168152602001600482016040518060800160405290816000820160009054906101000a900460ff1660ff1660ff1681526020016000820160019054906101000a900460ff1660ff1660ff1681526020016000820160029054906101000a900460ff1660ff1660ff1681526020016000820160039054906101000a900460ff1660ff1660ff168152505081526020016005820160009054906101000a900460ff16600281111561030e5761030d611af1565b5b60028111156103205761031f611af1565b5b81526020016005820160019054906101000a900460ff161515151581525050815260200190600101906101ac565b50505050905090565b6000600380549050905090565b61036c61192e565b73ffffffffffffffffffffffffffffffffffffffff1661038a6104ac565b73ffffffffffffffffffffffffffffffffffffffff16146103e0576040517f08c379a00000000000000000000000000000000000000000000000000000000081526004016103d790611e7f565b60405180910390fd5b6103ea6000611936565b565b6103f461192e565b73ffffffffffffffffffffffffffffffffffffffff166104126104ac565b73ffffffffffffffffffffffffffffffffffffffff1614610468576040517f08c379a000000000000000000000000000000000000000000000000000000000815260040161045f90611e7f565b60405180910390fd5b80600260006101000a81548173ffffffffffffffffffffffffffffffffffffffff021916908373ffffffffffffffffffffffffffffffffffffffff16021790555050565b60008060009054906101000a900473ffffffffffffffffffffffffffffffffffffffff16905090565b80600260009054906101000a900473ffffffffffffffffffffffffffffffffffffffff1673ffffffffffffffffffffffffffffffffffffffff16636352211e826040518263ffffffff1660e01b81526004016105319190611cdc565b60206040518083038186803b15801561054957600080fd5b505afa15801561055d573d6000803e3d6000fd5b505050506040513d601f19601f820116820180604052508101906105819190611eb4565b73ffffffffffffffffffffffffffffffffffffffff163373ffffffffffffffffffffffffffffffffffffffff16146105b857600080fd5b600015156004600084815260200190815260200160002060050160019054906101000a900460ff161515146105ec57600080fd5b600080600080600260009054906101000a900473ffffffffffffffffffffffffffffffffffffffff1673ffffffffffffffffffffffffffffffffffffffff166379a85e6c876040518263ffffffff1660e01b815260040161064d9190611cdc565b60e06040518083038186803b15801561066557600080fd5b505afa158015610679573d6000803e3d6000fd5b505050506040513d601f19601f8201168201806040525081019061069d919061203b565b9350935093509350600060016106b1610357565b6106bb91906120d1565b905060006040518061010001604052808981526020018381526020018a81526020018773ffffffffffffffffffffffffffffffffffffffff1681526020018660ff16815260200185815260200184600281111561071b5761071a611af1565b5b8152602001600115158152509050600381908060018154018082558091505060019003906000526020600020906006020160009091909190915060008201518160000155602082015181600101556040820151816002015560608201518160030160006101000a81548173ffffffffffffffffffffffffffffffffffffffff021916908373ffffffffffffffffffffffffffffffffffffffff16021790555060808201518160030160146101000a81548160ff021916908360ff16021790555060a08201518160040160008201518160000160006101000a81548160ff021916908360ff16021790555060208201518160000160016101000a81548160ff021916908360ff16021790555060408201518160000160026101000a81548160ff021916908360ff16021790555060608201518160000160036101000a81548160ff021916908360ff160217905550505060c08201518160050160006101000a81548160ff0219169083600281111561089557610894611af1565b5b021790555060e08201518160050160016101000a81548160ff021916908315150217905550505080600460008a815260200190815260200160002060008201518160000155602082015181600101556040820151816002015560608201518160030160006101000a81548173ffffffffffffffffffffffffffffffffffffffff021916908373ffffffffffffffffffffffffffffffffffffffff16021790555060808201518160030160146101000a81548160ff021916908360ff16021790555060a08201518160040160008201518160000160006101000a81548160ff021916908360ff16021790555060208201518160000160016101000a81548160ff021916908360ff16021790555060408201518160000160026101000a81548160ff021916908360ff16021790555060608201518160000160036101000a81548160ff021916908360ff160217905550505060c08201518160050160006101000a81548160ff02191690836002811115610a1057610a0f611af1565b5b021790555060e08201518160050160016101000a81548160ff021916908315150217905550905050600260009054906101000a900473ffffffffffffffffffffffffffffffffffffffff1673ffffffffffffffffffffffffffffffffffffffff1663b954803e8960016040518363ffffffff1660e01b8152600401610a96929190612114565b600060405180830381600087803b158015610ab057600080fd5b505af1158015610ac4573d6000803e3d6000fd5b505050507f24a4e0b58a37c0f3e30a528ce8ac1da26869fcf5e64b7c319d27054ac4d7ca9b88604051610af79190611cdc565b60405180910390a1505050505050505050565b600060046000838152602001908152602001600020604051806101000160405290816000820154815260200160018201548152602001600282015481526020016003820160009054906101000a900473ffffffffffffffffffffffffffffffffffffffff1673ffffffffffffffffffffffffffffffffffffffff1673ffffffffffffffffffffffffffffffffffffffff1681526020016003820160149054906101000a900460ff1660ff1660ff168152602001600482016040518060800160405290816000820160009054906101000a900460ff1660ff1660ff1681526020016000820160019054906101000a900460ff1660ff1660ff1681526020016000820160029054906101000a900460ff1660ff1660ff1681526020016000820160039054906101000a900460ff1660ff1660ff168152505081526020016005820160009054906101000a900460ff166002811115610c6957610c68611af1565b5b6002811115610c7b57610c7a611af1565b5b81526020016005820160019054906101000a900460ff16151515158152505090508060400151600260009054906101000a900473ffffffffffffffffffffffffffffffffffffffff1673ffffffffffffffffffffffffffffffffffffffff166323e3fbd5336040518263ffffffff1660e01b8152600401610cfc9190611d6e565b60206040518083038186803b158015610d1457600080fd5b505afa158015610d28573d6000803e3d6000fd5b505050506040513d601f19601f82011682018060405250810190610d4c9190612152565b1015610d5757600080fd5b600260009054906101000a900473ffffffffffffffffffffffffffffffffffffffff1673ffffffffffffffffffffffffffffffffffffffff166323b872dd826060015133856040518463ffffffff1660e01b8152600401610dba9392919061217f565b600060405180830381600087803b158015610dd457600080fd5b505af1158015610de8573d6000803e3d6000fd5b505050505050565b80600260009054906101000a900473ffffffffffffffffffffffffffffffffffffffff1673ffffffffffffffffffffffffffffffffffffffff16636352211e826040518263ffffffff1660e01b8152600401610e4c9190611cdc565b60206040518083038186803b158015610e6457600080fd5b505afa158015610e78573d6000803e3d6000fd5b505050506040513d601f19601f82011682018060405250810190610e9c9190611eb4565b73ffffffffffffffffffffffffffffffffffffffff163373ffffffffffffffffffffffffffffffffffffffff1614610ed357600080fd5b600115156004600084815260200190815260200160002060050160019054906101000a900460ff16151514610f0757600080fd5b60006001610f13610357565b610f1d91906120d1565b90506000600460008581526020019081526020016000206001015490508082146115bb57600060038381548110610f5757610f566121b6565b5b9060005260206000209060060201604051806101000160405290816000820154815260200160018201548152602001600282015481526020016003820160009054906101000a900473ffffffffffffffffffffffffffffffffffffffff1673ffffffffffffffffffffffffffffffffffffffff1673ffffffffffffffffffffffffffffffffffffffff1681526020016003820160149054906101000a900460ff1660ff1660ff168152602001600482016040518060800160405290816000820160009054906101000a900460ff1660ff1660ff1681526020016000820160019054906101000a900460ff1660ff1660ff1681526020016000820160029054906101000a900460ff1660ff1660ff1681526020016000820160039054906101000a900460ff1660ff1660ff168152505081526020016005820160009054906101000a900460ff1660028111156110af576110ae611af1565b5b60028111156110c1576110c0611af1565b5b81526020016005820160019054906101000a900460ff16151515158152505090506000600383815481106110f8576110f76121b6565b5b9060005260206000209060060201604051806101000160405290816000820154815260200160018201548152602001600282015481526020016003820160009054906101000a900473ffffffffffffffffffffffffffffffffffffffff1673ffffffffffffffffffffffffffffffffffffffff1673ffffffffffffffffffffffffffffffffffffffff1681526020016003820160149054906101000a900460ff1660ff1660ff168152602001600482016040518060800160405290816000820160009054906101000a900460ff1660ff1660ff1681526020016000820160019054906101000a900460ff1660ff1660ff1681526020016000820160029054906101000a900460ff1660ff1660ff1681526020016000820160039054906101000a900460ff1660ff1660ff168152505081526020016005820160009054906101000a900460ff1660028111156112505761124f611af1565b5b600281111561126257611261611af1565b5b81526020016005820160019054906101000a900460ff16151515158152505090508060038581548110611298576112976121b6565b5b906000526020600020906006020160008201518160000155602082015181600101556040820151816002015560608201518160030160006101000a81548173ffffffffffffffffffffffffffffffffffffffff021916908373ffffffffffffffffffffffffffffffffffffffff16021790555060808201518160030160146101000a81548160ff021916908360ff16021790555060a08201518160040160008201518160000160006101000a81548160ff021916908360ff16021790555060208201518160000160016101000a81548160ff021916908360ff16021790555060408201518160000160026101000a81548160ff021916908360ff16021790555060608201518160000160036101000a81548160ff021916908360ff160217905550505060c08201518160050160006101000a81548160ff021916908360028111156113e6576113e5611af1565b5b021790555060e08201518160050160016101000a81548160ff0219169083151502179055509050508160038481548110611423576114226121b6565b5b906000526020600020906006020160008201518160000155602082015181600101556040820151816002015560608201518160030160006101000a81548173ffffffffffffffffffffffffffffffffffffffff021916908373ffffffffffffffffffffffffffffffffffffffff16021790555060808201518160030160146101000a81548160ff021916908360ff16021790555060a08201518160040160008201518160000160006101000a81548160ff021916908360ff16021790555060208201518160000160016101000a81548160ff021916908360ff16021790555060408201518160000160026101000a81548160ff021916908360ff16021790555060608201518160000160036101000a81548160ff021916908360ff160217905550505060c08201518160050160006101000a81548160ff0219169083600281111561157157611570611af1565b5b021790555060e08201518160050160016101000a81548160ff0219169083151502179055509050508260046000846000015181526020019081526020016000206001018190555050505b60046000858152602001908152602001600020600080820160009055600182016000905560028201600090556003820160006101000a81549073ffffffffffffffffffffffffffffffffffffffff02191690556003820160146101000a81549060ff021916905560048201600080820160006101000a81549060ff02191690556000820160016101000a81549060ff02191690556000820160026101000a81549060ff02191690556000820160036101000a81549060ff021916905550506005820160006101000a81549060ff02191690556005820160016101000a81549060ff0219169055505060038054806116b5576116b46121e5565b5b6001900381819060005260206000209060060201600080820160009055600182016000905560028201600090556003820160006101000a81549073ffffffffffffffffffffffffffffffffffffffff02191690556003820160146101000a81549060ff021916905560048201600080820160006101000a81549060ff02191690556000820160016101000a81549060ff02191690556000820160026101000a81549060ff02191690556000820160036101000a81549060ff021916905550506005820160006101000a81549060ff02191690556005820160016101000a81549060ff021916905550509055600260009054906101000a900473ffffffffffffffffffffffffffffffffffffffff1673ffffffffffffffffffffffffffffffffffffffff1663b954803e8560006040518363ffffffff1660e01b81526004016117fe929190612114565b600060405180830381600087803b15801561181857600080fd5b505af115801561182c573d6000803e3d6000fd5b5050505050505050565b61183e61192e565b73ffffffffffffffffffffffffffffffffffffffff1661185c6104ac565b73ffffffffffffffffffffffffffffffffffffffff16146118b2576040517f08c379a00000000000000000000000000000000000000000000000000000000081526004016118a990611e7f565b60405180910390fd5b600073ffffffffffffffffffffffffffffffffffffffff168173ffffffffffffffffffffffffffffffffffffffff161415611922576040517f08c379a000000000000000000000000000000000000000000000000000000000815260040161191990612286565b60405180910390fd5b61192b81611936565b50565b600033905090565b60008060009054906101000a900473ffffffffffffffffffffffffffffffffffffffff169050816000806101000a81548173ffffffffffffffffffffffffffffffffffffffff021916908373ffffffffffffffffffffffffffffffffffffffff1602179055508173ffffffffffffffffffffffffffffffffffffffff168173ffffffffffffffffffffffffffffffffffffffff167f8be0079c531659141344cd1fd0a4f28419497f9722a3daafe3b4186f6b6457e060405160405180910390a35050565b600081519050919050565b600082825260208201905092915050565b6000819050602082019050919050565b6000819050919050565b611a3981611a26565b82525050565b600073ffffffffffffffffffffffffffffffffffffffff82169050919050565b6000611a6a82611a3f565b9050919050565b611a7a81611a5f565b82525050565b600060ff82169050919050565b611a9681611a80565b82525050565b608082016000820151611ab26000850182611a8d565b506020820151611ac56020850182611a8d565b506040820151611ad86040850182611a8d565b506060820151611aeb6060850182611a8d565b50505050565b7f4e487b7100000000000000000000000000000000000000000000000000000000600052602160045260246000fd5b60038110611b3157611b30611af1565b5b50565b6000819050611b4282611b20565b919050565b6000611b5282611b34565b9050919050565b611b6281611b47565b82525050565b60008115159050919050565b611b7d81611b68565b82525050565b61016082016000820151611b9a6000850182611a30565b506020820151611bad6020850182611a30565b506040820151611bc06040850182611a30565b506060820151611bd36060850182611a71565b506080820151611be66080850182611a8d565b5060a0820151611bf960a0850182611a9c565b5060c0820151611c0d610120850182611b59565b5060e0820151611c21610140850182611b74565b50505050565b6000611c338383611b83565b6101608301905092915050565b6000602082019050919050565b6000611c58826119fa565b611c628185611a05565b9350611c6d83611a16565b8060005b83811015611c9e578151611c858882611c27565b9750611c9083611c40565b925050600181019050611c71565b5085935050505092915050565b60006020820190508181036000830152611cc58184611c4d565b905092915050565b611cd681611a26565b82525050565b6000602082019050611cf16000830184611ccd565b92915050565b6000604051905090565b600080fd5b611d0f81611a5f565b8114611d1a57600080fd5b50565b600081359050611d2c81611d06565b92915050565b600060208284031215611d4857611d47611d01565b5b6000611d5684828501611d1d565b91505092915050565b611d6881611a5f565b82525050565b6000602082019050611d836000830184611d5f565b92915050565b611d9281611a26565b8114611d9d57600080fd5b50565b600081359050611daf81611d89565b92915050565b60008060408385031215611dcc57611dcb611d01565b5b6000611dda85828601611da0565b9250506020611deb85828601611da0565b9150509250929050565b600060208284031215611e0b57611e0a611d01565b5b6000611e1984828501611da0565b91505092915050565b600082825260208201905092915050565b7f4f776e61626c653a2063616c6c6572206973206e6f7420746865206f776e6572600082015250565b6000611e69602083611e22565b9150611e7482611e33565b602082019050919050565b60006020820190508181036000830152611e9881611e5c565b9050919050565b600081519050611eae81611d06565b92915050565b600060208284031215611eca57611ec9611d01565b5b6000611ed884828501611e9f565b91505092915050565b611eea81611a80565b8114611ef557600080fd5b50565b600081519050611f0781611ee1565b92915050565b600080fd5b6000601f19601f8301169050919050565b7f4e487b7100000000000000000000000000000000000000000000000000000000600052604160045260246000fd5b611f5b82611f12565b810181811067ffffffffffffffff82111715611f7a57611f79611f23565b5b80604052505050565b6000611f8d611cf7565b9050611f998282611f52565b919050565b600060808284031215611fb457611fb3611f0d565b5b611fbe6080611f83565b90506000611fce84828501611ef8565b6000830152506020611fe284828501611ef8565b6020830152506040611ff684828501611ef8565b604083015250606061200a84828501611ef8565b60608301525092915050565b6003811061202357600080fd5b50565b60008151905061203581612016565b92915050565b60008060008060e0858703121561205557612054611d01565b5b600061206387828801611e9f565b945050602061207487828801611ef8565b935050604061208587828801611f9e565b92505060c061209687828801612026565b91505092959194509250565b7f4e487b7100000000000000000000000000000000000000000000000000000000600052601160045260246000fd5b60006120dc82611a26565b91506120e783611a26565b9250828210156120fa576120f96120a2565b5b828203905092915050565b61210e81611b68565b82525050565b60006040820190506121296000830185611ccd565b6121366020830184612105565b9392505050565b60008151905061214c81611d89565b92915050565b60006020828403121561216857612167611d01565b5b60006121768482850161213d565b91505092915050565b60006060820190506121946000830186611d5f565b6121a16020830185611d5f565b6121ae6040830184611ccd565b949350505050565b7f4e487b7100000000000000000000000000000000000000000000000000000000600052603260045260246000fd5b7f4e487b7100000000000000000000000000000000000000000000000000000000600052603160045260246000fd5b7f4f776e61626c653a206e6577206f776e657220697320746865207a65726f206160008201527f6464726573730000000000000000000000000000000000000000000000000000602082015250565b6000612270602683611e22565b915061227b82612214565b604082019050919050565b6000602082019050818103600083015261229f81612263565b905091905056fea26469706673582212207c9a2e8b0ec6620f846d3374e553c559bc4491721e801c5a07962bf4e95237d064736f6c63430008090033",
  "immutableReferences": {},
  "source": "pragma solidity ^0.8.9;\r\nimport \"./MonsterLib.sol\";\r\nimport \"./MonsterFactory.sol\";\r\nimport \"../node_modules/@openzeppelin/contracts/access/Ownable.sol\";\r\ncontract MonsterMarket is Ownable{\r\n\r\n    event setProductComplete(uint256 _tokenId);\r\n\r\n    string private _name;\r\n\r\n    MonsterFactory internal _monsterFactory;\r\n\r\n    struct Product{\r\n        uint256 Id;\r\n        uint index;\r\n        uint256 price;\r\n        address owner;\r\n        uint8 level;\r\n        MonsterLib.Statistics statc;\r\n        MonsterLib.Race race;\r\n        bool isAvaliable;\r\n    }\r\n    //a list of avaliable products\r\n    Product[] private _products;\r\n\r\n    //Mapping from monster id to product\r\n    mapping(uint256 => Product) private _monsterIdToProduct;\r\n\r\n    //to keep track with the number of products\r\n    uint256 private _productCount;\r\n\r\n    constructor(address _monsterFactoryAddress) {\r\n        _name = \"Monster Market\";\r\n        setMonsterFactory(_monsterFactoryAddress);\r\n    }\r\n    \r\n    modifier onlyMonsterOwner(uint256 _tokenId){\r\n        require(msg.sender == _monsterFactory.ownerOf(_tokenId));\r\n        _;\r\n    }\r\n\r\n\r\n    /**\r\n     * @dev Pass the address of monster factory to this contract\r\n     */\r\n    function setMonsterFactory(address _monsterFactoryAddress) public onlyOwner{\r\n        _monsterFactory = MonsterFactory(payable(_monsterFactoryAddress));\r\n    }\r\n\r\n    function totalSupply() public view returns(uint256){\r\n        return _products.length;\r\n    }\r\n\r\n    /**\r\n     * @dev Add a product which does not exist \r\n     */\r\n    function setProduct(uint256 _price, uint256 _tokenId) onlyMonsterOwner(_tokenId) public {\r\n        require(_monsterIdToProduct[_tokenId].isAvaliable == false);\r\n        (address owner, uint8 level, MonsterLib.Statistics memory statc, MonsterLib.Race race) = _monsterFactory.getProductInfo(_tokenId);\r\n        uint256 _productIndex = totalSupply() - 1;\r\n        Product memory newPro = Product(_tokenId, _productIndex, _price, owner, level, statc, race, true);\r\n        _products.push(newPro);\r\n        _monsterIdToProduct[_tokenId] = newPro;\r\n        _monsterFactory.setReadyToSell(_tokenId, true);\r\n        emit setProductComplete(_tokenId);\r\n    }\r\n\r\n    /**\r\n     *@dev delete a product in the list\r\n     */\r\n     function deleteProduct(uint256 _productId) onlyMonsterOwner(_productId) public{\r\n        require(_monsterIdToProduct[_productId].isAvaliable == true);\r\n        uint _lastIndex = totalSupply() - 1;\r\n        uint _productIndex = _monsterIdToProduct[_productId].index;     \r\n        if(_lastIndex != _productIndex){\r\n            Product memory _lastProduct = _products[_lastIndex];\r\n            Product memory _product = _products[_productIndex];\r\n            _products[_lastIndex] = _product;\r\n            _products[_productIndex] = _lastProduct;\r\n            _monsterIdToProduct[_lastProduct.Id].index = _productIndex;\r\n        }\r\n        delete _monsterIdToProduct[_productId];\r\n        _products.pop();\r\n        _monsterFactory.setReadyToSell(_productId, false);\r\n        \r\n   \r\n    }\r\n\r\n    function  buyMonsters(uint _productId) public {\r\n        Product memory product = _monsterIdToProduct[_productId];\r\n        require(_monsterFactory.depositOf(msg.sender) >= product.price);\r\n        _monsterFactory.transferFrom(product.owner, msg.sender, _productId);\r\n\r\n    }\r\n\r\n    function getAllProducts() public view returns(Product[] memory ){\r\n        return _products;\r\n    }\r\n}",
  "sourcePath": "D:\\GitHub\\monster\\contracts\\MonsterMarket.sol",
  "compiler": {
    "name": "solc",
    "version": "0.8.9+commit.e5eed63a.Emscripten.clang"
  },
  "schemaVersion": "3.4.7",
  "updatedAt": "2022-05-13T22:18:54.214Z",
  "networkType": "ethereum",
  "devdoc": {
    "kind": "dev",
    "methods": {
      "deleteProduct(uint256)": {
        "details": "delete a product in the list"
      },
      "owner()": {
        "details": "Returns the address of the current owner."
      },
      "renounceOwnership()": {
        "details": "Leaves the contract without owner. It will not be possible to call `onlyOwner` functions anymore. Can only be called by the current owner. NOTE: Renouncing ownership will leave the contract without an owner, thereby removing any functionality that is only available to the owner."
      },
      "setMonsterFactory(address)": {
        "details": "Pass the address of monster factory to this contract"
      },
      "setProduct(uint256,uint256)": {
        "details": "Add a product which does not exist "
      },
      "transferOwnership(address)": {
        "details": "Transfers ownership of the contract to a new account (`newOwner`). Can only be called by the current owner."
      }
    },
    "version": 1
  },
  "userdoc": {
    "kind": "user",
    "methods": {},
    "version": 1
  }
}