{
  "contractName": "Participant",
  "abi": [
    {
      "inputs": [
        {
          "internalType": "contract MonsterFactory",
          "name": "_monsterFactory",
          "type": "address"
        },
        {
          "internalType": "contract MonsterMarket",
          "name": "_monsterMarket",
          "type": "address"
        },
        {
          "internalType": "contract MonsterBattle",
          "name": "_monsterBattle",
          "type": "address"
        },
        {
          "internalType": "contract MonsterToken",
          "name": "_monsterToken",
          "type": "address"
        },
        {
          "internalType": "address",
          "name": "_owner",
          "type": "address"
        }
      ],
      "stateMutability": "nonpayable",
      "type": "constructor"
    },
    {
      "inputs": [
        {
          "internalType": "contract MonsterFactory",
          "name": "_monsterFactory",
          "type": "address"
        },
        {
          "internalType": "contract MonsterMarket",
          "name": "_monsterMarket",
          "type": "address"
        },
        {
          "internalType": "contract MonsterBattle",
          "name": "_monsterBattle",
          "type": "address"
        },
        {
          "internalType": "contract MonsterToken",
          "name": "_monsterToken",
          "type": "address"
        }
      ],
      "name": "setContract",
      "outputs": [],
      "stateMutability": "nonpayable",
      "type": "function"
    },
    {
      "inputs": [
        {
          "internalType": "enum MonsterLib.Race",
          "name": "race",
          "type": "uint8"
        }
      ],
      "name": "buyDefaultMonster",
      "outputs": [
        {
          "internalType": "bool",
          "name": "success",
          "type": "bool"
        }
      ],
      "stateMutability": "nonpayable",
      "type": "function"
    },
    {
      "inputs": [],
      "name": "getAllOwnedMonster",
      "outputs": [
        {
          "components": [
            {
              "internalType": "uint256",
              "name": "tokenId",
              "type": "uint256"
            },
            {
              "internalType": "uint256",
              "name": "mumId",
              "type": "uint256"
            },
            {
              "internalType": "uint256",
              "name": "dadId",
              "type": "uint256"
            },
            {
              "components": [
                {
                  "internalType": "uint8",
                  "name": "HP",
                  "type": "uint8"
                },
                {
                  "internalType": "uint8",
                  "name": "strength",
                  "type": "uint8"
                },
                {
                  "internalType": "uint8",
                  "name": "defensive",
                  "type": "uint8"
                },
                {
                  "internalType": "uint8",
                  "name": "speed",
                  "type": "uint8"
                }
              ],
              "internalType": "struct MonsterLib.Statistics",
              "name": "statc",
              "type": "tuple"
            },
            {
              "components": [
                {
                  "internalType": "uint8",
                  "name": "HP",
                  "type": "uint8"
                },
                {
                  "internalType": "uint8",
                  "name": "strength",
                  "type": "uint8"
                },
                {
                  "internalType": "uint8",
                  "name": "defensive",
                  "type": "uint8"
                },
                {
                  "internalType": "uint8",
                  "name": "speed",
                  "type": "uint8"
                }
              ],
              "internalType": "struct MonsterLib.IndividualValue",
              "name": "iv",
              "type": "tuple"
            },
            {
              "internalType": "uint8",
              "name": "level",
              "type": "uint8"
            },
            {
              "internalType": "uint8",
              "name": "expNeedToNext",
              "type": "uint8"
            },
            {
              "internalType": "enum MonsterLib.Race",
              "name": "race",
              "type": "uint8"
            },
            {
              "internalType": "bool",
              "name": "isLocked",
              "type": "bool"
            }
          ],
          "internalType": "struct MonsterLib.Monster[]",
          "name": "monsters",
          "type": "tuple[]"
        }
      ],
      "stateMutability": "view",
      "type": "function"
    },
    {
      "inputs": [
        {
          "internalType": "uint256",
          "name": "_monsterId",
          "type": "uint256"
        }
      ],
      "name": "destoryMonster",
      "outputs": [
        {
          "internalType": "bool",
          "name": "success",
          "type": "bool"
        }
      ],
      "stateMutability": "nonpayable",
      "type": "function"
    },
    {
      "inputs": [
        {
          "internalType": "uint256",
          "name": "_Id",
          "type": "uint256"
        },
        {
          "internalType": "uint256",
          "name": "_price",
          "type": "uint256"
        }
      ],
      "name": "sellMonstr",
      "outputs": [
        {
          "internalType": "bool",
          "name": "success",
          "type": "bool"
        }
      ],
      "stateMutability": "nonpayable",
      "type": "function"
    },
    {
      "inputs": [],
      "name": "getAllProduucts",
      "outputs": [
        {
          "components": [
            {
              "internalType": "uint256",
              "name": "Id",
              "type": "uint256"
            },
            {
              "internalType": "uint256",
              "name": "index",
              "type": "uint256"
            },
            {
              "internalType": "uint256",
              "name": "price",
              "type": "uint256"
            },
            {
              "internalType": "address",
              "name": "owner",
              "type": "address"
            },
            {
              "internalType": "uint8",
              "name": "level",
              "type": "uint8"
            },
            {
              "components": [
                {
                  "internalType": "uint8",
                  "name": "HP",
                  "type": "uint8"
                },
                {
                  "internalType": "uint8",
                  "name": "strength",
                  "type": "uint8"
                },
                {
                  "internalType": "uint8",
                  "name": "defensive",
                  "type": "uint8"
                },
                {
                  "internalType": "uint8",
                  "name": "speed",
                  "type": "uint8"
                }
              ],
              "internalType": "struct MonsterLib.Statistics",
              "name": "statc",
              "type": "tuple"
            },
            {
              "internalType": "enum MonsterLib.Race",
              "name": "race",
              "type": "uint8"
            },
            {
              "internalType": "bool",
              "name": "isAvaliable",
              "type": "bool"
            }
          ],
          "internalType": "struct MonsterMarket.Product[]",
          "name": "products",
          "type": "tuple[]"
        }
      ],
      "stateMutability": "view",
      "type": "function"
    },
    {
      "inputs": [],
      "name": "getMyProducts",
      "outputs": [
        {
          "components": [
            {
              "internalType": "uint256",
              "name": "Id",
              "type": "uint256"
            },
            {
              "internalType": "uint256",
              "name": "index",
              "type": "uint256"
            },
            {
              "internalType": "uint256",
              "name": "price",
              "type": "uint256"
            },
            {
              "internalType": "address",
              "name": "owner",
              "type": "address"
            },
            {
              "internalType": "uint8",
              "name": "level",
              "type": "uint8"
            },
            {
              "components": [
                {
                  "internalType": "uint8",
                  "name": "HP",
                  "type": "uint8"
                },
                {
                  "internalType": "uint8",
                  "name": "strength",
                  "type": "uint8"
                },
                {
                  "internalType": "uint8",
                  "name": "defensive",
                  "type": "uint8"
                },
                {
                  "internalType": "uint8",
                  "name": "speed",
                  "type": "uint8"
                }
              ],
              "internalType": "struct MonsterLib.Statistics",
              "name": "statc",
              "type": "tuple"
            },
            {
              "internalType": "enum MonsterLib.Race",
              "name": "race",
              "type": "uint8"
            },
            {
              "internalType": "bool",
              "name": "isAvaliable",
              "type": "bool"
            }
          ],
          "internalType": "struct MonsterMarket.Product[]",
          "name": "myProducts",
          "type": "tuple[]"
        }
      ],
      "stateMutability": "view",
      "type": "function"
    },
    {
      "inputs": [],
      "name": "findCompetitors",
      "outputs": [
        {
          "components": [
            {
              "internalType": "uint256",
              "name": "tokenId",
              "type": "uint256"
            },
            {
              "internalType": "uint8",
              "name": "level",
              "type": "uint8"
            },
            {
              "internalType": "enum MonsterLib.Race",
              "name": "race",
              "type": "uint8"
            },
            {
              "components": [
                {
                  "internalType": "uint8",
                  "name": "HP",
                  "type": "uint8"
                },
                {
                  "internalType": "uint8",
                  "name": "strength",
                  "type": "uint8"
                },
                {
                  "internalType": "uint8",
                  "name": "defensive",
                  "type": "uint8"
                },
                {
                  "internalType": "uint8",
                  "name": "speed",
                  "type": "uint8"
                }
              ],
              "internalType": "struct MonsterLib.Statistics",
              "name": "statc",
              "type": "tuple"
            }
          ],
          "internalType": "struct MonsterToken.Competitor[]",
          "name": "competitors",
          "type": "tuple[]"
        }
      ],
      "stateMutability": "view",
      "type": "function"
    },
    {
      "inputs": [],
      "name": "getBattleFactoryAddress",
      "outputs": [
        {
          "internalType": "address",
          "name": "_monsterBattleAddres",
          "type": "address"
        },
        {
          "internalType": "address",
          "name": "_monsterFactoryAddress",
          "type": "address"
        },
        {
          "internalType": "address",
          "name": "_monsterTokenAddress",
          "type": "address"
        },
        {
          "internalType": "address",
          "name": "_monsterMarketAddress",
          "type": "address"
        }
      ],
      "stateMutability": "view",
      "type": "function"
    }
  ],
  "bytecode": "0x60806040523480156200001157600080fd5b5060405162001bfc38038062001bfc833981810160405281019062000037919062000332565b6200004b858585856200009760201b60201c565b80600460006101000a81548173ffffffffffffffffffffffffffffffffffffffff021916908373ffffffffffffffffffffffffffffffffffffffff1602179055505050505050620003ba565b836000806101000a81548173ffffffffffffffffffffffffffffffffffffffff021916908373ffffffffffffffffffffffffffffffffffffffff16021790555082600260006101000a81548173ffffffffffffffffffffffffffffffffffffffff021916908373ffffffffffffffffffffffffffffffffffffffff16021790555081600160006101000a81548173ffffffffffffffffffffffffffffffffffffffff021916908373ffffffffffffffffffffffffffffffffffffffff16021790555080600360006101000a81548173ffffffffffffffffffffffffffffffffffffffff021916908373ffffffffffffffffffffffffffffffffffffffff16021790555050505050565b600080fd5b600073ffffffffffffffffffffffffffffffffffffffff82169050919050565b6000620001d282620001a5565b9050919050565b6000620001e682620001c5565b9050919050565b620001f881620001d9565b81146200020457600080fd5b50565b6000815190506200021881620001ed565b92915050565b60006200022b82620001c5565b9050919050565b6200023d816200021e565b81146200024957600080fd5b50565b6000815190506200025d8162000232565b92915050565b60006200027082620001c5565b9050919050565b620002828162000263565b81146200028e57600080fd5b50565b600081519050620002a28162000277565b92915050565b6000620002b582620001a5565b9050919050565b6000620002c982620002a8565b9050919050565b620002db81620002bc565b8114620002e757600080fd5b50565b600081519050620002fb81620002d0565b92915050565b6200030c81620001c5565b81146200031857600080fd5b50565b6000815190506200032c8162000301565b92915050565b600080600080600060a08688031215620003515762000350620001a0565b5b6000620003618882890162000207565b955050602062000374888289016200024c565b9450506040620003878882890162000291565b93505060606200039a88828901620002ea565b9250506080620003ad888289016200031b565b9150509295509295909350565b61183280620003ca6000396000f3fe608060405234801561001057600080fd5b50600436106100935760003560e01c8063864955c611610066578063864955c614610120578063c100aa8d14610141578063d0c6187b1461015f578063f985b5da1461018f578063fdca4ca3146101bf57610093565b80630bb4de76146100985780634a350177146100b6578063615dbebb146100e65780637dedfe7f14610102575b600080fd5b6100a06101dd565b6040516100ad9190610be2565b60405180910390f35b6100d060048036038101906100cb9190610c44565b6101e2565b6040516100dd9190610c80565b60405180910390f35b61010060048036038101906100fb9190610dd7565b61030a565b005b61010a610413565b6040516101179190610f42565b60405180910390f35b6101286104bf565b6040516101389493929190610f73565b60405180910390f35b61014961055d565b604051610156919061111b565b60405180910390f35b6101796004803603810190610174919061113d565b610609565b6040516101869190610c80565b60405180910390f35b6101a960048036038101906101a491906111a2565b610734565b6040516101b69190610c80565b60405180910390f35b6101c761085b565b6040516101d4919061111b565b60405180910390f35b606090565b6000600360009054906101000a900473ffffffffffffffffffffffffffffffffffffffff1673ffffffffffffffffffffffffffffffffffffffff1662030d408360405160240161023291906111de565b6040516020818303038152906040527f27163036000000000000000000000000000000000000000000000000000000007bffffffffffffffffffffffffffffffffffffffffffffffffffffffff19166020820180517bffffffffffffffffffffffffffffffffffffffffffffffffffffffff83818316178352505050506040516102bc9190611273565b60006040518083038160008787f1925050503d80600081146102fa576040519150601f19603f3d011682016040523d82523d6000602084013e6102ff565b606091505b505080915050919050565b836000806101000a81548173ffffffffffffffffffffffffffffffffffffffff021916908373ffffffffffffffffffffffffffffffffffffffff16021790555082600260006101000a81548173ffffffffffffffffffffffffffffffffffffffff021916908373ffffffffffffffffffffffffffffffffffffffff16021790555081600160006101000a81548173ffffffffffffffffffffffffffffffffffffffff021916908373ffffffffffffffffffffffffffffffffffffffff16021790555080600360006101000a81548173ffffffffffffffffffffffffffffffffffffffff021916908373ffffffffffffffffffffffffffffffffffffffff16021790555050505050565b6060600360009054906101000a900473ffffffffffffffffffffffffffffffffffffffff1673ffffffffffffffffffffffffffffffffffffffff1663ccd1a9e96040518163ffffffff1660e01b815260040160006040518083038186803b15801561047d57600080fd5b505afa158015610491573d6000803e3d6000fd5b505050506040513d6000823e3d601f19601f820116820180604052508101906104ba919061152e565b905090565b600080600080600160009054906101000a900473ffffffffffffffffffffffffffffffffffffffff16935060008054906101000a900473ffffffffffffffffffffffffffffffffffffffff169250600360009054906101000a900473ffffffffffffffffffffffffffffffffffffffff169150600260009054906101000a900473ffffffffffffffffffffffffffffffffffffffff16905090919293565b6060600260009054906101000a900473ffffffffffffffffffffffffffffffffffffffff1673ffffffffffffffffffffffffffffffffffffffff166302ee3a526040518163ffffffff1660e01b815260040160006040518083038186803b1580156105c757600080fd5b505afa1580156105db573d6000803e3d6000fd5b505050506040513d6000823e3d601f19601f820116820180604052508101906106049190611760565b905090565b6000600260009054906101000a900473ffffffffffffffffffffffffffffffffffffffff1673ffffffffffffffffffffffffffffffffffffffff1662030d40838560405160240161065b9291906117a9565b6040516020818303038152906040527f6a95356b000000000000000000000000000000000000000000000000000000007bffffffffffffffffffffffffffffffffffffffffffffffffffffffff19166020820180517bffffffffffffffffffffffffffffffffffffffffffffffffffffffff83818316178352505050506040516106e59190611273565b60006040518083038160008787f1925050503d8060008114610723576040519150601f19603f3d011682016040523d82523d6000602084013e610728565b606091505b50508091505092915050565b60008060009054906101000a900473ffffffffffffffffffffffffffffffffffffffff1673ffffffffffffffffffffffffffffffffffffffff1662030d408360405160240161078391906117e1565b6040516020818303038152906040527ffff67555000000000000000000000000000000000000000000000000000000007bffffffffffffffffffffffffffffffffffffffffffffffffffffffff19166020820180517bffffffffffffffffffffffffffffffffffffffffffffffffffffffff838183161783525050505060405161080d9190611273565b60006040518083038160008787f1925050503d806000811461084b576040519150601f19603f3d011682016040523d82523d6000602084013e610850565b606091505b505080915050919050565b6060600260009054906101000a900473ffffffffffffffffffffffffffffffffffffffff1673ffffffffffffffffffffffffffffffffffffffff1663fdca4ca36040518163ffffffff1660e01b815260040160006040518083038186803b1580156108c557600080fd5b505afa1580156108d9573d6000803e3d6000fd5b505050506040513d6000823e3d601f19601f820116820180604052508101906109029190611760565b905090565b600081519050919050565b600082825260208201905092915050565b6000819050602082019050919050565b6000819050919050565b61094681610933565b82525050565b600060ff82169050919050565b6109628161094c565b82525050565b60808201600082015161097e6000850182610959565b5060208201516109916020850182610959565b5060408201516109a46040850182610959565b5060608201516109b76060850182610959565b50505050565b6080820160008201516109d36000850182610959565b5060208201516109e66020850182610959565b5060408201516109f96040850182610959565b506060820151610a0c6060850182610959565b50505050565b7f4e487b7100000000000000000000000000000000000000000000000000000000600052602160045260246000fd5b60038110610a5257610a51610a12565b5b50565b6000819050610a6382610a41565b919050565b6000610a7382610a55565b9050919050565b610a8381610a68565b82525050565b60008115159050919050565b610a9e81610a89565b82525050565b6101e082016000820151610abb600085018261093d565b506020820151610ace602085018261093d565b506040820151610ae1604085018261093d565b506060820151610af46060850182610968565b506080820151610b0760e08501826109bd565b5060a0820151610b1b610160850182610959565b5060c0820151610b2f610180850182610959565b5060e0820151610b436101a0850182610a7a565b50610100820151610b586101c0850182610a95565b50505050565b6000610b6a8383610aa4565b6101e08301905092915050565b6000602082019050919050565b6000610b8f82610907565b610b998185610912565b9350610ba483610923565b8060005b83811015610bd5578151610bbc8882610b5e565b9750610bc783610b77565b925050600181019050610ba8565b5085935050505092915050565b60006020820190508181036000830152610bfc8184610b84565b905092915050565b6000604051905090565b600080fd5b600080fd5b610c2181610933565b8114610c2c57600080fd5b50565b600081359050610c3e81610c18565b92915050565b600060208284031215610c5a57610c59610c0e565b5b6000610c6884828501610c2f565b91505092915050565b610c7a81610a89565b82525050565b6000602082019050610c956000830184610c71565b92915050565b600073ffffffffffffffffffffffffffffffffffffffff82169050919050565b6000610cc682610c9b565b9050919050565b6000610cd882610cbb565b9050919050565b610ce881610ccd565b8114610cf357600080fd5b50565b600081359050610d0581610cdf565b92915050565b6000610d1682610cbb565b9050919050565b610d2681610d0b565b8114610d3157600080fd5b50565b600081359050610d4381610d1d565b92915050565b6000610d5482610cbb565b9050919050565b610d6481610d49565b8114610d6f57600080fd5b50565b600081359050610d8181610d5b565b92915050565b6000610d9282610c9b565b9050919050565b6000610da482610d87565b9050919050565b610db481610d99565b8114610dbf57600080fd5b50565b600081359050610dd181610dab565b92915050565b60008060008060808587031215610df157610df0610c0e565b5b6000610dff87828801610cf6565b9450506020610e1087828801610d34565b9350506040610e2187828801610d72565b9250506060610e3287828801610dc2565b91505092959194509250565b600081519050919050565b600082825260208201905092915050565b6000819050602082019050919050565b60e082016000820151610e80600085018261093d565b506020820151610e936020850182610959565b506040820151610ea66040850182610a7a565b506060820151610eb96060850182610968565b50505050565b6000610ecb8383610e6a565b60e08301905092915050565b6000602082019050919050565b6000610eef82610e3e565b610ef98185610e49565b9350610f0483610e5a565b8060005b83811015610f35578151610f1c8882610ebf565b9750610f2783610ed7565b925050600181019050610f08565b5085935050505092915050565b60006020820190508181036000830152610f5c8184610ee4565b905092915050565b610f6d81610cbb565b82525050565b6000608082019050610f886000830187610f64565b610f956020830186610f64565b610fa26040830185610f64565b610faf6060830184610f64565b95945050505050565b600081519050919050565b600082825260208201905092915050565b6000819050602082019050919050565b610fed81610cbb565b82525050565b6101608201600082015161100a600085018261093d565b50602082015161101d602085018261093d565b506040820151611030604085018261093d565b5060608201516110436060850182610fe4565b5060808201516110566080850182610959565b5060a082015161106960a0850182610968565b5060c082015161107d610120850182610a7a565b5060e0820151611091610140850182610a95565b50505050565b60006110a38383610ff3565b6101608301905092915050565b6000602082019050919050565b60006110c882610fb8565b6110d28185610fc3565b93506110dd83610fd4565b8060005b8381101561110e5781516110f58882611097565b9750611100836110b0565b9250506001810190506110e1565b5085935050505092915050565b6000602082019050818103600083015261113581846110bd565b905092915050565b6000806040838503121561115457611153610c0e565b5b600061116285828601610c2f565b925050602061117385828601610c2f565b9150509250929050565b6003811061118a57600080fd5b50565b60008135905061119c8161117d565b92915050565b6000602082840312156111b8576111b7610c0e565b5b60006111c68482850161118d565b91505092915050565b6111d881610933565b82525050565b60006020820190506111f360008301846111cf565b92915050565b600081519050919050565b600081905092915050565b60005b8381101561122d578082015181840152602081019050611212565b8381111561123c576000848401525b50505050565b600061124d826111f9565b6112578185611204565b935061126781856020860161120f565b80840191505092915050565b600061127f8284611242565b915081905092915050565b600080fd5b6000601f19601f8301169050919050565b7f4e487b7100000000000000000000000000000000000000000000000000000000600052604160045260246000fd5b6112d88261128f565b810181811067ffffffffffffffff821117156112f7576112f66112a0565b5b80604052505050565b600061130a610c04565b905061131682826112cf565b919050565b600067ffffffffffffffff821115611336576113356112a0565b5b602082029050602081019050919050565b600080fd5b600080fd5b60008151905061136081610c18565b92915050565b61136f8161094c565b811461137a57600080fd5b50565b60008151905061138c81611366565b92915050565b6000815190506113a18161117d565b92915050565b6000608082840312156113bd576113bc61134c565b5b6113c76080611300565b905060006113d78482850161137d565b60008301525060206113eb8482850161137d565b60208301525060406113ff8482850161137d565b60408301525060606114138482850161137d565b60608301525092915050565b600060e082840312156114355761143461134c565b5b61143f6080611300565b9050600061144f84828501611351565b60008301525060206114638482850161137d565b602083015250604061147784828501611392565b604083015250606061148b848285016113a7565b60608301525092915050565b60006114aa6114a58461131b565b611300565b90508083825260208201905060e084028301858111156114cd576114cc611347565b5b835b818110156114f657806114e2888261141f565b84526020840193505060e0810190506114cf565b5050509392505050565b600082601f8301126115155761151461128a565b5b8151611525848260208601611497565b91505092915050565b60006020828403121561154457611543610c0e565b5b600082015167ffffffffffffffff81111561156257611561610c13565b5b61156e84828501611500565b91505092915050565b600067ffffffffffffffff821115611592576115916112a0565b5b602082029050602081019050919050565b6115ac81610cbb565b81146115b757600080fd5b50565b6000815190506115c9816115a3565b92915050565b6115d881610a89565b81146115e357600080fd5b50565b6000815190506115f5816115cf565b92915050565b600061016082840312156116125761161161134c565b5b61161d610100611300565b9050600061162d84828501611351565b600083015250602061164184828501611351565b602083015250604061165584828501611351565b6040830152506060611669848285016115ba565b606083015250608061167d8482850161137d565b60808301525060a0611691848285016113a7565b60a0830152506101206116a684828501611392565b60c0830152506101406116bb848285016115e6565b60e08301525092915050565b60006116da6116d584611577565b611300565b90508083825260208201905061016084028301858111156116fe576116fd611347565b5b835b81811015611728578061171388826115fb565b84526020840193505061016081019050611700565b5050509392505050565b600082601f8301126117475761174661128a565b5b81516117578482602086016116c7565b91505092915050565b60006020828403121561177657611775610c0e565b5b600082015167ffffffffffffffff81111561179457611793610c13565b5b6117a084828501611732565b91505092915050565b60006040820190506117be60008301856111cf565b6117cb60208301846111cf565b9392505050565b6117db81610a68565b82525050565b60006020820190506117f660008301846117d2565b9291505056fea26469706673582212203093050a1745f9eb539f08df499261da58a90bfc6a1ac218acab82265a3332aa64736f6c63430008090033",
  "immutableReferences": {},
  "source": "pragma solidity ^0.8.9;\r\nimport \"../contracts/MonsterFactory.sol\";\r\nimport \"../contracts/MonsterBattle.sol\";\r\nimport \"../contracts/MonsterMarket.sol\";\r\nimport \"../contracts/MonsterToken.sol\";\r\n\r\ncontract Participant {\r\n\r\n    MonsterFactory monsterFactory;\r\n    MonsterBattle monsterBattle;\r\n    MonsterMarket monsterMarket;\r\n    MonsterToken monsterToken;\r\n    address owner;\r\n\r\n    constructor(MonsterFactory _monsterFactory, MonsterMarket _monsterMarket, MonsterBattle _monsterBattle, MonsterToken _monsterToken, address _owner) {\r\n        setContract(_monsterFactory,_monsterMarket, _monsterBattle, _monsterToken);\r\n        owner = _owner;\r\n    }\r\n\r\n    function setContract(MonsterFactory _monsterFactory, MonsterMarket _monsterMarket, MonsterBattle _monsterBattle, MonsterToken _monsterToken) public{\r\n        monsterFactory = _monsterFactory;\r\n        monsterMarket = _monsterMarket;\r\n        monsterBattle = _monsterBattle;\r\n        monsterToken = _monsterToken;\r\n    }\r\n\r\n    function buyDefaultMonster(MonsterLib.Race race) public returns(bool success){\r\n        (success,) = address(monsterFactory).call{gas:200000}(abi.encodeWithSignature(\"getInitialMonster(MonsterLib.Race)\",race));\r\n    }\r\n\r\n    function getAllOwnedMonster() public view returns(MonsterLib.Monster[] memory monsters){\r\n        // monsters = monsterToken.getOwnedMonster();\r\n    }\r\n\r\n    function destoryMonster(uint _monsterId) public returns(bool success){\r\n        (success,) = address(monsterToken).call{gas:200000}(abi.encodeWithSignature(\"deleteMonster(uint)\", _monsterId));\r\n        \r\n    }\r\n\r\n    function sellMonstr(uint _Id, uint _price) public  returns(bool success){\r\n        (success,) = address(monsterMarket).call{gas:200000}(abi.encodeWithSignature(\"setProduct(uint256, uint256)\", _price, _Id));\r\n    }\r\n\r\n    function getAllProduucts() public view returns (MonsterMarket.Product[] memory products){\r\n        products = monsterMarket.getAllProducts();\r\n    }\r\n\r\n    function getMyProducts() public view returns (MonsterMarket.Product[] memory myProducts){\r\n        myProducts = monsterMarket.getMyProducts();\r\n    }\r\n\r\n    function findCompetitors() public view returns (MonsterToken.Competitor[] memory competitors){\r\n        competitors = monsterToken.pickCompetitionRandomly();\r\n    }\r\n\r\n    function getBattleFactoryAddress () public view returns(address _monsterBattleAddres, address _monsterFactoryAddress, address _monsterTokenAddress, address _monsterMarketAddress){\r\n        _monsterBattleAddres = address(monsterBattle);\r\n        _monsterFactoryAddress = address(monsterFactory);\r\n        _monsterTokenAddress = address(monsterToken);\r\n        _monsterMarketAddress = address(monsterMarket);\r\n    }\r\n}",
  "sourcePath": "D:\\GitHub\\monster\\contracts\\Participant.sol",
  "compiler": {
    "name": "solc",
    "version": "0.8.9+commit.e5eed63a.Emscripten.clang"
  },
  "schemaVersion": "3.4.7",
  "updatedAt": "2022-05-16T23:41:54.162Z",
  "devdoc": {
    "kind": "dev",
    "methods": {},
    "version": 1
  },
  "userdoc": {
    "kind": "user",
    "methods": {},
    "version": 1
  }
}