{
	"data": {
		"bytecode": {
			"linkReferences": {},
			"object": "60806040523480156200001157600080fd5b50604051620015f5380380620015f5833981016040819052620000349162000200565b6200003f3362000089565b60408051808201909152600e8082526d135bdb9cdd195c8813585c9ad95d60921b602090920191825262000076916001916200015a565b506200008281620000d9565b506200026f565b600080546001600160a01b038381166001600160a01b0319831681178455604051919092169283917f8be0079c531659141344cd1fd0a4f28419497f9722a3daafe3b4186f6b6457e09190a35050565b6000546001600160a01b03163314620001385760405162461bcd60e51b815260206004820181905260248201527f4f776e61626c653a2063616c6c6572206973206e6f7420746865206f776e6572604482015260640160405180910390fd5b600280546001600160a01b0319166001600160a01b0392909216919091179055565b828054620001689062000232565b90600052602060002090601f0160209004810192826200018c5760008555620001d7565b82601f10620001a757805160ff1916838001178555620001d7565b82800160010185558215620001d7579182015b82811115620001d7578251825591602001919060010190620001ba565b50620001e5929150620001e9565b5090565b5b80821115620001e55760008155600101620001ea565b6000602082840312156200021357600080fd5b81516001600160a01b03811681146200022b57600080fd5b9392505050565b600181811c908216806200024757607f821691505b602082108114156200026957634e487b7160e01b600052602260045260246000fd5b50919050565b611376806200027f6000396000f3fe608060405234801561001057600080fd5b506004361061009e5760003560e01c8063b6f415fa11610066578063b6f415fa1461010a578063e681fac51461011d578063ed90c7b714610130578063f2fde38b14610143578063fdca4ca31461015657600080fd5b806302ee3a52146100a357806318160ddd146100c1578063715018a6146100d25780637af0343f146100dc5780638da5cb5b146100ef575b600080fd5b6100ab61015e565b6040516100b8919061100b565b60405180910390f35b6003546040519081526020016100b8565b6100da6102fc565b005b6100da6100ea366004611108565b61033b565b6000546040516001600160a01b0390911681526020016100b8565b6100da61011836600461112c565b610387565b6100da61012b36600461114e565b610767565b6100da61013e36600461114e565b6109cc565b6100da610151366004611108565b610d02565b6100ab610d9d565b6003546060908190156102c45760005b6003548110156102be57600460006003838154811061018f5761018f611167565b60009182526020808320909101548352828101939093526040918201902081516101008082018452825482526001830154828601526002808401548386015260038401546001600160a01b03811660608086019190915260ff600160a01b90920482166080808701919091528751908101885260048701548084168252948504831698810198909852620100008404821696880196909652630100000090920482169486019490945260a082019490945260058201549093919260c0850192919091169081111561026257610262610fd3565b600281111561027357610273610fd3565b815260059190910154610100900460ff16151560209091015282518390839081106102a0576102a0611167565b602002602001018190525080806102b690611193565b91505061016e565b50919050565b60408051600080825260208201909252906102f5565b6102e2610f71565b8152602001906001900390816102da5790505b5092915050565b6000546001600160a01b0316331461032f5760405162461bcd60e51b8152600401610326906111ae565b60405180910390fd5b6103396000610f21565b565b6000546001600160a01b031633146103655760405162461bcd60e51b8152600401610326906111ae565b600280546001600160a01b0319166001600160a01b0392909216919091179055565b6002546040516331a9108f60e11b81526004810183905282916001600160a01b031690636352211e9060240160206040518083038186803b1580156103cb57600080fd5b505afa1580156103df573d6000803e3d6000fd5b505050506040513d601f19601f8201168201806040525081019061040391906111e3565b6001600160a01b0316336001600160a01b03161461042057600080fd5b600082815260046020526040902060050154610100900460ff161561044457600080fd5b600254604051631e6a179b60e21b8152600481018490526000918291829182916001600160a01b03909116906379a85e6c9060240160e06040518083038186803b15801561049157600080fd5b505afa1580156104a5573d6000803e3d6000fd5b505050506040513d601f19601f820116820180604052508101906104c99190611225565b9350935093509350600060016104de60035490565b6104e891906112fa565b905060006040518061010001604052808981526020018381526020018a8152602001876001600160a01b031681526020018660ff16815260200185815260200184600281111561053a5761053a610fd3565b8152600160209182018190526003805480830182557fc2575a0e9e593c00f959f8c92f12db2869c3395a3b0502d05e2516446f71f85b018c905560008c8152600480855260409182902086518155868601518186015582870151600280830191909155606080890151958301805460808b015160ff908116600160a01b026001600160a81b03199092166001600160a01b039099169890981717905560a08901518051948401805499820151968201519190920151871663010000000263ff0000001991881662010000029190911663ffff0000199688166101000261ffff19909a1695909716949094179790971793909316939093171790935560c0840151600582018054959650869592949193909260ff191691849081111561066157610661610fd3565b021790555060e09190910151600591820180549115156101000261ff00199092169190911790553360009081526006602090815260408083205485519483528184208185528352818420949094558b8352600790915290819020829055600254905163caece7bb60e01b8152600481018b9052600160248201526001600160a01b039091169063caece7bb90604401600060405180830381600087803b15801561070a57600080fd5b505af115801561071e573d6000803e3d6000fd5b505050507f24a4e0b58a37c0f3e30a528ce8ac1da26869fcf5e64b7c319d27054ac4d7ca9b8960405161075391815260200190565b60405180910390a150505050505050505050565b600081815260046020818152604080842081516101008082018452825482526001830154828601526002808401548386015260038401546001600160a01b038116606080860191909152600160a01b90910460ff90811660808087019190915287519081018852988601548082168a52938404811697890197909752620100008304871695880195909552630100000090910485169386019390935260a08101949094526005810154909260c085019291169081111561082957610829610fd3565b600281111561083a5761083a610fd3565b815260059190910154610100900460ff16151560209091015260408181015160025491516323e3fbd560e01b8152336004820152929350916001600160a01b03909116906323e3fbd59060240160206040518083038186803b15801561089f57600080fd5b505afa1580156108b3573d6000803e3d6000fd5b505050506040513d601f19601f820116820180604052508101906108d79190611311565b10156108e257600080fd5b60025460608201516040516323b872dd60e01b81526001600160a01b039182166004820152336024820152604481018590529116906323b872dd90606401600060405180830381600087803b15801561093a57600080fd5b505af115801561094e573d6000803e3d6000fd5b5050600254606084015160408086015190516319040e0760e21b81523360048201526001600160a01b039283166024820152604481019190915291169250636410381c9150606401600060405180830381600087803b1580156109b057600080fd5b505af11580156109c4573d6000803e3d6000fd5b505050505050565b6002546040516331a9108f60e11b81526004810183905282916001600160a01b031690636352211e9060240160206040518083038186803b158015610a1057600080fd5b505afa158015610a24573d6000803e3d6000fd5b505050506040513d601f19601f82011682018060405250810190610a4891906111e3565b6001600160a01b0316336001600160a01b031614610a6557600080fd5b60008281526004602052604090206005015460ff610100909104161515600114610a8e57600080fd5b60006001610a9b60035490565b610aa591906112fa565b600084815260046020526040902060010154909150808214610b3c57600060038381548110610ad657610ad6611167565b906000526020600020015490508460038481548110610af757610af7611167565b90600052602060002001819055508060038381548110610b1957610b19611167565b600091825260208083209091019290925591825260049052604090206001018190555b60008481526004602081905260408220828155600181018390556002810192909255600380830180546001600160a81b0319169055908201805463ffffffff191690556005909101805461ffff19169055805480610b9c57610b9c61132a565b60008281526020808220830160001990810183905590920190925585825260078152604080832054338452600690925290912054808210610bdc57600080fd5b610be76001826112fa565b821015610c425733600090815260056020526040812081610c096001856112fa565b81526020808201929092526040908101600090812054338252600584528282208783528452828220819055815260079092529020839055505b33600090815260056020526040812090610c5d6001846112fa565b81526020808201929092526040908101600090812081905533815260069092528120805460019290610c909084906112fa565b909155505060025460405163caece7bb60e01b815260048101889052600060248201526001600160a01b039091169063caece7bb90604401600060405180830381600087803b158015610ce257600080fd5b505af1158015610cf6573d6000803e3d6000fd5b50505050505050505050565b6000546001600160a01b03163314610d2c5760405162461bcd60e51b8152600401610326906111ae565b6001600160a01b038116610d915760405162461bcd60e51b815260206004820152602660248201527f4f776e61626c653a206e6577206f776e657220697320746865207a65726f206160448201526564647265737360d01b6064820152608401610326565b610d9a81610f21565b50565b336000908152600660205260409020546060908190156102c45760005b336000908152600660205260409020548110156102be57336000908152600560208181526040808420858552825280842054845260048083529381902081516101008082018452825482526001830154828601526002808401548386015260038401546001600160a01b03811660608086019190915260ff600160a01b909204821660808087019190915287519081018852998601548083168b529384048216978a0197909752620100008304811695890195909552630100000090910484169487019490945260a08101959095529283015460c0850192911690811115610ea457610ea4610fd3565b6002811115610eb557610eb5610fd3565b815260059190910154610100900460ff1615156020909101528251839083908110610ee257610ee2611167565b60200260200101819052508080610ef890611193565b915050610dba565b610f08610f71565b815260200190600190039081610f005750909392505050565b600080546001600160a01b038381166001600160a01b0319831681178455604051919092169283917f8be0079c531659141344cd1fd0a4f28419497f9722a3daafe3b4186f6b6457e09190a35050565b6040805161010081018252600080825260208083018290528284018290526060808401839052608080850184905285519081018652838152918201839052938101829052928301529060a0820190815260200160008152600060209091015290565b634e487b7160e01b600052602160045260246000fd5b6003811061100757634e487b7160e01b600052602160045260246000fd5b9052565b602080825282518282018190526000919060409081850190868401855b828110156110e65781518051855286810151878601528581015186860152606060018060a01b0381830151168187015260808083015160ff808216838a015260a0925082850151915080825116838a01528a820151925060c0818416818b01528a830151935060e0828516818c01528286850151166101008c01528187015195506110b76101208c0187610fe9565b95909501518015156101408b015294506110d19350505050565b50610160939093019290850190600101611028565b5091979650505050505050565b6001600160a01b0381168114610d9a57600080fd5b60006020828403121561111a57600080fd5b8135611125816110f3565b9392505050565b6000806040838503121561113f57600080fd5b50508035926020909101359150565b60006020828403121561116057600080fd5b5035919050565b634e487b7160e01b600052603260045260246000fd5b634e487b7160e01b600052601160045260246000fd5b60006000198214156111a7576111a761117d565b5060010190565b6020808252818101527f4f776e61626c653a2063616c6c6572206973206e6f7420746865206f776e6572604082015260600190565b6000602082840312156111f557600080fd5b8151611125816110f3565b805160ff8116811461121157600080fd5b919050565b80516003811061121157600080fd5b60008060008084860360e081121561123c57600080fd5b8551611247816110f3565b945061125560208701611200565b93506080603f198201121561126957600080fd5b506040516080810181811067ffffffffffffffff8211171561129b57634e487b7160e01b600052604160045260246000fd5b80604052506112ac60408701611200565b81526112ba60608701611200565b60208201526112cb60808701611200565b60408201526112dc60a08701611200565b606082015291506112ef60c08601611216565b905092959194509250565b60008282101561130c5761130c61117d565b500390565b60006020828403121561132357600080fd5b5051919050565b634e487b7160e01b600052603160045260246000fdfea264697066735822122056264d05f6a770cc7778becccdbc6ebdb0cbae502f6a51b236b4ce7fbfe7035b64736f6c63430008090033",
			"opcodes": "PUSH1 0x80 PUSH1 0x40 MSTORE CALLVALUE DUP1 ISZERO PUSH3 0x11 JUMPI PUSH1 0x0 DUP1 REVERT JUMPDEST POP PUSH1 0x40 MLOAD PUSH3 0x15F5 CODESIZE SUB DUP1 PUSH3 0x15F5 DUP4 CODECOPY DUP2 ADD PUSH1 0x40 DUP2 SWAP1 MSTORE PUSH3 0x34 SWAP2 PUSH3 0x200 JUMP JUMPDEST PUSH3 0x3F CALLER PUSH3 0x89 JUMP JUMPDEST PUSH1 0x40 DUP1 MLOAD DUP1 DUP3 ADD SWAP1 SWAP2 MSTORE PUSH1 0xE DUP1 DUP3 MSTORE PUSH14 0x135BDB9CDD195C8813585C9AD95D PUSH1 0x92 SHL PUSH1 0x20 SWAP1 SWAP3 ADD SWAP2 DUP3 MSTORE PUSH3 0x76 SWAP2 PUSH1 0x1 SWAP2 PUSH3 0x15A JUMP JUMPDEST POP PUSH3 0x82 DUP2 PUSH3 0xD9 JUMP JUMPDEST POP PUSH3 0x26F JUMP JUMPDEST PUSH1 0x0 DUP1 SLOAD PUSH1 0x1 PUSH1 0x1 PUSH1 0xA0 SHL SUB DUP4 DUP2 AND PUSH1 0x1 PUSH1 0x1 PUSH1 0xA0 SHL SUB NOT DUP4 AND DUP2 OR DUP5 SSTORE PUSH1 0x40 MLOAD SWAP2 SWAP1 SWAP3 AND SWAP3 DUP4 SWAP2 PUSH32 0x8BE0079C531659141344CD1FD0A4F28419497F9722A3DAAFE3B4186F6B6457E0 SWAP2 SWAP1 LOG3 POP POP JUMP JUMPDEST PUSH1 0x0 SLOAD PUSH1 0x1 PUSH1 0x1 PUSH1 0xA0 SHL SUB AND CALLER EQ PUSH3 0x138 JUMPI PUSH1 0x40 MLOAD PUSH3 0x461BCD PUSH1 0xE5 SHL DUP2 MSTORE PUSH1 0x20 PUSH1 0x4 DUP3 ADD DUP2 SWAP1 MSTORE PUSH1 0x24 DUP3 ADD MSTORE PUSH32 0x4F776E61626C653A2063616C6C6572206973206E6F7420746865206F776E6572 PUSH1 0x44 DUP3 ADD MSTORE PUSH1 0x64 ADD PUSH1 0x40 MLOAD DUP1 SWAP2 SUB SWAP1 REVERT JUMPDEST PUSH1 0x2 DUP1 SLOAD PUSH1 0x1 PUSH1 0x1 PUSH1 0xA0 SHL SUB NOT AND PUSH1 0x1 PUSH1 0x1 PUSH1 0xA0 SHL SUB SWAP3 SWAP1 SWAP3 AND SWAP2 SWAP1 SWAP2 OR SWAP1 SSTORE JUMP JUMPDEST DUP3 DUP1 SLOAD PUSH3 0x168 SWAP1 PUSH3 0x232 JUMP JUMPDEST SWAP1 PUSH1 0x0 MSTORE PUSH1 0x20 PUSH1 0x0 KECCAK256 SWAP1 PUSH1 0x1F ADD PUSH1 0x20 SWAP1 DIV DUP2 ADD SWAP3 DUP3 PUSH3 0x18C JUMPI PUSH1 0x0 DUP6 SSTORE PUSH3 0x1D7 JUMP JUMPDEST DUP3 PUSH1 0x1F LT PUSH3 0x1A7 JUMPI DUP1 MLOAD PUSH1 0xFF NOT AND DUP4 DUP1 ADD OR DUP6 SSTORE PUSH3 0x1D7 JUMP JUMPDEST DUP3 DUP1 ADD PUSH1 0x1 ADD DUP6 SSTORE DUP3 ISZERO PUSH3 0x1D7 JUMPI SWAP2 DUP3 ADD JUMPDEST DUP3 DUP2 GT ISZERO PUSH3 0x1D7 JUMPI DUP3 MLOAD DUP3 SSTORE SWAP2 PUSH1 0x20 ADD SWAP2 SWAP1 PUSH1 0x1 ADD SWAP1 PUSH3 0x1BA JUMP JUMPDEST POP PUSH3 0x1E5 SWAP3 SWAP2 POP PUSH3 0x1E9 JUMP JUMPDEST POP SWAP1 JUMP JUMPDEST JUMPDEST DUP1 DUP3 GT ISZERO PUSH3 0x1E5 JUMPI PUSH1 0x0 DUP2 SSTORE PUSH1 0x1 ADD PUSH3 0x1EA JUMP JUMPDEST PUSH1 0x0 PUSH1 0x20 DUP3 DUP5 SUB SLT ISZERO PUSH3 0x213 JUMPI PUSH1 0x0 DUP1 REVERT JUMPDEST DUP2 MLOAD PUSH1 0x1 PUSH1 0x1 PUSH1 0xA0 SHL SUB DUP2 AND DUP2 EQ PUSH3 0x22B JUMPI PUSH1 0x0 DUP1 REVERT JUMPDEST SWAP4 SWAP3 POP POP POP JUMP JUMPDEST PUSH1 0x1 DUP2 DUP2 SHR SWAP1 DUP3 AND DUP1 PUSH3 0x247 JUMPI PUSH1 0x7F DUP3 AND SWAP2 POP JUMPDEST PUSH1 0x20 DUP3 LT DUP2 EQ ISZERO PUSH3 0x269 JUMPI PUSH4 0x4E487B71 PUSH1 0xE0 SHL PUSH1 0x0 MSTORE PUSH1 0x22 PUSH1 0x4 MSTORE PUSH1 0x24 PUSH1 0x0 REVERT JUMPDEST POP SWAP2 SWAP1 POP JUMP JUMPDEST PUSH2 0x1376 DUP1 PUSH3 0x27F PUSH1 0x0 CODECOPY PUSH1 0x0 RETURN INVALID PUSH1 0x80 PUSH1 0x40 MSTORE CALLVALUE DUP1 ISZERO PUSH2 0x10 JUMPI PUSH1 0x0 DUP1 REVERT JUMPDEST POP PUSH1 0x4 CALLDATASIZE LT PUSH2 0x9E JUMPI PUSH1 0x0 CALLDATALOAD PUSH1 0xE0 SHR DUP1 PUSH4 0xB6F415FA GT PUSH2 0x66 JUMPI DUP1 PUSH4 0xB6F415FA EQ PUSH2 0x10A JUMPI DUP1 PUSH4 0xE681FAC5 EQ PUSH2 0x11D JUMPI DUP1 PUSH4 0xED90C7B7 EQ PUSH2 0x130 JUMPI DUP1 PUSH4 0xF2FDE38B EQ PUSH2 0x143 JUMPI DUP1 PUSH4 0xFDCA4CA3 EQ PUSH2 0x156 JUMPI PUSH1 0x0 DUP1 REVERT JUMPDEST DUP1 PUSH4 0x2EE3A52 EQ PUSH2 0xA3 JUMPI DUP1 PUSH4 0x18160DDD EQ PUSH2 0xC1 JUMPI DUP1 PUSH4 0x715018A6 EQ PUSH2 0xD2 JUMPI DUP1 PUSH4 0x7AF0343F EQ PUSH2 0xDC JUMPI DUP1 PUSH4 0x8DA5CB5B EQ PUSH2 0xEF JUMPI JUMPDEST PUSH1 0x0 DUP1 REVERT JUMPDEST PUSH2 0xAB PUSH2 0x15E JUMP JUMPDEST PUSH1 0x40 MLOAD PUSH2 0xB8 SWAP2 SWAP1 PUSH2 0x100B JUMP JUMPDEST PUSH1 0x40 MLOAD DUP1 SWAP2 SUB SWAP1 RETURN JUMPDEST PUSH1 0x3 SLOAD PUSH1 0x40 MLOAD SWAP1 DUP2 MSTORE PUSH1 0x20 ADD PUSH2 0xB8 JUMP JUMPDEST PUSH2 0xDA PUSH2 0x2FC JUMP JUMPDEST STOP JUMPDEST PUSH2 0xDA PUSH2 0xEA CALLDATASIZE PUSH1 0x4 PUSH2 0x1108 JUMP JUMPDEST PUSH2 0x33B JUMP JUMPDEST PUSH1 0x0 SLOAD PUSH1 0x40 MLOAD PUSH1 0x1 PUSH1 0x1 PUSH1 0xA0 SHL SUB SWAP1 SWAP2 AND DUP2 MSTORE PUSH1 0x20 ADD PUSH2 0xB8 JUMP JUMPDEST PUSH2 0xDA PUSH2 0x118 CALLDATASIZE PUSH1 0x4 PUSH2 0x112C JUMP JUMPDEST PUSH2 0x387 JUMP JUMPDEST PUSH2 0xDA PUSH2 0x12B CALLDATASIZE PUSH1 0x4 PUSH2 0x114E JUMP JUMPDEST PUSH2 0x767 JUMP JUMPDEST PUSH2 0xDA PUSH2 0x13E CALLDATASIZE PUSH1 0x4 PUSH2 0x114E JUMP JUMPDEST PUSH2 0x9CC JUMP JUMPDEST PUSH2 0xDA PUSH2 0x151 CALLDATASIZE PUSH1 0x4 PUSH2 0x1108 JUMP JUMPDEST PUSH2 0xD02 JUMP JUMPDEST PUSH2 0xAB PUSH2 0xD9D JUMP JUMPDEST PUSH1 0x3 SLOAD PUSH1 0x60 SWAP1 DUP2 SWAP1 ISZERO PUSH2 0x2C4 JUMPI PUSH1 0x0 JUMPDEST PUSH1 0x3 SLOAD DUP2 LT ISZERO PUSH2 0x2BE JUMPI PUSH1 0x4 PUSH1 0x0 PUSH1 0x3 DUP4 DUP2 SLOAD DUP2 LT PUSH2 0x18F JUMPI PUSH2 0x18F PUSH2 0x1167 JUMP JUMPDEST PUSH1 0x0 SWAP2 DUP3 MSTORE PUSH1 0x20 DUP1 DUP4 KECCAK256 SWAP1 SWAP2 ADD SLOAD DUP4 MSTORE DUP3 DUP2 ADD SWAP4 SWAP1 SWAP4 MSTORE PUSH1 0x40 SWAP2 DUP3 ADD SWAP1 KECCAK256 DUP2 MLOAD PUSH2 0x100 DUP1 DUP3 ADD DUP5 MSTORE DUP3 SLOAD DUP3 MSTORE PUSH1 0x1 DUP4 ADD SLOAD DUP3 DUP7 ADD MSTORE PUSH1 0x2 DUP1 DUP5 ADD SLOAD DUP4 DUP7 ADD MSTORE PUSH1 0x3 DUP5 ADD SLOAD PUSH1 0x1 PUSH1 0x1 PUSH1 0xA0 SHL SUB DUP2 AND PUSH1 0x60 DUP1 DUP7 ADD SWAP2 SWAP1 SWAP2 MSTORE PUSH1 0xFF PUSH1 0x1 PUSH1 0xA0 SHL SWAP1 SWAP3 DIV DUP3 AND PUSH1 0x80 DUP1 DUP8 ADD SWAP2 SWAP1 SWAP2 MSTORE DUP8 MLOAD SWAP1 DUP2 ADD DUP9 MSTORE PUSH1 0x4 DUP8 ADD SLOAD DUP1 DUP5 AND DUP3 MSTORE SWAP5 DUP6 DIV DUP4 AND SWAP9 DUP2 ADD SWAP9 SWAP1 SWAP9 MSTORE PUSH3 0x10000 DUP5 DIV DUP3 AND SWAP7 DUP9 ADD SWAP7 SWAP1 SWAP7 MSTORE PUSH4 0x1000000 SWAP1 SWAP3 DIV DUP3 AND SWAP5 DUP7 ADD SWAP5 SWAP1 SWAP5 MSTORE PUSH1 0xA0 DUP3 ADD SWAP5 SWAP1 SWAP5 MSTORE PUSH1 0x5 DUP3 ADD SLOAD SWAP1 SWAP4 SWAP2 SWAP3 PUSH1 0xC0 DUP6 ADD SWAP3 SWAP2 SWAP1 SWAP2 AND SWAP1 DUP2 GT ISZERO PUSH2 0x262 JUMPI PUSH2 0x262 PUSH2 0xFD3 JUMP JUMPDEST PUSH1 0x2 DUP2 GT ISZERO PUSH2 0x273 JUMPI PUSH2 0x273 PUSH2 0xFD3 JUMP JUMPDEST DUP2 MSTORE PUSH1 0x5 SWAP2 SWAP1 SWAP2 ADD SLOAD PUSH2 0x100 SWAP1 DIV PUSH1 0xFF AND ISZERO ISZERO PUSH1 0x20 SWAP1 SWAP2 ADD MSTORE DUP3 MLOAD DUP4 SWAP1 DUP4 SWAP1 DUP2 LT PUSH2 0x2A0 JUMPI PUSH2 0x2A0 PUSH2 0x1167 JUMP JUMPDEST PUSH1 0x20 MUL PUSH1 0x20 ADD ADD DUP2 SWAP1 MSTORE POP DUP1 DUP1 PUSH2 0x2B6 SWAP1 PUSH2 0x1193 JUMP JUMPDEST SWAP2 POP POP PUSH2 0x16E JUMP JUMPDEST POP SWAP2 SWAP1 POP JUMP JUMPDEST PUSH1 0x40 DUP1 MLOAD PUSH1 0x0 DUP1 DUP3 MSTORE PUSH1 0x20 DUP3 ADD SWAP1 SWAP3 MSTORE SWAP1 PUSH2 0x2F5 JUMP JUMPDEST PUSH2 0x2E2 PUSH2 0xF71 JUMP JUMPDEST DUP2 MSTORE PUSH1 0x20 ADD SWAP1 PUSH1 0x1 SWAP1 SUB SWAP1 DUP2 PUSH2 0x2DA JUMPI SWAP1 POP JUMPDEST POP SWAP3 SWAP2 POP POP JUMP JUMPDEST PUSH1 0x0 SLOAD PUSH1 0x1 PUSH1 0x1 PUSH1 0xA0 SHL SUB AND CALLER EQ PUSH2 0x32F JUMPI PUSH1 0x40 MLOAD PUSH3 0x461BCD PUSH1 0xE5 SHL DUP2 MSTORE PUSH1 0x4 ADD PUSH2 0x326 SWAP1 PUSH2 0x11AE JUMP JUMPDEST PUSH1 0x40 MLOAD DUP1 SWAP2 SUB SWAP1 REVERT JUMPDEST PUSH2 0x339 PUSH1 0x0 PUSH2 0xF21 JUMP JUMPDEST JUMP JUMPDEST PUSH1 0x0 SLOAD PUSH1 0x1 PUSH1 0x1 PUSH1 0xA0 SHL SUB AND CALLER EQ PUSH2 0x365 JUMPI PUSH1 0x40 MLOAD PUSH3 0x461BCD PUSH1 0xE5 SHL DUP2 MSTORE PUSH1 0x4 ADD PUSH2 0x326 SWAP1 PUSH2 0x11AE JUMP JUMPDEST PUSH1 0x2 DUP1 SLOAD PUSH1 0x1 PUSH1 0x1 PUSH1 0xA0 SHL SUB NOT AND PUSH1 0x1 PUSH1 0x1 PUSH1 0xA0 SHL SUB SWAP3 SWAP1 SWAP3 AND SWAP2 SWAP1 SWAP2 OR SWAP1 SSTORE JUMP JUMPDEST PUSH1 0x2 SLOAD PUSH1 0x40 MLOAD PUSH4 0x31A9108F PUSH1 0xE1 SHL DUP2 MSTORE PUSH1 0x4 DUP2 ADD DUP4 SWAP1 MSTORE DUP3 SWAP2 PUSH1 0x1 PUSH1 0x1 PUSH1 0xA0 SHL SUB AND SWAP1 PUSH4 0x6352211E SWAP1 PUSH1 0x24 ADD PUSH1 0x20 PUSH1 0x40 MLOAD DUP1 DUP4 SUB DUP2 DUP7 DUP1 EXTCODESIZE ISZERO DUP1 ISZERO PUSH2 0x3CB JUMPI PUSH1 0x0 DUP1 REVERT JUMPDEST POP GAS STATICCALL ISZERO DUP1 ISZERO PUSH2 0x3DF JUMPI RETURNDATASIZE PUSH1 0x0 DUP1 RETURNDATACOPY RETURNDATASIZE PUSH1 0x0 REVERT JUMPDEST POP POP POP POP PUSH1 0x40 MLOAD RETURNDATASIZE PUSH1 0x1F NOT PUSH1 0x1F DUP3 ADD AND DUP3 ADD DUP1 PUSH1 0x40 MSTORE POP DUP2 ADD SWAP1 PUSH2 0x403 SWAP2 SWAP1 PUSH2 0x11E3 JUMP JUMPDEST PUSH1 0x1 PUSH1 0x1 PUSH1 0xA0 SHL SUB AND CALLER PUSH1 0x1 PUSH1 0x1 PUSH1 0xA0 SHL SUB AND EQ PUSH2 0x420 JUMPI PUSH1 0x0 DUP1 REVERT JUMPDEST PUSH1 0x0 DUP3 DUP2 MSTORE PUSH1 0x4 PUSH1 0x20 MSTORE PUSH1 0x40 SWAP1 KECCAK256 PUSH1 0x5 ADD SLOAD PUSH2 0x100 SWAP1 DIV PUSH1 0xFF AND ISZERO PUSH2 0x444 JUMPI PUSH1 0x0 DUP1 REVERT JUMPDEST PUSH1 0x2 SLOAD PUSH1 0x40 MLOAD PUSH4 0x1E6A179B PUSH1 0xE2 SHL DUP2 MSTORE PUSH1 0x4 DUP2 ADD DUP5 SWAP1 MSTORE PUSH1 0x0 SWAP2 DUP3 SWAP2 DUP3 SWAP2 DUP3 SWAP2 PUSH1 0x1 PUSH1 0x1 PUSH1 0xA0 SHL SUB SWAP1 SWAP2 AND SWAP1 PUSH4 0x79A85E6C SWAP1 PUSH1 0x24 ADD PUSH1 0xE0 PUSH1 0x40 MLOAD DUP1 DUP4 SUB DUP2 DUP7 DUP1 EXTCODESIZE ISZERO DUP1 ISZERO PUSH2 0x491 JUMPI PUSH1 0x0 DUP1 REVERT JUMPDEST POP GAS STATICCALL ISZERO DUP1 ISZERO PUSH2 0x4A5 JUMPI RETURNDATASIZE PUSH1 0x0 DUP1 RETURNDATACOPY RETURNDATASIZE PUSH1 0x0 REVERT JUMPDEST POP POP POP POP PUSH1 0x40 MLOAD RETURNDATASIZE PUSH1 0x1F NOT PUSH1 0x1F DUP3 ADD AND DUP3 ADD DUP1 PUSH1 0x40 MSTORE POP DUP2 ADD SWAP1 PUSH2 0x4C9 SWAP2 SWAP1 PUSH2 0x1225 JUMP JUMPDEST SWAP4 POP SWAP4 POP SWAP4 POP SWAP4 POP PUSH1 0x0 PUSH1 0x1 PUSH2 0x4DE PUSH1 0x3 SLOAD SWAP1 JUMP JUMPDEST PUSH2 0x4E8 SWAP2 SWAP1 PUSH2 0x12FA JUMP JUMPDEST SWAP1 POP PUSH1 0x0 PUSH1 0x40 MLOAD DUP1 PUSH2 0x100 ADD PUSH1 0x40 MSTORE DUP1 DUP10 DUP2 MSTORE PUSH1 0x20 ADD DUP4 DUP2 MSTORE PUSH1 0x20 ADD DUP11 DUP2 MSTORE PUSH1 0x20 ADD DUP8 PUSH1 0x1 PUSH1 0x1 PUSH1 0xA0 SHL SUB AND DUP2 MSTORE PUSH1 0x20 ADD DUP7 PUSH1 0xFF AND DUP2 MSTORE PUSH1 0x20 ADD DUP6 DUP2 MSTORE PUSH1 0x20 ADD DUP5 PUSH1 0x2 DUP2 GT ISZERO PUSH2 0x53A JUMPI PUSH2 0x53A PUSH2 0xFD3 JUMP JUMPDEST DUP2 MSTORE PUSH1 0x1 PUSH1 0x20 SWAP2 DUP3 ADD DUP2 SWAP1 MSTORE PUSH1 0x3 DUP1 SLOAD DUP1 DUP4 ADD DUP3 SSTORE PUSH32 0xC2575A0E9E593C00F959F8C92F12DB2869C3395A3B0502D05E2516446F71F85B ADD DUP13 SWAP1 SSTORE PUSH1 0x0 DUP13 DUP2 MSTORE PUSH1 0x4 DUP1 DUP6 MSTORE PUSH1 0x40 SWAP2 DUP3 SWAP1 KECCAK256 DUP7 MLOAD DUP2 SSTORE DUP7 DUP7 ADD MLOAD DUP2 DUP7 ADD SSTORE DUP3 DUP8 ADD MLOAD PUSH1 0x2 DUP1 DUP4 ADD SWAP2 SWAP1 SWAP2 SSTORE PUSH1 0x60 DUP1 DUP10 ADD MLOAD SWAP6 DUP4 ADD DUP1 SLOAD PUSH1 0x80 DUP12 ADD MLOAD PUSH1 0xFF SWAP1 DUP2 AND PUSH1 0x1 PUSH1 0xA0 SHL MUL PUSH1 0x1 PUSH1 0x1 PUSH1 0xA8 SHL SUB NOT SWAP1 SWAP3 AND PUSH1 0x1 PUSH1 0x1 PUSH1 0xA0 SHL SUB SWAP1 SWAP10 AND SWAP9 SWAP1 SWAP9 OR OR SWAP1 SSTORE PUSH1 0xA0 DUP10 ADD MLOAD DUP1 MLOAD SWAP5 DUP5 ADD DUP1 SLOAD SWAP10 DUP3 ADD MLOAD SWAP7 DUP3 ADD MLOAD SWAP2 SWAP1 SWAP3 ADD MLOAD DUP8 AND PUSH4 0x1000000 MUL PUSH4 0xFF000000 NOT SWAP2 DUP9 AND PUSH3 0x10000 MUL SWAP2 SWAP1 SWAP2 AND PUSH4 0xFFFF0000 NOT SWAP7 DUP9 AND PUSH2 0x100 MUL PUSH2 0xFFFF NOT SWAP1 SWAP11 AND SWAP6 SWAP1 SWAP8 AND SWAP5 SWAP1 SWAP5 OR SWAP8 SWAP1 SWAP8 OR SWAP4 SWAP1 SWAP4 AND SWAP4 SWAP1 SWAP4 OR OR SWAP1 SWAP4 SSTORE PUSH1 0xC0 DUP5 ADD MLOAD PUSH1 0x5 DUP3 ADD DUP1 SLOAD SWAP6 SWAP7 POP DUP7 SWAP6 SWAP3 SWAP5 SWAP2 SWAP4 SWAP1 SWAP3 PUSH1 0xFF NOT AND SWAP2 DUP5 SWAP1 DUP2 GT ISZERO PUSH2 0x661 JUMPI PUSH2 0x661 PUSH2 0xFD3 JUMP JUMPDEST MUL OR SWAP1 SSTORE POP PUSH1 0xE0 SWAP2 SWAP1 SWAP2 ADD MLOAD PUSH1 0x5 SWAP2 DUP3 ADD DUP1 SLOAD SWAP2 ISZERO ISZERO PUSH2 0x100 MUL PUSH2 0xFF00 NOT SWAP1 SWAP3 AND SWAP2 SWAP1 SWAP2 OR SWAP1 SSTORE CALLER PUSH1 0x0 SWAP1 DUP2 MSTORE PUSH1 0x6 PUSH1 0x20 SWAP1 DUP2 MSTORE PUSH1 0x40 DUP1 DUP4 KECCAK256 SLOAD DUP6 MLOAD SWAP5 DUP4 MSTORE DUP2 DUP5 KECCAK256 DUP2 DUP6 MSTORE DUP4 MSTORE DUP2 DUP5 KECCAK256 SWAP5 SWAP1 SWAP5 SSTORE DUP12 DUP4 MSTORE PUSH1 0x7 SWAP1 SWAP2 MSTORE SWAP1 DUP2 SWAP1 KECCAK256 DUP3 SWAP1 SSTORE PUSH1 0x2 SLOAD SWAP1 MLOAD PUSH4 0xCAECE7BB PUSH1 0xE0 SHL DUP2 MSTORE PUSH1 0x4 DUP2 ADD DUP12 SWAP1 MSTORE PUSH1 0x1 PUSH1 0x24 DUP3 ADD MSTORE PUSH1 0x1 PUSH1 0x1 PUSH1 0xA0 SHL SUB SWAP1 SWAP2 AND SWAP1 PUSH4 0xCAECE7BB SWAP1 PUSH1 0x44 ADD PUSH1 0x0 PUSH1 0x40 MLOAD DUP1 DUP4 SUB DUP2 PUSH1 0x0 DUP8 DUP1 EXTCODESIZE ISZERO DUP1 ISZERO PUSH2 0x70A JUMPI PUSH1 0x0 DUP1 REVERT JUMPDEST POP GAS CALL ISZERO DUP1 ISZERO PUSH2 0x71E JUMPI RETURNDATASIZE PUSH1 0x0 DUP1 RETURNDATACOPY RETURNDATASIZE PUSH1 0x0 REVERT JUMPDEST POP POP POP POP PUSH32 0x24A4E0B58A37C0F3E30A528CE8AC1DA26869FCF5E64B7C319D27054AC4D7CA9B DUP10 PUSH1 0x40 MLOAD PUSH2 0x753 SWAP2 DUP2 MSTORE PUSH1 0x20 ADD SWAP1 JUMP JUMPDEST PUSH1 0x40 MLOAD DUP1 SWAP2 SUB SWAP1 LOG1 POP POP POP POP POP POP POP POP POP POP JUMP JUMPDEST PUSH1 0x0 DUP2 DUP2 MSTORE PUSH1 0x4 PUSH1 0x20 DUP2 DUP2 MSTORE PUSH1 0x40 DUP1 DUP5 KECCAK256 DUP2 MLOAD PUSH2 0x100 DUP1 DUP3 ADD DUP5 MSTORE DUP3 SLOAD DUP3 MSTORE PUSH1 0x1 DUP4 ADD SLOAD DUP3 DUP7 ADD MSTORE PUSH1 0x2 DUP1 DUP5 ADD SLOAD DUP4 DUP7 ADD MSTORE PUSH1 0x3 DUP5 ADD SLOAD PUSH1 0x1 PUSH1 0x1 PUSH1 0xA0 SHL SUB DUP2 AND PUSH1 0x60 DUP1 DUP7 ADD SWAP2 SWAP1 SWAP2 MSTORE PUSH1 0x1 PUSH1 0xA0 SHL SWAP1 SWAP2 DIV PUSH1 0xFF SWAP1 DUP2 AND PUSH1 0x80 DUP1 DUP8 ADD SWAP2 SWAP1 SWAP2 MSTORE DUP8 MLOAD SWAP1 DUP2 ADD DUP9 MSTORE SWAP9 DUP7 ADD SLOAD DUP1 DUP3 AND DUP11 MSTORE SWAP4 DUP5 DIV DUP2 AND SWAP8 DUP10 ADD SWAP8 SWAP1 SWAP8 MSTORE PUSH3 0x10000 DUP4 DIV DUP8 AND SWAP6 DUP9 ADD SWAP6 SWAP1 SWAP6 MSTORE PUSH4 0x1000000 SWAP1 SWAP2 DIV DUP6 AND SWAP4 DUP7 ADD SWAP4 SWAP1 SWAP4 MSTORE PUSH1 0xA0 DUP2 ADD SWAP5 SWAP1 SWAP5 MSTORE PUSH1 0x5 DUP2 ADD SLOAD SWAP1 SWAP3 PUSH1 0xC0 DUP6 ADD SWAP3 SWAP2 AND SWAP1 DUP2 GT ISZERO PUSH2 0x829 JUMPI PUSH2 0x829 PUSH2 0xFD3 JUMP JUMPDEST PUSH1 0x2 DUP2 GT ISZERO PUSH2 0x83A JUMPI PUSH2 0x83A PUSH2 0xFD3 JUMP JUMPDEST DUP2 MSTORE PUSH1 0x5 SWAP2 SWAP1 SWAP2 ADD SLOAD PUSH2 0x100 SWAP1 DIV PUSH1 0xFF AND ISZERO ISZERO PUSH1 0x20 SWAP1 SWAP2 ADD MSTORE PUSH1 0x40 DUP2 DUP2 ADD MLOAD PUSH1 0x2 SLOAD SWAP2 MLOAD PUSH4 0x23E3FBD5 PUSH1 0xE0 SHL DUP2 MSTORE CALLER PUSH1 0x4 DUP3 ADD MSTORE SWAP3 SWAP4 POP SWAP2 PUSH1 0x1 PUSH1 0x1 PUSH1 0xA0 SHL SUB SWAP1 SWAP2 AND SWAP1 PUSH4 0x23E3FBD5 SWAP1 PUSH1 0x24 ADD PUSH1 0x20 PUSH1 0x40 MLOAD DUP1 DUP4 SUB DUP2 DUP7 DUP1 EXTCODESIZE ISZERO DUP1 ISZERO PUSH2 0x89F JUMPI PUSH1 0x0 DUP1 REVERT JUMPDEST POP GAS STATICCALL ISZERO DUP1 ISZERO PUSH2 0x8B3 JUMPI RETURNDATASIZE PUSH1 0x0 DUP1 RETURNDATACOPY RETURNDATASIZE PUSH1 0x0 REVERT JUMPDEST POP POP POP POP PUSH1 0x40 MLOAD RETURNDATASIZE PUSH1 0x1F NOT PUSH1 0x1F DUP3 ADD AND DUP3 ADD DUP1 PUSH1 0x40 MSTORE POP DUP2 ADD SWAP1 PUSH2 0x8D7 SWAP2 SWAP1 PUSH2 0x1311 JUMP JUMPDEST LT ISZERO PUSH2 0x8E2 JUMPI PUSH1 0x0 DUP1 REVERT JUMPDEST PUSH1 0x2 SLOAD PUSH1 0x60 DUP3 ADD MLOAD PUSH1 0x40 MLOAD PUSH4 0x23B872DD PUSH1 0xE0 SHL DUP2 MSTORE PUSH1 0x1 PUSH1 0x1 PUSH1 0xA0 SHL SUB SWAP2 DUP3 AND PUSH1 0x4 DUP3 ADD MSTORE CALLER PUSH1 0x24 DUP3 ADD MSTORE PUSH1 0x44 DUP2 ADD DUP6 SWAP1 MSTORE SWAP2 AND SWAP1 PUSH4 0x23B872DD SWAP1 PUSH1 0x64 ADD PUSH1 0x0 PUSH1 0x40 MLOAD DUP1 DUP4 SUB DUP2 PUSH1 0x0 DUP8 DUP1 EXTCODESIZE ISZERO DUP1 ISZERO PUSH2 0x93A JUMPI PUSH1 0x0 DUP1 REVERT JUMPDEST POP GAS CALL ISZERO DUP1 ISZERO PUSH2 0x94E JUMPI RETURNDATASIZE PUSH1 0x0 DUP1 RETURNDATACOPY RETURNDATASIZE PUSH1 0x0 REVERT JUMPDEST POP POP PUSH1 0x2 SLOAD PUSH1 0x60 DUP5 ADD MLOAD PUSH1 0x40 DUP1 DUP7 ADD MLOAD SWAP1 MLOAD PUSH4 0x19040E07 PUSH1 0xE2 SHL DUP2 MSTORE CALLER PUSH1 0x4 DUP3 ADD MSTORE PUSH1 0x1 PUSH1 0x1 PUSH1 0xA0 SHL SUB SWAP3 DUP4 AND PUSH1 0x24 DUP3 ADD MSTORE PUSH1 0x44 DUP2 ADD SWAP2 SWAP1 SWAP2 MSTORE SWAP2 AND SWAP3 POP PUSH4 0x6410381C SWAP2 POP PUSH1 0x64 ADD PUSH1 0x0 PUSH1 0x40 MLOAD DUP1 DUP4 SUB DUP2 PUSH1 0x0 DUP8 DUP1 EXTCODESIZE ISZERO DUP1 ISZERO PUSH2 0x9B0 JUMPI PUSH1 0x0 DUP1 REVERT JUMPDEST POP GAS CALL ISZERO DUP1 ISZERO PUSH2 0x9C4 JUMPI RETURNDATASIZE PUSH1 0x0 DUP1 RETURNDATACOPY RETURNDATASIZE PUSH1 0x0 REVERT JUMPDEST POP POP POP POP POP POP JUMP JUMPDEST PUSH1 0x2 SLOAD PUSH1 0x40 MLOAD PUSH4 0x31A9108F PUSH1 0xE1 SHL DUP2 MSTORE PUSH1 0x4 DUP2 ADD DUP4 SWAP1 MSTORE DUP3 SWAP2 PUSH1 0x1 PUSH1 0x1 PUSH1 0xA0 SHL SUB AND SWAP1 PUSH4 0x6352211E SWAP1 PUSH1 0x24 ADD PUSH1 0x20 PUSH1 0x40 MLOAD DUP1 DUP4 SUB DUP2 DUP7 DUP1 EXTCODESIZE ISZERO DUP1 ISZERO PUSH2 0xA10 JUMPI PUSH1 0x0 DUP1 REVERT JUMPDEST POP GAS STATICCALL ISZERO DUP1 ISZERO PUSH2 0xA24 JUMPI RETURNDATASIZE PUSH1 0x0 DUP1 RETURNDATACOPY RETURNDATASIZE PUSH1 0x0 REVERT JUMPDEST POP POP POP POP PUSH1 0x40 MLOAD RETURNDATASIZE PUSH1 0x1F NOT PUSH1 0x1F DUP3 ADD AND DUP3 ADD DUP1 PUSH1 0x40 MSTORE POP DUP2 ADD SWAP1 PUSH2 0xA48 SWAP2 SWAP1 PUSH2 0x11E3 JUMP JUMPDEST PUSH1 0x1 PUSH1 0x1 PUSH1 0xA0 SHL SUB AND CALLER PUSH1 0x1 PUSH1 0x1 PUSH1 0xA0 SHL SUB AND EQ PUSH2 0xA65 JUMPI PUSH1 0x0 DUP1 REVERT JUMPDEST PUSH1 0x0 DUP3 DUP2 MSTORE PUSH1 0x4 PUSH1 0x20 MSTORE PUSH1 0x40 SWAP1 KECCAK256 PUSH1 0x5 ADD SLOAD PUSH1 0xFF PUSH2 0x100 SWAP1 SWAP2 DIV AND ISZERO ISZERO PUSH1 0x1 EQ PUSH2 0xA8E JUMPI PUSH1 0x0 DUP1 REVERT JUMPDEST PUSH1 0x0 PUSH1 0x1 PUSH2 0xA9B PUSH1 0x3 SLOAD SWAP1 JUMP JUMPDEST PUSH2 0xAA5 SWAP2 SWAP1 PUSH2 0x12FA JUMP JUMPDEST PUSH1 0x0 DUP5 DUP2 MSTORE PUSH1 0x4 PUSH1 0x20 MSTORE PUSH1 0x40 SWAP1 KECCAK256 PUSH1 0x1 ADD SLOAD SWAP1 SWAP2 POP DUP1 DUP3 EQ PUSH2 0xB3C JUMPI PUSH1 0x0 PUSH1 0x3 DUP4 DUP2 SLOAD DUP2 LT PUSH2 0xAD6 JUMPI PUSH2 0xAD6 PUSH2 0x1167 JUMP JUMPDEST SWAP1 PUSH1 0x0 MSTORE PUSH1 0x20 PUSH1 0x0 KECCAK256 ADD SLOAD SWAP1 POP DUP5 PUSH1 0x3 DUP5 DUP2 SLOAD DUP2 LT PUSH2 0xAF7 JUMPI PUSH2 0xAF7 PUSH2 0x1167 JUMP JUMPDEST SWAP1 PUSH1 0x0 MSTORE PUSH1 0x20 PUSH1 0x0 KECCAK256 ADD DUP2 SWAP1 SSTORE POP DUP1 PUSH1 0x3 DUP4 DUP2 SLOAD DUP2 LT PUSH2 0xB19 JUMPI PUSH2 0xB19 PUSH2 0x1167 JUMP JUMPDEST PUSH1 0x0 SWAP2 DUP3 MSTORE PUSH1 0x20 DUP1 DUP4 KECCAK256 SWAP1 SWAP2 ADD SWAP3 SWAP1 SWAP3 SSTORE SWAP2 DUP3 MSTORE PUSH1 0x4 SWAP1 MSTORE PUSH1 0x40 SWAP1 KECCAK256 PUSH1 0x1 ADD DUP2 SWAP1 SSTORE JUMPDEST PUSH1 0x0 DUP5 DUP2 MSTORE PUSH1 0x4 PUSH1 0x20 DUP2 SWAP1 MSTORE PUSH1 0x40 DUP3 KECCAK256 DUP3 DUP2 SSTORE PUSH1 0x1 DUP2 ADD DUP4 SWAP1 SSTORE PUSH1 0x2 DUP2 ADD SWAP3 SWAP1 SWAP3 SSTORE PUSH1 0x3 DUP1 DUP4 ADD DUP1 SLOAD PUSH1 0x1 PUSH1 0x1 PUSH1 0xA8 SHL SUB NOT AND SWAP1 SSTORE SWAP1 DUP3 ADD DUP1 SLOAD PUSH4 0xFFFFFFFF NOT AND SWAP1 SSTORE PUSH1 0x5 SWAP1 SWAP2 ADD DUP1 SLOAD PUSH2 0xFFFF NOT AND SWAP1 SSTORE DUP1 SLOAD DUP1 PUSH2 0xB9C JUMPI PUSH2 0xB9C PUSH2 0x132A JUMP JUMPDEST PUSH1 0x0 DUP3 DUP2 MSTORE PUSH1 0x20 DUP1 DUP3 KECCAK256 DUP4 ADD PUSH1 0x0 NOT SWAP1 DUP2 ADD DUP4 SWAP1 SSTORE SWAP1 SWAP3 ADD SWAP1 SWAP3 SSTORE DUP6 DUP3 MSTORE PUSH1 0x7 DUP2 MSTORE PUSH1 0x40 DUP1 DUP4 KECCAK256 SLOAD CALLER DUP5 MSTORE PUSH1 0x6 SWAP1 SWAP3 MSTORE SWAP1 SWAP2 KECCAK256 SLOAD DUP1 DUP3 LT PUSH2 0xBDC JUMPI PUSH1 0x0 DUP1 REVERT JUMPDEST PUSH2 0xBE7 PUSH1 0x1 DUP3 PUSH2 0x12FA JUMP JUMPDEST DUP3 LT ISZERO PUSH2 0xC42 JUMPI CALLER PUSH1 0x0 SWAP1 DUP2 MSTORE PUSH1 0x5 PUSH1 0x20 MSTORE PUSH1 0x40 DUP2 KECCAK256 DUP2 PUSH2 0xC09 PUSH1 0x1 DUP6 PUSH2 0x12FA JUMP JUMPDEST DUP2 MSTORE PUSH1 0x20 DUP1 DUP3 ADD SWAP3 SWAP1 SWAP3 MSTORE PUSH1 0x40 SWAP1 DUP2 ADD PUSH1 0x0 SWAP1 DUP2 KECCAK256 SLOAD CALLER DUP3 MSTORE PUSH1 0x5 DUP5 MSTORE DUP3 DUP3 KECCAK256 DUP8 DUP4 MSTORE DUP5 MSTORE DUP3 DUP3 KECCAK256 DUP2 SWAP1 SSTORE DUP2 MSTORE PUSH1 0x7 SWAP1 SWAP3 MSTORE SWAP1 KECCAK256 DUP4 SWAP1 SSTORE POP JUMPDEST CALLER PUSH1 0x0 SWAP1 DUP2 MSTORE PUSH1 0x5 PUSH1 0x20 MSTORE PUSH1 0x40 DUP2 KECCAK256 SWAP1 PUSH2 0xC5D PUSH1 0x1 DUP5 PUSH2 0x12FA JUMP JUMPDEST DUP2 MSTORE PUSH1 0x20 DUP1 DUP3 ADD SWAP3 SWAP1 SWAP3 MSTORE PUSH1 0x40 SWAP1 DUP2 ADD PUSH1 0x0 SWAP1 DUP2 KECCAK256 DUP2 SWAP1 SSTORE CALLER DUP2 MSTORE PUSH1 0x6 SWAP1 SWAP3 MSTORE DUP2 KECCAK256 DUP1 SLOAD PUSH1 0x1 SWAP3 SWAP1 PUSH2 0xC90 SWAP1 DUP5 SWAP1 PUSH2 0x12FA JUMP JUMPDEST SWAP1 SWAP2 SSTORE POP POP PUSH1 0x2 SLOAD PUSH1 0x40 MLOAD PUSH4 0xCAECE7BB PUSH1 0xE0 SHL DUP2 MSTORE PUSH1 0x4 DUP2 ADD DUP9 SWAP1 MSTORE PUSH1 0x0 PUSH1 0x24 DUP3 ADD MSTORE PUSH1 0x1 PUSH1 0x1 PUSH1 0xA0 SHL SUB SWAP1 SWAP2 AND SWAP1 PUSH4 0xCAECE7BB SWAP1 PUSH1 0x44 ADD PUSH1 0x0 PUSH1 0x40 MLOAD DUP1 DUP4 SUB DUP2 PUSH1 0x0 DUP8 DUP1 EXTCODESIZE ISZERO DUP1 ISZERO PUSH2 0xCE2 JUMPI PUSH1 0x0 DUP1 REVERT JUMPDEST POP GAS CALL ISZERO DUP1 ISZERO PUSH2 0xCF6 JUMPI RETURNDATASIZE PUSH1 0x0 DUP1 RETURNDATACOPY RETURNDATASIZE PUSH1 0x0 REVERT JUMPDEST POP POP POP POP POP POP POP POP POP POP JUMP JUMPDEST PUSH1 0x0 SLOAD PUSH1 0x1 PUSH1 0x1 PUSH1 0xA0 SHL SUB AND CALLER EQ PUSH2 0xD2C JUMPI PUSH1 0x40 MLOAD PUSH3 0x461BCD PUSH1 0xE5 SHL DUP2 MSTORE PUSH1 0x4 ADD PUSH2 0x326 SWAP1 PUSH2 0x11AE JUMP JUMPDEST PUSH1 0x1 PUSH1 0x1 PUSH1 0xA0 SHL SUB DUP2 AND PUSH2 0xD91 JUMPI PUSH1 0x40 MLOAD PUSH3 0x461BCD PUSH1 0xE5 SHL DUP2 MSTORE PUSH1 0x20 PUSH1 0x4 DUP3 ADD MSTORE PUSH1 0x26 PUSH1 0x24 DUP3 ADD MSTORE PUSH32 0x4F776E61626C653A206E6577206F776E657220697320746865207A65726F2061 PUSH1 0x44 DUP3 ADD MSTORE PUSH6 0x646472657373 PUSH1 0xD0 SHL PUSH1 0x64 DUP3 ADD MSTORE PUSH1 0x84 ADD PUSH2 0x326 JUMP JUMPDEST PUSH2 0xD9A DUP2 PUSH2 0xF21 JUMP JUMPDEST POP JUMP JUMPDEST CALLER PUSH1 0x0 SWAP1 DUP2 MSTORE PUSH1 0x6 PUSH1 0x20 MSTORE PUSH1 0x40 SWAP1 KECCAK256 SLOAD PUSH1 0x60 SWAP1 DUP2 SWAP1 ISZERO PUSH2 0x2C4 JUMPI PUSH1 0x0 JUMPDEST CALLER PUSH1 0x0 SWAP1 DUP2 MSTORE PUSH1 0x6 PUSH1 0x20 MSTORE PUSH1 0x40 SWAP1 KECCAK256 SLOAD DUP2 LT ISZERO PUSH2 0x2BE JUMPI CALLER PUSH1 0x0 SWAP1 DUP2 MSTORE PUSH1 0x5 PUSH1 0x20 DUP2 DUP2 MSTORE PUSH1 0x40 DUP1 DUP5 KECCAK256 DUP6 DUP6 MSTORE DUP3 MSTORE DUP1 DUP5 KECCAK256 SLOAD DUP5 MSTORE PUSH1 0x4 DUP1 DUP4 MSTORE SWAP4 DUP2 SWAP1 KECCAK256 DUP2 MLOAD PUSH2 0x100 DUP1 DUP3 ADD DUP5 MSTORE DUP3 SLOAD DUP3 MSTORE PUSH1 0x1 DUP4 ADD SLOAD DUP3 DUP7 ADD MSTORE PUSH1 0x2 DUP1 DUP5 ADD SLOAD DUP4 DUP7 ADD MSTORE PUSH1 0x3 DUP5 ADD SLOAD PUSH1 0x1 PUSH1 0x1 PUSH1 0xA0 SHL SUB DUP2 AND PUSH1 0x60 DUP1 DUP7 ADD SWAP2 SWAP1 SWAP2 MSTORE PUSH1 0xFF PUSH1 0x1 PUSH1 0xA0 SHL SWAP1 SWAP3 DIV DUP3 AND PUSH1 0x80 DUP1 DUP8 ADD SWAP2 SWAP1 SWAP2 MSTORE DUP8 MLOAD SWAP1 DUP2 ADD DUP9 MSTORE SWAP10 DUP7 ADD SLOAD DUP1 DUP4 AND DUP12 MSTORE SWAP4 DUP5 DIV DUP3 AND SWAP8 DUP11 ADD SWAP8 SWAP1 SWAP8 MSTORE PUSH3 0x10000 DUP4 DIV DUP2 AND SWAP6 DUP10 ADD SWAP6 SWAP1 SWAP6 MSTORE PUSH4 0x1000000 SWAP1 SWAP2 DIV DUP5 AND SWAP5 DUP8 ADD SWAP5 SWAP1 SWAP5 MSTORE PUSH1 0xA0 DUP2 ADD SWAP6 SWAP1 SWAP6 MSTORE SWAP3 DUP4 ADD SLOAD PUSH1 0xC0 DUP6 ADD SWAP3 SWAP2 AND SWAP1 DUP2 GT ISZERO PUSH2 0xEA4 JUMPI PUSH2 0xEA4 PUSH2 0xFD3 JUMP JUMPDEST PUSH1 0x2 DUP2 GT ISZERO PUSH2 0xEB5 JUMPI PUSH2 0xEB5 PUSH2 0xFD3 JUMP JUMPDEST DUP2 MSTORE PUSH1 0x5 SWAP2 SWAP1 SWAP2 ADD SLOAD PUSH2 0x100 SWAP1 DIV PUSH1 0xFF AND ISZERO ISZERO PUSH1 0x20 SWAP1 SWAP2 ADD MSTORE DUP3 MLOAD DUP4 SWAP1 DUP4 SWAP1 DUP2 LT PUSH2 0xEE2 JUMPI PUSH2 0xEE2 PUSH2 0x1167 JUMP JUMPDEST PUSH1 0x20 MUL PUSH1 0x20 ADD ADD DUP2 SWAP1 MSTORE POP DUP1 DUP1 PUSH2 0xEF8 SWAP1 PUSH2 0x1193 JUMP JUMPDEST SWAP2 POP POP PUSH2 0xDBA JUMP JUMPDEST PUSH2 0xF08 PUSH2 0xF71 JUMP JUMPDEST DUP2 MSTORE PUSH1 0x20 ADD SWAP1 PUSH1 0x1 SWAP1 SUB SWAP1 DUP2 PUSH2 0xF00 JUMPI POP SWAP1 SWAP4 SWAP3 POP POP POP JUMP JUMPDEST PUSH1 0x0 DUP1 SLOAD PUSH1 0x1 PUSH1 0x1 PUSH1 0xA0 SHL SUB DUP4 DUP2 AND PUSH1 0x1 PUSH1 0x1 PUSH1 0xA0 SHL SUB NOT DUP4 AND DUP2 OR DUP5 SSTORE PUSH1 0x40 MLOAD SWAP2 SWAP1 SWAP3 AND SWAP3 DUP4 SWAP2 PUSH32 0x8BE0079C531659141344CD1FD0A4F28419497F9722A3DAAFE3B4186F6B6457E0 SWAP2 SWAP1 LOG3 POP POP JUMP JUMPDEST PUSH1 0x40 DUP1 MLOAD PUSH2 0x100 DUP2 ADD DUP3 MSTORE PUSH1 0x0 DUP1 DUP3 MSTORE PUSH1 0x20 DUP1 DUP4 ADD DUP3 SWAP1 MSTORE DUP3 DUP5 ADD DUP3 SWAP1 MSTORE PUSH1 0x60 DUP1 DUP5 ADD DUP4 SWAP1 MSTORE PUSH1 0x80 DUP1 DUP6 ADD DUP5 SWAP1 MSTORE DUP6 MLOAD SWAP1 DUP2 ADD DUP7 MSTORE DUP4 DUP2 MSTORE SWAP2 DUP3 ADD DUP4 SWAP1 MSTORE SWAP4 DUP2 ADD DUP3 SWAP1 MSTORE SWAP3 DUP4 ADD MSTORE SWAP1 PUSH1 0xA0 DUP3 ADD SWAP1 DUP2 MSTORE PUSH1 0x20 ADD PUSH1 0x0 DUP2 MSTORE PUSH1 0x0 PUSH1 0x20 SWAP1 SWAP2 ADD MSTORE SWAP1 JUMP JUMPDEST PUSH4 0x4E487B71 PUSH1 0xE0 SHL PUSH1 0x0 MSTORE PUSH1 0x21 PUSH1 0x4 MSTORE PUSH1 0x24 PUSH1 0x0 REVERT JUMPDEST PUSH1 0x3 DUP2 LT PUSH2 0x1007 JUMPI PUSH4 0x4E487B71 PUSH1 0xE0 SHL PUSH1 0x0 MSTORE PUSH1 0x21 PUSH1 0x4 MSTORE PUSH1 0x24 PUSH1 0x0 REVERT JUMPDEST SWAP1 MSTORE JUMP JUMPDEST PUSH1 0x20 DUP1 DUP3 MSTORE DUP3 MLOAD DUP3 DUP3 ADD DUP2 SWAP1 MSTORE PUSH1 0x0 SWAP2 SWAP1 PUSH1 0x40 SWAP1 DUP2 DUP6 ADD SWAP1 DUP7 DUP5 ADD DUP6 JUMPDEST DUP3 DUP2 LT ISZERO PUSH2 0x10E6 JUMPI DUP2 MLOAD DUP1 MLOAD DUP6 MSTORE DUP7 DUP2 ADD MLOAD DUP8 DUP7 ADD MSTORE DUP6 DUP2 ADD MLOAD DUP7 DUP7 ADD MSTORE PUSH1 0x60 PUSH1 0x1 DUP1 PUSH1 0xA0 SHL SUB DUP2 DUP4 ADD MLOAD AND DUP2 DUP8 ADD MSTORE PUSH1 0x80 DUP1 DUP4 ADD MLOAD PUSH1 0xFF DUP1 DUP3 AND DUP4 DUP11 ADD MSTORE PUSH1 0xA0 SWAP3 POP DUP3 DUP6 ADD MLOAD SWAP2 POP DUP1 DUP3 MLOAD AND DUP4 DUP11 ADD MSTORE DUP11 DUP3 ADD MLOAD SWAP3 POP PUSH1 0xC0 DUP2 DUP5 AND DUP2 DUP12 ADD MSTORE DUP11 DUP4 ADD MLOAD SWAP4 POP PUSH1 0xE0 DUP3 DUP6 AND DUP2 DUP13 ADD MSTORE DUP3 DUP7 DUP6 ADD MLOAD AND PUSH2 0x100 DUP13 ADD MSTORE DUP2 DUP8 ADD MLOAD SWAP6 POP PUSH2 0x10B7 PUSH2 0x120 DUP13 ADD DUP8 PUSH2 0xFE9 JUMP JUMPDEST SWAP6 SWAP1 SWAP6 ADD MLOAD DUP1 ISZERO ISZERO PUSH2 0x140 DUP12 ADD MSTORE SWAP5 POP PUSH2 0x10D1 SWAP4 POP POP POP POP JUMP JUMPDEST POP PUSH2 0x160 SWAP4 SWAP1 SWAP4 ADD SWAP3 SWAP1 DUP6 ADD SWAP1 PUSH1 0x1 ADD PUSH2 0x1028 JUMP JUMPDEST POP SWAP2 SWAP8 SWAP7 POP POP POP POP POP POP POP JUMP JUMPDEST PUSH1 0x1 PUSH1 0x1 PUSH1 0xA0 SHL SUB DUP2 AND DUP2 EQ PUSH2 0xD9A JUMPI PUSH1 0x0 DUP1 REVERT JUMPDEST PUSH1 0x0 PUSH1 0x20 DUP3 DUP5 SUB SLT ISZERO PUSH2 0x111A JUMPI PUSH1 0x0 DUP1 REVERT JUMPDEST DUP2 CALLDATALOAD PUSH2 0x1125 DUP2 PUSH2 0x10F3 JUMP JUMPDEST SWAP4 SWAP3 POP POP POP JUMP JUMPDEST PUSH1 0x0 DUP1 PUSH1 0x40 DUP4 DUP6 SUB SLT ISZERO PUSH2 0x113F JUMPI PUSH1 0x0 DUP1 REVERT JUMPDEST POP POP DUP1 CALLDATALOAD SWAP3 PUSH1 0x20 SWAP1 SWAP2 ADD CALLDATALOAD SWAP2 POP JUMP JUMPDEST PUSH1 0x0 PUSH1 0x20 DUP3 DUP5 SUB SLT ISZERO PUSH2 0x1160 JUMPI PUSH1 0x0 DUP1 REVERT JUMPDEST POP CALLDATALOAD SWAP2 SWAP1 POP JUMP JUMPDEST PUSH4 0x4E487B71 PUSH1 0xE0 SHL PUSH1 0x0 MSTORE PUSH1 0x32 PUSH1 0x4 MSTORE PUSH1 0x24 PUSH1 0x0 REVERT JUMPDEST PUSH4 0x4E487B71 PUSH1 0xE0 SHL PUSH1 0x0 MSTORE PUSH1 0x11 PUSH1 0x4 MSTORE PUSH1 0x24 PUSH1 0x0 REVERT JUMPDEST PUSH1 0x0 PUSH1 0x0 NOT DUP3 EQ ISZERO PUSH2 0x11A7 JUMPI PUSH2 0x11A7 PUSH2 0x117D JUMP JUMPDEST POP PUSH1 0x1 ADD SWAP1 JUMP JUMPDEST PUSH1 0x20 DUP1 DUP3 MSTORE DUP2 DUP2 ADD MSTORE PUSH32 0x4F776E61626C653A2063616C6C6572206973206E6F7420746865206F776E6572 PUSH1 0x40 DUP3 ADD MSTORE PUSH1 0x60 ADD SWAP1 JUMP JUMPDEST PUSH1 0x0 PUSH1 0x20 DUP3 DUP5 SUB SLT ISZERO PUSH2 0x11F5 JUMPI PUSH1 0x0 DUP1 REVERT JUMPDEST DUP2 MLOAD PUSH2 0x1125 DUP2 PUSH2 0x10F3 JUMP JUMPDEST DUP1 MLOAD PUSH1 0xFF DUP2 AND DUP2 EQ PUSH2 0x1211 JUMPI PUSH1 0x0 DUP1 REVERT JUMPDEST SWAP2 SWAP1 POP JUMP JUMPDEST DUP1 MLOAD PUSH1 0x3 DUP2 LT PUSH2 0x1211 JUMPI PUSH1 0x0 DUP1 REVERT JUMPDEST PUSH1 0x0 DUP1 PUSH1 0x0 DUP1 DUP5 DUP7 SUB PUSH1 0xE0 DUP2 SLT ISZERO PUSH2 0x123C JUMPI PUSH1 0x0 DUP1 REVERT JUMPDEST DUP6 MLOAD PUSH2 0x1247 DUP2 PUSH2 0x10F3 JUMP JUMPDEST SWAP5 POP PUSH2 0x1255 PUSH1 0x20 DUP8 ADD PUSH2 0x1200 JUMP JUMPDEST SWAP4 POP PUSH1 0x80 PUSH1 0x3F NOT DUP3 ADD SLT ISZERO PUSH2 0x1269 JUMPI PUSH1 0x0 DUP1 REVERT JUMPDEST POP PUSH1 0x40 MLOAD PUSH1 0x80 DUP2 ADD DUP2 DUP2 LT PUSH8 0xFFFFFFFFFFFFFFFF DUP3 GT OR ISZERO PUSH2 0x129B JUMPI PUSH4 0x4E487B71 PUSH1 0xE0 SHL PUSH1 0x0 MSTORE PUSH1 0x41 PUSH1 0x4 MSTORE PUSH1 0x24 PUSH1 0x0 REVERT JUMPDEST DUP1 PUSH1 0x40 MSTORE POP PUSH2 0x12AC PUSH1 0x40 DUP8 ADD PUSH2 0x1200 JUMP JUMPDEST DUP2 MSTORE PUSH2 0x12BA PUSH1 0x60 DUP8 ADD PUSH2 0x1200 JUMP JUMPDEST PUSH1 0x20 DUP3 ADD MSTORE PUSH2 0x12CB PUSH1 0x80 DUP8 ADD PUSH2 0x1200 JUMP JUMPDEST PUSH1 0x40 DUP3 ADD MSTORE PUSH2 0x12DC PUSH1 0xA0 DUP8 ADD PUSH2 0x1200 JUMP JUMPDEST PUSH1 0x60 DUP3 ADD MSTORE SWAP2 POP PUSH2 0x12EF PUSH1 0xC0 DUP7 ADD PUSH2 0x1216 JUMP JUMPDEST SWAP1 POP SWAP3 SWAP6 SWAP2 SWAP5 POP SWAP3 POP JUMP JUMPDEST PUSH1 0x0 DUP3 DUP3 LT ISZERO PUSH2 0x130C JUMPI PUSH2 0x130C PUSH2 0x117D JUMP JUMPDEST POP SUB SWAP1 JUMP JUMPDEST PUSH1 0x0 PUSH1 0x20 DUP3 DUP5 SUB SLT ISZERO PUSH2 0x1323 JUMPI PUSH1 0x0 DUP1 REVERT JUMPDEST POP MLOAD SWAP2 SWAP1 POP JUMP JUMPDEST PUSH4 0x4E487B71 PUSH1 0xE0 SHL PUSH1 0x0 MSTORE PUSH1 0x31 PUSH1 0x4 MSTORE PUSH1 0x24 PUSH1 0x0 REVERT INVALID LOG2 PUSH5 0x6970667358 0x22 SLT KECCAK256 JUMP 0x26 0x4D SDIV 0xF6 0xA7 PUSH17 0xCC7778BECCCDBC6EBDB0CBAE502F6A51B2 CALLDATASIZE 0xB4 0xCE PUSH32 0xBFE7035B64736F6C634300080900330000000000000000000000000000000000 "
		},
		"gasEstimates": {
			"creation": {
				"codeDepositCost": "996400",
				"executionCost": "infinite",
				"totalCost": "infinite"
			},
			"external": {
				"buyMonsters(uint256)": "infinite",
				"deleteProduct(uint256)": "infinite",
				"getAllProducts()": "infinite",
				"getMyProducts()": "infinite",
				"owner()": "2390",
				"renounceOwnership()": "28159",
				"setMonsterFactory(address)": "26772",
				"setProduct(uint256,uint256)": "infinite",
				"totalSupply()": "2303",
				"transferOwnership(address)": "infinite"
			}
		},
		"methodIdentifiers": {
			"buyMonsters(uint256)": "e681fac5",
			"deleteProduct(uint256)": "ed90c7b7",
			"getAllProducts()": "02ee3a52",
			"getMyProducts()": "fdca4ca3",
			"owner()": "8da5cb5b",
			"renounceOwnership()": "715018a6",
			"setMonsterFactory(address)": "7af0343f",
			"setProduct(uint256,uint256)": "b6f415fa",
			"totalSupply()": "18160ddd",
			"transferOwnership(address)": "f2fde38b"
		}
	},
	"abi": [
		{
			"inputs": [
				{
					"internalType": "address",
					"name": "_monsterFactoryAddress",
					"type": "address"
				}
			],
			"stateMutability": "nonpayable",
			"type": "constructor"
		},
		{
			"anonymous": false,
			"inputs": [
				{
					"indexed": true,
					"internalType": "address",
					"name": "previousOwner",
					"type": "address"
				},
				{
					"indexed": true,
					"internalType": "address",
					"name": "newOwner",
					"type": "address"
				}
			],
			"name": "OwnershipTransferred",
			"type": "event"
		},
		{
			"anonymous": false,
			"inputs": [
				{
					"indexed": false,
					"internalType": "uint256",
					"name": "_tokenId",
					"type": "uint256"
				}
			],
			"name": "setProductComplete",
			"type": "event"
		},
		{
			"inputs": [
				{
					"internalType": "uint256",
					"name": "_productId",
					"type": "uint256"
				}
			],
			"name": "buyMonsters",
			"outputs": [],
			"stateMutability": "nonpayable",
			"type": "function"
		},
		{
			"inputs": [
				{
					"internalType": "uint256",
					"name": "_productId",
					"type": "uint256"
				}
			],
			"name": "deleteProduct",
			"outputs": [],
			"stateMutability": "nonpayable",
			"type": "function"
		},
		{
			"inputs": [],
			"name": "getAllProducts",
			"outputs": [
				{
					"components": [
						{
							"internalType": "uint256",
							"name": "Id",
							"type": "uint256"
						},
						{
							"internalType": "uint256",
							"name": "index",
							"type": "uint256"
						},
						{
							"internalType": "uint256",
							"name": "price",
							"type": "uint256"
						},
						{
							"internalType": "address",
							"name": "owner",
							"type": "address"
						},
						{
							"internalType": "uint8",
							"name": "level",
							"type": "uint8"
						},
						{
							"components": [
								{
									"internalType": "uint8",
									"name": "HP",
									"type": "uint8"
								},
								{
									"internalType": "uint8",
									"name": "strength",
									"type": "uint8"
								},
								{
									"internalType": "uint8",
									"name": "defensive",
									"type": "uint8"
								},
								{
									"internalType": "uint8",
									"name": "speed",
									"type": "uint8"
								}
							],
							"internalType": "struct MonsterLib.Statistics",
							"name": "statc",
							"type": "tuple"
						},
						{
							"internalType": "enum MonsterLib.Race",
							"name": "race",
							"type": "uint8"
						},
						{
							"internalType": "bool",
							"name": "isAvaliable",
							"type": "bool"
						}
					],
					"internalType": "struct MonsterMarket.Product[]",
					"name": "",
					"type": "tuple[]"
				}
			],
			"stateMutability": "view",
			"type": "function"
		},
		{
			"inputs": [],
			"name": "getMyProducts",
			"outputs": [
				{
					"components": [
						{
							"internalType": "uint256",
							"name": "Id",
							"type": "uint256"
						},
						{
							"internalType": "uint256",
							"name": "index",
							"type": "uint256"
						},
						{
							"internalType": "uint256",
							"name": "price",
							"type": "uint256"
						},
						{
							"internalType": "address",
							"name": "owner",
							"type": "address"
						},
						{
							"internalType": "uint8",
							"name": "level",
							"type": "uint8"
						},
						{
							"components": [
								{
									"internalType": "uint8",
									"name": "HP",
									"type": "uint8"
								},
								{
									"internalType": "uint8",
									"name": "strength",
									"type": "uint8"
								},
								{
									"internalType": "uint8",
									"name": "defensive",
									"type": "uint8"
								},
								{
									"internalType": "uint8",
									"name": "speed",
									"type": "uint8"
								}
							],
							"internalType": "struct MonsterLib.Statistics",
							"name": "statc",
							"type": "tuple"
						},
						{
							"internalType": "enum MonsterLib.Race",
							"name": "race",
							"type": "uint8"
						},
						{
							"internalType": "bool",
							"name": "isAvaliable",
							"type": "bool"
						}
					],
					"internalType": "struct MonsterMarket.Product[]",
					"name": "",
					"type": "tuple[]"
				}
			],
			"stateMutability": "view",
			"type": "function"
		},
		{
			"inputs": [],
			"name": "owner",
			"outputs": [
				{
					"internalType": "address",
					"name": "",
					"type": "address"
				}
			],
			"stateMutability": "view",
			"type": "function"
		},
		{
			"inputs": [],
			"name": "renounceOwnership",
			"outputs": [],
			"stateMutability": "nonpayable",
			"type": "function"
		},
		{
			"inputs": [
				{
					"internalType": "address",
					"name": "_monsterFactoryAddress",
					"type": "address"
				}
			],
			"name": "setMonsterFactory",
			"outputs": [],
			"stateMutability": "nonpayable",
			"type": "function"
		},
		{
			"inputs": [
				{
					"internalType": "uint256",
					"name": "_price",
					"type": "uint256"
				},
				{
					"internalType": "uint256",
					"name": "_tokenId",
					"type": "uint256"
				}
			],
			"name": "setProduct",
			"outputs": [],
			"stateMutability": "nonpayable",
			"type": "function"
		},
		{
			"inputs": [],
			"name": "totalSupply",
			"outputs": [
				{
					"internalType": "uint256",
					"name": "",
					"type": "uint256"
				}
			],
			"stateMutability": "view",
			"type": "function"
		},
		{
			"inputs": [
				{
					"internalType": "address",
					"name": "newOwner",
					"type": "address"
				}
			],
			"name": "transferOwnership",
			"outputs": [],
			"stateMutability": "nonpayable",
			"type": "function"
		}
	]
}