{
	"data": {
		"bytecode": {
			"linkReferences": {},
			"object": "6101006040526005608081905260a081905260c081905260e0526011805463ffffffff191663050505051790553480156200003957600080fd5b50604080518082018252600d81526c26b7b739ba32b9102a37b5b2b760991b60208083019182528351808501909452600784526626a7a729aa22a960c91b9084015281519192916200008e91600091620002bf565b508051620000a4906001906020840190620002bf565b5050506001600f819055506000600e60006101000a81548160ff02191690831515021790555060126040518060a00160405280600b8152602001600581526020016005815260200160058152602001600160ff1681525090806001815401808255809150506001900390600052602060002090600502016000909190919091506000820151816000015560208201518160010155604082015181600201556060820151816003015560808201518160040160006101000a81548160ff021916908360ff160217905550505060126040518060a0016040528060118152602001600781526020016007815260200160078152602001600560ff1681525090806001815401808255809150506001900390600052602060002090600502016000909190919091506000820151816000015560208201518160010155604082015181600201556060820151816003015560808201518160040160006101000a81548160ff021916908360ff160217905550505060126040518060a0016040528060198152602001600f8152602001600f8152602001600f8152602001600a60ff1681525090806001815401808255809150506001900390600052602060002090600502016000909190919091506000820151816000015560208201518160010155604082015181600201556060820151816003015560808201518160040160006101000a81548160ff021916908360ff1602179055505050620003a2565b828054620002cd9062000365565b90600052602060002090601f016020900481019282620002f157600085556200033c565b82601f106200030c57805160ff19168380011785556200033c565b828001600101855582156200033c579182015b828111156200033c5782518255916020019190600101906200031f565b506200034a9291506200034e565b5090565b5b808211156200034a57600081556001016200034f565b600181811c908216806200037a57607f821691505b602082108114156200039c57634e487b7160e01b600052602260045260246000fd5b50919050565b613d7a80620003b26000396000f3fe6080604052600436106101a05760003560e01c806370a08231116100ec578063c3cfcdc81161008a578063ccd1a9e911610064578063ccd1a9e914610539578063dff0bdaf1461055b578063e985e9c51461057b578063fe3296f8146105c457600080fd5b8063c3cfcdc8146104d9578063c87b56dd146104f9578063caece7bb1461051957600080fd5b806395d89b41116100c657806395d89b4114610464578063a22cb46514610479578063b6db669d14610499578063b88d4fde146104b957600080fd5b806370a08231146103f257806379a85e6c146104125780637a5800c51461044257600080fd5b806323b872dd11610159578063422666a711610133578063422666a71461036557806342842e0e146103925780636352211e146103b25780636410381c146103d257600080fd5b806323b872dd1461030557806323e3fbd514610325578063368fabdf1461034557600080fd5b806301ffc9a71461020857806306fdde031461023d578063081812fc1461025f578063095ea7b31461029757806318160ddd146102b95780631dddf164146102d857600080fd5b366102035733600090815260076020526040812080543492906101c490849061358e565b9091555050604080513381523460208201527fefc0288202e432ade6bf71491d0001d7e389ad4f8e4e9c7aa038dd1a563efc60910160405180910390a1005b600080fd5b34801561021457600080fd5b506102286102233660046135bc565b6105e4565b60405190151581526020015b60405180910390f35b34801561024957600080fd5b50610252610636565b6040516102349190613631565b34801561026b57600080fd5b5061027f61027a366004613644565b6106c8565b6040516001600160a01b039091168152602001610234565b3480156102a357600080fd5b506102b76102b2366004613679565b610755565b005b3480156102c557600080fd5b50600a545b604051908152602001610234565b3480156102e457600080fd5b506102f86102f3366004613644565b61086b565b60405161023491906136d5565b34801561031157600080fd5b506102b76103203660046136e3565b610908565b34801561033157600080fd5b506102ca61034036600461371f565b610964565b34801561035157600080fd5b5061022861036036600461373a565b6109f8565b34801561037157600080fd5b50610385610380366004613644565b610b7f565b6040516102349190613813565b34801561039e57600080fd5b506102b76103ad3660046136e3565b610ce2565b3480156103be57600080fd5b5061027f6103cd366004613644565b610cfd565b3480156103de57600080fd5b506102b76103ed3660046136e3565b610d74565b3480156103fe57600080fd5b506102ca61040d36600461371f565b610e5c565b34801561041e57600080fd5b5061043261042d366004613644565b610ee3565b6040516102349493929190613822565b34801561044e57600080fd5b50610457611076565b604051610234919061385e565b34801561047057600080fd5b50610252611128565b34801561048557600080fd5b506102b76104943660046138bd565b611137565b3480156104a557600080fd5b506102b76104b436600461373a565b611146565b3480156104c557600080fd5b506102b76104d4366004613906565b611254565b3480156104e557600080fd5b506102286104f436600461373a565b6112d6565b34801561050557600080fd5b50610252610514366004613644565b6113ca565b34801561052557600080fd5b506102b76105343660046139e2565b611541565b34801561054557600080fd5b5061054e6115fb565b6040516102349190613a05565b34801561056757600080fd5b506102b7610576366004613a81565b61181a565b34801561058757600080fd5b50610228610596366004613aa2565b6001600160a01b03918216600090815260056020908152604080832093909416825291909152205460ff1690565b3480156105d057600080fd5b506102b76105df366004613644565b61186c565b60006001600160e01b031982166380ac58cd60e01b148061061557506001600160e01b03198216635b5e139f60e01b145b8061063057506301ffc9a760e01b6001600160e01b03198316145b92915050565b60606000805461064590613acc565b80601f016020809104026020016040519081016040528092919081815260200182805461067190613acc565b80156106be5780601f10610693576101008083540402835291602001916106be565b820191906000526020600020905b8154815290600101906020018083116106a157829003601f168201915b5050505050905090565b60006106d3826118e6565b6107395760405162461bcd60e51b815260206004820152602c60248201527f4552433732313a20617070726f76656420717565727920666f72206e6f6e657860448201526b34b9ba32b73a103a37b5b2b760a11b60648201526084015b60405180910390fd5b506000908152600460205260409020546001600160a01b031690565b600061076082610cfd565b9050806001600160a01b0316836001600160a01b031614156107ce5760405162461bcd60e51b815260206004820152602160248201527f4552433732313a20617070726f76616c20746f2063757272656e74206f776e656044820152603960f91b6064820152608401610730565b336001600160a01b03821614806107ea57506107ea8133610596565b61085c5760405162461bcd60e51b815260206004820152603860248201527f4552433732313a20617070726f76652063616c6c6572206973206e6f74206f7760448201527f6e6572206e6f7220617070726f76656420666f7220616c6c00000000000000006064820152608401610730565b6108668383611903565b505050565b61087361342e565b8161087d816118e6565b61088657600080fd5b6000838152600b6020526040902054600a8054829081106108a9576108a9613b01565b6000918252602091829020604080516080810182526006939093029091016003015460ff808216845261010082048116948401949094526201000081048416918301919091526301000000900490911660608201529250505b50919050565b826001600160a01b031661091b82610cfd565b6001600160a01b03161461092e57600080fd5b61093781610b7f565b610100015180156109505750326001600160a01b038316145b61095957600080fd5b610866838383611971565b60006001600160a01b038216321461097b57600080fd5b6001600160a01b0382166109dc5760405162461bcd60e51b815260206004820152602260248201527f6465706f73697420717565727920666f7220746865207a65726f206164647265604482015261737360f01b6064820152608401610730565b506001600160a01b031660009081526007602052604090205490565b6012546000908210610a0957600080fd5b6000610a1484610b7f565b9050600060128481548110610a2b57610a2b613b01565b600091825260208083206040805160a0810182526005909402909101805484526001810154848401526002810154918401919091526003810154606080850182905260049092015460ff90811660808601529187015190920151929450610a929216613b2d565b610a9d90600161358e565b9050600083606001516040015160ff168360200151610abc9190613b2d565b610ac790600161358e565b604080516060808201835287810180515160ff90811684526020808501899052915183015116838501528351918201845287518252810184905286830151928101929092529192506000610b1b8383611b18565b90508015610b3d57610b3d8a8760800151600a610b389190613b41565b611c08565b60405181151581527fcb7bec6f116bdb9b315c4606e0388c4df5473616b6ab01c15bd612cdcf5d9a879060200160405180910390a19998505050505050505050565b610b87613455565b81610b91816118e6565b610b9a57600080fd5b6000838152600b6020526040902054600a805482908110610bbd57610bbd613b01565b6000918252602091829020604080516101208101825260069093029091018054835260018101548385015260028082015484840152825160808082018552600384015460ff80821684526101008083048216858b0152620100008084048316868a01526301000000938490048316606087810191909152808b019690965288518086018a526004890154808516825283810485169c82019c909c52818c048416998101999099529290990481169387019390935290860194909452600583015480821660a0870152958604811660c08601529394919360e086019390920490911690811115610cae57610cae61375c565b6002811115610cbf57610cbf61375c565b8152600591909101546301000000900460ff161515602090910152949350505050565b61086683838360405180602001604052806000815250611254565b6000818152600260205260408120546001600160a01b0316806106305760405162461bcd60e51b815260206004820152602960248201527f4552433732313a206f776e657220717565727920666f72206e6f6e657869737460448201526832b73a103a37b5b2b760b91b6064820152608401610730565b326001600160a01b03841614610d8957600080fd5b6001600160a01b03821615801590610da957506001600160a01b03831615155b610db257600080fd5b6001600160a01b03831660009081526007602052604081208054839290610dda908490613b6a565b90915550506001600160a01b03821660009081526007602052604081208054839290610e0790849061358e565b9091555050604080516001600160a01b038086168252841660208201529081018290527fb900e832b6eff259cf1fd6d12898306d28460d412e04f398c1a74a2af60130139060600160405180910390a1505050565b60006001600160a01b038216610ec75760405162461bcd60e51b815260206004820152602a60248201527f4552433732313a2062616c616e636520717565727920666f7220746865207a65604482015269726f206164647265737360b01b6064820152608401610730565b506001600160a01b031660009081526003602052604090205490565b600080610eee61342e565b600084610efa816118e6565b610f0357600080fd5b6000868152600b6020526040812054600a805491929183908110610f2957610f29613b01565b6000918252602091829020604080516101208101825260069093029091018054835260018101548385015260028082015484840152825160808082018552600384015460ff80821684526101008083048216858b0152620100008084048316868a01526301000000938490048316606087810191909152808b019690965288518086018a526004890154808516825283810485169c82019c909c52818c048416998101999099529290990481169387019390935290860194909452600583015480821660a0870152958604811660c08601529394919360e08601939092049091169081111561101a5761101a61375c565b600281111561102b5761102b61375c565b8152600591909101546301000000900460ff1615156020909101529050600061105389610cfd565b60a0830151606084015160e090940151919b909a50929850965090945050505050565b6060600061108333610e5c565b905080156110ef5760005b818110156110ea57336000908152600c602090815260408083208484529091529020546110ba90610b7f565b8382815181106110cc576110cc613b01565b602002602001018190525080806110e290613b81565b91505061108e565b505090565b6040805160008082526020820190925290611120565b61110d613455565b8152602001906001900390816111055790505b5091505b5090565b60606001805461064590613acc565b611142338383611e10565b5050565b818161115182610cfd565b6001600160a01b0316336001600160a01b03161461116e57600080fd5b61117782610cfd565b6001600160a01b0316336001600160a01b03161461119457600080fd5b3361119e57600080fd5b60006111a985610b7f565b905060006111b685610b7f565b90508060e0015160028111156111ce576111ce61375c565b8260e0015160028111156111e4576111e461375c565b146112245760405162461bcd60e51b815260206004820152601060248201526f646966666572656e742072616365732160801b6044820152606401610730565b600061123883608001518360800151611edf565b905061124b338888848760e00151612036565b50505050505050565b61125e3383612393565b6112c45760405162461bcd60e51b815260206004820152603160248201527f4552433732313a207472616e736665722063616c6c6572206973206e6f74206f6044820152701ddb995c881b9bdc88185c1c1c9bdd9959607a1b6064820152608401610730565b6112d08484848461247c565b50505050565b6000806112e284610b7f565b905060006112ef84610b7f565b9050600081606001516040015183606001516020015161130f9190613b9c565b61131a906001613bbe565b60ff169050600083606001516040015183606001516020015161133d9190613b9c565b611348906001613bbe565b604080516060808201835287810180515160ff9081168452602080850189905291518301518116848601528451808401865289840180515183168252968216928101839052955190920151909116928401929092529092509060006113ad8383611b18565b90508015610b3d57610b3d8a8760a00151600a610b389190613b41565b60606113d5826118e6565b61143b5760405162461bcd60e51b815260206004820152603160248201527f45524337323155524953746f726167653a2055524920717565727920666f72206044820152703737b732bc34b9ba32b73a103a37b5b2b760791b6064820152608401610730565b6000828152600660205260408120805461145490613acc565b80601f016020809104026020016040519081016040528092919081815260200182805461148090613acc565b80156114cd5780601f106114a2576101008083540402835291602001916114cd565b820191906000526020600020905b8154815290600101906020018083116114b057829003601f168201915b5050505050905060006114eb60408051602081019091526000815290565b90508051600014156114fe575092915050565b815115611530578082604051602001611518929190613be3565b60405160208183030381529060405292505050919050565b611539846124af565b949350505050565b61154a82610cfd565b6001600160a01b0316326001600160a01b03161461156757600080fd5b6000828152600b6020526040902054600a8054839290811061158b5761158b613b01565b906000526020600020906006020160050160036101000a81548160ff0219169083151502179055507f6a0921deabd763b8789c5acb4605c886a6f98ea35c16c99d0954bea1b8ff83b682826040516115ef9291909182521515602082015260400190565b60405180910390a15050565b60606000611608600a5490565b90506060611614613455565b600561161f33610e5c565b6116299085613b6a565b116116eb576000805b848110156116e45761164385612587565b8051909350339061165390610cfd565b6001600160a01b0316146116d2576040518060800160405280846000015181526020018460a0015160ff1681526020018460e0015160028111156116995761169961375c565b815260200184606001518152508483815181106116b8576116b8613b01565b602002602001018190525081806116ce90613b81565b9250505b806116dc81613b81565b915050611632565b5050611813565b606060008080805b878551108015611704575060058751105b80156117105750600a81105b1561180d578061171f81613b81565b9150508761172b6126e5565b6117359190613c12565b935061174084612587565b955061174c8585612719565b611808578551339061175d90610cfd565b6001600160a01b0316146117dc576040518060800160405280876000015181526020018760a0015160ff1681526020018760e0015160028111156117a3576117a361375c565b815260200187606001518152508784815181106117c2576117c2613b01565b602002602001018190525082806117d890613b81565b9350505b838583815181106117ef576117ef613b01565b60209081029190910101528161180481613b81565b9250505b6116f3565b50505050505b5092915050565b6040805160808101825260115460ff8082168352610100820481166020840152620100008204811693830193909352630100000090049091166060820152611869903390600090819085612036565b50565b61187581610cfd565b6001600160a01b0316336001600160a01b03161461189257600080fd5b61189b81610b7f565b6101000151156118dd576040518181527fdde7d0a3c1908e17d48670081de6d0f395f52f792dcd6f38337bce4917aaa61e9060200160405180910390a1600080fd5b6118698161276d565b6000908152600260205260409020546001600160a01b0316151590565b600081815260046020526040902080546001600160a01b0319166001600160a01b038416908117909155819061193882610cfd565b6001600160a01b03167f8c5be1e5ebec7d5bd14f71427d1e84f3dd0314c0f7b2291e5b200ac8c7c3b92560405160405180910390a45050565b826001600160a01b031661198482610cfd565b6001600160a01b0316146119e85760405162461bcd60e51b815260206004820152602560248201527f4552433732313a207472616e736665722066726f6d20696e636f72726563742060448201526437bbb732b960d91b6064820152608401610730565b6001600160a01b038216611a4a5760405162461bcd60e51b8152602060048201526024808201527f4552433732313a207472616e7366657220746f20746865207a65726f206164646044820152637265737360e01b6064820152608401610730565b611a558383836127ad565b611a60600082611903565b6001600160a01b0383166000908152600360205260408120805460019290611a89908490613b6a565b90915550506001600160a01b0382166000908152600360205260408120805460019290611ab790849061358e565b909155505060008181526002602052604080822080546001600160a01b0319166001600160a01b0386811691821790925591518493918716917fddf252ad1be2c89b69c2b068fc378daa952ba7f163c4a11628f55a4df523b3ef91a4505050565b602082015181516000918291600190611b3290839061358e565b611b3c9190613b6a565b611b469190613b2d565b60208401518551919250600091600190611b6190839061358e565b611b6b9190613b6a565b611b759190613b2d565b90506000846040015186604001511115611b9157506001611bd6565b846040015186604001511015611ba957506000611bd6565b60006002611bb56126e5565b611bbf9190613c12565b905080611bcf5760019150611bd4565b600091505b505b81831115611bea5760009350505050610630565b81831015611bfe5760019350505050610630565b9250610630915050565b81611c12816118e6565b611c1b57600080fd5b6000838152600b6020526040812054600a805491929183908110611c4157611c41613b01565b906000526020600020906006020190508360ff168160050160019054906101000a900460ff1660ff161115611cad57838160050160018282829054906101000a900460ff16611c909190613c26565b92506101000a81548160ff021916908360ff160217905550611e09565b6005810154600a60ff9091161015611e095760058101805460019190600090611cda90849060ff16613bbe565b825460ff91821661010093840a90810290830219909116179092556005840154611d079350041685613c26565b6005820154611d1a9060ff16600a613b41565b611d249190613c26565b60058201805460ff92831661010090810261ff0019831681179093556040805160808082018352600388015480881683528481048816602080850191909152620100008083048a16858701526301000000928390048a166060808701919091528651948501875260048c0154808c1686529788048b1692850192909252860489169483019490945290930486169183019190915293600093611dcb9390821691161761281d565b90507ffb64211ffdbe0310d0426d37afda9651f66158bb717bdf0edcb572595ac27f418282604051611dfe929190613c49565b60405180910390a150505b5050505050565b816001600160a01b0316836001600160a01b03161415611e725760405162461bcd60e51b815260206004820152601960248201527f4552433732313a20617070726f766520746f2063616c6c6572000000000000006044820152606401610730565b6001600160a01b03838116600081815260056020908152604080832094871680845294825291829020805460ff191686151590811790915591519182527f17307eab39ab6107e8899845ad3d59bd9653f200f220920489ca2b5937696c31910160405180910390a3505050565b611ee761342e565b6003611ef161342e565b600060ff831615611f2c5785518551611f0a91906128a2565b60ff909116835290508015611f275782611f2381613c65565b9350505b611f3a565b611f346128e7565b60ff1682525b60ff831615611f7a57611f55866020015186602001516128a2565b60ff909116602084015290508015611f755782611f7181613c65565b9350505b611f8b565b611f826128e7565b60ff1660208301525b60ff831615611fcb57611fa6866040015186604001516128a2565b60ff909116604084015290508015611fc65782611fc281613c65565b9350505b611fdc565b611fd36128e7565b60ff1660408301525b60ff83161561201c57611ff7866060015186606001516128a2565b60ff909116606084015290508015612017578261201381613c65565b9350505b61202d565b6120246128e7565b60ff1660608301525b50949350505050565b600061204186610964565b601054909150612051823461358e565b101561205c57600080fd5b5b600e5460ff161561206d5761205d565b600e805460ff19166001908117909155600090612089600a5490565b6120939190613b6a565b600f5490915060006120a686600161281d565b905060006040518061012001604052808481526020018a8152602001898152602001838152602001888152602001600160ff168152602001600a60ff1681526020018760028111156120fa576120fa61375c565b81526000602090910152905061210f81612902565b61211857600080fd5b600a805460018101825560009190915281517fc65a7bb8d6351c1cf70c95a316cc6a92839c986682d98bc35f958f4883f9d2a860069092029182019081556020808401517fc65a7bb8d6351c1cf70c95a316cc6a92839c986682d98bc35f958f4883f9d2a98401556040808501517fc65a7bb8d6351c1cf70c95a316cc6a92839c986682d98bc35f958f4883f9d2aa85015560608086015180517fc65a7bb8d6351c1cf70c95a316cc6a92839c986682d98bc35f958f4883f9d2ab8701805483870151848701519486015160ff94851661ffff199384161761010092861683021763ffff00001990811662010000978716880263ff0000001990811691909117630100000093881684021790955560808d015180517fc65a7bb8d6351c1cf70c95a316cc6a92839c986682d98bc35f958f4883f9d2ac8e0180549c8301519b83015192909a01519088169b86169b909b17998716840299909917169785168602909316969096179683169091029590951790925560a08701517fc65a7bb8d6351c1cf70c95a316cc6a92839c986682d98bc35f958f4883f9d2ad909601805460c0890151978416951694909417959091169091029390931780825560e0850151859490929162ff00001916908360028111156122f6576122f661375c565b021790555061010091909101516005909101805491151563010000000263ff00000019909216919091179055600f805490600061233283613b81565b9091555050600e805460ff191690556000838152600b6020526040902084905561235c8a846129f8565b600061236b8260e00151612a12565b905080516000141561237c57600080fd5b6123868482612b12565b5050505050505050505050565b600061239e826118e6565b6123ff5760405162461bcd60e51b815260206004820152602c60248201527f4552433732313a206f70657261746f7220717565727920666f72206e6f6e657860448201526b34b9ba32b73a103a37b5b2b760a11b6064820152608401610730565b600061240a83610cfd565b9050806001600160a01b0316846001600160a01b0316148061245157506001600160a01b0380821660009081526005602090815260408083209388168352929052205460ff165b806115395750836001600160a01b031661246a846106c8565b6001600160a01b031614949350505050565b612487848484611971565b61249384848484612b9d565b6112d05760405162461bcd60e51b815260040161073090613c82565b60606124ba826118e6565b61251e5760405162461bcd60e51b815260206004820152602f60248201527f4552433732314d657461646174613a2055524920717565727920666f72206e6f60448201526e3732bc34b9ba32b73a103a37b5b2b760891b6064820152608401610730565b600061253560408051602081019091526000815290565b905060008151116125555760405180602001604052806000815250612580565b8061255f84612caa565b604051602001612570929190613be3565b6040516020818303038152906040525b9392505050565b61258f613455565b600161259a600a5490565b6125a49190613b6a565b82106125af57600080fd5b600a82815481106125c2576125c2613b01565b6000918252602091829020604080516101208101825260069093029091018054835260018101548385015260028082015484840152825160808082018552600384015460ff80821684526101008083048216858b0152620100008084048316868a01526301000000938490048316606087810191909152808b019690965288518086018a526004890154808516825283810485169c82019c909c52818c048416998101999099529290990481169387019390935290860194909452600583015480821660a0870152958604811660c08601529394919360e0860193909204909116908111156126b3576126b361375c565b60028111156126c4576126c461375c565b8152600591909101546301000000900460ff16151560209091015292915050565b6040805144602080830191909152428284015260006060830152825160548184030181526074909201909252805191012090565b6000805b8351811015612763578284828151811061273957612739613b01565b60200260200101511415612751576001915050610630565b8061275b81613b81565b91505061271d565b5060009392505050565b61277681612da8565b6000818152600660205260409020805461278f90613acc565b159050611869576000818152600660205260408120611869916134ad565b6001600160a01b0383166127c0576127e3565b816001600160a01b0316836001600160a01b0316146127e3576127e38382612e4f565b6001600160a01b0382166127fa5761086681612eec565b826001600160a01b0316826001600160a01b031614610866576108668282613221565b61282561342e565b61282d61342e565b8261283c856000015185613265565b612847906005613bbe565b6128519190613bbe565b60ff16815260608401516128659084613265565b60ff166060820152604084015161287c9084613265565b60ff16604082015260208401516128939084613265565b60ff1660208201529392505050565b600080600060026128b16126e5565b6128bb9190613c12565b6128d5575060016128cc8585613288565b925090506128e0565b5060006128cc6128e7565b9250929050565b600060206128f36126e5565b6128fd9190613c12565b905090565b80516000901580159061291c575060608201515160ff1615155b80156129335750600082606001516020015160ff16115b801561294a5750600082606001516040015160ff16115b80156129615750600082606001516060015160ff16115b80156129795750601f82608001516000015160ff1611155b80156129915750601f82608001516020015160ff1611155b80156129a95750601f82608001516040015160ff1611155b80156129c15750601f82608001516060015160ff1611155b80156129d55750601f8260a0015160ff1611155b80156129e7575060c082015160ff1615155b6129f057600080fd5b506001919050565b6111428282604051806020016040528060008152506132bc565b6060806000836002811115612a2957612a2961375c565b1415612a69575060408051808201909152601b81527f2e2e2f7075626c69632f696d616765732f647261676f6e2e706e6700000000006020820152610630565b6002836002811115612a7d57612a7d61375c565b1415612abd575060408051808201909152601d81527f2e2e2f7075626c69632f696d616765732f676172676f796c652e706e670000006020820152610630565b6001836002811115612ad157612ad161375c565b1415610630575060408051808201909152601a81527f2e2e2f7075626c69632f696d616765732f67686f73742e706e67000000000000602082015292915050565b612b1b826118e6565b612b7e5760405162461bcd60e51b815260206004820152602e60248201527f45524337323155524953746f726167653a2055524920736574206f66206e6f6e60448201526d32bc34b9ba32b73a103a37b5b2b760911b6064820152608401610730565b60008281526006602090815260409091208251610866928401906134e7565b60006001600160a01b0384163b15612c9f57604051630a85bd0160e11b81526001600160a01b0385169063150b7a0290612be1903390899088908890600401613cd4565b602060405180830381600087803b158015612bfb57600080fd5b505af1925050508015612c2b575060408051601f3d908101601f19168201909252612c2891810190613d11565b60015b612c85573d808015612c59576040519150601f19603f3d011682016040523d82523d6000602084013e612c5e565b606091505b508051612c7d5760405162461bcd60e51b815260040161073090613c82565b805181602001fd5b6001600160e01b031916630a85bd0160e11b149050611539565b506001949350505050565b606081612cce5750506040805180820190915260018152600360fc1b602082015290565b8160005b8115612cf85780612ce281613b81565b9150612cf19050600a83613b2d565b9150612cd2565b60008167ffffffffffffffff811115612d1357612d136138f0565b6040519080825280601f01601f191660200182016040528015612d3d576020820181803683370190505b5090505b841561153957612d52600183613b6a565b9150612d5f600a86613c12565b612d6a90603061358e565b60f81b818381518110612d7f57612d7f613b01565b60200101906001600160f81b031916908160001a905350612da1600a86613b2d565b9450612d41565b6000612db382610cfd565b9050612dc1816000846127ad565b612dcc600083611903565b6001600160a01b0381166000908152600360205260408120805460019290612df5908490613b6a565b909155505060008281526002602052604080822080546001600160a01b0319169055518391906001600160a01b038416907fddf252ad1be2c89b69c2b068fc378daa952ba7f163c4a11628f55a4df523b3ef908390a45050565b60006001612e5c84610e5c565b612e669190613b6a565b6000838152600d6020526040902054909150808214612eb9576001600160a01b0384166000908152600c602090815260408083208584528252808320548484528184208190558352600d90915290208190555b506000918252600d602090815260408084208490556001600160a01b039094168352600c81528383209183525290812055565b600a54600090612efe90600190613b6a565b6000838152600b6020526040812054600a8054939450909284908110612f2657612f26613b01565b6000918252602091829020604080516101208101825260069093029091018054835260018101548385015260028082015484840152825160808082018552600384015460ff80821684526101008083048216858b0152620100008084048316868a01526301000000938490048316606087810191909152808b019690965288518086018a526004890154808516825283810485169c82019c909c52818c048416998101999099529290990481169387019390935290860194909452600583015480821660a0870152958604811660c08601529394919360e0860193909204909116908111156130175761301761375c565b60028111156130285761302861375c565b8152600591909101546301000000900460ff161515602090910152600a805491925082918490811061305c5761305c613b01565b6000918252602091829020835160069290920201908155828201516001820155604080840151600280840191909155606080860151805160038601805483890151848801519486015160ff94851661ffff199384161761010092861683021763ffff00001990811662010000978716880263ff0000001990811691909117630100000093881684021790955560808d0151805160048d0180549e8301519c83015192909a01519088169d86169d909d179a871684029a909a17169885168602909316979097179883169091029790971790925560a087015160058601805460c08a015192851698169790971792169093021780855560e086015193949262ff0000199091169184908111156131735761317361375c565b021790555061010091909101516005909101805491151563010000000263ff0000001990921691909117905580516000908152600b6020526040808220849055858252812055600a8054806131ca576131ca613d2e565b60008281526020812060066000199093019283020181815560018101829055600281019190915560038101805463ffffffff1990811690915560048201805482169055600590910180549091169055905550505050565b600061322c83610e5c565b6001600160a01b039093166000908152600c602090815260408083208684528252808320859055938252600d9052919091209190915550565b6000600a6132738385613b41565b61327d9190613b9c565b612580906005613bbe565b60008060026132956126e5565b61329f9190613c12565b905080600114156132b35783915050610630565b82915050610630565b6132c683836132ef565b6132d36000848484612b9d565b6108665760405162461bcd60e51b815260040161073090613c82565b6001600160a01b0382166133455760405162461bcd60e51b815260206004820181905260248201527f4552433732313a206d696e7420746f20746865207a65726f20616464726573736044820152606401610730565b61334e816118e6565b1561339b5760405162461bcd60e51b815260206004820152601c60248201527f4552433732313a20746f6b656e20616c7265616479206d696e746564000000006044820152606401610730565b6133a7600083836127ad565b6001600160a01b03821660009081526003602052604081208054600192906133d090849061358e565b909155505060008181526002602052604080822080546001600160a01b0319166001600160a01b03861690811790915590518392907fddf252ad1be2c89b69c2b068fc378daa952ba7f163c4a11628f55a4df523b3ef908290a45050565b60408051608081018252600080825260208201819052918101829052606081019190915290565b60405180610120016040528060008152602001600081526020016000815260200161347e61342e565b815260200161348b61342e565b8152600060208201819052604082018190526060820181905260809091015290565b5080546134b990613acc565b6000825580601f106134c9575050565b601f0160209004906000526020600020908101906118699190613563565b8280546134f390613acc565b90600052602060002090601f016020900481019282613515576000855561355b565b82601f1061352e57805160ff191683800117855561355b565b8280016001018555821561355b579182015b8281111561355b578251825591602001919060010190613540565b506111249291505b5b808211156111245760008155600101613564565b634e487b7160e01b600052601160045260246000fd5b600082198211156135a1576135a1613578565b500190565b6001600160e01b03198116811461186957600080fd5b6000602082840312156135ce57600080fd5b8135612580816135a6565b60005b838110156135f45781810151838201526020016135dc565b838111156112d05750506000910152565b6000815180845261361d8160208601602086016135d9565b601f01601f19169290920160200192915050565b6020815260006125806020830184613605565b60006020828403121561365657600080fd5b5035919050565b80356001600160a01b038116811461367457600080fd5b919050565b6000806040838503121561368c57600080fd5b6136958361365d565b946020939093013593505050565b60ff815116825260ff602082015116602083015260ff604082015116604083015260ff60608201511660608301525050565b6080810161063082846136a3565b6000806000606084860312156136f857600080fd5b6137018461365d565b925061370f6020850161365d565b9150604084013590509250925092565b60006020828403121561373157600080fd5b6125808261365d565b6000806040838503121561374d57600080fd5b50508035926020909101359150565b634e487b7160e01b600052602160045260246000fd5b6003811061379057634e487b7160e01b600052602160045260246000fd5b9052565b80518252602081015160208301526040810151604083015260608101516137be60608401826136a3565b5060808101516137d160e08401826136a3565b5060a081015160ff90811661016084015260c08201511661018083015260e08101516138016101a0840182613772565b50610100015115156101c09190910152565b6101e081016106308284613794565b6001600160a01b038516815260ff8416602082015260e0810161384860408301856136a3565b61385560c0830184613772565b95945050505050565b6020808252825182820181905260009190848201906040850190845b818110156138a15761388d838551613794565b928401926101e0929092019160010161387a565b50909695505050505050565b8035801515811461367457600080fd5b600080604083850312156138d057600080fd5b6138d98361365d565b91506138e7602084016138ad565b90509250929050565b634e487b7160e01b600052604160045260246000fd5b6000806000806080858703121561391c57600080fd5b6139258561365d565b93506139336020860161365d565b925060408501359150606085013567ffffffffffffffff8082111561395757600080fd5b818701915087601f83011261396b57600080fd5b81358181111561397d5761397d6138f0565b604051601f8201601f19908116603f011681019083821181831017156139a5576139a56138f0565b816040528281528a60208487010111156139be57600080fd5b82602086016020830137600060208483010152809550505050505092959194509250565b600080604083850312156139f557600080fd5b823591506138e7602084016138ad565b602080825282518282018190526000919060409081850190868401855b82811015613a745781518051855260ff87820151168786015285810151613a4b87870182613772565b5060609081015190613a5f868201836136a3565b505060e0939093019290850190600101613a22565b5091979650505050505050565b600060208284031215613a9357600080fd5b81356003811061258057600080fd5b60008060408385031215613ab557600080fd5b613abe8361365d565b91506138e76020840161365d565b600181811c90821680613ae057607f821691505b6020821081141561090257634e487b7160e01b600052602260045260246000fd5b634e487b7160e01b600052603260045260246000fd5b634e487b7160e01b600052601260045260246000fd5b600082613b3c57613b3c613b17565b500490565b600060ff821660ff84168160ff0481118215151615613b6257613b62613578565b029392505050565b600082821015613b7c57613b7c613578565b500390565b6000600019821415613b9557613b95613578565b5060010190565b600060ff831680613baf57613baf613b17565b8060ff84160491505092915050565b600060ff821660ff84168060ff03821115613bdb57613bdb613578565b019392505050565b60008351613bf58184602088016135d9565b835190830190613c098183602088016135d9565b01949350505050565b600082613c2157613c21613b17565b500690565b600060ff821660ff841680821015613c4057613c40613578565b90039392505050565b6101008101613c5882856136a3565b61258060808301846136a3565b600060ff821680613c7857613c78613578565b6000190192915050565b60208082526032908201527f4552433732313a207472616e7366657220746f206e6f6e20455243373231526560408201527131b2b4bb32b91034b6b83632b6b2b73a32b960711b606082015260800190565b6001600160a01b0385811682528416602082015260408101839052608060608201819052600090613d0790830184613605565b9695505050505050565b600060208284031215613d2357600080fd5b8151612580816135a6565b634e487b7160e01b600052603160045260246000fdfea26469706673582212208314c6f41aea112fd06c4039b2fbe8b2c07351b39cba13e2f95f89bad2e3e52964736f6c63430008090033",
			"opcodes": "PUSH2 0x100 PUSH1 0x40 MSTORE PUSH1 0x5 PUSH1 0x80 DUP2 SWAP1 MSTORE PUSH1 0xA0 DUP2 SWAP1 MSTORE PUSH1 0xC0 DUP2 SWAP1 MSTORE PUSH1 0xE0 MSTORE PUSH1 0x11 DUP1 SLOAD PUSH4 0xFFFFFFFF NOT AND PUSH4 0x5050505 OR SWAP1 SSTORE CALLVALUE DUP1 ISZERO PUSH3 0x39 JUMPI PUSH1 0x0 DUP1 REVERT JUMPDEST POP PUSH1 0x40 DUP1 MLOAD DUP1 DUP3 ADD DUP3 MSTORE PUSH1 0xD DUP2 MSTORE PUSH13 0x26B7B739BA32B9102A37B5B2B7 PUSH1 0x99 SHL PUSH1 0x20 DUP1 DUP4 ADD SWAP2 DUP3 MSTORE DUP4 MLOAD DUP1 DUP6 ADD SWAP1 SWAP5 MSTORE PUSH1 0x7 DUP5 MSTORE PUSH7 0x26A7A729AA22A9 PUSH1 0xC9 SHL SWAP1 DUP5 ADD MSTORE DUP2 MLOAD SWAP2 SWAP3 SWAP2 PUSH3 0x8E SWAP2 PUSH1 0x0 SWAP2 PUSH3 0x2BF JUMP JUMPDEST POP DUP1 MLOAD PUSH3 0xA4 SWAP1 PUSH1 0x1 SWAP1 PUSH1 0x20 DUP5 ADD SWAP1 PUSH3 0x2BF JUMP JUMPDEST POP POP POP PUSH1 0x1 PUSH1 0xF DUP2 SWAP1 SSTORE POP PUSH1 0x0 PUSH1 0xE PUSH1 0x0 PUSH2 0x100 EXP DUP2 SLOAD DUP2 PUSH1 0xFF MUL NOT AND SWAP1 DUP4 ISZERO ISZERO MUL OR SWAP1 SSTORE POP PUSH1 0x12 PUSH1 0x40 MLOAD DUP1 PUSH1 0xA0 ADD PUSH1 0x40 MSTORE DUP1 PUSH1 0xB DUP2 MSTORE PUSH1 0x20 ADD PUSH1 0x5 DUP2 MSTORE PUSH1 0x20 ADD PUSH1 0x5 DUP2 MSTORE PUSH1 0x20 ADD PUSH1 0x5 DUP2 MSTORE PUSH1 0x20 ADD PUSH1 0x1 PUSH1 0xFF AND DUP2 MSTORE POP SWAP1 DUP1 PUSH1 0x1 DUP2 SLOAD ADD DUP1 DUP3 SSTORE DUP1 SWAP2 POP POP PUSH1 0x1 SWAP1 SUB SWAP1 PUSH1 0x0 MSTORE PUSH1 0x20 PUSH1 0x0 KECCAK256 SWAP1 PUSH1 0x5 MUL ADD PUSH1 0x0 SWAP1 SWAP2 SWAP1 SWAP2 SWAP1 SWAP2 POP PUSH1 0x0 DUP3 ADD MLOAD DUP2 PUSH1 0x0 ADD SSTORE PUSH1 0x20 DUP3 ADD MLOAD DUP2 PUSH1 0x1 ADD SSTORE PUSH1 0x40 DUP3 ADD MLOAD DUP2 PUSH1 0x2 ADD SSTORE PUSH1 0x60 DUP3 ADD MLOAD DUP2 PUSH1 0x3 ADD SSTORE PUSH1 0x80 DUP3 ADD MLOAD DUP2 PUSH1 0x4 ADD PUSH1 0x0 PUSH2 0x100 EXP DUP2 SLOAD DUP2 PUSH1 0xFF MUL NOT AND SWAP1 DUP4 PUSH1 0xFF AND MUL OR SWAP1 SSTORE POP POP POP PUSH1 0x12 PUSH1 0x40 MLOAD DUP1 PUSH1 0xA0 ADD PUSH1 0x40 MSTORE DUP1 PUSH1 0x11 DUP2 MSTORE PUSH1 0x20 ADD PUSH1 0x7 DUP2 MSTORE PUSH1 0x20 ADD PUSH1 0x7 DUP2 MSTORE PUSH1 0x20 ADD PUSH1 0x7 DUP2 MSTORE PUSH1 0x20 ADD PUSH1 0x5 PUSH1 0xFF AND DUP2 MSTORE POP SWAP1 DUP1 PUSH1 0x1 DUP2 SLOAD ADD DUP1 DUP3 SSTORE DUP1 SWAP2 POP POP PUSH1 0x1 SWAP1 SUB SWAP1 PUSH1 0x0 MSTORE PUSH1 0x20 PUSH1 0x0 KECCAK256 SWAP1 PUSH1 0x5 MUL ADD PUSH1 0x0 SWAP1 SWAP2 SWAP1 SWAP2 SWAP1 SWAP2 POP PUSH1 0x0 DUP3 ADD MLOAD DUP2 PUSH1 0x0 ADD SSTORE PUSH1 0x20 DUP3 ADD MLOAD DUP2 PUSH1 0x1 ADD SSTORE PUSH1 0x40 DUP3 ADD MLOAD DUP2 PUSH1 0x2 ADD SSTORE PUSH1 0x60 DUP3 ADD MLOAD DUP2 PUSH1 0x3 ADD SSTORE PUSH1 0x80 DUP3 ADD MLOAD DUP2 PUSH1 0x4 ADD PUSH1 0x0 PUSH2 0x100 EXP DUP2 SLOAD DUP2 PUSH1 0xFF MUL NOT AND SWAP1 DUP4 PUSH1 0xFF AND MUL OR SWAP1 SSTORE POP POP POP PUSH1 0x12 PUSH1 0x40 MLOAD DUP1 PUSH1 0xA0 ADD PUSH1 0x40 MSTORE DUP1 PUSH1 0x19 DUP2 MSTORE PUSH1 0x20 ADD PUSH1 0xF DUP2 MSTORE PUSH1 0x20 ADD PUSH1 0xF DUP2 MSTORE PUSH1 0x20 ADD PUSH1 0xF DUP2 MSTORE PUSH1 0x20 ADD PUSH1 0xA PUSH1 0xFF AND DUP2 MSTORE POP SWAP1 DUP1 PUSH1 0x1 DUP2 SLOAD ADD DUP1 DUP3 SSTORE DUP1 SWAP2 POP POP PUSH1 0x1 SWAP1 SUB SWAP1 PUSH1 0x0 MSTORE PUSH1 0x20 PUSH1 0x0 KECCAK256 SWAP1 PUSH1 0x5 MUL ADD PUSH1 0x0 SWAP1 SWAP2 SWAP1 SWAP2 SWAP1 SWAP2 POP PUSH1 0x0 DUP3 ADD MLOAD DUP2 PUSH1 0x0 ADD SSTORE PUSH1 0x20 DUP3 ADD MLOAD DUP2 PUSH1 0x1 ADD SSTORE PUSH1 0x40 DUP3 ADD MLOAD DUP2 PUSH1 0x2 ADD SSTORE PUSH1 0x60 DUP3 ADD MLOAD DUP2 PUSH1 0x3 ADD SSTORE PUSH1 0x80 DUP3 ADD MLOAD DUP2 PUSH1 0x4 ADD PUSH1 0x0 PUSH2 0x100 EXP DUP2 SLOAD DUP2 PUSH1 0xFF MUL NOT AND SWAP1 DUP4 PUSH1 0xFF AND MUL OR SWAP1 SSTORE POP POP POP PUSH3 0x3A2 JUMP JUMPDEST DUP3 DUP1 SLOAD PUSH3 0x2CD SWAP1 PUSH3 0x365 JUMP JUMPDEST SWAP1 PUSH1 0x0 MSTORE PUSH1 0x20 PUSH1 0x0 KECCAK256 SWAP1 PUSH1 0x1F ADD PUSH1 0x20 SWAP1 DIV DUP2 ADD SWAP3 DUP3 PUSH3 0x2F1 JUMPI PUSH1 0x0 DUP6 SSTORE PUSH3 0x33C JUMP JUMPDEST DUP3 PUSH1 0x1F LT PUSH3 0x30C JUMPI DUP1 MLOAD PUSH1 0xFF NOT AND DUP4 DUP1 ADD OR DUP6 SSTORE PUSH3 0x33C JUMP JUMPDEST DUP3 DUP1 ADD PUSH1 0x1 ADD DUP6 SSTORE DUP3 ISZERO PUSH3 0x33C JUMPI SWAP2 DUP3 ADD JUMPDEST DUP3 DUP2 GT ISZERO PUSH3 0x33C JUMPI DUP3 MLOAD DUP3 SSTORE SWAP2 PUSH1 0x20 ADD SWAP2 SWAP1 PUSH1 0x1 ADD SWAP1 PUSH3 0x31F JUMP JUMPDEST POP PUSH3 0x34A SWAP3 SWAP2 POP PUSH3 0x34E JUMP JUMPDEST POP SWAP1 JUMP JUMPDEST JUMPDEST DUP1 DUP3 GT ISZERO PUSH3 0x34A JUMPI PUSH1 0x0 DUP2 SSTORE PUSH1 0x1 ADD PUSH3 0x34F JUMP JUMPDEST PUSH1 0x1 DUP2 DUP2 SHR SWAP1 DUP3 AND DUP1 PUSH3 0x37A JUMPI PUSH1 0x7F DUP3 AND SWAP2 POP JUMPDEST PUSH1 0x20 DUP3 LT DUP2 EQ ISZERO PUSH3 0x39C JUMPI PUSH4 0x4E487B71 PUSH1 0xE0 SHL PUSH1 0x0 MSTORE PUSH1 0x22 PUSH1 0x4 MSTORE PUSH1 0x24 PUSH1 0x0 REVERT JUMPDEST POP SWAP2 SWAP1 POP JUMP JUMPDEST PUSH2 0x3D7A DUP1 PUSH3 0x3B2 PUSH1 0x0 CODECOPY PUSH1 0x0 RETURN INVALID PUSH1 0x80 PUSH1 0x40 MSTORE PUSH1 0x4 CALLDATASIZE LT PUSH2 0x1A0 JUMPI PUSH1 0x0 CALLDATALOAD PUSH1 0xE0 SHR DUP1 PUSH4 0x70A08231 GT PUSH2 0xEC JUMPI DUP1 PUSH4 0xC3CFCDC8 GT PUSH2 0x8A JUMPI DUP1 PUSH4 0xCCD1A9E9 GT PUSH2 0x64 JUMPI DUP1 PUSH4 0xCCD1A9E9 EQ PUSH2 0x539 JUMPI DUP1 PUSH4 0xDFF0BDAF EQ PUSH2 0x55B JUMPI DUP1 PUSH4 0xE985E9C5 EQ PUSH2 0x57B JUMPI DUP1 PUSH4 0xFE3296F8 EQ PUSH2 0x5C4 JUMPI PUSH1 0x0 DUP1 REVERT JUMPDEST DUP1 PUSH4 0xC3CFCDC8 EQ PUSH2 0x4D9 JUMPI DUP1 PUSH4 0xC87B56DD EQ PUSH2 0x4F9 JUMPI DUP1 PUSH4 0xCAECE7BB EQ PUSH2 0x519 JUMPI PUSH1 0x0 DUP1 REVERT JUMPDEST DUP1 PUSH4 0x95D89B41 GT PUSH2 0xC6 JUMPI DUP1 PUSH4 0x95D89B41 EQ PUSH2 0x464 JUMPI DUP1 PUSH4 0xA22CB465 EQ PUSH2 0x479 JUMPI DUP1 PUSH4 0xB6DB669D EQ PUSH2 0x499 JUMPI DUP1 PUSH4 0xB88D4FDE EQ PUSH2 0x4B9 JUMPI PUSH1 0x0 DUP1 REVERT JUMPDEST DUP1 PUSH4 0x70A08231 EQ PUSH2 0x3F2 JUMPI DUP1 PUSH4 0x79A85E6C EQ PUSH2 0x412 JUMPI DUP1 PUSH4 0x7A5800C5 EQ PUSH2 0x442 JUMPI PUSH1 0x0 DUP1 REVERT JUMPDEST DUP1 PUSH4 0x23B872DD GT PUSH2 0x159 JUMPI DUP1 PUSH4 0x422666A7 GT PUSH2 0x133 JUMPI DUP1 PUSH4 0x422666A7 EQ PUSH2 0x365 JUMPI DUP1 PUSH4 0x42842E0E EQ PUSH2 0x392 JUMPI DUP1 PUSH4 0x6352211E EQ PUSH2 0x3B2 JUMPI DUP1 PUSH4 0x6410381C EQ PUSH2 0x3D2 JUMPI PUSH1 0x0 DUP1 REVERT JUMPDEST DUP1 PUSH4 0x23B872DD EQ PUSH2 0x305 JUMPI DUP1 PUSH4 0x23E3FBD5 EQ PUSH2 0x325 JUMPI DUP1 PUSH4 0x368FABDF EQ PUSH2 0x345 JUMPI PUSH1 0x0 DUP1 REVERT JUMPDEST DUP1 PUSH4 0x1FFC9A7 EQ PUSH2 0x208 JUMPI DUP1 PUSH4 0x6FDDE03 EQ PUSH2 0x23D JUMPI DUP1 PUSH4 0x81812FC EQ PUSH2 0x25F JUMPI DUP1 PUSH4 0x95EA7B3 EQ PUSH2 0x297 JUMPI DUP1 PUSH4 0x18160DDD EQ PUSH2 0x2B9 JUMPI DUP1 PUSH4 0x1DDDF164 EQ PUSH2 0x2D8 JUMPI PUSH1 0x0 DUP1 REVERT JUMPDEST CALLDATASIZE PUSH2 0x203 JUMPI CALLER PUSH1 0x0 SWAP1 DUP2 MSTORE PUSH1 0x7 PUSH1 0x20 MSTORE PUSH1 0x40 DUP2 KECCAK256 DUP1 SLOAD CALLVALUE SWAP3 SWAP1 PUSH2 0x1C4 SWAP1 DUP5 SWAP1 PUSH2 0x358E JUMP JUMPDEST SWAP1 SWAP2 SSTORE POP POP PUSH1 0x40 DUP1 MLOAD CALLER DUP2 MSTORE CALLVALUE PUSH1 0x20 DUP3 ADD MSTORE PUSH32 0xEFC0288202E432ADE6BF71491D0001D7E389AD4F8E4E9C7AA038DD1A563EFC60 SWAP2 ADD PUSH1 0x40 MLOAD DUP1 SWAP2 SUB SWAP1 LOG1 STOP JUMPDEST PUSH1 0x0 DUP1 REVERT JUMPDEST CALLVALUE DUP1 ISZERO PUSH2 0x214 JUMPI PUSH1 0x0 DUP1 REVERT JUMPDEST POP PUSH2 0x228 PUSH2 0x223 CALLDATASIZE PUSH1 0x4 PUSH2 0x35BC JUMP JUMPDEST PUSH2 0x5E4 JUMP JUMPDEST PUSH1 0x40 MLOAD SWAP1 ISZERO ISZERO DUP2 MSTORE PUSH1 0x20 ADD JUMPDEST PUSH1 0x40 MLOAD DUP1 SWAP2 SUB SWAP1 RETURN JUMPDEST CALLVALUE DUP1 ISZERO PUSH2 0x249 JUMPI PUSH1 0x0 DUP1 REVERT JUMPDEST POP PUSH2 0x252 PUSH2 0x636 JUMP JUMPDEST PUSH1 0x40 MLOAD PUSH2 0x234 SWAP2 SWAP1 PUSH2 0x3631 JUMP JUMPDEST CALLVALUE DUP1 ISZERO PUSH2 0x26B JUMPI PUSH1 0x0 DUP1 REVERT JUMPDEST POP PUSH2 0x27F PUSH2 0x27A CALLDATASIZE PUSH1 0x4 PUSH2 0x3644 JUMP JUMPDEST PUSH2 0x6C8 JUMP JUMPDEST PUSH1 0x40 MLOAD PUSH1 0x1 PUSH1 0x1 PUSH1 0xA0 SHL SUB SWAP1 SWAP2 AND DUP2 MSTORE PUSH1 0x20 ADD PUSH2 0x234 JUMP JUMPDEST CALLVALUE DUP1 ISZERO PUSH2 0x2A3 JUMPI PUSH1 0x0 DUP1 REVERT JUMPDEST POP PUSH2 0x2B7 PUSH2 0x2B2 CALLDATASIZE PUSH1 0x4 PUSH2 0x3679 JUMP JUMPDEST PUSH2 0x755 JUMP JUMPDEST STOP JUMPDEST CALLVALUE DUP1 ISZERO PUSH2 0x2C5 JUMPI PUSH1 0x0 DUP1 REVERT JUMPDEST POP PUSH1 0xA SLOAD JUMPDEST PUSH1 0x40 MLOAD SWAP1 DUP2 MSTORE PUSH1 0x20 ADD PUSH2 0x234 JUMP JUMPDEST CALLVALUE DUP1 ISZERO PUSH2 0x2E4 JUMPI PUSH1 0x0 DUP1 REVERT JUMPDEST POP PUSH2 0x2F8 PUSH2 0x2F3 CALLDATASIZE PUSH1 0x4 PUSH2 0x3644 JUMP JUMPDEST PUSH2 0x86B JUMP JUMPDEST PUSH1 0x40 MLOAD PUSH2 0x234 SWAP2 SWAP1 PUSH2 0x36D5 JUMP JUMPDEST CALLVALUE DUP1 ISZERO PUSH2 0x311 JUMPI PUSH1 0x0 DUP1 REVERT JUMPDEST POP PUSH2 0x2B7 PUSH2 0x320 CALLDATASIZE PUSH1 0x4 PUSH2 0x36E3 JUMP JUMPDEST PUSH2 0x908 JUMP JUMPDEST CALLVALUE DUP1 ISZERO PUSH2 0x331 JUMPI PUSH1 0x0 DUP1 REVERT JUMPDEST POP PUSH2 0x2CA PUSH2 0x340 CALLDATASIZE PUSH1 0x4 PUSH2 0x371F JUMP JUMPDEST PUSH2 0x964 JUMP JUMPDEST CALLVALUE DUP1 ISZERO PUSH2 0x351 JUMPI PUSH1 0x0 DUP1 REVERT JUMPDEST POP PUSH2 0x228 PUSH2 0x360 CALLDATASIZE PUSH1 0x4 PUSH2 0x373A JUMP JUMPDEST PUSH2 0x9F8 JUMP JUMPDEST CALLVALUE DUP1 ISZERO PUSH2 0x371 JUMPI PUSH1 0x0 DUP1 REVERT JUMPDEST POP PUSH2 0x385 PUSH2 0x380 CALLDATASIZE PUSH1 0x4 PUSH2 0x3644 JUMP JUMPDEST PUSH2 0xB7F JUMP JUMPDEST PUSH1 0x40 MLOAD PUSH2 0x234 SWAP2 SWAP1 PUSH2 0x3813 JUMP JUMPDEST CALLVALUE DUP1 ISZERO PUSH2 0x39E JUMPI PUSH1 0x0 DUP1 REVERT JUMPDEST POP PUSH2 0x2B7 PUSH2 0x3AD CALLDATASIZE PUSH1 0x4 PUSH2 0x36E3 JUMP JUMPDEST PUSH2 0xCE2 JUMP JUMPDEST CALLVALUE DUP1 ISZERO PUSH2 0x3BE JUMPI PUSH1 0x0 DUP1 REVERT JUMPDEST POP PUSH2 0x27F PUSH2 0x3CD CALLDATASIZE PUSH1 0x4 PUSH2 0x3644 JUMP JUMPDEST PUSH2 0xCFD JUMP JUMPDEST CALLVALUE DUP1 ISZERO PUSH2 0x3DE JUMPI PUSH1 0x0 DUP1 REVERT JUMPDEST POP PUSH2 0x2B7 PUSH2 0x3ED CALLDATASIZE PUSH1 0x4 PUSH2 0x36E3 JUMP JUMPDEST PUSH2 0xD74 JUMP JUMPDEST CALLVALUE DUP1 ISZERO PUSH2 0x3FE JUMPI PUSH1 0x0 DUP1 REVERT JUMPDEST POP PUSH2 0x2CA PUSH2 0x40D CALLDATASIZE PUSH1 0x4 PUSH2 0x371F JUMP JUMPDEST PUSH2 0xE5C JUMP JUMPDEST CALLVALUE DUP1 ISZERO PUSH2 0x41E JUMPI PUSH1 0x0 DUP1 REVERT JUMPDEST POP PUSH2 0x432 PUSH2 0x42D CALLDATASIZE PUSH1 0x4 PUSH2 0x3644 JUMP JUMPDEST PUSH2 0xEE3 JUMP JUMPDEST PUSH1 0x40 MLOAD PUSH2 0x234 SWAP5 SWAP4 SWAP3 SWAP2 SWAP1 PUSH2 0x3822 JUMP JUMPDEST CALLVALUE DUP1 ISZERO PUSH2 0x44E JUMPI PUSH1 0x0 DUP1 REVERT JUMPDEST POP PUSH2 0x457 PUSH2 0x1076 JUMP JUMPDEST PUSH1 0x40 MLOAD PUSH2 0x234 SWAP2 SWAP1 PUSH2 0x385E JUMP JUMPDEST CALLVALUE DUP1 ISZERO PUSH2 0x470 JUMPI PUSH1 0x0 DUP1 REVERT JUMPDEST POP PUSH2 0x252 PUSH2 0x1128 JUMP JUMPDEST CALLVALUE DUP1 ISZERO PUSH2 0x485 JUMPI PUSH1 0x0 DUP1 REVERT JUMPDEST POP PUSH2 0x2B7 PUSH2 0x494 CALLDATASIZE PUSH1 0x4 PUSH2 0x38BD JUMP JUMPDEST PUSH2 0x1137 JUMP JUMPDEST CALLVALUE DUP1 ISZERO PUSH2 0x4A5 JUMPI PUSH1 0x0 DUP1 REVERT JUMPDEST POP PUSH2 0x2B7 PUSH2 0x4B4 CALLDATASIZE PUSH1 0x4 PUSH2 0x373A JUMP JUMPDEST PUSH2 0x1146 JUMP JUMPDEST CALLVALUE DUP1 ISZERO PUSH2 0x4C5 JUMPI PUSH1 0x0 DUP1 REVERT JUMPDEST POP PUSH2 0x2B7 PUSH2 0x4D4 CALLDATASIZE PUSH1 0x4 PUSH2 0x3906 JUMP JUMPDEST PUSH2 0x1254 JUMP JUMPDEST CALLVALUE DUP1 ISZERO PUSH2 0x4E5 JUMPI PUSH1 0x0 DUP1 REVERT JUMPDEST POP PUSH2 0x228 PUSH2 0x4F4 CALLDATASIZE PUSH1 0x4 PUSH2 0x373A JUMP JUMPDEST PUSH2 0x12D6 JUMP JUMPDEST CALLVALUE DUP1 ISZERO PUSH2 0x505 JUMPI PUSH1 0x0 DUP1 REVERT JUMPDEST POP PUSH2 0x252 PUSH2 0x514 CALLDATASIZE PUSH1 0x4 PUSH2 0x3644 JUMP JUMPDEST PUSH2 0x13CA JUMP JUMPDEST CALLVALUE DUP1 ISZERO PUSH2 0x525 JUMPI PUSH1 0x0 DUP1 REVERT JUMPDEST POP PUSH2 0x2B7 PUSH2 0x534 CALLDATASIZE PUSH1 0x4 PUSH2 0x39E2 JUMP JUMPDEST PUSH2 0x1541 JUMP JUMPDEST CALLVALUE DUP1 ISZERO PUSH2 0x545 JUMPI PUSH1 0x0 DUP1 REVERT JUMPDEST POP PUSH2 0x54E PUSH2 0x15FB JUMP JUMPDEST PUSH1 0x40 MLOAD PUSH2 0x234 SWAP2 SWAP1 PUSH2 0x3A05 JUMP JUMPDEST CALLVALUE DUP1 ISZERO PUSH2 0x567 JUMPI PUSH1 0x0 DUP1 REVERT JUMPDEST POP PUSH2 0x2B7 PUSH2 0x576 CALLDATASIZE PUSH1 0x4 PUSH2 0x3A81 JUMP JUMPDEST PUSH2 0x181A JUMP JUMPDEST CALLVALUE DUP1 ISZERO PUSH2 0x587 JUMPI PUSH1 0x0 DUP1 REVERT JUMPDEST POP PUSH2 0x228 PUSH2 0x596 CALLDATASIZE PUSH1 0x4 PUSH2 0x3AA2 JUMP JUMPDEST PUSH1 0x1 PUSH1 0x1 PUSH1 0xA0 SHL SUB SWAP2 DUP3 AND PUSH1 0x0 SWAP1 DUP2 MSTORE PUSH1 0x5 PUSH1 0x20 SWAP1 DUP2 MSTORE PUSH1 0x40 DUP1 DUP4 KECCAK256 SWAP4 SWAP1 SWAP5 AND DUP3 MSTORE SWAP2 SWAP1 SWAP2 MSTORE KECCAK256 SLOAD PUSH1 0xFF AND SWAP1 JUMP JUMPDEST CALLVALUE DUP1 ISZERO PUSH2 0x5D0 JUMPI PUSH1 0x0 DUP1 REVERT JUMPDEST POP PUSH2 0x2B7 PUSH2 0x5DF CALLDATASIZE PUSH1 0x4 PUSH2 0x3644 JUMP JUMPDEST PUSH2 0x186C JUMP JUMPDEST PUSH1 0x0 PUSH1 0x1 PUSH1 0x1 PUSH1 0xE0 SHL SUB NOT DUP3 AND PUSH4 0x80AC58CD PUSH1 0xE0 SHL EQ DUP1 PUSH2 0x615 JUMPI POP PUSH1 0x1 PUSH1 0x1 PUSH1 0xE0 SHL SUB NOT DUP3 AND PUSH4 0x5B5E139F PUSH1 0xE0 SHL EQ JUMPDEST DUP1 PUSH2 0x630 JUMPI POP PUSH4 0x1FFC9A7 PUSH1 0xE0 SHL PUSH1 0x1 PUSH1 0x1 PUSH1 0xE0 SHL SUB NOT DUP4 AND EQ JUMPDEST SWAP3 SWAP2 POP POP JUMP JUMPDEST PUSH1 0x60 PUSH1 0x0 DUP1 SLOAD PUSH2 0x645 SWAP1 PUSH2 0x3ACC JUMP JUMPDEST DUP1 PUSH1 0x1F ADD PUSH1 0x20 DUP1 SWAP2 DIV MUL PUSH1 0x20 ADD PUSH1 0x40 MLOAD SWAP1 DUP2 ADD PUSH1 0x40 MSTORE DUP1 SWAP3 SWAP2 SWAP1 DUP2 DUP2 MSTORE PUSH1 0x20 ADD DUP3 DUP1 SLOAD PUSH2 0x671 SWAP1 PUSH2 0x3ACC JUMP JUMPDEST DUP1 ISZERO PUSH2 0x6BE JUMPI DUP1 PUSH1 0x1F LT PUSH2 0x693 JUMPI PUSH2 0x100 DUP1 DUP4 SLOAD DIV MUL DUP4 MSTORE SWAP2 PUSH1 0x20 ADD SWAP2 PUSH2 0x6BE JUMP JUMPDEST DUP3 ADD SWAP2 SWAP1 PUSH1 0x0 MSTORE PUSH1 0x20 PUSH1 0x0 KECCAK256 SWAP1 JUMPDEST DUP2 SLOAD DUP2 MSTORE SWAP1 PUSH1 0x1 ADD SWAP1 PUSH1 0x20 ADD DUP1 DUP4 GT PUSH2 0x6A1 JUMPI DUP3 SWAP1 SUB PUSH1 0x1F AND DUP3 ADD SWAP2 JUMPDEST POP POP POP POP POP SWAP1 POP SWAP1 JUMP JUMPDEST PUSH1 0x0 PUSH2 0x6D3 DUP3 PUSH2 0x18E6 JUMP JUMPDEST PUSH2 0x739 JUMPI PUSH1 0x40 MLOAD PUSH3 0x461BCD PUSH1 0xE5 SHL DUP2 MSTORE PUSH1 0x20 PUSH1 0x4 DUP3 ADD MSTORE PUSH1 0x2C PUSH1 0x24 DUP3 ADD MSTORE PUSH32 0x4552433732313A20617070726F76656420717565727920666F72206E6F6E6578 PUSH1 0x44 DUP3 ADD MSTORE PUSH12 0x34B9BA32B73A103A37B5B2B7 PUSH1 0xA1 SHL PUSH1 0x64 DUP3 ADD MSTORE PUSH1 0x84 ADD JUMPDEST PUSH1 0x40 MLOAD DUP1 SWAP2 SUB SWAP1 REVERT JUMPDEST POP PUSH1 0x0 SWAP1 DUP2 MSTORE PUSH1 0x4 PUSH1 0x20 MSTORE PUSH1 0x40 SWAP1 KECCAK256 SLOAD PUSH1 0x1 PUSH1 0x1 PUSH1 0xA0 SHL SUB AND SWAP1 JUMP JUMPDEST PUSH1 0x0 PUSH2 0x760 DUP3 PUSH2 0xCFD JUMP JUMPDEST SWAP1 POP DUP1 PUSH1 0x1 PUSH1 0x1 PUSH1 0xA0 SHL SUB AND DUP4 PUSH1 0x1 PUSH1 0x1 PUSH1 0xA0 SHL SUB AND EQ ISZERO PUSH2 0x7CE JUMPI PUSH1 0x40 MLOAD PUSH3 0x461BCD PUSH1 0xE5 SHL DUP2 MSTORE PUSH1 0x20 PUSH1 0x4 DUP3 ADD MSTORE PUSH1 0x21 PUSH1 0x24 DUP3 ADD MSTORE PUSH32 0x4552433732313A20617070726F76616C20746F2063757272656E74206F776E65 PUSH1 0x44 DUP3 ADD MSTORE PUSH1 0x39 PUSH1 0xF9 SHL PUSH1 0x64 DUP3 ADD MSTORE PUSH1 0x84 ADD PUSH2 0x730 JUMP JUMPDEST CALLER PUSH1 0x1 PUSH1 0x1 PUSH1 0xA0 SHL SUB DUP3 AND EQ DUP1 PUSH2 0x7EA JUMPI POP PUSH2 0x7EA DUP2 CALLER PUSH2 0x596 JUMP JUMPDEST PUSH2 0x85C JUMPI PUSH1 0x40 MLOAD PUSH3 0x461BCD PUSH1 0xE5 SHL DUP2 MSTORE PUSH1 0x20 PUSH1 0x4 DUP3 ADD MSTORE PUSH1 0x38 PUSH1 0x24 DUP3 ADD MSTORE PUSH32 0x4552433732313A20617070726F76652063616C6C6572206973206E6F74206F77 PUSH1 0x44 DUP3 ADD MSTORE PUSH32 0x6E6572206E6F7220617070726F76656420666F7220616C6C0000000000000000 PUSH1 0x64 DUP3 ADD MSTORE PUSH1 0x84 ADD PUSH2 0x730 JUMP JUMPDEST PUSH2 0x866 DUP4 DUP4 PUSH2 0x1903 JUMP JUMPDEST POP POP POP JUMP JUMPDEST PUSH2 0x873 PUSH2 0x342E JUMP JUMPDEST DUP2 PUSH2 0x87D DUP2 PUSH2 0x18E6 JUMP JUMPDEST PUSH2 0x886 JUMPI PUSH1 0x0 DUP1 REVERT JUMPDEST PUSH1 0x0 DUP4 DUP2 MSTORE PUSH1 0xB PUSH1 0x20 MSTORE PUSH1 0x40 SWAP1 KECCAK256 SLOAD PUSH1 0xA DUP1 SLOAD DUP3 SWAP1 DUP2 LT PUSH2 0x8A9 JUMPI PUSH2 0x8A9 PUSH2 0x3B01 JUMP JUMPDEST PUSH1 0x0 SWAP2 DUP3 MSTORE PUSH1 0x20 SWAP2 DUP3 SWAP1 KECCAK256 PUSH1 0x40 DUP1 MLOAD PUSH1 0x80 DUP2 ADD DUP3 MSTORE PUSH1 0x6 SWAP4 SWAP1 SWAP4 MUL SWAP1 SWAP2 ADD PUSH1 0x3 ADD SLOAD PUSH1 0xFF DUP1 DUP3 AND DUP5 MSTORE PUSH2 0x100 DUP3 DIV DUP2 AND SWAP5 DUP5 ADD SWAP5 SWAP1 SWAP5 MSTORE PUSH3 0x10000 DUP2 DIV DUP5 AND SWAP2 DUP4 ADD SWAP2 SWAP1 SWAP2 MSTORE PUSH4 0x1000000 SWAP1 DIV SWAP1 SWAP2 AND PUSH1 0x60 DUP3 ADD MSTORE SWAP3 POP POP JUMPDEST POP SWAP2 SWAP1 POP JUMP JUMPDEST DUP3 PUSH1 0x1 PUSH1 0x1 PUSH1 0xA0 SHL SUB AND PUSH2 0x91B DUP3 PUSH2 0xCFD JUMP JUMPDEST PUSH1 0x1 PUSH1 0x1 PUSH1 0xA0 SHL SUB AND EQ PUSH2 0x92E JUMPI PUSH1 0x0 DUP1 REVERT JUMPDEST PUSH2 0x937 DUP2 PUSH2 0xB7F JUMP JUMPDEST PUSH2 0x100 ADD MLOAD DUP1 ISZERO PUSH2 0x950 JUMPI POP ORIGIN PUSH1 0x1 PUSH1 0x1 PUSH1 0xA0 SHL SUB DUP4 AND EQ JUMPDEST PUSH2 0x959 JUMPI PUSH1 0x0 DUP1 REVERT JUMPDEST PUSH2 0x866 DUP4 DUP4 DUP4 PUSH2 0x1971 JUMP JUMPDEST PUSH1 0x0 PUSH1 0x1 PUSH1 0x1 PUSH1 0xA0 SHL SUB DUP3 AND ORIGIN EQ PUSH2 0x97B JUMPI PUSH1 0x0 DUP1 REVERT JUMPDEST PUSH1 0x1 PUSH1 0x1 PUSH1 0xA0 SHL SUB DUP3 AND PUSH2 0x9DC JUMPI PUSH1 0x40 MLOAD PUSH3 0x461BCD PUSH1 0xE5 SHL DUP2 MSTORE PUSH1 0x20 PUSH1 0x4 DUP3 ADD MSTORE PUSH1 0x22 PUSH1 0x24 DUP3 ADD MSTORE PUSH32 0x6465706F73697420717565727920666F7220746865207A65726F206164647265 PUSH1 0x44 DUP3 ADD MSTORE PUSH2 0x7373 PUSH1 0xF0 SHL PUSH1 0x64 DUP3 ADD MSTORE PUSH1 0x84 ADD PUSH2 0x730 JUMP JUMPDEST POP PUSH1 0x1 PUSH1 0x1 PUSH1 0xA0 SHL SUB AND PUSH1 0x0 SWAP1 DUP2 MSTORE PUSH1 0x7 PUSH1 0x20 MSTORE PUSH1 0x40 SWAP1 KECCAK256 SLOAD SWAP1 JUMP JUMPDEST PUSH1 0x12 SLOAD PUSH1 0x0 SWAP1 DUP3 LT PUSH2 0xA09 JUMPI PUSH1 0x0 DUP1 REVERT JUMPDEST PUSH1 0x0 PUSH2 0xA14 DUP5 PUSH2 0xB7F JUMP JUMPDEST SWAP1 POP PUSH1 0x0 PUSH1 0x12 DUP5 DUP2 SLOAD DUP2 LT PUSH2 0xA2B JUMPI PUSH2 0xA2B PUSH2 0x3B01 JUMP JUMPDEST PUSH1 0x0 SWAP2 DUP3 MSTORE PUSH1 0x20 DUP1 DUP4 KECCAK256 PUSH1 0x40 DUP1 MLOAD PUSH1 0xA0 DUP2 ADD DUP3 MSTORE PUSH1 0x5 SWAP1 SWAP5 MUL SWAP1 SWAP2 ADD DUP1 SLOAD DUP5 MSTORE PUSH1 0x1 DUP2 ADD SLOAD DUP5 DUP5 ADD MSTORE PUSH1 0x2 DUP2 ADD SLOAD SWAP2 DUP5 ADD SWAP2 SWAP1 SWAP2 MSTORE PUSH1 0x3 DUP2 ADD SLOAD PUSH1 0x60 DUP1 DUP6 ADD DUP3 SWAP1 MSTORE PUSH1 0x4 SWAP1 SWAP3 ADD SLOAD PUSH1 0xFF SWAP1 DUP2 AND PUSH1 0x80 DUP7 ADD MSTORE SWAP2 DUP8 ADD MLOAD SWAP1 SWAP3 ADD MLOAD SWAP3 SWAP5 POP PUSH2 0xA92 SWAP3 AND PUSH2 0x3B2D JUMP JUMPDEST PUSH2 0xA9D SWAP1 PUSH1 0x1 PUSH2 0x358E JUMP JUMPDEST SWAP1 POP PUSH1 0x0 DUP4 PUSH1 0x60 ADD MLOAD PUSH1 0x40 ADD MLOAD PUSH1 0xFF AND DUP4 PUSH1 0x20 ADD MLOAD PUSH2 0xABC SWAP2 SWAP1 PUSH2 0x3B2D JUMP JUMPDEST PUSH2 0xAC7 SWAP1 PUSH1 0x1 PUSH2 0x358E JUMP JUMPDEST PUSH1 0x40 DUP1 MLOAD PUSH1 0x60 DUP1 DUP3 ADD DUP4 MSTORE DUP8 DUP2 ADD DUP1 MLOAD MLOAD PUSH1 0xFF SWAP1 DUP2 AND DUP5 MSTORE PUSH1 0x20 DUP1 DUP6 ADD DUP10 SWAP1 MSTORE SWAP2 MLOAD DUP4 ADD MLOAD AND DUP4 DUP6 ADD MSTORE DUP4 MLOAD SWAP2 DUP3 ADD DUP5 MSTORE DUP8 MLOAD DUP3 MSTORE DUP2 ADD DUP5 SWAP1 MSTORE DUP7 DUP4 ADD MLOAD SWAP3 DUP2 ADD SWAP3 SWAP1 SWAP3 MSTORE SWAP2 SWAP3 POP PUSH1 0x0 PUSH2 0xB1B DUP4 DUP4 PUSH2 0x1B18 JUMP JUMPDEST SWAP1 POP DUP1 ISZERO PUSH2 0xB3D JUMPI PUSH2 0xB3D DUP11 DUP8 PUSH1 0x80 ADD MLOAD PUSH1 0xA PUSH2 0xB38 SWAP2 SWAP1 PUSH2 0x3B41 JUMP JUMPDEST PUSH2 0x1C08 JUMP JUMPDEST PUSH1 0x40 MLOAD DUP2 ISZERO ISZERO DUP2 MSTORE PUSH32 0xCB7BEC6F116BDB9B315C4606E0388C4DF5473616B6AB01C15BD612CDCF5D9A87 SWAP1 PUSH1 0x20 ADD PUSH1 0x40 MLOAD DUP1 SWAP2 SUB SWAP1 LOG1 SWAP10 SWAP9 POP POP POP POP POP POP POP POP POP JUMP JUMPDEST PUSH2 0xB87 PUSH2 0x3455 JUMP JUMPDEST DUP2 PUSH2 0xB91 DUP2 PUSH2 0x18E6 JUMP JUMPDEST PUSH2 0xB9A JUMPI PUSH1 0x0 DUP1 REVERT JUMPDEST PUSH1 0x0 DUP4 DUP2 MSTORE PUSH1 0xB PUSH1 0x20 MSTORE PUSH1 0x40 SWAP1 KECCAK256 SLOAD PUSH1 0xA DUP1 SLOAD DUP3 SWAP1 DUP2 LT PUSH2 0xBBD JUMPI PUSH2 0xBBD PUSH2 0x3B01 JUMP JUMPDEST PUSH1 0x0 SWAP2 DUP3 MSTORE PUSH1 0x20 SWAP2 DUP3 SWAP1 KECCAK256 PUSH1 0x40 DUP1 MLOAD PUSH2 0x120 DUP2 ADD DUP3 MSTORE PUSH1 0x6 SWAP1 SWAP4 MUL SWAP1 SWAP2 ADD DUP1 SLOAD DUP4 MSTORE PUSH1 0x1 DUP2 ADD SLOAD DUP4 DUP6 ADD MSTORE PUSH1 0x2 DUP1 DUP3 ADD SLOAD DUP5 DUP5 ADD MSTORE DUP3 MLOAD PUSH1 0x80 DUP1 DUP3 ADD DUP6 MSTORE PUSH1 0x3 DUP5 ADD SLOAD PUSH1 0xFF DUP1 DUP3 AND DUP5 MSTORE PUSH2 0x100 DUP1 DUP4 DIV DUP3 AND DUP6 DUP12 ADD MSTORE PUSH3 0x10000 DUP1 DUP5 DIV DUP4 AND DUP7 DUP11 ADD MSTORE PUSH4 0x1000000 SWAP4 DUP5 SWAP1 DIV DUP4 AND PUSH1 0x60 DUP8 DUP2 ADD SWAP2 SWAP1 SWAP2 MSTORE DUP1 DUP12 ADD SWAP7 SWAP1 SWAP7 MSTORE DUP9 MLOAD DUP1 DUP7 ADD DUP11 MSTORE PUSH1 0x4 DUP10 ADD SLOAD DUP1 DUP6 AND DUP3 MSTORE DUP4 DUP2 DIV DUP6 AND SWAP13 DUP3 ADD SWAP13 SWAP1 SWAP13 MSTORE DUP2 DUP13 DIV DUP5 AND SWAP10 DUP2 ADD SWAP10 SWAP1 SWAP10 MSTORE SWAP3 SWAP1 SWAP10 DIV DUP2 AND SWAP4 DUP8 ADD SWAP4 SWAP1 SWAP4 MSTORE SWAP1 DUP7 ADD SWAP5 SWAP1 SWAP5 MSTORE PUSH1 0x5 DUP4 ADD SLOAD DUP1 DUP3 AND PUSH1 0xA0 DUP8 ADD MSTORE SWAP6 DUP7 DIV DUP2 AND PUSH1 0xC0 DUP7 ADD MSTORE SWAP4 SWAP5 SWAP2 SWAP4 PUSH1 0xE0 DUP7 ADD SWAP4 SWAP1 SWAP3 DIV SWAP1 SWAP2 AND SWAP1 DUP2 GT ISZERO PUSH2 0xCAE JUMPI PUSH2 0xCAE PUSH2 0x375C JUMP JUMPDEST PUSH1 0x2 DUP2 GT ISZERO PUSH2 0xCBF JUMPI PUSH2 0xCBF PUSH2 0x375C JUMP JUMPDEST DUP2 MSTORE PUSH1 0x5 SWAP2 SWAP1 SWAP2 ADD SLOAD PUSH4 0x1000000 SWAP1 DIV PUSH1 0xFF AND ISZERO ISZERO PUSH1 0x20 SWAP1 SWAP2 ADD MSTORE SWAP5 SWAP4 POP POP POP POP JUMP JUMPDEST PUSH2 0x866 DUP4 DUP4 DUP4 PUSH1 0x40 MLOAD DUP1 PUSH1 0x20 ADD PUSH1 0x40 MSTORE DUP1 PUSH1 0x0 DUP2 MSTORE POP PUSH2 0x1254 JUMP JUMPDEST PUSH1 0x0 DUP2 DUP2 MSTORE PUSH1 0x2 PUSH1 0x20 MSTORE PUSH1 0x40 DUP2 KECCAK256 SLOAD PUSH1 0x1 PUSH1 0x1 PUSH1 0xA0 SHL SUB AND DUP1 PUSH2 0x630 JUMPI PUSH1 0x40 MLOAD PUSH3 0x461BCD PUSH1 0xE5 SHL DUP2 MSTORE PUSH1 0x20 PUSH1 0x4 DUP3 ADD MSTORE PUSH1 0x29 PUSH1 0x24 DUP3 ADD MSTORE PUSH32 0x4552433732313A206F776E657220717565727920666F72206E6F6E6578697374 PUSH1 0x44 DUP3 ADD MSTORE PUSH9 0x32B73A103A37B5B2B7 PUSH1 0xB9 SHL PUSH1 0x64 DUP3 ADD MSTORE PUSH1 0x84 ADD PUSH2 0x730 JUMP JUMPDEST ORIGIN PUSH1 0x1 PUSH1 0x1 PUSH1 0xA0 SHL SUB DUP5 AND EQ PUSH2 0xD89 JUMPI PUSH1 0x0 DUP1 REVERT JUMPDEST PUSH1 0x1 PUSH1 0x1 PUSH1 0xA0 SHL SUB DUP3 AND ISZERO DUP1 ISZERO SWAP1 PUSH2 0xDA9 JUMPI POP PUSH1 0x1 PUSH1 0x1 PUSH1 0xA0 SHL SUB DUP4 AND ISZERO ISZERO JUMPDEST PUSH2 0xDB2 JUMPI PUSH1 0x0 DUP1 REVERT JUMPDEST PUSH1 0x1 PUSH1 0x1 PUSH1 0xA0 SHL SUB DUP4 AND PUSH1 0x0 SWAP1 DUP2 MSTORE PUSH1 0x7 PUSH1 0x20 MSTORE PUSH1 0x40 DUP2 KECCAK256 DUP1 SLOAD DUP4 SWAP3 SWAP1 PUSH2 0xDDA SWAP1 DUP5 SWAP1 PUSH2 0x3B6A JUMP JUMPDEST SWAP1 SWAP2 SSTORE POP POP PUSH1 0x1 PUSH1 0x1 PUSH1 0xA0 SHL SUB DUP3 AND PUSH1 0x0 SWAP1 DUP2 MSTORE PUSH1 0x7 PUSH1 0x20 MSTORE PUSH1 0x40 DUP2 KECCAK256 DUP1 SLOAD DUP4 SWAP3 SWAP1 PUSH2 0xE07 SWAP1 DUP5 SWAP1 PUSH2 0x358E JUMP JUMPDEST SWAP1 SWAP2 SSTORE POP POP PUSH1 0x40 DUP1 MLOAD PUSH1 0x1 PUSH1 0x1 PUSH1 0xA0 SHL SUB DUP1 DUP7 AND DUP3 MSTORE DUP5 AND PUSH1 0x20 DUP3 ADD MSTORE SWAP1 DUP2 ADD DUP3 SWAP1 MSTORE PUSH32 0xB900E832B6EFF259CF1FD6D12898306D28460D412E04F398C1A74A2AF6013013 SWAP1 PUSH1 0x60 ADD PUSH1 0x40 MLOAD DUP1 SWAP2 SUB SWAP1 LOG1 POP POP POP JUMP JUMPDEST PUSH1 0x0 PUSH1 0x1 PUSH1 0x1 PUSH1 0xA0 SHL SUB DUP3 AND PUSH2 0xEC7 JUMPI PUSH1 0x40 MLOAD PUSH3 0x461BCD PUSH1 0xE5 SHL DUP2 MSTORE PUSH1 0x20 PUSH1 0x4 DUP3 ADD MSTORE PUSH1 0x2A PUSH1 0x24 DUP3 ADD MSTORE PUSH32 0x4552433732313A2062616C616E636520717565727920666F7220746865207A65 PUSH1 0x44 DUP3 ADD MSTORE PUSH10 0x726F2061646472657373 PUSH1 0xB0 SHL PUSH1 0x64 DUP3 ADD MSTORE PUSH1 0x84 ADD PUSH2 0x730 JUMP JUMPDEST POP PUSH1 0x1 PUSH1 0x1 PUSH1 0xA0 SHL SUB AND PUSH1 0x0 SWAP1 DUP2 MSTORE PUSH1 0x3 PUSH1 0x20 MSTORE PUSH1 0x40 SWAP1 KECCAK256 SLOAD SWAP1 JUMP JUMPDEST PUSH1 0x0 DUP1 PUSH2 0xEEE PUSH2 0x342E JUMP JUMPDEST PUSH1 0x0 DUP5 PUSH2 0xEFA DUP2 PUSH2 0x18E6 JUMP JUMPDEST PUSH2 0xF03 JUMPI PUSH1 0x0 DUP1 REVERT JUMPDEST PUSH1 0x0 DUP7 DUP2 MSTORE PUSH1 0xB PUSH1 0x20 MSTORE PUSH1 0x40 DUP2 KECCAK256 SLOAD PUSH1 0xA DUP1 SLOAD SWAP2 SWAP3 SWAP2 DUP4 SWAP1 DUP2 LT PUSH2 0xF29 JUMPI PUSH2 0xF29 PUSH2 0x3B01 JUMP JUMPDEST PUSH1 0x0 SWAP2 DUP3 MSTORE PUSH1 0x20 SWAP2 DUP3 SWAP1 KECCAK256 PUSH1 0x40 DUP1 MLOAD PUSH2 0x120 DUP2 ADD DUP3 MSTORE PUSH1 0x6 SWAP1 SWAP4 MUL SWAP1 SWAP2 ADD DUP1 SLOAD DUP4 MSTORE PUSH1 0x1 DUP2 ADD SLOAD DUP4 DUP6 ADD MSTORE PUSH1 0x2 DUP1 DUP3 ADD SLOAD DUP5 DUP5 ADD MSTORE DUP3 MLOAD PUSH1 0x80 DUP1 DUP3 ADD DUP6 MSTORE PUSH1 0x3 DUP5 ADD SLOAD PUSH1 0xFF DUP1 DUP3 AND DUP5 MSTORE PUSH2 0x100 DUP1 DUP4 DIV DUP3 AND DUP6 DUP12 ADD MSTORE PUSH3 0x10000 DUP1 DUP5 DIV DUP4 AND DUP7 DUP11 ADD MSTORE PUSH4 0x1000000 SWAP4 DUP5 SWAP1 DIV DUP4 AND PUSH1 0x60 DUP8 DUP2 ADD SWAP2 SWAP1 SWAP2 MSTORE DUP1 DUP12 ADD SWAP7 SWAP1 SWAP7 MSTORE DUP9 MLOAD DUP1 DUP7 ADD DUP11 MSTORE PUSH1 0x4 DUP10 ADD SLOAD DUP1 DUP6 AND DUP3 MSTORE DUP4 DUP2 DIV DUP6 AND SWAP13 DUP3 ADD SWAP13 SWAP1 SWAP13 MSTORE DUP2 DUP13 DIV DUP5 AND SWAP10 DUP2 ADD SWAP10 SWAP1 SWAP10 MSTORE SWAP3 SWAP1 SWAP10 DIV DUP2 AND SWAP4 DUP8 ADD SWAP4 SWAP1 SWAP4 MSTORE SWAP1 DUP7 ADD SWAP5 SWAP1 SWAP5 MSTORE PUSH1 0x5 DUP4 ADD SLOAD DUP1 DUP3 AND PUSH1 0xA0 DUP8 ADD MSTORE SWAP6 DUP7 DIV DUP2 AND PUSH1 0xC0 DUP7 ADD MSTORE SWAP4 SWAP5 SWAP2 SWAP4 PUSH1 0xE0 DUP7 ADD SWAP4 SWAP1 SWAP3 DIV SWAP1 SWAP2 AND SWAP1 DUP2 GT ISZERO PUSH2 0x101A JUMPI PUSH2 0x101A PUSH2 0x375C JUMP JUMPDEST PUSH1 0x2 DUP2 GT ISZERO PUSH2 0x102B JUMPI PUSH2 0x102B PUSH2 0x375C JUMP JUMPDEST DUP2 MSTORE PUSH1 0x5 SWAP2 SWAP1 SWAP2 ADD SLOAD PUSH4 0x1000000 SWAP1 DIV PUSH1 0xFF AND ISZERO ISZERO PUSH1 0x20 SWAP1 SWAP2 ADD MSTORE SWAP1 POP PUSH1 0x0 PUSH2 0x1053 DUP10 PUSH2 0xCFD JUMP JUMPDEST PUSH1 0xA0 DUP4 ADD MLOAD PUSH1 0x60 DUP5 ADD MLOAD PUSH1 0xE0 SWAP1 SWAP5 ADD MLOAD SWAP2 SWAP12 SWAP1 SWAP11 POP SWAP3 SWAP9 POP SWAP7 POP SWAP1 SWAP5 POP POP POP POP POP JUMP JUMPDEST PUSH1 0x60 PUSH1 0x0 PUSH2 0x1083 CALLER PUSH2 0xE5C JUMP JUMPDEST SWAP1 POP DUP1 ISZERO PUSH2 0x10EF JUMPI PUSH1 0x0 JUMPDEST DUP2 DUP2 LT ISZERO PUSH2 0x10EA JUMPI CALLER PUSH1 0x0 SWAP1 DUP2 MSTORE PUSH1 0xC PUSH1 0x20 SWAP1 DUP2 MSTORE PUSH1 0x40 DUP1 DUP4 KECCAK256 DUP5 DUP5 MSTORE SWAP1 SWAP2 MSTORE SWAP1 KECCAK256 SLOAD PUSH2 0x10BA SWAP1 PUSH2 0xB7F JUMP JUMPDEST DUP4 DUP3 DUP2 MLOAD DUP2 LT PUSH2 0x10CC JUMPI PUSH2 0x10CC PUSH2 0x3B01 JUMP JUMPDEST PUSH1 0x20 MUL PUSH1 0x20 ADD ADD DUP2 SWAP1 MSTORE POP DUP1 DUP1 PUSH2 0x10E2 SWAP1 PUSH2 0x3B81 JUMP JUMPDEST SWAP2 POP POP PUSH2 0x108E JUMP JUMPDEST POP POP SWAP1 JUMP JUMPDEST PUSH1 0x40 DUP1 MLOAD PUSH1 0x0 DUP1 DUP3 MSTORE PUSH1 0x20 DUP3 ADD SWAP1 SWAP3 MSTORE SWAP1 PUSH2 0x1120 JUMP JUMPDEST PUSH2 0x110D PUSH2 0x3455 JUMP JUMPDEST DUP2 MSTORE PUSH1 0x20 ADD SWAP1 PUSH1 0x1 SWAP1 SUB SWAP1 DUP2 PUSH2 0x1105 JUMPI SWAP1 POP JUMPDEST POP SWAP2 POP JUMPDEST POP SWAP1 JUMP JUMPDEST PUSH1 0x60 PUSH1 0x1 DUP1 SLOAD PUSH2 0x645 SWAP1 PUSH2 0x3ACC JUMP JUMPDEST PUSH2 0x1142 CALLER DUP4 DUP4 PUSH2 0x1E10 JUMP JUMPDEST POP POP JUMP JUMPDEST DUP2 DUP2 PUSH2 0x1151 DUP3 PUSH2 0xCFD JUMP JUMPDEST PUSH1 0x1 PUSH1 0x1 PUSH1 0xA0 SHL SUB AND CALLER PUSH1 0x1 PUSH1 0x1 PUSH1 0xA0 SHL SUB AND EQ PUSH2 0x116E JUMPI PUSH1 0x0 DUP1 REVERT JUMPDEST PUSH2 0x1177 DUP3 PUSH2 0xCFD JUMP JUMPDEST PUSH1 0x1 PUSH1 0x1 PUSH1 0xA0 SHL SUB AND CALLER PUSH1 0x1 PUSH1 0x1 PUSH1 0xA0 SHL SUB AND EQ PUSH2 0x1194 JUMPI PUSH1 0x0 DUP1 REVERT JUMPDEST CALLER PUSH2 0x119E JUMPI PUSH1 0x0 DUP1 REVERT JUMPDEST PUSH1 0x0 PUSH2 0x11A9 DUP6 PUSH2 0xB7F JUMP JUMPDEST SWAP1 POP PUSH1 0x0 PUSH2 0x11B6 DUP6 PUSH2 0xB7F JUMP JUMPDEST SWAP1 POP DUP1 PUSH1 0xE0 ADD MLOAD PUSH1 0x2 DUP2 GT ISZERO PUSH2 0x11CE JUMPI PUSH2 0x11CE PUSH2 0x375C JUMP JUMPDEST DUP3 PUSH1 0xE0 ADD MLOAD PUSH1 0x2 DUP2 GT ISZERO PUSH2 0x11E4 JUMPI PUSH2 0x11E4 PUSH2 0x375C JUMP JUMPDEST EQ PUSH2 0x1224 JUMPI PUSH1 0x40 MLOAD PUSH3 0x461BCD PUSH1 0xE5 SHL DUP2 MSTORE PUSH1 0x20 PUSH1 0x4 DUP3 ADD MSTORE PUSH1 0x10 PUSH1 0x24 DUP3 ADD MSTORE PUSH16 0x646966666572656E7420726163657321 PUSH1 0x80 SHL PUSH1 0x44 DUP3 ADD MSTORE PUSH1 0x64 ADD PUSH2 0x730 JUMP JUMPDEST PUSH1 0x0 PUSH2 0x1238 DUP4 PUSH1 0x80 ADD MLOAD DUP4 PUSH1 0x80 ADD MLOAD PUSH2 0x1EDF JUMP JUMPDEST SWAP1 POP PUSH2 0x124B CALLER DUP9 DUP9 DUP5 DUP8 PUSH1 0xE0 ADD MLOAD PUSH2 0x2036 JUMP JUMPDEST POP POP POP POP POP POP POP JUMP JUMPDEST PUSH2 0x125E CALLER DUP4 PUSH2 0x2393 JUMP JUMPDEST PUSH2 0x12C4 JUMPI PUSH1 0x40 MLOAD PUSH3 0x461BCD PUSH1 0xE5 SHL DUP2 MSTORE PUSH1 0x20 PUSH1 0x4 DUP3 ADD MSTORE PUSH1 0x31 PUSH1 0x24 DUP3 ADD MSTORE PUSH32 0x4552433732313A207472616E736665722063616C6C6572206973206E6F74206F PUSH1 0x44 DUP3 ADD MSTORE PUSH17 0x1DDB995C881B9BDC88185C1C1C9BDD9959 PUSH1 0x7A SHL PUSH1 0x64 DUP3 ADD MSTORE PUSH1 0x84 ADD PUSH2 0x730 JUMP JUMPDEST PUSH2 0x12D0 DUP5 DUP5 DUP5 DUP5 PUSH2 0x247C JUMP JUMPDEST POP POP POP POP JUMP JUMPDEST PUSH1 0x0 DUP1 PUSH2 0x12E2 DUP5 PUSH2 0xB7F JUMP JUMPDEST SWAP1 POP PUSH1 0x0 PUSH2 0x12EF DUP5 PUSH2 0xB7F JUMP JUMPDEST SWAP1 POP PUSH1 0x0 DUP2 PUSH1 0x60 ADD MLOAD PUSH1 0x40 ADD MLOAD DUP4 PUSH1 0x60 ADD MLOAD PUSH1 0x20 ADD MLOAD PUSH2 0x130F SWAP2 SWAP1 PUSH2 0x3B9C JUMP JUMPDEST PUSH2 0x131A SWAP1 PUSH1 0x1 PUSH2 0x3BBE JUMP JUMPDEST PUSH1 0xFF AND SWAP1 POP PUSH1 0x0 DUP4 PUSH1 0x60 ADD MLOAD PUSH1 0x40 ADD MLOAD DUP4 PUSH1 0x60 ADD MLOAD PUSH1 0x20 ADD MLOAD PUSH2 0x133D SWAP2 SWAP1 PUSH2 0x3B9C JUMP JUMPDEST PUSH2 0x1348 SWAP1 PUSH1 0x1 PUSH2 0x3BBE JUMP JUMPDEST PUSH1 0x40 DUP1 MLOAD PUSH1 0x60 DUP1 DUP3 ADD DUP4 MSTORE DUP8 DUP2 ADD DUP1 MLOAD MLOAD PUSH1 0xFF SWAP1 DUP2 AND DUP5 MSTORE PUSH1 0x20 DUP1 DUP6 ADD DUP10 SWAP1 MSTORE SWAP2 MLOAD DUP4 ADD MLOAD DUP2 AND DUP5 DUP7 ADD MSTORE DUP5 MLOAD DUP1 DUP5 ADD DUP7 MSTORE DUP10 DUP5 ADD DUP1 MLOAD MLOAD DUP4 AND DUP3 MSTORE SWAP7 DUP3 AND SWAP3 DUP2 ADD DUP4 SWAP1 MSTORE SWAP6 MLOAD SWAP1 SWAP3 ADD MLOAD SWAP1 SWAP2 AND SWAP3 DUP5 ADD SWAP3 SWAP1 SWAP3 MSTORE SWAP1 SWAP3 POP SWAP1 PUSH1 0x0 PUSH2 0x13AD DUP4 DUP4 PUSH2 0x1B18 JUMP JUMPDEST SWAP1 POP DUP1 ISZERO PUSH2 0xB3D JUMPI PUSH2 0xB3D DUP11 DUP8 PUSH1 0xA0 ADD MLOAD PUSH1 0xA PUSH2 0xB38 SWAP2 SWAP1 PUSH2 0x3B41 JUMP JUMPDEST PUSH1 0x60 PUSH2 0x13D5 DUP3 PUSH2 0x18E6 JUMP JUMPDEST PUSH2 0x143B JUMPI PUSH1 0x40 MLOAD PUSH3 0x461BCD PUSH1 0xE5 SHL DUP2 MSTORE PUSH1 0x20 PUSH1 0x4 DUP3 ADD MSTORE PUSH1 0x31 PUSH1 0x24 DUP3 ADD MSTORE PUSH32 0x45524337323155524953746F726167653A2055524920717565727920666F7220 PUSH1 0x44 DUP3 ADD MSTORE PUSH17 0x3737B732BC34B9BA32B73A103A37B5B2B7 PUSH1 0x79 SHL PUSH1 0x64 DUP3 ADD MSTORE PUSH1 0x84 ADD PUSH2 0x730 JUMP JUMPDEST PUSH1 0x0 DUP3 DUP2 MSTORE PUSH1 0x6 PUSH1 0x20 MSTORE PUSH1 0x40 DUP2 KECCAK256 DUP1 SLOAD PUSH2 0x1454 SWAP1 PUSH2 0x3ACC JUMP JUMPDEST DUP1 PUSH1 0x1F ADD PUSH1 0x20 DUP1 SWAP2 DIV MUL PUSH1 0x20 ADD PUSH1 0x40 MLOAD SWAP1 DUP2 ADD PUSH1 0x40 MSTORE DUP1 SWAP3 SWAP2 SWAP1 DUP2 DUP2 MSTORE PUSH1 0x20 ADD DUP3 DUP1 SLOAD PUSH2 0x1480 SWAP1 PUSH2 0x3ACC JUMP JUMPDEST DUP1 ISZERO PUSH2 0x14CD JUMPI DUP1 PUSH1 0x1F LT PUSH2 0x14A2 JUMPI PUSH2 0x100 DUP1 DUP4 SLOAD DIV MUL DUP4 MSTORE SWAP2 PUSH1 0x20 ADD SWAP2 PUSH2 0x14CD JUMP JUMPDEST DUP3 ADD SWAP2 SWAP1 PUSH1 0x0 MSTORE PUSH1 0x20 PUSH1 0x0 KECCAK256 SWAP1 JUMPDEST DUP2 SLOAD DUP2 MSTORE SWAP1 PUSH1 0x1 ADD SWAP1 PUSH1 0x20 ADD DUP1 DUP4 GT PUSH2 0x14B0 JUMPI DUP3 SWAP1 SUB PUSH1 0x1F AND DUP3 ADD SWAP2 JUMPDEST POP POP POP POP POP SWAP1 POP PUSH1 0x0 PUSH2 0x14EB PUSH1 0x40 DUP1 MLOAD PUSH1 0x20 DUP2 ADD SWAP1 SWAP2 MSTORE PUSH1 0x0 DUP2 MSTORE SWAP1 JUMP JUMPDEST SWAP1 POP DUP1 MLOAD PUSH1 0x0 EQ ISZERO PUSH2 0x14FE JUMPI POP SWAP3 SWAP2 POP POP JUMP JUMPDEST DUP2 MLOAD ISZERO PUSH2 0x1530 JUMPI DUP1 DUP3 PUSH1 0x40 MLOAD PUSH1 0x20 ADD PUSH2 0x1518 SWAP3 SWAP2 SWAP1 PUSH2 0x3BE3 JUMP JUMPDEST PUSH1 0x40 MLOAD PUSH1 0x20 DUP2 DUP4 SUB SUB DUP2 MSTORE SWAP1 PUSH1 0x40 MSTORE SWAP3 POP POP POP SWAP2 SWAP1 POP JUMP JUMPDEST PUSH2 0x1539 DUP5 PUSH2 0x24AF JUMP JUMPDEST SWAP5 SWAP4 POP POP POP POP JUMP JUMPDEST PUSH2 0x154A DUP3 PUSH2 0xCFD JUMP JUMPDEST PUSH1 0x1 PUSH1 0x1 PUSH1 0xA0 SHL SUB AND ORIGIN PUSH1 0x1 PUSH1 0x1 PUSH1 0xA0 SHL SUB AND EQ PUSH2 0x1567 JUMPI PUSH1 0x0 DUP1 REVERT JUMPDEST PUSH1 0x0 DUP3 DUP2 MSTORE PUSH1 0xB PUSH1 0x20 MSTORE PUSH1 0x40 SWAP1 KECCAK256 SLOAD PUSH1 0xA DUP1 SLOAD DUP4 SWAP3 SWAP1 DUP2 LT PUSH2 0x158B JUMPI PUSH2 0x158B PUSH2 0x3B01 JUMP JUMPDEST SWAP1 PUSH1 0x0 MSTORE PUSH1 0x20 PUSH1 0x0 KECCAK256 SWAP1 PUSH1 0x6 MUL ADD PUSH1 0x5 ADD PUSH1 0x3 PUSH2 0x100 EXP DUP2 SLOAD DUP2 PUSH1 0xFF MUL NOT AND SWAP1 DUP4 ISZERO ISZERO MUL OR SWAP1 SSTORE POP PUSH32 0x6A0921DEABD763B8789C5ACB4605C886A6F98EA35C16C99D0954BEA1B8FF83B6 DUP3 DUP3 PUSH1 0x40 MLOAD PUSH2 0x15EF SWAP3 SWAP2 SWAP1 SWAP2 DUP3 MSTORE ISZERO ISZERO PUSH1 0x20 DUP3 ADD MSTORE PUSH1 0x40 ADD SWAP1 JUMP JUMPDEST PUSH1 0x40 MLOAD DUP1 SWAP2 SUB SWAP1 LOG1 POP POP JUMP JUMPDEST PUSH1 0x60 PUSH1 0x0 PUSH2 0x1608 PUSH1 0xA SLOAD SWAP1 JUMP JUMPDEST SWAP1 POP PUSH1 0x60 PUSH2 0x1614 PUSH2 0x3455 JUMP JUMPDEST PUSH1 0x5 PUSH2 0x161F CALLER PUSH2 0xE5C JUMP JUMPDEST PUSH2 0x1629 SWAP1 DUP6 PUSH2 0x3B6A JUMP JUMPDEST GT PUSH2 0x16EB JUMPI PUSH1 0x0 DUP1 JUMPDEST DUP5 DUP2 LT ISZERO PUSH2 0x16E4 JUMPI PUSH2 0x1643 DUP6 PUSH2 0x2587 JUMP JUMPDEST DUP1 MLOAD SWAP1 SWAP4 POP CALLER SWAP1 PUSH2 0x1653 SWAP1 PUSH2 0xCFD JUMP JUMPDEST PUSH1 0x1 PUSH1 0x1 PUSH1 0xA0 SHL SUB AND EQ PUSH2 0x16D2 JUMPI PUSH1 0x40 MLOAD DUP1 PUSH1 0x80 ADD PUSH1 0x40 MSTORE DUP1 DUP5 PUSH1 0x0 ADD MLOAD DUP2 MSTORE PUSH1 0x20 ADD DUP5 PUSH1 0xA0 ADD MLOAD PUSH1 0xFF AND DUP2 MSTORE PUSH1 0x20 ADD DUP5 PUSH1 0xE0 ADD MLOAD PUSH1 0x2 DUP2 GT ISZERO PUSH2 0x1699 JUMPI PUSH2 0x1699 PUSH2 0x375C JUMP JUMPDEST DUP2 MSTORE PUSH1 0x20 ADD DUP5 PUSH1 0x60 ADD MLOAD DUP2 MSTORE POP DUP5 DUP4 DUP2 MLOAD DUP2 LT PUSH2 0x16B8 JUMPI PUSH2 0x16B8 PUSH2 0x3B01 JUMP JUMPDEST PUSH1 0x20 MUL PUSH1 0x20 ADD ADD DUP2 SWAP1 MSTORE POP DUP2 DUP1 PUSH2 0x16CE SWAP1 PUSH2 0x3B81 JUMP JUMPDEST SWAP3 POP POP JUMPDEST DUP1 PUSH2 0x16DC DUP2 PUSH2 0x3B81 JUMP JUMPDEST SWAP2 POP POP PUSH2 0x1632 JUMP JUMPDEST POP POP PUSH2 0x1813 JUMP JUMPDEST PUSH1 0x60 PUSH1 0x0 DUP1 DUP1 DUP1 JUMPDEST DUP8 DUP6 MLOAD LT DUP1 ISZERO PUSH2 0x1704 JUMPI POP PUSH1 0x5 DUP8 MLOAD LT JUMPDEST DUP1 ISZERO PUSH2 0x1710 JUMPI POP PUSH1 0xA DUP2 LT JUMPDEST ISZERO PUSH2 0x180D JUMPI DUP1 PUSH2 0x171F DUP2 PUSH2 0x3B81 JUMP JUMPDEST SWAP2 POP POP DUP8 PUSH2 0x172B PUSH2 0x26E5 JUMP JUMPDEST PUSH2 0x1735 SWAP2 SWAP1 PUSH2 0x3C12 JUMP JUMPDEST SWAP4 POP PUSH2 0x1740 DUP5 PUSH2 0x2587 JUMP JUMPDEST SWAP6 POP PUSH2 0x174C DUP6 DUP6 PUSH2 0x2719 JUMP JUMPDEST PUSH2 0x1808 JUMPI DUP6 MLOAD CALLER SWAP1 PUSH2 0x175D SWAP1 PUSH2 0xCFD JUMP JUMPDEST PUSH1 0x1 PUSH1 0x1 PUSH1 0xA0 SHL SUB AND EQ PUSH2 0x17DC JUMPI PUSH1 0x40 MLOAD DUP1 PUSH1 0x80 ADD PUSH1 0x40 MSTORE DUP1 DUP8 PUSH1 0x0 ADD MLOAD DUP2 MSTORE PUSH1 0x20 ADD DUP8 PUSH1 0xA0 ADD MLOAD PUSH1 0xFF AND DUP2 MSTORE PUSH1 0x20 ADD DUP8 PUSH1 0xE0 ADD MLOAD PUSH1 0x2 DUP2 GT ISZERO PUSH2 0x17A3 JUMPI PUSH2 0x17A3 PUSH2 0x375C JUMP JUMPDEST DUP2 MSTORE PUSH1 0x20 ADD DUP8 PUSH1 0x60 ADD MLOAD DUP2 MSTORE POP DUP8 DUP5 DUP2 MLOAD DUP2 LT PUSH2 0x17C2 JUMPI PUSH2 0x17C2 PUSH2 0x3B01 JUMP JUMPDEST PUSH1 0x20 MUL PUSH1 0x20 ADD ADD DUP2 SWAP1 MSTORE POP DUP3 DUP1 PUSH2 0x17D8 SWAP1 PUSH2 0x3B81 JUMP JUMPDEST SWAP4 POP POP JUMPDEST DUP4 DUP6 DUP4 DUP2 MLOAD DUP2 LT PUSH2 0x17EF JUMPI PUSH2 0x17EF PUSH2 0x3B01 JUMP JUMPDEST PUSH1 0x20 SWAP1 DUP2 MUL SWAP2 SWAP1 SWAP2 ADD ADD MSTORE DUP2 PUSH2 0x1804 DUP2 PUSH2 0x3B81 JUMP JUMPDEST SWAP3 POP POP JUMPDEST PUSH2 0x16F3 JUMP JUMPDEST POP POP POP POP POP JUMPDEST POP SWAP3 SWAP2 POP POP JUMP JUMPDEST PUSH1 0x40 DUP1 MLOAD PUSH1 0x80 DUP2 ADD DUP3 MSTORE PUSH1 0x11 SLOAD PUSH1 0xFF DUP1 DUP3 AND DUP4 MSTORE PUSH2 0x100 DUP3 DIV DUP2 AND PUSH1 0x20 DUP5 ADD MSTORE PUSH3 0x10000 DUP3 DIV DUP2 AND SWAP4 DUP4 ADD SWAP4 SWAP1 SWAP4 MSTORE PUSH4 0x1000000 SWAP1 DIV SWAP1 SWAP2 AND PUSH1 0x60 DUP3 ADD MSTORE PUSH2 0x1869 SWAP1 CALLER SWAP1 PUSH1 0x0 SWAP1 DUP2 SWAP1 DUP6 PUSH2 0x2036 JUMP JUMPDEST POP JUMP JUMPDEST PUSH2 0x1875 DUP2 PUSH2 0xCFD JUMP JUMPDEST PUSH1 0x1 PUSH1 0x1 PUSH1 0xA0 SHL SUB AND CALLER PUSH1 0x1 PUSH1 0x1 PUSH1 0xA0 SHL SUB AND EQ PUSH2 0x1892 JUMPI PUSH1 0x0 DUP1 REVERT JUMPDEST PUSH2 0x189B DUP2 PUSH2 0xB7F JUMP JUMPDEST PUSH2 0x100 ADD MLOAD ISZERO PUSH2 0x18DD JUMPI PUSH1 0x40 MLOAD DUP2 DUP2 MSTORE PUSH32 0xDDE7D0A3C1908E17D48670081DE6D0F395F52F792DCD6F38337BCE4917AAA61E SWAP1 PUSH1 0x20 ADD PUSH1 0x40 MLOAD DUP1 SWAP2 SUB SWAP1 LOG1 PUSH1 0x0 DUP1 REVERT JUMPDEST PUSH2 0x1869 DUP2 PUSH2 0x276D JUMP JUMPDEST PUSH1 0x0 SWAP1 DUP2 MSTORE PUSH1 0x2 PUSH1 0x20 MSTORE PUSH1 0x40 SWAP1 KECCAK256 SLOAD PUSH1 0x1 PUSH1 0x1 PUSH1 0xA0 SHL SUB AND ISZERO ISZERO SWAP1 JUMP JUMPDEST PUSH1 0x0 DUP2 DUP2 MSTORE PUSH1 0x4 PUSH1 0x20 MSTORE PUSH1 0x40 SWAP1 KECCAK256 DUP1 SLOAD PUSH1 0x1 PUSH1 0x1 PUSH1 0xA0 SHL SUB NOT AND PUSH1 0x1 PUSH1 0x1 PUSH1 0xA0 SHL SUB DUP5 AND SWAP1 DUP2 OR SWAP1 SWAP2 SSTORE DUP2 SWAP1 PUSH2 0x1938 DUP3 PUSH2 0xCFD JUMP JUMPDEST PUSH1 0x1 PUSH1 0x1 PUSH1 0xA0 SHL SUB AND PUSH32 0x8C5BE1E5EBEC7D5BD14F71427D1E84F3DD0314C0F7B2291E5B200AC8C7C3B925 PUSH1 0x40 MLOAD PUSH1 0x40 MLOAD DUP1 SWAP2 SUB SWAP1 LOG4 POP POP JUMP JUMPDEST DUP3 PUSH1 0x1 PUSH1 0x1 PUSH1 0xA0 SHL SUB AND PUSH2 0x1984 DUP3 PUSH2 0xCFD JUMP JUMPDEST PUSH1 0x1 PUSH1 0x1 PUSH1 0xA0 SHL SUB AND EQ PUSH2 0x19E8 JUMPI PUSH1 0x40 MLOAD PUSH3 0x461BCD PUSH1 0xE5 SHL DUP2 MSTORE PUSH1 0x20 PUSH1 0x4 DUP3 ADD MSTORE PUSH1 0x25 PUSH1 0x24 DUP3 ADD MSTORE PUSH32 0x4552433732313A207472616E736665722066726F6D20696E636F727265637420 PUSH1 0x44 DUP3 ADD MSTORE PUSH5 0x37BBB732B9 PUSH1 0xD9 SHL PUSH1 0x64 DUP3 ADD MSTORE PUSH1 0x84 ADD PUSH2 0x730 JUMP JUMPDEST PUSH1 0x1 PUSH1 0x1 PUSH1 0xA0 SHL SUB DUP3 AND PUSH2 0x1A4A JUMPI PUSH1 0x40 MLOAD PUSH3 0x461BCD PUSH1 0xE5 SHL DUP2 MSTORE PUSH1 0x20 PUSH1 0x4 DUP3 ADD MSTORE PUSH1 0x24 DUP1 DUP3 ADD MSTORE PUSH32 0x4552433732313A207472616E7366657220746F20746865207A65726F20616464 PUSH1 0x44 DUP3 ADD MSTORE PUSH4 0x72657373 PUSH1 0xE0 SHL PUSH1 0x64 DUP3 ADD MSTORE PUSH1 0x84 ADD PUSH2 0x730 JUMP JUMPDEST PUSH2 0x1A55 DUP4 DUP4 DUP4 PUSH2 0x27AD JUMP JUMPDEST PUSH2 0x1A60 PUSH1 0x0 DUP3 PUSH2 0x1903 JUMP JUMPDEST PUSH1 0x1 PUSH1 0x1 PUSH1 0xA0 SHL SUB DUP4 AND PUSH1 0x0 SWAP1 DUP2 MSTORE PUSH1 0x3 PUSH1 0x20 MSTORE PUSH1 0x40 DUP2 KECCAK256 DUP1 SLOAD PUSH1 0x1 SWAP3 SWAP1 PUSH2 0x1A89 SWAP1 DUP5 SWAP1 PUSH2 0x3B6A JUMP JUMPDEST SWAP1 SWAP2 SSTORE POP POP PUSH1 0x1 PUSH1 0x1 PUSH1 0xA0 SHL SUB DUP3 AND PUSH1 0x0 SWAP1 DUP2 MSTORE PUSH1 0x3 PUSH1 0x20 MSTORE PUSH1 0x40 DUP2 KECCAK256 DUP1 SLOAD PUSH1 0x1 SWAP3 SWAP1 PUSH2 0x1AB7 SWAP1 DUP5 SWAP1 PUSH2 0x358E JUMP JUMPDEST SWAP1 SWAP2 SSTORE POP POP PUSH1 0x0 DUP2 DUP2 MSTORE PUSH1 0x2 PUSH1 0x20 MSTORE PUSH1 0x40 DUP1 DUP3 KECCAK256 DUP1 SLOAD PUSH1 0x1 PUSH1 0x1 PUSH1 0xA0 SHL SUB NOT AND PUSH1 0x1 PUSH1 0x1 PUSH1 0xA0 SHL SUB DUP7 DUP2 AND SWAP2 DUP3 OR SWAP1 SWAP3 SSTORE SWAP2 MLOAD DUP5 SWAP4 SWAP2 DUP8 AND SWAP2 PUSH32 0xDDF252AD1BE2C89B69C2B068FC378DAA952BA7F163C4A11628F55A4DF523B3EF SWAP2 LOG4 POP POP POP JUMP JUMPDEST PUSH1 0x20 DUP3 ADD MLOAD DUP2 MLOAD PUSH1 0x0 SWAP2 DUP3 SWAP2 PUSH1 0x1 SWAP1 PUSH2 0x1B32 SWAP1 DUP4 SWAP1 PUSH2 0x358E JUMP JUMPDEST PUSH2 0x1B3C SWAP2 SWAP1 PUSH2 0x3B6A JUMP JUMPDEST PUSH2 0x1B46 SWAP2 SWAP1 PUSH2 0x3B2D JUMP JUMPDEST PUSH1 0x20 DUP5 ADD MLOAD DUP6 MLOAD SWAP2 SWAP3 POP PUSH1 0x0 SWAP2 PUSH1 0x1 SWAP1 PUSH2 0x1B61 SWAP1 DUP4 SWAP1 PUSH2 0x358E JUMP JUMPDEST PUSH2 0x1B6B SWAP2 SWAP1 PUSH2 0x3B6A JUMP JUMPDEST PUSH2 0x1B75 SWAP2 SWAP1 PUSH2 0x3B2D JUMP JUMPDEST SWAP1 POP PUSH1 0x0 DUP5 PUSH1 0x40 ADD MLOAD DUP7 PUSH1 0x40 ADD MLOAD GT ISZERO PUSH2 0x1B91 JUMPI POP PUSH1 0x1 PUSH2 0x1BD6 JUMP JUMPDEST DUP5 PUSH1 0x40 ADD MLOAD DUP7 PUSH1 0x40 ADD MLOAD LT ISZERO PUSH2 0x1BA9 JUMPI POP PUSH1 0x0 PUSH2 0x1BD6 JUMP JUMPDEST PUSH1 0x0 PUSH1 0x2 PUSH2 0x1BB5 PUSH2 0x26E5 JUMP JUMPDEST PUSH2 0x1BBF SWAP2 SWAP1 PUSH2 0x3C12 JUMP JUMPDEST SWAP1 POP DUP1 PUSH2 0x1BCF JUMPI PUSH1 0x1 SWAP2 POP PUSH2 0x1BD4 JUMP JUMPDEST PUSH1 0x0 SWAP2 POP JUMPDEST POP JUMPDEST DUP2 DUP4 GT ISZERO PUSH2 0x1BEA JUMPI PUSH1 0x0 SWAP4 POP POP POP POP PUSH2 0x630 JUMP JUMPDEST DUP2 DUP4 LT ISZERO PUSH2 0x1BFE JUMPI PUSH1 0x1 SWAP4 POP POP POP POP PUSH2 0x630 JUMP JUMPDEST SWAP3 POP PUSH2 0x630 SWAP2 POP POP JUMP JUMPDEST DUP2 PUSH2 0x1C12 DUP2 PUSH2 0x18E6 JUMP JUMPDEST PUSH2 0x1C1B JUMPI PUSH1 0x0 DUP1 REVERT JUMPDEST PUSH1 0x0 DUP4 DUP2 MSTORE PUSH1 0xB PUSH1 0x20 MSTORE PUSH1 0x40 DUP2 KECCAK256 SLOAD PUSH1 0xA DUP1 SLOAD SWAP2 SWAP3 SWAP2 DUP4 SWAP1 DUP2 LT PUSH2 0x1C41 JUMPI PUSH2 0x1C41 PUSH2 0x3B01 JUMP JUMPDEST SWAP1 PUSH1 0x0 MSTORE PUSH1 0x20 PUSH1 0x0 KECCAK256 SWAP1 PUSH1 0x6 MUL ADD SWAP1 POP DUP4 PUSH1 0xFF AND DUP2 PUSH1 0x5 ADD PUSH1 0x1 SWAP1 SLOAD SWAP1 PUSH2 0x100 EXP SWAP1 DIV PUSH1 0xFF AND PUSH1 0xFF AND GT ISZERO PUSH2 0x1CAD JUMPI DUP4 DUP2 PUSH1 0x5 ADD PUSH1 0x1 DUP3 DUP3 DUP3 SWAP1 SLOAD SWAP1 PUSH2 0x100 EXP SWAP1 DIV PUSH1 0xFF AND PUSH2 0x1C90 SWAP2 SWAP1 PUSH2 0x3C26 JUMP JUMPDEST SWAP3 POP PUSH2 0x100 EXP DUP2 SLOAD DUP2 PUSH1 0xFF MUL NOT AND SWAP1 DUP4 PUSH1 0xFF AND MUL OR SWAP1 SSTORE POP PUSH2 0x1E09 JUMP JUMPDEST PUSH1 0x5 DUP2 ADD SLOAD PUSH1 0xA PUSH1 0xFF SWAP1 SWAP2 AND LT ISZERO PUSH2 0x1E09 JUMPI PUSH1 0x5 DUP2 ADD DUP1 SLOAD PUSH1 0x1 SWAP2 SWAP1 PUSH1 0x0 SWAP1 PUSH2 0x1CDA SWAP1 DUP5 SWAP1 PUSH1 0xFF AND PUSH2 0x3BBE JUMP JUMPDEST DUP3 SLOAD PUSH1 0xFF SWAP2 DUP3 AND PUSH2 0x100 SWAP4 DUP5 EXP SWAP1 DUP2 MUL SWAP1 DUP4 MUL NOT SWAP1 SWAP2 AND OR SWAP1 SWAP3 SSTORE PUSH1 0x5 DUP5 ADD SLOAD PUSH2 0x1D07 SWAP4 POP DIV AND DUP6 PUSH2 0x3C26 JUMP JUMPDEST PUSH1 0x5 DUP3 ADD SLOAD PUSH2 0x1D1A SWAP1 PUSH1 0xFF AND PUSH1 0xA PUSH2 0x3B41 JUMP JUMPDEST PUSH2 0x1D24 SWAP2 SWAP1 PUSH2 0x3C26 JUMP JUMPDEST PUSH1 0x5 DUP3 ADD DUP1 SLOAD PUSH1 0xFF SWAP3 DUP4 AND PUSH2 0x100 SWAP1 DUP2 MUL PUSH2 0xFF00 NOT DUP4 AND DUP2 OR SWAP1 SWAP4 SSTORE PUSH1 0x40 DUP1 MLOAD PUSH1 0x80 DUP1 DUP3 ADD DUP4 MSTORE PUSH1 0x3 DUP9 ADD SLOAD DUP1 DUP9 AND DUP4 MSTORE DUP5 DUP2 DIV DUP9 AND PUSH1 0x20 DUP1 DUP6 ADD SWAP2 SWAP1 SWAP2 MSTORE PUSH3 0x10000 DUP1 DUP4 DIV DUP11 AND DUP6 DUP8 ADD MSTORE PUSH4 0x1000000 SWAP3 DUP4 SWAP1 DIV DUP11 AND PUSH1 0x60 DUP1 DUP8 ADD SWAP2 SWAP1 SWAP2 MSTORE DUP7 MLOAD SWAP5 DUP6 ADD DUP8 MSTORE PUSH1 0x4 DUP13 ADD SLOAD DUP1 DUP13 AND DUP7 MSTORE SWAP8 DUP9 DIV DUP12 AND SWAP3 DUP6 ADD SWAP3 SWAP1 SWAP3 MSTORE DUP7 DIV DUP10 AND SWAP5 DUP4 ADD SWAP5 SWAP1 SWAP5 MSTORE SWAP1 SWAP4 DIV DUP7 AND SWAP2 DUP4 ADD SWAP2 SWAP1 SWAP2 MSTORE SWAP4 PUSH1 0x0 SWAP4 PUSH2 0x1DCB SWAP4 SWAP1 DUP3 AND SWAP2 AND OR PUSH2 0x281D JUMP JUMPDEST SWAP1 POP PUSH32 0xFB64211FFDBE0310D0426D37AFDA9651F66158BB717BDF0EDCB572595AC27F41 DUP3 DUP3 PUSH1 0x40 MLOAD PUSH2 0x1DFE SWAP3 SWAP2 SWAP1 PUSH2 0x3C49 JUMP JUMPDEST PUSH1 0x40 MLOAD DUP1 SWAP2 SUB SWAP1 LOG1 POP POP JUMPDEST POP POP POP POP POP JUMP JUMPDEST DUP2 PUSH1 0x1 PUSH1 0x1 PUSH1 0xA0 SHL SUB AND DUP4 PUSH1 0x1 PUSH1 0x1 PUSH1 0xA0 SHL SUB AND EQ ISZERO PUSH2 0x1E72 JUMPI PUSH1 0x40 MLOAD PUSH3 0x461BCD PUSH1 0xE5 SHL DUP2 MSTORE PUSH1 0x20 PUSH1 0x4 DUP3 ADD MSTORE PUSH1 0x19 PUSH1 0x24 DUP3 ADD MSTORE PUSH32 0x4552433732313A20617070726F766520746F2063616C6C657200000000000000 PUSH1 0x44 DUP3 ADD MSTORE PUSH1 0x64 ADD PUSH2 0x730 JUMP JUMPDEST PUSH1 0x1 PUSH1 0x1 PUSH1 0xA0 SHL SUB DUP4 DUP2 AND PUSH1 0x0 DUP2 DUP2 MSTORE PUSH1 0x5 PUSH1 0x20 SWAP1 DUP2 MSTORE PUSH1 0x40 DUP1 DUP4 KECCAK256 SWAP5 DUP8 AND DUP1 DUP5 MSTORE SWAP5 DUP3 MSTORE SWAP2 DUP3 SWAP1 KECCAK256 DUP1 SLOAD PUSH1 0xFF NOT AND DUP7 ISZERO ISZERO SWAP1 DUP2 OR SWAP1 SWAP2 SSTORE SWAP2 MLOAD SWAP2 DUP3 MSTORE PUSH32 0x17307EAB39AB6107E8899845AD3D59BD9653F200F220920489CA2B5937696C31 SWAP2 ADD PUSH1 0x40 MLOAD DUP1 SWAP2 SUB SWAP1 LOG3 POP POP POP JUMP JUMPDEST PUSH2 0x1EE7 PUSH2 0x342E JUMP JUMPDEST PUSH1 0x3 PUSH2 0x1EF1 PUSH2 0x342E JUMP JUMPDEST PUSH1 0x0 PUSH1 0xFF DUP4 AND ISZERO PUSH2 0x1F2C JUMPI DUP6 MLOAD DUP6 MLOAD PUSH2 0x1F0A SWAP2 SWAP1 PUSH2 0x28A2 JUMP JUMPDEST PUSH1 0xFF SWAP1 SWAP2 AND DUP4 MSTORE SWAP1 POP DUP1 ISZERO PUSH2 0x1F27 JUMPI DUP3 PUSH2 0x1F23 DUP2 PUSH2 0x3C65 JUMP JUMPDEST SWAP4 POP POP JUMPDEST PUSH2 0x1F3A JUMP JUMPDEST PUSH2 0x1F34 PUSH2 0x28E7 JUMP JUMPDEST PUSH1 0xFF AND DUP3 MSTORE JUMPDEST PUSH1 0xFF DUP4 AND ISZERO PUSH2 0x1F7A JUMPI PUSH2 0x1F55 DUP7 PUSH1 0x20 ADD MLOAD DUP7 PUSH1 0x20 ADD MLOAD PUSH2 0x28A2 JUMP JUMPDEST PUSH1 0xFF SWAP1 SWAP2 AND PUSH1 0x20 DUP5 ADD MSTORE SWAP1 POP DUP1 ISZERO PUSH2 0x1F75 JUMPI DUP3 PUSH2 0x1F71 DUP2 PUSH2 0x3C65 JUMP JUMPDEST SWAP4 POP POP JUMPDEST PUSH2 0x1F8B JUMP JUMPDEST PUSH2 0x1F82 PUSH2 0x28E7 JUMP JUMPDEST PUSH1 0xFF AND PUSH1 0x20 DUP4 ADD MSTORE JUMPDEST PUSH1 0xFF DUP4 AND ISZERO PUSH2 0x1FCB JUMPI PUSH2 0x1FA6 DUP7 PUSH1 0x40 ADD MLOAD DUP7 PUSH1 0x40 ADD MLOAD PUSH2 0x28A2 JUMP JUMPDEST PUSH1 0xFF SWAP1 SWAP2 AND PUSH1 0x40 DUP5 ADD MSTORE SWAP1 POP DUP1 ISZERO PUSH2 0x1FC6 JUMPI DUP3 PUSH2 0x1FC2 DUP2 PUSH2 0x3C65 JUMP JUMPDEST SWAP4 POP POP JUMPDEST PUSH2 0x1FDC JUMP JUMPDEST PUSH2 0x1FD3 PUSH2 0x28E7 JUMP JUMPDEST PUSH1 0xFF AND PUSH1 0x40 DUP4 ADD MSTORE JUMPDEST PUSH1 0xFF DUP4 AND ISZERO PUSH2 0x201C JUMPI PUSH2 0x1FF7 DUP7 PUSH1 0x60 ADD MLOAD DUP7 PUSH1 0x60 ADD MLOAD PUSH2 0x28A2 JUMP JUMPDEST PUSH1 0xFF SWAP1 SWAP2 AND PUSH1 0x60 DUP5 ADD MSTORE SWAP1 POP DUP1 ISZERO PUSH2 0x2017 JUMPI DUP3 PUSH2 0x2013 DUP2 PUSH2 0x3C65 JUMP JUMPDEST SWAP4 POP POP JUMPDEST PUSH2 0x202D JUMP JUMPDEST PUSH2 0x2024 PUSH2 0x28E7 JUMP JUMPDEST PUSH1 0xFF AND PUSH1 0x60 DUP4 ADD MSTORE JUMPDEST POP SWAP5 SWAP4 POP POP POP POP JUMP JUMPDEST PUSH1 0x0 PUSH2 0x2041 DUP7 PUSH2 0x964 JUMP JUMPDEST PUSH1 0x10 SLOAD SWAP1 SWAP2 POP PUSH2 0x2051 DUP3 CALLVALUE PUSH2 0x358E JUMP JUMPDEST LT ISZERO PUSH2 0x205C JUMPI PUSH1 0x0 DUP1 REVERT JUMPDEST JUMPDEST PUSH1 0xE SLOAD PUSH1 0xFF AND ISZERO PUSH2 0x206D JUMPI PUSH2 0x205D JUMP JUMPDEST PUSH1 0xE DUP1 SLOAD PUSH1 0xFF NOT AND PUSH1 0x1 SWAP1 DUP2 OR SWAP1 SWAP2 SSTORE PUSH1 0x0 SWAP1 PUSH2 0x2089 PUSH1 0xA SLOAD SWAP1 JUMP JUMPDEST PUSH2 0x2093 SWAP2 SWAP1 PUSH2 0x3B6A JUMP JUMPDEST PUSH1 0xF SLOAD SWAP1 SWAP2 POP PUSH1 0x0 PUSH2 0x20A6 DUP7 PUSH1 0x1 PUSH2 0x281D JUMP JUMPDEST SWAP1 POP PUSH1 0x0 PUSH1 0x40 MLOAD DUP1 PUSH2 0x120 ADD PUSH1 0x40 MSTORE DUP1 DUP5 DUP2 MSTORE PUSH1 0x20 ADD DUP11 DUP2 MSTORE PUSH1 0x20 ADD DUP10 DUP2 MSTORE PUSH1 0x20 ADD DUP4 DUP2 MSTORE PUSH1 0x20 ADD DUP9 DUP2 MSTORE PUSH1 0x20 ADD PUSH1 0x1 PUSH1 0xFF AND DUP2 MSTORE PUSH1 0x20 ADD PUSH1 0xA PUSH1 0xFF AND DUP2 MSTORE PUSH1 0x20 ADD DUP8 PUSH1 0x2 DUP2 GT ISZERO PUSH2 0x20FA JUMPI PUSH2 0x20FA PUSH2 0x375C JUMP JUMPDEST DUP2 MSTORE PUSH1 0x0 PUSH1 0x20 SWAP1 SWAP2 ADD MSTORE SWAP1 POP PUSH2 0x210F DUP2 PUSH2 0x2902 JUMP JUMPDEST PUSH2 0x2118 JUMPI PUSH1 0x0 DUP1 REVERT JUMPDEST PUSH1 0xA DUP1 SLOAD PUSH1 0x1 DUP2 ADD DUP3 SSTORE PUSH1 0x0 SWAP2 SWAP1 SWAP2 MSTORE DUP2 MLOAD PUSH32 0xC65A7BB8D6351C1CF70C95A316CC6A92839C986682D98BC35F958F4883F9D2A8 PUSH1 0x6 SWAP1 SWAP3 MUL SWAP2 DUP3 ADD SWAP1 DUP2 SSTORE PUSH1 0x20 DUP1 DUP5 ADD MLOAD PUSH32 0xC65A7BB8D6351C1CF70C95A316CC6A92839C986682D98BC35F958F4883F9D2A9 DUP5 ADD SSTORE PUSH1 0x40 DUP1 DUP6 ADD MLOAD PUSH32 0xC65A7BB8D6351C1CF70C95A316CC6A92839C986682D98BC35F958F4883F9D2AA DUP6 ADD SSTORE PUSH1 0x60 DUP1 DUP7 ADD MLOAD DUP1 MLOAD PUSH32 0xC65A7BB8D6351C1CF70C95A316CC6A92839C986682D98BC35F958F4883F9D2AB DUP8 ADD DUP1 SLOAD DUP4 DUP8 ADD MLOAD DUP5 DUP8 ADD MLOAD SWAP5 DUP7 ADD MLOAD PUSH1 0xFF SWAP5 DUP6 AND PUSH2 0xFFFF NOT SWAP4 DUP5 AND OR PUSH2 0x100 SWAP3 DUP7 AND DUP4 MUL OR PUSH4 0xFFFF0000 NOT SWAP1 DUP2 AND PUSH3 0x10000 SWAP8 DUP8 AND DUP9 MUL PUSH4 0xFF000000 NOT SWAP1 DUP2 AND SWAP2 SWAP1 SWAP2 OR PUSH4 0x1000000 SWAP4 DUP9 AND DUP5 MUL OR SWAP1 SWAP6 SSTORE PUSH1 0x80 DUP14 ADD MLOAD DUP1 MLOAD PUSH32 0xC65A7BB8D6351C1CF70C95A316CC6A92839C986682D98BC35F958F4883F9D2AC DUP15 ADD DUP1 SLOAD SWAP13 DUP4 ADD MLOAD SWAP12 DUP4 ADD MLOAD SWAP3 SWAP1 SWAP11 ADD MLOAD SWAP1 DUP9 AND SWAP12 DUP7 AND SWAP12 SWAP1 SWAP12 OR SWAP10 DUP8 AND DUP5 MUL SWAP10 SWAP1 SWAP10 OR AND SWAP8 DUP6 AND DUP7 MUL SWAP1 SWAP4 AND SWAP7 SWAP1 SWAP7 OR SWAP7 DUP4 AND SWAP1 SWAP2 MUL SWAP6 SWAP1 SWAP6 OR SWAP1 SWAP3 SSTORE PUSH1 0xA0 DUP8 ADD MLOAD PUSH32 0xC65A7BB8D6351C1CF70C95A316CC6A92839C986682D98BC35F958F4883F9D2AD SWAP1 SWAP7 ADD DUP1 SLOAD PUSH1 0xC0 DUP10 ADD MLOAD SWAP8 DUP5 AND SWAP6 AND SWAP5 SWAP1 SWAP5 OR SWAP6 SWAP1 SWAP2 AND SWAP1 SWAP2 MUL SWAP4 SWAP1 SWAP4 OR DUP1 DUP3 SSTORE PUSH1 0xE0 DUP6 ADD MLOAD DUP6 SWAP5 SWAP1 SWAP3 SWAP2 PUSH3 0xFF0000 NOT AND SWAP1 DUP4 PUSH1 0x2 DUP2 GT ISZERO PUSH2 0x22F6 JUMPI PUSH2 0x22F6 PUSH2 0x375C JUMP JUMPDEST MUL OR SWAP1 SSTORE POP PUSH2 0x100 SWAP2 SWAP1 SWAP2 ADD MLOAD PUSH1 0x5 SWAP1 SWAP2 ADD DUP1 SLOAD SWAP2 ISZERO ISZERO PUSH4 0x1000000 MUL PUSH4 0xFF000000 NOT SWAP1 SWAP3 AND SWAP2 SWAP1 SWAP2 OR SWAP1 SSTORE PUSH1 0xF DUP1 SLOAD SWAP1 PUSH1 0x0 PUSH2 0x2332 DUP4 PUSH2 0x3B81 JUMP JUMPDEST SWAP1 SWAP2 SSTORE POP POP PUSH1 0xE DUP1 SLOAD PUSH1 0xFF NOT AND SWAP1 SSTORE PUSH1 0x0 DUP4 DUP2 MSTORE PUSH1 0xB PUSH1 0x20 MSTORE PUSH1 0x40 SWAP1 KECCAK256 DUP5 SWAP1 SSTORE PUSH2 0x235C DUP11 DUP5 PUSH2 0x29F8 JUMP JUMPDEST PUSH1 0x0 PUSH2 0x236B DUP3 PUSH1 0xE0 ADD MLOAD PUSH2 0x2A12 JUMP JUMPDEST SWAP1 POP DUP1 MLOAD PUSH1 0x0 EQ ISZERO PUSH2 0x237C JUMPI PUSH1 0x0 DUP1 REVERT JUMPDEST PUSH2 0x2386 DUP5 DUP3 PUSH2 0x2B12 JUMP JUMPDEST POP POP POP POP POP POP POP POP POP POP POP JUMP JUMPDEST PUSH1 0x0 PUSH2 0x239E DUP3 PUSH2 0x18E6 JUMP JUMPDEST PUSH2 0x23FF JUMPI PUSH1 0x40 MLOAD PUSH3 0x461BCD PUSH1 0xE5 SHL DUP2 MSTORE PUSH1 0x20 PUSH1 0x4 DUP3 ADD MSTORE PUSH1 0x2C PUSH1 0x24 DUP3 ADD MSTORE PUSH32 0x4552433732313A206F70657261746F7220717565727920666F72206E6F6E6578 PUSH1 0x44 DUP3 ADD MSTORE PUSH12 0x34B9BA32B73A103A37B5B2B7 PUSH1 0xA1 SHL PUSH1 0x64 DUP3 ADD MSTORE PUSH1 0x84 ADD PUSH2 0x730 JUMP JUMPDEST PUSH1 0x0 PUSH2 0x240A DUP4 PUSH2 0xCFD JUMP JUMPDEST SWAP1 POP DUP1 PUSH1 0x1 PUSH1 0x1 PUSH1 0xA0 SHL SUB AND DUP5 PUSH1 0x1 PUSH1 0x1 PUSH1 0xA0 SHL SUB AND EQ DUP1 PUSH2 0x2451 JUMPI POP PUSH1 0x1 PUSH1 0x1 PUSH1 0xA0 SHL SUB DUP1 DUP3 AND PUSH1 0x0 SWAP1 DUP2 MSTORE PUSH1 0x5 PUSH1 0x20 SWAP1 DUP2 MSTORE PUSH1 0x40 DUP1 DUP4 KECCAK256 SWAP4 DUP9 AND DUP4 MSTORE SWAP3 SWAP1 MSTORE KECCAK256 SLOAD PUSH1 0xFF AND JUMPDEST DUP1 PUSH2 0x1539 JUMPI POP DUP4 PUSH1 0x1 PUSH1 0x1 PUSH1 0xA0 SHL SUB AND PUSH2 0x246A DUP5 PUSH2 0x6C8 JUMP JUMPDEST PUSH1 0x1 PUSH1 0x1 PUSH1 0xA0 SHL SUB AND EQ SWAP5 SWAP4 POP POP POP POP JUMP JUMPDEST PUSH2 0x2487 DUP5 DUP5 DUP5 PUSH2 0x1971 JUMP JUMPDEST PUSH2 0x2493 DUP5 DUP5 DUP5 DUP5 PUSH2 0x2B9D JUMP JUMPDEST PUSH2 0x12D0 JUMPI PUSH1 0x40 MLOAD PUSH3 0x461BCD PUSH1 0xE5 SHL DUP2 MSTORE PUSH1 0x4 ADD PUSH2 0x730 SWAP1 PUSH2 0x3C82 JUMP JUMPDEST PUSH1 0x60 PUSH2 0x24BA DUP3 PUSH2 0x18E6 JUMP JUMPDEST PUSH2 0x251E JUMPI PUSH1 0x40 MLOAD PUSH3 0x461BCD PUSH1 0xE5 SHL DUP2 MSTORE PUSH1 0x20 PUSH1 0x4 DUP3 ADD MSTORE PUSH1 0x2F PUSH1 0x24 DUP3 ADD MSTORE PUSH32 0x4552433732314D657461646174613A2055524920717565727920666F72206E6F PUSH1 0x44 DUP3 ADD MSTORE PUSH15 0x3732BC34B9BA32B73A103A37B5B2B7 PUSH1 0x89 SHL PUSH1 0x64 DUP3 ADD MSTORE PUSH1 0x84 ADD PUSH2 0x730 JUMP JUMPDEST PUSH1 0x0 PUSH2 0x2535 PUSH1 0x40 DUP1 MLOAD PUSH1 0x20 DUP2 ADD SWAP1 SWAP2 MSTORE PUSH1 0x0 DUP2 MSTORE SWAP1 JUMP JUMPDEST SWAP1 POP PUSH1 0x0 DUP2 MLOAD GT PUSH2 0x2555 JUMPI PUSH1 0x40 MLOAD DUP1 PUSH1 0x20 ADD PUSH1 0x40 MSTORE DUP1 PUSH1 0x0 DUP2 MSTORE POP PUSH2 0x2580 JUMP JUMPDEST DUP1 PUSH2 0x255F DUP5 PUSH2 0x2CAA JUMP JUMPDEST PUSH1 0x40 MLOAD PUSH1 0x20 ADD PUSH2 0x2570 SWAP3 SWAP2 SWAP1 PUSH2 0x3BE3 JUMP JUMPDEST PUSH1 0x40 MLOAD PUSH1 0x20 DUP2 DUP4 SUB SUB DUP2 MSTORE SWAP1 PUSH1 0x40 MSTORE JUMPDEST SWAP4 SWAP3 POP POP POP JUMP JUMPDEST PUSH2 0x258F PUSH2 0x3455 JUMP JUMPDEST PUSH1 0x1 PUSH2 0x259A PUSH1 0xA SLOAD SWAP1 JUMP JUMPDEST PUSH2 0x25A4 SWAP2 SWAP1 PUSH2 0x3B6A JUMP JUMPDEST DUP3 LT PUSH2 0x25AF JUMPI PUSH1 0x0 DUP1 REVERT JUMPDEST PUSH1 0xA DUP3 DUP2 SLOAD DUP2 LT PUSH2 0x25C2 JUMPI PUSH2 0x25C2 PUSH2 0x3B01 JUMP JUMPDEST PUSH1 0x0 SWAP2 DUP3 MSTORE PUSH1 0x20 SWAP2 DUP3 SWAP1 KECCAK256 PUSH1 0x40 DUP1 MLOAD PUSH2 0x120 DUP2 ADD DUP3 MSTORE PUSH1 0x6 SWAP1 SWAP4 MUL SWAP1 SWAP2 ADD DUP1 SLOAD DUP4 MSTORE PUSH1 0x1 DUP2 ADD SLOAD DUP4 DUP6 ADD MSTORE PUSH1 0x2 DUP1 DUP3 ADD SLOAD DUP5 DUP5 ADD MSTORE DUP3 MLOAD PUSH1 0x80 DUP1 DUP3 ADD DUP6 MSTORE PUSH1 0x3 DUP5 ADD SLOAD PUSH1 0xFF DUP1 DUP3 AND DUP5 MSTORE PUSH2 0x100 DUP1 DUP4 DIV DUP3 AND DUP6 DUP12 ADD MSTORE PUSH3 0x10000 DUP1 DUP5 DIV DUP4 AND DUP7 DUP11 ADD MSTORE PUSH4 0x1000000 SWAP4 DUP5 SWAP1 DIV DUP4 AND PUSH1 0x60 DUP8 DUP2 ADD SWAP2 SWAP1 SWAP2 MSTORE DUP1 DUP12 ADD SWAP7 SWAP1 SWAP7 MSTORE DUP9 MLOAD DUP1 DUP7 ADD DUP11 MSTORE PUSH1 0x4 DUP10 ADD SLOAD DUP1 DUP6 AND DUP3 MSTORE DUP4 DUP2 DIV DUP6 AND SWAP13 DUP3 ADD SWAP13 SWAP1 SWAP13 MSTORE DUP2 DUP13 DIV DUP5 AND SWAP10 DUP2 ADD SWAP10 SWAP1 SWAP10 MSTORE SWAP3 SWAP1 SWAP10 DIV DUP2 AND SWAP4 DUP8 ADD SWAP4 SWAP1 SWAP4 MSTORE SWAP1 DUP7 ADD SWAP5 SWAP1 SWAP5 MSTORE PUSH1 0x5 DUP4 ADD SLOAD DUP1 DUP3 AND PUSH1 0xA0 DUP8 ADD MSTORE SWAP6 DUP7 DIV DUP2 AND PUSH1 0xC0 DUP7 ADD MSTORE SWAP4 SWAP5 SWAP2 SWAP4 PUSH1 0xE0 DUP7 ADD SWAP4 SWAP1 SWAP3 DIV SWAP1 SWAP2 AND SWAP1 DUP2 GT ISZERO PUSH2 0x26B3 JUMPI PUSH2 0x26B3 PUSH2 0x375C JUMP JUMPDEST PUSH1 0x2 DUP2 GT ISZERO PUSH2 0x26C4 JUMPI PUSH2 0x26C4 PUSH2 0x375C JUMP JUMPDEST DUP2 MSTORE PUSH1 0x5 SWAP2 SWAP1 SWAP2 ADD SLOAD PUSH4 0x1000000 SWAP1 DIV PUSH1 0xFF AND ISZERO ISZERO PUSH1 0x20 SWAP1 SWAP2 ADD MSTORE SWAP3 SWAP2 POP POP JUMP JUMPDEST PUSH1 0x40 DUP1 MLOAD DIFFICULTY PUSH1 0x20 DUP1 DUP4 ADD SWAP2 SWAP1 SWAP2 MSTORE TIMESTAMP DUP3 DUP5 ADD MSTORE PUSH1 0x0 PUSH1 0x60 DUP4 ADD MSTORE DUP3 MLOAD PUSH1 0x54 DUP2 DUP5 SUB ADD DUP2 MSTORE PUSH1 0x74 SWAP1 SWAP3 ADD SWAP1 SWAP3 MSTORE DUP1 MLOAD SWAP2 ADD KECCAK256 SWAP1 JUMP JUMPDEST PUSH1 0x0 DUP1 JUMPDEST DUP4 MLOAD DUP2 LT ISZERO PUSH2 0x2763 JUMPI DUP3 DUP5 DUP3 DUP2 MLOAD DUP2 LT PUSH2 0x2739 JUMPI PUSH2 0x2739 PUSH2 0x3B01 JUMP JUMPDEST PUSH1 0x20 MUL PUSH1 0x20 ADD ADD MLOAD EQ ISZERO PUSH2 0x2751 JUMPI PUSH1 0x1 SWAP2 POP POP PUSH2 0x630 JUMP JUMPDEST DUP1 PUSH2 0x275B DUP2 PUSH2 0x3B81 JUMP JUMPDEST SWAP2 POP POP PUSH2 0x271D JUMP JUMPDEST POP PUSH1 0x0 SWAP4 SWAP3 POP POP POP JUMP JUMPDEST PUSH2 0x2776 DUP2 PUSH2 0x2DA8 JUMP JUMPDEST PUSH1 0x0 DUP2 DUP2 MSTORE PUSH1 0x6 PUSH1 0x20 MSTORE PUSH1 0x40 SWAP1 KECCAK256 DUP1 SLOAD PUSH2 0x278F SWAP1 PUSH2 0x3ACC JUMP JUMPDEST ISZERO SWAP1 POP PUSH2 0x1869 JUMPI PUSH1 0x0 DUP2 DUP2 MSTORE PUSH1 0x6 PUSH1 0x20 MSTORE PUSH1 0x40 DUP2 KECCAK256 PUSH2 0x1869 SWAP2 PUSH2 0x34AD JUMP JUMPDEST PUSH1 0x1 PUSH1 0x1 PUSH1 0xA0 SHL SUB DUP4 AND PUSH2 0x27C0 JUMPI PUSH2 0x27E3 JUMP JUMPDEST DUP2 PUSH1 0x1 PUSH1 0x1 PUSH1 0xA0 SHL SUB AND DUP4 PUSH1 0x1 PUSH1 0x1 PUSH1 0xA0 SHL SUB AND EQ PUSH2 0x27E3 JUMPI PUSH2 0x27E3 DUP4 DUP3 PUSH2 0x2E4F JUMP JUMPDEST PUSH1 0x1 PUSH1 0x1 PUSH1 0xA0 SHL SUB DUP3 AND PUSH2 0x27FA JUMPI PUSH2 0x866 DUP2 PUSH2 0x2EEC JUMP JUMPDEST DUP3 PUSH1 0x1 PUSH1 0x1 PUSH1 0xA0 SHL SUB AND DUP3 PUSH1 0x1 PUSH1 0x1 PUSH1 0xA0 SHL SUB AND EQ PUSH2 0x866 JUMPI PUSH2 0x866 DUP3 DUP3 PUSH2 0x3221 JUMP JUMPDEST PUSH2 0x2825 PUSH2 0x342E JUMP JUMPDEST PUSH2 0x282D PUSH2 0x342E JUMP JUMPDEST DUP3 PUSH2 0x283C DUP6 PUSH1 0x0 ADD MLOAD DUP6 PUSH2 0x3265 JUMP JUMPDEST PUSH2 0x2847 SWAP1 PUSH1 0x5 PUSH2 0x3BBE JUMP JUMPDEST PUSH2 0x2851 SWAP2 SWAP1 PUSH2 0x3BBE JUMP JUMPDEST PUSH1 0xFF AND DUP2 MSTORE PUSH1 0x60 DUP5 ADD MLOAD PUSH2 0x2865 SWAP1 DUP5 PUSH2 0x3265 JUMP JUMPDEST PUSH1 0xFF AND PUSH1 0x60 DUP3 ADD MSTORE PUSH1 0x40 DUP5 ADD MLOAD PUSH2 0x287C SWAP1 DUP5 PUSH2 0x3265 JUMP JUMPDEST PUSH1 0xFF AND PUSH1 0x40 DUP3 ADD MSTORE PUSH1 0x20 DUP5 ADD MLOAD PUSH2 0x2893 SWAP1 DUP5 PUSH2 0x3265 JUMP JUMPDEST PUSH1 0xFF AND PUSH1 0x20 DUP3 ADD MSTORE SWAP4 SWAP3 POP POP POP JUMP JUMPDEST PUSH1 0x0 DUP1 PUSH1 0x0 PUSH1 0x2 PUSH2 0x28B1 PUSH2 0x26E5 JUMP JUMPDEST PUSH2 0x28BB SWAP2 SWAP1 PUSH2 0x3C12 JUMP JUMPDEST PUSH2 0x28D5 JUMPI POP PUSH1 0x1 PUSH2 0x28CC DUP6 DUP6 PUSH2 0x3288 JUMP JUMPDEST SWAP3 POP SWAP1 POP PUSH2 0x28E0 JUMP JUMPDEST POP PUSH1 0x0 PUSH2 0x28CC PUSH2 0x28E7 JUMP JUMPDEST SWAP3 POP SWAP3 SWAP1 POP JUMP JUMPDEST PUSH1 0x0 PUSH1 0x20 PUSH2 0x28F3 PUSH2 0x26E5 JUMP JUMPDEST PUSH2 0x28FD SWAP2 SWAP1 PUSH2 0x3C12 JUMP JUMPDEST SWAP1 POP SWAP1 JUMP JUMPDEST DUP1 MLOAD PUSH1 0x0 SWAP1 ISZERO DUP1 ISZERO SWAP1 PUSH2 0x291C JUMPI POP PUSH1 0x60 DUP3 ADD MLOAD MLOAD PUSH1 0xFF AND ISZERO ISZERO JUMPDEST DUP1 ISZERO PUSH2 0x2933 JUMPI POP PUSH1 0x0 DUP3 PUSH1 0x60 ADD MLOAD PUSH1 0x20 ADD MLOAD PUSH1 0xFF AND GT JUMPDEST DUP1 ISZERO PUSH2 0x294A JUMPI POP PUSH1 0x0 DUP3 PUSH1 0x60 ADD MLOAD PUSH1 0x40 ADD MLOAD PUSH1 0xFF AND GT JUMPDEST DUP1 ISZERO PUSH2 0x2961 JUMPI POP PUSH1 0x0 DUP3 PUSH1 0x60 ADD MLOAD PUSH1 0x60 ADD MLOAD PUSH1 0xFF AND GT JUMPDEST DUP1 ISZERO PUSH2 0x2979 JUMPI POP PUSH1 0x1F DUP3 PUSH1 0x80 ADD MLOAD PUSH1 0x0 ADD MLOAD PUSH1 0xFF AND GT ISZERO JUMPDEST DUP1 ISZERO PUSH2 0x2991 JUMPI POP PUSH1 0x1F DUP3 PUSH1 0x80 ADD MLOAD PUSH1 0x20 ADD MLOAD PUSH1 0xFF AND GT ISZERO JUMPDEST DUP1 ISZERO PUSH2 0x29A9 JUMPI POP PUSH1 0x1F DUP3 PUSH1 0x80 ADD MLOAD PUSH1 0x40 ADD MLOAD PUSH1 0xFF AND GT ISZERO JUMPDEST DUP1 ISZERO PUSH2 0x29C1 JUMPI POP PUSH1 0x1F DUP3 PUSH1 0x80 ADD MLOAD PUSH1 0x60 ADD MLOAD PUSH1 0xFF AND GT ISZERO JUMPDEST DUP1 ISZERO PUSH2 0x29D5 JUMPI POP PUSH1 0x1F DUP3 PUSH1 0xA0 ADD MLOAD PUSH1 0xFF AND GT ISZERO JUMPDEST DUP1 ISZERO PUSH2 0x29E7 JUMPI POP PUSH1 0xC0 DUP3 ADD MLOAD PUSH1 0xFF AND ISZERO ISZERO JUMPDEST PUSH2 0x29F0 JUMPI PUSH1 0x0 DUP1 REVERT JUMPDEST POP PUSH1 0x1 SWAP2 SWAP1 POP JUMP JUMPDEST PUSH2 0x1142 DUP3 DUP3 PUSH1 0x40 MLOAD DUP1 PUSH1 0x20 ADD PUSH1 0x40 MSTORE DUP1 PUSH1 0x0 DUP2 MSTORE POP PUSH2 0x32BC JUMP JUMPDEST PUSH1 0x60 DUP1 PUSH1 0x0 DUP4 PUSH1 0x2 DUP2 GT ISZERO PUSH2 0x2A29 JUMPI PUSH2 0x2A29 PUSH2 0x375C JUMP JUMPDEST EQ ISZERO PUSH2 0x2A69 JUMPI POP PUSH1 0x40 DUP1 MLOAD DUP1 DUP3 ADD SWAP1 SWAP2 MSTORE PUSH1 0x1B DUP2 MSTORE PUSH32 0x2E2E2F7075626C69632F696D616765732F647261676F6E2E706E670000000000 PUSH1 0x20 DUP3 ADD MSTORE PUSH2 0x630 JUMP JUMPDEST PUSH1 0x2 DUP4 PUSH1 0x2 DUP2 GT ISZERO PUSH2 0x2A7D JUMPI PUSH2 0x2A7D PUSH2 0x375C JUMP JUMPDEST EQ ISZERO PUSH2 0x2ABD JUMPI POP PUSH1 0x40 DUP1 MLOAD DUP1 DUP3 ADD SWAP1 SWAP2 MSTORE PUSH1 0x1D DUP2 MSTORE PUSH32 0x2E2E2F7075626C69632F696D616765732F676172676F796C652E706E67000000 PUSH1 0x20 DUP3 ADD MSTORE PUSH2 0x630 JUMP JUMPDEST PUSH1 0x1 DUP4 PUSH1 0x2 DUP2 GT ISZERO PUSH2 0x2AD1 JUMPI PUSH2 0x2AD1 PUSH2 0x375C JUMP JUMPDEST EQ ISZERO PUSH2 0x630 JUMPI POP PUSH1 0x40 DUP1 MLOAD DUP1 DUP3 ADD SWAP1 SWAP2 MSTORE PUSH1 0x1A DUP2 MSTORE PUSH32 0x2E2E2F7075626C69632F696D616765732F67686F73742E706E67000000000000 PUSH1 0x20 DUP3 ADD MSTORE SWAP3 SWAP2 POP POP JUMP JUMPDEST PUSH2 0x2B1B DUP3 PUSH2 0x18E6 JUMP JUMPDEST PUSH2 0x2B7E JUMPI PUSH1 0x40 MLOAD PUSH3 0x461BCD PUSH1 0xE5 SHL DUP2 MSTORE PUSH1 0x20 PUSH1 0x4 DUP3 ADD MSTORE PUSH1 0x2E PUSH1 0x24 DUP3 ADD MSTORE PUSH32 0x45524337323155524953746F726167653A2055524920736574206F66206E6F6E PUSH1 0x44 DUP3 ADD MSTORE PUSH14 0x32BC34B9BA32B73A103A37B5B2B7 PUSH1 0x91 SHL PUSH1 0x64 DUP3 ADD MSTORE PUSH1 0x84 ADD PUSH2 0x730 JUMP JUMPDEST PUSH1 0x0 DUP3 DUP2 MSTORE PUSH1 0x6 PUSH1 0x20 SWAP1 DUP2 MSTORE PUSH1 0x40 SWAP1 SWAP2 KECCAK256 DUP3 MLOAD PUSH2 0x866 SWAP3 DUP5 ADD SWAP1 PUSH2 0x34E7 JUMP JUMPDEST PUSH1 0x0 PUSH1 0x1 PUSH1 0x1 PUSH1 0xA0 SHL SUB DUP5 AND EXTCODESIZE ISZERO PUSH2 0x2C9F JUMPI PUSH1 0x40 MLOAD PUSH4 0xA85BD01 PUSH1 0xE1 SHL DUP2 MSTORE PUSH1 0x1 PUSH1 0x1 PUSH1 0xA0 SHL SUB DUP6 AND SWAP1 PUSH4 0x150B7A02 SWAP1 PUSH2 0x2BE1 SWAP1 CALLER SWAP1 DUP10 SWAP1 DUP9 SWAP1 DUP9 SWAP1 PUSH1 0x4 ADD PUSH2 0x3CD4 JUMP JUMPDEST PUSH1 0x20 PUSH1 0x40 MLOAD DUP1 DUP4 SUB DUP2 PUSH1 0x0 DUP8 DUP1 EXTCODESIZE ISZERO DUP1 ISZERO PUSH2 0x2BFB JUMPI PUSH1 0x0 DUP1 REVERT JUMPDEST POP GAS CALL SWAP3 POP POP POP DUP1 ISZERO PUSH2 0x2C2B JUMPI POP PUSH1 0x40 DUP1 MLOAD PUSH1 0x1F RETURNDATASIZE SWAP1 DUP2 ADD PUSH1 0x1F NOT AND DUP3 ADD SWAP1 SWAP3 MSTORE PUSH2 0x2C28 SWAP2 DUP2 ADD SWAP1 PUSH2 0x3D11 JUMP JUMPDEST PUSH1 0x1 JUMPDEST PUSH2 0x2C85 JUMPI RETURNDATASIZE DUP1 DUP1 ISZERO PUSH2 0x2C59 JUMPI PUSH1 0x40 MLOAD SWAP2 POP PUSH1 0x1F NOT PUSH1 0x3F RETURNDATASIZE ADD AND DUP3 ADD PUSH1 0x40 MSTORE RETURNDATASIZE DUP3 MSTORE RETURNDATASIZE PUSH1 0x0 PUSH1 0x20 DUP5 ADD RETURNDATACOPY PUSH2 0x2C5E JUMP JUMPDEST PUSH1 0x60 SWAP2 POP JUMPDEST POP DUP1 MLOAD PUSH2 0x2C7D JUMPI PUSH1 0x40 MLOAD PUSH3 0x461BCD PUSH1 0xE5 SHL DUP2 MSTORE PUSH1 0x4 ADD PUSH2 0x730 SWAP1 PUSH2 0x3C82 JUMP JUMPDEST DUP1 MLOAD DUP2 PUSH1 0x20 ADD REVERT JUMPDEST PUSH1 0x1 PUSH1 0x1 PUSH1 0xE0 SHL SUB NOT AND PUSH4 0xA85BD01 PUSH1 0xE1 SHL EQ SWAP1 POP PUSH2 0x1539 JUMP JUMPDEST POP PUSH1 0x1 SWAP5 SWAP4 POP POP POP POP JUMP JUMPDEST PUSH1 0x60 DUP2 PUSH2 0x2CCE JUMPI POP POP PUSH1 0x40 DUP1 MLOAD DUP1 DUP3 ADD SWAP1 SWAP2 MSTORE PUSH1 0x1 DUP2 MSTORE PUSH1 0x3 PUSH1 0xFC SHL PUSH1 0x20 DUP3 ADD MSTORE SWAP1 JUMP JUMPDEST DUP2 PUSH1 0x0 JUMPDEST DUP2 ISZERO PUSH2 0x2CF8 JUMPI DUP1 PUSH2 0x2CE2 DUP2 PUSH2 0x3B81 JUMP JUMPDEST SWAP2 POP PUSH2 0x2CF1 SWAP1 POP PUSH1 0xA DUP4 PUSH2 0x3B2D JUMP JUMPDEST SWAP2 POP PUSH2 0x2CD2 JUMP JUMPDEST PUSH1 0x0 DUP2 PUSH8 0xFFFFFFFFFFFFFFFF DUP2 GT ISZERO PUSH2 0x2D13 JUMPI PUSH2 0x2D13 PUSH2 0x38F0 JUMP JUMPDEST PUSH1 0x40 MLOAD SWAP1 DUP1 DUP3 MSTORE DUP1 PUSH1 0x1F ADD PUSH1 0x1F NOT AND PUSH1 0x20 ADD DUP3 ADD PUSH1 0x40 MSTORE DUP1 ISZERO PUSH2 0x2D3D JUMPI PUSH1 0x20 DUP3 ADD DUP2 DUP1 CALLDATASIZE DUP4 CALLDATACOPY ADD SWAP1 POP JUMPDEST POP SWAP1 POP JUMPDEST DUP5 ISZERO PUSH2 0x1539 JUMPI PUSH2 0x2D52 PUSH1 0x1 DUP4 PUSH2 0x3B6A JUMP JUMPDEST SWAP2 POP PUSH2 0x2D5F PUSH1 0xA DUP7 PUSH2 0x3C12 JUMP JUMPDEST PUSH2 0x2D6A SWAP1 PUSH1 0x30 PUSH2 0x358E JUMP JUMPDEST PUSH1 0xF8 SHL DUP2 DUP4 DUP2 MLOAD DUP2 LT PUSH2 0x2D7F JUMPI PUSH2 0x2D7F PUSH2 0x3B01 JUMP JUMPDEST PUSH1 0x20 ADD ADD SWAP1 PUSH1 0x1 PUSH1 0x1 PUSH1 0xF8 SHL SUB NOT AND SWAP1 DUP2 PUSH1 0x0 BYTE SWAP1 MSTORE8 POP PUSH2 0x2DA1 PUSH1 0xA DUP7 PUSH2 0x3B2D JUMP JUMPDEST SWAP5 POP PUSH2 0x2D41 JUMP JUMPDEST PUSH1 0x0 PUSH2 0x2DB3 DUP3 PUSH2 0xCFD JUMP JUMPDEST SWAP1 POP PUSH2 0x2DC1 DUP2 PUSH1 0x0 DUP5 PUSH2 0x27AD JUMP JUMPDEST PUSH2 0x2DCC PUSH1 0x0 DUP4 PUSH2 0x1903 JUMP JUMPDEST PUSH1 0x1 PUSH1 0x1 PUSH1 0xA0 SHL SUB DUP2 AND PUSH1 0x0 SWAP1 DUP2 MSTORE PUSH1 0x3 PUSH1 0x20 MSTORE PUSH1 0x40 DUP2 KECCAK256 DUP1 SLOAD PUSH1 0x1 SWAP3 SWAP1 PUSH2 0x2DF5 SWAP1 DUP5 SWAP1 PUSH2 0x3B6A JUMP JUMPDEST SWAP1 SWAP2 SSTORE POP POP PUSH1 0x0 DUP3 DUP2 MSTORE PUSH1 0x2 PUSH1 0x20 MSTORE PUSH1 0x40 DUP1 DUP3 KECCAK256 DUP1 SLOAD PUSH1 0x1 PUSH1 0x1 PUSH1 0xA0 SHL SUB NOT AND SWAP1 SSTORE MLOAD DUP4 SWAP2 SWAP1 PUSH1 0x1 PUSH1 0x1 PUSH1 0xA0 SHL SUB DUP5 AND SWAP1 PUSH32 0xDDF252AD1BE2C89B69C2B068FC378DAA952BA7F163C4A11628F55A4DF523B3EF SWAP1 DUP4 SWAP1 LOG4 POP POP JUMP JUMPDEST PUSH1 0x0 PUSH1 0x1 PUSH2 0x2E5C DUP5 PUSH2 0xE5C JUMP JUMPDEST PUSH2 0x2E66 SWAP2 SWAP1 PUSH2 0x3B6A JUMP JUMPDEST PUSH1 0x0 DUP4 DUP2 MSTORE PUSH1 0xD PUSH1 0x20 MSTORE PUSH1 0x40 SWAP1 KECCAK256 SLOAD SWAP1 SWAP2 POP DUP1 DUP3 EQ PUSH2 0x2EB9 JUMPI PUSH1 0x1 PUSH1 0x1 PUSH1 0xA0 SHL SUB DUP5 AND PUSH1 0x0 SWAP1 DUP2 MSTORE PUSH1 0xC PUSH1 0x20 SWAP1 DUP2 MSTORE PUSH1 0x40 DUP1 DUP4 KECCAK256 DUP6 DUP5 MSTORE DUP3 MSTORE DUP1 DUP4 KECCAK256 SLOAD DUP5 DUP5 MSTORE DUP2 DUP5 KECCAK256 DUP2 SWAP1 SSTORE DUP4 MSTORE PUSH1 0xD SWAP1 SWAP2 MSTORE SWAP1 KECCAK256 DUP2 SWAP1 SSTORE JUMPDEST POP PUSH1 0x0 SWAP2 DUP3 MSTORE PUSH1 0xD PUSH1 0x20 SWAP1 DUP2 MSTORE PUSH1 0x40 DUP1 DUP5 KECCAK256 DUP5 SWAP1 SSTORE PUSH1 0x1 PUSH1 0x1 PUSH1 0xA0 SHL SUB SWAP1 SWAP5 AND DUP4 MSTORE PUSH1 0xC DUP2 MSTORE DUP4 DUP4 KECCAK256 SWAP2 DUP4 MSTORE MSTORE SWAP1 DUP2 KECCAK256 SSTORE JUMP JUMPDEST PUSH1 0xA SLOAD PUSH1 0x0 SWAP1 PUSH2 0x2EFE SWAP1 PUSH1 0x1 SWAP1 PUSH2 0x3B6A JUMP JUMPDEST PUSH1 0x0 DUP4 DUP2 MSTORE PUSH1 0xB PUSH1 0x20 MSTORE PUSH1 0x40 DUP2 KECCAK256 SLOAD PUSH1 0xA DUP1 SLOAD SWAP4 SWAP5 POP SWAP1 SWAP3 DUP5 SWAP1 DUP2 LT PUSH2 0x2F26 JUMPI PUSH2 0x2F26 PUSH2 0x3B01 JUMP JUMPDEST PUSH1 0x0 SWAP2 DUP3 MSTORE PUSH1 0x20 SWAP2 DUP3 SWAP1 KECCAK256 PUSH1 0x40 DUP1 MLOAD PUSH2 0x120 DUP2 ADD DUP3 MSTORE PUSH1 0x6 SWAP1 SWAP4 MUL SWAP1 SWAP2 ADD DUP1 SLOAD DUP4 MSTORE PUSH1 0x1 DUP2 ADD SLOAD DUP4 DUP6 ADD MSTORE PUSH1 0x2 DUP1 DUP3 ADD SLOAD DUP5 DUP5 ADD MSTORE DUP3 MLOAD PUSH1 0x80 DUP1 DUP3 ADD DUP6 MSTORE PUSH1 0x3 DUP5 ADD SLOAD PUSH1 0xFF DUP1 DUP3 AND DUP5 MSTORE PUSH2 0x100 DUP1 DUP4 DIV DUP3 AND DUP6 DUP12 ADD MSTORE PUSH3 0x10000 DUP1 DUP5 DIV DUP4 AND DUP7 DUP11 ADD MSTORE PUSH4 0x1000000 SWAP4 DUP5 SWAP1 DIV DUP4 AND PUSH1 0x60 DUP8 DUP2 ADD SWAP2 SWAP1 SWAP2 MSTORE DUP1 DUP12 ADD SWAP7 SWAP1 SWAP7 MSTORE DUP9 MLOAD DUP1 DUP7 ADD DUP11 MSTORE PUSH1 0x4 DUP10 ADD SLOAD DUP1 DUP6 AND DUP3 MSTORE DUP4 DUP2 DIV DUP6 AND SWAP13 DUP3 ADD SWAP13 SWAP1 SWAP13 MSTORE DUP2 DUP13 DIV DUP5 AND SWAP10 DUP2 ADD SWAP10 SWAP1 SWAP10 MSTORE SWAP3 SWAP1 SWAP10 DIV DUP2 AND SWAP4 DUP8 ADD SWAP4 SWAP1 SWAP4 MSTORE SWAP1 DUP7 ADD SWAP5 SWAP1 SWAP5 MSTORE PUSH1 0x5 DUP4 ADD SLOAD DUP1 DUP3 AND PUSH1 0xA0 DUP8 ADD MSTORE SWAP6 DUP7 DIV DUP2 AND PUSH1 0xC0 DUP7 ADD MSTORE SWAP4 SWAP5 SWAP2 SWAP4 PUSH1 0xE0 DUP7 ADD SWAP4 SWAP1 SWAP3 DIV SWAP1 SWAP2 AND SWAP1 DUP2 GT ISZERO PUSH2 0x3017 JUMPI PUSH2 0x3017 PUSH2 0x375C JUMP JUMPDEST PUSH1 0x2 DUP2 GT ISZERO PUSH2 0x3028 JUMPI PUSH2 0x3028 PUSH2 0x375C JUMP JUMPDEST DUP2 MSTORE PUSH1 0x5 SWAP2 SWAP1 SWAP2 ADD SLOAD PUSH4 0x1000000 SWAP1 DIV PUSH1 0xFF AND ISZERO ISZERO PUSH1 0x20 SWAP1 SWAP2 ADD MSTORE PUSH1 0xA DUP1 SLOAD SWAP2 SWAP3 POP DUP3 SWAP2 DUP5 SWAP1 DUP2 LT PUSH2 0x305C JUMPI PUSH2 0x305C PUSH2 0x3B01 JUMP JUMPDEST PUSH1 0x0 SWAP2 DUP3 MSTORE PUSH1 0x20 SWAP2 DUP3 SWAP1 KECCAK256 DUP4 MLOAD PUSH1 0x6 SWAP3 SWAP1 SWAP3 MUL ADD SWAP1 DUP2 SSTORE DUP3 DUP3 ADD MLOAD PUSH1 0x1 DUP3 ADD SSTORE PUSH1 0x40 DUP1 DUP5 ADD MLOAD PUSH1 0x2 DUP1 DUP5 ADD SWAP2 SWAP1 SWAP2 SSTORE PUSH1 0x60 DUP1 DUP7 ADD MLOAD DUP1 MLOAD PUSH1 0x3 DUP7 ADD DUP1 SLOAD DUP4 DUP10 ADD MLOAD DUP5 DUP9 ADD MLOAD SWAP5 DUP7 ADD MLOAD PUSH1 0xFF SWAP5 DUP6 AND PUSH2 0xFFFF NOT SWAP4 DUP5 AND OR PUSH2 0x100 SWAP3 DUP7 AND DUP4 MUL OR PUSH4 0xFFFF0000 NOT SWAP1 DUP2 AND PUSH3 0x10000 SWAP8 DUP8 AND DUP9 MUL PUSH4 0xFF000000 NOT SWAP1 DUP2 AND SWAP2 SWAP1 SWAP2 OR PUSH4 0x1000000 SWAP4 DUP9 AND DUP5 MUL OR SWAP1 SWAP6 SSTORE PUSH1 0x80 DUP14 ADD MLOAD DUP1 MLOAD PUSH1 0x4 DUP14 ADD DUP1 SLOAD SWAP15 DUP4 ADD MLOAD SWAP13 DUP4 ADD MLOAD SWAP3 SWAP1 SWAP11 ADD MLOAD SWAP1 DUP9 AND SWAP14 DUP7 AND SWAP14 SWAP1 SWAP14 OR SWAP11 DUP8 AND DUP5 MUL SWAP11 SWAP1 SWAP11 OR AND SWAP9 DUP6 AND DUP7 MUL SWAP1 SWAP4 AND SWAP8 SWAP1 SWAP8 OR SWAP9 DUP4 AND SWAP1 SWAP2 MUL SWAP8 SWAP1 SWAP8 OR SWAP1 SWAP3 SSTORE PUSH1 0xA0 DUP8 ADD MLOAD PUSH1 0x5 DUP7 ADD DUP1 SLOAD PUSH1 0xC0 DUP11 ADD MLOAD SWAP3 DUP6 AND SWAP9 AND SWAP8 SWAP1 SWAP8 OR SWAP3 AND SWAP1 SWAP4 MUL OR DUP1 DUP6 SSTORE PUSH1 0xE0 DUP7 ADD MLOAD SWAP4 SWAP5 SWAP3 PUSH3 0xFF0000 NOT SWAP1 SWAP2 AND SWAP2 DUP5 SWAP1 DUP2 GT ISZERO PUSH2 0x3173 JUMPI PUSH2 0x3173 PUSH2 0x375C JUMP JUMPDEST MUL OR SWAP1 SSTORE POP PUSH2 0x100 SWAP2 SWAP1 SWAP2 ADD MLOAD PUSH1 0x5 SWAP1 SWAP2 ADD DUP1 SLOAD SWAP2 ISZERO ISZERO PUSH4 0x1000000 MUL PUSH4 0xFF000000 NOT SWAP1 SWAP3 AND SWAP2 SWAP1 SWAP2 OR SWAP1 SSTORE DUP1 MLOAD PUSH1 0x0 SWAP1 DUP2 MSTORE PUSH1 0xB PUSH1 0x20 MSTORE PUSH1 0x40 DUP1 DUP3 KECCAK256 DUP5 SWAP1 SSTORE DUP6 DUP3 MSTORE DUP2 KECCAK256 SSTORE PUSH1 0xA DUP1 SLOAD DUP1 PUSH2 0x31CA JUMPI PUSH2 0x31CA PUSH2 0x3D2E JUMP JUMPDEST PUSH1 0x0 DUP3 DUP2 MSTORE PUSH1 0x20 DUP2 KECCAK256 PUSH1 0x6 PUSH1 0x0 NOT SWAP1 SWAP4 ADD SWAP3 DUP4 MUL ADD DUP2 DUP2 SSTORE PUSH1 0x1 DUP2 ADD DUP3 SWAP1 SSTORE PUSH1 0x2 DUP2 ADD SWAP2 SWAP1 SWAP2 SSTORE PUSH1 0x3 DUP2 ADD DUP1 SLOAD PUSH4 0xFFFFFFFF NOT SWAP1 DUP2 AND SWAP1 SWAP2 SSTORE PUSH1 0x4 DUP3 ADD DUP1 SLOAD DUP3 AND SWAP1 SSTORE PUSH1 0x5 SWAP1 SWAP2 ADD DUP1 SLOAD SWAP1 SWAP2 AND SWAP1 SSTORE SWAP1 SSTORE POP POP POP POP JUMP JUMPDEST PUSH1 0x0 PUSH2 0x322C DUP4 PUSH2 0xE5C JUMP JUMPDEST PUSH1 0x1 PUSH1 0x1 PUSH1 0xA0 SHL SUB SWAP1 SWAP4 AND PUSH1 0x0 SWAP1 DUP2 MSTORE PUSH1 0xC PUSH1 0x20 SWAP1 DUP2 MSTORE PUSH1 0x40 DUP1 DUP4 KECCAK256 DUP7 DUP5 MSTORE DUP3 MSTORE DUP1 DUP4 KECCAK256 DUP6 SWAP1 SSTORE SWAP4 DUP3 MSTORE PUSH1 0xD SWAP1 MSTORE SWAP2 SWAP1 SWAP2 KECCAK256 SWAP2 SWAP1 SWAP2 SSTORE POP JUMP JUMPDEST PUSH1 0x0 PUSH1 0xA PUSH2 0x3273 DUP4 DUP6 PUSH2 0x3B41 JUMP JUMPDEST PUSH2 0x327D SWAP2 SWAP1 PUSH2 0x3B9C JUMP JUMPDEST PUSH2 0x2580 SWAP1 PUSH1 0x5 PUSH2 0x3BBE JUMP JUMPDEST PUSH1 0x0 DUP1 PUSH1 0x2 PUSH2 0x3295 PUSH2 0x26E5 JUMP JUMPDEST PUSH2 0x329F SWAP2 SWAP1 PUSH2 0x3C12 JUMP JUMPDEST SWAP1 POP DUP1 PUSH1 0x1 EQ ISZERO PUSH2 0x32B3 JUMPI DUP4 SWAP2 POP POP PUSH2 0x630 JUMP JUMPDEST DUP3 SWAP2 POP POP PUSH2 0x630 JUMP JUMPDEST PUSH2 0x32C6 DUP4 DUP4 PUSH2 0x32EF JUMP JUMPDEST PUSH2 0x32D3 PUSH1 0x0 DUP5 DUP5 DUP5 PUSH2 0x2B9D JUMP JUMPDEST PUSH2 0x866 JUMPI PUSH1 0x40 MLOAD PUSH3 0x461BCD PUSH1 0xE5 SHL DUP2 MSTORE PUSH1 0x4 ADD PUSH2 0x730 SWAP1 PUSH2 0x3C82 JUMP JUMPDEST PUSH1 0x1 PUSH1 0x1 PUSH1 0xA0 SHL SUB DUP3 AND PUSH2 0x3345 JUMPI PUSH1 0x40 MLOAD PUSH3 0x461BCD PUSH1 0xE5 SHL DUP2 MSTORE PUSH1 0x20 PUSH1 0x4 DUP3 ADD DUP2 SWAP1 MSTORE PUSH1 0x24 DUP3 ADD MSTORE PUSH32 0x4552433732313A206D696E7420746F20746865207A65726F2061646472657373 PUSH1 0x44 DUP3 ADD MSTORE PUSH1 0x64 ADD PUSH2 0x730 JUMP JUMPDEST PUSH2 0x334E DUP2 PUSH2 0x18E6 JUMP JUMPDEST ISZERO PUSH2 0x339B JUMPI PUSH1 0x40 MLOAD PUSH3 0x461BCD PUSH1 0xE5 SHL DUP2 MSTORE PUSH1 0x20 PUSH1 0x4 DUP3 ADD MSTORE PUSH1 0x1C PUSH1 0x24 DUP3 ADD MSTORE PUSH32 0x4552433732313A20746F6B656E20616C7265616479206D696E74656400000000 PUSH1 0x44 DUP3 ADD MSTORE PUSH1 0x64 ADD PUSH2 0x730 JUMP JUMPDEST PUSH2 0x33A7 PUSH1 0x0 DUP4 DUP4 PUSH2 0x27AD JUMP JUMPDEST PUSH1 0x1 PUSH1 0x1 PUSH1 0xA0 SHL SUB DUP3 AND PUSH1 0x0 SWAP1 DUP2 MSTORE PUSH1 0x3 PUSH1 0x20 MSTORE PUSH1 0x40 DUP2 KECCAK256 DUP1 SLOAD PUSH1 0x1 SWAP3 SWAP1 PUSH2 0x33D0 SWAP1 DUP5 SWAP1 PUSH2 0x358E JUMP JUMPDEST SWAP1 SWAP2 SSTORE POP POP PUSH1 0x0 DUP2 DUP2 MSTORE PUSH1 0x2 PUSH1 0x20 MSTORE PUSH1 0x40 DUP1 DUP3 KECCAK256 DUP1 SLOAD PUSH1 0x1 PUSH1 0x1 PUSH1 0xA0 SHL SUB NOT AND PUSH1 0x1 PUSH1 0x1 PUSH1 0xA0 SHL SUB DUP7 AND SWAP1 DUP2 OR SWAP1 SWAP2 SSTORE SWAP1 MLOAD DUP4 SWAP3 SWAP1 PUSH32 0xDDF252AD1BE2C89B69C2B068FC378DAA952BA7F163C4A11628F55A4DF523B3EF SWAP1 DUP3 SWAP1 LOG4 POP POP JUMP JUMPDEST PUSH1 0x40 DUP1 MLOAD PUSH1 0x80 DUP2 ADD DUP3 MSTORE PUSH1 0x0 DUP1 DUP3 MSTORE PUSH1 0x20 DUP3 ADD DUP2 SWAP1 MSTORE SWAP2 DUP2 ADD DUP3 SWAP1 MSTORE PUSH1 0x60 DUP2 ADD SWAP2 SWAP1 SWAP2 MSTORE SWAP1 JUMP JUMPDEST PUSH1 0x40 MLOAD DUP1 PUSH2 0x120 ADD PUSH1 0x40 MSTORE DUP1 PUSH1 0x0 DUP2 MSTORE PUSH1 0x20 ADD PUSH1 0x0 DUP2 MSTORE PUSH1 0x20 ADD PUSH1 0x0 DUP2 MSTORE PUSH1 0x20 ADD PUSH2 0x347E PUSH2 0x342E JUMP JUMPDEST DUP2 MSTORE PUSH1 0x20 ADD PUSH2 0x348B PUSH2 0x342E JUMP JUMPDEST DUP2 MSTORE PUSH1 0x0 PUSH1 0x20 DUP3 ADD DUP2 SWAP1 MSTORE PUSH1 0x40 DUP3 ADD DUP2 SWAP1 MSTORE PUSH1 0x60 DUP3 ADD DUP2 SWAP1 MSTORE PUSH1 0x80 SWAP1 SWAP2 ADD MSTORE SWAP1 JUMP JUMPDEST POP DUP1 SLOAD PUSH2 0x34B9 SWAP1 PUSH2 0x3ACC JUMP JUMPDEST PUSH1 0x0 DUP3 SSTORE DUP1 PUSH1 0x1F LT PUSH2 0x34C9 JUMPI POP POP JUMP JUMPDEST PUSH1 0x1F ADD PUSH1 0x20 SWAP1 DIV SWAP1 PUSH1 0x0 MSTORE PUSH1 0x20 PUSH1 0x0 KECCAK256 SWAP1 DUP2 ADD SWAP1 PUSH2 0x1869 SWAP2 SWAP1 PUSH2 0x3563 JUMP JUMPDEST DUP3 DUP1 SLOAD PUSH2 0x34F3 SWAP1 PUSH2 0x3ACC JUMP JUMPDEST SWAP1 PUSH1 0x0 MSTORE PUSH1 0x20 PUSH1 0x0 KECCAK256 SWAP1 PUSH1 0x1F ADD PUSH1 0x20 SWAP1 DIV DUP2 ADD SWAP3 DUP3 PUSH2 0x3515 JUMPI PUSH1 0x0 DUP6 SSTORE PUSH2 0x355B JUMP JUMPDEST DUP3 PUSH1 0x1F LT PUSH2 0x352E JUMPI DUP1 MLOAD PUSH1 0xFF NOT AND DUP4 DUP1 ADD OR DUP6 SSTORE PUSH2 0x355B JUMP JUMPDEST DUP3 DUP1 ADD PUSH1 0x1 ADD DUP6 SSTORE DUP3 ISZERO PUSH2 0x355B JUMPI SWAP2 DUP3 ADD JUMPDEST DUP3 DUP2 GT ISZERO PUSH2 0x355B JUMPI DUP3 MLOAD DUP3 SSTORE SWAP2 PUSH1 0x20 ADD SWAP2 SWAP1 PUSH1 0x1 ADD SWAP1 PUSH2 0x3540 JUMP JUMPDEST POP PUSH2 0x1124 SWAP3 SWAP2 POP JUMPDEST JUMPDEST DUP1 DUP3 GT ISZERO PUSH2 0x1124 JUMPI PUSH1 0x0 DUP2 SSTORE PUSH1 0x1 ADD PUSH2 0x3564 JUMP JUMPDEST PUSH4 0x4E487B71 PUSH1 0xE0 SHL PUSH1 0x0 MSTORE PUSH1 0x11 PUSH1 0x4 MSTORE PUSH1 0x24 PUSH1 0x0 REVERT JUMPDEST PUSH1 0x0 DUP3 NOT DUP3 GT ISZERO PUSH2 0x35A1 JUMPI PUSH2 0x35A1 PUSH2 0x3578 JUMP JUMPDEST POP ADD SWAP1 JUMP JUMPDEST PUSH1 0x1 PUSH1 0x1 PUSH1 0xE0 SHL SUB NOT DUP2 AND DUP2 EQ PUSH2 0x1869 JUMPI PUSH1 0x0 DUP1 REVERT JUMPDEST PUSH1 0x0 PUSH1 0x20 DUP3 DUP5 SUB SLT ISZERO PUSH2 0x35CE JUMPI PUSH1 0x0 DUP1 REVERT JUMPDEST DUP2 CALLDATALOAD PUSH2 0x2580 DUP2 PUSH2 0x35A6 JUMP JUMPDEST PUSH1 0x0 JUMPDEST DUP4 DUP2 LT ISZERO PUSH2 0x35F4 JUMPI DUP2 DUP2 ADD MLOAD DUP4 DUP3 ADD MSTORE PUSH1 0x20 ADD PUSH2 0x35DC JUMP JUMPDEST DUP4 DUP2 GT ISZERO PUSH2 0x12D0 JUMPI POP POP PUSH1 0x0 SWAP2 ADD MSTORE JUMP JUMPDEST PUSH1 0x0 DUP2 MLOAD DUP1 DUP5 MSTORE PUSH2 0x361D DUP2 PUSH1 0x20 DUP7 ADD PUSH1 0x20 DUP7 ADD PUSH2 0x35D9 JUMP JUMPDEST PUSH1 0x1F ADD PUSH1 0x1F NOT AND SWAP3 SWAP1 SWAP3 ADD PUSH1 0x20 ADD SWAP3 SWAP2 POP POP JUMP JUMPDEST PUSH1 0x20 DUP2 MSTORE PUSH1 0x0 PUSH2 0x2580 PUSH1 0x20 DUP4 ADD DUP5 PUSH2 0x3605 JUMP JUMPDEST PUSH1 0x0 PUSH1 0x20 DUP3 DUP5 SUB SLT ISZERO PUSH2 0x3656 JUMPI PUSH1 0x0 DUP1 REVERT JUMPDEST POP CALLDATALOAD SWAP2 SWAP1 POP JUMP JUMPDEST DUP1 CALLDATALOAD PUSH1 0x1 PUSH1 0x1 PUSH1 0xA0 SHL SUB DUP2 AND DUP2 EQ PUSH2 0x3674 JUMPI PUSH1 0x0 DUP1 REVERT JUMPDEST SWAP2 SWAP1 POP JUMP JUMPDEST PUSH1 0x0 DUP1 PUSH1 0x40 DUP4 DUP6 SUB SLT ISZERO PUSH2 0x368C JUMPI PUSH1 0x0 DUP1 REVERT JUMPDEST PUSH2 0x3695 DUP4 PUSH2 0x365D JUMP JUMPDEST SWAP5 PUSH1 0x20 SWAP4 SWAP1 SWAP4 ADD CALLDATALOAD SWAP4 POP POP POP JUMP JUMPDEST PUSH1 0xFF DUP2 MLOAD AND DUP3 MSTORE PUSH1 0xFF PUSH1 0x20 DUP3 ADD MLOAD AND PUSH1 0x20 DUP4 ADD MSTORE PUSH1 0xFF PUSH1 0x40 DUP3 ADD MLOAD AND PUSH1 0x40 DUP4 ADD MSTORE PUSH1 0xFF PUSH1 0x60 DUP3 ADD MLOAD AND PUSH1 0x60 DUP4 ADD MSTORE POP POP JUMP JUMPDEST PUSH1 0x80 DUP2 ADD PUSH2 0x630 DUP3 DUP5 PUSH2 0x36A3 JUMP JUMPDEST PUSH1 0x0 DUP1 PUSH1 0x0 PUSH1 0x60 DUP5 DUP7 SUB SLT ISZERO PUSH2 0x36F8 JUMPI PUSH1 0x0 DUP1 REVERT JUMPDEST PUSH2 0x3701 DUP5 PUSH2 0x365D JUMP JUMPDEST SWAP3 POP PUSH2 0x370F PUSH1 0x20 DUP6 ADD PUSH2 0x365D JUMP JUMPDEST SWAP2 POP PUSH1 0x40 DUP5 ADD CALLDATALOAD SWAP1 POP SWAP3 POP SWAP3 POP SWAP3 JUMP JUMPDEST PUSH1 0x0 PUSH1 0x20 DUP3 DUP5 SUB SLT ISZERO PUSH2 0x3731 JUMPI PUSH1 0x0 DUP1 REVERT JUMPDEST PUSH2 0x2580 DUP3 PUSH2 0x365D JUMP JUMPDEST PUSH1 0x0 DUP1 PUSH1 0x40 DUP4 DUP6 SUB SLT ISZERO PUSH2 0x374D JUMPI PUSH1 0x0 DUP1 REVERT JUMPDEST POP POP DUP1 CALLDATALOAD SWAP3 PUSH1 0x20 SWAP1 SWAP2 ADD CALLDATALOAD SWAP2 POP JUMP JUMPDEST PUSH4 0x4E487B71 PUSH1 0xE0 SHL PUSH1 0x0 MSTORE PUSH1 0x21 PUSH1 0x4 MSTORE PUSH1 0x24 PUSH1 0x0 REVERT JUMPDEST PUSH1 0x3 DUP2 LT PUSH2 0x3790 JUMPI PUSH4 0x4E487B71 PUSH1 0xE0 SHL PUSH1 0x0 MSTORE PUSH1 0x21 PUSH1 0x4 MSTORE PUSH1 0x24 PUSH1 0x0 REVERT JUMPDEST SWAP1 MSTORE JUMP JUMPDEST DUP1 MLOAD DUP3 MSTORE PUSH1 0x20 DUP2 ADD MLOAD PUSH1 0x20 DUP4 ADD MSTORE PUSH1 0x40 DUP2 ADD MLOAD PUSH1 0x40 DUP4 ADD MSTORE PUSH1 0x60 DUP2 ADD MLOAD PUSH2 0x37BE PUSH1 0x60 DUP5 ADD DUP3 PUSH2 0x36A3 JUMP JUMPDEST POP PUSH1 0x80 DUP2 ADD MLOAD PUSH2 0x37D1 PUSH1 0xE0 DUP5 ADD DUP3 PUSH2 0x36A3 JUMP JUMPDEST POP PUSH1 0xA0 DUP2 ADD MLOAD PUSH1 0xFF SWAP1 DUP2 AND PUSH2 0x160 DUP5 ADD MSTORE PUSH1 0xC0 DUP3 ADD MLOAD AND PUSH2 0x180 DUP4 ADD MSTORE PUSH1 0xE0 DUP2 ADD MLOAD PUSH2 0x3801 PUSH2 0x1A0 DUP5 ADD DUP3 PUSH2 0x3772 JUMP JUMPDEST POP PUSH2 0x100 ADD MLOAD ISZERO ISZERO PUSH2 0x1C0 SWAP2 SWAP1 SWAP2 ADD MSTORE JUMP JUMPDEST PUSH2 0x1E0 DUP2 ADD PUSH2 0x630 DUP3 DUP5 PUSH2 0x3794 JUMP JUMPDEST PUSH1 0x1 PUSH1 0x1 PUSH1 0xA0 SHL SUB DUP6 AND DUP2 MSTORE PUSH1 0xFF DUP5 AND PUSH1 0x20 DUP3 ADD MSTORE PUSH1 0xE0 DUP2 ADD PUSH2 0x3848 PUSH1 0x40 DUP4 ADD DUP6 PUSH2 0x36A3 JUMP JUMPDEST PUSH2 0x3855 PUSH1 0xC0 DUP4 ADD DUP5 PUSH2 0x3772 JUMP JUMPDEST SWAP6 SWAP5 POP POP POP POP POP JUMP JUMPDEST PUSH1 0x20 DUP1 DUP3 MSTORE DUP3 MLOAD DUP3 DUP3 ADD DUP2 SWAP1 MSTORE PUSH1 0x0 SWAP2 SWAP1 DUP5 DUP3 ADD SWAP1 PUSH1 0x40 DUP6 ADD SWAP1 DUP5 JUMPDEST DUP2 DUP2 LT ISZERO PUSH2 0x38A1 JUMPI PUSH2 0x388D DUP4 DUP6 MLOAD PUSH2 0x3794 JUMP JUMPDEST SWAP3 DUP5 ADD SWAP3 PUSH2 0x1E0 SWAP3 SWAP1 SWAP3 ADD SWAP2 PUSH1 0x1 ADD PUSH2 0x387A JUMP JUMPDEST POP SWAP1 SWAP7 SWAP6 POP POP POP POP POP POP JUMP JUMPDEST DUP1 CALLDATALOAD DUP1 ISZERO ISZERO DUP2 EQ PUSH2 0x3674 JUMPI PUSH1 0x0 DUP1 REVERT JUMPDEST PUSH1 0x0 DUP1 PUSH1 0x40 DUP4 DUP6 SUB SLT ISZERO PUSH2 0x38D0 JUMPI PUSH1 0x0 DUP1 REVERT JUMPDEST PUSH2 0x38D9 DUP4 PUSH2 0x365D JUMP JUMPDEST SWAP2 POP PUSH2 0x38E7 PUSH1 0x20 DUP5 ADD PUSH2 0x38AD JUMP JUMPDEST SWAP1 POP SWAP3 POP SWAP3 SWAP1 POP JUMP JUMPDEST PUSH4 0x4E487B71 PUSH1 0xE0 SHL PUSH1 0x0 MSTORE PUSH1 0x41 PUSH1 0x4 MSTORE PUSH1 0x24 PUSH1 0x0 REVERT JUMPDEST PUSH1 0x0 DUP1 PUSH1 0x0 DUP1 PUSH1 0x80 DUP6 DUP8 SUB SLT ISZERO PUSH2 0x391C JUMPI PUSH1 0x0 DUP1 REVERT JUMPDEST PUSH2 0x3925 DUP6 PUSH2 0x365D JUMP JUMPDEST SWAP4 POP PUSH2 0x3933 PUSH1 0x20 DUP7 ADD PUSH2 0x365D JUMP JUMPDEST SWAP3 POP PUSH1 0x40 DUP6 ADD CALLDATALOAD SWAP2 POP PUSH1 0x60 DUP6 ADD CALLDATALOAD PUSH8 0xFFFFFFFFFFFFFFFF DUP1 DUP3 GT ISZERO PUSH2 0x3957 JUMPI PUSH1 0x0 DUP1 REVERT JUMPDEST DUP2 DUP8 ADD SWAP2 POP DUP8 PUSH1 0x1F DUP4 ADD SLT PUSH2 0x396B JUMPI PUSH1 0x0 DUP1 REVERT JUMPDEST DUP2 CALLDATALOAD DUP2 DUP2 GT ISZERO PUSH2 0x397D JUMPI PUSH2 0x397D PUSH2 0x38F0 JUMP JUMPDEST PUSH1 0x40 MLOAD PUSH1 0x1F DUP3 ADD PUSH1 0x1F NOT SWAP1 DUP2 AND PUSH1 0x3F ADD AND DUP2 ADD SWAP1 DUP4 DUP3 GT DUP2 DUP4 LT OR ISZERO PUSH2 0x39A5 JUMPI PUSH2 0x39A5 PUSH2 0x38F0 JUMP JUMPDEST DUP2 PUSH1 0x40 MSTORE DUP3 DUP2 MSTORE DUP11 PUSH1 0x20 DUP5 DUP8 ADD ADD GT ISZERO PUSH2 0x39BE JUMPI PUSH1 0x0 DUP1 REVERT JUMPDEST DUP3 PUSH1 0x20 DUP7 ADD PUSH1 0x20 DUP4 ADD CALLDATACOPY PUSH1 0x0 PUSH1 0x20 DUP5 DUP4 ADD ADD MSTORE DUP1 SWAP6 POP POP POP POP POP POP SWAP3 SWAP6 SWAP2 SWAP5 POP SWAP3 POP JUMP JUMPDEST PUSH1 0x0 DUP1 PUSH1 0x40 DUP4 DUP6 SUB SLT ISZERO PUSH2 0x39F5 JUMPI PUSH1 0x0 DUP1 REVERT JUMPDEST DUP3 CALLDATALOAD SWAP2 POP PUSH2 0x38E7 PUSH1 0x20 DUP5 ADD PUSH2 0x38AD JUMP JUMPDEST PUSH1 0x20 DUP1 DUP3 MSTORE DUP3 MLOAD DUP3 DUP3 ADD DUP2 SWAP1 MSTORE PUSH1 0x0 SWAP2 SWAP1 PUSH1 0x40 SWAP1 DUP2 DUP6 ADD SWAP1 DUP7 DUP5 ADD DUP6 JUMPDEST DUP3 DUP2 LT ISZERO PUSH2 0x3A74 JUMPI DUP2 MLOAD DUP1 MLOAD DUP6 MSTORE PUSH1 0xFF DUP8 DUP3 ADD MLOAD AND DUP8 DUP7 ADD MSTORE DUP6 DUP2 ADD MLOAD PUSH2 0x3A4B DUP8 DUP8 ADD DUP3 PUSH2 0x3772 JUMP JUMPDEST POP PUSH1 0x60 SWAP1 DUP2 ADD MLOAD SWAP1 PUSH2 0x3A5F DUP7 DUP3 ADD DUP4 PUSH2 0x36A3 JUMP JUMPDEST POP POP PUSH1 0xE0 SWAP4 SWAP1 SWAP4 ADD SWAP3 SWAP1 DUP6 ADD SWAP1 PUSH1 0x1 ADD PUSH2 0x3A22 JUMP JUMPDEST POP SWAP2 SWAP8 SWAP7 POP POP POP POP POP POP POP JUMP JUMPDEST PUSH1 0x0 PUSH1 0x20 DUP3 DUP5 SUB SLT ISZERO PUSH2 0x3A93 JUMPI PUSH1 0x0 DUP1 REVERT JUMPDEST DUP2 CALLDATALOAD PUSH1 0x3 DUP2 LT PUSH2 0x2580 JUMPI PUSH1 0x0 DUP1 REVERT JUMPDEST PUSH1 0x0 DUP1 PUSH1 0x40 DUP4 DUP6 SUB SLT ISZERO PUSH2 0x3AB5 JUMPI PUSH1 0x0 DUP1 REVERT JUMPDEST PUSH2 0x3ABE DUP4 PUSH2 0x365D JUMP JUMPDEST SWAP2 POP PUSH2 0x38E7 PUSH1 0x20 DUP5 ADD PUSH2 0x365D JUMP JUMPDEST PUSH1 0x1 DUP2 DUP2 SHR SWAP1 DUP3 AND DUP1 PUSH2 0x3AE0 JUMPI PUSH1 0x7F DUP3 AND SWAP2 POP JUMPDEST PUSH1 0x20 DUP3 LT DUP2 EQ ISZERO PUSH2 0x902 JUMPI PUSH4 0x4E487B71 PUSH1 0xE0 SHL PUSH1 0x0 MSTORE PUSH1 0x22 PUSH1 0x4 MSTORE PUSH1 0x24 PUSH1 0x0 REVERT JUMPDEST PUSH4 0x4E487B71 PUSH1 0xE0 SHL PUSH1 0x0 MSTORE PUSH1 0x32 PUSH1 0x4 MSTORE PUSH1 0x24 PUSH1 0x0 REVERT JUMPDEST PUSH4 0x4E487B71 PUSH1 0xE0 SHL PUSH1 0x0 MSTORE PUSH1 0x12 PUSH1 0x4 MSTORE PUSH1 0x24 PUSH1 0x0 REVERT JUMPDEST PUSH1 0x0 DUP3 PUSH2 0x3B3C JUMPI PUSH2 0x3B3C PUSH2 0x3B17 JUMP JUMPDEST POP DIV SWAP1 JUMP JUMPDEST PUSH1 0x0 PUSH1 0xFF DUP3 AND PUSH1 0xFF DUP5 AND DUP2 PUSH1 0xFF DIV DUP2 GT DUP3 ISZERO ISZERO AND ISZERO PUSH2 0x3B62 JUMPI PUSH2 0x3B62 PUSH2 0x3578 JUMP JUMPDEST MUL SWAP4 SWAP3 POP POP POP JUMP JUMPDEST PUSH1 0x0 DUP3 DUP3 LT ISZERO PUSH2 0x3B7C JUMPI PUSH2 0x3B7C PUSH2 0x3578 JUMP JUMPDEST POP SUB SWAP1 JUMP JUMPDEST PUSH1 0x0 PUSH1 0x0 NOT DUP3 EQ ISZERO PUSH2 0x3B95 JUMPI PUSH2 0x3B95 PUSH2 0x3578 JUMP JUMPDEST POP PUSH1 0x1 ADD SWAP1 JUMP JUMPDEST PUSH1 0x0 PUSH1 0xFF DUP4 AND DUP1 PUSH2 0x3BAF JUMPI PUSH2 0x3BAF PUSH2 0x3B17 JUMP JUMPDEST DUP1 PUSH1 0xFF DUP5 AND DIV SWAP2 POP POP SWAP3 SWAP2 POP POP JUMP JUMPDEST PUSH1 0x0 PUSH1 0xFF DUP3 AND PUSH1 0xFF DUP5 AND DUP1 PUSH1 0xFF SUB DUP3 GT ISZERO PUSH2 0x3BDB JUMPI PUSH2 0x3BDB PUSH2 0x3578 JUMP JUMPDEST ADD SWAP4 SWAP3 POP POP POP JUMP JUMPDEST PUSH1 0x0 DUP4 MLOAD PUSH2 0x3BF5 DUP2 DUP5 PUSH1 0x20 DUP9 ADD PUSH2 0x35D9 JUMP JUMPDEST DUP4 MLOAD SWAP1 DUP4 ADD SWAP1 PUSH2 0x3C09 DUP2 DUP4 PUSH1 0x20 DUP9 ADD PUSH2 0x35D9 JUMP JUMPDEST ADD SWAP5 SWAP4 POP POP POP POP JUMP JUMPDEST PUSH1 0x0 DUP3 PUSH2 0x3C21 JUMPI PUSH2 0x3C21 PUSH2 0x3B17 JUMP JUMPDEST POP MOD SWAP1 JUMP JUMPDEST PUSH1 0x0 PUSH1 0xFF DUP3 AND PUSH1 0xFF DUP5 AND DUP1 DUP3 LT ISZERO PUSH2 0x3C40 JUMPI PUSH2 0x3C40 PUSH2 0x3578 JUMP JUMPDEST SWAP1 SUB SWAP4 SWAP3 POP POP POP JUMP JUMPDEST PUSH2 0x100 DUP2 ADD PUSH2 0x3C58 DUP3 DUP6 PUSH2 0x36A3 JUMP JUMPDEST PUSH2 0x2580 PUSH1 0x80 DUP4 ADD DUP5 PUSH2 0x36A3 JUMP JUMPDEST PUSH1 0x0 PUSH1 0xFF DUP3 AND DUP1 PUSH2 0x3C78 JUMPI PUSH2 0x3C78 PUSH2 0x3578 JUMP JUMPDEST PUSH1 0x0 NOT ADD SWAP3 SWAP2 POP POP JUMP JUMPDEST PUSH1 0x20 DUP1 DUP3 MSTORE PUSH1 0x32 SWAP1 DUP3 ADD MSTORE PUSH32 0x4552433732313A207472616E7366657220746F206E6F6E204552433732315265 PUSH1 0x40 DUP3 ADD MSTORE PUSH18 0x31B2B4BB32B91034B6B83632B6B2B73A32B9 PUSH1 0x71 SHL PUSH1 0x60 DUP3 ADD MSTORE PUSH1 0x80 ADD SWAP1 JUMP JUMPDEST PUSH1 0x1 PUSH1 0x1 PUSH1 0xA0 SHL SUB DUP6 DUP2 AND DUP3 MSTORE DUP5 AND PUSH1 0x20 DUP3 ADD MSTORE PUSH1 0x40 DUP2 ADD DUP4 SWAP1 MSTORE PUSH1 0x80 PUSH1 0x60 DUP3 ADD DUP2 SWAP1 MSTORE PUSH1 0x0 SWAP1 PUSH2 0x3D07 SWAP1 DUP4 ADD DUP5 PUSH2 0x3605 JUMP JUMPDEST SWAP7 SWAP6 POP POP POP POP POP POP JUMP JUMPDEST PUSH1 0x0 PUSH1 0x20 DUP3 DUP5 SUB SLT ISZERO PUSH2 0x3D23 JUMPI PUSH1 0x0 DUP1 REVERT JUMPDEST DUP2 MLOAD PUSH2 0x2580 DUP2 PUSH2 0x35A6 JUMP JUMPDEST PUSH4 0x4E487B71 PUSH1 0xE0 SHL PUSH1 0x0 MSTORE PUSH1 0x31 PUSH1 0x4 MSTORE PUSH1 0x24 PUSH1 0x0 REVERT INVALID LOG2 PUSH5 0x6970667358 0x22 SLT KECCAK256 DUP4 EQ 0xC6 DELEGATECALL BYTE 0xEA GT 0x2F 0xD0 PUSH13 0x4039B2FBE8B2C07351B39CBA13 0xE2 0xF9 0x5F DUP10 0xBA 0xD2 0xE3 0xE5 0x29 PUSH5 0x736F6C6343 STOP ADDMOD MULMOD STOP CALLER "
		},
		"gasEstimates": {
			"creation": {
				"codeDepositCost": "3147600",
				"executionCost": "infinite",
				"totalCost": "infinite"
			},
			"external": {
				"approve(address,uint256)": "infinite",
				"balanceOf(address)": "2635",
				"battleWithDefaultMonster(uint256,uint256)": "infinite",
				"battleWithPlayer(uint256,uint256)": "infinite",
				"deleteMonster(uint256)": "infinite",
				"depositOf(address)": "2697",
				"getApproved(uint256)": "4799",
				"getChild(uint256,uint256)": "infinite",
				"getInitialMonster(uint8)": "infinite",
				"getOwnedMonster()": "infinite",
				"getProductInfo(uint256)": "25178",
				"getStatics(uint256)": "9630",
				"isApprovedForAll(address,address)": "infinite",
				"lockMonster(uint256,bool)": "32752",
				"monsterById(uint256)": "infinite",
				"name()": "infinite",
				"ownerOf(uint256)": "2645",
				"pickCompetitionRandomly()": "infinite",
				"safeTransferFrom(address,address,uint256)": "infinite",
				"safeTransferFrom(address,address,uint256,bytes)": "infinite",
				"setApprovalForAll(address,bool)": "infinite",
				"supportsInterface(bytes4)": "534",
				"symbol()": "infinite",
				"tokenURI(uint256)": "infinite",
				"totalSupply()": "2393",
				"transferFrom(address,address,uint256)": "infinite",
				"transferMoney(address,address,uint256)": "infinite"
			},
			"internal": {
				"_contain(uint256[] memory,uint256)": "infinite",
				"_getChildIv(struct MonsterLib.IndividualValue memory,struct MonsterLib.IndividualValue memory)": "infinite",
				"_getNewIv(uint8,uint8)": "infinite",
				"_getNewValueFromParents(uint8,uint8)": "infinite",
				"_getNewValueRandomly()": "infinite",
				"_random()": "infinite",
				"_simulateBattle(struct MonsterFactory.Fighter memory,struct MonsterFactory.Fighter memory)": "infinite"
			}
		},
		"methodIdentifiers": {
			"approve(address,uint256)": "095ea7b3",
			"balanceOf(address)": "70a08231",
			"battleWithDefaultMonster(uint256,uint256)": "368fabdf",
			"battleWithPlayer(uint256,uint256)": "c3cfcdc8",
			"deleteMonster(uint256)": "fe3296f8",
			"depositOf(address)": "23e3fbd5",
			"getApproved(uint256)": "081812fc",
			"getChild(uint256,uint256)": "b6db669d",
			"getInitialMonster(uint8)": "dff0bdaf",
			"getOwnedMonster()": "7a5800c5",
			"getProductInfo(uint256)": "79a85e6c",
			"getStatics(uint256)": "1dddf164",
			"isApprovedForAll(address,address)": "e985e9c5",
			"lockMonster(uint256,bool)": "caece7bb",
			"monsterById(uint256)": "422666a7",
			"name()": "06fdde03",
			"ownerOf(uint256)": "6352211e",
			"pickCompetitionRandomly()": "ccd1a9e9",
			"safeTransferFrom(address,address,uint256)": "42842e0e",
			"safeTransferFrom(address,address,uint256,bytes)": "b88d4fde",
			"setApprovalForAll(address,bool)": "a22cb465",
			"supportsInterface(bytes4)": "01ffc9a7",
			"symbol()": "95d89b41",
			"tokenURI(uint256)": "c87b56dd",
			"totalSupply()": "18160ddd",
			"transferFrom(address,address,uint256)": "23b872dd",
			"transferMoney(address,address,uint256)": "6410381c"
		}
	},
	"abi": [
		{
			"inputs": [],
			"stateMutability": "nonpayable",
			"type": "constructor"
		},
		{
			"anonymous": false,
			"inputs": [
				{
					"indexed": true,
					"internalType": "address",
					"name": "owner",
					"type": "address"
				},
				{
					"indexed": true,
					"internalType": "address",
					"name": "approved",
					"type": "address"
				},
				{
					"indexed": true,
					"internalType": "uint256",
					"name": "tokenId",
					"type": "uint256"
				}
			],
			"name": "Approval",
			"type": "event"
		},
		{
			"anonymous": false,
			"inputs": [
				{
					"indexed": true,
					"internalType": "address",
					"name": "owner",
					"type": "address"
				},
				{
					"indexed": true,
					"internalType": "address",
					"name": "operator",
					"type": "address"
				},
				{
					"indexed": false,
					"internalType": "bool",
					"name": "approved",
					"type": "bool"
				}
			],
			"name": "ApprovalForAll",
			"type": "event"
		},
		{
			"anonymous": false,
			"inputs": [
				{
					"indexed": false,
					"internalType": "bool",
					"name": "",
					"type": "bool"
				}
			],
			"name": "Fighter1Win",
			"type": "event"
		},
		{
			"anonymous": false,
			"inputs": [
				{
					"components": [
						{
							"internalType": "uint8",
							"name": "HP",
							"type": "uint8"
						},
						{
							"internalType": "uint8",
							"name": "strength",
							"type": "uint8"
						},
						{
							"internalType": "uint8",
							"name": "defensive",
							"type": "uint8"
						},
						{
							"internalType": "uint8",
							"name": "speed",
							"type": "uint8"
						}
					],
					"indexed": false,
					"internalType": "struct MonsterLib.Statistics",
					"name": "",
					"type": "tuple"
				},
				{
					"components": [
						{
							"internalType": "uint8",
							"name": "HP",
							"type": "uint8"
						},
						{
							"internalType": "uint8",
							"name": "strength",
							"type": "uint8"
						},
						{
							"internalType": "uint8",
							"name": "defensive",
							"type": "uint8"
						},
						{
							"internalType": "uint8",
							"name": "speed",
							"type": "uint8"
						}
					],
					"indexed": false,
					"internalType": "struct MonsterLib.Statistics",
					"name": "",
					"type": "tuple"
				}
			],
			"name": "LevelUp",
			"type": "event"
		},
		{
			"anonymous": false,
			"inputs": [
				{
					"indexed": false,
					"internalType": "uint256",
					"name": "",
					"type": "uint256"
				},
				{
					"indexed": false,
					"internalType": "bool",
					"name": "",
					"type": "bool"
				}
			],
			"name": "LockMonster",
			"type": "event"
		},
		{
			"anonymous": false,
			"inputs": [
				{
					"indexed": false,
					"internalType": "uint256",
					"name": "",
					"type": "uint256"
				}
			],
			"name": "MonsterInMarket",
			"type": "event"
		},
		{
			"anonymous": false,
			"inputs": [
				{
					"indexed": false,
					"internalType": "address",
					"name": "from",
					"type": "address"
				},
				{
					"indexed": false,
					"internalType": "uint256",
					"name": "amount",
					"type": "uint256"
				}
			],
			"name": "ReceiveEth",
			"type": "event"
		},
		{
			"anonymous": false,
			"inputs": [
				{
					"indexed": true,
					"internalType": "address",
					"name": "from",
					"type": "address"
				},
				{
					"indexed": true,
					"internalType": "address",
					"name": "to",
					"type": "address"
				},
				{
					"indexed": true,
					"internalType": "uint256",
					"name": "tokenId",
					"type": "uint256"
				}
			],
			"name": "Transfer",
			"type": "event"
		},
		{
			"anonymous": false,
			"inputs": [
				{
					"indexed": false,
					"internalType": "address",
					"name": "",
					"type": "address"
				},
				{
					"indexed": false,
					"internalType": "address",
					"name": "",
					"type": "address"
				},
				{
					"indexed": false,
					"internalType": "uint256",
					"name": "",
					"type": "uint256"
				}
			],
			"name": "TransferMoney",
			"type": "event"
		},
		{
			"inputs": [
				{
					"internalType": "address",
					"name": "to",
					"type": "address"
				},
				{
					"internalType": "uint256",
					"name": "tokenId",
					"type": "uint256"
				}
			],
			"name": "approve",
			"outputs": [],
			"stateMutability": "nonpayable",
			"type": "function"
		},
		{
			"inputs": [
				{
					"internalType": "address",
					"name": "owner",
					"type": "address"
				}
			],
			"name": "balanceOf",
			"outputs": [
				{
					"internalType": "uint256",
					"name": "",
					"type": "uint256"
				}
			],
			"stateMutability": "view",
			"type": "function"
		},
		{
			"inputs": [
				{
					"internalType": "uint256",
					"name": "_tokenId",
					"type": "uint256"
				},
				{
					"internalType": "uint256",
					"name": "_defaultMonsterId",
					"type": "uint256"
				}
			],
			"name": "battleWithDefaultMonster",
			"outputs": [
				{
					"internalType": "bool",
					"name": "",
					"type": "bool"
				}
			],
			"stateMutability": "nonpayable",
			"type": "function"
		},
		{
			"inputs": [
				{
					"internalType": "uint256",
					"name": "_tokenId1",
					"type": "uint256"
				},
				{
					"internalType": "uint256",
					"name": "_tokenId2",
					"type": "uint256"
				}
			],
			"name": "battleWithPlayer",
			"outputs": [
				{
					"internalType": "bool",
					"name": "",
					"type": "bool"
				}
			],
			"stateMutability": "nonpayable",
			"type": "function"
		},
		{
			"inputs": [
				{
					"internalType": "uint256",
					"name": "_monsterId",
					"type": "uint256"
				}
			],
			"name": "deleteMonster",
			"outputs": [],
			"stateMutability": "nonpayable",
			"type": "function"
		},
		{
			"inputs": [
				{
					"internalType": "address",
					"name": "owner",
					"type": "address"
				}
			],
			"name": "depositOf",
			"outputs": [
				{
					"internalType": "uint256",
					"name": "",
					"type": "uint256"
				}
			],
			"stateMutability": "view",
			"type": "function"
		},
		{
			"inputs": [
				{
					"internalType": "uint256",
					"name": "tokenId",
					"type": "uint256"
				}
			],
			"name": "getApproved",
			"outputs": [
				{
					"internalType": "address",
					"name": "",
					"type": "address"
				}
			],
			"stateMutability": "view",
			"type": "function"
		},
		{
			"inputs": [
				{
					"internalType": "uint256",
					"name": "_mumId",
					"type": "uint256"
				},
				{
					"internalType": "uint256",
					"name": "_dadId",
					"type": "uint256"
				}
			],
			"name": "getChild",
			"outputs": [],
			"stateMutability": "nonpayable",
			"type": "function"
		},
		{
			"inputs": [
				{
					"internalType": "enum MonsterLib.Race",
					"name": "race",
					"type": "uint8"
				}
			],
			"name": "getInitialMonster",
			"outputs": [],
			"stateMutability": "nonpayable",
			"type": "function"
		},
		{
			"inputs": [],
			"name": "getOwnedMonster",
			"outputs": [
				{
					"components": [
						{
							"internalType": "uint256",
							"name": "tokenId",
							"type": "uint256"
						},
						{
							"internalType": "uint256",
							"name": "mumId",
							"type": "uint256"
						},
						{
							"internalType": "uint256",
							"name": "dadId",
							"type": "uint256"
						},
						{
							"components": [
								{
									"internalType": "uint8",
									"name": "HP",
									"type": "uint8"
								},
								{
									"internalType": "uint8",
									"name": "strength",
									"type": "uint8"
								},
								{
									"internalType": "uint8",
									"name": "defensive",
									"type": "uint8"
								},
								{
									"internalType": "uint8",
									"name": "speed",
									"type": "uint8"
								}
							],
							"internalType": "struct MonsterLib.Statistics",
							"name": "statc",
							"type": "tuple"
						},
						{
							"components": [
								{
									"internalType": "uint8",
									"name": "HP",
									"type": "uint8"
								},
								{
									"internalType": "uint8",
									"name": "strength",
									"type": "uint8"
								},
								{
									"internalType": "uint8",
									"name": "defensive",
									"type": "uint8"
								},
								{
									"internalType": "uint8",
									"name": "speed",
									"type": "uint8"
								}
							],
							"internalType": "struct MonsterLib.IndividualValue",
							"name": "iv",
							"type": "tuple"
						},
						{
							"internalType": "uint8",
							"name": "level",
							"type": "uint8"
						},
						{
							"internalType": "uint8",
							"name": "expNeedToNext",
							"type": "uint8"
						},
						{
							"internalType": "enum MonsterLib.Race",
							"name": "race",
							"type": "uint8"
						},
						{
							"internalType": "bool",
							"name": "isLocked",
							"type": "bool"
						}
					],
					"internalType": "struct MonsterLib.Monster[]",
					"name": "monsters",
					"type": "tuple[]"
				}
			],
			"stateMutability": "view",
			"type": "function"
		},
		{
			"inputs": [
				{
					"internalType": "uint256",
					"name": "_tokenId",
					"type": "uint256"
				}
			],
			"name": "getProductInfo",
			"outputs": [
				{
					"internalType": "address",
					"name": "",
					"type": "address"
				},
				{
					"internalType": "uint8",
					"name": "",
					"type": "uint8"
				},
				{
					"components": [
						{
							"internalType": "uint8",
							"name": "HP",
							"type": "uint8"
						},
						{
							"internalType": "uint8",
							"name": "strength",
							"type": "uint8"
						},
						{
							"internalType": "uint8",
							"name": "defensive",
							"type": "uint8"
						},
						{
							"internalType": "uint8",
							"name": "speed",
							"type": "uint8"
						}
					],
					"internalType": "struct MonsterLib.Statistics",
					"name": "",
					"type": "tuple"
				},
				{
					"internalType": "enum MonsterLib.Race",
					"name": "",
					"type": "uint8"
				}
			],
			"stateMutability": "view",
			"type": "function"
		},
		{
			"inputs": [
				{
					"internalType": "uint256",
					"name": "_tokenId",
					"type": "uint256"
				}
			],
			"name": "getStatics",
			"outputs": [
				{
					"components": [
						{
							"internalType": "uint8",
							"name": "HP",
							"type": "uint8"
						},
						{
							"internalType": "uint8",
							"name": "strength",
							"type": "uint8"
						},
						{
							"internalType": "uint8",
							"name": "defensive",
							"type": "uint8"
						},
						{
							"internalType": "uint8",
							"name": "speed",
							"type": "uint8"
						}
					],
					"internalType": "struct MonsterLib.Statistics",
					"name": "",
					"type": "tuple"
				}
			],
			"stateMutability": "view",
			"type": "function"
		},
		{
			"inputs": [
				{
					"internalType": "address",
					"name": "owner",
					"type": "address"
				},
				{
					"internalType": "address",
					"name": "operator",
					"type": "address"
				}
			],
			"name": "isApprovedForAll",
			"outputs": [
				{
					"internalType": "bool",
					"name": "",
					"type": "bool"
				}
			],
			"stateMutability": "view",
			"type": "function"
		},
		{
			"inputs": [
				{
					"internalType": "uint256",
					"name": "_tokenId",
					"type": "uint256"
				},
				{
					"internalType": "bool",
					"name": "_locked",
					"type": "bool"
				}
			],
			"name": "lockMonster",
			"outputs": [],
			"stateMutability": "nonpayable",
			"type": "function"
		},
		{
			"inputs": [
				{
					"internalType": "uint256",
					"name": "_tokenId",
					"type": "uint256"
				}
			],
			"name": "monsterById",
			"outputs": [
				{
					"components": [
						{
							"internalType": "uint256",
							"name": "tokenId",
							"type": "uint256"
						},
						{
							"internalType": "uint256",
							"name": "mumId",
							"type": "uint256"
						},
						{
							"internalType": "uint256",
							"name": "dadId",
							"type": "uint256"
						},
						{
							"components": [
								{
									"internalType": "uint8",
									"name": "HP",
									"type": "uint8"
								},
								{
									"internalType": "uint8",
									"name": "strength",
									"type": "uint8"
								},
								{
									"internalType": "uint8",
									"name": "defensive",
									"type": "uint8"
								},
								{
									"internalType": "uint8",
									"name": "speed",
									"type": "uint8"
								}
							],
							"internalType": "struct MonsterLib.Statistics",
							"name": "statc",
							"type": "tuple"
						},
						{
							"components": [
								{
									"internalType": "uint8",
									"name": "HP",
									"type": "uint8"
								},
								{
									"internalType": "uint8",
									"name": "strength",
									"type": "uint8"
								},
								{
									"internalType": "uint8",
									"name": "defensive",
									"type": "uint8"
								},
								{
									"internalType": "uint8",
									"name": "speed",
									"type": "uint8"
								}
							],
							"internalType": "struct MonsterLib.IndividualValue",
							"name": "iv",
							"type": "tuple"
						},
						{
							"internalType": "uint8",
							"name": "level",
							"type": "uint8"
						},
						{
							"internalType": "uint8",
							"name": "expNeedToNext",
							"type": "uint8"
						},
						{
							"internalType": "enum MonsterLib.Race",
							"name": "race",
							"type": "uint8"
						},
						{
							"internalType": "bool",
							"name": "isLocked",
							"type": "bool"
						}
					],
					"internalType": "struct MonsterLib.Monster",
					"name": "",
					"type": "tuple"
				}
			],
			"stateMutability": "view",
			"type": "function"
		},
		{
			"inputs": [],
			"name": "name",
			"outputs": [
				{
					"internalType": "string",
					"name": "",
					"type": "string"
				}
			],
			"stateMutability": "view",
			"type": "function"
		},
		{
			"inputs": [
				{
					"internalType": "uint256",
					"name": "tokenId",
					"type": "uint256"
				}
			],
			"name": "ownerOf",
			"outputs": [
				{
					"internalType": "address",
					"name": "",
					"type": "address"
				}
			],
			"stateMutability": "view",
			"type": "function"
		},
		{
			"inputs": [],
			"name": "pickCompetitionRandomly",
			"outputs": [
				{
					"components": [
						{
							"internalType": "uint256",
							"name": "tokenId",
							"type": "uint256"
						},
						{
							"internalType": "uint8",
							"name": "level",
							"type": "uint8"
						},
						{
							"internalType": "enum MonsterLib.Race",
							"name": "race",
							"type": "uint8"
						},
						{
							"components": [
								{
									"internalType": "uint8",
									"name": "HP",
									"type": "uint8"
								},
								{
									"internalType": "uint8",
									"name": "strength",
									"type": "uint8"
								},
								{
									"internalType": "uint8",
									"name": "defensive",
									"type": "uint8"
								},
								{
									"internalType": "uint8",
									"name": "speed",
									"type": "uint8"
								}
							],
							"internalType": "struct MonsterLib.Statistics",
							"name": "statc",
							"type": "tuple"
						}
					],
					"internalType": "struct MonsterFactory.Competitor[]",
					"name": "",
					"type": "tuple[]"
				}
			],
			"stateMutability": "view",
			"type": "function"
		},
		{
			"inputs": [
				{
					"internalType": "address",
					"name": "from",
					"type": "address"
				},
				{
					"internalType": "address",
					"name": "to",
					"type": "address"
				},
				{
					"internalType": "uint256",
					"name": "tokenId",
					"type": "uint256"
				}
			],
			"name": "safeTransferFrom",
			"outputs": [],
			"stateMutability": "nonpayable",
			"type": "function"
		},
		{
			"inputs": [
				{
					"internalType": "address",
					"name": "from",
					"type": "address"
				},
				{
					"internalType": "address",
					"name": "to",
					"type": "address"
				},
				{
					"internalType": "uint256",
					"name": "tokenId",
					"type": "uint256"
				},
				{
					"internalType": "bytes",
					"name": "_data",
					"type": "bytes"
				}
			],
			"name": "safeTransferFrom",
			"outputs": [],
			"stateMutability": "nonpayable",
			"type": "function"
		},
		{
			"inputs": [
				{
					"internalType": "address",
					"name": "operator",
					"type": "address"
				},
				{
					"internalType": "bool",
					"name": "approved",
					"type": "bool"
				}
			],
			"name": "setApprovalForAll",
			"outputs": [],
			"stateMutability": "nonpayable",
			"type": "function"
		},
		{
			"inputs": [
				{
					"internalType": "bytes4",
					"name": "interfaceId",
					"type": "bytes4"
				}
			],
			"name": "supportsInterface",
			"outputs": [
				{
					"internalType": "bool",
					"name": "",
					"type": "bool"
				}
			],
			"stateMutability": "view",
			"type": "function"
		},
		{
			"inputs": [],
			"name": "symbol",
			"outputs": [
				{
					"internalType": "string",
					"name": "",
					"type": "string"
				}
			],
			"stateMutability": "view",
			"type": "function"
		},
		{
			"inputs": [
				{
					"internalType": "uint256",
					"name": "tokenId",
					"type": "uint256"
				}
			],
			"name": "tokenURI",
			"outputs": [
				{
					"internalType": "string",
					"name": "",
					"type": "string"
				}
			],
			"stateMutability": "view",
			"type": "function"
		},
		{
			"inputs": [],
			"name": "totalSupply",
			"outputs": [
				{
					"internalType": "uint256",
					"name": "",
					"type": "uint256"
				}
			],
			"stateMutability": "view",
			"type": "function"
		},
		{
			"inputs": [
				{
					"internalType": "address",
					"name": "_from",
					"type": "address"
				},
				{
					"internalType": "address",
					"name": "_to",
					"type": "address"
				},
				{
					"internalType": "uint256",
					"name": "_tokenId",
					"type": "uint256"
				}
			],
			"name": "transferFrom",
			"outputs": [],
			"stateMutability": "nonpayable",
			"type": "function"
		},
		{
			"inputs": [
				{
					"internalType": "address",
					"name": "_from",
					"type": "address"
				},
				{
					"internalType": "address",
					"name": "_to",
					"type": "address"
				},
				{
					"internalType": "uint256",
					"name": "_value",
					"type": "uint256"
				}
			],
			"name": "transferMoney",
			"outputs": [],
			"stateMutability": "nonpayable",
			"type": "function"
		},
		{
			"stateMutability": "payable",
			"type": "receive"
		}
	]
}